{
	"CurrentRequest.sol": {
		"Developer": {
			"abi": [
				{
					"inputs": [
						{
							"internalType": "uint256",
							"name": "",
							"type": "uint256"
						}
					],
					"name": "bugs_arr",
					"outputs": [
						{
							"internalType": "string",
							"name": "bugTitle",
							"type": "string"
						},
						{
							"internalType": "string",
							"name": "bugDescription",
							"type": "string"
						},
						{
							"internalType": "string",
							"name": "bugPriority",
							"type": "string"
						}
					],
					"stateMutability": "view",
					"type": "function"
				},
				{
					"inputs": [
						{
							"internalType": "uint256",
							"name": "",
							"type": "uint256"
						}
					],
					"name": "features_arr",
					"outputs": [
						{
							"internalType": "string",
							"name": "featureTitle",
							"type": "string"
						},
						{
							"internalType": "string",
							"name": "featureDescription",
							"type": "string"
						},
						{
							"internalType": "string",
							"name": "featurePriority",
							"type": "string"
						}
					],
					"stateMutability": "view",
					"type": "function"
				},
				{
					"inputs": [],
					"name": "previousReq",
					"outputs": [
						{
							"components": [
								{
									"internalType": "string",
									"name": "bugTitle",
									"type": "string"
								},
								{
									"internalType": "string",
									"name": "bugDescription",
									"type": "string"
								},
								{
									"internalType": "string",
									"name": "bugPriority",
									"type": "string"
								}
							],
							"internalType": "struct bugReport[]",
							"name": "",
							"type": "tuple[]"
						},
						{
							"components": [
								{
									"internalType": "string",
									"name": "featureTitle",
									"type": "string"
								},
								{
									"internalType": "string",
									"name": "featureDescription",
									"type": "string"
								},
								{
									"internalType": "string",
									"name": "featurePriority",
									"type": "string"
								}
							],
							"internalType": "struct featureReport[]",
							"name": "",
							"type": "tuple[]"
						}
					],
					"stateMutability": "view",
					"type": "function"
				},
				{
					"inputs": [],
					"name": "send_list",
					"outputs": [
						{
							"components": [
								{
									"internalType": "string",
									"name": "bugTitle",
									"type": "string"
								},
								{
									"internalType": "string",
									"name": "bugDescription",
									"type": "string"
								},
								{
									"internalType": "string",
									"name": "bugPriority",
									"type": "string"
								}
							],
							"internalType": "struct bugReport[]",
							"name": "",
							"type": "tuple[]"
						},
						{
							"components": [
								{
									"internalType": "string",
									"name": "featureTitle",
									"type": "string"
								},
								{
									"internalType": "string",
									"name": "featureDescription",
									"type": "string"
								},
								{
									"internalType": "string",
									"name": "featurePriority",
									"type": "string"
								}
							],
							"internalType": "struct featureReport[]",
							"name": "",
							"type": "tuple[]"
						}
					],
					"stateMutability": "view",
					"type": "function"
				},
				{
					"inputs": [
						{
							"internalType": "string",
							"name": "time",
							"type": "string"
						},
						{
							"internalType": "string[][]",
							"name": "new_b",
							"type": "string[][]"
						},
						{
							"internalType": "string[][]",
							"name": "new_f",
							"type": "string[][]"
						}
					],
					"name": "toAdmin",
					"outputs": [],
					"stateMutability": "nonpayable",
					"type": "function"
				},
				{
					"inputs": [
						{
							"internalType": "string[][]",
							"name": "new_b",
							"type": "string[][]"
						},
						{
							"internalType": "string[][]",
							"name": "new_f",
							"type": "string[][]"
						}
					],
					"name": "unChecked",
					"outputs": [],
					"stateMutability": "nonpayable",
					"type": "function"
				},
				{
					"inputs": [
						{
							"internalType": "uint256",
							"name": "",
							"type": "uint256"
						}
					],
					"name": "unselectedBugs",
					"outputs": [
						{
							"internalType": "string",
							"name": "bugTitle",
							"type": "string"
						},
						{
							"internalType": "string",
							"name": "bugDescription",
							"type": "string"
						},
						{
							"internalType": "string",
							"name": "bugPriority",
							"type": "string"
						}
					],
					"stateMutability": "view",
					"type": "function"
				},
				{
					"inputs": [
						{
							"internalType": "uint256",
							"name": "",
							"type": "uint256"
						}
					],
					"name": "unselectedFeatures",
					"outputs": [
						{
							"internalType": "string",
							"name": "featureTitle",
							"type": "string"
						},
						{
							"internalType": "string",
							"name": "featureDescription",
							"type": "string"
						},
						{
							"internalType": "string",
							"name": "featurePriority",
							"type": "string"
						}
					],
					"stateMutability": "view",
					"type": "function"
				}
			],
			"devdoc": {
				"kind": "dev",
				"methods": {},
				"version": 1
			},
			"evm": {
				"assembly": "    /* \"CurrentRequest.sol\":290:1882  contract Developer{... */\n  mstore(0x40, 0x80)\n  callvalue\n  dup1\n  iszero\n  tag_1\n  jumpi\n  0x00\n  dup1\n  revert\ntag_1:\n  pop\n  dataSize(sub_0)\n  dup1\n  dataOffset(sub_0)\n  0x00\n  codecopy\n  0x00\n  return\nstop\n\nsub_0: assembly {\n        /* \"CurrentRequest.sol\":290:1882  contract Developer{... */\n      mstore(0x40, 0x80)\n      callvalue\n      dup1\n      iszero\n      tag_1\n      jumpi\n      0x00\n      dup1\n      revert\n    tag_1:\n      pop\n      jumpi(tag_2, lt(calldatasize, 0x04))\n      shr(0xe0, calldataload(0x00))\n      dup1\n      0x7c0a6fc1\n      gt\n      tag_11\n      jumpi\n      dup1\n      0x7c0a6fc1\n      eq\n      tag_7\n      jumpi\n      dup1\n      0xac0799e5\n      eq\n      tag_8\n      jumpi\n      dup1\n      0xb87dff89\n      eq\n      tag_9\n      jumpi\n      dup1\n      0xded1166c\n      eq\n      tag_10\n      jumpi\n      jump(tag_2)\n    tag_11:\n      dup1\n      0x2548d05d\n      eq\n      tag_3\n      jumpi\n      dup1\n      0x4d1ba790\n      eq\n      tag_4\n      jumpi\n      dup1\n      0x5faa043d\n      eq\n      tag_5\n      jumpi\n      dup1\n      0x64e815fd\n      eq\n      tag_6\n      jumpi\n    tag_2:\n      0x00\n      dup1\n      revert\n        /* \"CurrentRequest.sol\":418:451  bugReport[] public unselectedBugs */\n    tag_3:\n      tag_12\n      0x04\n      dup1\n      calldatasize\n      sub\n      dup2\n      add\n      swap1\n      tag_13\n      swap2\n      swap1\n      tag_14\n      jump\t// in\n    tag_13:\n      tag_15\n      jump\t// in\n    tag_12:\n      mload(0x40)\n      tag_16\n      swap4\n      swap3\n      swap2\n      swap1\n      tag_17\n      jump\t// in\n    tag_16:\n      mload(0x40)\n      dup1\n      swap2\n      sub\n      swap1\n      return\n        /* \"CurrentRequest.sol\":458:499  featureReport[] public unselectedFeatures */\n    tag_4:\n      tag_18\n      0x04\n      dup1\n      calldatasize\n      sub\n      dup2\n      add\n      swap1\n      tag_19\n      swap2\n      swap1\n      tag_14\n      jump\t// in\n    tag_19:\n      tag_20\n      jump\t// in\n    tag_18:\n      mload(0x40)\n      tag_21\n      swap4\n      swap3\n      swap2\n      swap1\n      tag_17\n      jump\t// in\n    tag_21:\n      mload(0x40)\n      dup1\n      swap2\n      sub\n      swap1\n      return\n        /* \"CurrentRequest.sol\":376:411  featureReport[] public features_arr */\n    tag_5:\n      tag_22\n      0x04\n      dup1\n      calldatasize\n      sub\n      dup2\n      add\n      swap1\n      tag_23\n      swap2\n      swap1\n      tag_14\n      jump\t// in\n    tag_23:\n      tag_24\n      jump\t// in\n    tag_22:\n      mload(0x40)\n      tag_25\n      swap4\n      swap3\n      swap2\n      swap1\n      tag_17\n      jump\t// in\n    tag_25:\n      mload(0x40)\n      dup1\n      swap2\n      sub\n      swap1\n      return\n        /* \"CurrentRequest.sol\":1061:1585  function unChecked(string[][] memory new_b,string[][] memory new_f) public{... */\n    tag_6:\n      tag_26\n      0x04\n      dup1\n      calldatasize\n      sub\n      dup2\n      add\n      swap1\n      tag_27\n      swap2\n      swap1\n      tag_28\n      jump\t// in\n    tag_27:\n      tag_29\n      jump\t// in\n    tag_26:\n      stop\n        /* \"CurrentRequest.sol\":1731:1879  function previousReq() public view returns(bugReport[] memory, featureReport[] memory ){... */\n    tag_7:\n      tag_30\n      tag_31\n      jump\t// in\n    tag_30:\n      mload(0x40)\n      tag_32\n      swap3\n      swap2\n      swap1\n      tag_33\n      jump\t// in\n    tag_32:\n      mload(0x40)\n      dup1\n      swap2\n      sub\n      swap1\n      return\n        /* \"CurrentRequest.sol\":506:1055  function toAdmin(string memory time, string[][] memory new_b,string[][] memory new_f) public{... */\n    tag_8:\n      tag_34\n      0x04\n      dup1\n      calldatasize\n      sub\n      dup2\n      add\n      swap1\n      tag_35\n      swap2\n      swap1\n      tag_36\n      jump\t// in\n    tag_35:\n      tag_37\n      jump\t// in\n    tag_34:\n      stop\n        /* \"CurrentRequest.sol\":1591:1725  function send_list() public view returns(bugReport[] memory, featureReport[] memory ){... */\n    tag_9:\n      tag_38\n      tag_39\n      jump\t// in\n    tag_38:\n      mload(0x40)\n      tag_40\n      swap3\n      swap2\n      swap1\n      tag_33\n      jump\t// in\n    tag_40:\n      mload(0x40)\n      dup1\n      swap2\n      sub\n      swap1\n      return\n        /* \"CurrentRequest.sol\":342:369  bugReport[] public bugs_arr */\n    tag_10:\n      tag_41\n      0x04\n      dup1\n      calldatasize\n      sub\n      dup2\n      add\n      swap1\n      tag_42\n      swap2\n      swap1\n      tag_14\n      jump\t// in\n    tag_42:\n      tag_43\n      jump\t// in\n    tag_41:\n      mload(0x40)\n      tag_44\n      swap4\n      swap3\n      swap2\n      swap1\n      tag_17\n      jump\t// in\n    tag_44:\n      mload(0x40)\n      dup1\n      swap2\n      sub\n      swap1\n      return\n        /* \"CurrentRequest.sol\":418:451  bugReport[] public unselectedBugs */\n    tag_15:\n      0x03\n      dup2\n      dup2\n      sload\n      dup2\n      lt\n      tag_45\n      jumpi\n      0x00\n      dup1\n      revert\n    tag_45:\n      swap1\n      0x00\n      mstore\n      keccak256(0x00, 0x20)\n      swap1\n      0x03\n      mul\n      add\n      0x00\n      swap2\n      pop\n      swap1\n      pop\n      dup1\n      0x00\n      add\n      dup1\n      sload\n      tag_47\n      swap1\n      tag_48\n      jump\t// in\n    tag_47:\n      dup1\n      0x1f\n      add\n      0x20\n      dup1\n      swap2\n      div\n      mul\n      0x20\n      add\n      mload(0x40)\n      swap1\n      dup2\n      add\n      0x40\n      mstore\n      dup1\n      swap3\n      swap2\n      swap1\n      dup2\n      dup2\n      mstore\n      0x20\n      add\n      dup3\n      dup1\n      sload\n      tag_49\n      swap1\n      tag_48\n      jump\t// in\n    tag_49:\n      dup1\n      iszero\n      tag_50\n      jumpi\n      dup1\n      0x1f\n      lt\n      tag_51\n      jumpi\n      0x0100\n      dup1\n      dup4\n      sload\n      div\n      mul\n      dup4\n      mstore\n      swap2\n      0x20\n      add\n      swap2\n      jump(tag_50)\n    tag_51:\n      dup3\n      add\n      swap2\n      swap1\n      0x00\n      mstore\n      keccak256(0x00, 0x20)\n      swap1\n    tag_52:\n      dup2\n      sload\n      dup2\n      mstore\n      swap1\n      0x01\n      add\n      swap1\n      0x20\n      add\n      dup1\n      dup4\n      gt\n      tag_52\n      jumpi\n      dup3\n      swap1\n      sub\n      0x1f\n      and\n      dup3\n      add\n      swap2\n    tag_50:\n      pop\n      pop\n      pop\n      pop\n      pop\n      swap1\n      dup1\n      0x01\n      add\n      dup1\n      sload\n      tag_53\n      swap1\n      tag_48\n      jump\t// in\n    tag_53:\n      dup1\n      0x1f\n      add\n      0x20\n      dup1\n      swap2\n      div\n      mul\n      0x20\n      add\n      mload(0x40)\n      swap1\n      dup2\n      add\n      0x40\n      mstore\n      dup1\n      swap3\n      swap2\n      swap1\n      dup2\n      dup2\n      mstore\n      0x20\n      add\n      dup3\n      dup1\n      sload\n      tag_54\n      swap1\n      tag_48\n      jump\t// in\n    tag_54:\n      dup1\n      iszero\n      tag_55\n      jumpi\n      dup1\n      0x1f\n      lt\n      tag_56\n      jumpi\n      0x0100\n      dup1\n      dup4\n      sload\n      div\n      mul\n      dup4\n      mstore\n      swap2\n      0x20\n      add\n      swap2\n      jump(tag_55)\n    tag_56:\n      dup3\n      add\n      swap2\n      swap1\n      0x00\n      mstore\n      keccak256(0x00, 0x20)\n      swap1\n    tag_57:\n      dup2\n      sload\n      dup2\n      mstore\n      swap1\n      0x01\n      add\n      swap1\n      0x20\n      add\n      dup1\n      dup4\n      gt\n      tag_57\n      jumpi\n      dup3\n      swap1\n      sub\n      0x1f\n      and\n      dup3\n      add\n      swap2\n    tag_55:\n      pop\n      pop\n      pop\n      pop\n      pop\n      swap1\n      dup1\n      0x02\n      add\n      dup1\n      sload\n      tag_58\n      swap1\n      tag_48\n      jump\t// in\n    tag_58:\n      dup1\n      0x1f\n      add\n      0x20\n      dup1\n      swap2\n      div\n      mul\n      0x20\n      add\n      mload(0x40)\n      swap1\n      dup2\n      add\n      0x40\n      mstore\n      dup1\n      swap3\n      swap2\n      swap1\n      dup2\n      dup2\n      mstore\n      0x20\n      add\n      dup3\n      dup1\n      sload\n      tag_59\n      swap1\n      tag_48\n      jump\t// in\n    tag_59:\n      dup1\n      iszero\n      tag_60\n      jumpi\n      dup1\n      0x1f\n      lt\n      tag_61\n      jumpi\n      0x0100\n      dup1\n      dup4\n      sload\n      div\n      mul\n      dup4\n      mstore\n      swap2\n      0x20\n      add\n      swap2\n      jump(tag_60)\n    tag_61:\n      dup3\n      add\n      swap2\n      swap1\n      0x00\n      mstore\n      keccak256(0x00, 0x20)\n      swap1\n    tag_62:\n      dup2\n      sload\n      dup2\n      mstore\n      swap1\n      0x01\n      add\n      swap1\n      0x20\n      add\n      dup1\n      dup4\n      gt\n      tag_62\n      jumpi\n      dup3\n      swap1\n      sub\n      0x1f\n      and\n      dup3\n      add\n      swap2\n    tag_60:\n      pop\n      pop\n      pop\n      pop\n      pop\n      swap1\n      pop\n      dup4\n      jump\t// out\n        /* \"CurrentRequest.sol\":458:499  featureReport[] public unselectedFeatures */\n    tag_20:\n      0x04\n      dup2\n      dup2\n      sload\n      dup2\n      lt\n      tag_63\n      jumpi\n      0x00\n      dup1\n      revert\n    tag_63:\n      swap1\n      0x00\n      mstore\n      keccak256(0x00, 0x20)\n      swap1\n      0x03\n      mul\n      add\n      0x00\n      swap2\n      pop\n      swap1\n      pop\n      dup1\n      0x00\n      add\n      dup1\n      sload\n      tag_65\n      swap1\n      tag_48\n      jump\t// in\n    tag_65:\n      dup1\n      0x1f\n      add\n      0x20\n      dup1\n      swap2\n      div\n      mul\n      0x20\n      add\n      mload(0x40)\n      swap1\n      dup2\n      add\n      0x40\n      mstore\n      dup1\n      swap3\n      swap2\n      swap1\n      dup2\n      dup2\n      mstore\n      0x20\n      add\n      dup3\n      dup1\n      sload\n      tag_66\n      swap1\n      tag_48\n      jump\t// in\n    tag_66:\n      dup1\n      iszero\n      tag_67\n      jumpi\n      dup1\n      0x1f\n      lt\n      tag_68\n      jumpi\n      0x0100\n      dup1\n      dup4\n      sload\n      div\n      mul\n      dup4\n      mstore\n      swap2\n      0x20\n      add\n      swap2\n      jump(tag_67)\n    tag_68:\n      dup3\n      add\n      swap2\n      swap1\n      0x00\n      mstore\n      keccak256(0x00, 0x20)\n      swap1\n    tag_69:\n      dup2\n      sload\n      dup2\n      mstore\n      swap1\n      0x01\n      add\n      swap1\n      0x20\n      add\n      dup1\n      dup4\n      gt\n      tag_69\n      jumpi\n      dup3\n      swap1\n      sub\n      0x1f\n      and\n      dup3\n      add\n      swap2\n    tag_67:\n      pop\n      pop\n      pop\n      pop\n      pop\n      swap1\n      dup1\n      0x01\n      add\n      dup1\n      sload\n      tag_70\n      swap1\n      tag_48\n      jump\t// in\n    tag_70:\n      dup1\n      0x1f\n      add\n      0x20\n      dup1\n      swap2\n      div\n      mul\n      0x20\n      add\n      mload(0x40)\n      swap1\n      dup2\n      add\n      0x40\n      mstore\n      dup1\n      swap3\n      swap2\n      swap1\n      dup2\n      dup2\n      mstore\n      0x20\n      add\n      dup3\n      dup1\n      sload\n      tag_71\n      swap1\n      tag_48\n      jump\t// in\n    tag_71:\n      dup1\n      iszero\n      tag_72\n      jumpi\n      dup1\n      0x1f\n      lt\n      tag_73\n      jumpi\n      0x0100\n      dup1\n      dup4\n      sload\n      div\n      mul\n      dup4\n      mstore\n      swap2\n      0x20\n      add\n      swap2\n      jump(tag_72)\n    tag_73:\n      dup3\n      add\n      swap2\n      swap1\n      0x00\n      mstore\n      keccak256(0x00, 0x20)\n      swap1\n    tag_74:\n      dup2\n      sload\n      dup2\n      mstore\n      swap1\n      0x01\n      add\n      swap1\n      0x20\n      add\n      dup1\n      dup4\n      gt\n      tag_74\n      jumpi\n      dup3\n      swap1\n      sub\n      0x1f\n      and\n      dup3\n      add\n      swap2\n    tag_72:\n      pop\n      pop\n      pop\n      pop\n      pop\n      swap1\n      dup1\n      0x02\n      add\n      dup1\n      sload\n      tag_75\n      swap1\n      tag_48\n      jump\t// in\n    tag_75:\n      dup1\n      0x1f\n      add\n      0x20\n      dup1\n      swap2\n      div\n      mul\n      0x20\n      add\n      mload(0x40)\n      swap1\n      dup2\n      add\n      0x40\n      mstore\n      dup1\n      swap3\n      swap2\n      swap1\n      dup2\n      dup2\n      mstore\n      0x20\n      add\n      dup3\n      dup1\n      sload\n      tag_76\n      swap1\n      tag_48\n      jump\t// in\n    tag_76:\n      dup1\n      iszero\n      tag_77\n      jumpi\n      dup1\n      0x1f\n      lt\n      tag_78\n      jumpi\n      0x0100\n      dup1\n      dup4\n      sload\n      div\n      mul\n      dup4\n      mstore\n      swap2\n      0x20\n      add\n      swap2\n      jump(tag_77)\n    tag_78:\n      dup3\n      add\n      swap2\n      swap1\n      0x00\n      mstore\n      keccak256(0x00, 0x20)\n      swap1\n    tag_79:\n      dup2\n      sload\n      dup2\n      mstore\n      swap1\n      0x01\n      add\n      swap1\n      0x20\n      add\n      dup1\n      dup4\n      gt\n      tag_79\n      jumpi\n      dup3\n      swap1\n      sub\n      0x1f\n      and\n      dup3\n      add\n      swap2\n    tag_77:\n      pop\n      pop\n      pop\n      pop\n      pop\n      swap1\n      pop\n      dup4\n      jump\t// out\n        /* \"CurrentRequest.sol\":376:411  featureReport[] public features_arr */\n    tag_24:\n      0x02\n      dup2\n      dup2\n      sload\n      dup2\n      lt\n      tag_80\n      jumpi\n      0x00\n      dup1\n      revert\n    tag_80:\n      swap1\n      0x00\n      mstore\n      keccak256(0x00, 0x20)\n      swap1\n      0x03\n      mul\n      add\n      0x00\n      swap2\n      pop\n      swap1\n      pop\n      dup1\n      0x00\n      add\n      dup1\n      sload\n      tag_82\n      swap1\n      tag_48\n      jump\t// in\n    tag_82:\n      dup1\n      0x1f\n      add\n      0x20\n      dup1\n      swap2\n      div\n      mul\n      0x20\n      add\n      mload(0x40)\n      swap1\n      dup2\n      add\n      0x40\n      mstore\n      dup1\n      swap3\n      swap2\n      swap1\n      dup2\n      dup2\n      mstore\n      0x20\n      add\n      dup3\n      dup1\n      sload\n      tag_83\n      swap1\n      tag_48\n      jump\t// in\n    tag_83:\n      dup1\n      iszero\n      tag_84\n      jumpi\n      dup1\n      0x1f\n      lt\n      tag_85\n      jumpi\n      0x0100\n      dup1\n      dup4\n      sload\n      div\n      mul\n      dup4\n      mstore\n      swap2\n      0x20\n      add\n      swap2\n      jump(tag_84)\n    tag_85:\n      dup3\n      add\n      swap2\n      swap1\n      0x00\n      mstore\n      keccak256(0x00, 0x20)\n      swap1\n    tag_86:\n      dup2\n      sload\n      dup2\n      mstore\n      swap1\n      0x01\n      add\n      swap1\n      0x20\n      add\n      dup1\n      dup4\n      gt\n      tag_86\n      jumpi\n      dup3\n      swap1\n      sub\n      0x1f\n      and\n      dup3\n      add\n      swap2\n    tag_84:\n      pop\n      pop\n      pop\n      pop\n      pop\n      swap1\n      dup1\n      0x01\n      add\n      dup1\n      sload\n      tag_87\n      swap1\n      tag_48\n      jump\t// in\n    tag_87:\n      dup1\n      0x1f\n      add\n      0x20\n      dup1\n      swap2\n      div\n      mul\n      0x20\n      add\n      mload(0x40)\n      swap1\n      dup2\n      add\n      0x40\n      mstore\n      dup1\n      swap3\n      swap2\n      swap1\n      dup2\n      dup2\n      mstore\n      0x20\n      add\n      dup3\n      dup1\n      sload\n      tag_88\n      swap1\n      tag_48\n      jump\t// in\n    tag_88:\n      dup1\n      iszero\n      tag_89\n      jumpi\n      dup1\n      0x1f\n      lt\n      tag_90\n      jumpi\n      0x0100\n      dup1\n      dup4\n      sload\n      div\n      mul\n      dup4\n      mstore\n      swap2\n      0x20\n      add\n      swap2\n      jump(tag_89)\n    tag_90:\n      dup3\n      add\n      swap2\n      swap1\n      0x00\n      mstore\n      keccak256(0x00, 0x20)\n      swap1\n    tag_91:\n      dup2\n      sload\n      dup2\n      mstore\n      swap1\n      0x01\n      add\n      swap1\n      0x20\n      add\n      dup1\n      dup4\n      gt\n      tag_91\n      jumpi\n      dup3\n      swap1\n      sub\n      0x1f\n      and\n      dup3\n      add\n      swap2\n    tag_89:\n      pop\n      pop\n      pop\n      pop\n      pop\n      swap1\n      dup1\n      0x02\n      add\n      dup1\n      sload\n      tag_92\n      swap1\n      tag_48\n      jump\t// in\n    tag_92:\n      dup1\n      0x1f\n      add\n      0x20\n      dup1\n      swap2\n      div\n      mul\n      0x20\n      add\n      mload(0x40)\n      swap1\n      dup2\n      add\n      0x40\n      mstore\n      dup1\n      swap3\n      swap2\n      swap1\n      dup2\n      dup2\n      mstore\n      0x20\n      add\n      dup3\n      dup1\n      sload\n      tag_93\n      swap1\n      tag_48\n      jump\t// in\n    tag_93:\n      dup1\n      iszero\n      tag_94\n      jumpi\n      dup1\n      0x1f\n      lt\n      tag_95\n      jumpi\n      0x0100\n      dup1\n      dup4\n      sload\n      div\n      mul\n      dup4\n      mstore\n      swap2\n      0x20\n      add\n      swap2\n      jump(tag_94)\n    tag_95:\n      dup3\n      add\n      swap2\n      swap1\n      0x00\n      mstore\n      keccak256(0x00, 0x20)\n      swap1\n    tag_96:\n      dup2\n      sload\n      dup2\n      mstore\n      swap1\n      0x01\n      add\n      swap1\n      0x20\n      add\n      dup1\n      dup4\n      gt\n      tag_96\n      jumpi\n      dup3\n      swap1\n      sub\n      0x1f\n      and\n      dup3\n      add\n      swap2\n    tag_94:\n      pop\n      pop\n      pop\n      pop\n      pop\n      swap1\n      pop\n      dup4\n      jump\t// out\n        /* \"CurrentRequest.sol\":1061:1585  function unChecked(string[][] memory new_b,string[][] memory new_f) public{... */\n    tag_29:\n        /* \"CurrentRequest.sol\":1153:1167  unselectedBugs */\n      0x03\n      0x00\n        /* \"CurrentRequest.sol\":1146:1167  delete unselectedBugs */\n      tag_98\n      swap2\n      swap1\n      tag_99\n      jump\t// in\n    tag_98:\n        /* \"CurrentRequest.sol\":1182:1188  uint i */\n      0x00\n        /* \"CurrentRequest.sol\":1178:1349  for(uint i=0;i<new_b.length;i++){... */\n    tag_100:\n        /* \"CurrentRequest.sol\":1193:1198  new_b */\n      dup3\n        /* \"CurrentRequest.sol\":1193:1205  new_b.length */\n      mload\n        /* \"CurrentRequest.sol\":1191:1192  i */\n      dup2\n        /* \"CurrentRequest.sol\":1191:1205  i<new_b.length */\n      lt\n        /* \"CurrentRequest.sol\":1178:1349  for(uint i=0;i<new_b.length;i++){... */\n      iszero\n      tag_101\n      jumpi\n        /* \"CurrentRequest.sol\":1225:1246  bugReport memory temp */\n      0x00\n        /* \"CurrentRequest.sol\":1249:1297  bugReport(new_b[i][0], new_b[i][1], new_b[i][2]) */\n      mload(0x40)\n      dup1\n      0x60\n      add\n      0x40\n      mstore\n      dup1\n        /* \"CurrentRequest.sol\":1259:1264  new_b */\n      dup6\n        /* \"CurrentRequest.sol\":1265:1266  i */\n      dup5\n        /* \"CurrentRequest.sol\":1259:1267  new_b[i] */\n      dup2\n      mload\n      dup2\n      lt\n      tag_103\n      jumpi\n      tag_104\n      tag_105\n      jump\t// in\n    tag_104:\n    tag_103:\n      0x20\n      mul\n      0x20\n      add\n      add\n      mload\n        /* \"CurrentRequest.sol\":1268:1269  0 */\n      0x00\n        /* \"CurrentRequest.sol\":1259:1270  new_b[i][0] */\n      dup2\n      mload\n      dup2\n      lt\n      tag_106\n      jumpi\n      tag_107\n      tag_105\n      jump\t// in\n    tag_107:\n    tag_106:\n      0x20\n      mul\n      0x20\n      add\n      add\n      mload\n        /* \"CurrentRequest.sol\":1249:1297  bugReport(new_b[i][0], new_b[i][1], new_b[i][2]) */\n      dup2\n      mstore\n      0x20\n      add\n        /* \"CurrentRequest.sol\":1272:1277  new_b */\n      dup6\n        /* \"CurrentRequest.sol\":1278:1279  i */\n      dup5\n        /* \"CurrentRequest.sol\":1272:1280  new_b[i] */\n      dup2\n      mload\n      dup2\n      lt\n      tag_108\n      jumpi\n      tag_109\n      tag_105\n      jump\t// in\n    tag_109:\n    tag_108:\n      0x20\n      mul\n      0x20\n      add\n      add\n      mload\n        /* \"CurrentRequest.sol\":1281:1282  1 */\n      0x01\n        /* \"CurrentRequest.sol\":1272:1283  new_b[i][1] */\n      dup2\n      mload\n      dup2\n      lt\n      tag_110\n      jumpi\n      tag_111\n      tag_105\n      jump\t// in\n    tag_111:\n    tag_110:\n      0x20\n      mul\n      0x20\n      add\n      add\n      mload\n        /* \"CurrentRequest.sol\":1249:1297  bugReport(new_b[i][0], new_b[i][1], new_b[i][2]) */\n      dup2\n      mstore\n      0x20\n      add\n        /* \"CurrentRequest.sol\":1285:1290  new_b */\n      dup6\n        /* \"CurrentRequest.sol\":1291:1292  i */\n      dup5\n        /* \"CurrentRequest.sol\":1285:1293  new_b[i] */\n      dup2\n      mload\n      dup2\n      lt\n      tag_112\n      jumpi\n      tag_113\n      tag_105\n      jump\t// in\n    tag_113:\n    tag_112:\n      0x20\n      mul\n      0x20\n      add\n      add\n      mload\n        /* \"CurrentRequest.sol\":1294:1295  2 */\n      0x02\n        /* \"CurrentRequest.sol\":1285:1296  new_b[i][2] */\n      dup2\n      mload\n      dup2\n      lt\n      tag_114\n      jumpi\n      tag_115\n      tag_105\n      jump\t// in\n    tag_115:\n    tag_114:\n      0x20\n      mul\n      0x20\n      add\n      add\n      mload\n        /* \"CurrentRequest.sol\":1249:1297  bugReport(new_b[i][0], new_b[i][1], new_b[i][2]) */\n      dup2\n      mstore\n      pop\n        /* \"CurrentRequest.sol\":1225:1297  bugReport memory temp = bugReport(new_b[i][0], new_b[i][1], new_b[i][2]) */\n      swap1\n      pop\n        /* \"CurrentRequest.sol\":1312:1326  unselectedBugs */\n      0x03\n        /* \"CurrentRequest.sol\":1332:1336  temp */\n      dup2\n        /* \"CurrentRequest.sol\":1312:1337  unselectedBugs.push(temp) */\n      swap1\n      dup1\n      0x01\n      dup2\n      sload\n      add\n      dup1\n      dup3\n      sstore\n      dup1\n      swap2\n      pop\n      pop\n      0x01\n      swap1\n      sub\n      swap1\n      0x00\n      mstore\n      keccak256(0x00, 0x20)\n      swap1\n      0x03\n      mul\n      add\n      0x00\n      swap1\n      swap2\n      swap1\n      swap2\n      swap1\n      swap2\n      pop\n      0x00\n      dup3\n      add\n      mload\n      dup2\n      0x00\n      add\n      swap1\n      dup2\n      tag_117\n      swap2\n      swap1\n      tag_118\n      jump\t// in\n    tag_117:\n      pop\n      0x20\n      dup3\n      add\n      mload\n      dup2\n      0x01\n      add\n      swap1\n      dup2\n      tag_119\n      swap2\n      swap1\n      tag_118\n      jump\t// in\n    tag_119:\n      pop\n      0x40\n      dup3\n      add\n      mload\n      dup2\n      0x02\n      add\n      swap1\n      dup2\n      tag_120\n      swap2\n      swap1\n      tag_118\n      jump\t// in\n    tag_120:\n      pop\n      pop\n      pop\n        /* \"CurrentRequest.sol\":1210:1349  {... */\n      pop\n        /* \"CurrentRequest.sol\":1206:1209  i++ */\n      dup1\n      dup1\n      tag_121\n      swap1\n      tag_122\n      jump\t// in\n    tag_121:\n      swap2\n      pop\n      pop\n        /* \"CurrentRequest.sol\":1178:1349  for(uint i=0;i<new_b.length;i++){... */\n      jump(tag_100)\n    tag_101:\n      pop\n        /* \"CurrentRequest.sol\":1366:1384  unselectedFeatures */\n      0x04\n      0x00\n        /* \"CurrentRequest.sol\":1359:1384  delete unselectedFeatures */\n      tag_123\n      swap2\n      swap1\n      tag_124\n      jump\t// in\n    tag_123:\n        /* \"CurrentRequest.sol\":1399:1405  uint i */\n      0x00\n        /* \"CurrentRequest.sol\":1395:1578  for(uint i=0;i<new_f.length;i++){... */\n    tag_125:\n        /* \"CurrentRequest.sol\":1410:1415  new_f */\n      dup2\n        /* \"CurrentRequest.sol\":1410:1422  new_f.length */\n      mload\n        /* \"CurrentRequest.sol\":1408:1409  i */\n      dup2\n        /* \"CurrentRequest.sol\":1408:1422  i<new_f.length */\n      lt\n        /* \"CurrentRequest.sol\":1395:1578  for(uint i=0;i<new_f.length;i++){... */\n      iszero\n      tag_126\n      jumpi\n        /* \"CurrentRequest.sol\":1442:1467  featureReport memory temp */\n      0x00\n        /* \"CurrentRequest.sol\":1470:1522  featureReport(new_f[i][0], new_f[i][1], new_f[i][2]) */\n      mload(0x40)\n      dup1\n      0x60\n      add\n      0x40\n      mstore\n      dup1\n        /* \"CurrentRequest.sol\":1484:1489  new_f */\n      dup5\n        /* \"CurrentRequest.sol\":1490:1491  i */\n      dup5\n        /* \"CurrentRequest.sol\":1484:1492  new_f[i] */\n      dup2\n      mload\n      dup2\n      lt\n      tag_128\n      jumpi\n      tag_129\n      tag_105\n      jump\t// in\n    tag_129:\n    tag_128:\n      0x20\n      mul\n      0x20\n      add\n      add\n      mload\n        /* \"CurrentRequest.sol\":1493:1494  0 */\n      0x00\n        /* \"CurrentRequest.sol\":1484:1495  new_f[i][0] */\n      dup2\n      mload\n      dup2\n      lt\n      tag_130\n      jumpi\n      tag_131\n      tag_105\n      jump\t// in\n    tag_131:\n    tag_130:\n      0x20\n      mul\n      0x20\n      add\n      add\n      mload\n        /* \"CurrentRequest.sol\":1470:1522  featureReport(new_f[i][0], new_f[i][1], new_f[i][2]) */\n      dup2\n      mstore\n      0x20\n      add\n        /* \"CurrentRequest.sol\":1497:1502  new_f */\n      dup5\n        /* \"CurrentRequest.sol\":1503:1504  i */\n      dup5\n        /* \"CurrentRequest.sol\":1497:1505  new_f[i] */\n      dup2\n      mload\n      dup2\n      lt\n      tag_132\n      jumpi\n      tag_133\n      tag_105\n      jump\t// in\n    tag_133:\n    tag_132:\n      0x20\n      mul\n      0x20\n      add\n      add\n      mload\n        /* \"CurrentRequest.sol\":1506:1507  1 */\n      0x01\n        /* \"CurrentRequest.sol\":1497:1508  new_f[i][1] */\n      dup2\n      mload\n      dup2\n      lt\n      tag_134\n      jumpi\n      tag_135\n      tag_105\n      jump\t// in\n    tag_135:\n    tag_134:\n      0x20\n      mul\n      0x20\n      add\n      add\n      mload\n        /* \"CurrentRequest.sol\":1470:1522  featureReport(new_f[i][0], new_f[i][1], new_f[i][2]) */\n      dup2\n      mstore\n      0x20\n      add\n        /* \"CurrentRequest.sol\":1510:1515  new_f */\n      dup5\n        /* \"CurrentRequest.sol\":1516:1517  i */\n      dup5\n        /* \"CurrentRequest.sol\":1510:1518  new_f[i] */\n      dup2\n      mload\n      dup2\n      lt\n      tag_136\n      jumpi\n      tag_137\n      tag_105\n      jump\t// in\n    tag_137:\n    tag_136:\n      0x20\n      mul\n      0x20\n      add\n      add\n      mload\n        /* \"CurrentRequest.sol\":1519:1520  2 */\n      0x02\n        /* \"CurrentRequest.sol\":1510:1521  new_f[i][2] */\n      dup2\n      mload\n      dup2\n      lt\n      tag_138\n      jumpi\n      tag_139\n      tag_105\n      jump\t// in\n    tag_139:\n    tag_138:\n      0x20\n      mul\n      0x20\n      add\n      add\n      mload\n        /* \"CurrentRequest.sol\":1470:1522  featureReport(new_f[i][0], new_f[i][1], new_f[i][2]) */\n      dup2\n      mstore\n      pop\n        /* \"CurrentRequest.sol\":1442:1522  featureReport memory temp = featureReport(new_f[i][0], new_f[i][1], new_f[i][2]) */\n      swap1\n      pop\n        /* \"CurrentRequest.sol\":1537:1555  unselectedFeatures */\n      0x04\n        /* \"CurrentRequest.sol\":1561:1565  temp */\n      dup2\n        /* \"CurrentRequest.sol\":1537:1566  unselectedFeatures.push(temp) */\n      swap1\n      dup1\n      0x01\n      dup2\n      sload\n      add\n      dup1\n      dup3\n      sstore\n      dup1\n      swap2\n      pop\n      pop\n      0x01\n      swap1\n      sub\n      swap1\n      0x00\n      mstore\n      keccak256(0x00, 0x20)\n      swap1\n      0x03\n      mul\n      add\n      0x00\n      swap1\n      swap2\n      swap1\n      swap2\n      swap1\n      swap2\n      pop\n      0x00\n      dup3\n      add\n      mload\n      dup2\n      0x00\n      add\n      swap1\n      dup2\n      tag_141\n      swap2\n      swap1\n      tag_118\n      jump\t// in\n    tag_141:\n      pop\n      0x20\n      dup3\n      add\n      mload\n      dup2\n      0x01\n      add\n      swap1\n      dup2\n      tag_142\n      swap2\n      swap1\n      tag_118\n      jump\t// in\n    tag_142:\n      pop\n      0x40\n      dup3\n      add\n      mload\n      dup2\n      0x02\n      add\n      swap1\n      dup2\n      tag_143\n      swap2\n      swap1\n      tag_118\n      jump\t// in\n    tag_143:\n      pop\n      pop\n      pop\n        /* \"CurrentRequest.sol\":1427:1578  {... */\n      pop\n        /* \"CurrentRequest.sol\":1423:1426  i++ */\n      dup1\n      dup1\n      tag_144\n      swap1\n      tag_122\n      jump\t// in\n    tag_144:\n      swap2\n      pop\n      pop\n        /* \"CurrentRequest.sol\":1395:1578  for(uint i=0;i<new_f.length;i++){... */\n      jump(tag_125)\n    tag_126:\n      pop\n        /* \"CurrentRequest.sol\":1061:1585  function unChecked(string[][] memory new_b,string[][] memory new_f) public{... */\n      pop\n      pop\n      jump\t// out\n        /* \"CurrentRequest.sol\":1731:1879  function previousReq() public view returns(bugReport[] memory, featureReport[] memory ){... */\n    tag_31:\n        /* \"CurrentRequest.sol\":1774:1792  bugReport[] memory */\n      0x60\n        /* \"CurrentRequest.sol\":1794:1816  featureReport[] memory */\n      dup1\n        /* \"CurrentRequest.sol\":1837:1851  unselectedBugs */\n      0x03\n        /* \"CurrentRequest.sol\":1852:1870  unselectedFeatures */\n      0x04\n        /* \"CurrentRequest.sol\":1829:1871  return (unselectedBugs,unselectedFeatures) */\n      dup2\n      dup1\n      sload\n      dup1\n      0x20\n      mul\n      0x20\n      add\n      mload(0x40)\n      swap1\n      dup2\n      add\n      0x40\n      mstore\n      dup1\n      swap3\n      swap2\n      swap1\n      dup2\n      dup2\n      mstore\n      0x20\n      add\n      0x00\n      swap1\n    tag_146:\n      dup3\n      dup3\n      lt\n      iszero\n      tag_147\n      jumpi\n      dup4\n      dup3\n      swap1\n      0x00\n      mstore\n      keccak256(0x00, 0x20)\n      swap1\n      0x03\n      mul\n      add\n      mload(0x40)\n      dup1\n      0x60\n      add\n      0x40\n      mstore\n      swap1\n      dup2\n      0x00\n      dup3\n      add\n      dup1\n      sload\n      tag_149\n      swap1\n      tag_48\n      jump\t// in\n    tag_149:\n      dup1\n      0x1f\n      add\n      0x20\n      dup1\n      swap2\n      div\n      mul\n      0x20\n      add\n      mload(0x40)\n      swap1\n      dup2\n      add\n      0x40\n      mstore\n      dup1\n      swap3\n      swap2\n      swap1\n      dup2\n      dup2\n      mstore\n      0x20\n      add\n      dup3\n      dup1\n      sload\n      tag_150\n      swap1\n      tag_48\n      jump\t// in\n    tag_150:\n      dup1\n      iszero\n      tag_151\n      jumpi\n      dup1\n      0x1f\n      lt\n      tag_152\n      jumpi\n      0x0100\n      dup1\n      dup4\n      sload\n      div\n      mul\n      dup4\n      mstore\n      swap2\n      0x20\n      add\n      swap2\n      jump(tag_151)\n    tag_152:\n      dup3\n      add\n      swap2\n      swap1\n      0x00\n      mstore\n      keccak256(0x00, 0x20)\n      swap1\n    tag_153:\n      dup2\n      sload\n      dup2\n      mstore\n      swap1\n      0x01\n      add\n      swap1\n      0x20\n      add\n      dup1\n      dup4\n      gt\n      tag_153\n      jumpi\n      dup3\n      swap1\n      sub\n      0x1f\n      and\n      dup3\n      add\n      swap2\n    tag_151:\n      pop\n      pop\n      pop\n      pop\n      pop\n      dup2\n      mstore\n      0x20\n      add\n      0x01\n      dup3\n      add\n      dup1\n      sload\n      tag_154\n      swap1\n      tag_48\n      jump\t// in\n    tag_154:\n      dup1\n      0x1f\n      add\n      0x20\n      dup1\n      swap2\n      div\n      mul\n      0x20\n      add\n      mload(0x40)\n      swap1\n      dup2\n      add\n      0x40\n      mstore\n      dup1\n      swap3\n      swap2\n      swap1\n      dup2\n      dup2\n      mstore\n      0x20\n      add\n      dup3\n      dup1\n      sload\n      tag_155\n      swap1\n      tag_48\n      jump\t// in\n    tag_155:\n      dup1\n      iszero\n      tag_156\n      jumpi\n      dup1\n      0x1f\n      lt\n      tag_157\n      jumpi\n      0x0100\n      dup1\n      dup4\n      sload\n      div\n      mul\n      dup4\n      mstore\n      swap2\n      0x20\n      add\n      swap2\n      jump(tag_156)\n    tag_157:\n      dup3\n      add\n      swap2\n      swap1\n      0x00\n      mstore\n      keccak256(0x00, 0x20)\n      swap1\n    tag_158:\n      dup2\n      sload\n      dup2\n      mstore\n      swap1\n      0x01\n      add\n      swap1\n      0x20\n      add\n      dup1\n      dup4\n      gt\n      tag_158\n      jumpi\n      dup3\n      swap1\n      sub\n      0x1f\n      and\n      dup3\n      add\n      swap2\n    tag_156:\n      pop\n      pop\n      pop\n      pop\n      pop\n      dup2\n      mstore\n      0x20\n      add\n      0x02\n      dup3\n      add\n      dup1\n      sload\n      tag_159\n      swap1\n      tag_48\n      jump\t// in\n    tag_159:\n      dup1\n      0x1f\n      add\n      0x20\n      dup1\n      swap2\n      div\n      mul\n      0x20\n      add\n      mload(0x40)\n      swap1\n      dup2\n      add\n      0x40\n      mstore\n      dup1\n      swap3\n      swap2\n      swap1\n      dup2\n      dup2\n      mstore\n      0x20\n      add\n      dup3\n      dup1\n      sload\n      tag_160\n      swap1\n      tag_48\n      jump\t// in\n    tag_160:\n      dup1\n      iszero\n      tag_161\n      jumpi\n      dup1\n      0x1f\n      lt\n      tag_162\n      jumpi\n      0x0100\n      dup1\n      dup4\n      sload\n      div\n      mul\n      dup4\n      mstore\n      swap2\n      0x20\n      add\n      swap2\n      jump(tag_161)\n    tag_162:\n      dup3\n      add\n      swap2\n      swap1\n      0x00\n      mstore\n      keccak256(0x00, 0x20)\n      swap1\n    tag_163:\n      dup2\n      sload\n      dup2\n      mstore\n      swap1\n      0x01\n      add\n      swap1\n      0x20\n      add\n      dup1\n      dup4\n      gt\n      tag_163\n      jumpi\n      dup3\n      swap1\n      sub\n      0x1f\n      and\n      dup3\n      add\n      swap2\n    tag_161:\n      pop\n      pop\n      pop\n      pop\n      pop\n      dup2\n      mstore\n      pop\n      pop\n      dup2\n      mstore\n      0x20\n      add\n      swap1\n      0x01\n      add\n      swap1\n      jump(tag_146)\n    tag_147:\n      pop\n      pop\n      pop\n      pop\n      swap2\n      pop\n      dup1\n      dup1\n      sload\n      dup1\n      0x20\n      mul\n      0x20\n      add\n      mload(0x40)\n      swap1\n      dup2\n      add\n      0x40\n      mstore\n      dup1\n      swap3\n      swap2\n      swap1\n      dup2\n      dup2\n      mstore\n      0x20\n      add\n      0x00\n      swap1\n    tag_164:\n      dup3\n      dup3\n      lt\n      iszero\n      tag_165\n      jumpi\n      dup4\n      dup3\n      swap1\n      0x00\n      mstore\n      keccak256(0x00, 0x20)\n      swap1\n      0x03\n      mul\n      add\n      mload(0x40)\n      dup1\n      0x60\n      add\n      0x40\n      mstore\n      swap1\n      dup2\n      0x00\n      dup3\n      add\n      dup1\n      sload\n      tag_167\n      swap1\n      tag_48\n      jump\t// in\n    tag_167:\n      dup1\n      0x1f\n      add\n      0x20\n      dup1\n      swap2\n      div\n      mul\n      0x20\n      add\n      mload(0x40)\n      swap1\n      dup2\n      add\n      0x40\n      mstore\n      dup1\n      swap3\n      swap2\n      swap1\n      dup2\n      dup2\n      mstore\n      0x20\n      add\n      dup3\n      dup1\n      sload\n      tag_168\n      swap1\n      tag_48\n      jump\t// in\n    tag_168:\n      dup1\n      iszero\n      tag_169\n      jumpi\n      dup1\n      0x1f\n      lt\n      tag_170\n      jumpi\n      0x0100\n      dup1\n      dup4\n      sload\n      div\n      mul\n      dup4\n      mstore\n      swap2\n      0x20\n      add\n      swap2\n      jump(tag_169)\n    tag_170:\n      dup3\n      add\n      swap2\n      swap1\n      0x00\n      mstore\n      keccak256(0x00, 0x20)\n      swap1\n    tag_171:\n      dup2\n      sload\n      dup2\n      mstore\n      swap1\n      0x01\n      add\n      swap1\n      0x20\n      add\n      dup1\n      dup4\n      gt\n      tag_171\n      jumpi\n      dup3\n      swap1\n      sub\n      0x1f\n      and\n      dup3\n      add\n      swap2\n    tag_169:\n      pop\n      pop\n      pop\n      pop\n      pop\n      dup2\n      mstore\n      0x20\n      add\n      0x01\n      dup3\n      add\n      dup1\n      sload\n      tag_172\n      swap1\n      tag_48\n      jump\t// in\n    tag_172:\n      dup1\n      0x1f\n      add\n      0x20\n      dup1\n      swap2\n      div\n      mul\n      0x20\n      add\n      mload(0x40)\n      swap1\n      dup2\n      add\n      0x40\n      mstore\n      dup1\n      swap3\n      swap2\n      swap1\n      dup2\n      dup2\n      mstore\n      0x20\n      add\n      dup3\n      dup1\n      sload\n      tag_173\n      swap1\n      tag_48\n      jump\t// in\n    tag_173:\n      dup1\n      iszero\n      tag_174\n      jumpi\n      dup1\n      0x1f\n      lt\n      tag_175\n      jumpi\n      0x0100\n      dup1\n      dup4\n      sload\n      div\n      mul\n      dup4\n      mstore\n      swap2\n      0x20\n      add\n      swap2\n      jump(tag_174)\n    tag_175:\n      dup3\n      add\n      swap2\n      swap1\n      0x00\n      mstore\n      keccak256(0x00, 0x20)\n      swap1\n    tag_176:\n      dup2\n      sload\n      dup2\n      mstore\n      swap1\n      0x01\n      add\n      swap1\n      0x20\n      add\n      dup1\n      dup4\n      gt\n      tag_176\n      jumpi\n      dup3\n      swap1\n      sub\n      0x1f\n      and\n      dup3\n      add\n      swap2\n    tag_174:\n      pop\n      pop\n      pop\n      pop\n      pop\n      dup2\n      mstore\n      0x20\n      add\n      0x02\n      dup3\n      add\n      dup1\n      sload\n      tag_177\n      swap1\n      tag_48\n      jump\t// in\n    tag_177:\n      dup1\n      0x1f\n      add\n      0x20\n      dup1\n      swap2\n      div\n      mul\n      0x20\n      add\n      mload(0x40)\n      swap1\n      dup2\n      add\n      0x40\n      mstore\n      dup1\n      swap3\n      swap2\n      swap1\n      dup2\n      dup2\n      mstore\n      0x20\n      add\n      dup3\n      dup1\n      sload\n      tag_178\n      swap1\n      tag_48\n      jump\t// in\n    tag_178:\n      dup1\n      iszero\n      tag_179\n      jumpi\n      dup1\n      0x1f\n      lt\n      tag_180\n      jumpi\n      0x0100\n      dup1\n      dup4\n      sload\n      div\n      mul\n      dup4\n      mstore\n      swap2\n      0x20\n      add\n      swap2\n      jump(tag_179)\n    tag_180:\n      dup3\n      add\n      swap2\n      swap1\n      0x00\n      mstore\n      keccak256(0x00, 0x20)\n      swap1\n    tag_181:\n      dup2\n      sload\n      dup2\n      mstore\n      swap1\n      0x01\n      add\n      swap1\n      0x20\n      add\n      dup1\n      dup4\n      gt\n      tag_181\n      jumpi\n      dup3\n      swap1\n      sub\n      0x1f\n      and\n      dup3\n      add\n      swap2\n    tag_179:\n      pop\n      pop\n      pop\n      pop\n      pop\n      dup2\n      mstore\n      pop\n      pop\n      dup2\n      mstore\n      0x20\n      add\n      swap1\n      0x01\n      add\n      swap1\n      jump(tag_164)\n    tag_165:\n      pop\n      pop\n      pop\n      pop\n      swap1\n      pop\n      swap2\n      pop\n      swap2\n      pop\n        /* \"CurrentRequest.sol\":1731:1879  function previousReq() public view returns(bugReport[] memory, featureReport[] memory ){... */\n      swap1\n      swap2\n      jump\t// out\n        /* \"CurrentRequest.sol\":506:1055  function toAdmin(string memory time, string[][] memory new_b,string[][] memory new_f) public{... */\n    tag_37:\n        /* \"CurrentRequest.sol\":625:629  time */\n      dup3\n        /* \"CurrentRequest.sol\":609:622  timeofRequest */\n      0x00\n        /* \"CurrentRequest.sol\":609:629  timeofRequest = time */\n      swap1\n      dup2\n      tag_183\n      swap2\n      swap1\n      tag_118\n      jump\t// in\n    tag_183:\n      pop\n        /* \"CurrentRequest.sol\":647:655  bugs_arr */\n      0x01\n      0x00\n        /* \"CurrentRequest.sol\":640:655  delete bugs_arr */\n      tag_184\n      swap2\n      swap1\n      tag_99\n      jump\t// in\n    tag_184:\n        /* \"CurrentRequest.sol\":670:676  uint i */\n      0x00\n        /* \"CurrentRequest.sol\":666:831  for(uint i=0;i<new_b.length;i++){... */\n    tag_185:\n        /* \"CurrentRequest.sol\":681:686  new_b */\n      dup3\n        /* \"CurrentRequest.sol\":681:693  new_b.length */\n      mload\n        /* \"CurrentRequest.sol\":679:680  i */\n      dup2\n        /* \"CurrentRequest.sol\":679:693  i<new_b.length */\n      lt\n        /* \"CurrentRequest.sol\":666:831  for(uint i=0;i<new_b.length;i++){... */\n      iszero\n      tag_186\n      jumpi\n        /* \"CurrentRequest.sol\":713:734  bugReport memory temp */\n      0x00\n        /* \"CurrentRequest.sol\":737:785  bugReport(new_b[i][0], new_b[i][1], new_b[i][2]) */\n      mload(0x40)\n      dup1\n      0x60\n      add\n      0x40\n      mstore\n      dup1\n        /* \"CurrentRequest.sol\":747:752  new_b */\n      dup6\n        /* \"CurrentRequest.sol\":753:754  i */\n      dup5\n        /* \"CurrentRequest.sol\":747:755  new_b[i] */\n      dup2\n      mload\n      dup2\n      lt\n      tag_188\n      jumpi\n      tag_189\n      tag_105\n      jump\t// in\n    tag_189:\n    tag_188:\n      0x20\n      mul\n      0x20\n      add\n      add\n      mload\n        /* \"CurrentRequest.sol\":756:757  0 */\n      0x00\n        /* \"CurrentRequest.sol\":747:758  new_b[i][0] */\n      dup2\n      mload\n      dup2\n      lt\n      tag_190\n      jumpi\n      tag_191\n      tag_105\n      jump\t// in\n    tag_191:\n    tag_190:\n      0x20\n      mul\n      0x20\n      add\n      add\n      mload\n        /* \"CurrentRequest.sol\":737:785  bugReport(new_b[i][0], new_b[i][1], new_b[i][2]) */\n      dup2\n      mstore\n      0x20\n      add\n        /* \"CurrentRequest.sol\":760:765  new_b */\n      dup6\n        /* \"CurrentRequest.sol\":766:767  i */\n      dup5\n        /* \"CurrentRequest.sol\":760:768  new_b[i] */\n      dup2\n      mload\n      dup2\n      lt\n      tag_192\n      jumpi\n      tag_193\n      tag_105\n      jump\t// in\n    tag_193:\n    tag_192:\n      0x20\n      mul\n      0x20\n      add\n      add\n      mload\n        /* \"CurrentRequest.sol\":769:770  1 */\n      0x01\n        /* \"CurrentRequest.sol\":760:771  new_b[i][1] */\n      dup2\n      mload\n      dup2\n      lt\n      tag_194\n      jumpi\n      tag_195\n      tag_105\n      jump\t// in\n    tag_195:\n    tag_194:\n      0x20\n      mul\n      0x20\n      add\n      add\n      mload\n        /* \"CurrentRequest.sol\":737:785  bugReport(new_b[i][0], new_b[i][1], new_b[i][2]) */\n      dup2\n      mstore\n      0x20\n      add\n        /* \"CurrentRequest.sol\":773:778  new_b */\n      dup6\n        /* \"CurrentRequest.sol\":779:780  i */\n      dup5\n        /* \"CurrentRequest.sol\":773:781  new_b[i] */\n      dup2\n      mload\n      dup2\n      lt\n      tag_196\n      jumpi\n      tag_197\n      tag_105\n      jump\t// in\n    tag_197:\n    tag_196:\n      0x20\n      mul\n      0x20\n      add\n      add\n      mload\n        /* \"CurrentRequest.sol\":782:783  2 */\n      0x02\n        /* \"CurrentRequest.sol\":773:784  new_b[i][2] */\n      dup2\n      mload\n      dup2\n      lt\n      tag_198\n      jumpi\n      tag_199\n      tag_105\n      jump\t// in\n    tag_199:\n    tag_198:\n      0x20\n      mul\n      0x20\n      add\n      add\n      mload\n        /* \"CurrentRequest.sol\":737:785  bugReport(new_b[i][0], new_b[i][1], new_b[i][2]) */\n      dup2\n      mstore\n      pop\n        /* \"CurrentRequest.sol\":713:785  bugReport memory temp = bugReport(new_b[i][0], new_b[i][1], new_b[i][2]) */\n      swap1\n      pop\n        /* \"CurrentRequest.sol\":800:808  bugs_arr */\n      0x01\n        /* \"CurrentRequest.sol\":814:818  temp */\n      dup2\n        /* \"CurrentRequest.sol\":800:819  bugs_arr.push(temp) */\n      swap1\n      dup1\n      0x01\n      dup2\n      sload\n      add\n      dup1\n      dup3\n      sstore\n      dup1\n      swap2\n      pop\n      pop\n      0x01\n      swap1\n      sub\n      swap1\n      0x00\n      mstore\n      keccak256(0x00, 0x20)\n      swap1\n      0x03\n      mul\n      add\n      0x00\n      swap1\n      swap2\n      swap1\n      swap2\n      swap1\n      swap2\n      pop\n      0x00\n      dup3\n      add\n      mload\n      dup2\n      0x00\n      add\n      swap1\n      dup2\n      tag_201\n      swap2\n      swap1\n      tag_118\n      jump\t// in\n    tag_201:\n      pop\n      0x20\n      dup3\n      add\n      mload\n      dup2\n      0x01\n      add\n      swap1\n      dup2\n      tag_202\n      swap2\n      swap1\n      tag_118\n      jump\t// in\n    tag_202:\n      pop\n      0x40\n      dup3\n      add\n      mload\n      dup2\n      0x02\n      add\n      swap1\n      dup2\n      tag_203\n      swap2\n      swap1\n      tag_118\n      jump\t// in\n    tag_203:\n      pop\n      pop\n      pop\n        /* \"CurrentRequest.sol\":698:831  {... */\n      pop\n        /* \"CurrentRequest.sol\":694:697  i++ */\n      dup1\n      dup1\n      tag_204\n      swap1\n      tag_122\n      jump\t// in\n    tag_204:\n      swap2\n      pop\n      pop\n        /* \"CurrentRequest.sol\":666:831  for(uint i=0;i<new_b.length;i++){... */\n      jump(tag_185)\n    tag_186:\n      pop\n        /* \"CurrentRequest.sol\":848:860  features_arr */\n      0x02\n      0x00\n        /* \"CurrentRequest.sol\":841:860  delete features_arr */\n      tag_205\n      swap2\n      swap1\n      tag_124\n      jump\t// in\n    tag_205:\n        /* \"CurrentRequest.sol\":875:881  uint i */\n      0x00\n        /* \"CurrentRequest.sol\":871:1048  for(uint i=0;i<new_f.length;i++){... */\n    tag_206:\n        /* \"CurrentRequest.sol\":886:891  new_f */\n      dup2\n        /* \"CurrentRequest.sol\":886:898  new_f.length */\n      mload\n        /* \"CurrentRequest.sol\":884:885  i */\n      dup2\n        /* \"CurrentRequest.sol\":884:898  i<new_f.length */\n      lt\n        /* \"CurrentRequest.sol\":871:1048  for(uint i=0;i<new_f.length;i++){... */\n      iszero\n      tag_207\n      jumpi\n        /* \"CurrentRequest.sol\":918:943  featureReport memory temp */\n      0x00\n        /* \"CurrentRequest.sol\":946:998  featureReport(new_f[i][0], new_f[i][1], new_f[i][2]) */\n      mload(0x40)\n      dup1\n      0x60\n      add\n      0x40\n      mstore\n      dup1\n        /* \"CurrentRequest.sol\":960:965  new_f */\n      dup5\n        /* \"CurrentRequest.sol\":966:967  i */\n      dup5\n        /* \"CurrentRequest.sol\":960:968  new_f[i] */\n      dup2\n      mload\n      dup2\n      lt\n      tag_209\n      jumpi\n      tag_210\n      tag_105\n      jump\t// in\n    tag_210:\n    tag_209:\n      0x20\n      mul\n      0x20\n      add\n      add\n      mload\n        /* \"CurrentRequest.sol\":969:970  0 */\n      0x00\n        /* \"CurrentRequest.sol\":960:971  new_f[i][0] */\n      dup2\n      mload\n      dup2\n      lt\n      tag_211\n      jumpi\n      tag_212\n      tag_105\n      jump\t// in\n    tag_212:\n    tag_211:\n      0x20\n      mul\n      0x20\n      add\n      add\n      mload\n        /* \"CurrentRequest.sol\":946:998  featureReport(new_f[i][0], new_f[i][1], new_f[i][2]) */\n      dup2\n      mstore\n      0x20\n      add\n        /* \"CurrentRequest.sol\":973:978  new_f */\n      dup5\n        /* \"CurrentRequest.sol\":979:980  i */\n      dup5\n        /* \"CurrentRequest.sol\":973:981  new_f[i] */\n      dup2\n      mload\n      dup2\n      lt\n      tag_213\n      jumpi\n      tag_214\n      tag_105\n      jump\t// in\n    tag_214:\n    tag_213:\n      0x20\n      mul\n      0x20\n      add\n      add\n      mload\n        /* \"CurrentRequest.sol\":982:983  1 */\n      0x01\n        /* \"CurrentRequest.sol\":973:984  new_f[i][1] */\n      dup2\n      mload\n      dup2\n      lt\n      tag_215\n      jumpi\n      tag_216\n      tag_105\n      jump\t// in\n    tag_216:\n    tag_215:\n      0x20\n      mul\n      0x20\n      add\n      add\n      mload\n        /* \"CurrentRequest.sol\":946:998  featureReport(new_f[i][0], new_f[i][1], new_f[i][2]) */\n      dup2\n      mstore\n      0x20\n      add\n        /* \"CurrentRequest.sol\":986:991  new_f */\n      dup5\n        /* \"CurrentRequest.sol\":992:993  i */\n      dup5\n        /* \"CurrentRequest.sol\":986:994  new_f[i] */\n      dup2\n      mload\n      dup2\n      lt\n      tag_217\n      jumpi\n      tag_218\n      tag_105\n      jump\t// in\n    tag_218:\n    tag_217:\n      0x20\n      mul\n      0x20\n      add\n      add\n      mload\n        /* \"CurrentRequest.sol\":995:996  2 */\n      0x02\n        /* \"CurrentRequest.sol\":986:997  new_f[i][2] */\n      dup2\n      mload\n      dup2\n      lt\n      tag_219\n      jumpi\n      tag_220\n      tag_105\n      jump\t// in\n    tag_220:\n    tag_219:\n      0x20\n      mul\n      0x20\n      add\n      add\n      mload\n        /* \"CurrentRequest.sol\":946:998  featureReport(new_f[i][0], new_f[i][1], new_f[i][2]) */\n      dup2\n      mstore\n      pop\n        /* \"CurrentRequest.sol\":918:998  featureReport memory temp = featureReport(new_f[i][0], new_f[i][1], new_f[i][2]) */\n      swap1\n      pop\n        /* \"CurrentRequest.sol\":1013:1025  features_arr */\n      0x02\n        /* \"CurrentRequest.sol\":1031:1035  temp */\n      dup2\n        /* \"CurrentRequest.sol\":1013:1036  features_arr.push(temp) */\n      swap1\n      dup1\n      0x01\n      dup2\n      sload\n      add\n      dup1\n      dup3\n      sstore\n      dup1\n      swap2\n      pop\n      pop\n      0x01\n      swap1\n      sub\n      swap1\n      0x00\n      mstore\n      keccak256(0x00, 0x20)\n      swap1\n      0x03\n      mul\n      add\n      0x00\n      swap1\n      swap2\n      swap1\n      swap2\n      swap1\n      swap2\n      pop\n      0x00\n      dup3\n      add\n      mload\n      dup2\n      0x00\n      add\n      swap1\n      dup2\n      tag_222\n      swap2\n      swap1\n      tag_118\n      jump\t// in\n    tag_222:\n      pop\n      0x20\n      dup3\n      add\n      mload\n      dup2\n      0x01\n      add\n      swap1\n      dup2\n      tag_223\n      swap2\n      swap1\n      tag_118\n      jump\t// in\n    tag_223:\n      pop\n      0x40\n      dup3\n      add\n      mload\n      dup2\n      0x02\n      add\n      swap1\n      dup2\n      tag_224\n      swap2\n      swap1\n      tag_118\n      jump\t// in\n    tag_224:\n      pop\n      pop\n      pop\n        /* \"CurrentRequest.sol\":903:1048  {... */\n      pop\n        /* \"CurrentRequest.sol\":899:902  i++ */\n      dup1\n      dup1\n      tag_225\n      swap1\n      tag_122\n      jump\t// in\n    tag_225:\n      swap2\n      pop\n      pop\n        /* \"CurrentRequest.sol\":871:1048  for(uint i=0;i<new_f.length;i++){... */\n      jump(tag_206)\n    tag_207:\n      pop\n        /* \"CurrentRequest.sol\":506:1055  function toAdmin(string memory time, string[][] memory new_b,string[][] memory new_f) public{... */\n      pop\n      pop\n      pop\n      jump\t// out\n        /* \"CurrentRequest.sol\":1591:1725  function send_list() public view returns(bugReport[] memory, featureReport[] memory ){... */\n    tag_39:\n        /* \"CurrentRequest.sol\":1632:1650  bugReport[] memory */\n      0x60\n        /* \"CurrentRequest.sol\":1652:1674  featureReport[] memory */\n      dup1\n        /* \"CurrentRequest.sol\":1695:1703  bugs_arr */\n      0x01\n        /* \"CurrentRequest.sol\":1704:1716  features_arr */\n      0x02\n        /* \"CurrentRequest.sol\":1687:1717  return (bugs_arr,features_arr) */\n      dup2\n      dup1\n      sload\n      dup1\n      0x20\n      mul\n      0x20\n      add\n      mload(0x40)\n      swap1\n      dup2\n      add\n      0x40\n      mstore\n      dup1\n      swap3\n      swap2\n      swap1\n      dup2\n      dup2\n      mstore\n      0x20\n      add\n      0x00\n      swap1\n    tag_227:\n      dup3\n      dup3\n      lt\n      iszero\n      tag_228\n      jumpi\n      dup4\n      dup3\n      swap1\n      0x00\n      mstore\n      keccak256(0x00, 0x20)\n      swap1\n      0x03\n      mul\n      add\n      mload(0x40)\n      dup1\n      0x60\n      add\n      0x40\n      mstore\n      swap1\n      dup2\n      0x00\n      dup3\n      add\n      dup1\n      sload\n      tag_230\n      swap1\n      tag_48\n      jump\t// in\n    tag_230:\n      dup1\n      0x1f\n      add\n      0x20\n      dup1\n      swap2\n      div\n      mul\n      0x20\n      add\n      mload(0x40)\n      swap1\n      dup2\n      add\n      0x40\n      mstore\n      dup1\n      swap3\n      swap2\n      swap1\n      dup2\n      dup2\n      mstore\n      0x20\n      add\n      dup3\n      dup1\n      sload\n      tag_231\n      swap1\n      tag_48\n      jump\t// in\n    tag_231:\n      dup1\n      iszero\n      tag_232\n      jumpi\n      dup1\n      0x1f\n      lt\n      tag_233\n      jumpi\n      0x0100\n      dup1\n      dup4\n      sload\n      div\n      mul\n      dup4\n      mstore\n      swap2\n      0x20\n      add\n      swap2\n      jump(tag_232)\n    tag_233:\n      dup3\n      add\n      swap2\n      swap1\n      0x00\n      mstore\n      keccak256(0x00, 0x20)\n      swap1\n    tag_234:\n      dup2\n      sload\n      dup2\n      mstore\n      swap1\n      0x01\n      add\n      swap1\n      0x20\n      add\n      dup1\n      dup4\n      gt\n      tag_234\n      jumpi\n      dup3\n      swap1\n      sub\n      0x1f\n      and\n      dup3\n      add\n      swap2\n    tag_232:\n      pop\n      pop\n      pop\n      pop\n      pop\n      dup2\n      mstore\n      0x20\n      add\n      0x01\n      dup3\n      add\n      dup1\n      sload\n      tag_235\n      swap1\n      tag_48\n      jump\t// in\n    tag_235:\n      dup1\n      0x1f\n      add\n      0x20\n      dup1\n      swap2\n      div\n      mul\n      0x20\n      add\n      mload(0x40)\n      swap1\n      dup2\n      add\n      0x40\n      mstore\n      dup1\n      swap3\n      swap2\n      swap1\n      dup2\n      dup2\n      mstore\n      0x20\n      add\n      dup3\n      dup1\n      sload\n      tag_236\n      swap1\n      tag_48\n      jump\t// in\n    tag_236:\n      dup1\n      iszero\n      tag_237\n      jumpi\n      dup1\n      0x1f\n      lt\n      tag_238\n      jumpi\n      0x0100\n      dup1\n      dup4\n      sload\n      div\n      mul\n      dup4\n      mstore\n      swap2\n      0x20\n      add\n      swap2\n      jump(tag_237)\n    tag_238:\n      dup3\n      add\n      swap2\n      swap1\n      0x00\n      mstore\n      keccak256(0x00, 0x20)\n      swap1\n    tag_239:\n      dup2\n      sload\n      dup2\n      mstore\n      swap1\n      0x01\n      add\n      swap1\n      0x20\n      add\n      dup1\n      dup4\n      gt\n      tag_239\n      jumpi\n      dup3\n      swap1\n      sub\n      0x1f\n      and\n      dup3\n      add\n      swap2\n    tag_237:\n      pop\n      pop\n      pop\n      pop\n      pop\n      dup2\n      mstore\n      0x20\n      add\n      0x02\n      dup3\n      add\n      dup1\n      sload\n      tag_240\n      swap1\n      tag_48\n      jump\t// in\n    tag_240:\n      dup1\n      0x1f\n      add\n      0x20\n      dup1\n      swap2\n      div\n      mul\n      0x20\n      add\n      mload(0x40)\n      swap1\n      dup2\n      add\n      0x40\n      mstore\n      dup1\n      swap3\n      swap2\n      swap1\n      dup2\n      dup2\n      mstore\n      0x20\n      add\n      dup3\n      dup1\n      sload\n      tag_241\n      swap1\n      tag_48\n      jump\t// in\n    tag_241:\n      dup1\n      iszero\n      tag_242\n      jumpi\n      dup1\n      0x1f\n      lt\n      tag_243\n      jumpi\n      0x0100\n      dup1\n      dup4\n      sload\n      div\n      mul\n      dup4\n      mstore\n      swap2\n      0x20\n      add\n      swap2\n      jump(tag_242)\n    tag_243:\n      dup3\n      add\n      swap2\n      swap1\n      0x00\n      mstore\n      keccak256(0x00, 0x20)\n      swap1\n    tag_244:\n      dup2\n      sload\n      dup2\n      mstore\n      swap1\n      0x01\n      add\n      swap1\n      0x20\n      add\n      dup1\n      dup4\n      gt\n      tag_244\n      jumpi\n      dup3\n      swap1\n      sub\n      0x1f\n      and\n      dup3\n      add\n      swap2\n    tag_242:\n      pop\n      pop\n      pop\n      pop\n      pop\n      dup2\n      mstore\n      pop\n      pop\n      dup2\n      mstore\n      0x20\n      add\n      swap1\n      0x01\n      add\n      swap1\n      jump(tag_227)\n    tag_228:\n      pop\n      pop\n      pop\n      pop\n      swap2\n      pop\n      dup1\n      dup1\n      sload\n      dup1\n      0x20\n      mul\n      0x20\n      add\n      mload(0x40)\n      swap1\n      dup2\n      add\n      0x40\n      mstore\n      dup1\n      swap3\n      swap2\n      swap1\n      dup2\n      dup2\n      mstore\n      0x20\n      add\n      0x00\n      swap1\n    tag_245:\n      dup3\n      dup3\n      lt\n      iszero\n      tag_246\n      jumpi\n      dup4\n      dup3\n      swap1\n      0x00\n      mstore\n      keccak256(0x00, 0x20)\n      swap1\n      0x03\n      mul\n      add\n      mload(0x40)\n      dup1\n      0x60\n      add\n      0x40\n      mstore\n      swap1\n      dup2\n      0x00\n      dup3\n      add\n      dup1\n      sload\n      tag_248\n      swap1\n      tag_48\n      jump\t// in\n    tag_248:\n      dup1\n      0x1f\n      add\n      0x20\n      dup1\n      swap2\n      div\n      mul\n      0x20\n      add\n      mload(0x40)\n      swap1\n      dup2\n      add\n      0x40\n      mstore\n      dup1\n      swap3\n      swap2\n      swap1\n      dup2\n      dup2\n      mstore\n      0x20\n      add\n      dup3\n      dup1\n      sload\n      tag_249\n      swap1\n      tag_48\n      jump\t// in\n    tag_249:\n      dup1\n      iszero\n      tag_250\n      jumpi\n      dup1\n      0x1f\n      lt\n      tag_251\n      jumpi\n      0x0100\n      dup1\n      dup4\n      sload\n      div\n      mul\n      dup4\n      mstore\n      swap2\n      0x20\n      add\n      swap2\n      jump(tag_250)\n    tag_251:\n      dup3\n      add\n      swap2\n      swap1\n      0x00\n      mstore\n      keccak256(0x00, 0x20)\n      swap1\n    tag_252:\n      dup2\n      sload\n      dup2\n      mstore\n      swap1\n      0x01\n      add\n      swap1\n      0x20\n      add\n      dup1\n      dup4\n      gt\n      tag_252\n      jumpi\n      dup3\n      swap1\n      sub\n      0x1f\n      and\n      dup3\n      add\n      swap2\n    tag_250:\n      pop\n      pop\n      pop\n      pop\n      pop\n      dup2\n      mstore\n      0x20\n      add\n      0x01\n      dup3\n      add\n      dup1\n      sload\n      tag_253\n      swap1\n      tag_48\n      jump\t// in\n    tag_253:\n      dup1\n      0x1f\n      add\n      0x20\n      dup1\n      swap2\n      div\n      mul\n      0x20\n      add\n      mload(0x40)\n      swap1\n      dup2\n      add\n      0x40\n      mstore\n      dup1\n      swap3\n      swap2\n      swap1\n      dup2\n      dup2\n      mstore\n      0x20\n      add\n      dup3\n      dup1\n      sload\n      tag_254\n      swap1\n      tag_48\n      jump\t// in\n    tag_254:\n      dup1\n      iszero\n      tag_255\n      jumpi\n      dup1\n      0x1f\n      lt\n      tag_256\n      jumpi\n      0x0100\n      dup1\n      dup4\n      sload\n      div\n      mul\n      dup4\n      mstore\n      swap2\n      0x20\n      add\n      swap2\n      jump(tag_255)\n    tag_256:\n      dup3\n      add\n      swap2\n      swap1\n      0x00\n      mstore\n      keccak256(0x00, 0x20)\n      swap1\n    tag_257:\n      dup2\n      sload\n      dup2\n      mstore\n      swap1\n      0x01\n      add\n      swap1\n      0x20\n      add\n      dup1\n      dup4\n      gt\n      tag_257\n      jumpi\n      dup3\n      swap1\n      sub\n      0x1f\n      and\n      dup3\n      add\n      swap2\n    tag_255:\n      pop\n      pop\n      pop\n      pop\n      pop\n      dup2\n      mstore\n      0x20\n      add\n      0x02\n      dup3\n      add\n      dup1\n      sload\n      tag_258\n      swap1\n      tag_48\n      jump\t// in\n    tag_258:\n      dup1\n      0x1f\n      add\n      0x20\n      dup1\n      swap2\n      div\n      mul\n      0x20\n      add\n      mload(0x40)\n      swap1\n      dup2\n      add\n      0x40\n      mstore\n      dup1\n      swap3\n      swap2\n      swap1\n      dup2\n      dup2\n      mstore\n      0x20\n      add\n      dup3\n      dup1\n      sload\n      tag_259\n      swap1\n      tag_48\n      jump\t// in\n    tag_259:\n      dup1\n      iszero\n      tag_260\n      jumpi\n      dup1\n      0x1f\n      lt\n      tag_261\n      jumpi\n      0x0100\n      dup1\n      dup4\n      sload\n      div\n      mul\n      dup4\n      mstore\n      swap2\n      0x20\n      add\n      swap2\n      jump(tag_260)\n    tag_261:\n      dup3\n      add\n      swap2\n      swap1\n      0x00\n      mstore\n      keccak256(0x00, 0x20)\n      swap1\n    tag_262:\n      dup2\n      sload\n      dup2\n      mstore\n      swap1\n      0x01\n      add\n      swap1\n      0x20\n      add\n      dup1\n      dup4\n      gt\n      tag_262\n      jumpi\n      dup3\n      swap1\n      sub\n      0x1f\n      and\n      dup3\n      add\n      swap2\n    tag_260:\n      pop\n      pop\n      pop\n      pop\n      pop\n      dup2\n      mstore\n      pop\n      pop\n      dup2\n      mstore\n      0x20\n      add\n      swap1\n      0x01\n      add\n      swap1\n      jump(tag_245)\n    tag_246:\n      pop\n      pop\n      pop\n      pop\n      swap1\n      pop\n      swap2\n      pop\n      swap2\n      pop\n        /* \"CurrentRequest.sol\":1591:1725  function send_list() public view returns(bugReport[] memory, featureReport[] memory ){... */\n      swap1\n      swap2\n      jump\t// out\n        /* \"CurrentRequest.sol\":342:369  bugReport[] public bugs_arr */\n    tag_43:\n      0x01\n      dup2\n      dup2\n      sload\n      dup2\n      lt\n      tag_263\n      jumpi\n      0x00\n      dup1\n      revert\n    tag_263:\n      swap1\n      0x00\n      mstore\n      keccak256(0x00, 0x20)\n      swap1\n      0x03\n      mul\n      add\n      0x00\n      swap2\n      pop\n      swap1\n      pop\n      dup1\n      0x00\n      add\n      dup1\n      sload\n      tag_265\n      swap1\n      tag_48\n      jump\t// in\n    tag_265:\n      dup1\n      0x1f\n      add\n      0x20\n      dup1\n      swap2\n      div\n      mul\n      0x20\n      add\n      mload(0x40)\n      swap1\n      dup2\n      add\n      0x40\n      mstore\n      dup1\n      swap3\n      swap2\n      swap1\n      dup2\n      dup2\n      mstore\n      0x20\n      add\n      dup3\n      dup1\n      sload\n      tag_266\n      swap1\n      tag_48\n      jump\t// in\n    tag_266:\n      dup1\n      iszero\n      tag_267\n      jumpi\n      dup1\n      0x1f\n      lt\n      tag_268\n      jumpi\n      0x0100\n      dup1\n      dup4\n      sload\n      div\n      mul\n      dup4\n      mstore\n      swap2\n      0x20\n      add\n      swap2\n      jump(tag_267)\n    tag_268:\n      dup3\n      add\n      swap2\n      swap1\n      0x00\n      mstore\n      keccak256(0x00, 0x20)\n      swap1\n    tag_269:\n      dup2\n      sload\n      dup2\n      mstore\n      swap1\n      0x01\n      add\n      swap1\n      0x20\n      add\n      dup1\n      dup4\n      gt\n      tag_269\n      jumpi\n      dup3\n      swap1\n      sub\n      0x1f\n      and\n      dup3\n      add\n      swap2\n    tag_267:\n      pop\n      pop\n      pop\n      pop\n      pop\n      swap1\n      dup1\n      0x01\n      add\n      dup1\n      sload\n      tag_270\n      swap1\n      tag_48\n      jump\t// in\n    tag_270:\n      dup1\n      0x1f\n      add\n      0x20\n      dup1\n      swap2\n      div\n      mul\n      0x20\n      add\n      mload(0x40)\n      swap1\n      dup2\n      add\n      0x40\n      mstore\n      dup1\n      swap3\n      swap2\n      swap1\n      dup2\n      dup2\n      mstore\n      0x20\n      add\n      dup3\n      dup1\n      sload\n      tag_271\n      swap1\n      tag_48\n      jump\t// in\n    tag_271:\n      dup1\n      iszero\n      tag_272\n      jumpi\n      dup1\n      0x1f\n      lt\n      tag_273\n      jumpi\n      0x0100\n      dup1\n      dup4\n      sload\n      div\n      mul\n      dup4\n      mstore\n      swap2\n      0x20\n      add\n      swap2\n      jump(tag_272)\n    tag_273:\n      dup3\n      add\n      swap2\n      swap1\n      0x00\n      mstore\n      keccak256(0x00, 0x20)\n      swap1\n    tag_274:\n      dup2\n      sload\n      dup2\n      mstore\n      swap1\n      0x01\n      add\n      swap1\n      0x20\n      add\n      dup1\n      dup4\n      gt\n      tag_274\n      jumpi\n      dup3\n      swap1\n      sub\n      0x1f\n      and\n      dup3\n      add\n      swap2\n    tag_272:\n      pop\n      pop\n      pop\n      pop\n      pop\n      swap1\n      dup1\n      0x02\n      add\n      dup1\n      sload\n      tag_275\n      swap1\n      tag_48\n      jump\t// in\n    tag_275:\n      dup1\n      0x1f\n      add\n      0x20\n      dup1\n      swap2\n      div\n      mul\n      0x20\n      add\n      mload(0x40)\n      swap1\n      dup2\n      add\n      0x40\n      mstore\n      dup1\n      swap3\n      swap2\n      swap1\n      dup2\n      dup2\n      mstore\n      0x20\n      add\n      dup3\n      dup1\n      sload\n      tag_276\n      swap1\n      tag_48\n      jump\t// in\n    tag_276:\n      dup1\n      iszero\n      tag_277\n      jumpi\n      dup1\n      0x1f\n      lt\n      tag_278\n      jumpi\n      0x0100\n      dup1\n      dup4\n      sload\n      div\n      mul\n      dup4\n      mstore\n      swap2\n      0x20\n      add\n      swap2\n      jump(tag_277)\n    tag_278:\n      dup3\n      add\n      swap2\n      swap1\n      0x00\n      mstore\n      keccak256(0x00, 0x20)\n      swap1\n    tag_279:\n      dup2\n      sload\n      dup2\n      mstore\n      swap1\n      0x01\n      add\n      swap1\n      0x20\n      add\n      dup1\n      dup4\n      gt\n      tag_279\n      jumpi\n      dup3\n      swap1\n      sub\n      0x1f\n      and\n      dup3\n      add\n      swap2\n    tag_277:\n      pop\n      pop\n      pop\n      pop\n      pop\n      swap1\n      pop\n      dup4\n      jump\t// out\n    tag_99:\n      pop\n      dup1\n      sload\n      0x00\n      dup3\n      sstore\n      0x03\n      mul\n      swap1\n      0x00\n      mstore\n      keccak256(0x00, 0x20)\n      swap1\n      dup2\n      add\n      swap1\n      tag_281\n      swap2\n      swap1\n      tag_282\n      jump\t// in\n    tag_281:\n      pop\n      jump\t// out\n    tag_124:\n      pop\n      dup1\n      sload\n      0x00\n      dup3\n      sstore\n      0x03\n      mul\n      swap1\n      0x00\n      mstore\n      keccak256(0x00, 0x20)\n      swap1\n      dup2\n      add\n      swap1\n      tag_284\n      swap2\n      swap1\n      tag_285\n      jump\t// in\n    tag_284:\n      pop\n      jump\t// out\n    tag_282:\n    tag_286:\n      dup1\n      dup3\n      gt\n      iszero\n      tag_287\n      jumpi\n      0x00\n      dup1\n      dup3\n      add\n      0x00\n      tag_288\n      swap2\n      swap1\n      tag_289\n      jump\t// in\n    tag_288:\n      0x01\n      dup3\n      add\n      0x00\n      tag_290\n      swap2\n      swap1\n      tag_289\n      jump\t// in\n    tag_290:\n      0x02\n      dup3\n      add\n      0x00\n      tag_291\n      swap2\n      swap1\n      tag_289\n      jump\t// in\n    tag_291:\n      pop\n      0x03\n      add\n      jump(tag_286)\n    tag_287:\n      pop\n      swap1\n      jump\t// out\n    tag_285:\n    tag_292:\n      dup1\n      dup3\n      gt\n      iszero\n      tag_293\n      jumpi\n      0x00\n      dup1\n      dup3\n      add\n      0x00\n      tag_294\n      swap2\n      swap1\n      tag_289\n      jump\t// in\n    tag_294:\n      0x01\n      dup3\n      add\n      0x00\n      tag_295\n      swap2\n      swap1\n      tag_289\n      jump\t// in\n    tag_295:\n      0x02\n      dup3\n      add\n      0x00\n      tag_296\n      swap2\n      swap1\n      tag_289\n      jump\t// in\n    tag_296:\n      pop\n      0x03\n      add\n      jump(tag_292)\n    tag_293:\n      pop\n      swap1\n      jump\t// out\n    tag_289:\n      pop\n      dup1\n      sload\n      tag_297\n      swap1\n      tag_48\n      jump\t// in\n    tag_297:\n      0x00\n      dup3\n      sstore\n      dup1\n      0x1f\n      lt\n      tag_299\n      jumpi\n      pop\n      jump(tag_298)\n    tag_299:\n      0x1f\n      add\n      0x20\n      swap1\n      div\n      swap1\n      0x00\n      mstore\n      keccak256(0x00, 0x20)\n      swap1\n      dup2\n      add\n      swap1\n      tag_300\n      swap2\n      swap1\n      tag_301\n      jump\t// in\n    tag_300:\n    tag_298:\n      pop\n      jump\t// out\n    tag_301:\n    tag_302:\n      dup1\n      dup3\n      gt\n      iszero\n      tag_303\n      jumpi\n      0x00\n      dup2\n      0x00\n      swap1\n      sstore\n      pop\n      0x01\n      add\n      jump(tag_302)\n    tag_303:\n      pop\n      swap1\n      jump\t// out\n        /* \"#utility.yul\":7:82   */\n    tag_304:\n        /* \"#utility.yul\":40:46   */\n      0x00\n        /* \"#utility.yul\":73:75   */\n      0x40\n        /* \"#utility.yul\":67:76   */\n      mload\n        /* \"#utility.yul\":57:76   */\n      swap1\n      pop\n        /* \"#utility.yul\":7:82   */\n      swap1\n      jump\t// out\n        /* \"#utility.yul\":88:205   */\n    tag_305:\n        /* \"#utility.yul\":197:198   */\n      0x00\n        /* \"#utility.yul\":194:195   */\n      dup1\n        /* \"#utility.yul\":187:199   */\n      revert\n        /* \"#utility.yul\":211:328   */\n    tag_306:\n        /* \"#utility.yul\":320:321   */\n      0x00\n        /* \"#utility.yul\":317:318   */\n      dup1\n        /* \"#utility.yul\":310:322   */\n      revert\n        /* \"#utility.yul\":334:411   */\n    tag_307:\n        /* \"#utility.yul\":371:378   */\n      0x00\n        /* \"#utility.yul\":400:405   */\n      dup2\n        /* \"#utility.yul\":389:405   */\n      swap1\n      pop\n        /* \"#utility.yul\":334:411   */\n      swap2\n      swap1\n      pop\n      jump\t// out\n        /* \"#utility.yul\":417:539   */\n    tag_308:\n        /* \"#utility.yul\":490:514   */\n      tag_370\n        /* \"#utility.yul\":508:513   */\n      dup2\n        /* \"#utility.yul\":490:514   */\n      tag_307\n      jump\t// in\n    tag_370:\n        /* \"#utility.yul\":483:488   */\n      dup2\n        /* \"#utility.yul\":480:515   */\n      eq\n        /* \"#utility.yul\":470:533   */\n      tag_371\n      jumpi\n        /* \"#utility.yul\":529:530   */\n      0x00\n        /* \"#utility.yul\":526:527   */\n      dup1\n        /* \"#utility.yul\":519:531   */\n      revert\n        /* \"#utility.yul\":470:533   */\n    tag_371:\n        /* \"#utility.yul\":417:539   */\n      pop\n      jump\t// out\n        /* \"#utility.yul\":545:684   */\n    tag_309:\n        /* \"#utility.yul\":591:596   */\n      0x00\n        /* \"#utility.yul\":629:635   */\n      dup2\n        /* \"#utility.yul\":616:636   */\n      calldataload\n        /* \"#utility.yul\":607:636   */\n      swap1\n      pop\n        /* \"#utility.yul\":645:678   */\n      tag_373\n        /* \"#utility.yul\":672:677   */\n      dup2\n        /* \"#utility.yul\":645:678   */\n      tag_308\n      jump\t// in\n    tag_373:\n        /* \"#utility.yul\":545:684   */\n      swap3\n      swap2\n      pop\n      pop\n      jump\t// out\n        /* \"#utility.yul\":690:1019   */\n    tag_14:\n        /* \"#utility.yul\":749:755   */\n      0x00\n        /* \"#utility.yul\":798:800   */\n      0x20\n        /* \"#utility.yul\":786:795   */\n      dup3\n        /* \"#utility.yul\":777:784   */\n      dup5\n        /* \"#utility.yul\":773:796   */\n      sub\n        /* \"#utility.yul\":769:801   */\n      slt\n        /* \"#utility.yul\":766:885   */\n      iszero\n      tag_375\n      jumpi\n        /* \"#utility.yul\":804:883   */\n      tag_376\n      tag_305\n      jump\t// in\n    tag_376:\n        /* \"#utility.yul\":766:885   */\n    tag_375:\n        /* \"#utility.yul\":924:925   */\n      0x00\n        /* \"#utility.yul\":949:1002   */\n      tag_377\n        /* \"#utility.yul\":994:1001   */\n      dup5\n        /* \"#utility.yul\":985:991   */\n      dup3\n        /* \"#utility.yul\":974:983   */\n      dup6\n        /* \"#utility.yul\":970:992   */\n      add\n        /* \"#utility.yul\":949:1002   */\n      tag_309\n      jump\t// in\n    tag_377:\n        /* \"#utility.yul\":939:1002   */\n      swap2\n      pop\n        /* \"#utility.yul\":895:1012   */\n      pop\n        /* \"#utility.yul\":690:1019   */\n      swap3\n      swap2\n      pop\n      pop\n      jump\t// out\n        /* \"#utility.yul\":1025:1124   */\n    tag_310:\n        /* \"#utility.yul\":1077:1083   */\n      0x00\n        /* \"#utility.yul\":1111:1116   */\n      dup2\n        /* \"#utility.yul\":1105:1117   */\n      mload\n        /* \"#utility.yul\":1095:1117   */\n      swap1\n      pop\n        /* \"#utility.yul\":1025:1124   */\n      swap2\n      swap1\n      pop\n      jump\t// out\n        /* \"#utility.yul\":1130:1299   */\n    tag_311:\n        /* \"#utility.yul\":1214:1225   */\n      0x00\n        /* \"#utility.yul\":1248:1254   */\n      dup3\n        /* \"#utility.yul\":1243:1246   */\n      dup3\n        /* \"#utility.yul\":1236:1255   */\n      mstore\n        /* \"#utility.yul\":1288:1292   */\n      0x20\n        /* \"#utility.yul\":1283:1286   */\n      dup3\n        /* \"#utility.yul\":1279:1293   */\n      add\n        /* \"#utility.yul\":1264:1293   */\n      swap1\n      pop\n        /* \"#utility.yul\":1130:1299   */\n      swap3\n      swap2\n      pop\n      pop\n      jump\t// out\n        /* \"#utility.yul\":1305:1551   */\n    tag_312:\n        /* \"#utility.yul\":1386:1387   */\n      0x00\n        /* \"#utility.yul\":1396:1509   */\n    tag_381:\n        /* \"#utility.yul\":1410:1416   */\n      dup4\n        /* \"#utility.yul\":1407:1408   */\n      dup2\n        /* \"#utility.yul\":1404:1417   */\n      lt\n        /* \"#utility.yul\":1396:1509   */\n      iszero\n      tag_383\n      jumpi\n        /* \"#utility.yul\":1495:1496   */\n      dup1\n        /* \"#utility.yul\":1490:1493   */\n      dup3\n        /* \"#utility.yul\":1486:1497   */\n      add\n        /* \"#utility.yul\":1480:1498   */\n      mload\n        /* \"#utility.yul\":1476:1477   */\n      dup2\n        /* \"#utility.yul\":1471:1474   */\n      dup5\n        /* \"#utility.yul\":1467:1478   */\n      add\n        /* \"#utility.yul\":1460:1499   */\n      mstore\n        /* \"#utility.yul\":1432:1434   */\n      0x20\n        /* \"#utility.yul\":1429:1430   */\n      dup2\n        /* \"#utility.yul\":1425:1435   */\n      add\n        /* \"#utility.yul\":1420:1435   */\n      swap1\n      pop\n        /* \"#utility.yul\":1396:1509   */\n      jump(tag_381)\n    tag_383:\n        /* \"#utility.yul\":1543:1544   */\n      0x00\n        /* \"#utility.yul\":1534:1540   */\n      dup5\n        /* \"#utility.yul\":1529:1532   */\n      dup5\n        /* \"#utility.yul\":1525:1541   */\n      add\n        /* \"#utility.yul\":1518:1545   */\n      mstore\n        /* \"#utility.yul\":1367:1551   */\n      pop\n        /* \"#utility.yul\":1305:1551   */\n      pop\n      pop\n      pop\n      jump\t// out\n        /* \"#utility.yul\":1557:1659   */\n    tag_313:\n        /* \"#utility.yul\":1598:1604   */\n      0x00\n        /* \"#utility.yul\":1649:1651   */\n      0x1f\n        /* \"#utility.yul\":1645:1652   */\n      not\n        /* \"#utility.yul\":1640:1642   */\n      0x1f\n        /* \"#utility.yul\":1633:1638   */\n      dup4\n        /* \"#utility.yul\":1629:1643   */\n      add\n        /* \"#utility.yul\":1625:1653   */\n      and\n        /* \"#utility.yul\":1615:1653   */\n      swap1\n      pop\n        /* \"#utility.yul\":1557:1659   */\n      swap2\n      swap1\n      pop\n      jump\t// out\n        /* \"#utility.yul\":1665:2042   */\n    tag_314:\n        /* \"#utility.yul\":1753:1756   */\n      0x00\n        /* \"#utility.yul\":1781:1820   */\n      tag_386\n        /* \"#utility.yul\":1814:1819   */\n      dup3\n        /* \"#utility.yul\":1781:1820   */\n      tag_310\n      jump\t// in\n    tag_386:\n        /* \"#utility.yul\":1836:1907   */\n      tag_387\n        /* \"#utility.yul\":1900:1906   */\n      dup2\n        /* \"#utility.yul\":1895:1898   */\n      dup6\n        /* \"#utility.yul\":1836:1907   */\n      tag_311\n      jump\t// in\n    tag_387:\n        /* \"#utility.yul\":1829:1907   */\n      swap4\n      pop\n        /* \"#utility.yul\":1916:1981   */\n      tag_388\n        /* \"#utility.yul\":1974:1980   */\n      dup2\n        /* \"#utility.yul\":1969:1972   */\n      dup6\n        /* \"#utility.yul\":1962:1966   */\n      0x20\n        /* \"#utility.yul\":1955:1960   */\n      dup7\n        /* \"#utility.yul\":1951:1967   */\n      add\n        /* \"#utility.yul\":1916:1981   */\n      tag_312\n      jump\t// in\n    tag_388:\n        /* \"#utility.yul\":2006:2035   */\n      tag_389\n        /* \"#utility.yul\":2028:2034   */\n      dup2\n        /* \"#utility.yul\":2006:2035   */\n      tag_313\n      jump\t// in\n    tag_389:\n        /* \"#utility.yul\":2001:2004   */\n      dup5\n        /* \"#utility.yul\":1997:2036   */\n      add\n        /* \"#utility.yul\":1990:2036   */\n      swap2\n      pop\n        /* \"#utility.yul\":1757:2042   */\n      pop\n        /* \"#utility.yul\":1665:2042   */\n      swap3\n      swap2\n      pop\n      pop\n      jump\t// out\n        /* \"#utility.yul\":2048:2763   */\n    tag_17:\n        /* \"#utility.yul\":2257:2261   */\n      0x00\n        /* \"#utility.yul\":2295:2297   */\n      0x60\n        /* \"#utility.yul\":2284:2293   */\n      dup3\n        /* \"#utility.yul\":2280:2298   */\n      add\n        /* \"#utility.yul\":2272:2298   */\n      swap1\n      pop\n        /* \"#utility.yul\":2344:2353   */\n      dup2\n        /* \"#utility.yul\":2338:2342   */\n      dup2\n        /* \"#utility.yul\":2334:2354   */\n      sub\n        /* \"#utility.yul\":2330:2331   */\n      0x00\n        /* \"#utility.yul\":2319:2328   */\n      dup4\n        /* \"#utility.yul\":2315:2332   */\n      add\n        /* \"#utility.yul\":2308:2355   */\n      mstore\n        /* \"#utility.yul\":2372:2450   */\n      tag_391\n        /* \"#utility.yul\":2445:2449   */\n      dup2\n        /* \"#utility.yul\":2436:2442   */\n      dup7\n        /* \"#utility.yul\":2372:2450   */\n      tag_314\n      jump\t// in\n    tag_391:\n        /* \"#utility.yul\":2364:2450   */\n      swap1\n      pop\n        /* \"#utility.yul\":2497:2506   */\n      dup2\n        /* \"#utility.yul\":2491:2495   */\n      dup2\n        /* \"#utility.yul\":2487:2507   */\n      sub\n        /* \"#utility.yul\":2482:2484   */\n      0x20\n        /* \"#utility.yul\":2471:2480   */\n      dup4\n        /* \"#utility.yul\":2467:2485   */\n      add\n        /* \"#utility.yul\":2460:2508   */\n      mstore\n        /* \"#utility.yul\":2525:2603   */\n      tag_392\n        /* \"#utility.yul\":2598:2602   */\n      dup2\n        /* \"#utility.yul\":2589:2595   */\n      dup6\n        /* \"#utility.yul\":2525:2603   */\n      tag_314\n      jump\t// in\n    tag_392:\n        /* \"#utility.yul\":2517:2603   */\n      swap1\n      pop\n        /* \"#utility.yul\":2650:2659   */\n      dup2\n        /* \"#utility.yul\":2644:2648   */\n      dup2\n        /* \"#utility.yul\":2640:2660   */\n      sub\n        /* \"#utility.yul\":2635:2637   */\n      0x40\n        /* \"#utility.yul\":2624:2633   */\n      dup4\n        /* \"#utility.yul\":2620:2638   */\n      add\n        /* \"#utility.yul\":2613:2661   */\n      mstore\n        /* \"#utility.yul\":2678:2756   */\n      tag_393\n        /* \"#utility.yul\":2751:2755   */\n      dup2\n        /* \"#utility.yul\":2742:2748   */\n      dup5\n        /* \"#utility.yul\":2678:2756   */\n      tag_314\n      jump\t// in\n    tag_393:\n        /* \"#utility.yul\":2670:2756   */\n      swap1\n      pop\n        /* \"#utility.yul\":2048:2763   */\n      swap5\n      swap4\n      pop\n      pop\n      pop\n      pop\n      jump\t// out\n        /* \"#utility.yul\":2769:2886   */\n    tag_315:\n        /* \"#utility.yul\":2878:2879   */\n      0x00\n        /* \"#utility.yul\":2875:2876   */\n      dup1\n        /* \"#utility.yul\":2868:2880   */\n      revert\n        /* \"#utility.yul\":2892:3072   */\n    tag_316:\n        /* \"#utility.yul\":2940:3017   */\n      0x4e487b7100000000000000000000000000000000000000000000000000000000\n        /* \"#utility.yul\":2937:2938   */\n      0x00\n        /* \"#utility.yul\":2930:3018   */\n      mstore\n        /* \"#utility.yul\":3037:3041   */\n      0x41\n        /* \"#utility.yul\":3034:3035   */\n      0x04\n        /* \"#utility.yul\":3027:3042   */\n      mstore\n        /* \"#utility.yul\":3061:3065   */\n      0x24\n        /* \"#utility.yul\":3058:3059   */\n      0x00\n        /* \"#utility.yul\":3051:3066   */\n      revert\n        /* \"#utility.yul\":3078:3359   */\n    tag_317:\n        /* \"#utility.yul\":3161:3188   */\n      tag_397\n        /* \"#utility.yul\":3183:3187   */\n      dup3\n        /* \"#utility.yul\":3161:3188   */\n      tag_313\n      jump\t// in\n    tag_397:\n        /* \"#utility.yul\":3153:3159   */\n      dup2\n        /* \"#utility.yul\":3149:3189   */\n      add\n        /* \"#utility.yul\":3291:3297   */\n      dup2\n        /* \"#utility.yul\":3279:3289   */\n      dup2\n        /* \"#utility.yul\":3276:3298   */\n      lt\n        /* \"#utility.yul\":3255:3273   */\n      0xffffffffffffffff\n        /* \"#utility.yul\":3243:3253   */\n      dup3\n        /* \"#utility.yul\":3240:3274   */\n      gt\n        /* \"#utility.yul\":3237:3299   */\n      or\n        /* \"#utility.yul\":3234:3322   */\n      iszero\n      tag_398\n      jumpi\n        /* \"#utility.yul\":3302:3320   */\n      tag_399\n      tag_316\n      jump\t// in\n    tag_399:\n        /* \"#utility.yul\":3234:3322   */\n    tag_398:\n        /* \"#utility.yul\":3342:3352   */\n      dup1\n        /* \"#utility.yul\":3338:3340   */\n      0x40\n        /* \"#utility.yul\":3331:3353   */\n      mstore\n        /* \"#utility.yul\":3121:3359   */\n      pop\n        /* \"#utility.yul\":3078:3359   */\n      pop\n      pop\n      jump\t// out\n        /* \"#utility.yul\":3365:3494   */\n    tag_318:\n        /* \"#utility.yul\":3399:3405   */\n      0x00\n        /* \"#utility.yul\":3426:3446   */\n      tag_401\n      tag_304\n      jump\t// in\n    tag_401:\n        /* \"#utility.yul\":3416:3446   */\n      swap1\n      pop\n        /* \"#utility.yul\":3455:3488   */\n      tag_402\n        /* \"#utility.yul\":3483:3487   */\n      dup3\n        /* \"#utility.yul\":3475:3481   */\n      dup3\n        /* \"#utility.yul\":3455:3488   */\n      tag_317\n      jump\t// in\n    tag_402:\n        /* \"#utility.yul\":3365:3494   */\n      swap2\n      swap1\n      pop\n      jump\t// out\n        /* \"#utility.yul\":3500:3846   */\n    tag_319:\n        /* \"#utility.yul\":3612:3616   */\n      0x00\n        /* \"#utility.yul\":3702:3720   */\n      0xffffffffffffffff\n        /* \"#utility.yul\":3694:3700   */\n      dup3\n        /* \"#utility.yul\":3691:3721   */\n      gt\n        /* \"#utility.yul\":3688:3744   */\n      iszero\n      tag_404\n      jumpi\n        /* \"#utility.yul\":3724:3742   */\n      tag_405\n      tag_316\n      jump\t// in\n    tag_405:\n        /* \"#utility.yul\":3688:3744   */\n    tag_404:\n        /* \"#utility.yul\":3774:3778   */\n      0x20\n        /* \"#utility.yul\":3766:3772   */\n      dup3\n        /* \"#utility.yul\":3762:3779   */\n      mul\n        /* \"#utility.yul\":3754:3779   */\n      swap1\n      pop\n        /* \"#utility.yul\":3834:3838   */\n      0x20\n        /* \"#utility.yul\":3828:3832   */\n      dup2\n        /* \"#utility.yul\":3824:3839   */\n      add\n        /* \"#utility.yul\":3816:3839   */\n      swap1\n      pop\n        /* \"#utility.yul\":3500:3846   */\n      swap2\n      swap1\n      pop\n      jump\t// out\n        /* \"#utility.yul\":3852:3969   */\n    tag_320:\n        /* \"#utility.yul\":3961:3962   */\n      0x00\n        /* \"#utility.yul\":3958:3959   */\n      dup1\n        /* \"#utility.yul\":3951:3963   */\n      revert\n        /* \"#utility.yul\":3975:4296   */\n    tag_321:\n        /* \"#utility.yul\":4062:4066   */\n      0x00\n        /* \"#utility.yul\":4152:4170   */\n      0xffffffffffffffff\n        /* \"#utility.yul\":4144:4150   */\n      dup3\n        /* \"#utility.yul\":4141:4171   */\n      gt\n        /* \"#utility.yul\":4138:4194   */\n      iszero\n      tag_408\n      jumpi\n        /* \"#utility.yul\":4174:4192   */\n      tag_409\n      tag_316\n      jump\t// in\n    tag_409:\n        /* \"#utility.yul\":4138:4194   */\n    tag_408:\n        /* \"#utility.yul\":4224:4228   */\n      0x20\n        /* \"#utility.yul\":4216:4222   */\n      dup3\n        /* \"#utility.yul\":4212:4229   */\n      mul\n        /* \"#utility.yul\":4204:4229   */\n      swap1\n      pop\n        /* \"#utility.yul\":4284:4288   */\n      0x20\n        /* \"#utility.yul\":4278:4282   */\n      dup2\n        /* \"#utility.yul\":4274:4289   */\n      add\n        /* \"#utility.yul\":4266:4289   */\n      swap1\n      pop\n        /* \"#utility.yul\":3975:4296   */\n      swap2\n      swap1\n      pop\n      jump\t// out\n        /* \"#utility.yul\":4302:4419   */\n    tag_322:\n        /* \"#utility.yul\":4411:4412   */\n      0x00\n        /* \"#utility.yul\":4408:4409   */\n      dup1\n        /* \"#utility.yul\":4401:4413   */\n      revert\n        /* \"#utility.yul\":4425:4733   */\n    tag_323:\n        /* \"#utility.yul\":4487:4491   */\n      0x00\n        /* \"#utility.yul\":4577:4595   */\n      0xffffffffffffffff\n        /* \"#utility.yul\":4569:4575   */\n      dup3\n        /* \"#utility.yul\":4566:4596   */\n      gt\n        /* \"#utility.yul\":4563:4619   */\n      iszero\n      tag_412\n      jumpi\n        /* \"#utility.yul\":4599:4617   */\n      tag_413\n      tag_316\n      jump\t// in\n    tag_413:\n        /* \"#utility.yul\":4563:4619   */\n    tag_412:\n        /* \"#utility.yul\":4637:4666   */\n      tag_414\n        /* \"#utility.yul\":4659:4665   */\n      dup3\n        /* \"#utility.yul\":4637:4666   */\n      tag_313\n      jump\t// in\n    tag_414:\n        /* \"#utility.yul\":4629:4666   */\n      swap1\n      pop\n        /* \"#utility.yul\":4721:4725   */\n      0x20\n        /* \"#utility.yul\":4715:4719   */\n      dup2\n        /* \"#utility.yul\":4711:4726   */\n      add\n        /* \"#utility.yul\":4703:4726   */\n      swap1\n      pop\n        /* \"#utility.yul\":4425:4733   */\n      swap2\n      swap1\n      pop\n      jump\t// out\n        /* \"#utility.yul\":4739:4885   */\n    tag_324:\n        /* \"#utility.yul\":4836:4842   */\n      dup3\n        /* \"#utility.yul\":4831:4834   */\n      dup2\n        /* \"#utility.yul\":4826:4829   */\n      dup4\n        /* \"#utility.yul\":4813:4843   */\n      calldatacopy\n        /* \"#utility.yul\":4877:4878   */\n      0x00\n        /* \"#utility.yul\":4868:4874   */\n      dup4\n        /* \"#utility.yul\":4863:4866   */\n      dup4\n        /* \"#utility.yul\":4859:4875   */\n      add\n        /* \"#utility.yul\":4852:4879   */\n      mstore\n        /* \"#utility.yul\":4739:4885   */\n      pop\n      pop\n      pop\n      jump\t// out\n        /* \"#utility.yul\":4891:5316   */\n    tag_325:\n        /* \"#utility.yul\":4969:4974   */\n      0x00\n        /* \"#utility.yul\":4994:5060   */\n      tag_417\n        /* \"#utility.yul\":5010:5059   */\n      tag_418\n        /* \"#utility.yul\":5052:5058   */\n      dup5\n        /* \"#utility.yul\":5010:5059   */\n      tag_323\n      jump\t// in\n    tag_418:\n        /* \"#utility.yul\":4994:5060   */\n      tag_318\n      jump\t// in\n    tag_417:\n        /* \"#utility.yul\":4985:5060   */\n      swap1\n      pop\n        /* \"#utility.yul\":5083:5089   */\n      dup3\n        /* \"#utility.yul\":5076:5081   */\n      dup2\n        /* \"#utility.yul\":5069:5090   */\n      mstore\n        /* \"#utility.yul\":5121:5125   */\n      0x20\n        /* \"#utility.yul\":5114:5119   */\n      dup2\n        /* \"#utility.yul\":5110:5126   */\n      add\n        /* \"#utility.yul\":5159:5162   */\n      dup5\n        /* \"#utility.yul\":5150:5156   */\n      dup5\n        /* \"#utility.yul\":5145:5148   */\n      dup5\n        /* \"#utility.yul\":5141:5157   */\n      add\n        /* \"#utility.yul\":5138:5163   */\n      gt\n        /* \"#utility.yul\":5135:5247   */\n      iszero\n      tag_419\n      jumpi\n        /* \"#utility.yul\":5166:5245   */\n      tag_420\n      tag_322\n      jump\t// in\n    tag_420:\n        /* \"#utility.yul\":5135:5247   */\n    tag_419:\n        /* \"#utility.yul\":5256:5310   */\n      tag_421\n        /* \"#utility.yul\":5303:5309   */\n      dup5\n        /* \"#utility.yul\":5298:5301   */\n      dup3\n        /* \"#utility.yul\":5293:5296   */\n      dup6\n        /* \"#utility.yul\":5256:5310   */\n      tag_324\n      jump\t// in\n    tag_421:\n        /* \"#utility.yul\":4975:5316   */\n      pop\n        /* \"#utility.yul\":4891:5316   */\n      swap4\n      swap3\n      pop\n      pop\n      pop\n      jump\t// out\n        /* \"#utility.yul\":5336:5676   */\n    tag_326:\n        /* \"#utility.yul\":5392:5397   */\n      0x00\n        /* \"#utility.yul\":5441:5444   */\n      dup3\n        /* \"#utility.yul\":5434:5438   */\n      0x1f\n        /* \"#utility.yul\":5426:5432   */\n      dup4\n        /* \"#utility.yul\":5422:5439   */\n      add\n        /* \"#utility.yul\":5418:5445   */\n      slt\n        /* \"#utility.yul\":5408:5530   */\n      tag_423\n      jumpi\n        /* \"#utility.yul\":5449:5528   */\n      tag_424\n      tag_315\n      jump\t// in\n    tag_424:\n        /* \"#utility.yul\":5408:5530   */\n    tag_423:\n        /* \"#utility.yul\":5566:5572   */\n      dup2\n        /* \"#utility.yul\":5553:5573   */\n      calldataload\n        /* \"#utility.yul\":5591:5670   */\n      tag_425\n        /* \"#utility.yul\":5666:5669   */\n      dup5\n        /* \"#utility.yul\":5658:5664   */\n      dup3\n        /* \"#utility.yul\":5651:5655   */\n      0x20\n        /* \"#utility.yul\":5643:5649   */\n      dup7\n        /* \"#utility.yul\":5639:5656   */\n      add\n        /* \"#utility.yul\":5591:5670   */\n      tag_325\n      jump\t// in\n    tag_425:\n        /* \"#utility.yul\":5582:5670   */\n      swap2\n      pop\n        /* \"#utility.yul\":5398:5676   */\n      pop\n        /* \"#utility.yul\":5336:5676   */\n      swap3\n      swap2\n      pop\n      pop\n      jump\t// out\n        /* \"#utility.yul\":5698:6643   */\n    tag_327:\n        /* \"#utility.yul\":5804:5809   */\n      0x00\n        /* \"#utility.yul\":5829:5920   */\n      tag_427\n        /* \"#utility.yul\":5845:5919   */\n      tag_428\n        /* \"#utility.yul\":5912:5918   */\n      dup5\n        /* \"#utility.yul\":5845:5919   */\n      tag_321\n      jump\t// in\n    tag_428:\n        /* \"#utility.yul\":5829:5920   */\n      tag_318\n      jump\t// in\n    tag_427:\n        /* \"#utility.yul\":5820:5920   */\n      swap1\n      pop\n        /* \"#utility.yul\":5940:5945   */\n      dup1\n        /* \"#utility.yul\":5969:5975   */\n      dup4\n        /* \"#utility.yul\":5962:5967   */\n      dup3\n        /* \"#utility.yul\":5955:5976   */\n      mstore\n        /* \"#utility.yul\":6003:6007   */\n      0x20\n        /* \"#utility.yul\":5996:6001   */\n      dup3\n        /* \"#utility.yul\":5992:6008   */\n      add\n        /* \"#utility.yul\":5985:6008   */\n      swap1\n      pop\n        /* \"#utility.yul\":6056:6060   */\n      0x20\n        /* \"#utility.yul\":6048:6054   */\n      dup5\n        /* \"#utility.yul\":6044:6061   */\n      mul\n        /* \"#utility.yul\":6036:6042   */\n      dup4\n        /* \"#utility.yul\":6032:6062   */\n      add\n        /* \"#utility.yul\":6085:6088   */\n      dup6\n        /* \"#utility.yul\":6077:6083   */\n      dup2\n        /* \"#utility.yul\":6074:6089   */\n      gt\n        /* \"#utility.yul\":6071:6193   */\n      iszero\n      tag_429\n      jumpi\n        /* \"#utility.yul\":6104:6183   */\n      tag_430\n      tag_320\n      jump\t// in\n    tag_430:\n        /* \"#utility.yul\":6071:6193   */\n    tag_429:\n        /* \"#utility.yul\":6219:6225   */\n      dup4\n        /* \"#utility.yul\":6202:6637   */\n    tag_431:\n        /* \"#utility.yul\":6236:6242   */\n      dup2\n        /* \"#utility.yul\":6231:6234   */\n      dup2\n        /* \"#utility.yul\":6228:6243   */\n      lt\n        /* \"#utility.yul\":6202:6637   */\n      iszero\n      tag_433\n      jumpi\n        /* \"#utility.yul\":6325:6328   */\n      dup1\n        /* \"#utility.yul\":6312:6329   */\n      calldataload\n        /* \"#utility.yul\":6361:6379   */\n      0xffffffffffffffff\n        /* \"#utility.yul\":6348:6359   */\n      dup2\n        /* \"#utility.yul\":6345:6380   */\n      gt\n        /* \"#utility.yul\":6342:6464   */\n      iszero\n      tag_434\n      jumpi\n        /* \"#utility.yul\":6383:6462   */\n      tag_435\n      tag_315\n      jump\t// in\n    tag_435:\n        /* \"#utility.yul\":6342:6464   */\n    tag_434:\n        /* \"#utility.yul\":6507:6518   */\n      dup1\n        /* \"#utility.yul\":6499:6505   */\n      dup7\n        /* \"#utility.yul\":6495:6519   */\n      add\n        /* \"#utility.yul\":6545:6592   */\n      tag_436\n        /* \"#utility.yul\":6588:6591   */\n      dup10\n        /* \"#utility.yul\":6576:6586   */\n      dup3\n        /* \"#utility.yul\":6545:6592   */\n      tag_326\n      jump\t// in\n    tag_436:\n        /* \"#utility.yul\":6540:6543   */\n      dup6\n        /* \"#utility.yul\":6533:6593   */\n      mstore\n        /* \"#utility.yul\":6622:6626   */\n      0x20\n        /* \"#utility.yul\":6617:6620   */\n      dup6\n        /* \"#utility.yul\":6613:6627   */\n      add\n        /* \"#utility.yul\":6606:6627   */\n      swap5\n      pop\n        /* \"#utility.yul\":6278:6637   */\n      pop\n      pop\n        /* \"#utility.yul\":6262:6266   */\n      0x20\n        /* \"#utility.yul\":6257:6260   */\n      dup2\n        /* \"#utility.yul\":6253:6267   */\n      add\n        /* \"#utility.yul\":6246:6267   */\n      swap1\n      pop\n        /* \"#utility.yul\":6202:6637   */\n      jump(tag_431)\n    tag_433:\n        /* \"#utility.yul\":6206:6227   */\n      pop\n        /* \"#utility.yul\":5810:6643   */\n      pop\n      pop\n        /* \"#utility.yul\":5698:6643   */\n      swap4\n      swap3\n      pop\n      pop\n      pop\n      jump\t// out\n        /* \"#utility.yul\":6665:7055   */\n    tag_328:\n        /* \"#utility.yul\":6746:6751   */\n      0x00\n        /* \"#utility.yul\":6795:6798   */\n      dup3\n        /* \"#utility.yul\":6788:6792   */\n      0x1f\n        /* \"#utility.yul\":6780:6786   */\n      dup4\n        /* \"#utility.yul\":6776:6793   */\n      add\n        /* \"#utility.yul\":6772:6799   */\n      slt\n        /* \"#utility.yul\":6762:6884   */\n      tag_438\n      jumpi\n        /* \"#utility.yul\":6803:6882   */\n      tag_439\n      tag_315\n      jump\t// in\n    tag_439:\n        /* \"#utility.yul\":6762:6884   */\n    tag_438:\n        /* \"#utility.yul\":6920:6926   */\n      dup2\n        /* \"#utility.yul\":6907:6927   */\n      calldataload\n        /* \"#utility.yul\":6945:7049   */\n      tag_440\n        /* \"#utility.yul\":7045:7048   */\n      dup5\n        /* \"#utility.yul\":7037:7043   */\n      dup3\n        /* \"#utility.yul\":7030:7034   */\n      0x20\n        /* \"#utility.yul\":7022:7028   */\n      dup7\n        /* \"#utility.yul\":7018:7035   */\n      add\n        /* \"#utility.yul\":6945:7049   */\n      tag_327\n      jump\t// in\n    tag_440:\n        /* \"#utility.yul\":6936:7049   */\n      swap2\n      pop\n        /* \"#utility.yul\":6752:7055   */\n      pop\n        /* \"#utility.yul\":6665:7055   */\n      swap3\n      swap2\n      pop\n      pop\n      jump\t// out\n        /* \"#utility.yul\":7079:8099   */\n    tag_329:\n        /* \"#utility.yul\":7210:7215   */\n      0x00\n        /* \"#utility.yul\":7235:7351   */\n      tag_442\n        /* \"#utility.yul\":7251:7350   */\n      tag_443\n        /* \"#utility.yul\":7343:7349   */\n      dup5\n        /* \"#utility.yul\":7251:7350   */\n      tag_319\n      jump\t// in\n    tag_443:\n        /* \"#utility.yul\":7235:7351   */\n      tag_318\n      jump\t// in\n    tag_442:\n        /* \"#utility.yul\":7226:7351   */\n      swap1\n      pop\n        /* \"#utility.yul\":7371:7376   */\n      dup1\n        /* \"#utility.yul\":7400:7406   */\n      dup4\n        /* \"#utility.yul\":7393:7398   */\n      dup3\n        /* \"#utility.yul\":7386:7407   */\n      mstore\n        /* \"#utility.yul\":7434:7438   */\n      0x20\n        /* \"#utility.yul\":7427:7432   */\n      dup3\n        /* \"#utility.yul\":7423:7439   */\n      add\n        /* \"#utility.yul\":7416:7439   */\n      swap1\n      pop\n        /* \"#utility.yul\":7487:7491   */\n      0x20\n        /* \"#utility.yul\":7479:7485   */\n      dup5\n        /* \"#utility.yul\":7475:7492   */\n      mul\n        /* \"#utility.yul\":7467:7473   */\n      dup4\n        /* \"#utility.yul\":7463:7493   */\n      add\n        /* \"#utility.yul\":7516:7519   */\n      dup6\n        /* \"#utility.yul\":7508:7514   */\n      dup2\n        /* \"#utility.yul\":7505:7520   */\n      gt\n        /* \"#utility.yul\":7502:7624   */\n      iszero\n      tag_444\n      jumpi\n        /* \"#utility.yul\":7535:7614   */\n      tag_445\n      tag_320\n      jump\t// in\n    tag_445:\n        /* \"#utility.yul\":7502:7624   */\n    tag_444:\n        /* \"#utility.yul\":7650:7656   */\n      dup4\n        /* \"#utility.yul\":7633:8093   */\n    tag_446:\n        /* \"#utility.yul\":7667:7673   */\n      dup2\n        /* \"#utility.yul\":7662:7665   */\n      dup2\n        /* \"#utility.yul\":7659:7674   */\n      lt\n        /* \"#utility.yul\":7633:8093   */\n      iszero\n      tag_448\n      jumpi\n        /* \"#utility.yul\":7756:7759   */\n      dup1\n        /* \"#utility.yul\":7743:7760   */\n      calldataload\n        /* \"#utility.yul\":7792:7810   */\n      0xffffffffffffffff\n        /* \"#utility.yul\":7779:7790   */\n      dup2\n        /* \"#utility.yul\":7776:7811   */\n      gt\n        /* \"#utility.yul\":7773:7895   */\n      iszero\n      tag_449\n      jumpi\n        /* \"#utility.yul\":7814:7893   */\n      tag_450\n      tag_315\n      jump\t// in\n    tag_450:\n        /* \"#utility.yul\":7773:7895   */\n    tag_449:\n        /* \"#utility.yul\":7938:7949   */\n      dup1\n        /* \"#utility.yul\":7930:7936   */\n      dup7\n        /* \"#utility.yul\":7926:7950   */\n      add\n        /* \"#utility.yul\":7976:8048   */\n      tag_451\n        /* \"#utility.yul\":8044:8047   */\n      dup10\n        /* \"#utility.yul\":8032:8042   */\n      dup3\n        /* \"#utility.yul\":7976:8048   */\n      tag_328\n      jump\t// in\n    tag_451:\n        /* \"#utility.yul\":7971:7974   */\n      dup6\n        /* \"#utility.yul\":7964:8049   */\n      mstore\n        /* \"#utility.yul\":8078:8082   */\n      0x20\n        /* \"#utility.yul\":8073:8076   */\n      dup6\n        /* \"#utility.yul\":8069:8083   */\n      add\n        /* \"#utility.yul\":8062:8083   */\n      swap5\n      pop\n        /* \"#utility.yul\":7709:8093   */\n      pop\n      pop\n        /* \"#utility.yul\":7693:7697   */\n      0x20\n        /* \"#utility.yul\":7688:7691   */\n      dup2\n        /* \"#utility.yul\":7684:7698   */\n      add\n        /* \"#utility.yul\":7677:7698   */\n      swap1\n      pop\n        /* \"#utility.yul\":7633:8093   */\n      jump(tag_446)\n    tag_448:\n        /* \"#utility.yul\":7637:7658   */\n      pop\n        /* \"#utility.yul\":7216:8099   */\n      pop\n      pop\n        /* \"#utility.yul\":7079:8099   */\n      swap4\n      swap3\n      pop\n      pop\n      pop\n      jump\t// out\n        /* \"#utility.yul\":8123:8563   */\n    tag_330:\n        /* \"#utility.yul\":8229:8234   */\n      0x00\n        /* \"#utility.yul\":8278:8281   */\n      dup3\n        /* \"#utility.yul\":8271:8275   */\n      0x1f\n        /* \"#utility.yul\":8263:8269   */\n      dup4\n        /* \"#utility.yul\":8259:8276   */\n      add\n        /* \"#utility.yul\":8255:8282   */\n      slt\n        /* \"#utility.yul\":8245:8367   */\n      tag_453\n      jumpi\n        /* \"#utility.yul\":8286:8365   */\n      tag_454\n      tag_315\n      jump\t// in\n    tag_454:\n        /* \"#utility.yul\":8245:8367   */\n    tag_453:\n        /* \"#utility.yul\":8403:8409   */\n      dup2\n        /* \"#utility.yul\":8390:8410   */\n      calldataload\n        /* \"#utility.yul\":8428:8557   */\n      tag_455\n        /* \"#utility.yul\":8553:8556   */\n      dup5\n        /* \"#utility.yul\":8545:8551   */\n      dup3\n        /* \"#utility.yul\":8538:8542   */\n      0x20\n        /* \"#utility.yul\":8530:8536   */\n      dup7\n        /* \"#utility.yul\":8526:8543   */\n      add\n        /* \"#utility.yul\":8428:8557   */\n      tag_329\n      jump\t// in\n    tag_455:\n        /* \"#utility.yul\":8419:8557   */\n      swap2\n      pop\n        /* \"#utility.yul\":8235:8563   */\n      pop\n        /* \"#utility.yul\":8123:8563   */\n      swap3\n      swap2\n      pop\n      pop\n      jump\t// out\n        /* \"#utility.yul\":8569:9603   */\n    tag_28:\n        /* \"#utility.yul\":8757:8763   */\n      0x00\n        /* \"#utility.yul\":8765:8771   */\n      dup1\n        /* \"#utility.yul\":8814:8816   */\n      0x40\n        /* \"#utility.yul\":8802:8811   */\n      dup4\n        /* \"#utility.yul\":8793:8800   */\n      dup6\n        /* \"#utility.yul\":8789:8812   */\n      sub\n        /* \"#utility.yul\":8785:8817   */\n      slt\n        /* \"#utility.yul\":8782:8901   */\n      iszero\n      tag_457\n      jumpi\n        /* \"#utility.yul\":8820:8899   */\n      tag_458\n      tag_305\n      jump\t// in\n    tag_458:\n        /* \"#utility.yul\":8782:8901   */\n    tag_457:\n        /* \"#utility.yul\":8968:8969   */\n      0x00\n        /* \"#utility.yul\":8957:8966   */\n      dup4\n        /* \"#utility.yul\":8953:8970   */\n      add\n        /* \"#utility.yul\":8940:8971   */\n      calldataload\n        /* \"#utility.yul\":8998:9016   */\n      0xffffffffffffffff\n        /* \"#utility.yul\":8990:8996   */\n      dup2\n        /* \"#utility.yul\":8987:9017   */\n      gt\n        /* \"#utility.yul\":8984:9101   */\n      iszero\n      tag_459\n      jumpi\n        /* \"#utility.yul\":9020:9099   */\n      tag_460\n      tag_306\n      jump\t// in\n    tag_460:\n        /* \"#utility.yul\":8984:9101   */\n    tag_459:\n        /* \"#utility.yul\":9125:9238   */\n      tag_461\n        /* \"#utility.yul\":9230:9237   */\n      dup6\n        /* \"#utility.yul\":9221:9227   */\n      dup3\n        /* \"#utility.yul\":9210:9219   */\n      dup7\n        /* \"#utility.yul\":9206:9228   */\n      add\n        /* \"#utility.yul\":9125:9238   */\n      tag_330\n      jump\t// in\n    tag_461:\n        /* \"#utility.yul\":9115:9238   */\n      swap3\n      pop\n        /* \"#utility.yul\":8911:9248   */\n      pop\n        /* \"#utility.yul\":9315:9317   */\n      0x20\n        /* \"#utility.yul\":9304:9313   */\n      dup4\n        /* \"#utility.yul\":9300:9318   */\n      add\n        /* \"#utility.yul\":9287:9319   */\n      calldataload\n        /* \"#utility.yul\":9346:9364   */\n      0xffffffffffffffff\n        /* \"#utility.yul\":9338:9344   */\n      dup2\n        /* \"#utility.yul\":9335:9365   */\n      gt\n        /* \"#utility.yul\":9332:9449   */\n      iszero\n      tag_462\n      jumpi\n        /* \"#utility.yul\":9368:9447   */\n      tag_463\n      tag_306\n      jump\t// in\n    tag_463:\n        /* \"#utility.yul\":9332:9449   */\n    tag_462:\n        /* \"#utility.yul\":9473:9586   */\n      tag_464\n        /* \"#utility.yul\":9578:9585   */\n      dup6\n        /* \"#utility.yul\":9569:9575   */\n      dup3\n        /* \"#utility.yul\":9558:9567   */\n      dup7\n        /* \"#utility.yul\":9554:9576   */\n      add\n        /* \"#utility.yul\":9473:9586   */\n      tag_330\n      jump\t// in\n    tag_464:\n        /* \"#utility.yul\":9463:9586   */\n      swap2\n      pop\n        /* \"#utility.yul\":9258:9596   */\n      pop\n        /* \"#utility.yul\":8569:9603   */\n      swap3\n      pop\n      swap3\n      swap1\n      pop\n      jump\t// out\n        /* \"#utility.yul\":9609:9747   */\n    tag_331:\n        /* \"#utility.yul\":9700:9706   */\n      0x00\n        /* \"#utility.yul\":9734:9739   */\n      dup2\n        /* \"#utility.yul\":9728:9740   */\n      mload\n        /* \"#utility.yul\":9718:9740   */\n      swap1\n      pop\n        /* \"#utility.yul\":9609:9747   */\n      swap2\n      swap1\n      pop\n      jump\t// out\n        /* \"#utility.yul\":9753:9961   */\n    tag_332:\n        /* \"#utility.yul\":9876:9887   */\n      0x00\n        /* \"#utility.yul\":9910:9916   */\n      dup3\n        /* \"#utility.yul\":9905:9908   */\n      dup3\n        /* \"#utility.yul\":9898:9917   */\n      mstore\n        /* \"#utility.yul\":9950:9954   */\n      0x20\n        /* \"#utility.yul\":9945:9948   */\n      dup3\n        /* \"#utility.yul\":9941:9955   */\n      add\n        /* \"#utility.yul\":9926:9955   */\n      swap1\n      pop\n        /* \"#utility.yul\":9753:9961   */\n      swap3\n      swap2\n      pop\n      pop\n      jump\t// out\n        /* \"#utility.yul\":9967:10123   */\n    tag_333:\n        /* \"#utility.yul\":10058:10062   */\n      0x00\n        /* \"#utility.yul\":10081:10084   */\n      dup2\n        /* \"#utility.yul\":10073:10084   */\n      swap1\n      pop\n        /* \"#utility.yul\":10111:10115   */\n      0x20\n        /* \"#utility.yul\":10106:10109   */\n      dup3\n        /* \"#utility.yul\":10102:10116   */\n      add\n        /* \"#utility.yul\":10094:10116   */\n      swap1\n      pop\n        /* \"#utility.yul\":9967:10123   */\n      swap2\n      swap1\n      pop\n      jump\t// out\n        /* \"#utility.yul\":10129:10288   */\n    tag_334:\n        /* \"#utility.yul\":10203:10214   */\n      0x00\n        /* \"#utility.yul\":10237:10243   */\n      dup3\n        /* \"#utility.yul\":10232:10235   */\n      dup3\n        /* \"#utility.yul\":10225:10244   */\n      mstore\n        /* \"#utility.yul\":10277:10281   */\n      0x20\n        /* \"#utility.yul\":10272:10275   */\n      dup3\n        /* \"#utility.yul\":10268:10282   */\n      add\n        /* \"#utility.yul\":10253:10282   */\n      swap1\n      pop\n        /* \"#utility.yul\":10129:10288   */\n      swap3\n      swap2\n      pop\n      pop\n      jump\t// out\n        /* \"#utility.yul\":10294:10651   */\n    tag_335:\n        /* \"#utility.yul\":10372:10375   */\n      0x00\n        /* \"#utility.yul\":10400:10439   */\n      tag_470\n        /* \"#utility.yul\":10433:10438   */\n      dup3\n        /* \"#utility.yul\":10400:10439   */\n      tag_310\n      jump\t// in\n    tag_470:\n        /* \"#utility.yul\":10455:10516   */\n      tag_471\n        /* \"#utility.yul\":10509:10515   */\n      dup2\n        /* \"#utility.yul\":10504:10507   */\n      dup6\n        /* \"#utility.yul\":10455:10516   */\n      tag_334\n      jump\t// in\n    tag_471:\n        /* \"#utility.yul\":10448:10516   */\n      swap4\n      pop\n        /* \"#utility.yul\":10525:10590   */\n      tag_472\n        /* \"#utility.yul\":10583:10589   */\n      dup2\n        /* \"#utility.yul\":10578:10581   */\n      dup6\n        /* \"#utility.yul\":10571:10575   */\n      0x20\n        /* \"#utility.yul\":10564:10569   */\n      dup7\n        /* \"#utility.yul\":10560:10576   */\n      add\n        /* \"#utility.yul\":10525:10590   */\n      tag_312\n      jump\t// in\n    tag_472:\n        /* \"#utility.yul\":10615:10644   */\n      tag_473\n        /* \"#utility.yul\":10637:10643   */\n      dup2\n        /* \"#utility.yul\":10615:10644   */\n      tag_313\n      jump\t// in\n    tag_473:\n        /* \"#utility.yul\":10610:10613   */\n      dup5\n        /* \"#utility.yul\":10606:10645   */\n      add\n        /* \"#utility.yul\":10599:10645   */\n      swap2\n      pop\n        /* \"#utility.yul\":10376:10651   */\n      pop\n        /* \"#utility.yul\":10294:10651   */\n      swap3\n      swap2\n      pop\n      pop\n      jump\t// out\n        /* \"#utility.yul\":10701:11632   */\n    tag_336:\n        /* \"#utility.yul\":10808:10811   */\n      0x00\n        /* \"#utility.yul\":10844:10848   */\n      0x60\n        /* \"#utility.yul\":10839:10842   */\n      dup4\n        /* \"#utility.yul\":10835:10849   */\n      add\n        /* \"#utility.yul\":10935:10939   */\n      0x00\n        /* \"#utility.yul\":10928:10933   */\n      dup4\n        /* \"#utility.yul\":10924:10940   */\n      add\n        /* \"#utility.yul\":10918:10941   */\n      mload\n        /* \"#utility.yul\":10988:10991   */\n      dup5\n        /* \"#utility.yul\":10982:10986   */\n      dup3\n        /* \"#utility.yul\":10978:10992   */\n      sub\n        /* \"#utility.yul\":10971:10975   */\n      0x00\n        /* \"#utility.yul\":10966:10969   */\n      dup7\n        /* \"#utility.yul\":10962:10976   */\n      add\n        /* \"#utility.yul\":10955:10993   */\n      mstore\n        /* \"#utility.yul\":11014:11087   */\n      tag_475\n        /* \"#utility.yul\":11082:11086   */\n      dup3\n        /* \"#utility.yul\":11068:11080   */\n      dup3\n        /* \"#utility.yul\":11014:11087   */\n      tag_335\n      jump\t// in\n    tag_475:\n        /* \"#utility.yul\":11006:11087   */\n      swap2\n      pop\n        /* \"#utility.yul\":10859:11098   */\n      pop\n        /* \"#utility.yul\":11190:11194   */\n      0x20\n        /* \"#utility.yul\":11183:11188   */\n      dup4\n        /* \"#utility.yul\":11179:11195   */\n      add\n        /* \"#utility.yul\":11173:11196   */\n      mload\n        /* \"#utility.yul\":11243:11246   */\n      dup5\n        /* \"#utility.yul\":11237:11241   */\n      dup3\n        /* \"#utility.yul\":11233:11247   */\n      sub\n        /* \"#utility.yul\":11226:11230   */\n      0x20\n        /* \"#utility.yul\":11221:11224   */\n      dup7\n        /* \"#utility.yul\":11217:11231   */\n      add\n        /* \"#utility.yul\":11210:11248   */\n      mstore\n        /* \"#utility.yul\":11269:11342   */\n      tag_476\n        /* \"#utility.yul\":11337:11341   */\n      dup3\n        /* \"#utility.yul\":11323:11335   */\n      dup3\n        /* \"#utility.yul\":11269:11342   */\n      tag_335\n      jump\t// in\n    tag_476:\n        /* \"#utility.yul\":11261:11342   */\n      swap2\n      pop\n        /* \"#utility.yul\":11108:11353   */\n      pop\n        /* \"#utility.yul\":11442:11446   */\n      0x40\n        /* \"#utility.yul\":11435:11440   */\n      dup4\n        /* \"#utility.yul\":11431:11447   */\n      add\n        /* \"#utility.yul\":11425:11448   */\n      mload\n        /* \"#utility.yul\":11495:11498   */\n      dup5\n        /* \"#utility.yul\":11489:11493   */\n      dup3\n        /* \"#utility.yul\":11485:11499   */\n      sub\n        /* \"#utility.yul\":11478:11482   */\n      0x40\n        /* \"#utility.yul\":11473:11476   */\n      dup7\n        /* \"#utility.yul\":11469:11483   */\n      add\n        /* \"#utility.yul\":11462:11500   */\n      mstore\n        /* \"#utility.yul\":11521:11594   */\n      tag_477\n        /* \"#utility.yul\":11589:11593   */\n      dup3\n        /* \"#utility.yul\":11575:11587   */\n      dup3\n        /* \"#utility.yul\":11521:11594   */\n      tag_335\n      jump\t// in\n    tag_477:\n        /* \"#utility.yul\":11513:11594   */\n      swap2\n      pop\n        /* \"#utility.yul\":11363:11605   */\n      pop\n        /* \"#utility.yul\":11622:11626   */\n      dup1\n        /* \"#utility.yul\":11615:11626   */\n      swap2\n      pop\n        /* \"#utility.yul\":10813:11632   */\n      pop\n        /* \"#utility.yul\":10701:11632   */\n      swap3\n      swap2\n      pop\n      pop\n      jump\t// out\n        /* \"#utility.yul\":11638:11890   */\n    tag_337:\n        /* \"#utility.yul\":11755:11765   */\n      0x00\n        /* \"#utility.yul\":11790:11884   */\n      tag_479\n        /* \"#utility.yul\":11880:11883   */\n      dup4\n        /* \"#utility.yul\":11872:11878   */\n      dup4\n        /* \"#utility.yul\":11790:11884   */\n      tag_336\n      jump\t// in\n    tag_479:\n        /* \"#utility.yul\":11776:11884   */\n      swap1\n      pop\n        /* \"#utility.yul\":11638:11890   */\n      swap3\n      swap2\n      pop\n      pop\n      jump\t// out\n        /* \"#utility.yul\":11896:12033   */\n    tag_338:\n        /* \"#utility.yul\":11990:11994   */\n      0x00\n        /* \"#utility.yul\":12022:12026   */\n      0x20\n        /* \"#utility.yul\":12017:12020   */\n      dup3\n        /* \"#utility.yul\":12013:12027   */\n      add\n        /* \"#utility.yul\":12005:12027   */\n      swap1\n      pop\n        /* \"#utility.yul\":11896:12033   */\n      swap2\n      swap1\n      pop\n      jump\t// out\n        /* \"#utility.yul\":12087:13190   */\n    tag_339:\n        /* \"#utility.yul\":12254:12257   */\n      0x00\n        /* \"#utility.yul\":12283:12361   */\n      tag_482\n        /* \"#utility.yul\":12355:12360   */\n      dup3\n        /* \"#utility.yul\":12283:12361   */\n      tag_331\n      jump\t// in\n    tag_482:\n        /* \"#utility.yul\":12377:12487   */\n      tag_483\n        /* \"#utility.yul\":12480:12486   */\n      dup2\n        /* \"#utility.yul\":12475:12478   */\n      dup6\n        /* \"#utility.yul\":12377:12487   */\n      tag_332\n      jump\t// in\n    tag_483:\n        /* \"#utility.yul\":12370:12487   */\n      swap4\n      pop\n        /* \"#utility.yul\":12513:12516   */\n      dup4\n        /* \"#utility.yul\":12558:12562   */\n      0x20\n        /* \"#utility.yul\":12550:12556   */\n      dup3\n        /* \"#utility.yul\":12546:12563   */\n      mul\n        /* \"#utility.yul\":12541:12544   */\n      dup6\n        /* \"#utility.yul\":12537:12564   */\n      add\n        /* \"#utility.yul\":12588:12668   */\n      tag_484\n        /* \"#utility.yul\":12662:12667   */\n      dup6\n        /* \"#utility.yul\":12588:12668   */\n      tag_333\n      jump\t// in\n    tag_484:\n        /* \"#utility.yul\":12691:12698   */\n      dup1\n        /* \"#utility.yul\":12722:12723   */\n      0x00\n        /* \"#utility.yul\":12707:13145   */\n    tag_485:\n        /* \"#utility.yul\":12732:12738   */\n      dup6\n        /* \"#utility.yul\":12729:12730   */\n      dup2\n        /* \"#utility.yul\":12726:12739   */\n      lt\n        /* \"#utility.yul\":12707:13145   */\n      iszero\n      tag_487\n      jumpi\n        /* \"#utility.yul\":12803:12812   */\n      dup5\n        /* \"#utility.yul\":12797:12801   */\n      dup5\n        /* \"#utility.yul\":12793:12813   */\n      sub\n        /* \"#utility.yul\":12788:12791   */\n      dup10\n        /* \"#utility.yul\":12781:12814   */\n      mstore\n        /* \"#utility.yul\":12854:12860   */\n      dup2\n        /* \"#utility.yul\":12848:12861   */\n      mload\n        /* \"#utility.yul\":12882:12994   */\n      tag_488\n        /* \"#utility.yul\":12989:12993   */\n      dup6\n        /* \"#utility.yul\":12974:12987   */\n      dup3\n        /* \"#utility.yul\":12882:12994   */\n      tag_337\n      jump\t// in\n    tag_488:\n        /* \"#utility.yul\":12874:12994   */\n      swap5\n      pop\n        /* \"#utility.yul\":13017:13101   */\n      tag_489\n        /* \"#utility.yul\":13094:13100   */\n      dup4\n        /* \"#utility.yul\":13017:13101   */\n      tag_338\n      jump\t// in\n    tag_489:\n        /* \"#utility.yul\":13007:13101   */\n      swap3\n      pop\n        /* \"#utility.yul\":13130:13134   */\n      0x20\n        /* \"#utility.yul\":13125:13128   */\n      dup11\n        /* \"#utility.yul\":13121:13135   */\n      add\n        /* \"#utility.yul\":13114:13135   */\n      swap10\n      pop\n        /* \"#utility.yul\":12767:13145   */\n      pop\n        /* \"#utility.yul\":12754:12755   */\n      0x01\n        /* \"#utility.yul\":12751:12752   */\n      dup2\n        /* \"#utility.yul\":12747:12756   */\n      add\n        /* \"#utility.yul\":12742:12756   */\n      swap1\n      pop\n        /* \"#utility.yul\":12707:13145   */\n      jump(tag_485)\n    tag_487:\n        /* \"#utility.yul\":12711:12725   */\n      pop\n        /* \"#utility.yul\":13161:13165   */\n      dup3\n        /* \"#utility.yul\":13154:13165   */\n      swap8\n      pop\n        /* \"#utility.yul\":13181:13184   */\n      dup8\n        /* \"#utility.yul\":13174:13184   */\n      swap6\n      pop\n        /* \"#utility.yul\":12259:13190   */\n      pop\n      pop\n      pop\n      pop\n      pop\n        /* \"#utility.yul\":12087:13190   */\n      swap3\n      swap2\n      pop\n      pop\n      jump\t// out\n        /* \"#utility.yul\":13196:13339   */\n    tag_340:\n        /* \"#utility.yul\":13292:13298   */\n      0x00\n        /* \"#utility.yul\":13326:13331   */\n      dup2\n        /* \"#utility.yul\":13320:13332   */\n      mload\n        /* \"#utility.yul\":13310:13332   */\n      swap1\n      pop\n        /* \"#utility.yul\":13196:13339   */\n      swap2\n      swap1\n      pop\n      jump\t// out\n        /* \"#utility.yul\":13345:13558   */\n    tag_341:\n        /* \"#utility.yul\":13473:13484   */\n      0x00\n        /* \"#utility.yul\":13507:13513   */\n      dup3\n        /* \"#utility.yul\":13502:13505   */\n      dup3\n        /* \"#utility.yul\":13495:13514   */\n      mstore\n        /* \"#utility.yul\":13547:13551   */\n      0x20\n        /* \"#utility.yul\":13542:13545   */\n      dup3\n        /* \"#utility.yul\":13538:13552   */\n      add\n        /* \"#utility.yul\":13523:13552   */\n      swap1\n      pop\n        /* \"#utility.yul\":13345:13558   */\n      swap3\n      swap2\n      pop\n      pop\n      jump\t// out\n        /* \"#utility.yul\":13564:13725   */\n    tag_342:\n        /* \"#utility.yul\":13660:13664   */\n      0x00\n        /* \"#utility.yul\":13683:13686   */\n      dup2\n        /* \"#utility.yul\":13675:13686   */\n      swap1\n      pop\n        /* \"#utility.yul\":13713:13717   */\n      0x20\n        /* \"#utility.yul\":13708:13711   */\n      dup3\n        /* \"#utility.yul\":13704:13718   */\n      add\n        /* \"#utility.yul\":13696:13718   */\n      swap1\n      pop\n        /* \"#utility.yul\":13564:13725   */\n      swap2\n      swap1\n      pop\n      jump\t// out\n        /* \"#utility.yul\":13783:14736   */\n    tag_343:\n        /* \"#utility.yul\":13900:13903   */\n      0x00\n        /* \"#utility.yul\":13936:13940   */\n      0x60\n        /* \"#utility.yul\":13931:13934   */\n      dup4\n        /* \"#utility.yul\":13927:13941   */\n      add\n        /* \"#utility.yul\":14031:14035   */\n      0x00\n        /* \"#utility.yul\":14024:14029   */\n      dup4\n        /* \"#utility.yul\":14020:14036   */\n      add\n        /* \"#utility.yul\":14014:14037   */\n      mload\n        /* \"#utility.yul\":14084:14087   */\n      dup5\n        /* \"#utility.yul\":14078:14082   */\n      dup3\n        /* \"#utility.yul\":14074:14088   */\n      sub\n        /* \"#utility.yul\":14067:14071   */\n      0x00\n        /* \"#utility.yul\":14062:14065   */\n      dup7\n        /* \"#utility.yul\":14058:14072   */\n      add\n        /* \"#utility.yul\":14051:14089   */\n      mstore\n        /* \"#utility.yul\":14110:14183   */\n      tag_494\n        /* \"#utility.yul\":14178:14182   */\n      dup3\n        /* \"#utility.yul\":14164:14176   */\n      dup3\n        /* \"#utility.yul\":14110:14183   */\n      tag_335\n      jump\t// in\n    tag_494:\n        /* \"#utility.yul\":14102:14183   */\n      swap2\n      pop\n        /* \"#utility.yul\":13951:14194   */\n      pop\n        /* \"#utility.yul\":14290:14294   */\n      0x20\n        /* \"#utility.yul\":14283:14288   */\n      dup4\n        /* \"#utility.yul\":14279:14295   */\n      add\n        /* \"#utility.yul\":14273:14296   */\n      mload\n        /* \"#utility.yul\":14343:14346   */\n      dup5\n        /* \"#utility.yul\":14337:14341   */\n      dup3\n        /* \"#utility.yul\":14333:14347   */\n      sub\n        /* \"#utility.yul\":14326:14330   */\n      0x20\n        /* \"#utility.yul\":14321:14324   */\n      dup7\n        /* \"#utility.yul\":14317:14331   */\n      add\n        /* \"#utility.yul\":14310:14348   */\n      mstore\n        /* \"#utility.yul\":14369:14442   */\n      tag_495\n        /* \"#utility.yul\":14437:14441   */\n      dup3\n        /* \"#utility.yul\":14423:14435   */\n      dup3\n        /* \"#utility.yul\":14369:14442   */\n      tag_335\n      jump\t// in\n    tag_495:\n        /* \"#utility.yul\":14361:14442   */\n      swap2\n      pop\n        /* \"#utility.yul\":14204:14453   */\n      pop\n        /* \"#utility.yul\":14546:14550   */\n      0x40\n        /* \"#utility.yul\":14539:14544   */\n      dup4\n        /* \"#utility.yul\":14535:14551   */\n      add\n        /* \"#utility.yul\":14529:14552   */\n      mload\n        /* \"#utility.yul\":14599:14602   */\n      dup5\n        /* \"#utility.yul\":14593:14597   */\n      dup3\n        /* \"#utility.yul\":14589:14603   */\n      sub\n        /* \"#utility.yul\":14582:14586   */\n      0x40\n        /* \"#utility.yul\":14577:14580   */\n      dup7\n        /* \"#utility.yul\":14573:14587   */\n      add\n        /* \"#utility.yul\":14566:14604   */\n      mstore\n        /* \"#utility.yul\":14625:14698   */\n      tag_496\n        /* \"#utility.yul\":14693:14697   */\n      dup3\n        /* \"#utility.yul\":14679:14691   */\n      dup3\n        /* \"#utility.yul\":14625:14698   */\n      tag_335\n      jump\t// in\n    tag_496:\n        /* \"#utility.yul\":14617:14698   */\n      swap2\n      pop\n        /* \"#utility.yul\":14463:14709   */\n      pop\n        /* \"#utility.yul\":14726:14730   */\n      dup1\n        /* \"#utility.yul\":14719:14730   */\n      swap2\n      pop\n        /* \"#utility.yul\":13905:14736   */\n      pop\n        /* \"#utility.yul\":13783:14736   */\n      swap3\n      swap2\n      pop\n      pop\n      jump\t// out\n        /* \"#utility.yul\":14742:15014   */\n    tag_344:\n        /* \"#utility.yul\":14869:14879   */\n      0x00\n        /* \"#utility.yul\":14904:15008   */\n      tag_498\n        /* \"#utility.yul\":15004:15007   */\n      dup4\n        /* \"#utility.yul\":14996:15002   */\n      dup4\n        /* \"#utility.yul\":14904:15008   */\n      tag_343\n      jump\t// in\n    tag_498:\n        /* \"#utility.yul\":14890:15008   */\n      swap1\n      pop\n        /* \"#utility.yul\":14742:15014   */\n      swap3\n      swap2\n      pop\n      pop\n      jump\t// out\n        /* \"#utility.yul\":15020:15162   */\n    tag_345:\n        /* \"#utility.yul\":15119:15123   */\n      0x00\n        /* \"#utility.yul\":15151:15155   */\n      0x20\n        /* \"#utility.yul\":15146:15149   */\n      dup3\n        /* \"#utility.yul\":15142:15156   */\n      add\n        /* \"#utility.yul\":15134:15156   */\n      swap1\n      pop\n        /* \"#utility.yul\":15020:15162   */\n      swap2\n      swap1\n      pop\n      jump\t// out\n        /* \"#utility.yul\":15224:16367   */\n    tag_346:\n        /* \"#utility.yul\":15401:15404   */\n      0x00\n        /* \"#utility.yul\":15430:15513   */\n      tag_501\n        /* \"#utility.yul\":15507:15512   */\n      dup3\n        /* \"#utility.yul\":15430:15513   */\n      tag_340\n      jump\t// in\n    tag_501:\n        /* \"#utility.yul\":15529:15644   */\n      tag_502\n        /* \"#utility.yul\":15637:15643   */\n      dup2\n        /* \"#utility.yul\":15632:15635   */\n      dup6\n        /* \"#utility.yul\":15529:15644   */\n      tag_341\n      jump\t// in\n    tag_502:\n        /* \"#utility.yul\":15522:15644   */\n      swap4\n      pop\n        /* \"#utility.yul\":15670:15673   */\n      dup4\n        /* \"#utility.yul\":15715:15719   */\n      0x20\n        /* \"#utility.yul\":15707:15713   */\n      dup3\n        /* \"#utility.yul\":15703:15720   */\n      mul\n        /* \"#utility.yul\":15698:15701   */\n      dup6\n        /* \"#utility.yul\":15694:15721   */\n      add\n        /* \"#utility.yul\":15745:15830   */\n      tag_503\n        /* \"#utility.yul\":15824:15829   */\n      dup6\n        /* \"#utility.yul\":15745:15830   */\n      tag_342\n      jump\t// in\n    tag_503:\n        /* \"#utility.yul\":15853:15860   */\n      dup1\n        /* \"#utility.yul\":15884:15885   */\n      0x00\n        /* \"#utility.yul\":15869:16322   */\n    tag_504:\n        /* \"#utility.yul\":15894:15900   */\n      dup6\n        /* \"#utility.yul\":15891:15892   */\n      dup2\n        /* \"#utility.yul\":15888:15901   */\n      lt\n        /* \"#utility.yul\":15869:16322   */\n      iszero\n      tag_506\n      jumpi\n        /* \"#utility.yul\":15965:15974   */\n      dup5\n        /* \"#utility.yul\":15959:15963   */\n      dup5\n        /* \"#utility.yul\":15955:15975   */\n      sub\n        /* \"#utility.yul\":15950:15953   */\n      dup10\n        /* \"#utility.yul\":15943:15976   */\n      mstore\n        /* \"#utility.yul\":16016:16022   */\n      dup2\n        /* \"#utility.yul\":16010:16023   */\n      mload\n        /* \"#utility.yul\":16044:16166   */\n      tag_507\n        /* \"#utility.yul\":16161:16165   */\n      dup6\n        /* \"#utility.yul\":16146:16159   */\n      dup3\n        /* \"#utility.yul\":16044:16166   */\n      tag_344\n      jump\t// in\n    tag_507:\n        /* \"#utility.yul\":16036:16166   */\n      swap5\n      pop\n        /* \"#utility.yul\":16189:16278   */\n      tag_508\n        /* \"#utility.yul\":16271:16277   */\n      dup4\n        /* \"#utility.yul\":16189:16278   */\n      tag_345\n      jump\t// in\n    tag_508:\n        /* \"#utility.yul\":16179:16278   */\n      swap3\n      pop\n        /* \"#utility.yul\":16307:16311   */\n      0x20\n        /* \"#utility.yul\":16302:16305   */\n      dup11\n        /* \"#utility.yul\":16298:16312   */\n      add\n        /* \"#utility.yul\":16291:16312   */\n      swap10\n      pop\n        /* \"#utility.yul\":15929:16322   */\n      pop\n        /* \"#utility.yul\":15916:15917   */\n      0x01\n        /* \"#utility.yul\":15913:15914   */\n      dup2\n        /* \"#utility.yul\":15909:15918   */\n      add\n        /* \"#utility.yul\":15904:15918   */\n      swap1\n      pop\n        /* \"#utility.yul\":15869:16322   */\n      jump(tag_504)\n    tag_506:\n        /* \"#utility.yul\":15873:15887   */\n      pop\n        /* \"#utility.yul\":16338:16342   */\n      dup3\n        /* \"#utility.yul\":16331:16342   */\n      swap8\n      pop\n        /* \"#utility.yul\":16358:16361   */\n      dup8\n        /* \"#utility.yul\":16351:16361   */\n      swap6\n      pop\n        /* \"#utility.yul\":15406:16367   */\n      pop\n      pop\n      pop\n      pop\n      pop\n        /* \"#utility.yul\":15224:16367   */\n      swap3\n      swap2\n      pop\n      pop\n      jump\t// out\n        /* \"#utility.yul\":16373:17219   */\n    tag_33:\n        /* \"#utility.yul\":16700:16704   */\n      0x00\n        /* \"#utility.yul\":16738:16740   */\n      0x40\n        /* \"#utility.yul\":16727:16736   */\n      dup3\n        /* \"#utility.yul\":16723:16741   */\n      add\n        /* \"#utility.yul\":16715:16741   */\n      swap1\n      pop\n        /* \"#utility.yul\":16787:16796   */\n      dup2\n        /* \"#utility.yul\":16781:16785   */\n      dup2\n        /* \"#utility.yul\":16777:16797   */\n      sub\n        /* \"#utility.yul\":16773:16774   */\n      0x00\n        /* \"#utility.yul\":16762:16771   */\n      dup4\n        /* \"#utility.yul\":16758:16775   */\n      add\n        /* \"#utility.yul\":16751:16798   */\n      mstore\n        /* \"#utility.yul\":16815:16971   */\n      tag_510\n        /* \"#utility.yul\":16966:16970   */\n      dup2\n        /* \"#utility.yul\":16957:16963   */\n      dup6\n        /* \"#utility.yul\":16815:16971   */\n      tag_339\n      jump\t// in\n    tag_510:\n        /* \"#utility.yul\":16807:16971   */\n      swap1\n      pop\n        /* \"#utility.yul\":17018:17027   */\n      dup2\n        /* \"#utility.yul\":17012:17016   */\n      dup2\n        /* \"#utility.yul\":17008:17028   */\n      sub\n        /* \"#utility.yul\":17003:17005   */\n      0x20\n        /* \"#utility.yul\":16992:17001   */\n      dup4\n        /* \"#utility.yul\":16988:17006   */\n      add\n        /* \"#utility.yul\":16981:17029   */\n      mstore\n        /* \"#utility.yul\":17046:17212   */\n      tag_511\n        /* \"#utility.yul\":17207:17211   */\n      dup2\n        /* \"#utility.yul\":17198:17204   */\n      dup5\n        /* \"#utility.yul\":17046:17212   */\n      tag_346\n      jump\t// in\n    tag_511:\n        /* \"#utility.yul\":17038:17212   */\n      swap1\n      pop\n        /* \"#utility.yul\":16373:17219   */\n      swap4\n      swap3\n      pop\n      pop\n      pop\n      jump\t// out\n        /* \"#utility.yul\":17225:18584   */\n    tag_36:\n        /* \"#utility.yul\":17432:17438   */\n      0x00\n        /* \"#utility.yul\":17440:17446   */\n      dup1\n        /* \"#utility.yul\":17448:17454   */\n      0x00\n        /* \"#utility.yul\":17497:17499   */\n      0x60\n        /* \"#utility.yul\":17485:17494   */\n      dup5\n        /* \"#utility.yul\":17476:17483   */\n      dup7\n        /* \"#utility.yul\":17472:17495   */\n      sub\n        /* \"#utility.yul\":17468:17500   */\n      slt\n        /* \"#utility.yul\":17465:17584   */\n      iszero\n      tag_513\n      jumpi\n        /* \"#utility.yul\":17503:17582   */\n      tag_514\n      tag_305\n      jump\t// in\n    tag_514:\n        /* \"#utility.yul\":17465:17584   */\n    tag_513:\n        /* \"#utility.yul\":17651:17652   */\n      0x00\n        /* \"#utility.yul\":17640:17649   */\n      dup5\n        /* \"#utility.yul\":17636:17653   */\n      add\n        /* \"#utility.yul\":17623:17654   */\n      calldataload\n        /* \"#utility.yul\":17681:17699   */\n      0xffffffffffffffff\n        /* \"#utility.yul\":17673:17679   */\n      dup2\n        /* \"#utility.yul\":17670:17700   */\n      gt\n        /* \"#utility.yul\":17667:17784   */\n      iszero\n      tag_515\n      jumpi\n        /* \"#utility.yul\":17703:17782   */\n      tag_516\n      tag_306\n      jump\t// in\n    tag_516:\n        /* \"#utility.yul\":17667:17784   */\n    tag_515:\n        /* \"#utility.yul\":17808:17871   */\n      tag_517\n        /* \"#utility.yul\":17863:17870   */\n      dup7\n        /* \"#utility.yul\":17854:17860   */\n      dup3\n        /* \"#utility.yul\":17843:17852   */\n      dup8\n        /* \"#utility.yul\":17839:17861   */\n      add\n        /* \"#utility.yul\":17808:17871   */\n      tag_326\n      jump\t// in\n    tag_517:\n        /* \"#utility.yul\":17798:17871   */\n      swap4\n      pop\n        /* \"#utility.yul\":17594:17881   */\n      pop\n        /* \"#utility.yul\":17948:17950   */\n      0x20\n        /* \"#utility.yul\":17937:17946   */\n      dup5\n        /* \"#utility.yul\":17933:17951   */\n      add\n        /* \"#utility.yul\":17920:17952   */\n      calldataload\n        /* \"#utility.yul\":17979:17997   */\n      0xffffffffffffffff\n        /* \"#utility.yul\":17971:17977   */\n      dup2\n        /* \"#utility.yul\":17968:17998   */\n      gt\n        /* \"#utility.yul\":17965:18082   */\n      iszero\n      tag_518\n      jumpi\n        /* \"#utility.yul\":18001:18080   */\n      tag_519\n      tag_306\n      jump\t// in\n    tag_519:\n        /* \"#utility.yul\":17965:18082   */\n    tag_518:\n        /* \"#utility.yul\":18106:18219   */\n      tag_520\n        /* \"#utility.yul\":18211:18218   */\n      dup7\n        /* \"#utility.yul\":18202:18208   */\n      dup3\n        /* \"#utility.yul\":18191:18200   */\n      dup8\n        /* \"#utility.yul\":18187:18209   */\n      add\n        /* \"#utility.yul\":18106:18219   */\n      tag_330\n      jump\t// in\n    tag_520:\n        /* \"#utility.yul\":18096:18219   */\n      swap3\n      pop\n        /* \"#utility.yul\":17891:18229   */\n      pop\n        /* \"#utility.yul\":18296:18298   */\n      0x40\n        /* \"#utility.yul\":18285:18294   */\n      dup5\n        /* \"#utility.yul\":18281:18299   */\n      add\n        /* \"#utility.yul\":18268:18300   */\n      calldataload\n        /* \"#utility.yul\":18327:18345   */\n      0xffffffffffffffff\n        /* \"#utility.yul\":18319:18325   */\n      dup2\n        /* \"#utility.yul\":18316:18346   */\n      gt\n        /* \"#utility.yul\":18313:18430   */\n      iszero\n      tag_521\n      jumpi\n        /* \"#utility.yul\":18349:18428   */\n      tag_522\n      tag_306\n      jump\t// in\n    tag_522:\n        /* \"#utility.yul\":18313:18430   */\n    tag_521:\n        /* \"#utility.yul\":18454:18567   */\n      tag_523\n        /* \"#utility.yul\":18559:18566   */\n      dup7\n        /* \"#utility.yul\":18550:18556   */\n      dup3\n        /* \"#utility.yul\":18539:18548   */\n      dup8\n        /* \"#utility.yul\":18535:18557   */\n      add\n        /* \"#utility.yul\":18454:18567   */\n      tag_330\n      jump\t// in\n    tag_523:\n        /* \"#utility.yul\":18444:18567   */\n      swap2\n      pop\n        /* \"#utility.yul\":18239:18577   */\n      pop\n        /* \"#utility.yul\":17225:18584   */\n      swap3\n      pop\n      swap3\n      pop\n      swap3\n      jump\t// out\n        /* \"#utility.yul\":18590:18770   */\n    tag_347:\n        /* \"#utility.yul\":18638:18715   */\n      0x4e487b7100000000000000000000000000000000000000000000000000000000\n        /* \"#utility.yul\":18635:18636   */\n      0x00\n        /* \"#utility.yul\":18628:18716   */\n      mstore\n        /* \"#utility.yul\":18735:18739   */\n      0x22\n        /* \"#utility.yul\":18732:18733   */\n      0x04\n        /* \"#utility.yul\":18725:18740   */\n      mstore\n        /* \"#utility.yul\":18759:18763   */\n      0x24\n        /* \"#utility.yul\":18756:18757   */\n      0x00\n        /* \"#utility.yul\":18749:18764   */\n      revert\n        /* \"#utility.yul\":18776:19096   */\n    tag_48:\n        /* \"#utility.yul\":18820:18826   */\n      0x00\n        /* \"#utility.yul\":18857:18858   */\n      0x02\n        /* \"#utility.yul\":18851:18855   */\n      dup3\n        /* \"#utility.yul\":18847:18859   */\n      div\n        /* \"#utility.yul\":18837:18859   */\n      swap1\n      pop\n        /* \"#utility.yul\":18904:18905   */\n      0x01\n        /* \"#utility.yul\":18898:18902   */\n      dup3\n        /* \"#utility.yul\":18894:18906   */\n      and\n        /* \"#utility.yul\":18925:18943   */\n      dup1\n        /* \"#utility.yul\":18915:18996   */\n      tag_526\n      jumpi\n        /* \"#utility.yul\":18981:18985   */\n      0x7f\n        /* \"#utility.yul\":18973:18979   */\n      dup3\n        /* \"#utility.yul\":18969:18986   */\n      and\n        /* \"#utility.yul\":18959:18986   */\n      swap2\n      pop\n        /* \"#utility.yul\":18915:18996   */\n    tag_526:\n        /* \"#utility.yul\":19043:19045   */\n      0x20\n        /* \"#utility.yul\":19035:19041   */\n      dup3\n        /* \"#utility.yul\":19032:19046   */\n      lt\n        /* \"#utility.yul\":19012:19030   */\n      dup2\n        /* \"#utility.yul\":19009:19047   */\n      sub\n        /* \"#utility.yul\":19006:19090   */\n      tag_527\n      jumpi\n        /* \"#utility.yul\":19062:19080   */\n      tag_528\n      tag_347\n      jump\t// in\n    tag_528:\n        /* \"#utility.yul\":19006:19090   */\n    tag_527:\n        /* \"#utility.yul\":18827:19096   */\n      pop\n        /* \"#utility.yul\":18776:19096   */\n      swap2\n      swap1\n      pop\n      jump\t// out\n        /* \"#utility.yul\":19102:19282   */\n    tag_105:\n        /* \"#utility.yul\":19150:19227   */\n      0x4e487b7100000000000000000000000000000000000000000000000000000000\n        /* \"#utility.yul\":19147:19148   */\n      0x00\n        /* \"#utility.yul\":19140:19228   */\n      mstore\n        /* \"#utility.yul\":19247:19251   */\n      0x32\n        /* \"#utility.yul\":19244:19245   */\n      0x04\n        /* \"#utility.yul\":19237:19252   */\n      mstore\n        /* \"#utility.yul\":19271:19275   */\n      0x24\n        /* \"#utility.yul\":19268:19269   */\n      0x00\n        /* \"#utility.yul\":19261:19276   */\n      revert\n        /* \"#utility.yul\":19288:19429   */\n    tag_348:\n        /* \"#utility.yul\":19337:19341   */\n      0x00\n        /* \"#utility.yul\":19360:19363   */\n      dup2\n        /* \"#utility.yul\":19352:19363   */\n      swap1\n      pop\n        /* \"#utility.yul\":19383:19386   */\n      dup2\n        /* \"#utility.yul\":19380:19381   */\n      0x00\n        /* \"#utility.yul\":19373:19387   */\n      mstore\n        /* \"#utility.yul\":19417:19421   */\n      0x20\n        /* \"#utility.yul\":19414:19415   */\n      0x00\n        /* \"#utility.yul\":19404:19422   */\n      keccak256\n        /* \"#utility.yul\":19396:19422   */\n      swap1\n      pop\n        /* \"#utility.yul\":19288:19429   */\n      swap2\n      swap1\n      pop\n      jump\t// out\n        /* \"#utility.yul\":19435:19528   */\n    tag_349:\n        /* \"#utility.yul\":19472:19478   */\n      0x00\n        /* \"#utility.yul\":19519:19521   */\n      0x20\n        /* \"#utility.yul\":19514:19516   */\n      0x1f\n        /* \"#utility.yul\":19507:19512   */\n      dup4\n        /* \"#utility.yul\":19503:19517   */\n      add\n        /* \"#utility.yul\":19499:19522   */\n      div\n        /* \"#utility.yul\":19489:19522   */\n      swap1\n      pop\n        /* \"#utility.yul\":19435:19528   */\n      swap2\n      swap1\n      pop\n      jump\t// out\n        /* \"#utility.yul\":19534:19641   */\n    tag_350:\n        /* \"#utility.yul\":19578:19586   */\n      0x00\n        /* \"#utility.yul\":19628:19633   */\n      dup3\n        /* \"#utility.yul\":19622:19626   */\n      dup3\n        /* \"#utility.yul\":19618:19634   */\n      shl\n        /* \"#utility.yul\":19597:19634   */\n      swap1\n      pop\n        /* \"#utility.yul\":19534:19641   */\n      swap3\n      swap2\n      pop\n      pop\n      jump\t// out\n        /* \"#utility.yul\":19647:20040   */\n    tag_351:\n        /* \"#utility.yul\":19716:19722   */\n      0x00\n        /* \"#utility.yul\":19766:19767   */\n      0x08\n        /* \"#utility.yul\":19754:19764   */\n      dup4\n        /* \"#utility.yul\":19750:19768   */\n      mul\n        /* \"#utility.yul\":19789:19886   */\n      tag_534\n        /* \"#utility.yul\":19819:19885   */\n      0xffffffffffffffffffffffffffffffffffffffffffffffffffffffffffffffff\n        /* \"#utility.yul\":19808:19817   */\n      dup3\n        /* \"#utility.yul\":19789:19886   */\n      tag_350\n      jump\t// in\n    tag_534:\n        /* \"#utility.yul\":19907:19946   */\n      tag_535\n        /* \"#utility.yul\":19937:19945   */\n      dup7\n        /* \"#utility.yul\":19926:19935   */\n      dup4\n        /* \"#utility.yul\":19907:19946   */\n      tag_350\n      jump\t// in\n    tag_535:\n        /* \"#utility.yul\":19895:19946   */\n      swap6\n      pop\n        /* \"#utility.yul\":19979:19983   */\n      dup1\n        /* \"#utility.yul\":19975:19984   */\n      not\n        /* \"#utility.yul\":19968:19973   */\n      dup5\n        /* \"#utility.yul\":19964:19985   */\n      and\n        /* \"#utility.yul\":19955:19985   */\n      swap4\n      pop\n        /* \"#utility.yul\":20028:20032   */\n      dup1\n        /* \"#utility.yul\":20018:20026   */\n      dup7\n        /* \"#utility.yul\":20014:20033   */\n      and\n        /* \"#utility.yul\":20007:20012   */\n      dup5\n        /* \"#utility.yul\":20004:20034   */\n      or\n        /* \"#utility.yul\":19994:20034   */\n      swap3\n      pop\n        /* \"#utility.yul\":19723:20040   */\n      pop\n      pop\n        /* \"#utility.yul\":19647:20040   */\n      swap4\n      swap3\n      pop\n      pop\n      pop\n      jump\t// out\n        /* \"#utility.yul\":20046:20106   */\n    tag_352:\n        /* \"#utility.yul\":20074:20077   */\n      0x00\n        /* \"#utility.yul\":20095:20100   */\n      dup2\n        /* \"#utility.yul\":20088:20100   */\n      swap1\n      pop\n        /* \"#utility.yul\":20046:20106   */\n      swap2\n      swap1\n      pop\n      jump\t// out\n        /* \"#utility.yul\":20112:20254   */\n    tag_353:\n        /* \"#utility.yul\":20162:20171   */\n      0x00\n        /* \"#utility.yul\":20195:20248   */\n      tag_538\n        /* \"#utility.yul\":20213:20247   */\n      tag_539\n        /* \"#utility.yul\":20222:20246   */\n      tag_540\n        /* \"#utility.yul\":20240:20245   */\n      dup5\n        /* \"#utility.yul\":20222:20246   */\n      tag_307\n      jump\t// in\n    tag_540:\n        /* \"#utility.yul\":20213:20247   */\n      tag_352\n      jump\t// in\n    tag_539:\n        /* \"#utility.yul\":20195:20248   */\n      tag_307\n      jump\t// in\n    tag_538:\n        /* \"#utility.yul\":20182:20248   */\n      swap1\n      pop\n        /* \"#utility.yul\":20112:20254   */\n      swap2\n      swap1\n      pop\n      jump\t// out\n        /* \"#utility.yul\":20260:20335   */\n    tag_354:\n        /* \"#utility.yul\":20303:20306   */\n      0x00\n        /* \"#utility.yul\":20324:20329   */\n      dup2\n        /* \"#utility.yul\":20317:20329   */\n      swap1\n      pop\n        /* \"#utility.yul\":20260:20335   */\n      swap2\n      swap1\n      pop\n      jump\t// out\n        /* \"#utility.yul\":20341:20610   */\n    tag_355:\n        /* \"#utility.yul\":20451:20490   */\n      tag_543\n        /* \"#utility.yul\":20482:20489   */\n      dup4\n        /* \"#utility.yul\":20451:20490   */\n      tag_353\n      jump\t// in\n    tag_543:\n        /* \"#utility.yul\":20512:20603   */\n      tag_544\n        /* \"#utility.yul\":20561:20602   */\n      tag_545\n        /* \"#utility.yul\":20585:20601   */\n      dup3\n        /* \"#utility.yul\":20561:20602   */\n      tag_354\n      jump\t// in\n    tag_545:\n        /* \"#utility.yul\":20553:20559   */\n      dup5\n        /* \"#utility.yul\":20546:20550   */\n      dup5\n        /* \"#utility.yul\":20540:20551   */\n      sload\n        /* \"#utility.yul\":20512:20603   */\n      tag_351\n      jump\t// in\n    tag_544:\n        /* \"#utility.yul\":20506:20510   */\n      dup3\n        /* \"#utility.yul\":20499:20604   */\n      sstore\n        /* \"#utility.yul\":20417:20610   */\n      pop\n        /* \"#utility.yul\":20341:20610   */\n      pop\n      pop\n      pop\n      jump\t// out\n        /* \"#utility.yul\":20616:20689   */\n    tag_356:\n        /* \"#utility.yul\":20661:20664   */\n      0x00\n        /* \"#utility.yul\":20616:20689   */\n      swap1\n      jump\t// out\n        /* \"#utility.yul\":20695:20884   */\n    tag_357:\n        /* \"#utility.yul\":20772:20804   */\n      tag_548\n      tag_356\n      jump\t// in\n    tag_548:\n        /* \"#utility.yul\":20813:20878   */\n      tag_549\n        /* \"#utility.yul\":20871:20877   */\n      dup2\n        /* \"#utility.yul\":20863:20869   */\n      dup5\n        /* \"#utility.yul\":20857:20861   */\n      dup5\n        /* \"#utility.yul\":20813:20878   */\n      tag_355\n      jump\t// in\n    tag_549:\n        /* \"#utility.yul\":20748:20884   */\n      pop\n        /* \"#utility.yul\":20695:20884   */\n      pop\n      pop\n      jump\t// out\n        /* \"#utility.yul\":20890:21076   */\n    tag_358:\n        /* \"#utility.yul\":20950:21070   */\n    tag_551:\n        /* \"#utility.yul\":20967:20970   */\n      dup2\n        /* \"#utility.yul\":20960:20965   */\n      dup2\n        /* \"#utility.yul\":20957:20971   */\n      lt\n        /* \"#utility.yul\":20950:21070   */\n      iszero\n      tag_553\n      jumpi\n        /* \"#utility.yul\":21021:21060   */\n      tag_554\n        /* \"#utility.yul\":21058:21059   */\n      0x00\n        /* \"#utility.yul\":21051:21056   */\n      dup3\n        /* \"#utility.yul\":21021:21060   */\n      tag_357\n      jump\t// in\n    tag_554:\n        /* \"#utility.yul\":20994:20995   */\n      0x01\n        /* \"#utility.yul\":20987:20992   */\n      dup2\n        /* \"#utility.yul\":20983:20996   */\n      add\n        /* \"#utility.yul\":20974:20996   */\n      swap1\n      pop\n        /* \"#utility.yul\":20950:21070   */\n      jump(tag_551)\n    tag_553:\n        /* \"#utility.yul\":20890:21076   */\n      pop\n      pop\n      jump\t// out\n        /* \"#utility.yul\":21082:21625   */\n    tag_359:\n        /* \"#utility.yul\":21183:21185   */\n      0x1f\n        /* \"#utility.yul\":21178:21181   */\n      dup3\n        /* \"#utility.yul\":21175:21186   */\n      gt\n        /* \"#utility.yul\":21172:21618   */\n      iszero\n      tag_556\n      jumpi\n        /* \"#utility.yul\":21217:21255   */\n      tag_557\n        /* \"#utility.yul\":21249:21254   */\n      dup2\n        /* \"#utility.yul\":21217:21255   */\n      tag_348\n      jump\t// in\n    tag_557:\n        /* \"#utility.yul\":21301:21330   */\n      tag_558\n        /* \"#utility.yul\":21319:21329   */\n      dup5\n        /* \"#utility.yul\":21301:21330   */\n      tag_349\n      jump\t// in\n    tag_558:\n        /* \"#utility.yul\":21291:21299   */\n      dup2\n        /* \"#utility.yul\":21287:21331   */\n      add\n        /* \"#utility.yul\":21484:21486   */\n      0x20\n        /* \"#utility.yul\":21472:21482   */\n      dup6\n        /* \"#utility.yul\":21469:21487   */\n      lt\n        /* \"#utility.yul\":21466:21515   */\n      iszero\n      tag_559\n      jumpi\n        /* \"#utility.yul\":21505:21513   */\n      dup2\n        /* \"#utility.yul\":21490:21513   */\n      swap1\n      pop\n        /* \"#utility.yul\":21466:21515   */\n    tag_559:\n        /* \"#utility.yul\":21528:21608   */\n      tag_560\n        /* \"#utility.yul\":21584:21606   */\n      tag_561\n        /* \"#utility.yul\":21602:21605   */\n      dup6\n        /* \"#utility.yul\":21584:21606   */\n      tag_349\n      jump\t// in\n    tag_561:\n        /* \"#utility.yul\":21574:21582   */\n      dup4\n        /* \"#utility.yul\":21570:21607   */\n      add\n        /* \"#utility.yul\":21557:21568   */\n      dup3\n        /* \"#utility.yul\":21528:21608   */\n      tag_358\n      jump\t// in\n    tag_560:\n        /* \"#utility.yul\":21187:21618   */\n      pop\n      pop\n        /* \"#utility.yul\":21172:21618   */\n    tag_556:\n        /* \"#utility.yul\":21082:21625   */\n      pop\n      pop\n      pop\n      jump\t// out\n        /* \"#utility.yul\":21631:21748   */\n    tag_360:\n        /* \"#utility.yul\":21685:21693   */\n      0x00\n        /* \"#utility.yul\":21735:21740   */\n      dup3\n        /* \"#utility.yul\":21729:21733   */\n      dup3\n        /* \"#utility.yul\":21725:21741   */\n      shr\n        /* \"#utility.yul\":21704:21741   */\n      swap1\n      pop\n        /* \"#utility.yul\":21631:21748   */\n      swap3\n      swap2\n      pop\n      pop\n      jump\t// out\n        /* \"#utility.yul\":21754:21923   */\n    tag_361:\n        /* \"#utility.yul\":21798:21804   */\n      0x00\n        /* \"#utility.yul\":21831:21882   */\n      tag_564\n        /* \"#utility.yul\":21879:21880   */\n      0x00\n        /* \"#utility.yul\":21875:21881   */\n      not\n        /* \"#utility.yul\":21867:21872   */\n      dup5\n        /* \"#utility.yul\":21864:21865   */\n      0x08\n        /* \"#utility.yul\":21860:21873   */\n      mul\n        /* \"#utility.yul\":21831:21882   */\n      tag_360\n      jump\t// in\n    tag_564:\n        /* \"#utility.yul\":21827:21883   */\n      not\n        /* \"#utility.yul\":21912:21916   */\n      dup1\n        /* \"#utility.yul\":21906:21910   */\n      dup4\n        /* \"#utility.yul\":21902:21917   */\n      and\n        /* \"#utility.yul\":21892:21917   */\n      swap2\n      pop\n        /* \"#utility.yul\":21805:21923   */\n      pop\n        /* \"#utility.yul\":21754:21923   */\n      swap3\n      swap2\n      pop\n      pop\n      jump\t// out\n        /* \"#utility.yul\":21928:22223   */\n    tag_362:\n        /* \"#utility.yul\":22004:22008   */\n      0x00\n        /* \"#utility.yul\":22150:22179   */\n      tag_566\n        /* \"#utility.yul\":22175:22178   */\n      dup4\n        /* \"#utility.yul\":22169:22173   */\n      dup4\n        /* \"#utility.yul\":22150:22179   */\n      tag_361\n      jump\t// in\n    tag_566:\n        /* \"#utility.yul\":22142:22179   */\n      swap2\n      pop\n        /* \"#utility.yul\":22212:22215   */\n      dup3\n        /* \"#utility.yul\":22209:22210   */\n      0x02\n        /* \"#utility.yul\":22205:22216   */\n      mul\n        /* \"#utility.yul\":22199:22203   */\n      dup3\n        /* \"#utility.yul\":22196:22217   */\n      or\n        /* \"#utility.yul\":22188:22217   */\n      swap1\n      pop\n        /* \"#utility.yul\":21928:22223   */\n      swap3\n      swap2\n      pop\n      pop\n      jump\t// out\n        /* \"#utility.yul\":22228:23623   */\n    tag_118:\n        /* \"#utility.yul\":22345:22382   */\n      tag_568\n        /* \"#utility.yul\":22378:22381   */\n      dup3\n        /* \"#utility.yul\":22345:22382   */\n      tag_310\n      jump\t// in\n    tag_568:\n        /* \"#utility.yul\":22447:22465   */\n      0xffffffffffffffff\n        /* \"#utility.yul\":22439:22445   */\n      dup2\n        /* \"#utility.yul\":22436:22466   */\n      gt\n        /* \"#utility.yul\":22433:22489   */\n      iszero\n      tag_569\n      jumpi\n        /* \"#utility.yul\":22469:22487   */\n      tag_570\n      tag_316\n      jump\t// in\n    tag_570:\n        /* \"#utility.yul\":22433:22489   */\n    tag_569:\n        /* \"#utility.yul\":22513:22551   */\n      tag_571\n        /* \"#utility.yul\":22545:22549   */\n      dup3\n        /* \"#utility.yul\":22539:22550   */\n      sload\n        /* \"#utility.yul\":22513:22551   */\n      tag_48\n      jump\t// in\n    tag_571:\n        /* \"#utility.yul\":22598:22665   */\n      tag_572\n        /* \"#utility.yul\":22658:22664   */\n      dup3\n        /* \"#utility.yul\":22650:22656   */\n      dup3\n        /* \"#utility.yul\":22644:22648   */\n      dup6\n        /* \"#utility.yul\":22598:22665   */\n      tag_359\n      jump\t// in\n    tag_572:\n        /* \"#utility.yul\":22692:22693   */\n      0x00\n        /* \"#utility.yul\":22716:22720   */\n      0x20\n        /* \"#utility.yul\":22703:22720   */\n      swap1\n      pop\n        /* \"#utility.yul\":22748:22750   */\n      0x1f\n        /* \"#utility.yul\":22740:22746   */\n      dup4\n        /* \"#utility.yul\":22737:22751   */\n      gt\n        /* \"#utility.yul\":22765:22766   */\n      0x01\n        /* \"#utility.yul\":22760:23378   */\n      dup2\n      eq\n      tag_574\n      jumpi\n        /* \"#utility.yul\":23422:23423   */\n      0x00\n        /* \"#utility.yul\":23439:23445   */\n      dup5\n        /* \"#utility.yul\":23436:23513   */\n      iszero\n      tag_575\n      jumpi\n        /* \"#utility.yul\":23488:23497   */\n      dup3\n        /* \"#utility.yul\":23483:23486   */\n      dup8\n        /* \"#utility.yul\":23479:23498   */\n      add\n        /* \"#utility.yul\":23473:23499   */\n      mload\n        /* \"#utility.yul\":23464:23499   */\n      swap1\n      pop\n        /* \"#utility.yul\":23436:23513   */\n    tag_575:\n        /* \"#utility.yul\":23539:23606   */\n      tag_576\n        /* \"#utility.yul\":23599:23605   */\n      dup6\n        /* \"#utility.yul\":23592:23597   */\n      dup3\n        /* \"#utility.yul\":23539:23606   */\n      tag_362\n      jump\t// in\n    tag_576:\n        /* \"#utility.yul\":23533:23537   */\n      dup7\n        /* \"#utility.yul\":23526:23607   */\n      sstore\n        /* \"#utility.yul\":23395:23617   */\n      pop\n        /* \"#utility.yul\":22730:23617   */\n      jump(tag_573)\n        /* \"#utility.yul\":22760:23378   */\n    tag_574:\n        /* \"#utility.yul\":22812:22816   */\n      0x1f\n        /* \"#utility.yul\":22808:22817   */\n      not\n        /* \"#utility.yul\":22800:22806   */\n      dup5\n        /* \"#utility.yul\":22796:22818   */\n      and\n        /* \"#utility.yul\":22846:22883   */\n      tag_577\n        /* \"#utility.yul\":22878:22882   */\n      dup7\n        /* \"#utility.yul\":22846:22883   */\n      tag_348\n      jump\t// in\n    tag_577:\n        /* \"#utility.yul\":22905:22906   */\n      0x00\n        /* \"#utility.yul\":22919:23127   */\n    tag_578:\n        /* \"#utility.yul\":22933:22940   */\n      dup3\n        /* \"#utility.yul\":22930:22931   */\n      dup2\n        /* \"#utility.yul\":22927:22941   */\n      lt\n        /* \"#utility.yul\":22919:23127   */\n      iszero\n      tag_580\n      jumpi\n        /* \"#utility.yul\":23012:23021   */\n      dup5\n        /* \"#utility.yul\":23007:23010   */\n      dup10\n        /* \"#utility.yul\":23003:23022   */\n      add\n        /* \"#utility.yul\":22997:23023   */\n      mload\n        /* \"#utility.yul\":22989:22995   */\n      dup3\n        /* \"#utility.yul\":22982:23024   */\n      sstore\n        /* \"#utility.yul\":23063:23064   */\n      0x01\n        /* \"#utility.yul\":23055:23061   */\n      dup3\n        /* \"#utility.yul\":23051:23065   */\n      add\n        /* \"#utility.yul\":23041:23065   */\n      swap2\n      pop\n        /* \"#utility.yul\":23110:23112   */\n      0x20\n        /* \"#utility.yul\":23099:23108   */\n      dup6\n        /* \"#utility.yul\":23095:23113   */\n      add\n        /* \"#utility.yul\":23082:23113   */\n      swap5\n      pop\n        /* \"#utility.yul\":22956:22960   */\n      0x20\n        /* \"#utility.yul\":22953:22954   */\n      dup2\n        /* \"#utility.yul\":22949:22961   */\n      add\n        /* \"#utility.yul\":22944:22961   */\n      swap1\n      pop\n        /* \"#utility.yul\":22919:23127   */\n      jump(tag_578)\n    tag_580:\n        /* \"#utility.yul\":23155:23161   */\n      dup7\n        /* \"#utility.yul\":23146:23153   */\n      dup4\n        /* \"#utility.yul\":23143:23162   */\n      lt\n        /* \"#utility.yul\":23140:23319   */\n      iszero\n      tag_581\n      jumpi\n        /* \"#utility.yul\":23213:23222   */\n      dup5\n        /* \"#utility.yul\":23208:23211   */\n      dup10\n        /* \"#utility.yul\":23204:23223   */\n      add\n        /* \"#utility.yul\":23198:23224   */\n      mload\n        /* \"#utility.yul\":23256:23304   */\n      tag_582\n        /* \"#utility.yul\":23298:23302   */\n      0x1f\n        /* \"#utility.yul\":23290:23296   */\n      dup10\n        /* \"#utility.yul\":23286:23303   */\n      and\n        /* \"#utility.yul\":23275:23284   */\n      dup3\n        /* \"#utility.yul\":23256:23304   */\n      tag_361\n      jump\t// in\n    tag_582:\n        /* \"#utility.yul\":23248:23254   */\n      dup4\n        /* \"#utility.yul\":23241:23305   */\n      sstore\n        /* \"#utility.yul\":23163:23319   */\n      pop\n        /* \"#utility.yul\":23140:23319   */\n    tag_581:\n        /* \"#utility.yul\":23365:23366   */\n      0x01\n        /* \"#utility.yul\":23361:23362   */\n      0x02\n        /* \"#utility.yul\":23353:23359   */\n      dup9\n        /* \"#utility.yul\":23349:23363   */\n      mul\n        /* \"#utility.yul\":23345:23367   */\n      add\n        /* \"#utility.yul\":23339:23343   */\n      dup9\n        /* \"#utility.yul\":23332:23368   */\n      sstore\n        /* \"#utility.yul\":22767:23378   */\n      pop\n      pop\n      pop\n        /* \"#utility.yul\":22730:23617   */\n    tag_573:\n      pop\n        /* \"#utility.yul\":22320:23623   */\n      pop\n      pop\n      pop\n        /* \"#utility.yul\":22228:23623   */\n      pop\n      pop\n      jump\t// out\n        /* \"#utility.yul\":23629:23809   */\n    tag_363:\n        /* \"#utility.yul\":23677:23754   */\n      0x4e487b7100000000000000000000000000000000000000000000000000000000\n        /* \"#utility.yul\":23674:23675   */\n      0x00\n        /* \"#utility.yul\":23667:23755   */\n      mstore\n        /* \"#utility.yul\":23774:23778   */\n      0x11\n        /* \"#utility.yul\":23771:23772   */\n      0x04\n        /* \"#utility.yul\":23764:23779   */\n      mstore\n        /* \"#utility.yul\":23798:23802   */\n      0x24\n        /* \"#utility.yul\":23795:23796   */\n      0x00\n        /* \"#utility.yul\":23788:23803   */\n      revert\n        /* \"#utility.yul\":23815:24048   */\n    tag_122:\n        /* \"#utility.yul\":23854:23857   */\n      0x00\n        /* \"#utility.yul\":23877:23901   */\n      tag_585\n        /* \"#utility.yul\":23895:23900   */\n      dup3\n        /* \"#utility.yul\":23877:23901   */\n      tag_307\n      jump\t// in\n    tag_585:\n        /* \"#utility.yul\":23868:23901   */\n      swap2\n      pop\n        /* \"#utility.yul\":23923:23989   */\n      0xffffffffffffffffffffffffffffffffffffffffffffffffffffffffffffffff\n        /* \"#utility.yul\":23916:23921   */\n      dup3\n        /* \"#utility.yul\":23913:23990   */\n      sub\n        /* \"#utility.yul\":23910:24013   */\n      tag_586\n      jumpi\n        /* \"#utility.yul\":23993:24011   */\n      tag_587\n      tag_363\n      jump\t// in\n    tag_587:\n        /* \"#utility.yul\":23910:24013   */\n    tag_586:\n        /* \"#utility.yul\":24040:24041   */\n      0x01\n        /* \"#utility.yul\":24033:24038   */\n      dup3\n        /* \"#utility.yul\":24029:24042   */\n      add\n        /* \"#utility.yul\":24022:24042   */\n      swap1\n      pop\n        /* \"#utility.yul\":23815:24048   */\n      swap2\n      swap1\n      pop\n      jump\t// out\n\n    auxdata: 0xa26469706673582212208d8ab504881c196317dca391b580d0b5a0253d5666a6360c2a446d69f145c61164736f6c63430008120033\n}\n",
				"bytecode": {
					"linkReferences": {},
					"object": "608060405234801561001057600080fd5b50612416806100206000396000f3fe608060405234801561001057600080fd5b50600436106100885760003560e01c80637c0a6fc11161005b5780637c0a6fc11461013f578063ac0799e51461015e578063b87dff891461017a578063ded1166c1461019957610088565b80632548d05d1461008d5780634d1ba790146100bf5780635faa043d146100f157806364e815fd14610123575b600080fd5b6100a760048036038101906100a29190611877565b6101cb565b6040516100b693929190611934565b60405180910390f35b6100d960048036038101906100d49190611877565b61039d565b6040516100e893929190611934565b60405180910390f35b61010b60048036038101906101069190611877565b61056f565b60405161011a93929190611934565b60405180910390f35b61013d60048036038101906101389190611c7c565b610741565b005b6101476109ff565b604051610155929190611f7e565b60405180910390f35b61017860048036038101906101739190611fb5565b610e2c565b005b6101826110fb565b604051610190929190611f7e565b60405180910390f35b6101b360048036038101906101ae9190611877565b611528565b6040516101c293929190611934565b60405180910390f35b600381815481106101db57600080fd5b90600052602060002090600302016000915090508060000180546101fe9061208b565b80601f016020809104026020016040519081016040528092919081815260200182805461022a9061208b565b80156102775780601f1061024c57610100808354040283529160200191610277565b820191906000526020600020905b81548152906001019060200180831161025a57829003601f168201915b50505050509080600101805461028c9061208b565b80601f01602080910402602001604051908101604052809291908181526020018280546102b89061208b565b80156103055780601f106102da57610100808354040283529160200191610305565b820191906000526020600020905b8154815290600101906020018083116102e857829003601f168201915b50505050509080600201805461031a9061208b565b80601f01602080910402602001604051908101604052809291908181526020018280546103469061208b565b80156103935780601f1061036857610100808354040283529160200191610393565b820191906000526020600020905b81548152906001019060200180831161037657829003601f168201915b5050505050905083565b600481815481106103ad57600080fd5b90600052602060002090600302016000915090508060000180546103d09061208b565b80601f01602080910402602001604051908101604052809291908181526020018280546103fc9061208b565b80156104495780601f1061041e57610100808354040283529160200191610449565b820191906000526020600020905b81548152906001019060200180831161042c57829003601f168201915b50505050509080600101805461045e9061208b565b80601f016020809104026020016040519081016040528092919081815260200182805461048a9061208b565b80156104d75780601f106104ac576101008083540402835291602001916104d7565b820191906000526020600020905b8154815290600101906020018083116104ba57829003601f168201915b5050505050908060020180546104ec9061208b565b80601f01602080910402602001604051908101604052809291908181526020018280546105189061208b565b80156105655780601f1061053a57610100808354040283529160200191610565565b820191906000526020600020905b81548152906001019060200180831161054857829003601f168201915b5050505050905083565b6002818154811061057f57600080fd5b90600052602060002090600302016000915090508060000180546105a29061208b565b80601f01602080910402602001604051908101604052809291908181526020018280546105ce9061208b565b801561061b5780601f106105f05761010080835404028352916020019161061b565b820191906000526020600020905b8154815290600101906020018083116105fe57829003601f168201915b5050505050908060010180546106309061208b565b80601f016020809104026020016040519081016040528092919081815260200182805461065c9061208b565b80156106a95780601f1061067e576101008083540402835291602001916106a9565b820191906000526020600020905b81548152906001019060200180831161068c57829003601f168201915b5050505050908060020180546106be9061208b565b80601f01602080910402602001604051908101604052809291908181526020018280546106ea9061208b565b80156107375780601f1061070c57610100808354040283529160200191610737565b820191906000526020600020905b81548152906001019060200180831161071a57829003601f168201915b5050505050905083565b6003600061074f91906116fa565b60005b825181101561089d576000604051806060016040528085848151811061077b5761077a6120bc565b5b6020026020010151600081518110610796576107956120bc565b5b602002602001015181526020018584815181106107b6576107b56120bc565b5b60200260200101516001815181106107d1576107d06120bc565b5b602002602001015181526020018584815181106107f1576107f06120bc565b5b602002602001015160028151811061080c5761080b6120bc565b5b602002602001015181525090506003819080600181540180825580915050600190039060005260206000209060030201600090919091909150600082015181600001908161085a9190612297565b5060208201518160010190816108709190612297565b5060408201518160020190816108869190612297565b50505050808061089590612398565b915050610752565b50600460006108ac919061171e565b60005b81518110156109fa57600060405180606001604052808484815181106108d8576108d76120bc565b5b60200260200101516000815181106108f3576108f26120bc565b5b60200260200101518152602001848481518110610913576109126120bc565b5b602002602001015160018151811061092e5761092d6120bc565b5b6020026020010151815260200184848151811061094e5761094d6120bc565b5b6020026020010151600281518110610969576109686120bc565b5b60200260200101518152509050600481908060018154018082558091505060019003906000526020600020906003020160009091909190915060008201518160000190816109b79190612297565b5060208201518160010190816109cd9190612297565b5060408201518160020190816109e39190612297565b5050505080806109f290612398565b9150506108af565b505050565b6060806003600481805480602002602001604051908101604052809291908181526020016000905b82821015610c0f5783829060005260206000209060030201604051806060016040529081600082018054610a5a9061208b565b80601f0160208091040260200160405190810160405280929190818152602001828054610a869061208b565b8015610ad35780601f10610aa857610100808354040283529160200191610ad3565b820191906000526020600020905b815481529060010190602001808311610ab657829003601f168201915b50505050508152602001600182018054610aec9061208b565b80601f0160208091040260200160405190810160405280929190818152602001828054610b189061208b565b8015610b655780601f10610b3a57610100808354040283529160200191610b65565b820191906000526020600020905b815481529060010190602001808311610b4857829003601f168201915b50505050508152602001600282018054610b7e9061208b565b80601f0160208091040260200160405190810160405280929190818152602001828054610baa9061208b565b8015610bf75780601f10610bcc57610100808354040283529160200191610bf7565b820191906000526020600020905b815481529060010190602001808311610bda57829003601f168201915b50505050508152505081526020019060010190610a27565b50505050915080805480602002602001604051908101604052809291908181526020016000905b82821015610e1e5783829060005260206000209060030201604051806060016040529081600082018054610c699061208b565b80601f0160208091040260200160405190810160405280929190818152602001828054610c959061208b565b8015610ce25780601f10610cb757610100808354040283529160200191610ce2565b820191906000526020600020905b815481529060010190602001808311610cc557829003601f168201915b50505050508152602001600182018054610cfb9061208b565b80601f0160208091040260200160405190810160405280929190818152602001828054610d279061208b565b8015610d745780601f10610d4957610100808354040283529160200191610d74565b820191906000526020600020905b815481529060010190602001808311610d5757829003601f168201915b50505050508152602001600282018054610d8d9061208b565b80601f0160208091040260200160405190810160405280929190818152602001828054610db99061208b565b8015610e065780601f10610ddb57610100808354040283529160200191610e06565b820191906000526020600020905b815481529060010190602001808311610de957829003601f168201915b50505050508152505081526020019060010190610c36565b505050509050915091509091565b8260009081610e3b9190612297565b5060016000610e4a91906116fa565b60005b8251811015610f985760006040518060600160405280858481518110610e7657610e756120bc565b5b6020026020010151600081518110610e9157610e906120bc565b5b60200260200101518152602001858481518110610eb157610eb06120bc565b5b6020026020010151600181518110610ecc57610ecb6120bc565b5b60200260200101518152602001858481518110610eec57610eeb6120bc565b5b6020026020010151600281518110610f0757610f066120bc565b5b6020026020010151815250905060018190806001815401808255809150506001900390600052602060002090600302016000909190919091506000820151816000019081610f559190612297565b506020820151816001019081610f6b9190612297565b506040820151816002019081610f819190612297565b505050508080610f9090612398565b915050610e4d565b5060026000610fa7919061171e565b60005b81518110156110f55760006040518060600160405280848481518110610fd357610fd26120bc565b5b6020026020010151600081518110610fee57610fed6120bc565b5b6020026020010151815260200184848151811061100e5761100d6120bc565b5b6020026020010151600181518110611029576110286120bc565b5b60200260200101518152602001848481518110611049576110486120bc565b5b6020026020010151600281518110611064576110636120bc565b5b60200260200101518152509050600281908060018154018082558091505060019003906000526020600020906003020160009091909190915060008201518160000190816110b29190612297565b5060208201518160010190816110c89190612297565b5060408201518160020190816110de9190612297565b5050505080806110ed90612398565b915050610faa565b50505050565b6060806001600281805480602002602001604051908101604052809291908181526020016000905b8282101561130b57838290600052602060002090600302016040518060600160405290816000820180546111569061208b565b80601f01602080910402602001604051908101604052809291908181526020018280546111829061208b565b80156111cf5780601f106111a4576101008083540402835291602001916111cf565b820191906000526020600020905b8154815290600101906020018083116111b257829003601f168201915b505050505081526020016001820180546111e89061208b565b80601f01602080910402602001604051908101604052809291908181526020018280546112149061208b565b80156112615780601f1061123657610100808354040283529160200191611261565b820191906000526020600020905b81548152906001019060200180831161124457829003601f168201915b5050505050815260200160028201805461127a9061208b565b80601f01602080910402602001604051908101604052809291908181526020018280546112a69061208b565b80156112f35780601f106112c8576101008083540402835291602001916112f3565b820191906000526020600020905b8154815290600101906020018083116112d657829003601f168201915b50505050508152505081526020019060010190611123565b50505050915080805480602002602001604051908101604052809291908181526020016000905b8282101561151a57838290600052602060002090600302016040518060600160405290816000820180546113659061208b565b80601f01602080910402602001604051908101604052809291908181526020018280546113919061208b565b80156113de5780601f106113b3576101008083540402835291602001916113de565b820191906000526020600020905b8154815290600101906020018083116113c157829003601f168201915b505050505081526020016001820180546113f79061208b565b80601f01602080910402602001604051908101604052809291908181526020018280546114239061208b565b80156114705780601f1061144557610100808354040283529160200191611470565b820191906000526020600020905b81548152906001019060200180831161145357829003601f168201915b505050505081526020016002820180546114899061208b565b80601f01602080910402602001604051908101604052809291908181526020018280546114b59061208b565b80156115025780601f106114d757610100808354040283529160200191611502565b820191906000526020600020905b8154815290600101906020018083116114e557829003601f168201915b50505050508152505081526020019060010190611332565b505050509050915091509091565b6001818154811061153857600080fd5b906000526020600020906003020160009150905080600001805461155b9061208b565b80601f01602080910402602001604051908101604052809291908181526020018280546115879061208b565b80156115d45780601f106115a9576101008083540402835291602001916115d4565b820191906000526020600020905b8154815290600101906020018083116115b757829003601f168201915b5050505050908060010180546115e99061208b565b80601f01602080910402602001604051908101604052809291908181526020018280546116159061208b565b80156116625780601f1061163757610100808354040283529160200191611662565b820191906000526020600020905b81548152906001019060200180831161164557829003601f168201915b5050505050908060020180546116779061208b565b80601f01602080910402602001604051908101604052809291908181526020018280546116a39061208b565b80156116f05780601f106116c5576101008083540402835291602001916116f0565b820191906000526020600020905b8154815290600101906020018083116116d357829003601f168201915b5050505050905083565b508054600082556003029060005260206000209081019061171b9190611742565b50565b508054600082556003029060005260206000209081019061173f9190611789565b50565b5b80821115611785576000808201600061175c91906117d0565b60018201600061176c91906117d0565b60028201600061177c91906117d0565b50600301611743565b5090565b5b808211156117cc57600080820160006117a391906117d0565b6001820160006117b391906117d0565b6002820160006117c391906117d0565b5060030161178a565b5090565b5080546117dc9061208b565b6000825580601f106117ee575061180d565b601f01602090049060005260206000209081019061180c9190611810565b5b50565b5b80821115611829576000816000905550600101611811565b5090565b6000604051905090565b600080fd5b600080fd5b6000819050919050565b61185481611841565b811461185f57600080fd5b50565b6000813590506118718161184b565b92915050565b60006020828403121561188d5761188c611837565b5b600061189b84828501611862565b91505092915050565b600081519050919050565b600082825260208201905092915050565b60005b838110156118de5780820151818401526020810190506118c3565b60008484015250505050565b6000601f19601f8301169050919050565b6000611906826118a4565b61191081856118af565b93506119208185602086016118c0565b611929816118ea565b840191505092915050565b6000606082019050818103600083015261194e81866118fb565b9050818103602083015261196281856118fb565b9050818103604083015261197681846118fb565b9050949350505050565b600080fd5b7f4e487b7100000000000000000000000000000000000000000000000000000000600052604160045260246000fd5b6119bd826118ea565b810181811067ffffffffffffffff821117156119dc576119db611985565b5b80604052505050565b60006119ef61182d565b90506119fb82826119b4565b919050565b600067ffffffffffffffff821115611a1b57611a1a611985565b5b602082029050602081019050919050565b600080fd5b600067ffffffffffffffff821115611a4c57611a4b611985565b5b602082029050602081019050919050565b600080fd5b600067ffffffffffffffff821115611a7d57611a7c611985565b5b611a86826118ea565b9050602081019050919050565b82818337600083830152505050565b6000611ab5611ab084611a62565b6119e5565b905082815260208101848484011115611ad157611ad0611a5d565b5b611adc848285611a93565b509392505050565b600082601f830112611af957611af8611980565b5b8135611b09848260208601611aa2565b91505092915050565b6000611b25611b2084611a31565b6119e5565b90508083825260208201905060208402830185811115611b4857611b47611a2c565b5b835b81811015611b8f57803567ffffffffffffffff811115611b6d57611b6c611980565b5b808601611b7a8982611ae4565b85526020850194505050602081019050611b4a565b5050509392505050565b600082601f830112611bae57611bad611980565b5b8135611bbe848260208601611b12565b91505092915050565b6000611bda611bd584611a00565b6119e5565b90508083825260208201905060208402830185811115611bfd57611bfc611a2c565b5b835b81811015611c4457803567ffffffffffffffff811115611c2257611c21611980565b5b808601611c2f8982611b99565b85526020850194505050602081019050611bff565b5050509392505050565b600082601f830112611c6357611c62611980565b5b8135611c73848260208601611bc7565b91505092915050565b60008060408385031215611c9357611c92611837565b5b600083013567ffffffffffffffff811115611cb157611cb061183c565b5b611cbd85828601611c4e565b925050602083013567ffffffffffffffff811115611cde57611cdd61183c565b5b611cea85828601611c4e565b9150509250929050565b600081519050919050565b600082825260208201905092915050565b6000819050602082019050919050565b600082825260208201905092915050565b6000611d3c826118a4565b611d468185611d20565b9350611d568185602086016118c0565b611d5f816118ea565b840191505092915050565b60006060830160008301518482036000860152611d878282611d31565b91505060208301518482036020860152611da18282611d31565b91505060408301518482036040860152611dbb8282611d31565b9150508091505092915050565b6000611dd48383611d6a565b905092915050565b6000602082019050919050565b6000611df482611cf4565b611dfe8185611cff565b935083602082028501611e1085611d10565b8060005b85811015611e4c5784840389528151611e2d8582611dc8565b9450611e3883611ddc565b925060208a01995050600181019050611e14565b50829750879550505050505092915050565b600081519050919050565b600082825260208201905092915050565b6000819050602082019050919050565b60006060830160008301518482036000860152611ea78282611d31565b91505060208301518482036020860152611ec18282611d31565b91505060408301518482036040860152611edb8282611d31565b9150508091505092915050565b6000611ef48383611e8a565b905092915050565b6000602082019050919050565b6000611f1482611e5e565b611f1e8185611e69565b935083602082028501611f3085611e7a565b8060005b85811015611f6c5784840389528151611f4d8582611ee8565b9450611f5883611efc565b925060208a01995050600181019050611f34565b50829750879550505050505092915050565b60006040820190508181036000830152611f988185611de9565b90508181036020830152611fac8184611f09565b90509392505050565b600080600060608486031215611fce57611fcd611837565b5b600084013567ffffffffffffffff811115611fec57611feb61183c565b5b611ff886828701611ae4565b935050602084013567ffffffffffffffff8111156120195761201861183c565b5b61202586828701611c4e565b925050604084013567ffffffffffffffff8111156120465761204561183c565b5b61205286828701611c4e565b9150509250925092565b7f4e487b7100000000000000000000000000000000000000000000000000000000600052602260045260246000fd5b600060028204905060018216806120a357607f821691505b6020821081036120b6576120b561205c565b5b50919050565b7f4e487b7100000000000000000000000000000000000000000000000000000000600052603260045260246000fd5b60008190508160005260206000209050919050565b60006020601f8301049050919050565b600082821b905092915050565b60006008830261214d7fffffffffffffffffffffffffffffffffffffffffffffffffffffffffffffffff82612110565b6121578683612110565b95508019841693508086168417925050509392505050565b6000819050919050565b600061219461218f61218a84611841565b61216f565b611841565b9050919050565b6000819050919050565b6121ae83612179565b6121c26121ba8261219b565b84845461211d565b825550505050565b600090565b6121d76121ca565b6121e28184846121a5565b505050565b5b81811015612206576121fb6000826121cf565b6001810190506121e8565b5050565b601f82111561224b5761221c816120eb565b61222584612100565b81016020851015612234578190505b61224861224085612100565b8301826121e7565b50505b505050565b600082821c905092915050565b600061226e60001984600802612250565b1980831691505092915050565b6000612287838361225d565b9150826002028217905092915050565b6122a0826118a4565b67ffffffffffffffff8111156122b9576122b8611985565b5b6122c3825461208b565b6122ce82828561220a565b600060209050601f83116001811461230157600084156122ef578287015190505b6122f9858261227b565b865550612361565b601f19841661230f866120eb565b60005b8281101561233757848901518255600182019150602085019450602081019050612312565b868310156123545784890151612350601f89168261225d565b8355505b6001600288020188555050505b505050505050565b7f4e487b7100000000000000000000000000000000000000000000000000000000600052601160045260246000fd5b60006123a382611841565b91507fffffffffffffffffffffffffffffffffffffffffffffffffffffffffffffffff82036123d5576123d4612369565b5b60018201905091905056fea26469706673582212208d8ab504881c196317dca391b580d0b5a0253d5666a6360c2a446d69f145c61164736f6c63430008120033",
					"opcodes": "PUSH1 0x80 PUSH1 0x40 MSTORE CALLVALUE DUP1 ISZERO PUSH2 0x10 JUMPI PUSH1 0x0 DUP1 REVERT JUMPDEST POP PUSH2 0x2416 DUP1 PUSH2 0x20 PUSH1 0x0 CODECOPY PUSH1 0x0 RETURN INVALID PUSH1 0x80 PUSH1 0x40 MSTORE CALLVALUE DUP1 ISZERO PUSH2 0x10 JUMPI PUSH1 0x0 DUP1 REVERT JUMPDEST POP PUSH1 0x4 CALLDATASIZE LT PUSH2 0x88 JUMPI PUSH1 0x0 CALLDATALOAD PUSH1 0xE0 SHR DUP1 PUSH4 0x7C0A6FC1 GT PUSH2 0x5B JUMPI DUP1 PUSH4 0x7C0A6FC1 EQ PUSH2 0x13F JUMPI DUP1 PUSH4 0xAC0799E5 EQ PUSH2 0x15E JUMPI DUP1 PUSH4 0xB87DFF89 EQ PUSH2 0x17A JUMPI DUP1 PUSH4 0xDED1166C EQ PUSH2 0x199 JUMPI PUSH2 0x88 JUMP JUMPDEST DUP1 PUSH4 0x2548D05D EQ PUSH2 0x8D JUMPI DUP1 PUSH4 0x4D1BA790 EQ PUSH2 0xBF JUMPI DUP1 PUSH4 0x5FAA043D EQ PUSH2 0xF1 JUMPI DUP1 PUSH4 0x64E815FD EQ PUSH2 0x123 JUMPI JUMPDEST PUSH1 0x0 DUP1 REVERT JUMPDEST PUSH2 0xA7 PUSH1 0x4 DUP1 CALLDATASIZE SUB DUP2 ADD SWAP1 PUSH2 0xA2 SWAP2 SWAP1 PUSH2 0x1877 JUMP JUMPDEST PUSH2 0x1CB JUMP JUMPDEST PUSH1 0x40 MLOAD PUSH2 0xB6 SWAP4 SWAP3 SWAP2 SWAP1 PUSH2 0x1934 JUMP JUMPDEST PUSH1 0x40 MLOAD DUP1 SWAP2 SUB SWAP1 RETURN JUMPDEST PUSH2 0xD9 PUSH1 0x4 DUP1 CALLDATASIZE SUB DUP2 ADD SWAP1 PUSH2 0xD4 SWAP2 SWAP1 PUSH2 0x1877 JUMP JUMPDEST PUSH2 0x39D JUMP JUMPDEST PUSH1 0x40 MLOAD PUSH2 0xE8 SWAP4 SWAP3 SWAP2 SWAP1 PUSH2 0x1934 JUMP JUMPDEST PUSH1 0x40 MLOAD DUP1 SWAP2 SUB SWAP1 RETURN JUMPDEST PUSH2 0x10B PUSH1 0x4 DUP1 CALLDATASIZE SUB DUP2 ADD SWAP1 PUSH2 0x106 SWAP2 SWAP1 PUSH2 0x1877 JUMP JUMPDEST PUSH2 0x56F JUMP JUMPDEST PUSH1 0x40 MLOAD PUSH2 0x11A SWAP4 SWAP3 SWAP2 SWAP1 PUSH2 0x1934 JUMP JUMPDEST PUSH1 0x40 MLOAD DUP1 SWAP2 SUB SWAP1 RETURN JUMPDEST PUSH2 0x13D PUSH1 0x4 DUP1 CALLDATASIZE SUB DUP2 ADD SWAP1 PUSH2 0x138 SWAP2 SWAP1 PUSH2 0x1C7C JUMP JUMPDEST PUSH2 0x741 JUMP JUMPDEST STOP JUMPDEST PUSH2 0x147 PUSH2 0x9FF JUMP JUMPDEST PUSH1 0x40 MLOAD PUSH2 0x155 SWAP3 SWAP2 SWAP1 PUSH2 0x1F7E JUMP JUMPDEST PUSH1 0x40 MLOAD DUP1 SWAP2 SUB SWAP1 RETURN JUMPDEST PUSH2 0x178 PUSH1 0x4 DUP1 CALLDATASIZE SUB DUP2 ADD SWAP1 PUSH2 0x173 SWAP2 SWAP1 PUSH2 0x1FB5 JUMP JUMPDEST PUSH2 0xE2C JUMP JUMPDEST STOP JUMPDEST PUSH2 0x182 PUSH2 0x10FB JUMP JUMPDEST PUSH1 0x40 MLOAD PUSH2 0x190 SWAP3 SWAP2 SWAP1 PUSH2 0x1F7E JUMP JUMPDEST PUSH1 0x40 MLOAD DUP1 SWAP2 SUB SWAP1 RETURN JUMPDEST PUSH2 0x1B3 PUSH1 0x4 DUP1 CALLDATASIZE SUB DUP2 ADD SWAP1 PUSH2 0x1AE SWAP2 SWAP1 PUSH2 0x1877 JUMP JUMPDEST PUSH2 0x1528 JUMP JUMPDEST PUSH1 0x40 MLOAD PUSH2 0x1C2 SWAP4 SWAP3 SWAP2 SWAP1 PUSH2 0x1934 JUMP JUMPDEST PUSH1 0x40 MLOAD DUP1 SWAP2 SUB SWAP1 RETURN JUMPDEST PUSH1 0x3 DUP2 DUP2 SLOAD DUP2 LT PUSH2 0x1DB JUMPI PUSH1 0x0 DUP1 REVERT JUMPDEST SWAP1 PUSH1 0x0 MSTORE PUSH1 0x20 PUSH1 0x0 KECCAK256 SWAP1 PUSH1 0x3 MUL ADD PUSH1 0x0 SWAP2 POP SWAP1 POP DUP1 PUSH1 0x0 ADD DUP1 SLOAD PUSH2 0x1FE SWAP1 PUSH2 0x208B JUMP JUMPDEST DUP1 PUSH1 0x1F ADD PUSH1 0x20 DUP1 SWAP2 DIV MUL PUSH1 0x20 ADD PUSH1 0x40 MLOAD SWAP1 DUP2 ADD PUSH1 0x40 MSTORE DUP1 SWAP3 SWAP2 SWAP1 DUP2 DUP2 MSTORE PUSH1 0x20 ADD DUP3 DUP1 SLOAD PUSH2 0x22A SWAP1 PUSH2 0x208B JUMP JUMPDEST DUP1 ISZERO PUSH2 0x277 JUMPI DUP1 PUSH1 0x1F LT PUSH2 0x24C JUMPI PUSH2 0x100 DUP1 DUP4 SLOAD DIV MUL DUP4 MSTORE SWAP2 PUSH1 0x20 ADD SWAP2 PUSH2 0x277 JUMP JUMPDEST DUP3 ADD SWAP2 SWAP1 PUSH1 0x0 MSTORE PUSH1 0x20 PUSH1 0x0 KECCAK256 SWAP1 JUMPDEST DUP2 SLOAD DUP2 MSTORE SWAP1 PUSH1 0x1 ADD SWAP1 PUSH1 0x20 ADD DUP1 DUP4 GT PUSH2 0x25A JUMPI DUP3 SWAP1 SUB PUSH1 0x1F AND DUP3 ADD SWAP2 JUMPDEST POP POP POP POP POP SWAP1 DUP1 PUSH1 0x1 ADD DUP1 SLOAD PUSH2 0x28C SWAP1 PUSH2 0x208B JUMP JUMPDEST DUP1 PUSH1 0x1F ADD PUSH1 0x20 DUP1 SWAP2 DIV MUL PUSH1 0x20 ADD PUSH1 0x40 MLOAD SWAP1 DUP2 ADD PUSH1 0x40 MSTORE DUP1 SWAP3 SWAP2 SWAP1 DUP2 DUP2 MSTORE PUSH1 0x20 ADD DUP3 DUP1 SLOAD PUSH2 0x2B8 SWAP1 PUSH2 0x208B JUMP JUMPDEST DUP1 ISZERO PUSH2 0x305 JUMPI DUP1 PUSH1 0x1F LT PUSH2 0x2DA JUMPI PUSH2 0x100 DUP1 DUP4 SLOAD DIV MUL DUP4 MSTORE SWAP2 PUSH1 0x20 ADD SWAP2 PUSH2 0x305 JUMP JUMPDEST DUP3 ADD SWAP2 SWAP1 PUSH1 0x0 MSTORE PUSH1 0x20 PUSH1 0x0 KECCAK256 SWAP1 JUMPDEST DUP2 SLOAD DUP2 MSTORE SWAP1 PUSH1 0x1 ADD SWAP1 PUSH1 0x20 ADD DUP1 DUP4 GT PUSH2 0x2E8 JUMPI DUP3 SWAP1 SUB PUSH1 0x1F AND DUP3 ADD SWAP2 JUMPDEST POP POP POP POP POP SWAP1 DUP1 PUSH1 0x2 ADD DUP1 SLOAD PUSH2 0x31A SWAP1 PUSH2 0x208B JUMP JUMPDEST DUP1 PUSH1 0x1F ADD PUSH1 0x20 DUP1 SWAP2 DIV MUL PUSH1 0x20 ADD PUSH1 0x40 MLOAD SWAP1 DUP2 ADD PUSH1 0x40 MSTORE DUP1 SWAP3 SWAP2 SWAP1 DUP2 DUP2 MSTORE PUSH1 0x20 ADD DUP3 DUP1 SLOAD PUSH2 0x346 SWAP1 PUSH2 0x208B JUMP JUMPDEST DUP1 ISZERO PUSH2 0x393 JUMPI DUP1 PUSH1 0x1F LT PUSH2 0x368 JUMPI PUSH2 0x100 DUP1 DUP4 SLOAD DIV MUL DUP4 MSTORE SWAP2 PUSH1 0x20 ADD SWAP2 PUSH2 0x393 JUMP JUMPDEST DUP3 ADD SWAP2 SWAP1 PUSH1 0x0 MSTORE PUSH1 0x20 PUSH1 0x0 KECCAK256 SWAP1 JUMPDEST DUP2 SLOAD DUP2 MSTORE SWAP1 PUSH1 0x1 ADD SWAP1 PUSH1 0x20 ADD DUP1 DUP4 GT PUSH2 0x376 JUMPI DUP3 SWAP1 SUB PUSH1 0x1F AND DUP3 ADD SWAP2 JUMPDEST POP POP POP POP POP SWAP1 POP DUP4 JUMP JUMPDEST PUSH1 0x4 DUP2 DUP2 SLOAD DUP2 LT PUSH2 0x3AD JUMPI PUSH1 0x0 DUP1 REVERT JUMPDEST SWAP1 PUSH1 0x0 MSTORE PUSH1 0x20 PUSH1 0x0 KECCAK256 SWAP1 PUSH1 0x3 MUL ADD PUSH1 0x0 SWAP2 POP SWAP1 POP DUP1 PUSH1 0x0 ADD DUP1 SLOAD PUSH2 0x3D0 SWAP1 PUSH2 0x208B JUMP JUMPDEST DUP1 PUSH1 0x1F ADD PUSH1 0x20 DUP1 SWAP2 DIV MUL PUSH1 0x20 ADD PUSH1 0x40 MLOAD SWAP1 DUP2 ADD PUSH1 0x40 MSTORE DUP1 SWAP3 SWAP2 SWAP1 DUP2 DUP2 MSTORE PUSH1 0x20 ADD DUP3 DUP1 SLOAD PUSH2 0x3FC SWAP1 PUSH2 0x208B JUMP JUMPDEST DUP1 ISZERO PUSH2 0x449 JUMPI DUP1 PUSH1 0x1F LT PUSH2 0x41E JUMPI PUSH2 0x100 DUP1 DUP4 SLOAD DIV MUL DUP4 MSTORE SWAP2 PUSH1 0x20 ADD SWAP2 PUSH2 0x449 JUMP JUMPDEST DUP3 ADD SWAP2 SWAP1 PUSH1 0x0 MSTORE PUSH1 0x20 PUSH1 0x0 KECCAK256 SWAP1 JUMPDEST DUP2 SLOAD DUP2 MSTORE SWAP1 PUSH1 0x1 ADD SWAP1 PUSH1 0x20 ADD DUP1 DUP4 GT PUSH2 0x42C JUMPI DUP3 SWAP1 SUB PUSH1 0x1F AND DUP3 ADD SWAP2 JUMPDEST POP POP POP POP POP SWAP1 DUP1 PUSH1 0x1 ADD DUP1 SLOAD PUSH2 0x45E SWAP1 PUSH2 0x208B JUMP JUMPDEST DUP1 PUSH1 0x1F ADD PUSH1 0x20 DUP1 SWAP2 DIV MUL PUSH1 0x20 ADD PUSH1 0x40 MLOAD SWAP1 DUP2 ADD PUSH1 0x40 MSTORE DUP1 SWAP3 SWAP2 SWAP1 DUP2 DUP2 MSTORE PUSH1 0x20 ADD DUP3 DUP1 SLOAD PUSH2 0x48A SWAP1 PUSH2 0x208B JUMP JUMPDEST DUP1 ISZERO PUSH2 0x4D7 JUMPI DUP1 PUSH1 0x1F LT PUSH2 0x4AC JUMPI PUSH2 0x100 DUP1 DUP4 SLOAD DIV MUL DUP4 MSTORE SWAP2 PUSH1 0x20 ADD SWAP2 PUSH2 0x4D7 JUMP JUMPDEST DUP3 ADD SWAP2 SWAP1 PUSH1 0x0 MSTORE PUSH1 0x20 PUSH1 0x0 KECCAK256 SWAP1 JUMPDEST DUP2 SLOAD DUP2 MSTORE SWAP1 PUSH1 0x1 ADD SWAP1 PUSH1 0x20 ADD DUP1 DUP4 GT PUSH2 0x4BA JUMPI DUP3 SWAP1 SUB PUSH1 0x1F AND DUP3 ADD SWAP2 JUMPDEST POP POP POP POP POP SWAP1 DUP1 PUSH1 0x2 ADD DUP1 SLOAD PUSH2 0x4EC SWAP1 PUSH2 0x208B JUMP JUMPDEST DUP1 PUSH1 0x1F ADD PUSH1 0x20 DUP1 SWAP2 DIV MUL PUSH1 0x20 ADD PUSH1 0x40 MLOAD SWAP1 DUP2 ADD PUSH1 0x40 MSTORE DUP1 SWAP3 SWAP2 SWAP1 DUP2 DUP2 MSTORE PUSH1 0x20 ADD DUP3 DUP1 SLOAD PUSH2 0x518 SWAP1 PUSH2 0x208B JUMP JUMPDEST DUP1 ISZERO PUSH2 0x565 JUMPI DUP1 PUSH1 0x1F LT PUSH2 0x53A JUMPI PUSH2 0x100 DUP1 DUP4 SLOAD DIV MUL DUP4 MSTORE SWAP2 PUSH1 0x20 ADD SWAP2 PUSH2 0x565 JUMP JUMPDEST DUP3 ADD SWAP2 SWAP1 PUSH1 0x0 MSTORE PUSH1 0x20 PUSH1 0x0 KECCAK256 SWAP1 JUMPDEST DUP2 SLOAD DUP2 MSTORE SWAP1 PUSH1 0x1 ADD SWAP1 PUSH1 0x20 ADD DUP1 DUP4 GT PUSH2 0x548 JUMPI DUP3 SWAP1 SUB PUSH1 0x1F AND DUP3 ADD SWAP2 JUMPDEST POP POP POP POP POP SWAP1 POP DUP4 JUMP JUMPDEST PUSH1 0x2 DUP2 DUP2 SLOAD DUP2 LT PUSH2 0x57F JUMPI PUSH1 0x0 DUP1 REVERT JUMPDEST SWAP1 PUSH1 0x0 MSTORE PUSH1 0x20 PUSH1 0x0 KECCAK256 SWAP1 PUSH1 0x3 MUL ADD PUSH1 0x0 SWAP2 POP SWAP1 POP DUP1 PUSH1 0x0 ADD DUP1 SLOAD PUSH2 0x5A2 SWAP1 PUSH2 0x208B JUMP JUMPDEST DUP1 PUSH1 0x1F ADD PUSH1 0x20 DUP1 SWAP2 DIV MUL PUSH1 0x20 ADD PUSH1 0x40 MLOAD SWAP1 DUP2 ADD PUSH1 0x40 MSTORE DUP1 SWAP3 SWAP2 SWAP1 DUP2 DUP2 MSTORE PUSH1 0x20 ADD DUP3 DUP1 SLOAD PUSH2 0x5CE SWAP1 PUSH2 0x208B JUMP JUMPDEST DUP1 ISZERO PUSH2 0x61B JUMPI DUP1 PUSH1 0x1F LT PUSH2 0x5F0 JUMPI PUSH2 0x100 DUP1 DUP4 SLOAD DIV MUL DUP4 MSTORE SWAP2 PUSH1 0x20 ADD SWAP2 PUSH2 0x61B JUMP JUMPDEST DUP3 ADD SWAP2 SWAP1 PUSH1 0x0 MSTORE PUSH1 0x20 PUSH1 0x0 KECCAK256 SWAP1 JUMPDEST DUP2 SLOAD DUP2 MSTORE SWAP1 PUSH1 0x1 ADD SWAP1 PUSH1 0x20 ADD DUP1 DUP4 GT PUSH2 0x5FE JUMPI DUP3 SWAP1 SUB PUSH1 0x1F AND DUP3 ADD SWAP2 JUMPDEST POP POP POP POP POP SWAP1 DUP1 PUSH1 0x1 ADD DUP1 SLOAD PUSH2 0x630 SWAP1 PUSH2 0x208B JUMP JUMPDEST DUP1 PUSH1 0x1F ADD PUSH1 0x20 DUP1 SWAP2 DIV MUL PUSH1 0x20 ADD PUSH1 0x40 MLOAD SWAP1 DUP2 ADD PUSH1 0x40 MSTORE DUP1 SWAP3 SWAP2 SWAP1 DUP2 DUP2 MSTORE PUSH1 0x20 ADD DUP3 DUP1 SLOAD PUSH2 0x65C SWAP1 PUSH2 0x208B JUMP JUMPDEST DUP1 ISZERO PUSH2 0x6A9 JUMPI DUP1 PUSH1 0x1F LT PUSH2 0x67E JUMPI PUSH2 0x100 DUP1 DUP4 SLOAD DIV MUL DUP4 MSTORE SWAP2 PUSH1 0x20 ADD SWAP2 PUSH2 0x6A9 JUMP JUMPDEST DUP3 ADD SWAP2 SWAP1 PUSH1 0x0 MSTORE PUSH1 0x20 PUSH1 0x0 KECCAK256 SWAP1 JUMPDEST DUP2 SLOAD DUP2 MSTORE SWAP1 PUSH1 0x1 ADD SWAP1 PUSH1 0x20 ADD DUP1 DUP4 GT PUSH2 0x68C JUMPI DUP3 SWAP1 SUB PUSH1 0x1F AND DUP3 ADD SWAP2 JUMPDEST POP POP POP POP POP SWAP1 DUP1 PUSH1 0x2 ADD DUP1 SLOAD PUSH2 0x6BE SWAP1 PUSH2 0x208B JUMP JUMPDEST DUP1 PUSH1 0x1F ADD PUSH1 0x20 DUP1 SWAP2 DIV MUL PUSH1 0x20 ADD PUSH1 0x40 MLOAD SWAP1 DUP2 ADD PUSH1 0x40 MSTORE DUP1 SWAP3 SWAP2 SWAP1 DUP2 DUP2 MSTORE PUSH1 0x20 ADD DUP3 DUP1 SLOAD PUSH2 0x6EA SWAP1 PUSH2 0x208B JUMP JUMPDEST DUP1 ISZERO PUSH2 0x737 JUMPI DUP1 PUSH1 0x1F LT PUSH2 0x70C JUMPI PUSH2 0x100 DUP1 DUP4 SLOAD DIV MUL DUP4 MSTORE SWAP2 PUSH1 0x20 ADD SWAP2 PUSH2 0x737 JUMP JUMPDEST DUP3 ADD SWAP2 SWAP1 PUSH1 0x0 MSTORE PUSH1 0x20 PUSH1 0x0 KECCAK256 SWAP1 JUMPDEST DUP2 SLOAD DUP2 MSTORE SWAP1 PUSH1 0x1 ADD SWAP1 PUSH1 0x20 ADD DUP1 DUP4 GT PUSH2 0x71A JUMPI DUP3 SWAP1 SUB PUSH1 0x1F AND DUP3 ADD SWAP2 JUMPDEST POP POP POP POP POP SWAP1 POP DUP4 JUMP JUMPDEST PUSH1 0x3 PUSH1 0x0 PUSH2 0x74F SWAP2 SWAP1 PUSH2 0x16FA JUMP JUMPDEST PUSH1 0x0 JUMPDEST DUP3 MLOAD DUP2 LT ISZERO PUSH2 0x89D JUMPI PUSH1 0x0 PUSH1 0x40 MLOAD DUP1 PUSH1 0x60 ADD PUSH1 0x40 MSTORE DUP1 DUP6 DUP5 DUP2 MLOAD DUP2 LT PUSH2 0x77B JUMPI PUSH2 0x77A PUSH2 0x20BC JUMP JUMPDEST JUMPDEST PUSH1 0x20 MUL PUSH1 0x20 ADD ADD MLOAD PUSH1 0x0 DUP2 MLOAD DUP2 LT PUSH2 0x796 JUMPI PUSH2 0x795 PUSH2 0x20BC JUMP JUMPDEST JUMPDEST PUSH1 0x20 MUL PUSH1 0x20 ADD ADD MLOAD DUP2 MSTORE PUSH1 0x20 ADD DUP6 DUP5 DUP2 MLOAD DUP2 LT PUSH2 0x7B6 JUMPI PUSH2 0x7B5 PUSH2 0x20BC JUMP JUMPDEST JUMPDEST PUSH1 0x20 MUL PUSH1 0x20 ADD ADD MLOAD PUSH1 0x1 DUP2 MLOAD DUP2 LT PUSH2 0x7D1 JUMPI PUSH2 0x7D0 PUSH2 0x20BC JUMP JUMPDEST JUMPDEST PUSH1 0x20 MUL PUSH1 0x20 ADD ADD MLOAD DUP2 MSTORE PUSH1 0x20 ADD DUP6 DUP5 DUP2 MLOAD DUP2 LT PUSH2 0x7F1 JUMPI PUSH2 0x7F0 PUSH2 0x20BC JUMP JUMPDEST JUMPDEST PUSH1 0x20 MUL PUSH1 0x20 ADD ADD MLOAD PUSH1 0x2 DUP2 MLOAD DUP2 LT PUSH2 0x80C JUMPI PUSH2 0x80B PUSH2 0x20BC JUMP JUMPDEST JUMPDEST PUSH1 0x20 MUL PUSH1 0x20 ADD ADD MLOAD DUP2 MSTORE POP SWAP1 POP PUSH1 0x3 DUP2 SWAP1 DUP1 PUSH1 0x1 DUP2 SLOAD ADD DUP1 DUP3 SSTORE DUP1 SWAP2 POP POP PUSH1 0x1 SWAP1 SUB SWAP1 PUSH1 0x0 MSTORE PUSH1 0x20 PUSH1 0x0 KECCAK256 SWAP1 PUSH1 0x3 MUL ADD PUSH1 0x0 SWAP1 SWAP2 SWAP1 SWAP2 SWAP1 SWAP2 POP PUSH1 0x0 DUP3 ADD MLOAD DUP2 PUSH1 0x0 ADD SWAP1 DUP2 PUSH2 0x85A SWAP2 SWAP1 PUSH2 0x2297 JUMP JUMPDEST POP PUSH1 0x20 DUP3 ADD MLOAD DUP2 PUSH1 0x1 ADD SWAP1 DUP2 PUSH2 0x870 SWAP2 SWAP1 PUSH2 0x2297 JUMP JUMPDEST POP PUSH1 0x40 DUP3 ADD MLOAD DUP2 PUSH1 0x2 ADD SWAP1 DUP2 PUSH2 0x886 SWAP2 SWAP1 PUSH2 0x2297 JUMP JUMPDEST POP POP POP POP DUP1 DUP1 PUSH2 0x895 SWAP1 PUSH2 0x2398 JUMP JUMPDEST SWAP2 POP POP PUSH2 0x752 JUMP JUMPDEST POP PUSH1 0x4 PUSH1 0x0 PUSH2 0x8AC SWAP2 SWAP1 PUSH2 0x171E JUMP JUMPDEST PUSH1 0x0 JUMPDEST DUP2 MLOAD DUP2 LT ISZERO PUSH2 0x9FA JUMPI PUSH1 0x0 PUSH1 0x40 MLOAD DUP1 PUSH1 0x60 ADD PUSH1 0x40 MSTORE DUP1 DUP5 DUP5 DUP2 MLOAD DUP2 LT PUSH2 0x8D8 JUMPI PUSH2 0x8D7 PUSH2 0x20BC JUMP JUMPDEST JUMPDEST PUSH1 0x20 MUL PUSH1 0x20 ADD ADD MLOAD PUSH1 0x0 DUP2 MLOAD DUP2 LT PUSH2 0x8F3 JUMPI PUSH2 0x8F2 PUSH2 0x20BC JUMP JUMPDEST JUMPDEST PUSH1 0x20 MUL PUSH1 0x20 ADD ADD MLOAD DUP2 MSTORE PUSH1 0x20 ADD DUP5 DUP5 DUP2 MLOAD DUP2 LT PUSH2 0x913 JUMPI PUSH2 0x912 PUSH2 0x20BC JUMP JUMPDEST JUMPDEST PUSH1 0x20 MUL PUSH1 0x20 ADD ADD MLOAD PUSH1 0x1 DUP2 MLOAD DUP2 LT PUSH2 0x92E JUMPI PUSH2 0x92D PUSH2 0x20BC JUMP JUMPDEST JUMPDEST PUSH1 0x20 MUL PUSH1 0x20 ADD ADD MLOAD DUP2 MSTORE PUSH1 0x20 ADD DUP5 DUP5 DUP2 MLOAD DUP2 LT PUSH2 0x94E JUMPI PUSH2 0x94D PUSH2 0x20BC JUMP JUMPDEST JUMPDEST PUSH1 0x20 MUL PUSH1 0x20 ADD ADD MLOAD PUSH1 0x2 DUP2 MLOAD DUP2 LT PUSH2 0x969 JUMPI PUSH2 0x968 PUSH2 0x20BC JUMP JUMPDEST JUMPDEST PUSH1 0x20 MUL PUSH1 0x20 ADD ADD MLOAD DUP2 MSTORE POP SWAP1 POP PUSH1 0x4 DUP2 SWAP1 DUP1 PUSH1 0x1 DUP2 SLOAD ADD DUP1 DUP3 SSTORE DUP1 SWAP2 POP POP PUSH1 0x1 SWAP1 SUB SWAP1 PUSH1 0x0 MSTORE PUSH1 0x20 PUSH1 0x0 KECCAK256 SWAP1 PUSH1 0x3 MUL ADD PUSH1 0x0 SWAP1 SWAP2 SWAP1 SWAP2 SWAP1 SWAP2 POP PUSH1 0x0 DUP3 ADD MLOAD DUP2 PUSH1 0x0 ADD SWAP1 DUP2 PUSH2 0x9B7 SWAP2 SWAP1 PUSH2 0x2297 JUMP JUMPDEST POP PUSH1 0x20 DUP3 ADD MLOAD DUP2 PUSH1 0x1 ADD SWAP1 DUP2 PUSH2 0x9CD SWAP2 SWAP1 PUSH2 0x2297 JUMP JUMPDEST POP PUSH1 0x40 DUP3 ADD MLOAD DUP2 PUSH1 0x2 ADD SWAP1 DUP2 PUSH2 0x9E3 SWAP2 SWAP1 PUSH2 0x2297 JUMP JUMPDEST POP POP POP POP DUP1 DUP1 PUSH2 0x9F2 SWAP1 PUSH2 0x2398 JUMP JUMPDEST SWAP2 POP POP PUSH2 0x8AF JUMP JUMPDEST POP POP POP JUMP JUMPDEST PUSH1 0x60 DUP1 PUSH1 0x3 PUSH1 0x4 DUP2 DUP1 SLOAD DUP1 PUSH1 0x20 MUL PUSH1 0x20 ADD PUSH1 0x40 MLOAD SWAP1 DUP2 ADD PUSH1 0x40 MSTORE DUP1 SWAP3 SWAP2 SWAP1 DUP2 DUP2 MSTORE PUSH1 0x20 ADD PUSH1 0x0 SWAP1 JUMPDEST DUP3 DUP3 LT ISZERO PUSH2 0xC0F JUMPI DUP4 DUP3 SWAP1 PUSH1 0x0 MSTORE PUSH1 0x20 PUSH1 0x0 KECCAK256 SWAP1 PUSH1 0x3 MUL ADD PUSH1 0x40 MLOAD DUP1 PUSH1 0x60 ADD PUSH1 0x40 MSTORE SWAP1 DUP2 PUSH1 0x0 DUP3 ADD DUP1 SLOAD PUSH2 0xA5A SWAP1 PUSH2 0x208B JUMP JUMPDEST DUP1 PUSH1 0x1F ADD PUSH1 0x20 DUP1 SWAP2 DIV MUL PUSH1 0x20 ADD PUSH1 0x40 MLOAD SWAP1 DUP2 ADD PUSH1 0x40 MSTORE DUP1 SWAP3 SWAP2 SWAP1 DUP2 DUP2 MSTORE PUSH1 0x20 ADD DUP3 DUP1 SLOAD PUSH2 0xA86 SWAP1 PUSH2 0x208B JUMP JUMPDEST DUP1 ISZERO PUSH2 0xAD3 JUMPI DUP1 PUSH1 0x1F LT PUSH2 0xAA8 JUMPI PUSH2 0x100 DUP1 DUP4 SLOAD DIV MUL DUP4 MSTORE SWAP2 PUSH1 0x20 ADD SWAP2 PUSH2 0xAD3 JUMP JUMPDEST DUP3 ADD SWAP2 SWAP1 PUSH1 0x0 MSTORE PUSH1 0x20 PUSH1 0x0 KECCAK256 SWAP1 JUMPDEST DUP2 SLOAD DUP2 MSTORE SWAP1 PUSH1 0x1 ADD SWAP1 PUSH1 0x20 ADD DUP1 DUP4 GT PUSH2 0xAB6 JUMPI DUP3 SWAP1 SUB PUSH1 0x1F AND DUP3 ADD SWAP2 JUMPDEST POP POP POP POP POP DUP2 MSTORE PUSH1 0x20 ADD PUSH1 0x1 DUP3 ADD DUP1 SLOAD PUSH2 0xAEC SWAP1 PUSH2 0x208B JUMP JUMPDEST DUP1 PUSH1 0x1F ADD PUSH1 0x20 DUP1 SWAP2 DIV MUL PUSH1 0x20 ADD PUSH1 0x40 MLOAD SWAP1 DUP2 ADD PUSH1 0x40 MSTORE DUP1 SWAP3 SWAP2 SWAP1 DUP2 DUP2 MSTORE PUSH1 0x20 ADD DUP3 DUP1 SLOAD PUSH2 0xB18 SWAP1 PUSH2 0x208B JUMP JUMPDEST DUP1 ISZERO PUSH2 0xB65 JUMPI DUP1 PUSH1 0x1F LT PUSH2 0xB3A JUMPI PUSH2 0x100 DUP1 DUP4 SLOAD DIV MUL DUP4 MSTORE SWAP2 PUSH1 0x20 ADD SWAP2 PUSH2 0xB65 JUMP JUMPDEST DUP3 ADD SWAP2 SWAP1 PUSH1 0x0 MSTORE PUSH1 0x20 PUSH1 0x0 KECCAK256 SWAP1 JUMPDEST DUP2 SLOAD DUP2 MSTORE SWAP1 PUSH1 0x1 ADD SWAP1 PUSH1 0x20 ADD DUP1 DUP4 GT PUSH2 0xB48 JUMPI DUP3 SWAP1 SUB PUSH1 0x1F AND DUP3 ADD SWAP2 JUMPDEST POP POP POP POP POP DUP2 MSTORE PUSH1 0x20 ADD PUSH1 0x2 DUP3 ADD DUP1 SLOAD PUSH2 0xB7E SWAP1 PUSH2 0x208B JUMP JUMPDEST DUP1 PUSH1 0x1F ADD PUSH1 0x20 DUP1 SWAP2 DIV MUL PUSH1 0x20 ADD PUSH1 0x40 MLOAD SWAP1 DUP2 ADD PUSH1 0x40 MSTORE DUP1 SWAP3 SWAP2 SWAP1 DUP2 DUP2 MSTORE PUSH1 0x20 ADD DUP3 DUP1 SLOAD PUSH2 0xBAA SWAP1 PUSH2 0x208B JUMP JUMPDEST DUP1 ISZERO PUSH2 0xBF7 JUMPI DUP1 PUSH1 0x1F LT PUSH2 0xBCC JUMPI PUSH2 0x100 DUP1 DUP4 SLOAD DIV MUL DUP4 MSTORE SWAP2 PUSH1 0x20 ADD SWAP2 PUSH2 0xBF7 JUMP JUMPDEST DUP3 ADD SWAP2 SWAP1 PUSH1 0x0 MSTORE PUSH1 0x20 PUSH1 0x0 KECCAK256 SWAP1 JUMPDEST DUP2 SLOAD DUP2 MSTORE SWAP1 PUSH1 0x1 ADD SWAP1 PUSH1 0x20 ADD DUP1 DUP4 GT PUSH2 0xBDA JUMPI DUP3 SWAP1 SUB PUSH1 0x1F AND DUP3 ADD SWAP2 JUMPDEST POP POP POP POP POP DUP2 MSTORE POP POP DUP2 MSTORE PUSH1 0x20 ADD SWAP1 PUSH1 0x1 ADD SWAP1 PUSH2 0xA27 JUMP JUMPDEST POP POP POP POP SWAP2 POP DUP1 DUP1 SLOAD DUP1 PUSH1 0x20 MUL PUSH1 0x20 ADD PUSH1 0x40 MLOAD SWAP1 DUP2 ADD PUSH1 0x40 MSTORE DUP1 SWAP3 SWAP2 SWAP1 DUP2 DUP2 MSTORE PUSH1 0x20 ADD PUSH1 0x0 SWAP1 JUMPDEST DUP3 DUP3 LT ISZERO PUSH2 0xE1E JUMPI DUP4 DUP3 SWAP1 PUSH1 0x0 MSTORE PUSH1 0x20 PUSH1 0x0 KECCAK256 SWAP1 PUSH1 0x3 MUL ADD PUSH1 0x40 MLOAD DUP1 PUSH1 0x60 ADD PUSH1 0x40 MSTORE SWAP1 DUP2 PUSH1 0x0 DUP3 ADD DUP1 SLOAD PUSH2 0xC69 SWAP1 PUSH2 0x208B JUMP JUMPDEST DUP1 PUSH1 0x1F ADD PUSH1 0x20 DUP1 SWAP2 DIV MUL PUSH1 0x20 ADD PUSH1 0x40 MLOAD SWAP1 DUP2 ADD PUSH1 0x40 MSTORE DUP1 SWAP3 SWAP2 SWAP1 DUP2 DUP2 MSTORE PUSH1 0x20 ADD DUP3 DUP1 SLOAD PUSH2 0xC95 SWAP1 PUSH2 0x208B JUMP JUMPDEST DUP1 ISZERO PUSH2 0xCE2 JUMPI DUP1 PUSH1 0x1F LT PUSH2 0xCB7 JUMPI PUSH2 0x100 DUP1 DUP4 SLOAD DIV MUL DUP4 MSTORE SWAP2 PUSH1 0x20 ADD SWAP2 PUSH2 0xCE2 JUMP JUMPDEST DUP3 ADD SWAP2 SWAP1 PUSH1 0x0 MSTORE PUSH1 0x20 PUSH1 0x0 KECCAK256 SWAP1 JUMPDEST DUP2 SLOAD DUP2 MSTORE SWAP1 PUSH1 0x1 ADD SWAP1 PUSH1 0x20 ADD DUP1 DUP4 GT PUSH2 0xCC5 JUMPI DUP3 SWAP1 SUB PUSH1 0x1F AND DUP3 ADD SWAP2 JUMPDEST POP POP POP POP POP DUP2 MSTORE PUSH1 0x20 ADD PUSH1 0x1 DUP3 ADD DUP1 SLOAD PUSH2 0xCFB SWAP1 PUSH2 0x208B JUMP JUMPDEST DUP1 PUSH1 0x1F ADD PUSH1 0x20 DUP1 SWAP2 DIV MUL PUSH1 0x20 ADD PUSH1 0x40 MLOAD SWAP1 DUP2 ADD PUSH1 0x40 MSTORE DUP1 SWAP3 SWAP2 SWAP1 DUP2 DUP2 MSTORE PUSH1 0x20 ADD DUP3 DUP1 SLOAD PUSH2 0xD27 SWAP1 PUSH2 0x208B JUMP JUMPDEST DUP1 ISZERO PUSH2 0xD74 JUMPI DUP1 PUSH1 0x1F LT PUSH2 0xD49 JUMPI PUSH2 0x100 DUP1 DUP4 SLOAD DIV MUL DUP4 MSTORE SWAP2 PUSH1 0x20 ADD SWAP2 PUSH2 0xD74 JUMP JUMPDEST DUP3 ADD SWAP2 SWAP1 PUSH1 0x0 MSTORE PUSH1 0x20 PUSH1 0x0 KECCAK256 SWAP1 JUMPDEST DUP2 SLOAD DUP2 MSTORE SWAP1 PUSH1 0x1 ADD SWAP1 PUSH1 0x20 ADD DUP1 DUP4 GT PUSH2 0xD57 JUMPI DUP3 SWAP1 SUB PUSH1 0x1F AND DUP3 ADD SWAP2 JUMPDEST POP POP POP POP POP DUP2 MSTORE PUSH1 0x20 ADD PUSH1 0x2 DUP3 ADD DUP1 SLOAD PUSH2 0xD8D SWAP1 PUSH2 0x208B JUMP JUMPDEST DUP1 PUSH1 0x1F ADD PUSH1 0x20 DUP1 SWAP2 DIV MUL PUSH1 0x20 ADD PUSH1 0x40 MLOAD SWAP1 DUP2 ADD PUSH1 0x40 MSTORE DUP1 SWAP3 SWAP2 SWAP1 DUP2 DUP2 MSTORE PUSH1 0x20 ADD DUP3 DUP1 SLOAD PUSH2 0xDB9 SWAP1 PUSH2 0x208B JUMP JUMPDEST DUP1 ISZERO PUSH2 0xE06 JUMPI DUP1 PUSH1 0x1F LT PUSH2 0xDDB JUMPI PUSH2 0x100 DUP1 DUP4 SLOAD DIV MUL DUP4 MSTORE SWAP2 PUSH1 0x20 ADD SWAP2 PUSH2 0xE06 JUMP JUMPDEST DUP3 ADD SWAP2 SWAP1 PUSH1 0x0 MSTORE PUSH1 0x20 PUSH1 0x0 KECCAK256 SWAP1 JUMPDEST DUP2 SLOAD DUP2 MSTORE SWAP1 PUSH1 0x1 ADD SWAP1 PUSH1 0x20 ADD DUP1 DUP4 GT PUSH2 0xDE9 JUMPI DUP3 SWAP1 SUB PUSH1 0x1F AND DUP3 ADD SWAP2 JUMPDEST POP POP POP POP POP DUP2 MSTORE POP POP DUP2 MSTORE PUSH1 0x20 ADD SWAP1 PUSH1 0x1 ADD SWAP1 PUSH2 0xC36 JUMP JUMPDEST POP POP POP POP SWAP1 POP SWAP2 POP SWAP2 POP SWAP1 SWAP2 JUMP JUMPDEST DUP3 PUSH1 0x0 SWAP1 DUP2 PUSH2 0xE3B SWAP2 SWAP1 PUSH2 0x2297 JUMP JUMPDEST POP PUSH1 0x1 PUSH1 0x0 PUSH2 0xE4A SWAP2 SWAP1 PUSH2 0x16FA JUMP JUMPDEST PUSH1 0x0 JUMPDEST DUP3 MLOAD DUP2 LT ISZERO PUSH2 0xF98 JUMPI PUSH1 0x0 PUSH1 0x40 MLOAD DUP1 PUSH1 0x60 ADD PUSH1 0x40 MSTORE DUP1 DUP6 DUP5 DUP2 MLOAD DUP2 LT PUSH2 0xE76 JUMPI PUSH2 0xE75 PUSH2 0x20BC JUMP JUMPDEST JUMPDEST PUSH1 0x20 MUL PUSH1 0x20 ADD ADD MLOAD PUSH1 0x0 DUP2 MLOAD DUP2 LT PUSH2 0xE91 JUMPI PUSH2 0xE90 PUSH2 0x20BC JUMP JUMPDEST JUMPDEST PUSH1 0x20 MUL PUSH1 0x20 ADD ADD MLOAD DUP2 MSTORE PUSH1 0x20 ADD DUP6 DUP5 DUP2 MLOAD DUP2 LT PUSH2 0xEB1 JUMPI PUSH2 0xEB0 PUSH2 0x20BC JUMP JUMPDEST JUMPDEST PUSH1 0x20 MUL PUSH1 0x20 ADD ADD MLOAD PUSH1 0x1 DUP2 MLOAD DUP2 LT PUSH2 0xECC JUMPI PUSH2 0xECB PUSH2 0x20BC JUMP JUMPDEST JUMPDEST PUSH1 0x20 MUL PUSH1 0x20 ADD ADD MLOAD DUP2 MSTORE PUSH1 0x20 ADD DUP6 DUP5 DUP2 MLOAD DUP2 LT PUSH2 0xEEC JUMPI PUSH2 0xEEB PUSH2 0x20BC JUMP JUMPDEST JUMPDEST PUSH1 0x20 MUL PUSH1 0x20 ADD ADD MLOAD PUSH1 0x2 DUP2 MLOAD DUP2 LT PUSH2 0xF07 JUMPI PUSH2 0xF06 PUSH2 0x20BC JUMP JUMPDEST JUMPDEST PUSH1 0x20 MUL PUSH1 0x20 ADD ADD MLOAD DUP2 MSTORE POP SWAP1 POP PUSH1 0x1 DUP2 SWAP1 DUP1 PUSH1 0x1 DUP2 SLOAD ADD DUP1 DUP3 SSTORE DUP1 SWAP2 POP POP PUSH1 0x1 SWAP1 SUB SWAP1 PUSH1 0x0 MSTORE PUSH1 0x20 PUSH1 0x0 KECCAK256 SWAP1 PUSH1 0x3 MUL ADD PUSH1 0x0 SWAP1 SWAP2 SWAP1 SWAP2 SWAP1 SWAP2 POP PUSH1 0x0 DUP3 ADD MLOAD DUP2 PUSH1 0x0 ADD SWAP1 DUP2 PUSH2 0xF55 SWAP2 SWAP1 PUSH2 0x2297 JUMP JUMPDEST POP PUSH1 0x20 DUP3 ADD MLOAD DUP2 PUSH1 0x1 ADD SWAP1 DUP2 PUSH2 0xF6B SWAP2 SWAP1 PUSH2 0x2297 JUMP JUMPDEST POP PUSH1 0x40 DUP3 ADD MLOAD DUP2 PUSH1 0x2 ADD SWAP1 DUP2 PUSH2 0xF81 SWAP2 SWAP1 PUSH2 0x2297 JUMP JUMPDEST POP POP POP POP DUP1 DUP1 PUSH2 0xF90 SWAP1 PUSH2 0x2398 JUMP JUMPDEST SWAP2 POP POP PUSH2 0xE4D JUMP JUMPDEST POP PUSH1 0x2 PUSH1 0x0 PUSH2 0xFA7 SWAP2 SWAP1 PUSH2 0x171E JUMP JUMPDEST PUSH1 0x0 JUMPDEST DUP2 MLOAD DUP2 LT ISZERO PUSH2 0x10F5 JUMPI PUSH1 0x0 PUSH1 0x40 MLOAD DUP1 PUSH1 0x60 ADD PUSH1 0x40 MSTORE DUP1 DUP5 DUP5 DUP2 MLOAD DUP2 LT PUSH2 0xFD3 JUMPI PUSH2 0xFD2 PUSH2 0x20BC JUMP JUMPDEST JUMPDEST PUSH1 0x20 MUL PUSH1 0x20 ADD ADD MLOAD PUSH1 0x0 DUP2 MLOAD DUP2 LT PUSH2 0xFEE JUMPI PUSH2 0xFED PUSH2 0x20BC JUMP JUMPDEST JUMPDEST PUSH1 0x20 MUL PUSH1 0x20 ADD ADD MLOAD DUP2 MSTORE PUSH1 0x20 ADD DUP5 DUP5 DUP2 MLOAD DUP2 LT PUSH2 0x100E JUMPI PUSH2 0x100D PUSH2 0x20BC JUMP JUMPDEST JUMPDEST PUSH1 0x20 MUL PUSH1 0x20 ADD ADD MLOAD PUSH1 0x1 DUP2 MLOAD DUP2 LT PUSH2 0x1029 JUMPI PUSH2 0x1028 PUSH2 0x20BC JUMP JUMPDEST JUMPDEST PUSH1 0x20 MUL PUSH1 0x20 ADD ADD MLOAD DUP2 MSTORE PUSH1 0x20 ADD DUP5 DUP5 DUP2 MLOAD DUP2 LT PUSH2 0x1049 JUMPI PUSH2 0x1048 PUSH2 0x20BC JUMP JUMPDEST JUMPDEST PUSH1 0x20 MUL PUSH1 0x20 ADD ADD MLOAD PUSH1 0x2 DUP2 MLOAD DUP2 LT PUSH2 0x1064 JUMPI PUSH2 0x1063 PUSH2 0x20BC JUMP JUMPDEST JUMPDEST PUSH1 0x20 MUL PUSH1 0x20 ADD ADD MLOAD DUP2 MSTORE POP SWAP1 POP PUSH1 0x2 DUP2 SWAP1 DUP1 PUSH1 0x1 DUP2 SLOAD ADD DUP1 DUP3 SSTORE DUP1 SWAP2 POP POP PUSH1 0x1 SWAP1 SUB SWAP1 PUSH1 0x0 MSTORE PUSH1 0x20 PUSH1 0x0 KECCAK256 SWAP1 PUSH1 0x3 MUL ADD PUSH1 0x0 SWAP1 SWAP2 SWAP1 SWAP2 SWAP1 SWAP2 POP PUSH1 0x0 DUP3 ADD MLOAD DUP2 PUSH1 0x0 ADD SWAP1 DUP2 PUSH2 0x10B2 SWAP2 SWAP1 PUSH2 0x2297 JUMP JUMPDEST POP PUSH1 0x20 DUP3 ADD MLOAD DUP2 PUSH1 0x1 ADD SWAP1 DUP2 PUSH2 0x10C8 SWAP2 SWAP1 PUSH2 0x2297 JUMP JUMPDEST POP PUSH1 0x40 DUP3 ADD MLOAD DUP2 PUSH1 0x2 ADD SWAP1 DUP2 PUSH2 0x10DE SWAP2 SWAP1 PUSH2 0x2297 JUMP JUMPDEST POP POP POP POP DUP1 DUP1 PUSH2 0x10ED SWAP1 PUSH2 0x2398 JUMP JUMPDEST SWAP2 POP POP PUSH2 0xFAA JUMP JUMPDEST POP POP POP POP JUMP JUMPDEST PUSH1 0x60 DUP1 PUSH1 0x1 PUSH1 0x2 DUP2 DUP1 SLOAD DUP1 PUSH1 0x20 MUL PUSH1 0x20 ADD PUSH1 0x40 MLOAD SWAP1 DUP2 ADD PUSH1 0x40 MSTORE DUP1 SWAP3 SWAP2 SWAP1 DUP2 DUP2 MSTORE PUSH1 0x20 ADD PUSH1 0x0 SWAP1 JUMPDEST DUP3 DUP3 LT ISZERO PUSH2 0x130B JUMPI DUP4 DUP3 SWAP1 PUSH1 0x0 MSTORE PUSH1 0x20 PUSH1 0x0 KECCAK256 SWAP1 PUSH1 0x3 MUL ADD PUSH1 0x40 MLOAD DUP1 PUSH1 0x60 ADD PUSH1 0x40 MSTORE SWAP1 DUP2 PUSH1 0x0 DUP3 ADD DUP1 SLOAD PUSH2 0x1156 SWAP1 PUSH2 0x208B JUMP JUMPDEST DUP1 PUSH1 0x1F ADD PUSH1 0x20 DUP1 SWAP2 DIV MUL PUSH1 0x20 ADD PUSH1 0x40 MLOAD SWAP1 DUP2 ADD PUSH1 0x40 MSTORE DUP1 SWAP3 SWAP2 SWAP1 DUP2 DUP2 MSTORE PUSH1 0x20 ADD DUP3 DUP1 SLOAD PUSH2 0x1182 SWAP1 PUSH2 0x208B JUMP JUMPDEST DUP1 ISZERO PUSH2 0x11CF JUMPI DUP1 PUSH1 0x1F LT PUSH2 0x11A4 JUMPI PUSH2 0x100 DUP1 DUP4 SLOAD DIV MUL DUP4 MSTORE SWAP2 PUSH1 0x20 ADD SWAP2 PUSH2 0x11CF JUMP JUMPDEST DUP3 ADD SWAP2 SWAP1 PUSH1 0x0 MSTORE PUSH1 0x20 PUSH1 0x0 KECCAK256 SWAP1 JUMPDEST DUP2 SLOAD DUP2 MSTORE SWAP1 PUSH1 0x1 ADD SWAP1 PUSH1 0x20 ADD DUP1 DUP4 GT PUSH2 0x11B2 JUMPI DUP3 SWAP1 SUB PUSH1 0x1F AND DUP3 ADD SWAP2 JUMPDEST POP POP POP POP POP DUP2 MSTORE PUSH1 0x20 ADD PUSH1 0x1 DUP3 ADD DUP1 SLOAD PUSH2 0x11E8 SWAP1 PUSH2 0x208B JUMP JUMPDEST DUP1 PUSH1 0x1F ADD PUSH1 0x20 DUP1 SWAP2 DIV MUL PUSH1 0x20 ADD PUSH1 0x40 MLOAD SWAP1 DUP2 ADD PUSH1 0x40 MSTORE DUP1 SWAP3 SWAP2 SWAP1 DUP2 DUP2 MSTORE PUSH1 0x20 ADD DUP3 DUP1 SLOAD PUSH2 0x1214 SWAP1 PUSH2 0x208B JUMP JUMPDEST DUP1 ISZERO PUSH2 0x1261 JUMPI DUP1 PUSH1 0x1F LT PUSH2 0x1236 JUMPI PUSH2 0x100 DUP1 DUP4 SLOAD DIV MUL DUP4 MSTORE SWAP2 PUSH1 0x20 ADD SWAP2 PUSH2 0x1261 JUMP JUMPDEST DUP3 ADD SWAP2 SWAP1 PUSH1 0x0 MSTORE PUSH1 0x20 PUSH1 0x0 KECCAK256 SWAP1 JUMPDEST DUP2 SLOAD DUP2 MSTORE SWAP1 PUSH1 0x1 ADD SWAP1 PUSH1 0x20 ADD DUP1 DUP4 GT PUSH2 0x1244 JUMPI DUP3 SWAP1 SUB PUSH1 0x1F AND DUP3 ADD SWAP2 JUMPDEST POP POP POP POP POP DUP2 MSTORE PUSH1 0x20 ADD PUSH1 0x2 DUP3 ADD DUP1 SLOAD PUSH2 0x127A SWAP1 PUSH2 0x208B JUMP JUMPDEST DUP1 PUSH1 0x1F ADD PUSH1 0x20 DUP1 SWAP2 DIV MUL PUSH1 0x20 ADD PUSH1 0x40 MLOAD SWAP1 DUP2 ADD PUSH1 0x40 MSTORE DUP1 SWAP3 SWAP2 SWAP1 DUP2 DUP2 MSTORE PUSH1 0x20 ADD DUP3 DUP1 SLOAD PUSH2 0x12A6 SWAP1 PUSH2 0x208B JUMP JUMPDEST DUP1 ISZERO PUSH2 0x12F3 JUMPI DUP1 PUSH1 0x1F LT PUSH2 0x12C8 JUMPI PUSH2 0x100 DUP1 DUP4 SLOAD DIV MUL DUP4 MSTORE SWAP2 PUSH1 0x20 ADD SWAP2 PUSH2 0x12F3 JUMP JUMPDEST DUP3 ADD SWAP2 SWAP1 PUSH1 0x0 MSTORE PUSH1 0x20 PUSH1 0x0 KECCAK256 SWAP1 JUMPDEST DUP2 SLOAD DUP2 MSTORE SWAP1 PUSH1 0x1 ADD SWAP1 PUSH1 0x20 ADD DUP1 DUP4 GT PUSH2 0x12D6 JUMPI DUP3 SWAP1 SUB PUSH1 0x1F AND DUP3 ADD SWAP2 JUMPDEST POP POP POP POP POP DUP2 MSTORE POP POP DUP2 MSTORE PUSH1 0x20 ADD SWAP1 PUSH1 0x1 ADD SWAP1 PUSH2 0x1123 JUMP JUMPDEST POP POP POP POP SWAP2 POP DUP1 DUP1 SLOAD DUP1 PUSH1 0x20 MUL PUSH1 0x20 ADD PUSH1 0x40 MLOAD SWAP1 DUP2 ADD PUSH1 0x40 MSTORE DUP1 SWAP3 SWAP2 SWAP1 DUP2 DUP2 MSTORE PUSH1 0x20 ADD PUSH1 0x0 SWAP1 JUMPDEST DUP3 DUP3 LT ISZERO PUSH2 0x151A JUMPI DUP4 DUP3 SWAP1 PUSH1 0x0 MSTORE PUSH1 0x20 PUSH1 0x0 KECCAK256 SWAP1 PUSH1 0x3 MUL ADD PUSH1 0x40 MLOAD DUP1 PUSH1 0x60 ADD PUSH1 0x40 MSTORE SWAP1 DUP2 PUSH1 0x0 DUP3 ADD DUP1 SLOAD PUSH2 0x1365 SWAP1 PUSH2 0x208B JUMP JUMPDEST DUP1 PUSH1 0x1F ADD PUSH1 0x20 DUP1 SWAP2 DIV MUL PUSH1 0x20 ADD PUSH1 0x40 MLOAD SWAP1 DUP2 ADD PUSH1 0x40 MSTORE DUP1 SWAP3 SWAP2 SWAP1 DUP2 DUP2 MSTORE PUSH1 0x20 ADD DUP3 DUP1 SLOAD PUSH2 0x1391 SWAP1 PUSH2 0x208B JUMP JUMPDEST DUP1 ISZERO PUSH2 0x13DE JUMPI DUP1 PUSH1 0x1F LT PUSH2 0x13B3 JUMPI PUSH2 0x100 DUP1 DUP4 SLOAD DIV MUL DUP4 MSTORE SWAP2 PUSH1 0x20 ADD SWAP2 PUSH2 0x13DE JUMP JUMPDEST DUP3 ADD SWAP2 SWAP1 PUSH1 0x0 MSTORE PUSH1 0x20 PUSH1 0x0 KECCAK256 SWAP1 JUMPDEST DUP2 SLOAD DUP2 MSTORE SWAP1 PUSH1 0x1 ADD SWAP1 PUSH1 0x20 ADD DUP1 DUP4 GT PUSH2 0x13C1 JUMPI DUP3 SWAP1 SUB PUSH1 0x1F AND DUP3 ADD SWAP2 JUMPDEST POP POP POP POP POP DUP2 MSTORE PUSH1 0x20 ADD PUSH1 0x1 DUP3 ADD DUP1 SLOAD PUSH2 0x13F7 SWAP1 PUSH2 0x208B JUMP JUMPDEST DUP1 PUSH1 0x1F ADD PUSH1 0x20 DUP1 SWAP2 DIV MUL PUSH1 0x20 ADD PUSH1 0x40 MLOAD SWAP1 DUP2 ADD PUSH1 0x40 MSTORE DUP1 SWAP3 SWAP2 SWAP1 DUP2 DUP2 MSTORE PUSH1 0x20 ADD DUP3 DUP1 SLOAD PUSH2 0x1423 SWAP1 PUSH2 0x208B JUMP JUMPDEST DUP1 ISZERO PUSH2 0x1470 JUMPI DUP1 PUSH1 0x1F LT PUSH2 0x1445 JUMPI PUSH2 0x100 DUP1 DUP4 SLOAD DIV MUL DUP4 MSTORE SWAP2 PUSH1 0x20 ADD SWAP2 PUSH2 0x1470 JUMP JUMPDEST DUP3 ADD SWAP2 SWAP1 PUSH1 0x0 MSTORE PUSH1 0x20 PUSH1 0x0 KECCAK256 SWAP1 JUMPDEST DUP2 SLOAD DUP2 MSTORE SWAP1 PUSH1 0x1 ADD SWAP1 PUSH1 0x20 ADD DUP1 DUP4 GT PUSH2 0x1453 JUMPI DUP3 SWAP1 SUB PUSH1 0x1F AND DUP3 ADD SWAP2 JUMPDEST POP POP POP POP POP DUP2 MSTORE PUSH1 0x20 ADD PUSH1 0x2 DUP3 ADD DUP1 SLOAD PUSH2 0x1489 SWAP1 PUSH2 0x208B JUMP JUMPDEST DUP1 PUSH1 0x1F ADD PUSH1 0x20 DUP1 SWAP2 DIV MUL PUSH1 0x20 ADD PUSH1 0x40 MLOAD SWAP1 DUP2 ADD PUSH1 0x40 MSTORE DUP1 SWAP3 SWAP2 SWAP1 DUP2 DUP2 MSTORE PUSH1 0x20 ADD DUP3 DUP1 SLOAD PUSH2 0x14B5 SWAP1 PUSH2 0x208B JUMP JUMPDEST DUP1 ISZERO PUSH2 0x1502 JUMPI DUP1 PUSH1 0x1F LT PUSH2 0x14D7 JUMPI PUSH2 0x100 DUP1 DUP4 SLOAD DIV MUL DUP4 MSTORE SWAP2 PUSH1 0x20 ADD SWAP2 PUSH2 0x1502 JUMP JUMPDEST DUP3 ADD SWAP2 SWAP1 PUSH1 0x0 MSTORE PUSH1 0x20 PUSH1 0x0 KECCAK256 SWAP1 JUMPDEST DUP2 SLOAD DUP2 MSTORE SWAP1 PUSH1 0x1 ADD SWAP1 PUSH1 0x20 ADD DUP1 DUP4 GT PUSH2 0x14E5 JUMPI DUP3 SWAP1 SUB PUSH1 0x1F AND DUP3 ADD SWAP2 JUMPDEST POP POP POP POP POP DUP2 MSTORE POP POP DUP2 MSTORE PUSH1 0x20 ADD SWAP1 PUSH1 0x1 ADD SWAP1 PUSH2 0x1332 JUMP JUMPDEST POP POP POP POP SWAP1 POP SWAP2 POP SWAP2 POP SWAP1 SWAP2 JUMP JUMPDEST PUSH1 0x1 DUP2 DUP2 SLOAD DUP2 LT PUSH2 0x1538 JUMPI PUSH1 0x0 DUP1 REVERT JUMPDEST SWAP1 PUSH1 0x0 MSTORE PUSH1 0x20 PUSH1 0x0 KECCAK256 SWAP1 PUSH1 0x3 MUL ADD PUSH1 0x0 SWAP2 POP SWAP1 POP DUP1 PUSH1 0x0 ADD DUP1 SLOAD PUSH2 0x155B SWAP1 PUSH2 0x208B JUMP JUMPDEST DUP1 PUSH1 0x1F ADD PUSH1 0x20 DUP1 SWAP2 DIV MUL PUSH1 0x20 ADD PUSH1 0x40 MLOAD SWAP1 DUP2 ADD PUSH1 0x40 MSTORE DUP1 SWAP3 SWAP2 SWAP1 DUP2 DUP2 MSTORE PUSH1 0x20 ADD DUP3 DUP1 SLOAD PUSH2 0x1587 SWAP1 PUSH2 0x208B JUMP JUMPDEST DUP1 ISZERO PUSH2 0x15D4 JUMPI DUP1 PUSH1 0x1F LT PUSH2 0x15A9 JUMPI PUSH2 0x100 DUP1 DUP4 SLOAD DIV MUL DUP4 MSTORE SWAP2 PUSH1 0x20 ADD SWAP2 PUSH2 0x15D4 JUMP JUMPDEST DUP3 ADD SWAP2 SWAP1 PUSH1 0x0 MSTORE PUSH1 0x20 PUSH1 0x0 KECCAK256 SWAP1 JUMPDEST DUP2 SLOAD DUP2 MSTORE SWAP1 PUSH1 0x1 ADD SWAP1 PUSH1 0x20 ADD DUP1 DUP4 GT PUSH2 0x15B7 JUMPI DUP3 SWAP1 SUB PUSH1 0x1F AND DUP3 ADD SWAP2 JUMPDEST POP POP POP POP POP SWAP1 DUP1 PUSH1 0x1 ADD DUP1 SLOAD PUSH2 0x15E9 SWAP1 PUSH2 0x208B JUMP JUMPDEST DUP1 PUSH1 0x1F ADD PUSH1 0x20 DUP1 SWAP2 DIV MUL PUSH1 0x20 ADD PUSH1 0x40 MLOAD SWAP1 DUP2 ADD PUSH1 0x40 MSTORE DUP1 SWAP3 SWAP2 SWAP1 DUP2 DUP2 MSTORE PUSH1 0x20 ADD DUP3 DUP1 SLOAD PUSH2 0x1615 SWAP1 PUSH2 0x208B JUMP JUMPDEST DUP1 ISZERO PUSH2 0x1662 JUMPI DUP1 PUSH1 0x1F LT PUSH2 0x1637 JUMPI PUSH2 0x100 DUP1 DUP4 SLOAD DIV MUL DUP4 MSTORE SWAP2 PUSH1 0x20 ADD SWAP2 PUSH2 0x1662 JUMP JUMPDEST DUP3 ADD SWAP2 SWAP1 PUSH1 0x0 MSTORE PUSH1 0x20 PUSH1 0x0 KECCAK256 SWAP1 JUMPDEST DUP2 SLOAD DUP2 MSTORE SWAP1 PUSH1 0x1 ADD SWAP1 PUSH1 0x20 ADD DUP1 DUP4 GT PUSH2 0x1645 JUMPI DUP3 SWAP1 SUB PUSH1 0x1F AND DUP3 ADD SWAP2 JUMPDEST POP POP POP POP POP SWAP1 DUP1 PUSH1 0x2 ADD DUP1 SLOAD PUSH2 0x1677 SWAP1 PUSH2 0x208B JUMP JUMPDEST DUP1 PUSH1 0x1F ADD PUSH1 0x20 DUP1 SWAP2 DIV MUL PUSH1 0x20 ADD PUSH1 0x40 MLOAD SWAP1 DUP2 ADD PUSH1 0x40 MSTORE DUP1 SWAP3 SWAP2 SWAP1 DUP2 DUP2 MSTORE PUSH1 0x20 ADD DUP3 DUP1 SLOAD PUSH2 0x16A3 SWAP1 PUSH2 0x208B JUMP JUMPDEST DUP1 ISZERO PUSH2 0x16F0 JUMPI DUP1 PUSH1 0x1F LT PUSH2 0x16C5 JUMPI PUSH2 0x100 DUP1 DUP4 SLOAD DIV MUL DUP4 MSTORE SWAP2 PUSH1 0x20 ADD SWAP2 PUSH2 0x16F0 JUMP JUMPDEST DUP3 ADD SWAP2 SWAP1 PUSH1 0x0 MSTORE PUSH1 0x20 PUSH1 0x0 KECCAK256 SWAP1 JUMPDEST DUP2 SLOAD DUP2 MSTORE SWAP1 PUSH1 0x1 ADD SWAP1 PUSH1 0x20 ADD DUP1 DUP4 GT PUSH2 0x16D3 JUMPI DUP3 SWAP1 SUB PUSH1 0x1F AND DUP3 ADD SWAP2 JUMPDEST POP POP POP POP POP SWAP1 POP DUP4 JUMP JUMPDEST POP DUP1 SLOAD PUSH1 0x0 DUP3 SSTORE PUSH1 0x3 MUL SWAP1 PUSH1 0x0 MSTORE PUSH1 0x20 PUSH1 0x0 KECCAK256 SWAP1 DUP2 ADD SWAP1 PUSH2 0x171B SWAP2 SWAP1 PUSH2 0x1742 JUMP JUMPDEST POP JUMP JUMPDEST POP DUP1 SLOAD PUSH1 0x0 DUP3 SSTORE PUSH1 0x3 MUL SWAP1 PUSH1 0x0 MSTORE PUSH1 0x20 PUSH1 0x0 KECCAK256 SWAP1 DUP2 ADD SWAP1 PUSH2 0x173F SWAP2 SWAP1 PUSH2 0x1789 JUMP JUMPDEST POP JUMP JUMPDEST JUMPDEST DUP1 DUP3 GT ISZERO PUSH2 0x1785 JUMPI PUSH1 0x0 DUP1 DUP3 ADD PUSH1 0x0 PUSH2 0x175C SWAP2 SWAP1 PUSH2 0x17D0 JUMP JUMPDEST PUSH1 0x1 DUP3 ADD PUSH1 0x0 PUSH2 0x176C SWAP2 SWAP1 PUSH2 0x17D0 JUMP JUMPDEST PUSH1 0x2 DUP3 ADD PUSH1 0x0 PUSH2 0x177C SWAP2 SWAP1 PUSH2 0x17D0 JUMP JUMPDEST POP PUSH1 0x3 ADD PUSH2 0x1743 JUMP JUMPDEST POP SWAP1 JUMP JUMPDEST JUMPDEST DUP1 DUP3 GT ISZERO PUSH2 0x17CC JUMPI PUSH1 0x0 DUP1 DUP3 ADD PUSH1 0x0 PUSH2 0x17A3 SWAP2 SWAP1 PUSH2 0x17D0 JUMP JUMPDEST PUSH1 0x1 DUP3 ADD PUSH1 0x0 PUSH2 0x17B3 SWAP2 SWAP1 PUSH2 0x17D0 JUMP JUMPDEST PUSH1 0x2 DUP3 ADD PUSH1 0x0 PUSH2 0x17C3 SWAP2 SWAP1 PUSH2 0x17D0 JUMP JUMPDEST POP PUSH1 0x3 ADD PUSH2 0x178A JUMP JUMPDEST POP SWAP1 JUMP JUMPDEST POP DUP1 SLOAD PUSH2 0x17DC SWAP1 PUSH2 0x208B JUMP JUMPDEST PUSH1 0x0 DUP3 SSTORE DUP1 PUSH1 0x1F LT PUSH2 0x17EE JUMPI POP PUSH2 0x180D JUMP JUMPDEST PUSH1 0x1F ADD PUSH1 0x20 SWAP1 DIV SWAP1 PUSH1 0x0 MSTORE PUSH1 0x20 PUSH1 0x0 KECCAK256 SWAP1 DUP2 ADD SWAP1 PUSH2 0x180C SWAP2 SWAP1 PUSH2 0x1810 JUMP JUMPDEST JUMPDEST POP JUMP JUMPDEST JUMPDEST DUP1 DUP3 GT ISZERO PUSH2 0x1829 JUMPI PUSH1 0x0 DUP2 PUSH1 0x0 SWAP1 SSTORE POP PUSH1 0x1 ADD PUSH2 0x1811 JUMP JUMPDEST POP SWAP1 JUMP JUMPDEST PUSH1 0x0 PUSH1 0x40 MLOAD SWAP1 POP SWAP1 JUMP JUMPDEST PUSH1 0x0 DUP1 REVERT JUMPDEST PUSH1 0x0 DUP1 REVERT JUMPDEST PUSH1 0x0 DUP2 SWAP1 POP SWAP2 SWAP1 POP JUMP JUMPDEST PUSH2 0x1854 DUP2 PUSH2 0x1841 JUMP JUMPDEST DUP2 EQ PUSH2 0x185F JUMPI PUSH1 0x0 DUP1 REVERT JUMPDEST POP JUMP JUMPDEST PUSH1 0x0 DUP2 CALLDATALOAD SWAP1 POP PUSH2 0x1871 DUP2 PUSH2 0x184B JUMP JUMPDEST SWAP3 SWAP2 POP POP JUMP JUMPDEST PUSH1 0x0 PUSH1 0x20 DUP3 DUP5 SUB SLT ISZERO PUSH2 0x188D JUMPI PUSH2 0x188C PUSH2 0x1837 JUMP JUMPDEST JUMPDEST PUSH1 0x0 PUSH2 0x189B DUP5 DUP3 DUP6 ADD PUSH2 0x1862 JUMP JUMPDEST SWAP2 POP POP SWAP3 SWAP2 POP POP JUMP JUMPDEST PUSH1 0x0 DUP2 MLOAD SWAP1 POP SWAP2 SWAP1 POP JUMP JUMPDEST PUSH1 0x0 DUP3 DUP3 MSTORE PUSH1 0x20 DUP3 ADD SWAP1 POP SWAP3 SWAP2 POP POP JUMP JUMPDEST PUSH1 0x0 JUMPDEST DUP4 DUP2 LT ISZERO PUSH2 0x18DE JUMPI DUP1 DUP3 ADD MLOAD DUP2 DUP5 ADD MSTORE PUSH1 0x20 DUP2 ADD SWAP1 POP PUSH2 0x18C3 JUMP JUMPDEST PUSH1 0x0 DUP5 DUP5 ADD MSTORE POP POP POP POP JUMP JUMPDEST PUSH1 0x0 PUSH1 0x1F NOT PUSH1 0x1F DUP4 ADD AND SWAP1 POP SWAP2 SWAP1 POP JUMP JUMPDEST PUSH1 0x0 PUSH2 0x1906 DUP3 PUSH2 0x18A4 JUMP JUMPDEST PUSH2 0x1910 DUP2 DUP6 PUSH2 0x18AF JUMP JUMPDEST SWAP4 POP PUSH2 0x1920 DUP2 DUP6 PUSH1 0x20 DUP7 ADD PUSH2 0x18C0 JUMP JUMPDEST PUSH2 0x1929 DUP2 PUSH2 0x18EA JUMP JUMPDEST DUP5 ADD SWAP2 POP POP SWAP3 SWAP2 POP POP JUMP JUMPDEST PUSH1 0x0 PUSH1 0x60 DUP3 ADD SWAP1 POP DUP2 DUP2 SUB PUSH1 0x0 DUP4 ADD MSTORE PUSH2 0x194E DUP2 DUP7 PUSH2 0x18FB JUMP JUMPDEST SWAP1 POP DUP2 DUP2 SUB PUSH1 0x20 DUP4 ADD MSTORE PUSH2 0x1962 DUP2 DUP6 PUSH2 0x18FB JUMP JUMPDEST SWAP1 POP DUP2 DUP2 SUB PUSH1 0x40 DUP4 ADD MSTORE PUSH2 0x1976 DUP2 DUP5 PUSH2 0x18FB JUMP JUMPDEST SWAP1 POP SWAP5 SWAP4 POP POP POP POP JUMP JUMPDEST PUSH1 0x0 DUP1 REVERT JUMPDEST PUSH32 0x4E487B7100000000000000000000000000000000000000000000000000000000 PUSH1 0x0 MSTORE PUSH1 0x41 PUSH1 0x4 MSTORE PUSH1 0x24 PUSH1 0x0 REVERT JUMPDEST PUSH2 0x19BD DUP3 PUSH2 0x18EA JUMP JUMPDEST DUP2 ADD DUP2 DUP2 LT PUSH8 0xFFFFFFFFFFFFFFFF DUP3 GT OR ISZERO PUSH2 0x19DC JUMPI PUSH2 0x19DB PUSH2 0x1985 JUMP JUMPDEST JUMPDEST DUP1 PUSH1 0x40 MSTORE POP POP POP JUMP JUMPDEST PUSH1 0x0 PUSH2 0x19EF PUSH2 0x182D JUMP JUMPDEST SWAP1 POP PUSH2 0x19FB DUP3 DUP3 PUSH2 0x19B4 JUMP JUMPDEST SWAP2 SWAP1 POP JUMP JUMPDEST PUSH1 0x0 PUSH8 0xFFFFFFFFFFFFFFFF DUP3 GT ISZERO PUSH2 0x1A1B JUMPI PUSH2 0x1A1A PUSH2 0x1985 JUMP JUMPDEST JUMPDEST PUSH1 0x20 DUP3 MUL SWAP1 POP PUSH1 0x20 DUP2 ADD SWAP1 POP SWAP2 SWAP1 POP JUMP JUMPDEST PUSH1 0x0 DUP1 REVERT JUMPDEST PUSH1 0x0 PUSH8 0xFFFFFFFFFFFFFFFF DUP3 GT ISZERO PUSH2 0x1A4C JUMPI PUSH2 0x1A4B PUSH2 0x1985 JUMP JUMPDEST JUMPDEST PUSH1 0x20 DUP3 MUL SWAP1 POP PUSH1 0x20 DUP2 ADD SWAP1 POP SWAP2 SWAP1 POP JUMP JUMPDEST PUSH1 0x0 DUP1 REVERT JUMPDEST PUSH1 0x0 PUSH8 0xFFFFFFFFFFFFFFFF DUP3 GT ISZERO PUSH2 0x1A7D JUMPI PUSH2 0x1A7C PUSH2 0x1985 JUMP JUMPDEST JUMPDEST PUSH2 0x1A86 DUP3 PUSH2 0x18EA JUMP JUMPDEST SWAP1 POP PUSH1 0x20 DUP2 ADD SWAP1 POP SWAP2 SWAP1 POP JUMP JUMPDEST DUP3 DUP2 DUP4 CALLDATACOPY PUSH1 0x0 DUP4 DUP4 ADD MSTORE POP POP POP JUMP JUMPDEST PUSH1 0x0 PUSH2 0x1AB5 PUSH2 0x1AB0 DUP5 PUSH2 0x1A62 JUMP JUMPDEST PUSH2 0x19E5 JUMP JUMPDEST SWAP1 POP DUP3 DUP2 MSTORE PUSH1 0x20 DUP2 ADD DUP5 DUP5 DUP5 ADD GT ISZERO PUSH2 0x1AD1 JUMPI PUSH2 0x1AD0 PUSH2 0x1A5D JUMP JUMPDEST JUMPDEST PUSH2 0x1ADC DUP5 DUP3 DUP6 PUSH2 0x1A93 JUMP JUMPDEST POP SWAP4 SWAP3 POP POP POP JUMP JUMPDEST PUSH1 0x0 DUP3 PUSH1 0x1F DUP4 ADD SLT PUSH2 0x1AF9 JUMPI PUSH2 0x1AF8 PUSH2 0x1980 JUMP JUMPDEST JUMPDEST DUP2 CALLDATALOAD PUSH2 0x1B09 DUP5 DUP3 PUSH1 0x20 DUP7 ADD PUSH2 0x1AA2 JUMP JUMPDEST SWAP2 POP POP SWAP3 SWAP2 POP POP JUMP JUMPDEST PUSH1 0x0 PUSH2 0x1B25 PUSH2 0x1B20 DUP5 PUSH2 0x1A31 JUMP JUMPDEST PUSH2 0x19E5 JUMP JUMPDEST SWAP1 POP DUP1 DUP4 DUP3 MSTORE PUSH1 0x20 DUP3 ADD SWAP1 POP PUSH1 0x20 DUP5 MUL DUP4 ADD DUP6 DUP2 GT ISZERO PUSH2 0x1B48 JUMPI PUSH2 0x1B47 PUSH2 0x1A2C JUMP JUMPDEST JUMPDEST DUP4 JUMPDEST DUP2 DUP2 LT ISZERO PUSH2 0x1B8F JUMPI DUP1 CALLDATALOAD PUSH8 0xFFFFFFFFFFFFFFFF DUP2 GT ISZERO PUSH2 0x1B6D JUMPI PUSH2 0x1B6C PUSH2 0x1980 JUMP JUMPDEST JUMPDEST DUP1 DUP7 ADD PUSH2 0x1B7A DUP10 DUP3 PUSH2 0x1AE4 JUMP JUMPDEST DUP6 MSTORE PUSH1 0x20 DUP6 ADD SWAP5 POP POP POP PUSH1 0x20 DUP2 ADD SWAP1 POP PUSH2 0x1B4A JUMP JUMPDEST POP POP POP SWAP4 SWAP3 POP POP POP JUMP JUMPDEST PUSH1 0x0 DUP3 PUSH1 0x1F DUP4 ADD SLT PUSH2 0x1BAE JUMPI PUSH2 0x1BAD PUSH2 0x1980 JUMP JUMPDEST JUMPDEST DUP2 CALLDATALOAD PUSH2 0x1BBE DUP5 DUP3 PUSH1 0x20 DUP7 ADD PUSH2 0x1B12 JUMP JUMPDEST SWAP2 POP POP SWAP3 SWAP2 POP POP JUMP JUMPDEST PUSH1 0x0 PUSH2 0x1BDA PUSH2 0x1BD5 DUP5 PUSH2 0x1A00 JUMP JUMPDEST PUSH2 0x19E5 JUMP JUMPDEST SWAP1 POP DUP1 DUP4 DUP3 MSTORE PUSH1 0x20 DUP3 ADD SWAP1 POP PUSH1 0x20 DUP5 MUL DUP4 ADD DUP6 DUP2 GT ISZERO PUSH2 0x1BFD JUMPI PUSH2 0x1BFC PUSH2 0x1A2C JUMP JUMPDEST JUMPDEST DUP4 JUMPDEST DUP2 DUP2 LT ISZERO PUSH2 0x1C44 JUMPI DUP1 CALLDATALOAD PUSH8 0xFFFFFFFFFFFFFFFF DUP2 GT ISZERO PUSH2 0x1C22 JUMPI PUSH2 0x1C21 PUSH2 0x1980 JUMP JUMPDEST JUMPDEST DUP1 DUP7 ADD PUSH2 0x1C2F DUP10 DUP3 PUSH2 0x1B99 JUMP JUMPDEST DUP6 MSTORE PUSH1 0x20 DUP6 ADD SWAP5 POP POP POP PUSH1 0x20 DUP2 ADD SWAP1 POP PUSH2 0x1BFF JUMP JUMPDEST POP POP POP SWAP4 SWAP3 POP POP POP JUMP JUMPDEST PUSH1 0x0 DUP3 PUSH1 0x1F DUP4 ADD SLT PUSH2 0x1C63 JUMPI PUSH2 0x1C62 PUSH2 0x1980 JUMP JUMPDEST JUMPDEST DUP2 CALLDATALOAD PUSH2 0x1C73 DUP5 DUP3 PUSH1 0x20 DUP7 ADD PUSH2 0x1BC7 JUMP JUMPDEST SWAP2 POP POP SWAP3 SWAP2 POP POP JUMP JUMPDEST PUSH1 0x0 DUP1 PUSH1 0x40 DUP4 DUP6 SUB SLT ISZERO PUSH2 0x1C93 JUMPI PUSH2 0x1C92 PUSH2 0x1837 JUMP JUMPDEST JUMPDEST PUSH1 0x0 DUP4 ADD CALLDATALOAD PUSH8 0xFFFFFFFFFFFFFFFF DUP2 GT ISZERO PUSH2 0x1CB1 JUMPI PUSH2 0x1CB0 PUSH2 0x183C JUMP JUMPDEST JUMPDEST PUSH2 0x1CBD DUP6 DUP3 DUP7 ADD PUSH2 0x1C4E JUMP JUMPDEST SWAP3 POP POP PUSH1 0x20 DUP4 ADD CALLDATALOAD PUSH8 0xFFFFFFFFFFFFFFFF DUP2 GT ISZERO PUSH2 0x1CDE JUMPI PUSH2 0x1CDD PUSH2 0x183C JUMP JUMPDEST JUMPDEST PUSH2 0x1CEA DUP6 DUP3 DUP7 ADD PUSH2 0x1C4E JUMP JUMPDEST SWAP2 POP POP SWAP3 POP SWAP3 SWAP1 POP JUMP JUMPDEST PUSH1 0x0 DUP2 MLOAD SWAP1 POP SWAP2 SWAP1 POP JUMP JUMPDEST PUSH1 0x0 DUP3 DUP3 MSTORE PUSH1 0x20 DUP3 ADD SWAP1 POP SWAP3 SWAP2 POP POP JUMP JUMPDEST PUSH1 0x0 DUP2 SWAP1 POP PUSH1 0x20 DUP3 ADD SWAP1 POP SWAP2 SWAP1 POP JUMP JUMPDEST PUSH1 0x0 DUP3 DUP3 MSTORE PUSH1 0x20 DUP3 ADD SWAP1 POP SWAP3 SWAP2 POP POP JUMP JUMPDEST PUSH1 0x0 PUSH2 0x1D3C DUP3 PUSH2 0x18A4 JUMP JUMPDEST PUSH2 0x1D46 DUP2 DUP6 PUSH2 0x1D20 JUMP JUMPDEST SWAP4 POP PUSH2 0x1D56 DUP2 DUP6 PUSH1 0x20 DUP7 ADD PUSH2 0x18C0 JUMP JUMPDEST PUSH2 0x1D5F DUP2 PUSH2 0x18EA JUMP JUMPDEST DUP5 ADD SWAP2 POP POP SWAP3 SWAP2 POP POP JUMP JUMPDEST PUSH1 0x0 PUSH1 0x60 DUP4 ADD PUSH1 0x0 DUP4 ADD MLOAD DUP5 DUP3 SUB PUSH1 0x0 DUP7 ADD MSTORE PUSH2 0x1D87 DUP3 DUP3 PUSH2 0x1D31 JUMP JUMPDEST SWAP2 POP POP PUSH1 0x20 DUP4 ADD MLOAD DUP5 DUP3 SUB PUSH1 0x20 DUP7 ADD MSTORE PUSH2 0x1DA1 DUP3 DUP3 PUSH2 0x1D31 JUMP JUMPDEST SWAP2 POP POP PUSH1 0x40 DUP4 ADD MLOAD DUP5 DUP3 SUB PUSH1 0x40 DUP7 ADD MSTORE PUSH2 0x1DBB DUP3 DUP3 PUSH2 0x1D31 JUMP JUMPDEST SWAP2 POP POP DUP1 SWAP2 POP POP SWAP3 SWAP2 POP POP JUMP JUMPDEST PUSH1 0x0 PUSH2 0x1DD4 DUP4 DUP4 PUSH2 0x1D6A JUMP JUMPDEST SWAP1 POP SWAP3 SWAP2 POP POP JUMP JUMPDEST PUSH1 0x0 PUSH1 0x20 DUP3 ADD SWAP1 POP SWAP2 SWAP1 POP JUMP JUMPDEST PUSH1 0x0 PUSH2 0x1DF4 DUP3 PUSH2 0x1CF4 JUMP JUMPDEST PUSH2 0x1DFE DUP2 DUP6 PUSH2 0x1CFF JUMP JUMPDEST SWAP4 POP DUP4 PUSH1 0x20 DUP3 MUL DUP6 ADD PUSH2 0x1E10 DUP6 PUSH2 0x1D10 JUMP JUMPDEST DUP1 PUSH1 0x0 JUMPDEST DUP6 DUP2 LT ISZERO PUSH2 0x1E4C JUMPI DUP5 DUP5 SUB DUP10 MSTORE DUP2 MLOAD PUSH2 0x1E2D DUP6 DUP3 PUSH2 0x1DC8 JUMP JUMPDEST SWAP5 POP PUSH2 0x1E38 DUP4 PUSH2 0x1DDC JUMP JUMPDEST SWAP3 POP PUSH1 0x20 DUP11 ADD SWAP10 POP POP PUSH1 0x1 DUP2 ADD SWAP1 POP PUSH2 0x1E14 JUMP JUMPDEST POP DUP3 SWAP8 POP DUP8 SWAP6 POP POP POP POP POP POP SWAP3 SWAP2 POP POP JUMP JUMPDEST PUSH1 0x0 DUP2 MLOAD SWAP1 POP SWAP2 SWAP1 POP JUMP JUMPDEST PUSH1 0x0 DUP3 DUP3 MSTORE PUSH1 0x20 DUP3 ADD SWAP1 POP SWAP3 SWAP2 POP POP JUMP JUMPDEST PUSH1 0x0 DUP2 SWAP1 POP PUSH1 0x20 DUP3 ADD SWAP1 POP SWAP2 SWAP1 POP JUMP JUMPDEST PUSH1 0x0 PUSH1 0x60 DUP4 ADD PUSH1 0x0 DUP4 ADD MLOAD DUP5 DUP3 SUB PUSH1 0x0 DUP7 ADD MSTORE PUSH2 0x1EA7 DUP3 DUP3 PUSH2 0x1D31 JUMP JUMPDEST SWAP2 POP POP PUSH1 0x20 DUP4 ADD MLOAD DUP5 DUP3 SUB PUSH1 0x20 DUP7 ADD MSTORE PUSH2 0x1EC1 DUP3 DUP3 PUSH2 0x1D31 JUMP JUMPDEST SWAP2 POP POP PUSH1 0x40 DUP4 ADD MLOAD DUP5 DUP3 SUB PUSH1 0x40 DUP7 ADD MSTORE PUSH2 0x1EDB DUP3 DUP3 PUSH2 0x1D31 JUMP JUMPDEST SWAP2 POP POP DUP1 SWAP2 POP POP SWAP3 SWAP2 POP POP JUMP JUMPDEST PUSH1 0x0 PUSH2 0x1EF4 DUP4 DUP4 PUSH2 0x1E8A JUMP JUMPDEST SWAP1 POP SWAP3 SWAP2 POP POP JUMP JUMPDEST PUSH1 0x0 PUSH1 0x20 DUP3 ADD SWAP1 POP SWAP2 SWAP1 POP JUMP JUMPDEST PUSH1 0x0 PUSH2 0x1F14 DUP3 PUSH2 0x1E5E JUMP JUMPDEST PUSH2 0x1F1E DUP2 DUP6 PUSH2 0x1E69 JUMP JUMPDEST SWAP4 POP DUP4 PUSH1 0x20 DUP3 MUL DUP6 ADD PUSH2 0x1F30 DUP6 PUSH2 0x1E7A JUMP JUMPDEST DUP1 PUSH1 0x0 JUMPDEST DUP6 DUP2 LT ISZERO PUSH2 0x1F6C JUMPI DUP5 DUP5 SUB DUP10 MSTORE DUP2 MLOAD PUSH2 0x1F4D DUP6 DUP3 PUSH2 0x1EE8 JUMP JUMPDEST SWAP5 POP PUSH2 0x1F58 DUP4 PUSH2 0x1EFC JUMP JUMPDEST SWAP3 POP PUSH1 0x20 DUP11 ADD SWAP10 POP POP PUSH1 0x1 DUP2 ADD SWAP1 POP PUSH2 0x1F34 JUMP JUMPDEST POP DUP3 SWAP8 POP DUP8 SWAP6 POP POP POP POP POP POP SWAP3 SWAP2 POP POP JUMP JUMPDEST PUSH1 0x0 PUSH1 0x40 DUP3 ADD SWAP1 POP DUP2 DUP2 SUB PUSH1 0x0 DUP4 ADD MSTORE PUSH2 0x1F98 DUP2 DUP6 PUSH2 0x1DE9 JUMP JUMPDEST SWAP1 POP DUP2 DUP2 SUB PUSH1 0x20 DUP4 ADD MSTORE PUSH2 0x1FAC DUP2 DUP5 PUSH2 0x1F09 JUMP JUMPDEST SWAP1 POP SWAP4 SWAP3 POP POP POP JUMP JUMPDEST PUSH1 0x0 DUP1 PUSH1 0x0 PUSH1 0x60 DUP5 DUP7 SUB SLT ISZERO PUSH2 0x1FCE JUMPI PUSH2 0x1FCD PUSH2 0x1837 JUMP JUMPDEST JUMPDEST PUSH1 0x0 DUP5 ADD CALLDATALOAD PUSH8 0xFFFFFFFFFFFFFFFF DUP2 GT ISZERO PUSH2 0x1FEC JUMPI PUSH2 0x1FEB PUSH2 0x183C JUMP JUMPDEST JUMPDEST PUSH2 0x1FF8 DUP7 DUP3 DUP8 ADD PUSH2 0x1AE4 JUMP JUMPDEST SWAP4 POP POP PUSH1 0x20 DUP5 ADD CALLDATALOAD PUSH8 0xFFFFFFFFFFFFFFFF DUP2 GT ISZERO PUSH2 0x2019 JUMPI PUSH2 0x2018 PUSH2 0x183C JUMP JUMPDEST JUMPDEST PUSH2 0x2025 DUP7 DUP3 DUP8 ADD PUSH2 0x1C4E JUMP JUMPDEST SWAP3 POP POP PUSH1 0x40 DUP5 ADD CALLDATALOAD PUSH8 0xFFFFFFFFFFFFFFFF DUP2 GT ISZERO PUSH2 0x2046 JUMPI PUSH2 0x2045 PUSH2 0x183C JUMP JUMPDEST JUMPDEST PUSH2 0x2052 DUP7 DUP3 DUP8 ADD PUSH2 0x1C4E JUMP JUMPDEST SWAP2 POP POP SWAP3 POP SWAP3 POP SWAP3 JUMP JUMPDEST PUSH32 0x4E487B7100000000000000000000000000000000000000000000000000000000 PUSH1 0x0 MSTORE PUSH1 0x22 PUSH1 0x4 MSTORE PUSH1 0x24 PUSH1 0x0 REVERT JUMPDEST PUSH1 0x0 PUSH1 0x2 DUP3 DIV SWAP1 POP PUSH1 0x1 DUP3 AND DUP1 PUSH2 0x20A3 JUMPI PUSH1 0x7F DUP3 AND SWAP2 POP JUMPDEST PUSH1 0x20 DUP3 LT DUP2 SUB PUSH2 0x20B6 JUMPI PUSH2 0x20B5 PUSH2 0x205C JUMP JUMPDEST JUMPDEST POP SWAP2 SWAP1 POP JUMP JUMPDEST PUSH32 0x4E487B7100000000000000000000000000000000000000000000000000000000 PUSH1 0x0 MSTORE PUSH1 0x32 PUSH1 0x4 MSTORE PUSH1 0x24 PUSH1 0x0 REVERT JUMPDEST PUSH1 0x0 DUP2 SWAP1 POP DUP2 PUSH1 0x0 MSTORE PUSH1 0x20 PUSH1 0x0 KECCAK256 SWAP1 POP SWAP2 SWAP1 POP JUMP JUMPDEST PUSH1 0x0 PUSH1 0x20 PUSH1 0x1F DUP4 ADD DIV SWAP1 POP SWAP2 SWAP1 POP JUMP JUMPDEST PUSH1 0x0 DUP3 DUP3 SHL SWAP1 POP SWAP3 SWAP2 POP POP JUMP JUMPDEST PUSH1 0x0 PUSH1 0x8 DUP4 MUL PUSH2 0x214D PUSH32 0xFFFFFFFFFFFFFFFFFFFFFFFFFFFFFFFFFFFFFFFFFFFFFFFFFFFFFFFFFFFFFFFF DUP3 PUSH2 0x2110 JUMP JUMPDEST PUSH2 0x2157 DUP7 DUP4 PUSH2 0x2110 JUMP JUMPDEST SWAP6 POP DUP1 NOT DUP5 AND SWAP4 POP DUP1 DUP7 AND DUP5 OR SWAP3 POP POP POP SWAP4 SWAP3 POP POP POP JUMP JUMPDEST PUSH1 0x0 DUP2 SWAP1 POP SWAP2 SWAP1 POP JUMP JUMPDEST PUSH1 0x0 PUSH2 0x2194 PUSH2 0x218F PUSH2 0x218A DUP5 PUSH2 0x1841 JUMP JUMPDEST PUSH2 0x216F JUMP JUMPDEST PUSH2 0x1841 JUMP JUMPDEST SWAP1 POP SWAP2 SWAP1 POP JUMP JUMPDEST PUSH1 0x0 DUP2 SWAP1 POP SWAP2 SWAP1 POP JUMP JUMPDEST PUSH2 0x21AE DUP4 PUSH2 0x2179 JUMP JUMPDEST PUSH2 0x21C2 PUSH2 0x21BA DUP3 PUSH2 0x219B JUMP JUMPDEST DUP5 DUP5 SLOAD PUSH2 0x211D JUMP JUMPDEST DUP3 SSTORE POP POP POP POP JUMP JUMPDEST PUSH1 0x0 SWAP1 JUMP JUMPDEST PUSH2 0x21D7 PUSH2 0x21CA JUMP JUMPDEST PUSH2 0x21E2 DUP2 DUP5 DUP5 PUSH2 0x21A5 JUMP JUMPDEST POP POP POP JUMP JUMPDEST JUMPDEST DUP2 DUP2 LT ISZERO PUSH2 0x2206 JUMPI PUSH2 0x21FB PUSH1 0x0 DUP3 PUSH2 0x21CF JUMP JUMPDEST PUSH1 0x1 DUP2 ADD SWAP1 POP PUSH2 0x21E8 JUMP JUMPDEST POP POP JUMP JUMPDEST PUSH1 0x1F DUP3 GT ISZERO PUSH2 0x224B JUMPI PUSH2 0x221C DUP2 PUSH2 0x20EB JUMP JUMPDEST PUSH2 0x2225 DUP5 PUSH2 0x2100 JUMP JUMPDEST DUP2 ADD PUSH1 0x20 DUP6 LT ISZERO PUSH2 0x2234 JUMPI DUP2 SWAP1 POP JUMPDEST PUSH2 0x2248 PUSH2 0x2240 DUP6 PUSH2 0x2100 JUMP JUMPDEST DUP4 ADD DUP3 PUSH2 0x21E7 JUMP JUMPDEST POP POP JUMPDEST POP POP POP JUMP JUMPDEST PUSH1 0x0 DUP3 DUP3 SHR SWAP1 POP SWAP3 SWAP2 POP POP JUMP JUMPDEST PUSH1 0x0 PUSH2 0x226E PUSH1 0x0 NOT DUP5 PUSH1 0x8 MUL PUSH2 0x2250 JUMP JUMPDEST NOT DUP1 DUP4 AND SWAP2 POP POP SWAP3 SWAP2 POP POP JUMP JUMPDEST PUSH1 0x0 PUSH2 0x2287 DUP4 DUP4 PUSH2 0x225D JUMP JUMPDEST SWAP2 POP DUP3 PUSH1 0x2 MUL DUP3 OR SWAP1 POP SWAP3 SWAP2 POP POP JUMP JUMPDEST PUSH2 0x22A0 DUP3 PUSH2 0x18A4 JUMP JUMPDEST PUSH8 0xFFFFFFFFFFFFFFFF DUP2 GT ISZERO PUSH2 0x22B9 JUMPI PUSH2 0x22B8 PUSH2 0x1985 JUMP JUMPDEST JUMPDEST PUSH2 0x22C3 DUP3 SLOAD PUSH2 0x208B JUMP JUMPDEST PUSH2 0x22CE DUP3 DUP3 DUP6 PUSH2 0x220A JUMP JUMPDEST PUSH1 0x0 PUSH1 0x20 SWAP1 POP PUSH1 0x1F DUP4 GT PUSH1 0x1 DUP2 EQ PUSH2 0x2301 JUMPI PUSH1 0x0 DUP5 ISZERO PUSH2 0x22EF JUMPI DUP3 DUP8 ADD MLOAD SWAP1 POP JUMPDEST PUSH2 0x22F9 DUP6 DUP3 PUSH2 0x227B JUMP JUMPDEST DUP7 SSTORE POP PUSH2 0x2361 JUMP JUMPDEST PUSH1 0x1F NOT DUP5 AND PUSH2 0x230F DUP7 PUSH2 0x20EB JUMP JUMPDEST PUSH1 0x0 JUMPDEST DUP3 DUP2 LT ISZERO PUSH2 0x2337 JUMPI DUP5 DUP10 ADD MLOAD DUP3 SSTORE PUSH1 0x1 DUP3 ADD SWAP2 POP PUSH1 0x20 DUP6 ADD SWAP5 POP PUSH1 0x20 DUP2 ADD SWAP1 POP PUSH2 0x2312 JUMP JUMPDEST DUP7 DUP4 LT ISZERO PUSH2 0x2354 JUMPI DUP5 DUP10 ADD MLOAD PUSH2 0x2350 PUSH1 0x1F DUP10 AND DUP3 PUSH2 0x225D JUMP JUMPDEST DUP4 SSTORE POP JUMPDEST PUSH1 0x1 PUSH1 0x2 DUP9 MUL ADD DUP9 SSTORE POP POP POP JUMPDEST POP POP POP POP POP POP JUMP JUMPDEST PUSH32 0x4E487B7100000000000000000000000000000000000000000000000000000000 PUSH1 0x0 MSTORE PUSH1 0x11 PUSH1 0x4 MSTORE PUSH1 0x24 PUSH1 0x0 REVERT JUMPDEST PUSH1 0x0 PUSH2 0x23A3 DUP3 PUSH2 0x1841 JUMP JUMPDEST SWAP2 POP PUSH32 0xFFFFFFFFFFFFFFFFFFFFFFFFFFFFFFFFFFFFFFFFFFFFFFFFFFFFFFFFFFFFFFFF DUP3 SUB PUSH2 0x23D5 JUMPI PUSH2 0x23D4 PUSH2 0x2369 JUMP JUMPDEST JUMPDEST PUSH1 0x1 DUP3 ADD SWAP1 POP SWAP2 SWAP1 POP JUMP INVALID LOG2 PUSH5 0x6970667358 0x22 SLT KECCAK256 DUP14 DUP11 0xB5 DIV DUP9 SHR NOT PUSH4 0x17DCA391 0xB5 DUP1 0xD0 0xB5 LOG0 0x25 RETURNDATASIZE JUMP PUSH7 0xA6360C2A446D69 CALL GASLIMIT 0xC6 GT PUSH5 0x736F6C6343 STOP ADDMOD SLT STOP CALLER "
				},
				"gasEstimates": {
					"creation": {
						"codeDepositCost": "1847600",
						"executionCost": "1948",
						"totalCost": "1849548"
					},
					"external": {
						"bugs_arr(uint256)": "infinite",
						"features_arr(uint256)": "infinite",
						"previousReq()": "infinite",
						"send_list()": "infinite",
						"toAdmin(string,string[][],string[][])": "infinite",
						"unChecked(string[][],string[][])": "infinite",
						"unselectedBugs(uint256)": "infinite",
						"unselectedFeatures(uint256)": "infinite"
					}
				},
				"methodIdentifiers": {
					"bugs_arr(uint256)": "ded1166c",
					"features_arr(uint256)": "5faa043d",
					"previousReq()": "7c0a6fc1",
					"send_list()": "b87dff89",
					"toAdmin(string,string[][],string[][])": "ac0799e5",
					"unChecked(string[][],string[][])": "64e815fd",
					"unselectedBugs(uint256)": "2548d05d",
					"unselectedFeatures(uint256)": "4d1ba790"
				}
			},
			"storageLayout": {
				"storage": [
					{
						"astId": 17,
						"contract": "CurrentRequest.sol:Developer",
						"label": "timeofRequest",
						"offset": 0,
						"slot": "0",
						"type": "t_string_storage"
					},
					{
						"astId": 21,
						"contract": "CurrentRequest.sol:Developer",
						"label": "bugs_arr",
						"offset": 0,
						"slot": "1",
						"type": "t_array(t_struct(bugReport)8_storage)dyn_storage"
					},
					{
						"astId": 25,
						"contract": "CurrentRequest.sol:Developer",
						"label": "features_arr",
						"offset": 0,
						"slot": "2",
						"type": "t_array(t_struct(featureReport)15_storage)dyn_storage"
					},
					{
						"astId": 29,
						"contract": "CurrentRequest.sol:Developer",
						"label": "unselectedBugs",
						"offset": 0,
						"slot": "3",
						"type": "t_array(t_struct(bugReport)8_storage)dyn_storage"
					},
					{
						"astId": 33,
						"contract": "CurrentRequest.sol:Developer",
						"label": "unselectedFeatures",
						"offset": 0,
						"slot": "4",
						"type": "t_array(t_struct(featureReport)15_storage)dyn_storage"
					}
				],
				"types": {
					"t_array(t_struct(bugReport)8_storage)dyn_storage": {
						"base": "t_struct(bugReport)8_storage",
						"encoding": "dynamic_array",
						"label": "struct bugReport[]",
						"numberOfBytes": "32"
					},
					"t_array(t_struct(featureReport)15_storage)dyn_storage": {
						"base": "t_struct(featureReport)15_storage",
						"encoding": "dynamic_array",
						"label": "struct featureReport[]",
						"numberOfBytes": "32"
					},
					"t_string_storage": {
						"encoding": "bytes",
						"label": "string",
						"numberOfBytes": "32"
					},
					"t_struct(bugReport)8_storage": {
						"encoding": "inplace",
						"label": "struct bugReport",
						"members": [
							{
								"astId": 3,
								"contract": "CurrentRequest.sol:Developer",
								"label": "bugTitle",
								"offset": 0,
								"slot": "0",
								"type": "t_string_storage"
							},
							{
								"astId": 5,
								"contract": "CurrentRequest.sol:Developer",
								"label": "bugDescription",
								"offset": 0,
								"slot": "1",
								"type": "t_string_storage"
							},
							{
								"astId": 7,
								"contract": "CurrentRequest.sol:Developer",
								"label": "bugPriority",
								"offset": 0,
								"slot": "2",
								"type": "t_string_storage"
							}
						],
						"numberOfBytes": "96"
					},
					"t_struct(featureReport)15_storage": {
						"encoding": "inplace",
						"label": "struct featureReport",
						"members": [
							{
								"astId": 10,
								"contract": "CurrentRequest.sol:Developer",
								"label": "featureTitle",
								"offset": 0,
								"slot": "0",
								"type": "t_string_storage"
							},
							{
								"astId": 12,
								"contract": "CurrentRequest.sol:Developer",
								"label": "featureDescription",
								"offset": 0,
								"slot": "1",
								"type": "t_string_storage"
							},
							{
								"astId": 14,
								"contract": "CurrentRequest.sol:Developer",
								"label": "featurePriority",
								"offset": 0,
								"slot": "2",
								"type": "t_string_storage"
							}
						],
						"numberOfBytes": "96"
					}
				}
			},
			"userdoc": {
				"kind": "user",
				"methods": {},
				"version": 1
			}
		}
	}
}