{
	"complete.sol": {
		"PatchDevelopment": {
			"abi": [
				{
					"inputs": [
						{
							"internalType": "string",
							"name": "time_rn",
							"type": "string"
						},
						{
							"internalType": "int256",
							"name": "status",
							"type": "int256"
						},
						{
							"internalType": "string",
							"name": "pname",
							"type": "string"
						}
					],
					"name": "approval",
					"outputs": [],
					"stateMutability": "nonpayable",
					"type": "function"
				},
				{
					"inputs": [
						{
							"internalType": "uint256",
							"name": "",
							"type": "uint256"
						}
					],
					"name": "bugs_arr",
					"outputs": [
						{
							"internalType": "string",
							"name": "bugTitle",
							"type": "string"
						},
						{
							"internalType": "string",
							"name": "bugDescription",
							"type": "string"
						},
						{
							"internalType": "string",
							"name": "bugPriority",
							"type": "string"
						}
					],
					"stateMutability": "view",
					"type": "function"
				},
				{
					"inputs": [
						{
							"internalType": "string",
							"name": "time_rn",
							"type": "string"
						},
						{
							"internalType": "string",
							"name": "pname",
							"type": "string"
						},
						{
							"internalType": "bool",
							"name": "status",
							"type": "bool"
						}
					],
					"name": "deployment",
					"outputs": [],
					"stateMutability": "nonpayable",
					"type": "function"
				},
				{
					"inputs": [
						{
							"internalType": "uint256",
							"name": "",
							"type": "uint256"
						}
					],
					"name": "features_arr",
					"outputs": [
						{
							"internalType": "string",
							"name": "featureTitle",
							"type": "string"
						},
						{
							"internalType": "string",
							"name": "featureDescription",
							"type": "string"
						},
						{
							"internalType": "string",
							"name": "featurePriority",
							"type": "string"
						}
					],
					"stateMutability": "view",
					"type": "function"
				},
				{
					"inputs": [
						{
							"internalType": "string",
							"name": "time_rn",
							"type": "string"
						},
						{
							"internalType": "string",
							"name": "pname",
							"type": "string"
						},
						{
							"internalType": "string",
							"name": "pdesc",
							"type": "string"
						},
						{
							"internalType": "string[][]",
							"name": "bugs",
							"type": "string[][]"
						},
						{
							"internalType": "string[][]",
							"name": "features",
							"type": "string[][]"
						},
						{
							"internalType": "string[][]",
							"name": "bugsUn",
							"type": "string[][]"
						},
						{
							"internalType": "string[][]",
							"name": "featuresUn",
							"type": "string[][]"
						}
					],
					"name": "fromAdmin",
					"outputs": [],
					"stateMutability": "nonpayable",
					"type": "function"
				},
				{
					"inputs": [],
					"name": "getRequests",
					"outputs": [
						{
							"components": [
								{
									"internalType": "string",
									"name": "timeofReport",
									"type": "string"
								},
								{
									"internalType": "string",
									"name": "patchName",
									"type": "string"
								},
								{
									"internalType": "string",
									"name": "patchDescription",
									"type": "string"
								},
								{
									"internalType": "string",
									"name": "vno",
									"type": "string"
								},
								{
									"components": [
										{
											"internalType": "string",
											"name": "bugTitle",
											"type": "string"
										},
										{
											"internalType": "string",
											"name": "bugDescription",
											"type": "string"
										},
										{
											"internalType": "string",
											"name": "bugPriority",
											"type": "string"
										}
									],
									"internalType": "struct bugReport[]",
									"name": "bugRequest",
									"type": "tuple[]"
								},
								{
									"components": [
										{
											"internalType": "string",
											"name": "featureTitle",
											"type": "string"
										},
										{
											"internalType": "string",
											"name": "featureDescription",
											"type": "string"
										},
										{
											"internalType": "string",
											"name": "featurePriority",
											"type": "string"
										}
									],
									"internalType": "struct featureReport[]",
									"name": "featureRequest",
									"type": "tuple[]"
								},
								{
									"internalType": "bool",
									"name": "deployed",
									"type": "bool"
								},
								{
									"internalType": "int256",
									"name": "uploaded",
									"type": "int256"
								},
								{
									"internalType": "int256",
									"name": "approved",
									"type": "int256"
								},
								{
									"internalType": "string",
									"name": "filename",
									"type": "string"
								},
								{
									"internalType": "bytes",
									"name": "patch",
									"type": "bytes"
								}
							],
							"internalType": "struct listOfBnF[]",
							"name": "",
							"type": "tuple[]"
						}
					],
					"stateMutability": "view",
					"type": "function"
				},
				{
					"inputs": [],
					"name": "getfromDev",
					"outputs": [
						{
							"components": [
								{
									"internalType": "string",
									"name": "timeofReport",
									"type": "string"
								},
								{
									"internalType": "string",
									"name": "patchName",
									"type": "string"
								},
								{
									"internalType": "string",
									"name": "patchDescription",
									"type": "string"
								},
								{
									"internalType": "string",
									"name": "vno",
									"type": "string"
								},
								{
									"components": [
										{
											"internalType": "string",
											"name": "bugTitle",
											"type": "string"
										},
										{
											"internalType": "string",
											"name": "bugDescription",
											"type": "string"
										},
										{
											"internalType": "string",
											"name": "bugPriority",
											"type": "string"
										}
									],
									"internalType": "struct bugReport[]",
									"name": "bugRequest",
									"type": "tuple[]"
								},
								{
									"components": [
										{
											"internalType": "string",
											"name": "featureTitle",
											"type": "string"
										},
										{
											"internalType": "string",
											"name": "featureDescription",
											"type": "string"
										},
										{
											"internalType": "string",
											"name": "featurePriority",
											"type": "string"
										}
									],
									"internalType": "struct featureReport[]",
									"name": "featureRequest",
									"type": "tuple[]"
								},
								{
									"internalType": "bool",
									"name": "deployed",
									"type": "bool"
								},
								{
									"internalType": "int256",
									"name": "uploaded",
									"type": "int256"
								},
								{
									"internalType": "int256",
									"name": "approved",
									"type": "int256"
								},
								{
									"internalType": "string",
									"name": "filename",
									"type": "string"
								},
								{
									"internalType": "bytes",
									"name": "patch",
									"type": "bytes"
								}
							],
							"internalType": "struct listOfBnF[]",
							"name": "",
							"type": "tuple[]"
						}
					],
					"stateMutability": "view",
					"type": "function"
				},
				{
					"inputs": [],
					"name": "newPatches",
					"outputs": [
						{
							"components": [
								{
									"internalType": "string",
									"name": "timeofReport",
									"type": "string"
								},
								{
									"internalType": "string",
									"name": "patchName",
									"type": "string"
								},
								{
									"internalType": "string",
									"name": "patchDescription",
									"type": "string"
								},
								{
									"internalType": "string",
									"name": "vno",
									"type": "string"
								},
								{
									"components": [
										{
											"internalType": "string",
											"name": "bugTitle",
											"type": "string"
										},
										{
											"internalType": "string",
											"name": "bugDescription",
											"type": "string"
										},
										{
											"internalType": "string",
											"name": "bugPriority",
											"type": "string"
										}
									],
									"internalType": "struct bugReport[]",
									"name": "bugRequest",
									"type": "tuple[]"
								},
								{
									"components": [
										{
											"internalType": "string",
											"name": "featureTitle",
											"type": "string"
										},
										{
											"internalType": "string",
											"name": "featureDescription",
											"type": "string"
										},
										{
											"internalType": "string",
											"name": "featurePriority",
											"type": "string"
										}
									],
									"internalType": "struct featureReport[]",
									"name": "featureRequest",
									"type": "tuple[]"
								},
								{
									"internalType": "bool",
									"name": "deployed",
									"type": "bool"
								},
								{
									"internalType": "int256",
									"name": "uploaded",
									"type": "int256"
								},
								{
									"internalType": "int256",
									"name": "approved",
									"type": "int256"
								},
								{
									"internalType": "string",
									"name": "filename",
									"type": "string"
								},
								{
									"internalType": "bytes",
									"name": "patch",
									"type": "bytes"
								}
							],
							"internalType": "struct listOfBnF[]",
							"name": "",
							"type": "tuple[]"
						}
					],
					"stateMutability": "view",
					"type": "function"
				},
				{
					"inputs": [],
					"name": "previousReq",
					"outputs": [
						{
							"components": [
								{
									"internalType": "string",
									"name": "bugTitle",
									"type": "string"
								},
								{
									"internalType": "string",
									"name": "bugDescription",
									"type": "string"
								},
								{
									"internalType": "string",
									"name": "bugPriority",
									"type": "string"
								}
							],
							"internalType": "struct bugReport[]",
							"name": "",
							"type": "tuple[]"
						},
						{
							"components": [
								{
									"internalType": "string",
									"name": "featureTitle",
									"type": "string"
								},
								{
									"internalType": "string",
									"name": "featureDescription",
									"type": "string"
								},
								{
									"internalType": "string",
									"name": "featurePriority",
									"type": "string"
								}
							],
							"internalType": "struct featureReport[]",
							"name": "",
							"type": "tuple[]"
						}
					],
					"stateMutability": "view",
					"type": "function"
				},
				{
					"inputs": [
						{
							"internalType": "string",
							"name": "",
							"type": "string"
						}
					],
					"name": "requests",
					"outputs": [
						{
							"internalType": "string",
							"name": "timeofReport",
							"type": "string"
						},
						{
							"internalType": "string",
							"name": "patchName",
							"type": "string"
						},
						{
							"internalType": "string",
							"name": "patchDescription",
							"type": "string"
						},
						{
							"internalType": "string",
							"name": "vno",
							"type": "string"
						},
						{
							"internalType": "bool",
							"name": "deployed",
							"type": "bool"
						},
						{
							"internalType": "int256",
							"name": "uploaded",
							"type": "int256"
						},
						{
							"internalType": "int256",
							"name": "approved",
							"type": "int256"
						},
						{
							"internalType": "string",
							"name": "filename",
							"type": "string"
						},
						{
							"internalType": "bytes",
							"name": "patch",
							"type": "bytes"
						}
					],
					"stateMutability": "view",
					"type": "function"
				},
				{
					"inputs": [],
					"name": "send_list",
					"outputs": [
						{
							"components": [
								{
									"internalType": "string",
									"name": "bugTitle",
									"type": "string"
								},
								{
									"internalType": "string",
									"name": "bugDescription",
									"type": "string"
								},
								{
									"internalType": "string",
									"name": "bugPriority",
									"type": "string"
								}
							],
							"internalType": "struct bugReport[]",
							"name": "",
							"type": "tuple[]"
						},
						{
							"components": [
								{
									"internalType": "string",
									"name": "featureTitle",
									"type": "string"
								},
								{
									"internalType": "string",
									"name": "featureDescription",
									"type": "string"
								},
								{
									"internalType": "string",
									"name": "featurePriority",
									"type": "string"
								}
							],
							"internalType": "struct featureReport[]",
							"name": "",
							"type": "tuple[]"
						}
					],
					"stateMutability": "view",
					"type": "function"
				},
				{
					"inputs": [],
					"name": "submittedbyadmin",
					"outputs": [
						{
							"internalType": "bool",
							"name": "",
							"type": "bool"
						}
					],
					"stateMutability": "view",
					"type": "function"
				},
				{
					"inputs": [
						{
							"internalType": "string",
							"name": "time",
							"type": "string"
						},
						{
							"internalType": "string[][]",
							"name": "new_b",
							"type": "string[][]"
						},
						{
							"internalType": "string[][]",
							"name": "new_f",
							"type": "string[][]"
						}
					],
					"name": "toAdmin",
					"outputs": [],
					"stateMutability": "nonpayable",
					"type": "function"
				},
				{
					"inputs": [
						{
							"internalType": "uint256",
							"name": "",
							"type": "uint256"
						}
					],
					"name": "unselectedBugs",
					"outputs": [
						{
							"internalType": "string",
							"name": "bugTitle",
							"type": "string"
						},
						{
							"internalType": "string",
							"name": "bugDescription",
							"type": "string"
						},
						{
							"internalType": "string",
							"name": "bugPriority",
							"type": "string"
						}
					],
					"stateMutability": "view",
					"type": "function"
				},
				{
					"inputs": [
						{
							"internalType": "uint256",
							"name": "",
							"type": "uint256"
						}
					],
					"name": "unselectedFeatures",
					"outputs": [
						{
							"internalType": "string",
							"name": "featureTitle",
							"type": "string"
						},
						{
							"internalType": "string",
							"name": "featureDescription",
							"type": "string"
						},
						{
							"internalType": "string",
							"name": "featurePriority",
							"type": "string"
						}
					],
					"stateMutability": "view",
					"type": "function"
				},
				{
					"inputs": [
						{
							"internalType": "string",
							"name": "time_rn",
							"type": "string"
						},
						{
							"internalType": "string",
							"name": "pname",
							"type": "string"
						},
						{
							"internalType": "string",
							"name": "ver",
							"type": "string"
						},
						{
							"internalType": "string",
							"name": "fileName",
							"type": "string"
						},
						{
							"internalType": "bytes",
							"name": "_patch",
							"type": "bytes"
						}
					],
					"name": "uploadedbyDev",
					"outputs": [],
					"stateMutability": "nonpayable",
					"type": "function"
				}
			],
			"devdoc": {
				"kind": "dev",
				"methods": {},
				"version": 1
			},
			"evm": {
				"assembly": "    /* \"complete.sol\":573:5986  contract PatchDevelopment{... */\n  mstore(0x40, 0x80)\n  callvalue\n  dup1\n  iszero\n  tag_1\n  jumpi\n  0x00\n  dup1\n  revert\ntag_1:\n  pop\n  dataSize(sub_0)\n  dup1\n  dataOffset(sub_0)\n  0x00\n  codecopy\n  0x00\n  return\nstop\n\nsub_0: assembly {\n        /* \"complete.sol\":573:5986  contract PatchDevelopment{... */\n      mstore(0x40, 0x80)\n      callvalue\n      dup1\n      iszero\n      tag_1\n      jumpi\n      0x00\n      dup1\n      revert\n    tag_1:\n      pop\n      jumpi(tag_2, lt(calldatasize, 0x04))\n      shr(0xe0, calldataload(0x00))\n      dup1\n      0x912d7230\n      gt\n      tag_19\n      jumpi\n      dup1\n      0xdba82a9c\n      gt\n      tag_20\n      jumpi\n      dup1\n      0xdba82a9c\n      eq\n      tag_15\n      jumpi\n      dup1\n      0xded1166c\n      eq\n      tag_16\n      jumpi\n      dup1\n      0xf82e4aee\n      eq\n      tag_17\n      jumpi\n      dup1\n      0xfd9284f1\n      eq\n      tag_18\n      jumpi\n      jump(tag_2)\n    tag_20:\n      dup1\n      0x912d7230\n      eq\n      tag_11\n      jumpi\n      dup1\n      0xac0799e5\n      eq\n      tag_12\n      jumpi\n      dup1\n      0xb87dff89\n      eq\n      tag_13\n      jumpi\n      dup1\n      0xc97da229\n      eq\n      tag_14\n      jumpi\n      jump(tag_2)\n    tag_19:\n      dup1\n      0x692d51d2\n      gt\n      tag_21\n      jumpi\n      dup1\n      0x692d51d2\n      eq\n      tag_7\n      jumpi\n      dup1\n      0x7c0a6fc1\n      eq\n      tag_8\n      jumpi\n      dup1\n      0x8813ce12\n      eq\n      tag_9\n      jumpi\n      dup1\n      0x88feb787\n      eq\n      tag_10\n      jumpi\n      jump(tag_2)\n    tag_21:\n      dup1\n      0x2548d05d\n      eq\n      tag_3\n      jumpi\n      dup1\n      0x303941dd\n      eq\n      tag_4\n      jumpi\n      dup1\n      0x4d1ba790\n      eq\n      tag_5\n      jumpi\n      dup1\n      0x5faa043d\n      eq\n      tag_6\n      jumpi\n    tag_2:\n      0x00\n      dup1\n      revert\n        /* \"complete.sol\":708:741  bugReport[] public unselectedBugs */\n    tag_3:\n      tag_22\n      0x04\n      dup1\n      calldatasize\n      sub\n      dup2\n      add\n      swap1\n      tag_23\n      swap2\n      swap1\n      tag_24\n      jump\t// in\n    tag_23:\n      tag_25\n      jump\t// in\n    tag_22:\n      mload(0x40)\n      tag_26\n      swap4\n      swap3\n      swap2\n      swap1\n      tag_27\n      jump\t// in\n    tag_26:\n      mload(0x40)\n      dup1\n      swap2\n      sub\n      swap1\n      return\n        /* \"complete.sol\":4701:4993  function getfromDev() public view returns (listOfBnF[] memory) {... */\n    tag_4:\n      tag_28\n      tag_29\n      jump\t// in\n    tag_28:\n      mload(0x40)\n      tag_30\n      swap2\n      swap1\n      tag_31\n      jump\t// in\n    tag_30:\n      mload(0x40)\n      dup1\n      swap2\n      sub\n      swap1\n      return\n        /* \"complete.sol\":748:789  featureReport[] public unselectedFeatures */\n    tag_5:\n      tag_32\n      0x04\n      dup1\n      calldatasize\n      sub\n      dup2\n      add\n      swap1\n      tag_33\n      swap2\n      swap1\n      tag_24\n      jump\t// in\n    tag_33:\n      tag_34\n      jump\t// in\n    tag_32:\n      mload(0x40)\n      tag_35\n      swap4\n      swap3\n      swap2\n      swap1\n      tag_27\n      jump\t// in\n    tag_35:\n      mload(0x40)\n      dup1\n      swap2\n      sub\n      swap1\n      return\n        /* \"complete.sol\":666:701  featureReport[] public features_arr */\n    tag_6:\n      tag_36\n      0x04\n      dup1\n      calldatasize\n      sub\n      dup2\n      add\n      swap1\n      tag_37\n      swap2\n      swap1\n      tag_24\n      jump\t// in\n    tag_37:\n      tag_38\n      jump\t// in\n    tag_36:\n      mload(0x40)\n      tag_39\n      swap4\n      swap3\n      swap2\n      swap1\n      tag_27\n      jump\t// in\n    tag_39:\n      mload(0x40)\n      dup1\n      swap2\n      sub\n      swap1\n      return\n        /* \"complete.sol\":831:875  mapping(string => listOfBnF) public requests */\n    tag_7:\n      tag_40\n      0x04\n      dup1\n      calldatasize\n      sub\n      dup2\n      add\n      swap1\n      tag_41\n      swap2\n      swap1\n      tag_42\n      jump\t// in\n    tag_41:\n      tag_43\n      jump\t// in\n    tag_40:\n      mload(0x40)\n      tag_44\n      swap10\n      swap9\n      swap8\n      swap7\n      swap6\n      swap5\n      swap4\n      swap3\n      swap2\n      swap1\n      tag_45\n      jump\t// in\n    tag_44:\n      mload(0x40)\n      dup1\n      swap2\n      sub\n      swap1\n      return\n        /* \"complete.sol\":1966:2114  function previousReq() public view returns(bugReport[] memory, featureReport[] memory ){... */\n    tag_8:\n      tag_46\n      tag_47\n      jump\t// in\n    tag_46:\n      mload(0x40)\n      tag_48\n      swap3\n      swap2\n      swap1\n      tag_49\n      jump\t// in\n    tag_48:\n      mload(0x40)\n      dup1\n      swap2\n      sub\n      swap1\n      return\n        /* \"complete.sol\":3885:4178  function getRequests() public view returns (listOfBnF[] memory) {... */\n    tag_9:\n      tag_50\n      tag_51\n      jump\t// in\n    tag_50:\n      mload(0x40)\n      tag_52\n      swap2\n      swap1\n      tag_31\n      jump\t// in\n    tag_52:\n      mload(0x40)\n      dup1\n      swap2\n      sub\n      swap1\n      return\n        /* \"complete.sol\":796:824  bool public submittedbyadmin */\n    tag_10:\n      tag_53\n      tag_54\n      jump\t// in\n    tag_53:\n      mload(0x40)\n      tag_55\n      swap2\n      swap1\n      tag_56\n      jump\t// in\n    tag_55:\n      mload(0x40)\n      dup1\n      swap2\n      sub\n      swap1\n      return\n        /* \"complete.sol\":2794:3812  function fromAdmin(string memory time_rn, string memory pname, string memory pdesc, string[][] memory bugs, string[][] memory features, string[][] memory bugsUn, string[][] memory featuresUn) public {... */\n    tag_11:\n      tag_57\n      0x04\n      dup1\n      calldatasize\n      sub\n      dup2\n      add\n      swap1\n      tag_58\n      swap2\n      swap1\n      tag_59\n      jump\t// in\n    tag_58:\n      tag_60\n      jump\t// in\n    tag_57:\n      stop\n        /* \"complete.sol\":950:1534  function toAdmin(string memory time, string[][] memory new_b,string[][] memory new_f) public{... */\n    tag_12:\n      tag_61\n      0x04\n      dup1\n      calldatasize\n      sub\n      dup2\n      add\n      swap1\n      tag_62\n      swap2\n      swap1\n      tag_63\n      jump\t// in\n    tag_62:\n      tag_64\n      jump\t// in\n    tag_61:\n      stop\n        /* \"complete.sol\":1580:1960  function send_list() public view returns(bugReport[] memory, featureReport[] memory ){... */\n    tag_13:\n      tag_65\n      tag_66\n      jump\t// in\n    tag_65:\n      mload(0x40)\n      tag_67\n      swap3\n      swap2\n      swap1\n      tag_49\n      jump\t// in\n    tag_67:\n      mload(0x40)\n      dup1\n      swap2\n      sub\n      swap1\n      return\n        /* \"complete.sol\":5594:5983  function newPatches() public view returns(listOfBnF[] memory){... */\n    tag_14:\n      tag_68\n      tag_69\n      jump\t// in\n    tag_68:\n      mload(0x40)\n      tag_70\n      swap2\n      swap1\n      tag_31\n      jump\t// in\n    tag_70:\n      mload(0x40)\n      dup1\n      swap2\n      sub\n      swap1\n      return\n        /* \"complete.sol\":4232:4584  function uploadedbyDev(string memory time_rn, string memory pname, string memory ver, string memory fileName, bytes memory _patch) public{... */\n    tag_15:\n      tag_71\n      0x04\n      dup1\n      calldatasize\n      sub\n      dup2\n      add\n      swap1\n      tag_72\n      swap2\n      swap1\n      tag_73\n      jump\t// in\n    tag_72:\n      tag_74\n      jump\t// in\n    tag_71:\n      stop\n        /* \"complete.sol\":632:659  bugReport[] public bugs_arr */\n    tag_16:\n      tag_75\n      0x04\n      dup1\n      calldatasize\n      sub\n      dup2\n      add\n      swap1\n      tag_76\n      swap2\n      swap1\n      tag_24\n      jump\t// in\n    tag_76:\n      tag_77\n      jump\t// in\n    tag_75:\n      mload(0x40)\n      tag_78\n      swap4\n      swap3\n      swap2\n      swap1\n      tag_27\n      jump\t// in\n    tag_78:\n      mload(0x40)\n      dup1\n      swap2\n      sub\n      swap1\n      return\n        /* \"complete.sol\":5030:5277  function approval(string memory time_rn, int status, string memory pname) public{... */\n    tag_17:\n      tag_79\n      0x04\n      dup1\n      calldatasize\n      sub\n      dup2\n      add\n      swap1\n      tag_80\n      swap2\n      swap1\n      tag_81\n      jump\t// in\n    tag_80:\n      tag_82\n      jump\t// in\n    tag_79:\n      stop\n        /* \"complete.sol\":5327:5542  function deployment(string memory time_rn, string memory pname, bool status) public{... */\n    tag_18:\n      tag_83\n      0x04\n      dup1\n      calldatasize\n      sub\n      dup2\n      add\n      swap1\n      tag_84\n      swap2\n      swap1\n      tag_85\n      jump\t// in\n    tag_84:\n      tag_86\n      jump\t// in\n    tag_83:\n      stop\n        /* \"complete.sol\":708:741  bugReport[] public unselectedBugs */\n    tag_25:\n      0x03\n      dup2\n      dup2\n      sload\n      dup2\n      lt\n      tag_87\n      jumpi\n      0x00\n      dup1\n      revert\n    tag_87:\n      swap1\n      0x00\n      mstore\n      keccak256(0x00, 0x20)\n      swap1\n      0x03\n      mul\n      add\n      0x00\n      swap2\n      pop\n      swap1\n      pop\n      dup1\n      0x00\n      add\n      dup1\n      sload\n      tag_89\n      swap1\n      tag_90\n      jump\t// in\n    tag_89:\n      dup1\n      0x1f\n      add\n      0x20\n      dup1\n      swap2\n      div\n      mul\n      0x20\n      add\n      mload(0x40)\n      swap1\n      dup2\n      add\n      0x40\n      mstore\n      dup1\n      swap3\n      swap2\n      swap1\n      dup2\n      dup2\n      mstore\n      0x20\n      add\n      dup3\n      dup1\n      sload\n      tag_91\n      swap1\n      tag_90\n      jump\t// in\n    tag_91:\n      dup1\n      iszero\n      tag_92\n      jumpi\n      dup1\n      0x1f\n      lt\n      tag_93\n      jumpi\n      0x0100\n      dup1\n      dup4\n      sload\n      div\n      mul\n      dup4\n      mstore\n      swap2\n      0x20\n      add\n      swap2\n      jump(tag_92)\n    tag_93:\n      dup3\n      add\n      swap2\n      swap1\n      0x00\n      mstore\n      keccak256(0x00, 0x20)\n      swap1\n    tag_94:\n      dup2\n      sload\n      dup2\n      mstore\n      swap1\n      0x01\n      add\n      swap1\n      0x20\n      add\n      dup1\n      dup4\n      gt\n      tag_94\n      jumpi\n      dup3\n      swap1\n      sub\n      0x1f\n      and\n      dup3\n      add\n      swap2\n    tag_92:\n      pop\n      pop\n      pop\n      pop\n      pop\n      swap1\n      dup1\n      0x01\n      add\n      dup1\n      sload\n      tag_95\n      swap1\n      tag_90\n      jump\t// in\n    tag_95:\n      dup1\n      0x1f\n      add\n      0x20\n      dup1\n      swap2\n      div\n      mul\n      0x20\n      add\n      mload(0x40)\n      swap1\n      dup2\n      add\n      0x40\n      mstore\n      dup1\n      swap3\n      swap2\n      swap1\n      dup2\n      dup2\n      mstore\n      0x20\n      add\n      dup3\n      dup1\n      sload\n      tag_96\n      swap1\n      tag_90\n      jump\t// in\n    tag_96:\n      dup1\n      iszero\n      tag_97\n      jumpi\n      dup1\n      0x1f\n      lt\n      tag_98\n      jumpi\n      0x0100\n      dup1\n      dup4\n      sload\n      div\n      mul\n      dup4\n      mstore\n      swap2\n      0x20\n      add\n      swap2\n      jump(tag_97)\n    tag_98:\n      dup3\n      add\n      swap2\n      swap1\n      0x00\n      mstore\n      keccak256(0x00, 0x20)\n      swap1\n    tag_99:\n      dup2\n      sload\n      dup2\n      mstore\n      swap1\n      0x01\n      add\n      swap1\n      0x20\n      add\n      dup1\n      dup4\n      gt\n      tag_99\n      jumpi\n      dup3\n      swap1\n      sub\n      0x1f\n      and\n      dup3\n      add\n      swap2\n    tag_97:\n      pop\n      pop\n      pop\n      pop\n      pop\n      swap1\n      dup1\n      0x02\n      add\n      dup1\n      sload\n      tag_100\n      swap1\n      tag_90\n      jump\t// in\n    tag_100:\n      dup1\n      0x1f\n      add\n      0x20\n      dup1\n      swap2\n      div\n      mul\n      0x20\n      add\n      mload(0x40)\n      swap1\n      dup2\n      add\n      0x40\n      mstore\n      dup1\n      swap3\n      swap2\n      swap1\n      dup2\n      dup2\n      mstore\n      0x20\n      add\n      dup3\n      dup1\n      sload\n      tag_101\n      swap1\n      tag_90\n      jump\t// in\n    tag_101:\n      dup1\n      iszero\n      tag_102\n      jumpi\n      dup1\n      0x1f\n      lt\n      tag_103\n      jumpi\n      0x0100\n      dup1\n      dup4\n      sload\n      div\n      mul\n      dup4\n      mstore\n      swap2\n      0x20\n      add\n      swap2\n      jump(tag_102)\n    tag_103:\n      dup3\n      add\n      swap2\n      swap1\n      0x00\n      mstore\n      keccak256(0x00, 0x20)\n      swap1\n    tag_104:\n      dup2\n      sload\n      dup2\n      mstore\n      swap1\n      0x01\n      add\n      swap1\n      0x20\n      add\n      dup1\n      dup4\n      gt\n      tag_104\n      jumpi\n      dup3\n      swap1\n      sub\n      0x1f\n      and\n      dup3\n      add\n      swap2\n    tag_102:\n      pop\n      pop\n      pop\n      pop\n      pop\n      swap1\n      pop\n      dup4\n      jump\t// out\n        /* \"complete.sol\":4701:4993  function getfromDev() public view returns (listOfBnF[] memory) {... */\n    tag_29:\n        /* \"complete.sol\":4744:4762  listOfBnF[] memory */\n      0x60\n        /* \"complete.sol\":4775:4800  listOfBnF[] memory result */\n      0x00\n        /* \"complete.sol\":4819:4829  patchnames */\n      0x07\n        /* \"complete.sol\":4819:4836  patchnames.length */\n      dup1\n      sload\n      swap1\n      pop\n        /* \"complete.sol\":4803:4837  new listOfBnF[](patchnames.length) */\n      0xffffffffffffffff\n      dup2\n      gt\n      iszero\n      tag_106\n      jumpi\n      tag_107\n      tag_108\n      jump\t// in\n    tag_107:\n    tag_106:\n      mload(0x40)\n      swap1\n      dup1\n      dup3\n      mstore\n      dup1\n      0x20\n      mul\n      0x20\n      add\n      dup3\n      add\n      0x40\n      mstore\n      dup1\n      iszero\n      tag_109\n      jumpi\n      dup2\n      0x20\n      add\n    tag_110:\n      tag_111\n      tag_112\n      jump\t// in\n    tag_111:\n      dup2\n      mstore\n      0x20\n      add\n      swap1\n      0x01\n      swap1\n      sub\n      swap1\n      dup2\n      tag_110\n      jumpi\n      swap1\n      pop\n    tag_109:\n      pop\n        /* \"complete.sol\":4775:4837  listOfBnF[] memory result = new listOfBnF[](patchnames.length) */\n      swap1\n      pop\n        /* \"complete.sol\":4855:4861  uint i */\n      0x00\n        /* \"complete.sol\":4850:4960  for (uint i = 0; i < patchnames.length; i++) {   ... */\n    tag_113:\n        /* \"complete.sol\":4871:4881  patchnames */\n      0x07\n        /* \"complete.sol\":4871:4888  patchnames.length */\n      dup1\n      sload\n      swap1\n      pop\n        /* \"complete.sol\":4867:4868  i */\n      dup2\n        /* \"complete.sol\":4867:4888  i < patchnames.length */\n      lt\n        /* \"complete.sol\":4850:4960  for (uint i = 0; i < patchnames.length; i++) {   ... */\n      iszero\n      tag_114\n      jumpi\n        /* \"complete.sol\":4925:4933  requests */\n      0x06\n        /* \"complete.sol\":4934:4944  patchnames */\n      0x07\n        /* \"complete.sol\":4945:4946  i */\n      dup3\n        /* \"complete.sol\":4934:4947  patchnames[i] */\n      dup2\n      sload\n      dup2\n      lt\n      tag_116\n      jumpi\n      tag_117\n      tag_118\n      jump\t// in\n    tag_117:\n    tag_116:\n      swap1\n      0x00\n      mstore\n      keccak256(0x00, 0x20)\n      add\n        /* \"complete.sol\":4925:4948  requests[patchnames[i]] */\n      mload(0x40)\n      tag_120\n      swap2\n      swap1\n      tag_121\n      jump\t// in\n    tag_120:\n      swap1\n      dup2\n      mstore\n      0x20\n      add\n      mload(0x40)\n      dup1\n      swap2\n      sub\n      swap1\n      keccak256\n        /* \"complete.sol\":4913:4948  result[i] = requests[patchnames[i]] */\n      mload(0x40)\n      dup1\n      0x0160\n      add\n      0x40\n      mstore\n      swap1\n      dup2\n      0x00\n      dup3\n      add\n      dup1\n      sload\n      tag_122\n      swap1\n      tag_90\n      jump\t// in\n    tag_122:\n      dup1\n      0x1f\n      add\n      0x20\n      dup1\n      swap2\n      div\n      mul\n      0x20\n      add\n      mload(0x40)\n      swap1\n      dup2\n      add\n      0x40\n      mstore\n      dup1\n      swap3\n      swap2\n      swap1\n      dup2\n      dup2\n      mstore\n      0x20\n      add\n      dup3\n      dup1\n      sload\n      tag_123\n      swap1\n      tag_90\n      jump\t// in\n    tag_123:\n      dup1\n      iszero\n      tag_124\n      jumpi\n      dup1\n      0x1f\n      lt\n      tag_125\n      jumpi\n      0x0100\n      dup1\n      dup4\n      sload\n      div\n      mul\n      dup4\n      mstore\n      swap2\n      0x20\n      add\n      swap2\n      jump(tag_124)\n    tag_125:\n      dup3\n      add\n      swap2\n      swap1\n      0x00\n      mstore\n      keccak256(0x00, 0x20)\n      swap1\n    tag_126:\n      dup2\n      sload\n      dup2\n      mstore\n      swap1\n      0x01\n      add\n      swap1\n      0x20\n      add\n      dup1\n      dup4\n      gt\n      tag_126\n      jumpi\n      dup3\n      swap1\n      sub\n      0x1f\n      and\n      dup3\n      add\n      swap2\n    tag_124:\n      pop\n      pop\n      pop\n      pop\n      pop\n      dup2\n      mstore\n      0x20\n      add\n      0x01\n      dup3\n      add\n      dup1\n      sload\n      tag_127\n      swap1\n      tag_90\n      jump\t// in\n    tag_127:\n      dup1\n      0x1f\n      add\n      0x20\n      dup1\n      swap2\n      div\n      mul\n      0x20\n      add\n      mload(0x40)\n      swap1\n      dup2\n      add\n      0x40\n      mstore\n      dup1\n      swap3\n      swap2\n      swap1\n      dup2\n      dup2\n      mstore\n      0x20\n      add\n      dup3\n      dup1\n      sload\n      tag_128\n      swap1\n      tag_90\n      jump\t// in\n    tag_128:\n      dup1\n      iszero\n      tag_129\n      jumpi\n      dup1\n      0x1f\n      lt\n      tag_130\n      jumpi\n      0x0100\n      dup1\n      dup4\n      sload\n      div\n      mul\n      dup4\n      mstore\n      swap2\n      0x20\n      add\n      swap2\n      jump(tag_129)\n    tag_130:\n      dup3\n      add\n      swap2\n      swap1\n      0x00\n      mstore\n      keccak256(0x00, 0x20)\n      swap1\n    tag_131:\n      dup2\n      sload\n      dup2\n      mstore\n      swap1\n      0x01\n      add\n      swap1\n      0x20\n      add\n      dup1\n      dup4\n      gt\n      tag_131\n      jumpi\n      dup3\n      swap1\n      sub\n      0x1f\n      and\n      dup3\n      add\n      swap2\n    tag_129:\n      pop\n      pop\n      pop\n      pop\n      pop\n      dup2\n      mstore\n      0x20\n      add\n      0x02\n      dup3\n      add\n      dup1\n      sload\n      tag_132\n      swap1\n      tag_90\n      jump\t// in\n    tag_132:\n      dup1\n      0x1f\n      add\n      0x20\n      dup1\n      swap2\n      div\n      mul\n      0x20\n      add\n      mload(0x40)\n      swap1\n      dup2\n      add\n      0x40\n      mstore\n      dup1\n      swap3\n      swap2\n      swap1\n      dup2\n      dup2\n      mstore\n      0x20\n      add\n      dup3\n      dup1\n      sload\n      tag_133\n      swap1\n      tag_90\n      jump\t// in\n    tag_133:\n      dup1\n      iszero\n      tag_134\n      jumpi\n      dup1\n      0x1f\n      lt\n      tag_135\n      jumpi\n      0x0100\n      dup1\n      dup4\n      sload\n      div\n      mul\n      dup4\n      mstore\n      swap2\n      0x20\n      add\n      swap2\n      jump(tag_134)\n    tag_135:\n      dup3\n      add\n      swap2\n      swap1\n      0x00\n      mstore\n      keccak256(0x00, 0x20)\n      swap1\n    tag_136:\n      dup2\n      sload\n      dup2\n      mstore\n      swap1\n      0x01\n      add\n      swap1\n      0x20\n      add\n      dup1\n      dup4\n      gt\n      tag_136\n      jumpi\n      dup3\n      swap1\n      sub\n      0x1f\n      and\n      dup3\n      add\n      swap2\n    tag_134:\n      pop\n      pop\n      pop\n      pop\n      pop\n      dup2\n      mstore\n      0x20\n      add\n      0x03\n      dup3\n      add\n      dup1\n      sload\n      tag_137\n      swap1\n      tag_90\n      jump\t// in\n    tag_137:\n      dup1\n      0x1f\n      add\n      0x20\n      dup1\n      swap2\n      div\n      mul\n      0x20\n      add\n      mload(0x40)\n      swap1\n      dup2\n      add\n      0x40\n      mstore\n      dup1\n      swap3\n      swap2\n      swap1\n      dup2\n      dup2\n      mstore\n      0x20\n      add\n      dup3\n      dup1\n      sload\n      tag_138\n      swap1\n      tag_90\n      jump\t// in\n    tag_138:\n      dup1\n      iszero\n      tag_139\n      jumpi\n      dup1\n      0x1f\n      lt\n      tag_140\n      jumpi\n      0x0100\n      dup1\n      dup4\n      sload\n      div\n      mul\n      dup4\n      mstore\n      swap2\n      0x20\n      add\n      swap2\n      jump(tag_139)\n    tag_140:\n      dup3\n      add\n      swap2\n      swap1\n      0x00\n      mstore\n      keccak256(0x00, 0x20)\n      swap1\n    tag_141:\n      dup2\n      sload\n      dup2\n      mstore\n      swap1\n      0x01\n      add\n      swap1\n      0x20\n      add\n      dup1\n      dup4\n      gt\n      tag_141\n      jumpi\n      dup3\n      swap1\n      sub\n      0x1f\n      and\n      dup3\n      add\n      swap2\n    tag_139:\n      pop\n      pop\n      pop\n      pop\n      pop\n      dup2\n      mstore\n      0x20\n      add\n      0x04\n      dup3\n      add\n      dup1\n      sload\n      dup1\n      0x20\n      mul\n      0x20\n      add\n      mload(0x40)\n      swap1\n      dup2\n      add\n      0x40\n      mstore\n      dup1\n      swap3\n      swap2\n      swap1\n      dup2\n      dup2\n      mstore\n      0x20\n      add\n      0x00\n      swap1\n    tag_142:\n      dup3\n      dup3\n      lt\n      iszero\n      tag_143\n      jumpi\n      dup4\n      dup3\n      swap1\n      0x00\n      mstore\n      keccak256(0x00, 0x20)\n      swap1\n      0x03\n      mul\n      add\n      mload(0x40)\n      dup1\n      0x60\n      add\n      0x40\n      mstore\n      swap1\n      dup2\n      0x00\n      dup3\n      add\n      dup1\n      sload\n      tag_145\n      swap1\n      tag_90\n      jump\t// in\n    tag_145:\n      dup1\n      0x1f\n      add\n      0x20\n      dup1\n      swap2\n      div\n      mul\n      0x20\n      add\n      mload(0x40)\n      swap1\n      dup2\n      add\n      0x40\n      mstore\n      dup1\n      swap3\n      swap2\n      swap1\n      dup2\n      dup2\n      mstore\n      0x20\n      add\n      dup3\n      dup1\n      sload\n      tag_146\n      swap1\n      tag_90\n      jump\t// in\n    tag_146:\n      dup1\n      iszero\n      tag_147\n      jumpi\n      dup1\n      0x1f\n      lt\n      tag_148\n      jumpi\n      0x0100\n      dup1\n      dup4\n      sload\n      div\n      mul\n      dup4\n      mstore\n      swap2\n      0x20\n      add\n      swap2\n      jump(tag_147)\n    tag_148:\n      dup3\n      add\n      swap2\n      swap1\n      0x00\n      mstore\n      keccak256(0x00, 0x20)\n      swap1\n    tag_149:\n      dup2\n      sload\n      dup2\n      mstore\n      swap1\n      0x01\n      add\n      swap1\n      0x20\n      add\n      dup1\n      dup4\n      gt\n      tag_149\n      jumpi\n      dup3\n      swap1\n      sub\n      0x1f\n      and\n      dup3\n      add\n      swap2\n    tag_147:\n      pop\n      pop\n      pop\n      pop\n      pop\n      dup2\n      mstore\n      0x20\n      add\n      0x01\n      dup3\n      add\n      dup1\n      sload\n      tag_150\n      swap1\n      tag_90\n      jump\t// in\n    tag_150:\n      dup1\n      0x1f\n      add\n      0x20\n      dup1\n      swap2\n      div\n      mul\n      0x20\n      add\n      mload(0x40)\n      swap1\n      dup2\n      add\n      0x40\n      mstore\n      dup1\n      swap3\n      swap2\n      swap1\n      dup2\n      dup2\n      mstore\n      0x20\n      add\n      dup3\n      dup1\n      sload\n      tag_151\n      swap1\n      tag_90\n      jump\t// in\n    tag_151:\n      dup1\n      iszero\n      tag_152\n      jumpi\n      dup1\n      0x1f\n      lt\n      tag_153\n      jumpi\n      0x0100\n      dup1\n      dup4\n      sload\n      div\n      mul\n      dup4\n      mstore\n      swap2\n      0x20\n      add\n      swap2\n      jump(tag_152)\n    tag_153:\n      dup3\n      add\n      swap2\n      swap1\n      0x00\n      mstore\n      keccak256(0x00, 0x20)\n      swap1\n    tag_154:\n      dup2\n      sload\n      dup2\n      mstore\n      swap1\n      0x01\n      add\n      swap1\n      0x20\n      add\n      dup1\n      dup4\n      gt\n      tag_154\n      jumpi\n      dup3\n      swap1\n      sub\n      0x1f\n      and\n      dup3\n      add\n      swap2\n    tag_152:\n      pop\n      pop\n      pop\n      pop\n      pop\n      dup2\n      mstore\n      0x20\n      add\n      0x02\n      dup3\n      add\n      dup1\n      sload\n      tag_155\n      swap1\n      tag_90\n      jump\t// in\n    tag_155:\n      dup1\n      0x1f\n      add\n      0x20\n      dup1\n      swap2\n      div\n      mul\n      0x20\n      add\n      mload(0x40)\n      swap1\n      dup2\n      add\n      0x40\n      mstore\n      dup1\n      swap3\n      swap2\n      swap1\n      dup2\n      dup2\n      mstore\n      0x20\n      add\n      dup3\n      dup1\n      sload\n      tag_156\n      swap1\n      tag_90\n      jump\t// in\n    tag_156:\n      dup1\n      iszero\n      tag_157\n      jumpi\n      dup1\n      0x1f\n      lt\n      tag_158\n      jumpi\n      0x0100\n      dup1\n      dup4\n      sload\n      div\n      mul\n      dup4\n      mstore\n      swap2\n      0x20\n      add\n      swap2\n      jump(tag_157)\n    tag_158:\n      dup3\n      add\n      swap2\n      swap1\n      0x00\n      mstore\n      keccak256(0x00, 0x20)\n      swap1\n    tag_159:\n      dup2\n      sload\n      dup2\n      mstore\n      swap1\n      0x01\n      add\n      swap1\n      0x20\n      add\n      dup1\n      dup4\n      gt\n      tag_159\n      jumpi\n      dup3\n      swap1\n      sub\n      0x1f\n      and\n      dup3\n      add\n      swap2\n    tag_157:\n      pop\n      pop\n      pop\n      pop\n      pop\n      dup2\n      mstore\n      pop\n      pop\n      dup2\n      mstore\n      0x20\n      add\n      swap1\n      0x01\n      add\n      swap1\n      jump(tag_142)\n    tag_143:\n      pop\n      pop\n      pop\n      pop\n      dup2\n      mstore\n      0x20\n      add\n      0x05\n      dup3\n      add\n      dup1\n      sload\n      dup1\n      0x20\n      mul\n      0x20\n      add\n      mload(0x40)\n      swap1\n      dup2\n      add\n      0x40\n      mstore\n      dup1\n      swap3\n      swap2\n      swap1\n      dup2\n      dup2\n      mstore\n      0x20\n      add\n      0x00\n      swap1\n    tag_160:\n      dup3\n      dup3\n      lt\n      iszero\n      tag_161\n      jumpi\n      dup4\n      dup3\n      swap1\n      0x00\n      mstore\n      keccak256(0x00, 0x20)\n      swap1\n      0x03\n      mul\n      add\n      mload(0x40)\n      dup1\n      0x60\n      add\n      0x40\n      mstore\n      swap1\n      dup2\n      0x00\n      dup3\n      add\n      dup1\n      sload\n      tag_163\n      swap1\n      tag_90\n      jump\t// in\n    tag_163:\n      dup1\n      0x1f\n      add\n      0x20\n      dup1\n      swap2\n      div\n      mul\n      0x20\n      add\n      mload(0x40)\n      swap1\n      dup2\n      add\n      0x40\n      mstore\n      dup1\n      swap3\n      swap2\n      swap1\n      dup2\n      dup2\n      mstore\n      0x20\n      add\n      dup3\n      dup1\n      sload\n      tag_164\n      swap1\n      tag_90\n      jump\t// in\n    tag_164:\n      dup1\n      iszero\n      tag_165\n      jumpi\n      dup1\n      0x1f\n      lt\n      tag_166\n      jumpi\n      0x0100\n      dup1\n      dup4\n      sload\n      div\n      mul\n      dup4\n      mstore\n      swap2\n      0x20\n      add\n      swap2\n      jump(tag_165)\n    tag_166:\n      dup3\n      add\n      swap2\n      swap1\n      0x00\n      mstore\n      keccak256(0x00, 0x20)\n      swap1\n    tag_167:\n      dup2\n      sload\n      dup2\n      mstore\n      swap1\n      0x01\n      add\n      swap1\n      0x20\n      add\n      dup1\n      dup4\n      gt\n      tag_167\n      jumpi\n      dup3\n      swap1\n      sub\n      0x1f\n      and\n      dup3\n      add\n      swap2\n    tag_165:\n      pop\n      pop\n      pop\n      pop\n      pop\n      dup2\n      mstore\n      0x20\n      add\n      0x01\n      dup3\n      add\n      dup1\n      sload\n      tag_168\n      swap1\n      tag_90\n      jump\t// in\n    tag_168:\n      dup1\n      0x1f\n      add\n      0x20\n      dup1\n      swap2\n      div\n      mul\n      0x20\n      add\n      mload(0x40)\n      swap1\n      dup2\n      add\n      0x40\n      mstore\n      dup1\n      swap3\n      swap2\n      swap1\n      dup2\n      dup2\n      mstore\n      0x20\n      add\n      dup3\n      dup1\n      sload\n      tag_169\n      swap1\n      tag_90\n      jump\t// in\n    tag_169:\n      dup1\n      iszero\n      tag_170\n      jumpi\n      dup1\n      0x1f\n      lt\n      tag_171\n      jumpi\n      0x0100\n      dup1\n      dup4\n      sload\n      div\n      mul\n      dup4\n      mstore\n      swap2\n      0x20\n      add\n      swap2\n      jump(tag_170)\n    tag_171:\n      dup3\n      add\n      swap2\n      swap1\n      0x00\n      mstore\n      keccak256(0x00, 0x20)\n      swap1\n    tag_172:\n      dup2\n      sload\n      dup2\n      mstore\n      swap1\n      0x01\n      add\n      swap1\n      0x20\n      add\n      dup1\n      dup4\n      gt\n      tag_172\n      jumpi\n      dup3\n      swap1\n      sub\n      0x1f\n      and\n      dup3\n      add\n      swap2\n    tag_170:\n      pop\n      pop\n      pop\n      pop\n      pop\n      dup2\n      mstore\n      0x20\n      add\n      0x02\n      dup3\n      add\n      dup1\n      sload\n      tag_173\n      swap1\n      tag_90\n      jump\t// in\n    tag_173:\n      dup1\n      0x1f\n      add\n      0x20\n      dup1\n      swap2\n      div\n      mul\n      0x20\n      add\n      mload(0x40)\n      swap1\n      dup2\n      add\n      0x40\n      mstore\n      dup1\n      swap3\n      swap2\n      swap1\n      dup2\n      dup2\n      mstore\n      0x20\n      add\n      dup3\n      dup1\n      sload\n      tag_174\n      swap1\n      tag_90\n      jump\t// in\n    tag_174:\n      dup1\n      iszero\n      tag_175\n      jumpi\n      dup1\n      0x1f\n      lt\n      tag_176\n      jumpi\n      0x0100\n      dup1\n      dup4\n      sload\n      div\n      mul\n      dup4\n      mstore\n      swap2\n      0x20\n      add\n      swap2\n      jump(tag_175)\n    tag_176:\n      dup3\n      add\n      swap2\n      swap1\n      0x00\n      mstore\n      keccak256(0x00, 0x20)\n      swap1\n    tag_177:\n      dup2\n      sload\n      dup2\n      mstore\n      swap1\n      0x01\n      add\n      swap1\n      0x20\n      add\n      dup1\n      dup4\n      gt\n      tag_177\n      jumpi\n      dup3\n      swap1\n      sub\n      0x1f\n      and\n      dup3\n      add\n      swap2\n    tag_175:\n      pop\n      pop\n      pop\n      pop\n      pop\n      dup2\n      mstore\n      pop\n      pop\n      dup2\n      mstore\n      0x20\n      add\n      swap1\n      0x01\n      add\n      swap1\n      jump(tag_160)\n    tag_161:\n      pop\n      pop\n      pop\n      pop\n      dup2\n      mstore\n      0x20\n      add\n      0x06\n      dup3\n      add\n      0x00\n      swap1\n      sload\n      swap1\n      0x0100\n      exp\n      swap1\n      div\n      0xff\n      and\n      iszero\n      iszero\n      iszero\n      iszero\n      dup2\n      mstore\n      0x20\n      add\n      0x07\n      dup3\n      add\n      sload\n      dup2\n      mstore\n      0x20\n      add\n      0x08\n      dup3\n      add\n      sload\n      dup2\n      mstore\n      0x20\n      add\n      0x09\n      dup3\n      add\n      dup1\n      sload\n      tag_178\n      swap1\n      tag_90\n      jump\t// in\n    tag_178:\n      dup1\n      0x1f\n      add\n      0x20\n      dup1\n      swap2\n      div\n      mul\n      0x20\n      add\n      mload(0x40)\n      swap1\n      dup2\n      add\n      0x40\n      mstore\n      dup1\n      swap3\n      swap2\n      swap1\n      dup2\n      dup2\n      mstore\n      0x20\n      add\n      dup3\n      dup1\n      sload\n      tag_179\n      swap1\n      tag_90\n      jump\t// in\n    tag_179:\n      dup1\n      iszero\n      tag_180\n      jumpi\n      dup1\n      0x1f\n      lt\n      tag_181\n      jumpi\n      0x0100\n      dup1\n      dup4\n      sload\n      div\n      mul\n      dup4\n      mstore\n      swap2\n      0x20\n      add\n      swap2\n      jump(tag_180)\n    tag_181:\n      dup3\n      add\n      swap2\n      swap1\n      0x00\n      mstore\n      keccak256(0x00, 0x20)\n      swap1\n    tag_182:\n      dup2\n      sload\n      dup2\n      mstore\n      swap1\n      0x01\n      add\n      swap1\n      0x20\n      add\n      dup1\n      dup4\n      gt\n      tag_182\n      jumpi\n      dup3\n      swap1\n      sub\n      0x1f\n      and\n      dup3\n      add\n      swap2\n    tag_180:\n      pop\n      pop\n      pop\n      pop\n      pop\n      dup2\n      mstore\n      0x20\n      add\n      0x0a\n      dup3\n      add\n      dup1\n      sload\n      tag_183\n      swap1\n      tag_90\n      jump\t// in\n    tag_183:\n      dup1\n      0x1f\n      add\n      0x20\n      dup1\n      swap2\n      div\n      mul\n      0x20\n      add\n      mload(0x40)\n      swap1\n      dup2\n      add\n      0x40\n      mstore\n      dup1\n      swap3\n      swap2\n      swap1\n      dup2\n      dup2\n      mstore\n      0x20\n      add\n      dup3\n      dup1\n      sload\n      tag_184\n      swap1\n      tag_90\n      jump\t// in\n    tag_184:\n      dup1\n      iszero\n      tag_185\n      jumpi\n      dup1\n      0x1f\n      lt\n      tag_186\n      jumpi\n      0x0100\n      dup1\n      dup4\n      sload\n      div\n      mul\n      dup4\n      mstore\n      swap2\n      0x20\n      add\n      swap2\n      jump(tag_185)\n    tag_186:\n      dup3\n      add\n      swap2\n      swap1\n      0x00\n      mstore\n      keccak256(0x00, 0x20)\n      swap1\n    tag_187:\n      dup2\n      sload\n      dup2\n      mstore\n      swap1\n      0x01\n      add\n      swap1\n      0x20\n      add\n      dup1\n      dup4\n      gt\n      tag_187\n      jumpi\n      dup3\n      swap1\n      sub\n      0x1f\n      and\n      dup3\n      add\n      swap2\n    tag_185:\n      pop\n      pop\n      pop\n      pop\n      pop\n      dup2\n      mstore\n      pop\n      pop\n        /* \"complete.sol\":4913:4919  result */\n      dup3\n        /* \"complete.sol\":4920:4921  i */\n      dup3\n        /* \"complete.sol\":4913:4922  result[i] */\n      dup2\n      mload\n      dup2\n      lt\n      tag_188\n      jumpi\n      tag_189\n      tag_118\n      jump\t// in\n    tag_189:\n    tag_188:\n      0x20\n      mul\n      0x20\n      add\n      add\n        /* \"complete.sol\":4913:4948  result[i] = requests[patchnames[i]] */\n      dup2\n      swap1\n      mstore\n      pop\n        /* \"complete.sol\":4890:4893  i++ */\n      dup1\n      dup1\n      tag_190\n      swap1\n      tag_191\n      jump\t// in\n    tag_190:\n      swap2\n      pop\n      pop\n        /* \"complete.sol\":4850:4960  for (uint i = 0; i < patchnames.length; i++) {   ... */\n      jump(tag_113)\n    tag_114:\n      pop\n        /* \"complete.sol\":4979:4985  result */\n      dup1\n        /* \"complete.sol\":4972:4985  return result */\n      swap2\n      pop\n      pop\n        /* \"complete.sol\":4701:4993  function getfromDev() public view returns (listOfBnF[] memory) {... */\n      swap1\n      jump\t// out\n        /* \"complete.sol\":748:789  featureReport[] public unselectedFeatures */\n    tag_34:\n      0x04\n      dup2\n      dup2\n      sload\n      dup2\n      lt\n      tag_192\n      jumpi\n      0x00\n      dup1\n      revert\n    tag_192:\n      swap1\n      0x00\n      mstore\n      keccak256(0x00, 0x20)\n      swap1\n      0x03\n      mul\n      add\n      0x00\n      swap2\n      pop\n      swap1\n      pop\n      dup1\n      0x00\n      add\n      dup1\n      sload\n      tag_194\n      swap1\n      tag_90\n      jump\t// in\n    tag_194:\n      dup1\n      0x1f\n      add\n      0x20\n      dup1\n      swap2\n      div\n      mul\n      0x20\n      add\n      mload(0x40)\n      swap1\n      dup2\n      add\n      0x40\n      mstore\n      dup1\n      swap3\n      swap2\n      swap1\n      dup2\n      dup2\n      mstore\n      0x20\n      add\n      dup3\n      dup1\n      sload\n      tag_195\n      swap1\n      tag_90\n      jump\t// in\n    tag_195:\n      dup1\n      iszero\n      tag_196\n      jumpi\n      dup1\n      0x1f\n      lt\n      tag_197\n      jumpi\n      0x0100\n      dup1\n      dup4\n      sload\n      div\n      mul\n      dup4\n      mstore\n      swap2\n      0x20\n      add\n      swap2\n      jump(tag_196)\n    tag_197:\n      dup3\n      add\n      swap2\n      swap1\n      0x00\n      mstore\n      keccak256(0x00, 0x20)\n      swap1\n    tag_198:\n      dup2\n      sload\n      dup2\n      mstore\n      swap1\n      0x01\n      add\n      swap1\n      0x20\n      add\n      dup1\n      dup4\n      gt\n      tag_198\n      jumpi\n      dup3\n      swap1\n      sub\n      0x1f\n      and\n      dup3\n      add\n      swap2\n    tag_196:\n      pop\n      pop\n      pop\n      pop\n      pop\n      swap1\n      dup1\n      0x01\n      add\n      dup1\n      sload\n      tag_199\n      swap1\n      tag_90\n      jump\t// in\n    tag_199:\n      dup1\n      0x1f\n      add\n      0x20\n      dup1\n      swap2\n      div\n      mul\n      0x20\n      add\n      mload(0x40)\n      swap1\n      dup2\n      add\n      0x40\n      mstore\n      dup1\n      swap3\n      swap2\n      swap1\n      dup2\n      dup2\n      mstore\n      0x20\n      add\n      dup3\n      dup1\n      sload\n      tag_200\n      swap1\n      tag_90\n      jump\t// in\n    tag_200:\n      dup1\n      iszero\n      tag_201\n      jumpi\n      dup1\n      0x1f\n      lt\n      tag_202\n      jumpi\n      0x0100\n      dup1\n      dup4\n      sload\n      div\n      mul\n      dup4\n      mstore\n      swap2\n      0x20\n      add\n      swap2\n      jump(tag_201)\n    tag_202:\n      dup3\n      add\n      swap2\n      swap1\n      0x00\n      mstore\n      keccak256(0x00, 0x20)\n      swap1\n    tag_203:\n      dup2\n      sload\n      dup2\n      mstore\n      swap1\n      0x01\n      add\n      swap1\n      0x20\n      add\n      dup1\n      dup4\n      gt\n      tag_203\n      jumpi\n      dup3\n      swap1\n      sub\n      0x1f\n      and\n      dup3\n      add\n      swap2\n    tag_201:\n      pop\n      pop\n      pop\n      pop\n      pop\n      swap1\n      dup1\n      0x02\n      add\n      dup1\n      sload\n      tag_204\n      swap1\n      tag_90\n      jump\t// in\n    tag_204:\n      dup1\n      0x1f\n      add\n      0x20\n      dup1\n      swap2\n      div\n      mul\n      0x20\n      add\n      mload(0x40)\n      swap1\n      dup2\n      add\n      0x40\n      mstore\n      dup1\n      swap3\n      swap2\n      swap1\n      dup2\n      dup2\n      mstore\n      0x20\n      add\n      dup3\n      dup1\n      sload\n      tag_205\n      swap1\n      tag_90\n      jump\t// in\n    tag_205:\n      dup1\n      iszero\n      tag_206\n      jumpi\n      dup1\n      0x1f\n      lt\n      tag_207\n      jumpi\n      0x0100\n      dup1\n      dup4\n      sload\n      div\n      mul\n      dup4\n      mstore\n      swap2\n      0x20\n      add\n      swap2\n      jump(tag_206)\n    tag_207:\n      dup3\n      add\n      swap2\n      swap1\n      0x00\n      mstore\n      keccak256(0x00, 0x20)\n      swap1\n    tag_208:\n      dup2\n      sload\n      dup2\n      mstore\n      swap1\n      0x01\n      add\n      swap1\n      0x20\n      add\n      dup1\n      dup4\n      gt\n      tag_208\n      jumpi\n      dup3\n      swap1\n      sub\n      0x1f\n      and\n      dup3\n      add\n      swap2\n    tag_206:\n      pop\n      pop\n      pop\n      pop\n      pop\n      swap1\n      pop\n      dup4\n      jump\t// out\n        /* \"complete.sol\":666:701  featureReport[] public features_arr */\n    tag_38:\n      0x02\n      dup2\n      dup2\n      sload\n      dup2\n      lt\n      tag_209\n      jumpi\n      0x00\n      dup1\n      revert\n    tag_209:\n      swap1\n      0x00\n      mstore\n      keccak256(0x00, 0x20)\n      swap1\n      0x03\n      mul\n      add\n      0x00\n      swap2\n      pop\n      swap1\n      pop\n      dup1\n      0x00\n      add\n      dup1\n      sload\n      tag_211\n      swap1\n      tag_90\n      jump\t// in\n    tag_211:\n      dup1\n      0x1f\n      add\n      0x20\n      dup1\n      swap2\n      div\n      mul\n      0x20\n      add\n      mload(0x40)\n      swap1\n      dup2\n      add\n      0x40\n      mstore\n      dup1\n      swap3\n      swap2\n      swap1\n      dup2\n      dup2\n      mstore\n      0x20\n      add\n      dup3\n      dup1\n      sload\n      tag_212\n      swap1\n      tag_90\n      jump\t// in\n    tag_212:\n      dup1\n      iszero\n      tag_213\n      jumpi\n      dup1\n      0x1f\n      lt\n      tag_214\n      jumpi\n      0x0100\n      dup1\n      dup4\n      sload\n      div\n      mul\n      dup4\n      mstore\n      swap2\n      0x20\n      add\n      swap2\n      jump(tag_213)\n    tag_214:\n      dup3\n      add\n      swap2\n      swap1\n      0x00\n      mstore\n      keccak256(0x00, 0x20)\n      swap1\n    tag_215:\n      dup2\n      sload\n      dup2\n      mstore\n      swap1\n      0x01\n      add\n      swap1\n      0x20\n      add\n      dup1\n      dup4\n      gt\n      tag_215\n      jumpi\n      dup3\n      swap1\n      sub\n      0x1f\n      and\n      dup3\n      add\n      swap2\n    tag_213:\n      pop\n      pop\n      pop\n      pop\n      pop\n      swap1\n      dup1\n      0x01\n      add\n      dup1\n      sload\n      tag_216\n      swap1\n      tag_90\n      jump\t// in\n    tag_216:\n      dup1\n      0x1f\n      add\n      0x20\n      dup1\n      swap2\n      div\n      mul\n      0x20\n      add\n      mload(0x40)\n      swap1\n      dup2\n      add\n      0x40\n      mstore\n      dup1\n      swap3\n      swap2\n      swap1\n      dup2\n      dup2\n      mstore\n      0x20\n      add\n      dup3\n      dup1\n      sload\n      tag_217\n      swap1\n      tag_90\n      jump\t// in\n    tag_217:\n      dup1\n      iszero\n      tag_218\n      jumpi\n      dup1\n      0x1f\n      lt\n      tag_219\n      jumpi\n      0x0100\n      dup1\n      dup4\n      sload\n      div\n      mul\n      dup4\n      mstore\n      swap2\n      0x20\n      add\n      swap2\n      jump(tag_218)\n    tag_219:\n      dup3\n      add\n      swap2\n      swap1\n      0x00\n      mstore\n      keccak256(0x00, 0x20)\n      swap1\n    tag_220:\n      dup2\n      sload\n      dup2\n      mstore\n      swap1\n      0x01\n      add\n      swap1\n      0x20\n      add\n      dup1\n      dup4\n      gt\n      tag_220\n      jumpi\n      dup3\n      swap1\n      sub\n      0x1f\n      and\n      dup3\n      add\n      swap2\n    tag_218:\n      pop\n      pop\n      pop\n      pop\n      pop\n      swap1\n      dup1\n      0x02\n      add\n      dup1\n      sload\n      tag_221\n      swap1\n      tag_90\n      jump\t// in\n    tag_221:\n      dup1\n      0x1f\n      add\n      0x20\n      dup1\n      swap2\n      div\n      mul\n      0x20\n      add\n      mload(0x40)\n      swap1\n      dup2\n      add\n      0x40\n      mstore\n      dup1\n      swap3\n      swap2\n      swap1\n      dup2\n      dup2\n      mstore\n      0x20\n      add\n      dup3\n      dup1\n      sload\n      tag_222\n      swap1\n      tag_90\n      jump\t// in\n    tag_222:\n      dup1\n      iszero\n      tag_223\n      jumpi\n      dup1\n      0x1f\n      lt\n      tag_224\n      jumpi\n      0x0100\n      dup1\n      dup4\n      sload\n      div\n      mul\n      dup4\n      mstore\n      swap2\n      0x20\n      add\n      swap2\n      jump(tag_223)\n    tag_224:\n      dup3\n      add\n      swap2\n      swap1\n      0x00\n      mstore\n      keccak256(0x00, 0x20)\n      swap1\n    tag_225:\n      dup2\n      sload\n      dup2\n      mstore\n      swap1\n      0x01\n      add\n      swap1\n      0x20\n      add\n      dup1\n      dup4\n      gt\n      tag_225\n      jumpi\n      dup3\n      swap1\n      sub\n      0x1f\n      and\n      dup3\n      add\n      swap2\n    tag_223:\n      pop\n      pop\n      pop\n      pop\n      pop\n      swap1\n      pop\n      dup4\n      jump\t// out\n        /* \"complete.sol\":831:875  mapping(string => listOfBnF) public requests */\n    tag_43:\n      0x06\n      dup2\n      dup1\n      mload\n      0x20\n      dup2\n      add\n      dup3\n      add\n      dup1\n      mload\n      dup5\n      dup3\n      mstore\n      0x20\n      dup4\n      add\n      0x20\n      dup6\n      add\n      keccak256\n      dup2\n      dup4\n      mstore\n      dup1\n      swap6\n      pop\n      pop\n      pop\n      pop\n      pop\n      pop\n      0x00\n      swap2\n      pop\n      swap1\n      pop\n      dup1\n      0x00\n      add\n      dup1\n      sload\n      tag_226\n      swap1\n      tag_90\n      jump\t// in\n    tag_226:\n      dup1\n      0x1f\n      add\n      0x20\n      dup1\n      swap2\n      div\n      mul\n      0x20\n      add\n      mload(0x40)\n      swap1\n      dup2\n      add\n      0x40\n      mstore\n      dup1\n      swap3\n      swap2\n      swap1\n      dup2\n      dup2\n      mstore\n      0x20\n      add\n      dup3\n      dup1\n      sload\n      tag_227\n      swap1\n      tag_90\n      jump\t// in\n    tag_227:\n      dup1\n      iszero\n      tag_228\n      jumpi\n      dup1\n      0x1f\n      lt\n      tag_229\n      jumpi\n      0x0100\n      dup1\n      dup4\n      sload\n      div\n      mul\n      dup4\n      mstore\n      swap2\n      0x20\n      add\n      swap2\n      jump(tag_228)\n    tag_229:\n      dup3\n      add\n      swap2\n      swap1\n      0x00\n      mstore\n      keccak256(0x00, 0x20)\n      swap1\n    tag_230:\n      dup2\n      sload\n      dup2\n      mstore\n      swap1\n      0x01\n      add\n      swap1\n      0x20\n      add\n      dup1\n      dup4\n      gt\n      tag_230\n      jumpi\n      dup3\n      swap1\n      sub\n      0x1f\n      and\n      dup3\n      add\n      swap2\n    tag_228:\n      pop\n      pop\n      pop\n      pop\n      pop\n      swap1\n      dup1\n      0x01\n      add\n      dup1\n      sload\n      tag_231\n      swap1\n      tag_90\n      jump\t// in\n    tag_231:\n      dup1\n      0x1f\n      add\n      0x20\n      dup1\n      swap2\n      div\n      mul\n      0x20\n      add\n      mload(0x40)\n      swap1\n      dup2\n      add\n      0x40\n      mstore\n      dup1\n      swap3\n      swap2\n      swap1\n      dup2\n      dup2\n      mstore\n      0x20\n      add\n      dup3\n      dup1\n      sload\n      tag_232\n      swap1\n      tag_90\n      jump\t// in\n    tag_232:\n      dup1\n      iszero\n      tag_233\n      jumpi\n      dup1\n      0x1f\n      lt\n      tag_234\n      jumpi\n      0x0100\n      dup1\n      dup4\n      sload\n      div\n      mul\n      dup4\n      mstore\n      swap2\n      0x20\n      add\n      swap2\n      jump(tag_233)\n    tag_234:\n      dup3\n      add\n      swap2\n      swap1\n      0x00\n      mstore\n      keccak256(0x00, 0x20)\n      swap1\n    tag_235:\n      dup2\n      sload\n      dup2\n      mstore\n      swap1\n      0x01\n      add\n      swap1\n      0x20\n      add\n      dup1\n      dup4\n      gt\n      tag_235\n      jumpi\n      dup3\n      swap1\n      sub\n      0x1f\n      and\n      dup3\n      add\n      swap2\n    tag_233:\n      pop\n      pop\n      pop\n      pop\n      pop\n      swap1\n      dup1\n      0x02\n      add\n      dup1\n      sload\n      tag_236\n      swap1\n      tag_90\n      jump\t// in\n    tag_236:\n      dup1\n      0x1f\n      add\n      0x20\n      dup1\n      swap2\n      div\n      mul\n      0x20\n      add\n      mload(0x40)\n      swap1\n      dup2\n      add\n      0x40\n      mstore\n      dup1\n      swap3\n      swap2\n      swap1\n      dup2\n      dup2\n      mstore\n      0x20\n      add\n      dup3\n      dup1\n      sload\n      tag_237\n      swap1\n      tag_90\n      jump\t// in\n    tag_237:\n      dup1\n      iszero\n      tag_238\n      jumpi\n      dup1\n      0x1f\n      lt\n      tag_239\n      jumpi\n      0x0100\n      dup1\n      dup4\n      sload\n      div\n      mul\n      dup4\n      mstore\n      swap2\n      0x20\n      add\n      swap2\n      jump(tag_238)\n    tag_239:\n      dup3\n      add\n      swap2\n      swap1\n      0x00\n      mstore\n      keccak256(0x00, 0x20)\n      swap1\n    tag_240:\n      dup2\n      sload\n      dup2\n      mstore\n      swap1\n      0x01\n      add\n      swap1\n      0x20\n      add\n      dup1\n      dup4\n      gt\n      tag_240\n      jumpi\n      dup3\n      swap1\n      sub\n      0x1f\n      and\n      dup3\n      add\n      swap2\n    tag_238:\n      pop\n      pop\n      pop\n      pop\n      pop\n      swap1\n      dup1\n      0x03\n      add\n      dup1\n      sload\n      tag_241\n      swap1\n      tag_90\n      jump\t// in\n    tag_241:\n      dup1\n      0x1f\n      add\n      0x20\n      dup1\n      swap2\n      div\n      mul\n      0x20\n      add\n      mload(0x40)\n      swap1\n      dup2\n      add\n      0x40\n      mstore\n      dup1\n      swap3\n      swap2\n      swap1\n      dup2\n      dup2\n      mstore\n      0x20\n      add\n      dup3\n      dup1\n      sload\n      tag_242\n      swap1\n      tag_90\n      jump\t// in\n    tag_242:\n      dup1\n      iszero\n      tag_243\n      jumpi\n      dup1\n      0x1f\n      lt\n      tag_244\n      jumpi\n      0x0100\n      dup1\n      dup4\n      sload\n      div\n      mul\n      dup4\n      mstore\n      swap2\n      0x20\n      add\n      swap2\n      jump(tag_243)\n    tag_244:\n      dup3\n      add\n      swap2\n      swap1\n      0x00\n      mstore\n      keccak256(0x00, 0x20)\n      swap1\n    tag_245:\n      dup2\n      sload\n      dup2\n      mstore\n      swap1\n      0x01\n      add\n      swap1\n      0x20\n      add\n      dup1\n      dup4\n      gt\n      tag_245\n      jumpi\n      dup3\n      swap1\n      sub\n      0x1f\n      and\n      dup3\n      add\n      swap2\n    tag_243:\n      pop\n      pop\n      pop\n      pop\n      pop\n      swap1\n      dup1\n      0x06\n      add\n      0x00\n      swap1\n      sload\n      swap1\n      0x0100\n      exp\n      swap1\n      div\n      0xff\n      and\n      swap1\n      dup1\n      0x07\n      add\n      sload\n      swap1\n      dup1\n      0x08\n      add\n      sload\n      swap1\n      dup1\n      0x09\n      add\n      dup1\n      sload\n      tag_246\n      swap1\n      tag_90\n      jump\t// in\n    tag_246:\n      dup1\n      0x1f\n      add\n      0x20\n      dup1\n      swap2\n      div\n      mul\n      0x20\n      add\n      mload(0x40)\n      swap1\n      dup2\n      add\n      0x40\n      mstore\n      dup1\n      swap3\n      swap2\n      swap1\n      dup2\n      dup2\n      mstore\n      0x20\n      add\n      dup3\n      dup1\n      sload\n      tag_247\n      swap1\n      tag_90\n      jump\t// in\n    tag_247:\n      dup1\n      iszero\n      tag_248\n      jumpi\n      dup1\n      0x1f\n      lt\n      tag_249\n      jumpi\n      0x0100\n      dup1\n      dup4\n      sload\n      div\n      mul\n      dup4\n      mstore\n      swap2\n      0x20\n      add\n      swap2\n      jump(tag_248)\n    tag_249:\n      dup3\n      add\n      swap2\n      swap1\n      0x00\n      mstore\n      keccak256(0x00, 0x20)\n      swap1\n    tag_250:\n      dup2\n      sload\n      dup2\n      mstore\n      swap1\n      0x01\n      add\n      swap1\n      0x20\n      add\n      dup1\n      dup4\n      gt\n      tag_250\n      jumpi\n      dup3\n      swap1\n      sub\n      0x1f\n      and\n      dup3\n      add\n      swap2\n    tag_248:\n      pop\n      pop\n      pop\n      pop\n      pop\n      swap1\n      dup1\n      0x0a\n      add\n      dup1\n      sload\n      tag_251\n      swap1\n      tag_90\n      jump\t// in\n    tag_251:\n      dup1\n      0x1f\n      add\n      0x20\n      dup1\n      swap2\n      div\n      mul\n      0x20\n      add\n      mload(0x40)\n      swap1\n      dup2\n      add\n      0x40\n      mstore\n      dup1\n      swap3\n      swap2\n      swap1\n      dup2\n      dup2\n      mstore\n      0x20\n      add\n      dup3\n      dup1\n      sload\n      tag_252\n      swap1\n      tag_90\n      jump\t// in\n    tag_252:\n      dup1\n      iszero\n      tag_253\n      jumpi\n      dup1\n      0x1f\n      lt\n      tag_254\n      jumpi\n      0x0100\n      dup1\n      dup4\n      sload\n      div\n      mul\n      dup4\n      mstore\n      swap2\n      0x20\n      add\n      swap2\n      jump(tag_253)\n    tag_254:\n      dup3\n      add\n      swap2\n      swap1\n      0x00\n      mstore\n      keccak256(0x00, 0x20)\n      swap1\n    tag_255:\n      dup2\n      sload\n      dup2\n      mstore\n      swap1\n      0x01\n      add\n      swap1\n      0x20\n      add\n      dup1\n      dup4\n      gt\n      tag_255\n      jumpi\n      dup3\n      swap1\n      sub\n      0x1f\n      and\n      dup3\n      add\n      swap2\n    tag_253:\n      pop\n      pop\n      pop\n      pop\n      pop\n      swap1\n      pop\n      dup10\n      jump\t// out\n        /* \"complete.sol\":1966:2114  function previousReq() public view returns(bugReport[] memory, featureReport[] memory ){... */\n    tag_47:\n        /* \"complete.sol\":2009:2027  bugReport[] memory */\n      0x60\n        /* \"complete.sol\":2029:2051  featureReport[] memory */\n      dup1\n        /* \"complete.sol\":2072:2086  unselectedBugs */\n      0x03\n        /* \"complete.sol\":2087:2105  unselectedFeatures */\n      0x04\n        /* \"complete.sol\":2064:2106  return (unselectedBugs,unselectedFeatures) */\n      dup2\n      dup1\n      sload\n      dup1\n      0x20\n      mul\n      0x20\n      add\n      mload(0x40)\n      swap1\n      dup2\n      add\n      0x40\n      mstore\n      dup1\n      swap3\n      swap2\n      swap1\n      dup2\n      dup2\n      mstore\n      0x20\n      add\n      0x00\n      swap1\n    tag_257:\n      dup3\n      dup3\n      lt\n      iszero\n      tag_258\n      jumpi\n      dup4\n      dup3\n      swap1\n      0x00\n      mstore\n      keccak256(0x00, 0x20)\n      swap1\n      0x03\n      mul\n      add\n      mload(0x40)\n      dup1\n      0x60\n      add\n      0x40\n      mstore\n      swap1\n      dup2\n      0x00\n      dup3\n      add\n      dup1\n      sload\n      tag_260\n      swap1\n      tag_90\n      jump\t// in\n    tag_260:\n      dup1\n      0x1f\n      add\n      0x20\n      dup1\n      swap2\n      div\n      mul\n      0x20\n      add\n      mload(0x40)\n      swap1\n      dup2\n      add\n      0x40\n      mstore\n      dup1\n      swap3\n      swap2\n      swap1\n      dup2\n      dup2\n      mstore\n      0x20\n      add\n      dup3\n      dup1\n      sload\n      tag_261\n      swap1\n      tag_90\n      jump\t// in\n    tag_261:\n      dup1\n      iszero\n      tag_262\n      jumpi\n      dup1\n      0x1f\n      lt\n      tag_263\n      jumpi\n      0x0100\n      dup1\n      dup4\n      sload\n      div\n      mul\n      dup4\n      mstore\n      swap2\n      0x20\n      add\n      swap2\n      jump(tag_262)\n    tag_263:\n      dup3\n      add\n      swap2\n      swap1\n      0x00\n      mstore\n      keccak256(0x00, 0x20)\n      swap1\n    tag_264:\n      dup2\n      sload\n      dup2\n      mstore\n      swap1\n      0x01\n      add\n      swap1\n      0x20\n      add\n      dup1\n      dup4\n      gt\n      tag_264\n      jumpi\n      dup3\n      swap1\n      sub\n      0x1f\n      and\n      dup3\n      add\n      swap2\n    tag_262:\n      pop\n      pop\n      pop\n      pop\n      pop\n      dup2\n      mstore\n      0x20\n      add\n      0x01\n      dup3\n      add\n      dup1\n      sload\n      tag_265\n      swap1\n      tag_90\n      jump\t// in\n    tag_265:\n      dup1\n      0x1f\n      add\n      0x20\n      dup1\n      swap2\n      div\n      mul\n      0x20\n      add\n      mload(0x40)\n      swap1\n      dup2\n      add\n      0x40\n      mstore\n      dup1\n      swap3\n      swap2\n      swap1\n      dup2\n      dup2\n      mstore\n      0x20\n      add\n      dup3\n      dup1\n      sload\n      tag_266\n      swap1\n      tag_90\n      jump\t// in\n    tag_266:\n      dup1\n      iszero\n      tag_267\n      jumpi\n      dup1\n      0x1f\n      lt\n      tag_268\n      jumpi\n      0x0100\n      dup1\n      dup4\n      sload\n      div\n      mul\n      dup4\n      mstore\n      swap2\n      0x20\n      add\n      swap2\n      jump(tag_267)\n    tag_268:\n      dup3\n      add\n      swap2\n      swap1\n      0x00\n      mstore\n      keccak256(0x00, 0x20)\n      swap1\n    tag_269:\n      dup2\n      sload\n      dup2\n      mstore\n      swap1\n      0x01\n      add\n      swap1\n      0x20\n      add\n      dup1\n      dup4\n      gt\n      tag_269\n      jumpi\n      dup3\n      swap1\n      sub\n      0x1f\n      and\n      dup3\n      add\n      swap2\n    tag_267:\n      pop\n      pop\n      pop\n      pop\n      pop\n      dup2\n      mstore\n      0x20\n      add\n      0x02\n      dup3\n      add\n      dup1\n      sload\n      tag_270\n      swap1\n      tag_90\n      jump\t// in\n    tag_270:\n      dup1\n      0x1f\n      add\n      0x20\n      dup1\n      swap2\n      div\n      mul\n      0x20\n      add\n      mload(0x40)\n      swap1\n      dup2\n      add\n      0x40\n      mstore\n      dup1\n      swap3\n      swap2\n      swap1\n      dup2\n      dup2\n      mstore\n      0x20\n      add\n      dup3\n      dup1\n      sload\n      tag_271\n      swap1\n      tag_90\n      jump\t// in\n    tag_271:\n      dup1\n      iszero\n      tag_272\n      jumpi\n      dup1\n      0x1f\n      lt\n      tag_273\n      jumpi\n      0x0100\n      dup1\n      dup4\n      sload\n      div\n      mul\n      dup4\n      mstore\n      swap2\n      0x20\n      add\n      swap2\n      jump(tag_272)\n    tag_273:\n      dup3\n      add\n      swap2\n      swap1\n      0x00\n      mstore\n      keccak256(0x00, 0x20)\n      swap1\n    tag_274:\n      dup2\n      sload\n      dup2\n      mstore\n      swap1\n      0x01\n      add\n      swap1\n      0x20\n      add\n      dup1\n      dup4\n      gt\n      tag_274\n      jumpi\n      dup3\n      swap1\n      sub\n      0x1f\n      and\n      dup3\n      add\n      swap2\n    tag_272:\n      pop\n      pop\n      pop\n      pop\n      pop\n      dup2\n      mstore\n      pop\n      pop\n      dup2\n      mstore\n      0x20\n      add\n      swap1\n      0x01\n      add\n      swap1\n      jump(tag_257)\n    tag_258:\n      pop\n      pop\n      pop\n      pop\n      swap2\n      pop\n      dup1\n      dup1\n      sload\n      dup1\n      0x20\n      mul\n      0x20\n      add\n      mload(0x40)\n      swap1\n      dup2\n      add\n      0x40\n      mstore\n      dup1\n      swap3\n      swap2\n      swap1\n      dup2\n      dup2\n      mstore\n      0x20\n      add\n      0x00\n      swap1\n    tag_275:\n      dup3\n      dup3\n      lt\n      iszero\n      tag_276\n      jumpi\n      dup4\n      dup3\n      swap1\n      0x00\n      mstore\n      keccak256(0x00, 0x20)\n      swap1\n      0x03\n      mul\n      add\n      mload(0x40)\n      dup1\n      0x60\n      add\n      0x40\n      mstore\n      swap1\n      dup2\n      0x00\n      dup3\n      add\n      dup1\n      sload\n      tag_278\n      swap1\n      tag_90\n      jump\t// in\n    tag_278:\n      dup1\n      0x1f\n      add\n      0x20\n      dup1\n      swap2\n      div\n      mul\n      0x20\n      add\n      mload(0x40)\n      swap1\n      dup2\n      add\n      0x40\n      mstore\n      dup1\n      swap3\n      swap2\n      swap1\n      dup2\n      dup2\n      mstore\n      0x20\n      add\n      dup3\n      dup1\n      sload\n      tag_279\n      swap1\n      tag_90\n      jump\t// in\n    tag_279:\n      dup1\n      iszero\n      tag_280\n      jumpi\n      dup1\n      0x1f\n      lt\n      tag_281\n      jumpi\n      0x0100\n      dup1\n      dup4\n      sload\n      div\n      mul\n      dup4\n      mstore\n      swap2\n      0x20\n      add\n      swap2\n      jump(tag_280)\n    tag_281:\n      dup3\n      add\n      swap2\n      swap1\n      0x00\n      mstore\n      keccak256(0x00, 0x20)\n      swap1\n    tag_282:\n      dup2\n      sload\n      dup2\n      mstore\n      swap1\n      0x01\n      add\n      swap1\n      0x20\n      add\n      dup1\n      dup4\n      gt\n      tag_282\n      jumpi\n      dup3\n      swap1\n      sub\n      0x1f\n      and\n      dup3\n      add\n      swap2\n    tag_280:\n      pop\n      pop\n      pop\n      pop\n      pop\n      dup2\n      mstore\n      0x20\n      add\n      0x01\n      dup3\n      add\n      dup1\n      sload\n      tag_283\n      swap1\n      tag_90\n      jump\t// in\n    tag_283:\n      dup1\n      0x1f\n      add\n      0x20\n      dup1\n      swap2\n      div\n      mul\n      0x20\n      add\n      mload(0x40)\n      swap1\n      dup2\n      add\n      0x40\n      mstore\n      dup1\n      swap3\n      swap2\n      swap1\n      dup2\n      dup2\n      mstore\n      0x20\n      add\n      dup3\n      dup1\n      sload\n      tag_284\n      swap1\n      tag_90\n      jump\t// in\n    tag_284:\n      dup1\n      iszero\n      tag_285\n      jumpi\n      dup1\n      0x1f\n      lt\n      tag_286\n      jumpi\n      0x0100\n      dup1\n      dup4\n      sload\n      div\n      mul\n      dup4\n      mstore\n      swap2\n      0x20\n      add\n      swap2\n      jump(tag_285)\n    tag_286:\n      dup3\n      add\n      swap2\n      swap1\n      0x00\n      mstore\n      keccak256(0x00, 0x20)\n      swap1\n    tag_287:\n      dup2\n      sload\n      dup2\n      mstore\n      swap1\n      0x01\n      add\n      swap1\n      0x20\n      add\n      dup1\n      dup4\n      gt\n      tag_287\n      jumpi\n      dup3\n      swap1\n      sub\n      0x1f\n      and\n      dup3\n      add\n      swap2\n    tag_285:\n      pop\n      pop\n      pop\n      pop\n      pop\n      dup2\n      mstore\n      0x20\n      add\n      0x02\n      dup3\n      add\n      dup1\n      sload\n      tag_288\n      swap1\n      tag_90\n      jump\t// in\n    tag_288:\n      dup1\n      0x1f\n      add\n      0x20\n      dup1\n      swap2\n      div\n      mul\n      0x20\n      add\n      mload(0x40)\n      swap1\n      dup2\n      add\n      0x40\n      mstore\n      dup1\n      swap3\n      swap2\n      swap1\n      dup2\n      dup2\n      mstore\n      0x20\n      add\n      dup3\n      dup1\n      sload\n      tag_289\n      swap1\n      tag_90\n      jump\t// in\n    tag_289:\n      dup1\n      iszero\n      tag_290\n      jumpi\n      dup1\n      0x1f\n      lt\n      tag_291\n      jumpi\n      0x0100\n      dup1\n      dup4\n      sload\n      div\n      mul\n      dup4\n      mstore\n      swap2\n      0x20\n      add\n      swap2\n      jump(tag_290)\n    tag_291:\n      dup3\n      add\n      swap2\n      swap1\n      0x00\n      mstore\n      keccak256(0x00, 0x20)\n      swap1\n    tag_292:\n      dup2\n      sload\n      dup2\n      mstore\n      swap1\n      0x01\n      add\n      swap1\n      0x20\n      add\n      dup1\n      dup4\n      gt\n      tag_292\n      jumpi\n      dup3\n      swap1\n      sub\n      0x1f\n      and\n      dup3\n      add\n      swap2\n    tag_290:\n      pop\n      pop\n      pop\n      pop\n      pop\n      dup2\n      mstore\n      pop\n      pop\n      dup2\n      mstore\n      0x20\n      add\n      swap1\n      0x01\n      add\n      swap1\n      jump(tag_275)\n    tag_276:\n      pop\n      pop\n      pop\n      pop\n      swap1\n      pop\n      swap2\n      pop\n      swap2\n      pop\n        /* \"complete.sol\":1966:2114  function previousReq() public view returns(bugReport[] memory, featureReport[] memory ){... */\n      swap1\n      swap2\n      jump\t// out\n        /* \"complete.sol\":3885:4178  function getRequests() public view returns (listOfBnF[] memory) {... */\n    tag_51:\n        /* \"complete.sol\":3929:3947  listOfBnF[] memory */\n      0x60\n        /* \"complete.sol\":3960:3985  listOfBnF[] memory result */\n      0x00\n        /* \"complete.sol\":4004:4014  patchnames */\n      0x07\n        /* \"complete.sol\":4004:4021  patchnames.length */\n      dup1\n      sload\n      swap1\n      pop\n        /* \"complete.sol\":3988:4022  new listOfBnF[](patchnames.length) */\n      0xffffffffffffffff\n      dup2\n      gt\n      iszero\n      tag_294\n      jumpi\n      tag_295\n      tag_108\n      jump\t// in\n    tag_295:\n    tag_294:\n      mload(0x40)\n      swap1\n      dup1\n      dup3\n      mstore\n      dup1\n      0x20\n      mul\n      0x20\n      add\n      dup3\n      add\n      0x40\n      mstore\n      dup1\n      iszero\n      tag_296\n      jumpi\n      dup2\n      0x20\n      add\n    tag_297:\n      tag_298\n      tag_112\n      jump\t// in\n    tag_298:\n      dup2\n      mstore\n      0x20\n      add\n      swap1\n      0x01\n      swap1\n      sub\n      swap1\n      dup2\n      tag_297\n      jumpi\n      swap1\n      pop\n    tag_296:\n      pop\n        /* \"complete.sol\":3960:4022  listOfBnF[] memory result = new listOfBnF[](patchnames.length) */\n      swap1\n      pop\n        /* \"complete.sol\":4040:4046  uint i */\n      0x00\n        /* \"complete.sol\":4035:4145  for (uint i = 0; i < patchnames.length; i++) {   ... */\n    tag_299:\n        /* \"complete.sol\":4056:4066  patchnames */\n      0x07\n        /* \"complete.sol\":4056:4073  patchnames.length */\n      dup1\n      sload\n      swap1\n      pop\n        /* \"complete.sol\":4052:4053  i */\n      dup2\n        /* \"complete.sol\":4052:4073  i < patchnames.length */\n      lt\n        /* \"complete.sol\":4035:4145  for (uint i = 0; i < patchnames.length; i++) {   ... */\n      iszero\n      tag_300\n      jumpi\n        /* \"complete.sol\":4110:4118  requests */\n      0x06\n        /* \"complete.sol\":4119:4129  patchnames */\n      0x07\n        /* \"complete.sol\":4130:4131  i */\n      dup3\n        /* \"complete.sol\":4119:4132  patchnames[i] */\n      dup2\n      sload\n      dup2\n      lt\n      tag_302\n      jumpi\n      tag_303\n      tag_118\n      jump\t// in\n    tag_303:\n    tag_302:\n      swap1\n      0x00\n      mstore\n      keccak256(0x00, 0x20)\n      add\n        /* \"complete.sol\":4110:4133  requests[patchnames[i]] */\n      mload(0x40)\n      tag_305\n      swap2\n      swap1\n      tag_121\n      jump\t// in\n    tag_305:\n      swap1\n      dup2\n      mstore\n      0x20\n      add\n      mload(0x40)\n      dup1\n      swap2\n      sub\n      swap1\n      keccak256\n        /* \"complete.sol\":4098:4133  result[i] = requests[patchnames[i]] */\n      mload(0x40)\n      dup1\n      0x0160\n      add\n      0x40\n      mstore\n      swap1\n      dup2\n      0x00\n      dup3\n      add\n      dup1\n      sload\n      tag_306\n      swap1\n      tag_90\n      jump\t// in\n    tag_306:\n      dup1\n      0x1f\n      add\n      0x20\n      dup1\n      swap2\n      div\n      mul\n      0x20\n      add\n      mload(0x40)\n      swap1\n      dup2\n      add\n      0x40\n      mstore\n      dup1\n      swap3\n      swap2\n      swap1\n      dup2\n      dup2\n      mstore\n      0x20\n      add\n      dup3\n      dup1\n      sload\n      tag_307\n      swap1\n      tag_90\n      jump\t// in\n    tag_307:\n      dup1\n      iszero\n      tag_308\n      jumpi\n      dup1\n      0x1f\n      lt\n      tag_309\n      jumpi\n      0x0100\n      dup1\n      dup4\n      sload\n      div\n      mul\n      dup4\n      mstore\n      swap2\n      0x20\n      add\n      swap2\n      jump(tag_308)\n    tag_309:\n      dup3\n      add\n      swap2\n      swap1\n      0x00\n      mstore\n      keccak256(0x00, 0x20)\n      swap1\n    tag_310:\n      dup2\n      sload\n      dup2\n      mstore\n      swap1\n      0x01\n      add\n      swap1\n      0x20\n      add\n      dup1\n      dup4\n      gt\n      tag_310\n      jumpi\n      dup3\n      swap1\n      sub\n      0x1f\n      and\n      dup3\n      add\n      swap2\n    tag_308:\n      pop\n      pop\n      pop\n      pop\n      pop\n      dup2\n      mstore\n      0x20\n      add\n      0x01\n      dup3\n      add\n      dup1\n      sload\n      tag_311\n      swap1\n      tag_90\n      jump\t// in\n    tag_311:\n      dup1\n      0x1f\n      add\n      0x20\n      dup1\n      swap2\n      div\n      mul\n      0x20\n      add\n      mload(0x40)\n      swap1\n      dup2\n      add\n      0x40\n      mstore\n      dup1\n      swap3\n      swap2\n      swap1\n      dup2\n      dup2\n      mstore\n      0x20\n      add\n      dup3\n      dup1\n      sload\n      tag_312\n      swap1\n      tag_90\n      jump\t// in\n    tag_312:\n      dup1\n      iszero\n      tag_313\n      jumpi\n      dup1\n      0x1f\n      lt\n      tag_314\n      jumpi\n      0x0100\n      dup1\n      dup4\n      sload\n      div\n      mul\n      dup4\n      mstore\n      swap2\n      0x20\n      add\n      swap2\n      jump(tag_313)\n    tag_314:\n      dup3\n      add\n      swap2\n      swap1\n      0x00\n      mstore\n      keccak256(0x00, 0x20)\n      swap1\n    tag_315:\n      dup2\n      sload\n      dup2\n      mstore\n      swap1\n      0x01\n      add\n      swap1\n      0x20\n      add\n      dup1\n      dup4\n      gt\n      tag_315\n      jumpi\n      dup3\n      swap1\n      sub\n      0x1f\n      and\n      dup3\n      add\n      swap2\n    tag_313:\n      pop\n      pop\n      pop\n      pop\n      pop\n      dup2\n      mstore\n      0x20\n      add\n      0x02\n      dup3\n      add\n      dup1\n      sload\n      tag_316\n      swap1\n      tag_90\n      jump\t// in\n    tag_316:\n      dup1\n      0x1f\n      add\n      0x20\n      dup1\n      swap2\n      div\n      mul\n      0x20\n      add\n      mload(0x40)\n      swap1\n      dup2\n      add\n      0x40\n      mstore\n      dup1\n      swap3\n      swap2\n      swap1\n      dup2\n      dup2\n      mstore\n      0x20\n      add\n      dup3\n      dup1\n      sload\n      tag_317\n      swap1\n      tag_90\n      jump\t// in\n    tag_317:\n      dup1\n      iszero\n      tag_318\n      jumpi\n      dup1\n      0x1f\n      lt\n      tag_319\n      jumpi\n      0x0100\n      dup1\n      dup4\n      sload\n      div\n      mul\n      dup4\n      mstore\n      swap2\n      0x20\n      add\n      swap2\n      jump(tag_318)\n    tag_319:\n      dup3\n      add\n      swap2\n      swap1\n      0x00\n      mstore\n      keccak256(0x00, 0x20)\n      swap1\n    tag_320:\n      dup2\n      sload\n      dup2\n      mstore\n      swap1\n      0x01\n      add\n      swap1\n      0x20\n      add\n      dup1\n      dup4\n      gt\n      tag_320\n      jumpi\n      dup3\n      swap1\n      sub\n      0x1f\n      and\n      dup3\n      add\n      swap2\n    tag_318:\n      pop\n      pop\n      pop\n      pop\n      pop\n      dup2\n      mstore\n      0x20\n      add\n      0x03\n      dup3\n      add\n      dup1\n      sload\n      tag_321\n      swap1\n      tag_90\n      jump\t// in\n    tag_321:\n      dup1\n      0x1f\n      add\n      0x20\n      dup1\n      swap2\n      div\n      mul\n      0x20\n      add\n      mload(0x40)\n      swap1\n      dup2\n      add\n      0x40\n      mstore\n      dup1\n      swap3\n      swap2\n      swap1\n      dup2\n      dup2\n      mstore\n      0x20\n      add\n      dup3\n      dup1\n      sload\n      tag_322\n      swap1\n      tag_90\n      jump\t// in\n    tag_322:\n      dup1\n      iszero\n      tag_323\n      jumpi\n      dup1\n      0x1f\n      lt\n      tag_324\n      jumpi\n      0x0100\n      dup1\n      dup4\n      sload\n      div\n      mul\n      dup4\n      mstore\n      swap2\n      0x20\n      add\n      swap2\n      jump(tag_323)\n    tag_324:\n      dup3\n      add\n      swap2\n      swap1\n      0x00\n      mstore\n      keccak256(0x00, 0x20)\n      swap1\n    tag_325:\n      dup2\n      sload\n      dup2\n      mstore\n      swap1\n      0x01\n      add\n      swap1\n      0x20\n      add\n      dup1\n      dup4\n      gt\n      tag_325\n      jumpi\n      dup3\n      swap1\n      sub\n      0x1f\n      and\n      dup3\n      add\n      swap2\n    tag_323:\n      pop\n      pop\n      pop\n      pop\n      pop\n      dup2\n      mstore\n      0x20\n      add\n      0x04\n      dup3\n      add\n      dup1\n      sload\n      dup1\n      0x20\n      mul\n      0x20\n      add\n      mload(0x40)\n      swap1\n      dup2\n      add\n      0x40\n      mstore\n      dup1\n      swap3\n      swap2\n      swap1\n      dup2\n      dup2\n      mstore\n      0x20\n      add\n      0x00\n      swap1\n    tag_326:\n      dup3\n      dup3\n      lt\n      iszero\n      tag_327\n      jumpi\n      dup4\n      dup3\n      swap1\n      0x00\n      mstore\n      keccak256(0x00, 0x20)\n      swap1\n      0x03\n      mul\n      add\n      mload(0x40)\n      dup1\n      0x60\n      add\n      0x40\n      mstore\n      swap1\n      dup2\n      0x00\n      dup3\n      add\n      dup1\n      sload\n      tag_329\n      swap1\n      tag_90\n      jump\t// in\n    tag_329:\n      dup1\n      0x1f\n      add\n      0x20\n      dup1\n      swap2\n      div\n      mul\n      0x20\n      add\n      mload(0x40)\n      swap1\n      dup2\n      add\n      0x40\n      mstore\n      dup1\n      swap3\n      swap2\n      swap1\n      dup2\n      dup2\n      mstore\n      0x20\n      add\n      dup3\n      dup1\n      sload\n      tag_330\n      swap1\n      tag_90\n      jump\t// in\n    tag_330:\n      dup1\n      iszero\n      tag_331\n      jumpi\n      dup1\n      0x1f\n      lt\n      tag_332\n      jumpi\n      0x0100\n      dup1\n      dup4\n      sload\n      div\n      mul\n      dup4\n      mstore\n      swap2\n      0x20\n      add\n      swap2\n      jump(tag_331)\n    tag_332:\n      dup3\n      add\n      swap2\n      swap1\n      0x00\n      mstore\n      keccak256(0x00, 0x20)\n      swap1\n    tag_333:\n      dup2\n      sload\n      dup2\n      mstore\n      swap1\n      0x01\n      add\n      swap1\n      0x20\n      add\n      dup1\n      dup4\n      gt\n      tag_333\n      jumpi\n      dup3\n      swap1\n      sub\n      0x1f\n      and\n      dup3\n      add\n      swap2\n    tag_331:\n      pop\n      pop\n      pop\n      pop\n      pop\n      dup2\n      mstore\n      0x20\n      add\n      0x01\n      dup3\n      add\n      dup1\n      sload\n      tag_334\n      swap1\n      tag_90\n      jump\t// in\n    tag_334:\n      dup1\n      0x1f\n      add\n      0x20\n      dup1\n      swap2\n      div\n      mul\n      0x20\n      add\n      mload(0x40)\n      swap1\n      dup2\n      add\n      0x40\n      mstore\n      dup1\n      swap3\n      swap2\n      swap1\n      dup2\n      dup2\n      mstore\n      0x20\n      add\n      dup3\n      dup1\n      sload\n      tag_335\n      swap1\n      tag_90\n      jump\t// in\n    tag_335:\n      dup1\n      iszero\n      tag_336\n      jumpi\n      dup1\n      0x1f\n      lt\n      tag_337\n      jumpi\n      0x0100\n      dup1\n      dup4\n      sload\n      div\n      mul\n      dup4\n      mstore\n      swap2\n      0x20\n      add\n      swap2\n      jump(tag_336)\n    tag_337:\n      dup3\n      add\n      swap2\n      swap1\n      0x00\n      mstore\n      keccak256(0x00, 0x20)\n      swap1\n    tag_338:\n      dup2\n      sload\n      dup2\n      mstore\n      swap1\n      0x01\n      add\n      swap1\n      0x20\n      add\n      dup1\n      dup4\n      gt\n      tag_338\n      jumpi\n      dup3\n      swap1\n      sub\n      0x1f\n      and\n      dup3\n      add\n      swap2\n    tag_336:\n      pop\n      pop\n      pop\n      pop\n      pop\n      dup2\n      mstore\n      0x20\n      add\n      0x02\n      dup3\n      add\n      dup1\n      sload\n      tag_339\n      swap1\n      tag_90\n      jump\t// in\n    tag_339:\n      dup1\n      0x1f\n      add\n      0x20\n      dup1\n      swap2\n      div\n      mul\n      0x20\n      add\n      mload(0x40)\n      swap1\n      dup2\n      add\n      0x40\n      mstore\n      dup1\n      swap3\n      swap2\n      swap1\n      dup2\n      dup2\n      mstore\n      0x20\n      add\n      dup3\n      dup1\n      sload\n      tag_340\n      swap1\n      tag_90\n      jump\t// in\n    tag_340:\n      dup1\n      iszero\n      tag_341\n      jumpi\n      dup1\n      0x1f\n      lt\n      tag_342\n      jumpi\n      0x0100\n      dup1\n      dup4\n      sload\n      div\n      mul\n      dup4\n      mstore\n      swap2\n      0x20\n      add\n      swap2\n      jump(tag_341)\n    tag_342:\n      dup3\n      add\n      swap2\n      swap1\n      0x00\n      mstore\n      keccak256(0x00, 0x20)\n      swap1\n    tag_343:\n      dup2\n      sload\n      dup2\n      mstore\n      swap1\n      0x01\n      add\n      swap1\n      0x20\n      add\n      dup1\n      dup4\n      gt\n      tag_343\n      jumpi\n      dup3\n      swap1\n      sub\n      0x1f\n      and\n      dup3\n      add\n      swap2\n    tag_341:\n      pop\n      pop\n      pop\n      pop\n      pop\n      dup2\n      mstore\n      pop\n      pop\n      dup2\n      mstore\n      0x20\n      add\n      swap1\n      0x01\n      add\n      swap1\n      jump(tag_326)\n    tag_327:\n      pop\n      pop\n      pop\n      pop\n      dup2\n      mstore\n      0x20\n      add\n      0x05\n      dup3\n      add\n      dup1\n      sload\n      dup1\n      0x20\n      mul\n      0x20\n      add\n      mload(0x40)\n      swap1\n      dup2\n      add\n      0x40\n      mstore\n      dup1\n      swap3\n      swap2\n      swap1\n      dup2\n      dup2\n      mstore\n      0x20\n      add\n      0x00\n      swap1\n    tag_344:\n      dup3\n      dup3\n      lt\n      iszero\n      tag_345\n      jumpi\n      dup4\n      dup3\n      swap1\n      0x00\n      mstore\n      keccak256(0x00, 0x20)\n      swap1\n      0x03\n      mul\n      add\n      mload(0x40)\n      dup1\n      0x60\n      add\n      0x40\n      mstore\n      swap1\n      dup2\n      0x00\n      dup3\n      add\n      dup1\n      sload\n      tag_347\n      swap1\n      tag_90\n      jump\t// in\n    tag_347:\n      dup1\n      0x1f\n      add\n      0x20\n      dup1\n      swap2\n      div\n      mul\n      0x20\n      add\n      mload(0x40)\n      swap1\n      dup2\n      add\n      0x40\n      mstore\n      dup1\n      swap3\n      swap2\n      swap1\n      dup2\n      dup2\n      mstore\n      0x20\n      add\n      dup3\n      dup1\n      sload\n      tag_348\n      swap1\n      tag_90\n      jump\t// in\n    tag_348:\n      dup1\n      iszero\n      tag_349\n      jumpi\n      dup1\n      0x1f\n      lt\n      tag_350\n      jumpi\n      0x0100\n      dup1\n      dup4\n      sload\n      div\n      mul\n      dup4\n      mstore\n      swap2\n      0x20\n      add\n      swap2\n      jump(tag_349)\n    tag_350:\n      dup3\n      add\n      swap2\n      swap1\n      0x00\n      mstore\n      keccak256(0x00, 0x20)\n      swap1\n    tag_351:\n      dup2\n      sload\n      dup2\n      mstore\n      swap1\n      0x01\n      add\n      swap1\n      0x20\n      add\n      dup1\n      dup4\n      gt\n      tag_351\n      jumpi\n      dup3\n      swap1\n      sub\n      0x1f\n      and\n      dup3\n      add\n      swap2\n    tag_349:\n      pop\n      pop\n      pop\n      pop\n      pop\n      dup2\n      mstore\n      0x20\n      add\n      0x01\n      dup3\n      add\n      dup1\n      sload\n      tag_352\n      swap1\n      tag_90\n      jump\t// in\n    tag_352:\n      dup1\n      0x1f\n      add\n      0x20\n      dup1\n      swap2\n      div\n      mul\n      0x20\n      add\n      mload(0x40)\n      swap1\n      dup2\n      add\n      0x40\n      mstore\n      dup1\n      swap3\n      swap2\n      swap1\n      dup2\n      dup2\n      mstore\n      0x20\n      add\n      dup3\n      dup1\n      sload\n      tag_353\n      swap1\n      tag_90\n      jump\t// in\n    tag_353:\n      dup1\n      iszero\n      tag_354\n      jumpi\n      dup1\n      0x1f\n      lt\n      tag_355\n      jumpi\n      0x0100\n      dup1\n      dup4\n      sload\n      div\n      mul\n      dup4\n      mstore\n      swap2\n      0x20\n      add\n      swap2\n      jump(tag_354)\n    tag_355:\n      dup3\n      add\n      swap2\n      swap1\n      0x00\n      mstore\n      keccak256(0x00, 0x20)\n      swap1\n    tag_356:\n      dup2\n      sload\n      dup2\n      mstore\n      swap1\n      0x01\n      add\n      swap1\n      0x20\n      add\n      dup1\n      dup4\n      gt\n      tag_356\n      jumpi\n      dup3\n      swap1\n      sub\n      0x1f\n      and\n      dup3\n      add\n      swap2\n    tag_354:\n      pop\n      pop\n      pop\n      pop\n      pop\n      dup2\n      mstore\n      0x20\n      add\n      0x02\n      dup3\n      add\n      dup1\n      sload\n      tag_357\n      swap1\n      tag_90\n      jump\t// in\n    tag_357:\n      dup1\n      0x1f\n      add\n      0x20\n      dup1\n      swap2\n      div\n      mul\n      0x20\n      add\n      mload(0x40)\n      swap1\n      dup2\n      add\n      0x40\n      mstore\n      dup1\n      swap3\n      swap2\n      swap1\n      dup2\n      dup2\n      mstore\n      0x20\n      add\n      dup3\n      dup1\n      sload\n      tag_358\n      swap1\n      tag_90\n      jump\t// in\n    tag_358:\n      dup1\n      iszero\n      tag_359\n      jumpi\n      dup1\n      0x1f\n      lt\n      tag_360\n      jumpi\n      0x0100\n      dup1\n      dup4\n      sload\n      div\n      mul\n      dup4\n      mstore\n      swap2\n      0x20\n      add\n      swap2\n      jump(tag_359)\n    tag_360:\n      dup3\n      add\n      swap2\n      swap1\n      0x00\n      mstore\n      keccak256(0x00, 0x20)\n      swap1\n    tag_361:\n      dup2\n      sload\n      dup2\n      mstore\n      swap1\n      0x01\n      add\n      swap1\n      0x20\n      add\n      dup1\n      dup4\n      gt\n      tag_361\n      jumpi\n      dup3\n      swap1\n      sub\n      0x1f\n      and\n      dup3\n      add\n      swap2\n    tag_359:\n      pop\n      pop\n      pop\n      pop\n      pop\n      dup2\n      mstore\n      pop\n      pop\n      dup2\n      mstore\n      0x20\n      add\n      swap1\n      0x01\n      add\n      swap1\n      jump(tag_344)\n    tag_345:\n      pop\n      pop\n      pop\n      pop\n      dup2\n      mstore\n      0x20\n      add\n      0x06\n      dup3\n      add\n      0x00\n      swap1\n      sload\n      swap1\n      0x0100\n      exp\n      swap1\n      div\n      0xff\n      and\n      iszero\n      iszero\n      iszero\n      iszero\n      dup2\n      mstore\n      0x20\n      add\n      0x07\n      dup3\n      add\n      sload\n      dup2\n      mstore\n      0x20\n      add\n      0x08\n      dup3\n      add\n      sload\n      dup2\n      mstore\n      0x20\n      add\n      0x09\n      dup3\n      add\n      dup1\n      sload\n      tag_362\n      swap1\n      tag_90\n      jump\t// in\n    tag_362:\n      dup1\n      0x1f\n      add\n      0x20\n      dup1\n      swap2\n      div\n      mul\n      0x20\n      add\n      mload(0x40)\n      swap1\n      dup2\n      add\n      0x40\n      mstore\n      dup1\n      swap3\n      swap2\n      swap1\n      dup2\n      dup2\n      mstore\n      0x20\n      add\n      dup3\n      dup1\n      sload\n      tag_363\n      swap1\n      tag_90\n      jump\t// in\n    tag_363:\n      dup1\n      iszero\n      tag_364\n      jumpi\n      dup1\n      0x1f\n      lt\n      tag_365\n      jumpi\n      0x0100\n      dup1\n      dup4\n      sload\n      div\n      mul\n      dup4\n      mstore\n      swap2\n      0x20\n      add\n      swap2\n      jump(tag_364)\n    tag_365:\n      dup3\n      add\n      swap2\n      swap1\n      0x00\n      mstore\n      keccak256(0x00, 0x20)\n      swap1\n    tag_366:\n      dup2\n      sload\n      dup2\n      mstore\n      swap1\n      0x01\n      add\n      swap1\n      0x20\n      add\n      dup1\n      dup4\n      gt\n      tag_366\n      jumpi\n      dup3\n      swap1\n      sub\n      0x1f\n      and\n      dup3\n      add\n      swap2\n    tag_364:\n      pop\n      pop\n      pop\n      pop\n      pop\n      dup2\n      mstore\n      0x20\n      add\n      0x0a\n      dup3\n      add\n      dup1\n      sload\n      tag_367\n      swap1\n      tag_90\n      jump\t// in\n    tag_367:\n      dup1\n      0x1f\n      add\n      0x20\n      dup1\n      swap2\n      div\n      mul\n      0x20\n      add\n      mload(0x40)\n      swap1\n      dup2\n      add\n      0x40\n      mstore\n      dup1\n      swap3\n      swap2\n      swap1\n      dup2\n      dup2\n      mstore\n      0x20\n      add\n      dup3\n      dup1\n      sload\n      tag_368\n      swap1\n      tag_90\n      jump\t// in\n    tag_368:\n      dup1\n      iszero\n      tag_369\n      jumpi\n      dup1\n      0x1f\n      lt\n      tag_370\n      jumpi\n      0x0100\n      dup1\n      dup4\n      sload\n      div\n      mul\n      dup4\n      mstore\n      swap2\n      0x20\n      add\n      swap2\n      jump(tag_369)\n    tag_370:\n      dup3\n      add\n      swap2\n      swap1\n      0x00\n      mstore\n      keccak256(0x00, 0x20)\n      swap1\n    tag_371:\n      dup2\n      sload\n      dup2\n      mstore\n      swap1\n      0x01\n      add\n      swap1\n      0x20\n      add\n      dup1\n      dup4\n      gt\n      tag_371\n      jumpi\n      dup3\n      swap1\n      sub\n      0x1f\n      and\n      dup3\n      add\n      swap2\n    tag_369:\n      pop\n      pop\n      pop\n      pop\n      pop\n      dup2\n      mstore\n      pop\n      pop\n        /* \"complete.sol\":4098:4104  result */\n      dup3\n        /* \"complete.sol\":4105:4106  i */\n      dup3\n        /* \"complete.sol\":4098:4107  result[i] */\n      dup2\n      mload\n      dup2\n      lt\n      tag_372\n      jumpi\n      tag_373\n      tag_118\n      jump\t// in\n    tag_373:\n    tag_372:\n      0x20\n      mul\n      0x20\n      add\n      add\n        /* \"complete.sol\":4098:4133  result[i] = requests[patchnames[i]] */\n      dup2\n      swap1\n      mstore\n      pop\n        /* \"complete.sol\":4075:4078  i++ */\n      dup1\n      dup1\n      tag_374\n      swap1\n      tag_191\n      jump\t// in\n    tag_374:\n      swap2\n      pop\n      pop\n        /* \"complete.sol\":4035:4145  for (uint i = 0; i < patchnames.length; i++) {   ... */\n      jump(tag_299)\n    tag_300:\n      pop\n        /* \"complete.sol\":4164:4170  result */\n      dup1\n        /* \"complete.sol\":4157:4170  return result */\n      swap2\n      pop\n      pop\n        /* \"complete.sol\":3885:4178  function getRequests() public view returns (listOfBnF[] memory) {... */\n      swap1\n      jump\t// out\n        /* \"complete.sol\":796:824  bool public submittedbyadmin */\n    tag_54:\n      0x05\n      0x00\n      swap1\n      sload\n      swap1\n      0x0100\n      exp\n      swap1\n      div\n      0xff\n      and\n      dup2\n      jump\t// out\n        /* \"complete.sol\":2794:3812  function fromAdmin(string memory time_rn, string memory pname, string memory pdesc, string[][] memory bugs, string[][] memory features, string[][] memory bugsUn, string[][] memory featuresUn) public {... */\n    tag_60:\n        /* \"complete.sol\":3014:3043  unChecked(bugsUn, featuresUn) */\n      tag_376\n        /* \"complete.sol\":3024:3030  bugsUn */\n      dup3\n        /* \"complete.sol\":3032:3042  featuresUn */\n      dup3\n        /* \"complete.sol\":3014:3023  unChecked */\n      tag_377\n        /* \"complete.sol\":3014:3043  unChecked(bugsUn, featuresUn) */\n      jump\t// in\n    tag_376:\n        /* \"complete.sol\":3054:3081  listOfBnF storage temporary */\n      0x00\n        /* \"complete.sol\":3084:3092  requests */\n      0x06\n        /* \"complete.sol\":3093:3098  pname */\n      dup8\n        /* \"complete.sol\":3084:3099  requests[pname] */\n      mload(0x40)\n      tag_378\n      swap2\n      swap1\n      tag_379\n      jump\t// in\n    tag_378:\n      swap1\n      dup2\n      mstore\n      0x20\n      add\n      mload(0x40)\n      dup1\n      swap2\n      sub\n      swap1\n      keccak256\n        /* \"complete.sol\":3054:3099  listOfBnF storage temporary = requests[pname] */\n      swap1\n      pop\n        /* \"complete.sol\":3110:3120  patchnames */\n      0x07\n        /* \"complete.sol\":3126:3131  pname */\n      dup8\n        /* \"complete.sol\":3110:3132  patchnames.push(pname) */\n      swap1\n      dup1\n      0x01\n      dup2\n      sload\n      add\n      dup1\n      dup3\n      sstore\n      dup1\n      swap2\n      pop\n      pop\n      0x01\n      swap1\n      sub\n      swap1\n      0x00\n      mstore\n      keccak256(0x00, 0x20)\n      add\n      0x00\n      swap1\n      swap2\n      swap1\n      swap2\n      swap1\n      swap2\n      pop\n      swap1\n      dup2\n      tag_381\n      swap2\n      swap1\n      tag_382\n      jump\t// in\n    tag_381:\n      pop\n        /* \"complete.sol\":3165:3170  pname */\n      dup7\n        /* \"complete.sol\":3143:3152  temporary */\n      dup2\n        /* \"complete.sol\":3143:3162  temporary.patchName */\n      0x01\n      add\n        /* \"complete.sol\":3143:3170  temporary.patchName = pname */\n      swap1\n      dup2\n      tag_383\n      swap2\n      swap1\n      tag_382\n      jump\t// in\n    tag_383:\n      pop\n        /* \"complete.sol\":3210:3215  pdesc */\n      dup6\n        /* \"complete.sol\":3181:3190  temporary */\n      dup2\n        /* \"complete.sol\":3181:3207  temporary.patchDescription */\n      0x02\n      add\n        /* \"complete.sol\":3181:3215  temporary.patchDescription = pdesc */\n      swap1\n      dup2\n      tag_384\n      swap2\n      swap1\n      tag_382\n      jump\t// in\n    tag_384:\n      pop\n        /* \"complete.sol\":3247:3248  0 */\n      0x00\n        /* \"complete.sol\":3226:3235  temporary */\n      dup2\n        /* \"complete.sol\":3226:3244  temporary.approved */\n      0x08\n      add\n        /* \"complete.sol\":3226:3248  temporary.approved = 0 */\n      dup2\n      swap1\n      sstore\n      pop\n        /* \"complete.sol\":3280:3285  false */\n      0x00\n        /* \"complete.sol\":3259:3268  temporary */\n      dup2\n        /* \"complete.sol\":3259:3277  temporary.deployed */\n      0x06\n      add\n      0x00\n        /* \"complete.sol\":3259:3285  temporary.deployed = false */\n      0x0100\n      exp\n      dup2\n      sload\n      dup2\n      0xff\n      mul\n      not\n      and\n      swap1\n      dup4\n      iszero\n      iszero\n      mul\n      or\n      swap1\n      sstore\n      pop\n        /* \"complete.sol\":3317:3318  0 */\n      0x00\n        /* \"complete.sol\":3296:3305  temporary */\n      dup2\n        /* \"complete.sol\":3296:3314  temporary.uploaded */\n      0x07\n      add\n        /* \"complete.sol\":3296:3318  temporary.uploaded = 0 */\n      dup2\n      swap1\n      sstore\n      pop\n        /* \"complete.sol\":3354:3361  time_rn */\n      dup8\n        /* \"complete.sol\":3329:3338  temporary */\n      dup2\n        /* \"complete.sol\":3329:3351  temporary.timeofReport */\n      0x00\n      add\n        /* \"complete.sol\":3329:3361  temporary.timeofReport = time_rn */\n      swap1\n      dup2\n      tag_385\n      swap2\n      swap1\n      tag_382\n      jump\t// in\n    tag_385:\n      pop\n        /* \"complete.sol\":3379:3385  uint i */\n      0x00\n        /* \"complete.sol\":3374:3562  for (uint i = 0; i < bugs.length; i++) {... */\n    tag_386:\n        /* \"complete.sol\":3395:3399  bugs */\n      dup6\n        /* \"complete.sol\":3395:3406  bugs.length */\n      mload\n        /* \"complete.sol\":3391:3392  i */\n      dup2\n        /* \"complete.sol\":3391:3406  i < bugs.length */\n      lt\n        /* \"complete.sol\":3374:3562  for (uint i = 0; i < bugs.length; i++) {... */\n      iszero\n      tag_387\n      jumpi\n        /* \"complete.sol\":3428:3452  bugReport memory bugTemp */\n      0x00\n        /* \"complete.sol\":3456:3501  bugReport(bugs[i][0], bugs[i][1], bugs[i][2]) */\n      mload(0x40)\n      dup1\n      0x60\n      add\n      0x40\n      mstore\n      dup1\n        /* \"complete.sol\":3466:3470  bugs */\n      dup9\n        /* \"complete.sol\":3471:3472  i */\n      dup5\n        /* \"complete.sol\":3466:3473  bugs[i] */\n      dup2\n      mload\n      dup2\n      lt\n      tag_389\n      jumpi\n      tag_390\n      tag_118\n      jump\t// in\n    tag_390:\n    tag_389:\n      0x20\n      mul\n      0x20\n      add\n      add\n      mload\n        /* \"complete.sol\":3474:3475  0 */\n      0x00\n        /* \"complete.sol\":3466:3476  bugs[i][0] */\n      dup2\n      mload\n      dup2\n      lt\n      tag_391\n      jumpi\n      tag_392\n      tag_118\n      jump\t// in\n    tag_392:\n    tag_391:\n      0x20\n      mul\n      0x20\n      add\n      add\n      mload\n        /* \"complete.sol\":3456:3501  bugReport(bugs[i][0], bugs[i][1], bugs[i][2]) */\n      dup2\n      mstore\n      0x20\n      add\n        /* \"complete.sol\":3478:3482  bugs */\n      dup9\n        /* \"complete.sol\":3483:3484  i */\n      dup5\n        /* \"complete.sol\":3478:3485  bugs[i] */\n      dup2\n      mload\n      dup2\n      lt\n      tag_393\n      jumpi\n      tag_394\n      tag_118\n      jump\t// in\n    tag_394:\n    tag_393:\n      0x20\n      mul\n      0x20\n      add\n      add\n      mload\n        /* \"complete.sol\":3486:3487  1 */\n      0x01\n        /* \"complete.sol\":3478:3488  bugs[i][1] */\n      dup2\n      mload\n      dup2\n      lt\n      tag_395\n      jumpi\n      tag_396\n      tag_118\n      jump\t// in\n    tag_396:\n    tag_395:\n      0x20\n      mul\n      0x20\n      add\n      add\n      mload\n        /* \"complete.sol\":3456:3501  bugReport(bugs[i][0], bugs[i][1], bugs[i][2]) */\n      dup2\n      mstore\n      0x20\n      add\n        /* \"complete.sol\":3490:3494  bugs */\n      dup9\n        /* \"complete.sol\":3495:3496  i */\n      dup5\n        /* \"complete.sol\":3490:3497  bugs[i] */\n      dup2\n      mload\n      dup2\n      lt\n      tag_397\n      jumpi\n      tag_398\n      tag_118\n      jump\t// in\n    tag_398:\n    tag_397:\n      0x20\n      mul\n      0x20\n      add\n      add\n      mload\n        /* \"complete.sol\":3498:3499  2 */\n      0x02\n        /* \"complete.sol\":3490:3500  bugs[i][2] */\n      dup2\n      mload\n      dup2\n      lt\n      tag_399\n      jumpi\n      tag_400\n      tag_118\n      jump\t// in\n    tag_400:\n    tag_399:\n      0x20\n      mul\n      0x20\n      add\n      add\n      mload\n        /* \"complete.sol\":3456:3501  bugReport(bugs[i][0], bugs[i][1], bugs[i][2]) */\n      dup2\n      mstore\n      pop\n        /* \"complete.sol\":3428:3501  bugReport memory bugTemp =  bugReport(bugs[i][0], bugs[i][1], bugs[i][2]) */\n      swap1\n      pop\n        /* \"complete.sol\":3516:3525  temporary */\n      dup3\n        /* \"complete.sol\":3516:3536  temporary.bugRequest */\n      0x04\n      add\n        /* \"complete.sol\":3542:3549  bugTemp */\n      dup2\n        /* \"complete.sol\":3516:3550  temporary.bugRequest.push(bugTemp) */\n      swap1\n      dup1\n      0x01\n      dup2\n      sload\n      add\n      dup1\n      dup3\n      sstore\n      dup1\n      swap2\n      pop\n      pop\n      0x01\n      swap1\n      sub\n      swap1\n      0x00\n      mstore\n      keccak256(0x00, 0x20)\n      swap1\n      0x03\n      mul\n      add\n      0x00\n      swap1\n      swap2\n      swap1\n      swap2\n      swap1\n      swap2\n      pop\n      0x00\n      dup3\n      add\n      mload\n      dup2\n      0x00\n      add\n      swap1\n      dup2\n      tag_402\n      swap2\n      swap1\n      tag_382\n      jump\t// in\n    tag_402:\n      pop\n      0x20\n      dup3\n      add\n      mload\n      dup2\n      0x01\n      add\n      swap1\n      dup2\n      tag_403\n      swap2\n      swap1\n      tag_382\n      jump\t// in\n    tag_403:\n      pop\n      0x40\n      dup3\n      add\n      mload\n      dup2\n      0x02\n      add\n      swap1\n      dup2\n      tag_404\n      swap2\n      swap1\n      tag_382\n      jump\t// in\n    tag_404:\n      pop\n      pop\n      pop\n        /* \"complete.sol\":3413:3562  {... */\n      pop\n        /* \"complete.sol\":3408:3411  i++ */\n      dup1\n      dup1\n      tag_405\n      swap1\n      tag_191\n      jump\t// in\n    tag_405:\n      swap2\n      pop\n      pop\n        /* \"complete.sol\":3374:3562  for (uint i = 0; i < bugs.length; i++) {... */\n      jump(tag_386)\n    tag_387:\n      pop\n        /* \"complete.sol\":3587:3593  uint i */\n      0x00\n        /* \"complete.sol\":3582:3805  for (uint i = 0; i < features.length; i++) {... */\n    tag_406:\n        /* \"complete.sol\":3603:3611  features */\n      dup5\n        /* \"complete.sol\":3603:3618  features.length */\n      mload\n        /* \"complete.sol\":3599:3600  i */\n      dup2\n        /* \"complete.sol\":3599:3618  i < features.length */\n      lt\n        /* \"complete.sol\":3582:3805  for (uint i = 0; i < features.length; i++) {... */\n      iszero\n      tag_407\n      jumpi\n        /* \"complete.sol\":3640:3672  featureReport memory featureTemp */\n      0x00\n        /* \"complete.sol\":3675:3736  featureReport(features[i][0], features[i][1], features[i][2]) */\n      mload(0x40)\n      dup1\n      0x60\n      add\n      0x40\n      mstore\n      dup1\n        /* \"complete.sol\":3689:3697  features */\n      dup8\n        /* \"complete.sol\":3698:3699  i */\n      dup5\n        /* \"complete.sol\":3689:3700  features[i] */\n      dup2\n      mload\n      dup2\n      lt\n      tag_409\n      jumpi\n      tag_410\n      tag_118\n      jump\t// in\n    tag_410:\n    tag_409:\n      0x20\n      mul\n      0x20\n      add\n      add\n      mload\n        /* \"complete.sol\":3701:3702  0 */\n      0x00\n        /* \"complete.sol\":3689:3703  features[i][0] */\n      dup2\n      mload\n      dup2\n      lt\n      tag_411\n      jumpi\n      tag_412\n      tag_118\n      jump\t// in\n    tag_412:\n    tag_411:\n      0x20\n      mul\n      0x20\n      add\n      add\n      mload\n        /* \"complete.sol\":3675:3736  featureReport(features[i][0], features[i][1], features[i][2]) */\n      dup2\n      mstore\n      0x20\n      add\n        /* \"complete.sol\":3705:3713  features */\n      dup8\n        /* \"complete.sol\":3714:3715  i */\n      dup5\n        /* \"complete.sol\":3705:3716  features[i] */\n      dup2\n      mload\n      dup2\n      lt\n      tag_413\n      jumpi\n      tag_414\n      tag_118\n      jump\t// in\n    tag_414:\n    tag_413:\n      0x20\n      mul\n      0x20\n      add\n      add\n      mload\n        /* \"complete.sol\":3717:3718  1 */\n      0x01\n        /* \"complete.sol\":3705:3719  features[i][1] */\n      dup2\n      mload\n      dup2\n      lt\n      tag_415\n      jumpi\n      tag_416\n      tag_118\n      jump\t// in\n    tag_416:\n    tag_415:\n      0x20\n      mul\n      0x20\n      add\n      add\n      mload\n        /* \"complete.sol\":3675:3736  featureReport(features[i][0], features[i][1], features[i][2]) */\n      dup2\n      mstore\n      0x20\n      add\n        /* \"complete.sol\":3721:3729  features */\n      dup8\n        /* \"complete.sol\":3730:3731  i */\n      dup5\n        /* \"complete.sol\":3721:3732  features[i] */\n      dup2\n      mload\n      dup2\n      lt\n      tag_417\n      jumpi\n      tag_418\n      tag_118\n      jump\t// in\n    tag_418:\n    tag_417:\n      0x20\n      mul\n      0x20\n      add\n      add\n      mload\n        /* \"complete.sol\":3733:3734  2 */\n      0x02\n        /* \"complete.sol\":3721:3735  features[i][2] */\n      dup2\n      mload\n      dup2\n      lt\n      tag_419\n      jumpi\n      tag_420\n      tag_118\n      jump\t// in\n    tag_420:\n    tag_419:\n      0x20\n      mul\n      0x20\n      add\n      add\n      mload\n        /* \"complete.sol\":3675:3736  featureReport(features[i][0], features[i][1], features[i][2]) */\n      dup2\n      mstore\n      pop\n        /* \"complete.sol\":3640:3736  featureReport memory featureTemp = featureReport(features[i][0], features[i][1], features[i][2]) */\n      swap1\n      pop\n        /* \"complete.sol\":3751:3760  temporary */\n      dup3\n        /* \"complete.sol\":3751:3775  temporary.featureRequest */\n      0x05\n      add\n        /* \"complete.sol\":3781:3792  featureTemp */\n      dup2\n        /* \"complete.sol\":3751:3793  temporary.featureRequest.push(featureTemp) */\n      swap1\n      dup1\n      0x01\n      dup2\n      sload\n      add\n      dup1\n      dup3\n      sstore\n      dup1\n      swap2\n      pop\n      pop\n      0x01\n      swap1\n      sub\n      swap1\n      0x00\n      mstore\n      keccak256(0x00, 0x20)\n      swap1\n      0x03\n      mul\n      add\n      0x00\n      swap1\n      swap2\n      swap1\n      swap2\n      swap1\n      swap2\n      pop\n      0x00\n      dup3\n      add\n      mload\n      dup2\n      0x00\n      add\n      swap1\n      dup2\n      tag_422\n      swap2\n      swap1\n      tag_382\n      jump\t// in\n    tag_422:\n      pop\n      0x20\n      dup3\n      add\n      mload\n      dup2\n      0x01\n      add\n      swap1\n      dup2\n      tag_423\n      swap2\n      swap1\n      tag_382\n      jump\t// in\n    tag_423:\n      pop\n      0x40\n      dup3\n      add\n      mload\n      dup2\n      0x02\n      add\n      swap1\n      dup2\n      tag_424\n      swap2\n      swap1\n      tag_382\n      jump\t// in\n    tag_424:\n      pop\n      pop\n      pop\n        /* \"complete.sol\":3625:3805  {... */\n      pop\n        /* \"complete.sol\":3620:3623  i++ */\n      dup1\n      dup1\n      tag_425\n      swap1\n      tag_191\n      jump\t// in\n    tag_425:\n      swap2\n      pop\n      pop\n        /* \"complete.sol\":3582:3805  for (uint i = 0; i < features.length; i++) {... */\n      jump(tag_406)\n    tag_407:\n      pop\n        /* \"complete.sol\":2993:3812  {... */\n      pop\n        /* \"complete.sol\":2794:3812  function fromAdmin(string memory time_rn, string memory pname, string memory pdesc, string[][] memory bugs, string[][] memory features, string[][] memory bugsUn, string[][] memory featuresUn) public {... */\n      pop\n      pop\n      pop\n      pop\n      pop\n      pop\n      pop\n      jump\t// out\n        /* \"complete.sol\":950:1534  function toAdmin(string memory time, string[][] memory new_b,string[][] memory new_f) public{... */\n    tag_64:\n        /* \"complete.sol\":1069:1073  time */\n      dup3\n        /* \"complete.sol\":1053:1066  timeofRequest */\n      0x00\n        /* \"complete.sol\":1053:1073  timeofRequest = time */\n      swap1\n      dup2\n      tag_427\n      swap2\n      swap1\n      tag_382\n      jump\t// in\n    tag_427:\n      pop\n        /* \"complete.sol\":1103:1108  false */\n      0x00\n        /* \"complete.sol\":1084:1100  submittedbyadmin */\n      0x05\n      0x00\n        /* \"complete.sol\":1084:1108  submittedbyadmin = false */\n      0x0100\n      exp\n      dup2\n      sload\n      dup2\n      0xff\n      mul\n      not\n      and\n      swap1\n      dup4\n      iszero\n      iszero\n      mul\n      or\n      swap1\n      sstore\n      pop\n        /* \"complete.sol\":1126:1134  bugs_arr */\n      0x01\n      0x00\n        /* \"complete.sol\":1119:1134  delete bugs_arr */\n      tag_428\n      swap2\n      swap1\n      tag_429\n      jump\t// in\n    tag_428:\n        /* \"complete.sol\":1149:1155  uint i */\n      0x00\n        /* \"complete.sol\":1145:1310  for(uint i=0;i<new_b.length;i++){... */\n    tag_430:\n        /* \"complete.sol\":1160:1165  new_b */\n      dup3\n        /* \"complete.sol\":1160:1172  new_b.length */\n      mload\n        /* \"complete.sol\":1158:1159  i */\n      dup2\n        /* \"complete.sol\":1158:1172  i<new_b.length */\n      lt\n        /* \"complete.sol\":1145:1310  for(uint i=0;i<new_b.length;i++){... */\n      iszero\n      tag_431\n      jumpi\n        /* \"complete.sol\":1192:1213  bugReport memory temp */\n      0x00\n        /* \"complete.sol\":1216:1264  bugReport(new_b[i][0], new_b[i][1], new_b[i][2]) */\n      mload(0x40)\n      dup1\n      0x60\n      add\n      0x40\n      mstore\n      dup1\n        /* \"complete.sol\":1226:1231  new_b */\n      dup6\n        /* \"complete.sol\":1232:1233  i */\n      dup5\n        /* \"complete.sol\":1226:1234  new_b[i] */\n      dup2\n      mload\n      dup2\n      lt\n      tag_433\n      jumpi\n      tag_434\n      tag_118\n      jump\t// in\n    tag_434:\n    tag_433:\n      0x20\n      mul\n      0x20\n      add\n      add\n      mload\n        /* \"complete.sol\":1235:1236  0 */\n      0x00\n        /* \"complete.sol\":1226:1237  new_b[i][0] */\n      dup2\n      mload\n      dup2\n      lt\n      tag_435\n      jumpi\n      tag_436\n      tag_118\n      jump\t// in\n    tag_436:\n    tag_435:\n      0x20\n      mul\n      0x20\n      add\n      add\n      mload\n        /* \"complete.sol\":1216:1264  bugReport(new_b[i][0], new_b[i][1], new_b[i][2]) */\n      dup2\n      mstore\n      0x20\n      add\n        /* \"complete.sol\":1239:1244  new_b */\n      dup6\n        /* \"complete.sol\":1245:1246  i */\n      dup5\n        /* \"complete.sol\":1239:1247  new_b[i] */\n      dup2\n      mload\n      dup2\n      lt\n      tag_437\n      jumpi\n      tag_438\n      tag_118\n      jump\t// in\n    tag_438:\n    tag_437:\n      0x20\n      mul\n      0x20\n      add\n      add\n      mload\n        /* \"complete.sol\":1248:1249  1 */\n      0x01\n        /* \"complete.sol\":1239:1250  new_b[i][1] */\n      dup2\n      mload\n      dup2\n      lt\n      tag_439\n      jumpi\n      tag_440\n      tag_118\n      jump\t// in\n    tag_440:\n    tag_439:\n      0x20\n      mul\n      0x20\n      add\n      add\n      mload\n        /* \"complete.sol\":1216:1264  bugReport(new_b[i][0], new_b[i][1], new_b[i][2]) */\n      dup2\n      mstore\n      0x20\n      add\n        /* \"complete.sol\":1252:1257  new_b */\n      dup6\n        /* \"complete.sol\":1258:1259  i */\n      dup5\n        /* \"complete.sol\":1252:1260  new_b[i] */\n      dup2\n      mload\n      dup2\n      lt\n      tag_441\n      jumpi\n      tag_442\n      tag_118\n      jump\t// in\n    tag_442:\n    tag_441:\n      0x20\n      mul\n      0x20\n      add\n      add\n      mload\n        /* \"complete.sol\":1261:1262  2 */\n      0x02\n        /* \"complete.sol\":1252:1263  new_b[i][2] */\n      dup2\n      mload\n      dup2\n      lt\n      tag_443\n      jumpi\n      tag_444\n      tag_118\n      jump\t// in\n    tag_444:\n    tag_443:\n      0x20\n      mul\n      0x20\n      add\n      add\n      mload\n        /* \"complete.sol\":1216:1264  bugReport(new_b[i][0], new_b[i][1], new_b[i][2]) */\n      dup2\n      mstore\n      pop\n        /* \"complete.sol\":1192:1264  bugReport memory temp = bugReport(new_b[i][0], new_b[i][1], new_b[i][2]) */\n      swap1\n      pop\n        /* \"complete.sol\":1279:1287  bugs_arr */\n      0x01\n        /* \"complete.sol\":1293:1297  temp */\n      dup2\n        /* \"complete.sol\":1279:1298  bugs_arr.push(temp) */\n      swap1\n      dup1\n      0x01\n      dup2\n      sload\n      add\n      dup1\n      dup3\n      sstore\n      dup1\n      swap2\n      pop\n      pop\n      0x01\n      swap1\n      sub\n      swap1\n      0x00\n      mstore\n      keccak256(0x00, 0x20)\n      swap1\n      0x03\n      mul\n      add\n      0x00\n      swap1\n      swap2\n      swap1\n      swap2\n      swap1\n      swap2\n      pop\n      0x00\n      dup3\n      add\n      mload\n      dup2\n      0x00\n      add\n      swap1\n      dup2\n      tag_446\n      swap2\n      swap1\n      tag_382\n      jump\t// in\n    tag_446:\n      pop\n      0x20\n      dup3\n      add\n      mload\n      dup2\n      0x01\n      add\n      swap1\n      dup2\n      tag_447\n      swap2\n      swap1\n      tag_382\n      jump\t// in\n    tag_447:\n      pop\n      0x40\n      dup3\n      add\n      mload\n      dup2\n      0x02\n      add\n      swap1\n      dup2\n      tag_448\n      swap2\n      swap1\n      tag_382\n      jump\t// in\n    tag_448:\n      pop\n      pop\n      pop\n        /* \"complete.sol\":1177:1310  {... */\n      pop\n        /* \"complete.sol\":1173:1176  i++ */\n      dup1\n      dup1\n      tag_449\n      swap1\n      tag_191\n      jump\t// in\n    tag_449:\n      swap2\n      pop\n      pop\n        /* \"complete.sol\":1145:1310  for(uint i=0;i<new_b.length;i++){... */\n      jump(tag_430)\n    tag_431:\n      pop\n        /* \"complete.sol\":1327:1339  features_arr */\n      0x02\n      0x00\n        /* \"complete.sol\":1320:1339  delete features_arr */\n      tag_450\n      swap2\n      swap1\n      tag_451\n      jump\t// in\n    tag_450:\n        /* \"complete.sol\":1354:1360  uint i */\n      0x00\n        /* \"complete.sol\":1350:1527  for(uint i=0;i<new_f.length;i++){... */\n    tag_452:\n        /* \"complete.sol\":1365:1370  new_f */\n      dup2\n        /* \"complete.sol\":1365:1377  new_f.length */\n      mload\n        /* \"complete.sol\":1363:1364  i */\n      dup2\n        /* \"complete.sol\":1363:1377  i<new_f.length */\n      lt\n        /* \"complete.sol\":1350:1527  for(uint i=0;i<new_f.length;i++){... */\n      iszero\n      tag_453\n      jumpi\n        /* \"complete.sol\":1397:1422  featureReport memory temp */\n      0x00\n        /* \"complete.sol\":1425:1477  featureReport(new_f[i][0], new_f[i][1], new_f[i][2]) */\n      mload(0x40)\n      dup1\n      0x60\n      add\n      0x40\n      mstore\n      dup1\n        /* \"complete.sol\":1439:1444  new_f */\n      dup5\n        /* \"complete.sol\":1445:1446  i */\n      dup5\n        /* \"complete.sol\":1439:1447  new_f[i] */\n      dup2\n      mload\n      dup2\n      lt\n      tag_455\n      jumpi\n      tag_456\n      tag_118\n      jump\t// in\n    tag_456:\n    tag_455:\n      0x20\n      mul\n      0x20\n      add\n      add\n      mload\n        /* \"complete.sol\":1448:1449  0 */\n      0x00\n        /* \"complete.sol\":1439:1450  new_f[i][0] */\n      dup2\n      mload\n      dup2\n      lt\n      tag_457\n      jumpi\n      tag_458\n      tag_118\n      jump\t// in\n    tag_458:\n    tag_457:\n      0x20\n      mul\n      0x20\n      add\n      add\n      mload\n        /* \"complete.sol\":1425:1477  featureReport(new_f[i][0], new_f[i][1], new_f[i][2]) */\n      dup2\n      mstore\n      0x20\n      add\n        /* \"complete.sol\":1452:1457  new_f */\n      dup5\n        /* \"complete.sol\":1458:1459  i */\n      dup5\n        /* \"complete.sol\":1452:1460  new_f[i] */\n      dup2\n      mload\n      dup2\n      lt\n      tag_459\n      jumpi\n      tag_460\n      tag_118\n      jump\t// in\n    tag_460:\n    tag_459:\n      0x20\n      mul\n      0x20\n      add\n      add\n      mload\n        /* \"complete.sol\":1461:1462  1 */\n      0x01\n        /* \"complete.sol\":1452:1463  new_f[i][1] */\n      dup2\n      mload\n      dup2\n      lt\n      tag_461\n      jumpi\n      tag_462\n      tag_118\n      jump\t// in\n    tag_462:\n    tag_461:\n      0x20\n      mul\n      0x20\n      add\n      add\n      mload\n        /* \"complete.sol\":1425:1477  featureReport(new_f[i][0], new_f[i][1], new_f[i][2]) */\n      dup2\n      mstore\n      0x20\n      add\n        /* \"complete.sol\":1465:1470  new_f */\n      dup5\n        /* \"complete.sol\":1471:1472  i */\n      dup5\n        /* \"complete.sol\":1465:1473  new_f[i] */\n      dup2\n      mload\n      dup2\n      lt\n      tag_463\n      jumpi\n      tag_464\n      tag_118\n      jump\t// in\n    tag_464:\n    tag_463:\n      0x20\n      mul\n      0x20\n      add\n      add\n      mload\n        /* \"complete.sol\":1474:1475  2 */\n      0x02\n        /* \"complete.sol\":1465:1476  new_f[i][2] */\n      dup2\n      mload\n      dup2\n      lt\n      tag_465\n      jumpi\n      tag_466\n      tag_118\n      jump\t// in\n    tag_466:\n    tag_465:\n      0x20\n      mul\n      0x20\n      add\n      add\n      mload\n        /* \"complete.sol\":1425:1477  featureReport(new_f[i][0], new_f[i][1], new_f[i][2]) */\n      dup2\n      mstore\n      pop\n        /* \"complete.sol\":1397:1477  featureReport memory temp = featureReport(new_f[i][0], new_f[i][1], new_f[i][2]) */\n      swap1\n      pop\n        /* \"complete.sol\":1492:1504  features_arr */\n      0x02\n        /* \"complete.sol\":1510:1514  temp */\n      dup2\n        /* \"complete.sol\":1492:1515  features_arr.push(temp) */\n      swap1\n      dup1\n      0x01\n      dup2\n      sload\n      add\n      dup1\n      dup3\n      sstore\n      dup1\n      swap2\n      pop\n      pop\n      0x01\n      swap1\n      sub\n      swap1\n      0x00\n      mstore\n      keccak256(0x00, 0x20)\n      swap1\n      0x03\n      mul\n      add\n      0x00\n      swap1\n      swap2\n      swap1\n      swap2\n      swap1\n      swap2\n      pop\n      0x00\n      dup3\n      add\n      mload\n      dup2\n      0x00\n      add\n      swap1\n      dup2\n      tag_468\n      swap2\n      swap1\n      tag_382\n      jump\t// in\n    tag_468:\n      pop\n      0x20\n      dup3\n      add\n      mload\n      dup2\n      0x01\n      add\n      swap1\n      dup2\n      tag_469\n      swap2\n      swap1\n      tag_382\n      jump\t// in\n    tag_469:\n      pop\n      0x40\n      dup3\n      add\n      mload\n      dup2\n      0x02\n      add\n      swap1\n      dup2\n      tag_470\n      swap2\n      swap1\n      tag_382\n      jump\t// in\n    tag_470:\n      pop\n      pop\n      pop\n        /* \"complete.sol\":1382:1527  {... */\n      pop\n        /* \"complete.sol\":1378:1381  i++ */\n      dup1\n      dup1\n      tag_471\n      swap1\n      tag_191\n      jump\t// in\n    tag_471:\n      swap2\n      pop\n      pop\n        /* \"complete.sol\":1350:1527  for(uint i=0;i<new_f.length;i++){... */\n      jump(tag_452)\n    tag_453:\n      pop\n        /* \"complete.sol\":950:1534  function toAdmin(string memory time, string[][] memory new_b,string[][] memory new_f) public{... */\n      pop\n      pop\n      pop\n      jump\t// out\n        /* \"complete.sol\":1580:1960  function send_list() public view returns(bugReport[] memory, featureReport[] memory ){... */\n    tag_66:\n        /* \"complete.sol\":1621:1639  bugReport[] memory */\n      0x60\n        /* \"complete.sol\":1641:1663  featureReport[] memory */\n      dup1\n        /* \"complete.sol\":1697:1702  false */\n      0x00\n        /* \"complete.sol\":1679:1702  submittedbyadmin==false */\n      iszero\n      iszero\n        /* \"complete.sol\":1679:1695  submittedbyadmin */\n      0x05\n      0x00\n      swap1\n      sload\n      swap1\n      0x0100\n      exp\n      swap1\n      div\n      0xff\n      and\n        /* \"complete.sol\":1679:1702  submittedbyadmin==false */\n      iszero\n      iszero\n      sub\n        /* \"complete.sol\":1676:1953  if(submittedbyadmin==false){... */\n      tag_473\n      jumpi\n        /* \"complete.sol\":1722:1730  bugs_arr */\n      0x01\n        /* \"complete.sol\":1731:1743  features_arr */\n      0x02\n        /* \"complete.sol\":1714:1744  return (bugs_arr,features_arr) */\n      dup2\n      dup1\n      sload\n      dup1\n      0x20\n      mul\n      0x20\n      add\n      mload(0x40)\n      swap1\n      dup2\n      add\n      0x40\n      mstore\n      dup1\n      swap3\n      swap2\n      swap1\n      dup2\n      dup2\n      mstore\n      0x20\n      add\n      0x00\n      swap1\n    tag_474:\n      dup3\n      dup3\n      lt\n      iszero\n      tag_475\n      jumpi\n      dup4\n      dup3\n      swap1\n      0x00\n      mstore\n      keccak256(0x00, 0x20)\n      swap1\n      0x03\n      mul\n      add\n      mload(0x40)\n      dup1\n      0x60\n      add\n      0x40\n      mstore\n      swap1\n      dup2\n      0x00\n      dup3\n      add\n      dup1\n      sload\n      tag_477\n      swap1\n      tag_90\n      jump\t// in\n    tag_477:\n      dup1\n      0x1f\n      add\n      0x20\n      dup1\n      swap2\n      div\n      mul\n      0x20\n      add\n      mload(0x40)\n      swap1\n      dup2\n      add\n      0x40\n      mstore\n      dup1\n      swap3\n      swap2\n      swap1\n      dup2\n      dup2\n      mstore\n      0x20\n      add\n      dup3\n      dup1\n      sload\n      tag_478\n      swap1\n      tag_90\n      jump\t// in\n    tag_478:\n      dup1\n      iszero\n      tag_479\n      jumpi\n      dup1\n      0x1f\n      lt\n      tag_480\n      jumpi\n      0x0100\n      dup1\n      dup4\n      sload\n      div\n      mul\n      dup4\n      mstore\n      swap2\n      0x20\n      add\n      swap2\n      jump(tag_479)\n    tag_480:\n      dup3\n      add\n      swap2\n      swap1\n      0x00\n      mstore\n      keccak256(0x00, 0x20)\n      swap1\n    tag_481:\n      dup2\n      sload\n      dup2\n      mstore\n      swap1\n      0x01\n      add\n      swap1\n      0x20\n      add\n      dup1\n      dup4\n      gt\n      tag_481\n      jumpi\n      dup3\n      swap1\n      sub\n      0x1f\n      and\n      dup3\n      add\n      swap2\n    tag_479:\n      pop\n      pop\n      pop\n      pop\n      pop\n      dup2\n      mstore\n      0x20\n      add\n      0x01\n      dup3\n      add\n      dup1\n      sload\n      tag_482\n      swap1\n      tag_90\n      jump\t// in\n    tag_482:\n      dup1\n      0x1f\n      add\n      0x20\n      dup1\n      swap2\n      div\n      mul\n      0x20\n      add\n      mload(0x40)\n      swap1\n      dup2\n      add\n      0x40\n      mstore\n      dup1\n      swap3\n      swap2\n      swap1\n      dup2\n      dup2\n      mstore\n      0x20\n      add\n      dup3\n      dup1\n      sload\n      tag_483\n      swap1\n      tag_90\n      jump\t// in\n    tag_483:\n      dup1\n      iszero\n      tag_484\n      jumpi\n      dup1\n      0x1f\n      lt\n      tag_485\n      jumpi\n      0x0100\n      dup1\n      dup4\n      sload\n      div\n      mul\n      dup4\n      mstore\n      swap2\n      0x20\n      add\n      swap2\n      jump(tag_484)\n    tag_485:\n      dup3\n      add\n      swap2\n      swap1\n      0x00\n      mstore\n      keccak256(0x00, 0x20)\n      swap1\n    tag_486:\n      dup2\n      sload\n      dup2\n      mstore\n      swap1\n      0x01\n      add\n      swap1\n      0x20\n      add\n      dup1\n      dup4\n      gt\n      tag_486\n      jumpi\n      dup3\n      swap1\n      sub\n      0x1f\n      and\n      dup3\n      add\n      swap2\n    tag_484:\n      pop\n      pop\n      pop\n      pop\n      pop\n      dup2\n      mstore\n      0x20\n      add\n      0x02\n      dup3\n      add\n      dup1\n      sload\n      tag_487\n      swap1\n      tag_90\n      jump\t// in\n    tag_487:\n      dup1\n      0x1f\n      add\n      0x20\n      dup1\n      swap2\n      div\n      mul\n      0x20\n      add\n      mload(0x40)\n      swap1\n      dup2\n      add\n      0x40\n      mstore\n      dup1\n      swap3\n      swap2\n      swap1\n      dup2\n      dup2\n      mstore\n      0x20\n      add\n      dup3\n      dup1\n      sload\n      tag_488\n      swap1\n      tag_90\n      jump\t// in\n    tag_488:\n      dup1\n      iszero\n      tag_489\n      jumpi\n      dup1\n      0x1f\n      lt\n      tag_490\n      jumpi\n      0x0100\n      dup1\n      dup4\n      sload\n      div\n      mul\n      dup4\n      mstore\n      swap2\n      0x20\n      add\n      swap2\n      jump(tag_489)\n    tag_490:\n      dup3\n      add\n      swap2\n      swap1\n      0x00\n      mstore\n      keccak256(0x00, 0x20)\n      swap1\n    tag_491:\n      dup2\n      sload\n      dup2\n      mstore\n      swap1\n      0x01\n      add\n      swap1\n      0x20\n      add\n      dup1\n      dup4\n      gt\n      tag_491\n      jumpi\n      dup3\n      swap1\n      sub\n      0x1f\n      and\n      dup3\n      add\n      swap2\n    tag_489:\n      pop\n      pop\n      pop\n      pop\n      pop\n      dup2\n      mstore\n      pop\n      pop\n      dup2\n      mstore\n      0x20\n      add\n      swap1\n      0x01\n      add\n      swap1\n      jump(tag_474)\n    tag_475:\n      pop\n      pop\n      pop\n      pop\n      swap2\n      pop\n      dup1\n      dup1\n      sload\n      dup1\n      0x20\n      mul\n      0x20\n      add\n      mload(0x40)\n      swap1\n      dup2\n      add\n      0x40\n      mstore\n      dup1\n      swap3\n      swap2\n      swap1\n      dup2\n      dup2\n      mstore\n      0x20\n      add\n      0x00\n      swap1\n    tag_492:\n      dup3\n      dup3\n      lt\n      iszero\n      tag_493\n      jumpi\n      dup4\n      dup3\n      swap1\n      0x00\n      mstore\n      keccak256(0x00, 0x20)\n      swap1\n      0x03\n      mul\n      add\n      mload(0x40)\n      dup1\n      0x60\n      add\n      0x40\n      mstore\n      swap1\n      dup2\n      0x00\n      dup3\n      add\n      dup1\n      sload\n      tag_495\n      swap1\n      tag_90\n      jump\t// in\n    tag_495:\n      dup1\n      0x1f\n      add\n      0x20\n      dup1\n      swap2\n      div\n      mul\n      0x20\n      add\n      mload(0x40)\n      swap1\n      dup2\n      add\n      0x40\n      mstore\n      dup1\n      swap3\n      swap2\n      swap1\n      dup2\n      dup2\n      mstore\n      0x20\n      add\n      dup3\n      dup1\n      sload\n      tag_496\n      swap1\n      tag_90\n      jump\t// in\n    tag_496:\n      dup1\n      iszero\n      tag_497\n      jumpi\n      dup1\n      0x1f\n      lt\n      tag_498\n      jumpi\n      0x0100\n      dup1\n      dup4\n      sload\n      div\n      mul\n      dup4\n      mstore\n      swap2\n      0x20\n      add\n      swap2\n      jump(tag_497)\n    tag_498:\n      dup3\n      add\n      swap2\n      swap1\n      0x00\n      mstore\n      keccak256(0x00, 0x20)\n      swap1\n    tag_499:\n      dup2\n      sload\n      dup2\n      mstore\n      swap1\n      0x01\n      add\n      swap1\n      0x20\n      add\n      dup1\n      dup4\n      gt\n      tag_499\n      jumpi\n      dup3\n      swap1\n      sub\n      0x1f\n      and\n      dup3\n      add\n      swap2\n    tag_497:\n      pop\n      pop\n      pop\n      pop\n      pop\n      dup2\n      mstore\n      0x20\n      add\n      0x01\n      dup3\n      add\n      dup1\n      sload\n      tag_500\n      swap1\n      tag_90\n      jump\t// in\n    tag_500:\n      dup1\n      0x1f\n      add\n      0x20\n      dup1\n      swap2\n      div\n      mul\n      0x20\n      add\n      mload(0x40)\n      swap1\n      dup2\n      add\n      0x40\n      mstore\n      dup1\n      swap3\n      swap2\n      swap1\n      dup2\n      dup2\n      mstore\n      0x20\n      add\n      dup3\n      dup1\n      sload\n      tag_501\n      swap1\n      tag_90\n      jump\t// in\n    tag_501:\n      dup1\n      iszero\n      tag_502\n      jumpi\n      dup1\n      0x1f\n      lt\n      tag_503\n      jumpi\n      0x0100\n      dup1\n      dup4\n      sload\n      div\n      mul\n      dup4\n      mstore\n      swap2\n      0x20\n      add\n      swap2\n      jump(tag_502)\n    tag_503:\n      dup3\n      add\n      swap2\n      swap1\n      0x00\n      mstore\n      keccak256(0x00, 0x20)\n      swap1\n    tag_504:\n      dup2\n      sload\n      dup2\n      mstore\n      swap1\n      0x01\n      add\n      swap1\n      0x20\n      add\n      dup1\n      dup4\n      gt\n      tag_504\n      jumpi\n      dup3\n      swap1\n      sub\n      0x1f\n      and\n      dup3\n      add\n      swap2\n    tag_502:\n      pop\n      pop\n      pop\n      pop\n      pop\n      dup2\n      mstore\n      0x20\n      add\n      0x02\n      dup3\n      add\n      dup1\n      sload\n      tag_505\n      swap1\n      tag_90\n      jump\t// in\n    tag_505:\n      dup1\n      0x1f\n      add\n      0x20\n      dup1\n      swap2\n      div\n      mul\n      0x20\n      add\n      mload(0x40)\n      swap1\n      dup2\n      add\n      0x40\n      mstore\n      dup1\n      swap3\n      swap2\n      swap1\n      dup2\n      dup2\n      mstore\n      0x20\n      add\n      dup3\n      dup1\n      sload\n      tag_506\n      swap1\n      tag_90\n      jump\t// in\n    tag_506:\n      dup1\n      iszero\n      tag_507\n      jumpi\n      dup1\n      0x1f\n      lt\n      tag_508\n      jumpi\n      0x0100\n      dup1\n      dup4\n      sload\n      div\n      mul\n      dup4\n      mstore\n      swap2\n      0x20\n      add\n      swap2\n      jump(tag_507)\n    tag_508:\n      dup3\n      add\n      swap2\n      swap1\n      0x00\n      mstore\n      keccak256(0x00, 0x20)\n      swap1\n    tag_509:\n      dup2\n      sload\n      dup2\n      mstore\n      swap1\n      0x01\n      add\n      swap1\n      0x20\n      add\n      dup1\n      dup4\n      gt\n      tag_509\n      jumpi\n      dup3\n      swap1\n      sub\n      0x1f\n      and\n      dup3\n      add\n      swap2\n    tag_507:\n      pop\n      pop\n      pop\n      pop\n      pop\n      dup2\n      mstore\n      pop\n      pop\n      dup2\n      mstore\n      0x20\n      add\n      swap1\n      0x01\n      add\n      swap1\n      jump(tag_492)\n    tag_493:\n      pop\n      pop\n      pop\n      pop\n      swap1\n      pop\n      swap2\n      pop\n      swap2\n      pop\n      jump(tag_472)\n        /* \"complete.sol\":1676:1953  if(submittedbyadmin==false){... */\n    tag_473:\n        /* \"complete.sol\":1785:1809  bugReport[] memory temp1 */\n      0x60\n        /* \"complete.sol\":1851:1879  featureReport[] memory temp2 */\n      dup1\n        /* \"complete.sol\":1928:1933  temp1 */\n      dup2\n        /* \"complete.sol\":1935:1940  temp2 */\n      dup2\n        /* \"complete.sol\":1921:1941  return(temp1, temp2) */\n      swap4\n      pop\n      swap4\n      pop\n      pop\n      pop\n        /* \"complete.sol\":1580:1960  function send_list() public view returns(bugReport[] memory, featureReport[] memory ){... */\n    tag_472:\n      swap1\n      swap2\n      jump\t// out\n        /* \"complete.sol\":5594:5983  function newPatches() public view returns(listOfBnF[] memory){... */\n    tag_69:\n        /* \"complete.sol\":5636:5654  listOfBnF[] memory */\n      0x60\n        /* \"complete.sol\":5666:5691  listOfBnF[] memory result */\n      0x00\n        /* \"complete.sol\":5710:5720  patchnames */\n      0x07\n        /* \"complete.sol\":5710:5727  patchnames.length */\n      dup1\n      sload\n      swap1\n      pop\n        /* \"complete.sol\":5694:5728  new listOfBnF[](patchnames.length) */\n      0xffffffffffffffff\n      dup2\n      gt\n      iszero\n      tag_512\n      jumpi\n      tag_513\n      tag_108\n      jump\t// in\n    tag_513:\n    tag_512:\n      mload(0x40)\n      swap1\n      dup1\n      dup3\n      mstore\n      dup1\n      0x20\n      mul\n      0x20\n      add\n      dup3\n      add\n      0x40\n      mstore\n      dup1\n      iszero\n      tag_514\n      jumpi\n      dup2\n      0x20\n      add\n    tag_515:\n      tag_516\n      tag_112\n      jump\t// in\n    tag_516:\n      dup2\n      mstore\n      0x20\n      add\n      swap1\n      0x01\n      swap1\n      sub\n      swap1\n      dup2\n      tag_515\n      jumpi\n      swap1\n      pop\n    tag_514:\n      pop\n        /* \"complete.sol\":5666:5728  listOfBnF[] memory result = new listOfBnF[](patchnames.length) */\n      swap1\n      pop\n        /* \"complete.sol\":5739:5745  uint j */\n      0x00\n        /* \"complete.sol\":5763:5769  uint i */\n      dup1\n        /* \"complete.sol\":5758:5950  for (uint i = 0; i < patchnames.length; i++) { ... */\n    tag_517:\n        /* \"complete.sol\":5779:5789  patchnames */\n      0x07\n        /* \"complete.sol\":5779:5796  patchnames.length */\n      dup1\n      sload\n      swap1\n      pop\n        /* \"complete.sol\":5775:5776  i */\n      dup2\n        /* \"complete.sol\":5775:5796  i < patchnames.length */\n      lt\n        /* \"complete.sol\":5758:5950  for (uint i = 0; i < patchnames.length; i++) { ... */\n      iszero\n      tag_518\n      jumpi\n        /* \"complete.sol\":5822:5830  requests */\n      0x06\n        /* \"complete.sol\":5831:5841  patchnames */\n      0x07\n        /* \"complete.sol\":5842:5843  i */\n      dup3\n        /* \"complete.sol\":5831:5844  patchnames[i] */\n      dup2\n      sload\n      dup2\n      lt\n      tag_520\n      jumpi\n      tag_521\n      tag_118\n      jump\t// in\n    tag_521:\n    tag_520:\n      swap1\n      0x00\n      mstore\n      keccak256(0x00, 0x20)\n      add\n        /* \"complete.sol\":5822:5845  requests[patchnames[i]] */\n      mload(0x40)\n      tag_523\n      swap2\n      swap1\n      tag_121\n      jump\t// in\n    tag_523:\n      swap1\n      dup2\n      mstore\n      0x20\n      add\n      mload(0x40)\n      dup1\n      swap2\n      sub\n      swap1\n      keccak256\n        /* \"complete.sol\":5822:5854  requests[patchnames[i]].deployed */\n      0x06\n      add\n      0x00\n      swap1\n      sload\n      swap1\n      0x0100\n      exp\n      swap1\n      div\n      0xff\n      and\n        /* \"complete.sol\":5819:5939  if(requests[patchnames[i]].deployed){... */\n      iszero\n      tag_524\n      jumpi\n        /* \"complete.sol\":5882:5890  requests */\n      0x06\n        /* \"complete.sol\":5891:5901  patchnames */\n      0x07\n        /* \"complete.sol\":5902:5903  i */\n      dup3\n        /* \"complete.sol\":5891:5904  patchnames[i] */\n      dup2\n      sload\n      dup2\n      lt\n      tag_525\n      jumpi\n      tag_526\n      tag_118\n      jump\t// in\n    tag_526:\n    tag_525:\n      swap1\n      0x00\n      mstore\n      keccak256(0x00, 0x20)\n      add\n        /* \"complete.sol\":5882:5905  requests[patchnames[i]] */\n      mload(0x40)\n      tag_528\n      swap2\n      swap1\n      tag_121\n      jump\t// in\n    tag_528:\n      swap1\n      dup2\n      mstore\n      0x20\n      add\n      mload(0x40)\n      dup1\n      swap2\n      sub\n      swap1\n      keccak256\n        /* \"complete.sol\":5870:5905  result[j] = requests[patchnames[i]] */\n      mload(0x40)\n      dup1\n      0x0160\n      add\n      0x40\n      mstore\n      swap1\n      dup2\n      0x00\n      dup3\n      add\n      dup1\n      sload\n      tag_529\n      swap1\n      tag_90\n      jump\t// in\n    tag_529:\n      dup1\n      0x1f\n      add\n      0x20\n      dup1\n      swap2\n      div\n      mul\n      0x20\n      add\n      mload(0x40)\n      swap1\n      dup2\n      add\n      0x40\n      mstore\n      dup1\n      swap3\n      swap2\n      swap1\n      dup2\n      dup2\n      mstore\n      0x20\n      add\n      dup3\n      dup1\n      sload\n      tag_530\n      swap1\n      tag_90\n      jump\t// in\n    tag_530:\n      dup1\n      iszero\n      tag_531\n      jumpi\n      dup1\n      0x1f\n      lt\n      tag_532\n      jumpi\n      0x0100\n      dup1\n      dup4\n      sload\n      div\n      mul\n      dup4\n      mstore\n      swap2\n      0x20\n      add\n      swap2\n      jump(tag_531)\n    tag_532:\n      dup3\n      add\n      swap2\n      swap1\n      0x00\n      mstore\n      keccak256(0x00, 0x20)\n      swap1\n    tag_533:\n      dup2\n      sload\n      dup2\n      mstore\n      swap1\n      0x01\n      add\n      swap1\n      0x20\n      add\n      dup1\n      dup4\n      gt\n      tag_533\n      jumpi\n      dup3\n      swap1\n      sub\n      0x1f\n      and\n      dup3\n      add\n      swap2\n    tag_531:\n      pop\n      pop\n      pop\n      pop\n      pop\n      dup2\n      mstore\n      0x20\n      add\n      0x01\n      dup3\n      add\n      dup1\n      sload\n      tag_534\n      swap1\n      tag_90\n      jump\t// in\n    tag_534:\n      dup1\n      0x1f\n      add\n      0x20\n      dup1\n      swap2\n      div\n      mul\n      0x20\n      add\n      mload(0x40)\n      swap1\n      dup2\n      add\n      0x40\n      mstore\n      dup1\n      swap3\n      swap2\n      swap1\n      dup2\n      dup2\n      mstore\n      0x20\n      add\n      dup3\n      dup1\n      sload\n      tag_535\n      swap1\n      tag_90\n      jump\t// in\n    tag_535:\n      dup1\n      iszero\n      tag_536\n      jumpi\n      dup1\n      0x1f\n      lt\n      tag_537\n      jumpi\n      0x0100\n      dup1\n      dup4\n      sload\n      div\n      mul\n      dup4\n      mstore\n      swap2\n      0x20\n      add\n      swap2\n      jump(tag_536)\n    tag_537:\n      dup3\n      add\n      swap2\n      swap1\n      0x00\n      mstore\n      keccak256(0x00, 0x20)\n      swap1\n    tag_538:\n      dup2\n      sload\n      dup2\n      mstore\n      swap1\n      0x01\n      add\n      swap1\n      0x20\n      add\n      dup1\n      dup4\n      gt\n      tag_538\n      jumpi\n      dup3\n      swap1\n      sub\n      0x1f\n      and\n      dup3\n      add\n      swap2\n    tag_536:\n      pop\n      pop\n      pop\n      pop\n      pop\n      dup2\n      mstore\n      0x20\n      add\n      0x02\n      dup3\n      add\n      dup1\n      sload\n      tag_539\n      swap1\n      tag_90\n      jump\t// in\n    tag_539:\n      dup1\n      0x1f\n      add\n      0x20\n      dup1\n      swap2\n      div\n      mul\n      0x20\n      add\n      mload(0x40)\n      swap1\n      dup2\n      add\n      0x40\n      mstore\n      dup1\n      swap3\n      swap2\n      swap1\n      dup2\n      dup2\n      mstore\n      0x20\n      add\n      dup3\n      dup1\n      sload\n      tag_540\n      swap1\n      tag_90\n      jump\t// in\n    tag_540:\n      dup1\n      iszero\n      tag_541\n      jumpi\n      dup1\n      0x1f\n      lt\n      tag_542\n      jumpi\n      0x0100\n      dup1\n      dup4\n      sload\n      div\n      mul\n      dup4\n      mstore\n      swap2\n      0x20\n      add\n      swap2\n      jump(tag_541)\n    tag_542:\n      dup3\n      add\n      swap2\n      swap1\n      0x00\n      mstore\n      keccak256(0x00, 0x20)\n      swap1\n    tag_543:\n      dup2\n      sload\n      dup2\n      mstore\n      swap1\n      0x01\n      add\n      swap1\n      0x20\n      add\n      dup1\n      dup4\n      gt\n      tag_543\n      jumpi\n      dup3\n      swap1\n      sub\n      0x1f\n      and\n      dup3\n      add\n      swap2\n    tag_541:\n      pop\n      pop\n      pop\n      pop\n      pop\n      dup2\n      mstore\n      0x20\n      add\n      0x03\n      dup3\n      add\n      dup1\n      sload\n      tag_544\n      swap1\n      tag_90\n      jump\t// in\n    tag_544:\n      dup1\n      0x1f\n      add\n      0x20\n      dup1\n      swap2\n      div\n      mul\n      0x20\n      add\n      mload(0x40)\n      swap1\n      dup2\n      add\n      0x40\n      mstore\n      dup1\n      swap3\n      swap2\n      swap1\n      dup2\n      dup2\n      mstore\n      0x20\n      add\n      dup3\n      dup1\n      sload\n      tag_545\n      swap1\n      tag_90\n      jump\t// in\n    tag_545:\n      dup1\n      iszero\n      tag_546\n      jumpi\n      dup1\n      0x1f\n      lt\n      tag_547\n      jumpi\n      0x0100\n      dup1\n      dup4\n      sload\n      div\n      mul\n      dup4\n      mstore\n      swap2\n      0x20\n      add\n      swap2\n      jump(tag_546)\n    tag_547:\n      dup3\n      add\n      swap2\n      swap1\n      0x00\n      mstore\n      keccak256(0x00, 0x20)\n      swap1\n    tag_548:\n      dup2\n      sload\n      dup2\n      mstore\n      swap1\n      0x01\n      add\n      swap1\n      0x20\n      add\n      dup1\n      dup4\n      gt\n      tag_548\n      jumpi\n      dup3\n      swap1\n      sub\n      0x1f\n      and\n      dup3\n      add\n      swap2\n    tag_546:\n      pop\n      pop\n      pop\n      pop\n      pop\n      dup2\n      mstore\n      0x20\n      add\n      0x04\n      dup3\n      add\n      dup1\n      sload\n      dup1\n      0x20\n      mul\n      0x20\n      add\n      mload(0x40)\n      swap1\n      dup2\n      add\n      0x40\n      mstore\n      dup1\n      swap3\n      swap2\n      swap1\n      dup2\n      dup2\n      mstore\n      0x20\n      add\n      0x00\n      swap1\n    tag_549:\n      dup3\n      dup3\n      lt\n      iszero\n      tag_550\n      jumpi\n      dup4\n      dup3\n      swap1\n      0x00\n      mstore\n      keccak256(0x00, 0x20)\n      swap1\n      0x03\n      mul\n      add\n      mload(0x40)\n      dup1\n      0x60\n      add\n      0x40\n      mstore\n      swap1\n      dup2\n      0x00\n      dup3\n      add\n      dup1\n      sload\n      tag_552\n      swap1\n      tag_90\n      jump\t// in\n    tag_552:\n      dup1\n      0x1f\n      add\n      0x20\n      dup1\n      swap2\n      div\n      mul\n      0x20\n      add\n      mload(0x40)\n      swap1\n      dup2\n      add\n      0x40\n      mstore\n      dup1\n      swap3\n      swap2\n      swap1\n      dup2\n      dup2\n      mstore\n      0x20\n      add\n      dup3\n      dup1\n      sload\n      tag_553\n      swap1\n      tag_90\n      jump\t// in\n    tag_553:\n      dup1\n      iszero\n      tag_554\n      jumpi\n      dup1\n      0x1f\n      lt\n      tag_555\n      jumpi\n      0x0100\n      dup1\n      dup4\n      sload\n      div\n      mul\n      dup4\n      mstore\n      swap2\n      0x20\n      add\n      swap2\n      jump(tag_554)\n    tag_555:\n      dup3\n      add\n      swap2\n      swap1\n      0x00\n      mstore\n      keccak256(0x00, 0x20)\n      swap1\n    tag_556:\n      dup2\n      sload\n      dup2\n      mstore\n      swap1\n      0x01\n      add\n      swap1\n      0x20\n      add\n      dup1\n      dup4\n      gt\n      tag_556\n      jumpi\n      dup3\n      swap1\n      sub\n      0x1f\n      and\n      dup3\n      add\n      swap2\n    tag_554:\n      pop\n      pop\n      pop\n      pop\n      pop\n      dup2\n      mstore\n      0x20\n      add\n      0x01\n      dup3\n      add\n      dup1\n      sload\n      tag_557\n      swap1\n      tag_90\n      jump\t// in\n    tag_557:\n      dup1\n      0x1f\n      add\n      0x20\n      dup1\n      swap2\n      div\n      mul\n      0x20\n      add\n      mload(0x40)\n      swap1\n      dup2\n      add\n      0x40\n      mstore\n      dup1\n      swap3\n      swap2\n      swap1\n      dup2\n      dup2\n      mstore\n      0x20\n      add\n      dup3\n      dup1\n      sload\n      tag_558\n      swap1\n      tag_90\n      jump\t// in\n    tag_558:\n      dup1\n      iszero\n      tag_559\n      jumpi\n      dup1\n      0x1f\n      lt\n      tag_560\n      jumpi\n      0x0100\n      dup1\n      dup4\n      sload\n      div\n      mul\n      dup4\n      mstore\n      swap2\n      0x20\n      add\n      swap2\n      jump(tag_559)\n    tag_560:\n      dup3\n      add\n      swap2\n      swap1\n      0x00\n      mstore\n      keccak256(0x00, 0x20)\n      swap1\n    tag_561:\n      dup2\n      sload\n      dup2\n      mstore\n      swap1\n      0x01\n      add\n      swap1\n      0x20\n      add\n      dup1\n      dup4\n      gt\n      tag_561\n      jumpi\n      dup3\n      swap1\n      sub\n      0x1f\n      and\n      dup3\n      add\n      swap2\n    tag_559:\n      pop\n      pop\n      pop\n      pop\n      pop\n      dup2\n      mstore\n      0x20\n      add\n      0x02\n      dup3\n      add\n      dup1\n      sload\n      tag_562\n      swap1\n      tag_90\n      jump\t// in\n    tag_562:\n      dup1\n      0x1f\n      add\n      0x20\n      dup1\n      swap2\n      div\n      mul\n      0x20\n      add\n      mload(0x40)\n      swap1\n      dup2\n      add\n      0x40\n      mstore\n      dup1\n      swap3\n      swap2\n      swap1\n      dup2\n      dup2\n      mstore\n      0x20\n      add\n      dup3\n      dup1\n      sload\n      tag_563\n      swap1\n      tag_90\n      jump\t// in\n    tag_563:\n      dup1\n      iszero\n      tag_564\n      jumpi\n      dup1\n      0x1f\n      lt\n      tag_565\n      jumpi\n      0x0100\n      dup1\n      dup4\n      sload\n      div\n      mul\n      dup4\n      mstore\n      swap2\n      0x20\n      add\n      swap2\n      jump(tag_564)\n    tag_565:\n      dup3\n      add\n      swap2\n      swap1\n      0x00\n      mstore\n      keccak256(0x00, 0x20)\n      swap1\n    tag_566:\n      dup2\n      sload\n      dup2\n      mstore\n      swap1\n      0x01\n      add\n      swap1\n      0x20\n      add\n      dup1\n      dup4\n      gt\n      tag_566\n      jumpi\n      dup3\n      swap1\n      sub\n      0x1f\n      and\n      dup3\n      add\n      swap2\n    tag_564:\n      pop\n      pop\n      pop\n      pop\n      pop\n      dup2\n      mstore\n      pop\n      pop\n      dup2\n      mstore\n      0x20\n      add\n      swap1\n      0x01\n      add\n      swap1\n      jump(tag_549)\n    tag_550:\n      pop\n      pop\n      pop\n      pop\n      dup2\n      mstore\n      0x20\n      add\n      0x05\n      dup3\n      add\n      dup1\n      sload\n      dup1\n      0x20\n      mul\n      0x20\n      add\n      mload(0x40)\n      swap1\n      dup2\n      add\n      0x40\n      mstore\n      dup1\n      swap3\n      swap2\n      swap1\n      dup2\n      dup2\n      mstore\n      0x20\n      add\n      0x00\n      swap1\n    tag_567:\n      dup3\n      dup3\n      lt\n      iszero\n      tag_568\n      jumpi\n      dup4\n      dup3\n      swap1\n      0x00\n      mstore\n      keccak256(0x00, 0x20)\n      swap1\n      0x03\n      mul\n      add\n      mload(0x40)\n      dup1\n      0x60\n      add\n      0x40\n      mstore\n      swap1\n      dup2\n      0x00\n      dup3\n      add\n      dup1\n      sload\n      tag_570\n      swap1\n      tag_90\n      jump\t// in\n    tag_570:\n      dup1\n      0x1f\n      add\n      0x20\n      dup1\n      swap2\n      div\n      mul\n      0x20\n      add\n      mload(0x40)\n      swap1\n      dup2\n      add\n      0x40\n      mstore\n      dup1\n      swap3\n      swap2\n      swap1\n      dup2\n      dup2\n      mstore\n      0x20\n      add\n      dup3\n      dup1\n      sload\n      tag_571\n      swap1\n      tag_90\n      jump\t// in\n    tag_571:\n      dup1\n      iszero\n      tag_572\n      jumpi\n      dup1\n      0x1f\n      lt\n      tag_573\n      jumpi\n      0x0100\n      dup1\n      dup4\n      sload\n      div\n      mul\n      dup4\n      mstore\n      swap2\n      0x20\n      add\n      swap2\n      jump(tag_572)\n    tag_573:\n      dup3\n      add\n      swap2\n      swap1\n      0x00\n      mstore\n      keccak256(0x00, 0x20)\n      swap1\n    tag_574:\n      dup2\n      sload\n      dup2\n      mstore\n      swap1\n      0x01\n      add\n      swap1\n      0x20\n      add\n      dup1\n      dup4\n      gt\n      tag_574\n      jumpi\n      dup3\n      swap1\n      sub\n      0x1f\n      and\n      dup3\n      add\n      swap2\n    tag_572:\n      pop\n      pop\n      pop\n      pop\n      pop\n      dup2\n      mstore\n      0x20\n      add\n      0x01\n      dup3\n      add\n      dup1\n      sload\n      tag_575\n      swap1\n      tag_90\n      jump\t// in\n    tag_575:\n      dup1\n      0x1f\n      add\n      0x20\n      dup1\n      swap2\n      div\n      mul\n      0x20\n      add\n      mload(0x40)\n      swap1\n      dup2\n      add\n      0x40\n      mstore\n      dup1\n      swap3\n      swap2\n      swap1\n      dup2\n      dup2\n      mstore\n      0x20\n      add\n      dup3\n      dup1\n      sload\n      tag_576\n      swap1\n      tag_90\n      jump\t// in\n    tag_576:\n      dup1\n      iszero\n      tag_577\n      jumpi\n      dup1\n      0x1f\n      lt\n      tag_578\n      jumpi\n      0x0100\n      dup1\n      dup4\n      sload\n      div\n      mul\n      dup4\n      mstore\n      swap2\n      0x20\n      add\n      swap2\n      jump(tag_577)\n    tag_578:\n      dup3\n      add\n      swap2\n      swap1\n      0x00\n      mstore\n      keccak256(0x00, 0x20)\n      swap1\n    tag_579:\n      dup2\n      sload\n      dup2\n      mstore\n      swap1\n      0x01\n      add\n      swap1\n      0x20\n      add\n      dup1\n      dup4\n      gt\n      tag_579\n      jumpi\n      dup3\n      swap1\n      sub\n      0x1f\n      and\n      dup3\n      add\n      swap2\n    tag_577:\n      pop\n      pop\n      pop\n      pop\n      pop\n      dup2\n      mstore\n      0x20\n      add\n      0x02\n      dup3\n      add\n      dup1\n      sload\n      tag_580\n      swap1\n      tag_90\n      jump\t// in\n    tag_580:\n      dup1\n      0x1f\n      add\n      0x20\n      dup1\n      swap2\n      div\n      mul\n      0x20\n      add\n      mload(0x40)\n      swap1\n      dup2\n      add\n      0x40\n      mstore\n      dup1\n      swap3\n      swap2\n      swap1\n      dup2\n      dup2\n      mstore\n      0x20\n      add\n      dup3\n      dup1\n      sload\n      tag_581\n      swap1\n      tag_90\n      jump\t// in\n    tag_581:\n      dup1\n      iszero\n      tag_582\n      jumpi\n      dup1\n      0x1f\n      lt\n      tag_583\n      jumpi\n      0x0100\n      dup1\n      dup4\n      sload\n      div\n      mul\n      dup4\n      mstore\n      swap2\n      0x20\n      add\n      swap2\n      jump(tag_582)\n    tag_583:\n      dup3\n      add\n      swap2\n      swap1\n      0x00\n      mstore\n      keccak256(0x00, 0x20)\n      swap1\n    tag_584:\n      dup2\n      sload\n      dup2\n      mstore\n      swap1\n      0x01\n      add\n      swap1\n      0x20\n      add\n      dup1\n      dup4\n      gt\n      tag_584\n      jumpi\n      dup3\n      swap1\n      sub\n      0x1f\n      and\n      dup3\n      add\n      swap2\n    tag_582:\n      pop\n      pop\n      pop\n      pop\n      pop\n      dup2\n      mstore\n      pop\n      pop\n      dup2\n      mstore\n      0x20\n      add\n      swap1\n      0x01\n      add\n      swap1\n      jump(tag_567)\n    tag_568:\n      pop\n      pop\n      pop\n      pop\n      dup2\n      mstore\n      0x20\n      add\n      0x06\n      dup3\n      add\n      0x00\n      swap1\n      sload\n      swap1\n      0x0100\n      exp\n      swap1\n      div\n      0xff\n      and\n      iszero\n      iszero\n      iszero\n      iszero\n      dup2\n      mstore\n      0x20\n      add\n      0x07\n      dup3\n      add\n      sload\n      dup2\n      mstore\n      0x20\n      add\n      0x08\n      dup3\n      add\n      sload\n      dup2\n      mstore\n      0x20\n      add\n      0x09\n      dup3\n      add\n      dup1\n      sload\n      tag_585\n      swap1\n      tag_90\n      jump\t// in\n    tag_585:\n      dup1\n      0x1f\n      add\n      0x20\n      dup1\n      swap2\n      div\n      mul\n      0x20\n      add\n      mload(0x40)\n      swap1\n      dup2\n      add\n      0x40\n      mstore\n      dup1\n      swap3\n      swap2\n      swap1\n      dup2\n      dup2\n      mstore\n      0x20\n      add\n      dup3\n      dup1\n      sload\n      tag_586\n      swap1\n      tag_90\n      jump\t// in\n    tag_586:\n      dup1\n      iszero\n      tag_587\n      jumpi\n      dup1\n      0x1f\n      lt\n      tag_588\n      jumpi\n      0x0100\n      dup1\n      dup4\n      sload\n      div\n      mul\n      dup4\n      mstore\n      swap2\n      0x20\n      add\n      swap2\n      jump(tag_587)\n    tag_588:\n      dup3\n      add\n      swap2\n      swap1\n      0x00\n      mstore\n      keccak256(0x00, 0x20)\n      swap1\n    tag_589:\n      dup2\n      sload\n      dup2\n      mstore\n      swap1\n      0x01\n      add\n      swap1\n      0x20\n      add\n      dup1\n      dup4\n      gt\n      tag_589\n      jumpi\n      dup3\n      swap1\n      sub\n      0x1f\n      and\n      dup3\n      add\n      swap2\n    tag_587:\n      pop\n      pop\n      pop\n      pop\n      pop\n      dup2\n      mstore\n      0x20\n      add\n      0x0a\n      dup3\n      add\n      dup1\n      sload\n      tag_590\n      swap1\n      tag_90\n      jump\t// in\n    tag_590:\n      dup1\n      0x1f\n      add\n      0x20\n      dup1\n      swap2\n      div\n      mul\n      0x20\n      add\n      mload(0x40)\n      swap1\n      dup2\n      add\n      0x40\n      mstore\n      dup1\n      swap3\n      swap2\n      swap1\n      dup2\n      dup2\n      mstore\n      0x20\n      add\n      dup3\n      dup1\n      sload\n      tag_591\n      swap1\n      tag_90\n      jump\t// in\n    tag_591:\n      dup1\n      iszero\n      tag_592\n      jumpi\n      dup1\n      0x1f\n      lt\n      tag_593\n      jumpi\n      0x0100\n      dup1\n      dup4\n      sload\n      div\n      mul\n      dup4\n      mstore\n      swap2\n      0x20\n      add\n      swap2\n      jump(tag_592)\n    tag_593:\n      dup3\n      add\n      swap2\n      swap1\n      0x00\n      mstore\n      keccak256(0x00, 0x20)\n      swap1\n    tag_594:\n      dup2\n      sload\n      dup2\n      mstore\n      swap1\n      0x01\n      add\n      swap1\n      0x20\n      add\n      dup1\n      dup4\n      gt\n      tag_594\n      jumpi\n      dup3\n      swap1\n      sub\n      0x1f\n      and\n      dup3\n      add\n      swap2\n    tag_592:\n      pop\n      pop\n      pop\n      pop\n      pop\n      dup2\n      mstore\n      pop\n      pop\n        /* \"complete.sol\":5870:5876  result */\n      dup4\n        /* \"complete.sol\":5877:5878  j */\n      dup4\n        /* \"complete.sol\":5870:5879  result[j] */\n      dup2\n      mload\n      dup2\n      lt\n      tag_595\n      jumpi\n      tag_596\n      tag_118\n      jump\t// in\n    tag_596:\n    tag_595:\n      0x20\n      mul\n      0x20\n      add\n      add\n        /* \"complete.sol\":5870:5905  result[j] = requests[patchnames[i]] */\n      dup2\n      swap1\n      mstore\n      pop\n        /* \"complete.sol\":5920:5923  j++ */\n      dup2\n      dup1\n      tag_597\n      swap1\n      tag_191\n      jump\t// in\n    tag_597:\n      swap3\n      pop\n      pop\n        /* \"complete.sol\":5819:5939  if(requests[patchnames[i]].deployed){... */\n    tag_524:\n        /* \"complete.sol\":5798:5801  i++ */\n      dup1\n      dup1\n      tag_598\n      swap1\n      tag_191\n      jump\t// in\n    tag_598:\n      swap2\n      pop\n      pop\n        /* \"complete.sol\":5758:5950  for (uint i = 0; i < patchnames.length; i++) { ... */\n      jump(tag_517)\n    tag_518:\n      pop\n        /* \"complete.sol\":5969:5975  result */\n      dup2\n        /* \"complete.sol\":5962:5975  return result */\n      swap3\n      pop\n      pop\n      pop\n        /* \"complete.sol\":5594:5983  function newPatches() public view returns(listOfBnF[] memory){... */\n      swap1\n      jump\t// out\n        /* \"complete.sol\":4232:4584  function uploadedbyDev(string memory time_rn, string memory pname, string memory ver, string memory fileName, bytes memory _patch) public{... */\n    tag_74:\n        /* \"complete.sol\":4380:4402  listOfBnF storage temp */\n      0x00\n        /* \"complete.sol\":4405:4413  requests */\n      0x06\n        /* \"complete.sol\":4414:4419  pname */\n      dup6\n        /* \"complete.sol\":4405:4420  requests[pname] */\n      mload(0x40)\n      tag_600\n      swap2\n      swap1\n      tag_379\n      jump\t// in\n    tag_600:\n      swap1\n      dup2\n      mstore\n      0x20\n      add\n      mload(0x40)\n      dup1\n      swap2\n      sub\n      swap1\n      keccak256\n        /* \"complete.sol\":4380:4420  listOfBnF storage temp = requests[pname] */\n      swap1\n      pop\n        /* \"complete.sol\":4451:4458  time_rn */\n      dup6\n        /* \"complete.sol\":4431:4435  temp */\n      dup2\n        /* \"complete.sol\":4431:4448  temp.timeofReport */\n      0x00\n      add\n        /* \"complete.sol\":4431:4458  temp.timeofReport = time_rn */\n      swap1\n      dup2\n      tag_601\n      swap2\n      swap1\n      tag_382\n      jump\t// in\n    tag_601:\n      pop\n        /* \"complete.sol\":4480:4483  ver */\n      dup4\n        /* \"complete.sol\":4469:4473  temp */\n      dup2\n        /* \"complete.sol\":4469:4477  temp.vno */\n      0x03\n      add\n        /* \"complete.sol\":4469:4483  temp.vno = ver */\n      swap1\n      dup2\n      tag_602\n      swap2\n      swap1\n      tag_382\n      jump\t// in\n    tag_602:\n      pop\n        /* \"complete.sol\":4510:4518  fileName */\n      dup3\n        /* \"complete.sol\":4494:4498  temp */\n      dup2\n        /* \"complete.sol\":4494:4507  temp.filename */\n      0x09\n      add\n        /* \"complete.sol\":4494:4518  temp.filename = fileName */\n      swap1\n      dup2\n      tag_603\n      swap2\n      swap1\n      tag_382\n      jump\t// in\n    tag_603:\n      pop\n        /* \"complete.sol\":4542:4548  _patch */\n      dup2\n        /* \"complete.sol\":4529:4533  temp */\n      dup2\n        /* \"complete.sol\":4529:4539  temp.patch */\n      0x0a\n      add\n        /* \"complete.sol\":4529:4548  temp.patch = _patch */\n      swap1\n      dup2\n      tag_604\n      swap2\n      swap1\n      tag_605\n      jump\t// in\n    tag_604:\n      pop\n        /* \"complete.sol\":4575:4576  1 */\n      0x01\n        /* \"complete.sol\":4559:4563  temp */\n      dup2\n        /* \"complete.sol\":4559:4572  temp.uploaded */\n      0x07\n      add\n        /* \"complete.sol\":4559:4576  temp.uploaded = 1 */\n      dup2\n      swap1\n      sstore\n      pop\n        /* \"complete.sol\":4369:4584  {... */\n      pop\n        /* \"complete.sol\":4232:4584  function uploadedbyDev(string memory time_rn, string memory pname, string memory ver, string memory fileName, bytes memory _patch) public{... */\n      pop\n      pop\n      pop\n      pop\n      pop\n      jump\t// out\n        /* \"complete.sol\":632:659  bugReport[] public bugs_arr */\n    tag_77:\n      0x01\n      dup2\n      dup2\n      sload\n      dup2\n      lt\n      tag_606\n      jumpi\n      0x00\n      dup1\n      revert\n    tag_606:\n      swap1\n      0x00\n      mstore\n      keccak256(0x00, 0x20)\n      swap1\n      0x03\n      mul\n      add\n      0x00\n      swap2\n      pop\n      swap1\n      pop\n      dup1\n      0x00\n      add\n      dup1\n      sload\n      tag_608\n      swap1\n      tag_90\n      jump\t// in\n    tag_608:\n      dup1\n      0x1f\n      add\n      0x20\n      dup1\n      swap2\n      div\n      mul\n      0x20\n      add\n      mload(0x40)\n      swap1\n      dup2\n      add\n      0x40\n      mstore\n      dup1\n      swap3\n      swap2\n      swap1\n      dup2\n      dup2\n      mstore\n      0x20\n      add\n      dup3\n      dup1\n      sload\n      tag_609\n      swap1\n      tag_90\n      jump\t// in\n    tag_609:\n      dup1\n      iszero\n      tag_610\n      jumpi\n      dup1\n      0x1f\n      lt\n      tag_611\n      jumpi\n      0x0100\n      dup1\n      dup4\n      sload\n      div\n      mul\n      dup4\n      mstore\n      swap2\n      0x20\n      add\n      swap2\n      jump(tag_610)\n    tag_611:\n      dup3\n      add\n      swap2\n      swap1\n      0x00\n      mstore\n      keccak256(0x00, 0x20)\n      swap1\n    tag_612:\n      dup2\n      sload\n      dup2\n      mstore\n      swap1\n      0x01\n      add\n      swap1\n      0x20\n      add\n      dup1\n      dup4\n      gt\n      tag_612\n      jumpi\n      dup3\n      swap1\n      sub\n      0x1f\n      and\n      dup3\n      add\n      swap2\n    tag_610:\n      pop\n      pop\n      pop\n      pop\n      pop\n      swap1\n      dup1\n      0x01\n      add\n      dup1\n      sload\n      tag_613\n      swap1\n      tag_90\n      jump\t// in\n    tag_613:\n      dup1\n      0x1f\n      add\n      0x20\n      dup1\n      swap2\n      div\n      mul\n      0x20\n      add\n      mload(0x40)\n      swap1\n      dup2\n      add\n      0x40\n      mstore\n      dup1\n      swap3\n      swap2\n      swap1\n      dup2\n      dup2\n      mstore\n      0x20\n      add\n      dup3\n      dup1\n      sload\n      tag_614\n      swap1\n      tag_90\n      jump\t// in\n    tag_614:\n      dup1\n      iszero\n      tag_615\n      jumpi\n      dup1\n      0x1f\n      lt\n      tag_616\n      jumpi\n      0x0100\n      dup1\n      dup4\n      sload\n      div\n      mul\n      dup4\n      mstore\n      swap2\n      0x20\n      add\n      swap2\n      jump(tag_615)\n    tag_616:\n      dup3\n      add\n      swap2\n      swap1\n      0x00\n      mstore\n      keccak256(0x00, 0x20)\n      swap1\n    tag_617:\n      dup2\n      sload\n      dup2\n      mstore\n      swap1\n      0x01\n      add\n      swap1\n      0x20\n      add\n      dup1\n      dup4\n      gt\n      tag_617\n      jumpi\n      dup3\n      swap1\n      sub\n      0x1f\n      and\n      dup3\n      add\n      swap2\n    tag_615:\n      pop\n      pop\n      pop\n      pop\n      pop\n      swap1\n      dup1\n      0x02\n      add\n      dup1\n      sload\n      tag_618\n      swap1\n      tag_90\n      jump\t// in\n    tag_618:\n      dup1\n      0x1f\n      add\n      0x20\n      dup1\n      swap2\n      div\n      mul\n      0x20\n      add\n      mload(0x40)\n      swap1\n      dup2\n      add\n      0x40\n      mstore\n      dup1\n      swap3\n      swap2\n      swap1\n      dup2\n      dup2\n      mstore\n      0x20\n      add\n      dup3\n      dup1\n      sload\n      tag_619\n      swap1\n      tag_90\n      jump\t// in\n    tag_619:\n      dup1\n      iszero\n      tag_620\n      jumpi\n      dup1\n      0x1f\n      lt\n      tag_621\n      jumpi\n      0x0100\n      dup1\n      dup4\n      sload\n      div\n      mul\n      dup4\n      mstore\n      swap2\n      0x20\n      add\n      swap2\n      jump(tag_620)\n    tag_621:\n      dup3\n      add\n      swap2\n      swap1\n      0x00\n      mstore\n      keccak256(0x00, 0x20)\n      swap1\n    tag_622:\n      dup2\n      sload\n      dup2\n      mstore\n      swap1\n      0x01\n      add\n      swap1\n      0x20\n      add\n      dup1\n      dup4\n      gt\n      tag_622\n      jumpi\n      dup3\n      swap1\n      sub\n      0x1f\n      and\n      dup3\n      add\n      swap2\n    tag_620:\n      pop\n      pop\n      pop\n      pop\n      pop\n      swap1\n      pop\n      dup4\n      jump\t// out\n        /* \"complete.sol\":5030:5277  function approval(string memory time_rn, int status, string memory pname) public{... */\n    tag_82:\n        /* \"complete.sol\":5121:5144  listOfBnF storage temp1 */\n      0x00\n        /* \"complete.sol\":5147:5155  requests */\n      0x06\n        /* \"complete.sol\":5156:5161  pname */\n      dup3\n        /* \"complete.sol\":5147:5162  requests[pname] */\n      mload(0x40)\n      tag_624\n      swap2\n      swap1\n      tag_379\n      jump\t// in\n    tag_624:\n      swap1\n      dup2\n      mstore\n      0x20\n      add\n      mload(0x40)\n      dup1\n      swap2\n      sub\n      swap1\n      keccak256\n        /* \"complete.sol\":5121:5162  listOfBnF storage temp1 = requests[pname] */\n      swap1\n      pop\n        /* \"complete.sol\":5190:5196  status */\n      dup3\n        /* \"complete.sol\":5173:5178  temp1 */\n      dup2\n        /* \"complete.sol\":5173:5187  temp1.approved */\n      0x08\n      add\n        /* \"complete.sol\":5173:5196  temp1.approved = status */\n      dup2\n      swap1\n      sstore\n      pop\n        /* \"complete.sol\":5224:5230  status */\n      dup3\n        /* \"complete.sol\":5207:5212  temp1 */\n      dup2\n        /* \"complete.sol\":5207:5221  temp1.uploaded */\n      0x07\n      add\n        /* \"complete.sol\":5207:5230  temp1.uploaded = status */\n      dup2\n      swap1\n      sstore\n      pop\n        /* \"complete.sol\":5262:5269  time_rn */\n      dup4\n        /* \"complete.sol\":5241:5246  temp1 */\n      dup2\n        /* \"complete.sol\":5241:5259  temp1.timeofReport */\n      0x00\n      add\n        /* \"complete.sol\":5241:5269  temp1.timeofReport = time_rn */\n      swap1\n      dup2\n      tag_625\n      swap2\n      swap1\n      tag_382\n      jump\t// in\n    tag_625:\n      pop\n        /* \"complete.sol\":5110:5277  {... */\n      pop\n        /* \"complete.sol\":5030:5277  function approval(string memory time_rn, int status, string memory pname) public{... */\n      pop\n      pop\n      pop\n      jump\t// out\n        /* \"complete.sol\":5327:5542  function deployment(string memory time_rn, string memory pname, bool status) public{... */\n    tag_86:\n        /* \"complete.sol\":5421:5443  listOfBnF storage temp */\n      0x00\n        /* \"complete.sol\":5446:5454  requests */\n      0x06\n        /* \"complete.sol\":5455:5460  pname */\n      dup4\n        /* \"complete.sol\":5446:5461  requests[pname] */\n      mload(0x40)\n      tag_627\n      swap2\n      swap1\n      tag_379\n      jump\t// in\n    tag_627:\n      swap1\n      dup2\n      mstore\n      0x20\n      add\n      mload(0x40)\n      dup1\n      swap2\n      sub\n      swap1\n      keccak256\n        /* \"complete.sol\":5421:5461  listOfBnF storage temp = requests[pname] */\n      swap1\n      pop\n        /* \"complete.sol\":5488:5494  status */\n      dup2\n        /* \"complete.sol\":5472:5476  temp */\n      dup2\n        /* \"complete.sol\":5472:5485  temp.deployed */\n      0x06\n      add\n      0x00\n        /* \"complete.sol\":5472:5494  temp.deployed = status */\n      0x0100\n      exp\n      dup2\n      sload\n      dup2\n      0xff\n      mul\n      not\n      and\n      swap1\n      dup4\n      iszero\n      iszero\n      mul\n      or\n      swap1\n      sstore\n      pop\n        /* \"complete.sol\":5525:5532  time_rn */\n      dup4\n        /* \"complete.sol\":5505:5509  temp */\n      dup2\n        /* \"complete.sol\":5505:5522  temp.timeofReport */\n      0x00\n      add\n        /* \"complete.sol\":5505:5532  temp.timeofReport = time_rn */\n      swap1\n      dup2\n      tag_628\n      swap2\n      swap1\n      tag_382\n      jump\t// in\n    tag_628:\n      pop\n        /* \"complete.sol\":5410:5542  {... */\n      pop\n        /* \"complete.sol\":5327:5542  function deployment(string memory time_rn, string memory pname, bool status) public{... */\n      pop\n      pop\n      pop\n      jump\t// out\n        /* \"complete.sol\":2169:2739  function unChecked(string[][] memory new_b,string[][] memory new_f) internal{... */\n    tag_377:\n        /* \"complete.sol\":2263:2277  unselectedBugs */\n      0x03\n      0x00\n        /* \"complete.sol\":2256:2277  delete unselectedBugs */\n      tag_630\n      swap2\n      swap1\n      tag_429\n      jump\t// in\n    tag_630:\n        /* \"complete.sol\":2307:2311  true */\n      0x01\n        /* \"complete.sol\":2288:2304  submittedbyadmin */\n      0x05\n      0x00\n        /* \"complete.sol\":2288:2311  submittedbyadmin = true */\n      0x0100\n      exp\n      dup2\n      sload\n      dup2\n      0xff\n      mul\n      not\n      and\n      swap1\n      dup4\n      iszero\n      iszero\n      mul\n      or\n      swap1\n      sstore\n      pop\n        /* \"complete.sol\":2326:2332  uint i */\n      0x00\n        /* \"complete.sol\":2322:2493  for(uint i=0;i<new_b.length;i++){... */\n    tag_631:\n        /* \"complete.sol\":2337:2342  new_b */\n      dup3\n        /* \"complete.sol\":2337:2349  new_b.length */\n      mload\n        /* \"complete.sol\":2335:2336  i */\n      dup2\n        /* \"complete.sol\":2335:2349  i<new_b.length */\n      lt\n        /* \"complete.sol\":2322:2493  for(uint i=0;i<new_b.length;i++){... */\n      iszero\n      tag_632\n      jumpi\n        /* \"complete.sol\":2369:2390  bugReport memory temp */\n      0x00\n        /* \"complete.sol\":2393:2441  bugReport(new_b[i][0], new_b[i][1], new_b[i][2]) */\n      mload(0x40)\n      dup1\n      0x60\n      add\n      0x40\n      mstore\n      dup1\n        /* \"complete.sol\":2403:2408  new_b */\n      dup6\n        /* \"complete.sol\":2409:2410  i */\n      dup5\n        /* \"complete.sol\":2403:2411  new_b[i] */\n      dup2\n      mload\n      dup2\n      lt\n      tag_634\n      jumpi\n      tag_635\n      tag_118\n      jump\t// in\n    tag_635:\n    tag_634:\n      0x20\n      mul\n      0x20\n      add\n      add\n      mload\n        /* \"complete.sol\":2412:2413  0 */\n      0x00\n        /* \"complete.sol\":2403:2414  new_b[i][0] */\n      dup2\n      mload\n      dup2\n      lt\n      tag_636\n      jumpi\n      tag_637\n      tag_118\n      jump\t// in\n    tag_637:\n    tag_636:\n      0x20\n      mul\n      0x20\n      add\n      add\n      mload\n        /* \"complete.sol\":2393:2441  bugReport(new_b[i][0], new_b[i][1], new_b[i][2]) */\n      dup2\n      mstore\n      0x20\n      add\n        /* \"complete.sol\":2416:2421  new_b */\n      dup6\n        /* \"complete.sol\":2422:2423  i */\n      dup5\n        /* \"complete.sol\":2416:2424  new_b[i] */\n      dup2\n      mload\n      dup2\n      lt\n      tag_638\n      jumpi\n      tag_639\n      tag_118\n      jump\t// in\n    tag_639:\n    tag_638:\n      0x20\n      mul\n      0x20\n      add\n      add\n      mload\n        /* \"complete.sol\":2425:2426  1 */\n      0x01\n        /* \"complete.sol\":2416:2427  new_b[i][1] */\n      dup2\n      mload\n      dup2\n      lt\n      tag_640\n      jumpi\n      tag_641\n      tag_118\n      jump\t// in\n    tag_641:\n    tag_640:\n      0x20\n      mul\n      0x20\n      add\n      add\n      mload\n        /* \"complete.sol\":2393:2441  bugReport(new_b[i][0], new_b[i][1], new_b[i][2]) */\n      dup2\n      mstore\n      0x20\n      add\n        /* \"complete.sol\":2429:2434  new_b */\n      dup6\n        /* \"complete.sol\":2435:2436  i */\n      dup5\n        /* \"complete.sol\":2429:2437  new_b[i] */\n      dup2\n      mload\n      dup2\n      lt\n      tag_642\n      jumpi\n      tag_643\n      tag_118\n      jump\t// in\n    tag_643:\n    tag_642:\n      0x20\n      mul\n      0x20\n      add\n      add\n      mload\n        /* \"complete.sol\":2438:2439  2 */\n      0x02\n        /* \"complete.sol\":2429:2440  new_b[i][2] */\n      dup2\n      mload\n      dup2\n      lt\n      tag_644\n      jumpi\n      tag_645\n      tag_118\n      jump\t// in\n    tag_645:\n    tag_644:\n      0x20\n      mul\n      0x20\n      add\n      add\n      mload\n        /* \"complete.sol\":2393:2441  bugReport(new_b[i][0], new_b[i][1], new_b[i][2]) */\n      dup2\n      mstore\n      pop\n        /* \"complete.sol\":2369:2441  bugReport memory temp = bugReport(new_b[i][0], new_b[i][1], new_b[i][2]) */\n      swap1\n      pop\n        /* \"complete.sol\":2456:2470  unselectedBugs */\n      0x03\n        /* \"complete.sol\":2476:2480  temp */\n      dup2\n        /* \"complete.sol\":2456:2481  unselectedBugs.push(temp) */\n      swap1\n      dup1\n      0x01\n      dup2\n      sload\n      add\n      dup1\n      dup3\n      sstore\n      dup1\n      swap2\n      pop\n      pop\n      0x01\n      swap1\n      sub\n      swap1\n      0x00\n      mstore\n      keccak256(0x00, 0x20)\n      swap1\n      0x03\n      mul\n      add\n      0x00\n      swap1\n      swap2\n      swap1\n      swap2\n      swap1\n      swap2\n      pop\n      0x00\n      dup3\n      add\n      mload\n      dup2\n      0x00\n      add\n      swap1\n      dup2\n      tag_647\n      swap2\n      swap1\n      tag_382\n      jump\t// in\n    tag_647:\n      pop\n      0x20\n      dup3\n      add\n      mload\n      dup2\n      0x01\n      add\n      swap1\n      dup2\n      tag_648\n      swap2\n      swap1\n      tag_382\n      jump\t// in\n    tag_648:\n      pop\n      0x40\n      dup3\n      add\n      mload\n      dup2\n      0x02\n      add\n      swap1\n      dup2\n      tag_649\n      swap2\n      swap1\n      tag_382\n      jump\t// in\n    tag_649:\n      pop\n      pop\n      pop\n        /* \"complete.sol\":2354:2493  {... */\n      pop\n        /* \"complete.sol\":2350:2353  i++ */\n      dup1\n      dup1\n      tag_650\n      swap1\n      tag_191\n      jump\t// in\n    tag_650:\n      swap2\n      pop\n      pop\n        /* \"complete.sol\":2322:2493  for(uint i=0;i<new_b.length;i++){... */\n      jump(tag_631)\n    tag_632:\n      pop\n        /* \"complete.sol\":2510:2528  unselectedFeatures */\n      0x04\n      0x00\n        /* \"complete.sol\":2503:2528  delete unselectedFeatures */\n      tag_651\n      swap2\n      swap1\n      tag_451\n      jump\t// in\n    tag_651:\n        /* \"complete.sol\":2553:2559  uint i */\n      0x00\n        /* \"complete.sol\":2549:2732  for(uint i=0;i<new_f.length;i++){... */\n    tag_652:\n        /* \"complete.sol\":2564:2569  new_f */\n      dup2\n        /* \"complete.sol\":2564:2576  new_f.length */\n      mload\n        /* \"complete.sol\":2562:2563  i */\n      dup2\n        /* \"complete.sol\":2562:2576  i<new_f.length */\n      lt\n        /* \"complete.sol\":2549:2732  for(uint i=0;i<new_f.length;i++){... */\n      iszero\n      tag_653\n      jumpi\n        /* \"complete.sol\":2596:2621  featureReport memory temp */\n      0x00\n        /* \"complete.sol\":2624:2676  featureReport(new_f[i][0], new_f[i][1], new_f[i][2]) */\n      mload(0x40)\n      dup1\n      0x60\n      add\n      0x40\n      mstore\n      dup1\n        /* \"complete.sol\":2638:2643  new_f */\n      dup5\n        /* \"complete.sol\":2644:2645  i */\n      dup5\n        /* \"complete.sol\":2638:2646  new_f[i] */\n      dup2\n      mload\n      dup2\n      lt\n      tag_655\n      jumpi\n      tag_656\n      tag_118\n      jump\t// in\n    tag_656:\n    tag_655:\n      0x20\n      mul\n      0x20\n      add\n      add\n      mload\n        /* \"complete.sol\":2647:2648  0 */\n      0x00\n        /* \"complete.sol\":2638:2649  new_f[i][0] */\n      dup2\n      mload\n      dup2\n      lt\n      tag_657\n      jumpi\n      tag_658\n      tag_118\n      jump\t// in\n    tag_658:\n    tag_657:\n      0x20\n      mul\n      0x20\n      add\n      add\n      mload\n        /* \"complete.sol\":2624:2676  featureReport(new_f[i][0], new_f[i][1], new_f[i][2]) */\n      dup2\n      mstore\n      0x20\n      add\n        /* \"complete.sol\":2651:2656  new_f */\n      dup5\n        /* \"complete.sol\":2657:2658  i */\n      dup5\n        /* \"complete.sol\":2651:2659  new_f[i] */\n      dup2\n      mload\n      dup2\n      lt\n      tag_659\n      jumpi\n      tag_660\n      tag_118\n      jump\t// in\n    tag_660:\n    tag_659:\n      0x20\n      mul\n      0x20\n      add\n      add\n      mload\n        /* \"complete.sol\":2660:2661  1 */\n      0x01\n        /* \"complete.sol\":2651:2662  new_f[i][1] */\n      dup2\n      mload\n      dup2\n      lt\n      tag_661\n      jumpi\n      tag_662\n      tag_118\n      jump\t// in\n    tag_662:\n    tag_661:\n      0x20\n      mul\n      0x20\n      add\n      add\n      mload\n        /* \"complete.sol\":2624:2676  featureReport(new_f[i][0], new_f[i][1], new_f[i][2]) */\n      dup2\n      mstore\n      0x20\n      add\n        /* \"complete.sol\":2664:2669  new_f */\n      dup5\n        /* \"complete.sol\":2670:2671  i */\n      dup5\n        /* \"complete.sol\":2664:2672  new_f[i] */\n      dup2\n      mload\n      dup2\n      lt\n      tag_663\n      jumpi\n      tag_664\n      tag_118\n      jump\t// in\n    tag_664:\n    tag_663:\n      0x20\n      mul\n      0x20\n      add\n      add\n      mload\n        /* \"complete.sol\":2673:2674  2 */\n      0x02\n        /* \"complete.sol\":2664:2675  new_f[i][2] */\n      dup2\n      mload\n      dup2\n      lt\n      tag_665\n      jumpi\n      tag_666\n      tag_118\n      jump\t// in\n    tag_666:\n    tag_665:\n      0x20\n      mul\n      0x20\n      add\n      add\n      mload\n        /* \"complete.sol\":2624:2676  featureReport(new_f[i][0], new_f[i][1], new_f[i][2]) */\n      dup2\n      mstore\n      pop\n        /* \"complete.sol\":2596:2676  featureReport memory temp = featureReport(new_f[i][0], new_f[i][1], new_f[i][2]) */\n      swap1\n      pop\n        /* \"complete.sol\":2691:2709  unselectedFeatures */\n      0x04\n        /* \"complete.sol\":2715:2719  temp */\n      dup2\n        /* \"complete.sol\":2691:2720  unselectedFeatures.push(temp) */\n      swap1\n      dup1\n      0x01\n      dup2\n      sload\n      add\n      dup1\n      dup3\n      sstore\n      dup1\n      swap2\n      pop\n      pop\n      0x01\n      swap1\n      sub\n      swap1\n      0x00\n      mstore\n      keccak256(0x00, 0x20)\n      swap1\n      0x03\n      mul\n      add\n      0x00\n      swap1\n      swap2\n      swap1\n      swap2\n      swap1\n      swap2\n      pop\n      0x00\n      dup3\n      add\n      mload\n      dup2\n      0x00\n      add\n      swap1\n      dup2\n      tag_668\n      swap2\n      swap1\n      tag_382\n      jump\t// in\n    tag_668:\n      pop\n      0x20\n      dup3\n      add\n      mload\n      dup2\n      0x01\n      add\n      swap1\n      dup2\n      tag_669\n      swap2\n      swap1\n      tag_382\n      jump\t// in\n    tag_669:\n      pop\n      0x40\n      dup3\n      add\n      mload\n      dup2\n      0x02\n      add\n      swap1\n      dup2\n      tag_670\n      swap2\n      swap1\n      tag_382\n      jump\t// in\n    tag_670:\n      pop\n      pop\n      pop\n        /* \"complete.sol\":2581:2732  {... */\n      pop\n        /* \"complete.sol\":2577:2580  i++ */\n      dup1\n      dup1\n      tag_671\n      swap1\n      tag_191\n      jump\t// in\n    tag_671:\n      swap2\n      pop\n      pop\n        /* \"complete.sol\":2549:2732  for(uint i=0;i<new_f.length;i++){... */\n      jump(tag_652)\n    tag_653:\n      pop\n        /* \"complete.sol\":2169:2739  function unChecked(string[][] memory new_b,string[][] memory new_f) internal{... */\n      pop\n      pop\n      jump\t// out\n    tag_112:\n      mload(0x40)\n      dup1\n      0x0160\n      add\n      0x40\n      mstore\n      dup1\n      0x60\n      dup2\n      mstore\n      0x20\n      add\n      0x60\n      dup2\n      mstore\n      0x20\n      add\n      0x60\n      dup2\n      mstore\n      0x20\n      add\n      0x60\n      dup2\n      mstore\n      0x20\n      add\n      0x60\n      dup2\n      mstore\n      0x20\n      add\n      0x60\n      dup2\n      mstore\n      0x20\n      add\n      iszero(iszero(0x00))\n      dup2\n      mstore\n      0x20\n      add\n      0x00\n      dup2\n      mstore\n      0x20\n      add\n      0x00\n      dup2\n      mstore\n      0x20\n      add\n      0x60\n      dup2\n      mstore\n      0x20\n      add\n      0x60\n      dup2\n      mstore\n      pop\n      swap1\n      jump\t// out\n    tag_429:\n      pop\n      dup1\n      sload\n      0x00\n      dup3\n      sstore\n      0x03\n      mul\n      swap1\n      0x00\n      mstore\n      keccak256(0x00, 0x20)\n      swap1\n      dup2\n      add\n      swap1\n      tag_673\n      swap2\n      swap1\n      tag_674\n      jump\t// in\n    tag_673:\n      pop\n      jump\t// out\n    tag_451:\n      pop\n      dup1\n      sload\n      0x00\n      dup3\n      sstore\n      0x03\n      mul\n      swap1\n      0x00\n      mstore\n      keccak256(0x00, 0x20)\n      swap1\n      dup2\n      add\n      swap1\n      tag_676\n      swap2\n      swap1\n      tag_677\n      jump\t// in\n    tag_676:\n      pop\n      jump\t// out\n    tag_674:\n    tag_678:\n      dup1\n      dup3\n      gt\n      iszero\n      tag_679\n      jumpi\n      0x00\n      dup1\n      dup3\n      add\n      0x00\n      tag_680\n      swap2\n      swap1\n      tag_681\n      jump\t// in\n    tag_680:\n      0x01\n      dup3\n      add\n      0x00\n      tag_682\n      swap2\n      swap1\n      tag_681\n      jump\t// in\n    tag_682:\n      0x02\n      dup3\n      add\n      0x00\n      tag_683\n      swap2\n      swap1\n      tag_681\n      jump\t// in\n    tag_683:\n      pop\n      0x03\n      add\n      jump(tag_678)\n    tag_679:\n      pop\n      swap1\n      jump\t// out\n    tag_677:\n    tag_684:\n      dup1\n      dup3\n      gt\n      iszero\n      tag_685\n      jumpi\n      0x00\n      dup1\n      dup3\n      add\n      0x00\n      tag_686\n      swap2\n      swap1\n      tag_681\n      jump\t// in\n    tag_686:\n      0x01\n      dup3\n      add\n      0x00\n      tag_687\n      swap2\n      swap1\n      tag_681\n      jump\t// in\n    tag_687:\n      0x02\n      dup3\n      add\n      0x00\n      tag_688\n      swap2\n      swap1\n      tag_681\n      jump\t// in\n    tag_688:\n      pop\n      0x03\n      add\n      jump(tag_684)\n    tag_685:\n      pop\n      swap1\n      jump\t// out\n    tag_681:\n      pop\n      dup1\n      sload\n      tag_689\n      swap1\n      tag_90\n      jump\t// in\n    tag_689:\n      0x00\n      dup3\n      sstore\n      dup1\n      0x1f\n      lt\n      tag_691\n      jumpi\n      pop\n      jump(tag_690)\n    tag_691:\n      0x1f\n      add\n      0x20\n      swap1\n      div\n      swap1\n      0x00\n      mstore\n      keccak256(0x00, 0x20)\n      swap1\n      dup2\n      add\n      swap1\n      tag_692\n      swap2\n      swap1\n      tag_693\n      jump\t// in\n    tag_692:\n    tag_690:\n      pop\n      jump\t// out\n    tag_693:\n    tag_694:\n      dup1\n      dup3\n      gt\n      iszero\n      tag_695\n      jumpi\n      0x00\n      dup2\n      0x00\n      swap1\n      sstore\n      pop\n      0x01\n      add\n      jump(tag_694)\n    tag_695:\n      pop\n      swap1\n      jump\t// out\n        /* \"#utility.yul\":7:82   */\n    tag_696:\n        /* \"#utility.yul\":40:46   */\n      0x00\n        /* \"#utility.yul\":73:75   */\n      0x40\n        /* \"#utility.yul\":67:76   */\n      mload\n        /* \"#utility.yul\":57:76   */\n      swap1\n      pop\n        /* \"#utility.yul\":7:82   */\n      swap1\n      jump\t// out\n        /* \"#utility.yul\":88:205   */\n    tag_697:\n        /* \"#utility.yul\":197:198   */\n      0x00\n        /* \"#utility.yul\":194:195   */\n      dup1\n        /* \"#utility.yul\":187:199   */\n      revert\n        /* \"#utility.yul\":211:328   */\n    tag_698:\n        /* \"#utility.yul\":320:321   */\n      0x00\n        /* \"#utility.yul\":317:318   */\n      dup1\n        /* \"#utility.yul\":310:322   */\n      revert\n        /* \"#utility.yul\":334:411   */\n    tag_699:\n        /* \"#utility.yul\":371:378   */\n      0x00\n        /* \"#utility.yul\":400:405   */\n      dup2\n        /* \"#utility.yul\":389:405   */\n      swap1\n      pop\n        /* \"#utility.yul\":334:411   */\n      swap2\n      swap1\n      pop\n      jump\t// out\n        /* \"#utility.yul\":417:539   */\n    tag_700:\n        /* \"#utility.yul\":490:514   */\n      tag_795\n        /* \"#utility.yul\":508:513   */\n      dup2\n        /* \"#utility.yul\":490:514   */\n      tag_699\n      jump\t// in\n    tag_795:\n        /* \"#utility.yul\":483:488   */\n      dup2\n        /* \"#utility.yul\":480:515   */\n      eq\n        /* \"#utility.yul\":470:533   */\n      tag_796\n      jumpi\n        /* \"#utility.yul\":529:530   */\n      0x00\n        /* \"#utility.yul\":526:527   */\n      dup1\n        /* \"#utility.yul\":519:531   */\n      revert\n        /* \"#utility.yul\":470:533   */\n    tag_796:\n        /* \"#utility.yul\":417:539   */\n      pop\n      jump\t// out\n        /* \"#utility.yul\":545:684   */\n    tag_701:\n        /* \"#utility.yul\":591:596   */\n      0x00\n        /* \"#utility.yul\":629:635   */\n      dup2\n        /* \"#utility.yul\":616:636   */\n      calldataload\n        /* \"#utility.yul\":607:636   */\n      swap1\n      pop\n        /* \"#utility.yul\":645:678   */\n      tag_798\n        /* \"#utility.yul\":672:677   */\n      dup2\n        /* \"#utility.yul\":645:678   */\n      tag_700\n      jump\t// in\n    tag_798:\n        /* \"#utility.yul\":545:684   */\n      swap3\n      swap2\n      pop\n      pop\n      jump\t// out\n        /* \"#utility.yul\":690:1019   */\n    tag_24:\n        /* \"#utility.yul\":749:755   */\n      0x00\n        /* \"#utility.yul\":798:800   */\n      0x20\n        /* \"#utility.yul\":786:795   */\n      dup3\n        /* \"#utility.yul\":777:784   */\n      dup5\n        /* \"#utility.yul\":773:796   */\n      sub\n        /* \"#utility.yul\":769:801   */\n      slt\n        /* \"#utility.yul\":766:885   */\n      iszero\n      tag_800\n      jumpi\n        /* \"#utility.yul\":804:883   */\n      tag_801\n      tag_697\n      jump\t// in\n    tag_801:\n        /* \"#utility.yul\":766:885   */\n    tag_800:\n        /* \"#utility.yul\":924:925   */\n      0x00\n        /* \"#utility.yul\":949:1002   */\n      tag_802\n        /* \"#utility.yul\":994:1001   */\n      dup5\n        /* \"#utility.yul\":985:991   */\n      dup3\n        /* \"#utility.yul\":974:983   */\n      dup6\n        /* \"#utility.yul\":970:992   */\n      add\n        /* \"#utility.yul\":949:1002   */\n      tag_701\n      jump\t// in\n    tag_802:\n        /* \"#utility.yul\":939:1002   */\n      swap2\n      pop\n        /* \"#utility.yul\":895:1012   */\n      pop\n        /* \"#utility.yul\":690:1019   */\n      swap3\n      swap2\n      pop\n      pop\n      jump\t// out\n        /* \"#utility.yul\":1025:1124   */\n    tag_702:\n        /* \"#utility.yul\":1077:1083   */\n      0x00\n        /* \"#utility.yul\":1111:1116   */\n      dup2\n        /* \"#utility.yul\":1105:1117   */\n      mload\n        /* \"#utility.yul\":1095:1117   */\n      swap1\n      pop\n        /* \"#utility.yul\":1025:1124   */\n      swap2\n      swap1\n      pop\n      jump\t// out\n        /* \"#utility.yul\":1130:1299   */\n    tag_703:\n        /* \"#utility.yul\":1214:1225   */\n      0x00\n        /* \"#utility.yul\":1248:1254   */\n      dup3\n        /* \"#utility.yul\":1243:1246   */\n      dup3\n        /* \"#utility.yul\":1236:1255   */\n      mstore\n        /* \"#utility.yul\":1288:1292   */\n      0x20\n        /* \"#utility.yul\":1283:1286   */\n      dup3\n        /* \"#utility.yul\":1279:1293   */\n      add\n        /* \"#utility.yul\":1264:1293   */\n      swap1\n      pop\n        /* \"#utility.yul\":1130:1299   */\n      swap3\n      swap2\n      pop\n      pop\n      jump\t// out\n        /* \"#utility.yul\":1305:1551   */\n    tag_704:\n        /* \"#utility.yul\":1386:1387   */\n      0x00\n        /* \"#utility.yul\":1396:1509   */\n    tag_806:\n        /* \"#utility.yul\":1410:1416   */\n      dup4\n        /* \"#utility.yul\":1407:1408   */\n      dup2\n        /* \"#utility.yul\":1404:1417   */\n      lt\n        /* \"#utility.yul\":1396:1509   */\n      iszero\n      tag_808\n      jumpi\n        /* \"#utility.yul\":1495:1496   */\n      dup1\n        /* \"#utility.yul\":1490:1493   */\n      dup3\n        /* \"#utility.yul\":1486:1497   */\n      add\n        /* \"#utility.yul\":1480:1498   */\n      mload\n        /* \"#utility.yul\":1476:1477   */\n      dup2\n        /* \"#utility.yul\":1471:1474   */\n      dup5\n        /* \"#utility.yul\":1467:1478   */\n      add\n        /* \"#utility.yul\":1460:1499   */\n      mstore\n        /* \"#utility.yul\":1432:1434   */\n      0x20\n        /* \"#utility.yul\":1429:1430   */\n      dup2\n        /* \"#utility.yul\":1425:1435   */\n      add\n        /* \"#utility.yul\":1420:1435   */\n      swap1\n      pop\n        /* \"#utility.yul\":1396:1509   */\n      jump(tag_806)\n    tag_808:\n        /* \"#utility.yul\":1543:1544   */\n      0x00\n        /* \"#utility.yul\":1534:1540   */\n      dup5\n        /* \"#utility.yul\":1529:1532   */\n      dup5\n        /* \"#utility.yul\":1525:1541   */\n      add\n        /* \"#utility.yul\":1518:1545   */\n      mstore\n        /* \"#utility.yul\":1367:1551   */\n      pop\n        /* \"#utility.yul\":1305:1551   */\n      pop\n      pop\n      pop\n      jump\t// out\n        /* \"#utility.yul\":1557:1659   */\n    tag_705:\n        /* \"#utility.yul\":1598:1604   */\n      0x00\n        /* \"#utility.yul\":1649:1651   */\n      0x1f\n        /* \"#utility.yul\":1645:1652   */\n      not\n        /* \"#utility.yul\":1640:1642   */\n      0x1f\n        /* \"#utility.yul\":1633:1638   */\n      dup4\n        /* \"#utility.yul\":1629:1643   */\n      add\n        /* \"#utility.yul\":1625:1653   */\n      and\n        /* \"#utility.yul\":1615:1653   */\n      swap1\n      pop\n        /* \"#utility.yul\":1557:1659   */\n      swap2\n      swap1\n      pop\n      jump\t// out\n        /* \"#utility.yul\":1665:2042   */\n    tag_706:\n        /* \"#utility.yul\":1753:1756   */\n      0x00\n        /* \"#utility.yul\":1781:1820   */\n      tag_811\n        /* \"#utility.yul\":1814:1819   */\n      dup3\n        /* \"#utility.yul\":1781:1820   */\n      tag_702\n      jump\t// in\n    tag_811:\n        /* \"#utility.yul\":1836:1907   */\n      tag_812\n        /* \"#utility.yul\":1900:1906   */\n      dup2\n        /* \"#utility.yul\":1895:1898   */\n      dup6\n        /* \"#utility.yul\":1836:1907   */\n      tag_703\n      jump\t// in\n    tag_812:\n        /* \"#utility.yul\":1829:1907   */\n      swap4\n      pop\n        /* \"#utility.yul\":1916:1981   */\n      tag_813\n        /* \"#utility.yul\":1974:1980   */\n      dup2\n        /* \"#utility.yul\":1969:1972   */\n      dup6\n        /* \"#utility.yul\":1962:1966   */\n      0x20\n        /* \"#utility.yul\":1955:1960   */\n      dup7\n        /* \"#utility.yul\":1951:1967   */\n      add\n        /* \"#utility.yul\":1916:1981   */\n      tag_704\n      jump\t// in\n    tag_813:\n        /* \"#utility.yul\":2006:2035   */\n      tag_814\n        /* \"#utility.yul\":2028:2034   */\n      dup2\n        /* \"#utility.yul\":2006:2035   */\n      tag_705\n      jump\t// in\n    tag_814:\n        /* \"#utility.yul\":2001:2004   */\n      dup5\n        /* \"#utility.yul\":1997:2036   */\n      add\n        /* \"#utility.yul\":1990:2036   */\n      swap2\n      pop\n        /* \"#utility.yul\":1757:2042   */\n      pop\n        /* \"#utility.yul\":1665:2042   */\n      swap3\n      swap2\n      pop\n      pop\n      jump\t// out\n        /* \"#utility.yul\":2048:2763   */\n    tag_27:\n        /* \"#utility.yul\":2257:2261   */\n      0x00\n        /* \"#utility.yul\":2295:2297   */\n      0x60\n        /* \"#utility.yul\":2284:2293   */\n      dup3\n        /* \"#utility.yul\":2280:2298   */\n      add\n        /* \"#utility.yul\":2272:2298   */\n      swap1\n      pop\n        /* \"#utility.yul\":2344:2353   */\n      dup2\n        /* \"#utility.yul\":2338:2342   */\n      dup2\n        /* \"#utility.yul\":2334:2354   */\n      sub\n        /* \"#utility.yul\":2330:2331   */\n      0x00\n        /* \"#utility.yul\":2319:2328   */\n      dup4\n        /* \"#utility.yul\":2315:2332   */\n      add\n        /* \"#utility.yul\":2308:2355   */\n      mstore\n        /* \"#utility.yul\":2372:2450   */\n      tag_816\n        /* \"#utility.yul\":2445:2449   */\n      dup2\n        /* \"#utility.yul\":2436:2442   */\n      dup7\n        /* \"#utility.yul\":2372:2450   */\n      tag_706\n      jump\t// in\n    tag_816:\n        /* \"#utility.yul\":2364:2450   */\n      swap1\n      pop\n        /* \"#utility.yul\":2497:2506   */\n      dup2\n        /* \"#utility.yul\":2491:2495   */\n      dup2\n        /* \"#utility.yul\":2487:2507   */\n      sub\n        /* \"#utility.yul\":2482:2484   */\n      0x20\n        /* \"#utility.yul\":2471:2480   */\n      dup4\n        /* \"#utility.yul\":2467:2485   */\n      add\n        /* \"#utility.yul\":2460:2508   */\n      mstore\n        /* \"#utility.yul\":2525:2603   */\n      tag_817\n        /* \"#utility.yul\":2598:2602   */\n      dup2\n        /* \"#utility.yul\":2589:2595   */\n      dup6\n        /* \"#utility.yul\":2525:2603   */\n      tag_706\n      jump\t// in\n    tag_817:\n        /* \"#utility.yul\":2517:2603   */\n      swap1\n      pop\n        /* \"#utility.yul\":2650:2659   */\n      dup2\n        /* \"#utility.yul\":2644:2648   */\n      dup2\n        /* \"#utility.yul\":2640:2660   */\n      sub\n        /* \"#utility.yul\":2635:2637   */\n      0x40\n        /* \"#utility.yul\":2624:2633   */\n      dup4\n        /* \"#utility.yul\":2620:2638   */\n      add\n        /* \"#utility.yul\":2613:2661   */\n      mstore\n        /* \"#utility.yul\":2678:2756   */\n      tag_818\n        /* \"#utility.yul\":2751:2755   */\n      dup2\n        /* \"#utility.yul\":2742:2748   */\n      dup5\n        /* \"#utility.yul\":2678:2756   */\n      tag_706\n      jump\t// in\n    tag_818:\n        /* \"#utility.yul\":2670:2756   */\n      swap1\n      pop\n        /* \"#utility.yul\":2048:2763   */\n      swap5\n      swap4\n      pop\n      pop\n      pop\n      pop\n      jump\t// out\n        /* \"#utility.yul\":2769:2908   */\n    tag_707:\n        /* \"#utility.yul\":2861:2867   */\n      0x00\n        /* \"#utility.yul\":2895:2900   */\n      dup2\n        /* \"#utility.yul\":2889:2901   */\n      mload\n        /* \"#utility.yul\":2879:2901   */\n      swap1\n      pop\n        /* \"#utility.yul\":2769:2908   */\n      swap2\n      swap1\n      pop\n      jump\t// out\n        /* \"#utility.yul\":2914:3123   */\n    tag_708:\n        /* \"#utility.yul\":3038:3049   */\n      0x00\n        /* \"#utility.yul\":3072:3078   */\n      dup3\n        /* \"#utility.yul\":3067:3070   */\n      dup3\n        /* \"#utility.yul\":3060:3079   */\n      mstore\n        /* \"#utility.yul\":3112:3116   */\n      0x20\n        /* \"#utility.yul\":3107:3110   */\n      dup3\n        /* \"#utility.yul\":3103:3117   */\n      add\n        /* \"#utility.yul\":3088:3117   */\n      swap1\n      pop\n        /* \"#utility.yul\":2914:3123   */\n      swap3\n      swap2\n      pop\n      pop\n      jump\t// out\n        /* \"#utility.yul\":3129:3286   */\n    tag_709:\n        /* \"#utility.yul\":3221:3225   */\n      0x00\n        /* \"#utility.yul\":3244:3247   */\n      dup2\n        /* \"#utility.yul\":3236:3247   */\n      swap1\n      pop\n        /* \"#utility.yul\":3274:3278   */\n      0x20\n        /* \"#utility.yul\":3269:3272   */\n      dup3\n        /* \"#utility.yul\":3265:3279   */\n      add\n        /* \"#utility.yul\":3257:3279   */\n      swap1\n      pop\n        /* \"#utility.yul\":3129:3286   */\n      swap2\n      swap1\n      pop\n      jump\t// out\n        /* \"#utility.yul\":3292:3451   */\n    tag_710:\n        /* \"#utility.yul\":3366:3377   */\n      0x00\n        /* \"#utility.yul\":3400:3406   */\n      dup3\n        /* \"#utility.yul\":3395:3398   */\n      dup3\n        /* \"#utility.yul\":3388:3407   */\n      mstore\n        /* \"#utility.yul\":3440:3444   */\n      0x20\n        /* \"#utility.yul\":3435:3438   */\n      dup3\n        /* \"#utility.yul\":3431:3445   */\n      add\n        /* \"#utility.yul\":3416:3445   */\n      swap1\n      pop\n        /* \"#utility.yul\":3292:3451   */\n      swap3\n      swap2\n      pop\n      pop\n      jump\t// out\n        /* \"#utility.yul\":3457:3814   */\n    tag_711:\n        /* \"#utility.yul\":3535:3538   */\n      0x00\n        /* \"#utility.yul\":3563:3602   */\n      tag_824\n        /* \"#utility.yul\":3596:3601   */\n      dup3\n        /* \"#utility.yul\":3563:3602   */\n      tag_702\n      jump\t// in\n    tag_824:\n        /* \"#utility.yul\":3618:3679   */\n      tag_825\n        /* \"#utility.yul\":3672:3678   */\n      dup2\n        /* \"#utility.yul\":3667:3670   */\n      dup6\n        /* \"#utility.yul\":3618:3679   */\n      tag_710\n      jump\t// in\n    tag_825:\n        /* \"#utility.yul\":3611:3679   */\n      swap4\n      pop\n        /* \"#utility.yul\":3688:3753   */\n      tag_826\n        /* \"#utility.yul\":3746:3752   */\n      dup2\n        /* \"#utility.yul\":3741:3744   */\n      dup6\n        /* \"#utility.yul\":3734:3738   */\n      0x20\n        /* \"#utility.yul\":3727:3732   */\n      dup7\n        /* \"#utility.yul\":3723:3739   */\n      add\n        /* \"#utility.yul\":3688:3753   */\n      tag_704\n      jump\t// in\n    tag_826:\n        /* \"#utility.yul\":3778:3807   */\n      tag_827\n        /* \"#utility.yul\":3800:3806   */\n      dup2\n        /* \"#utility.yul\":3778:3807   */\n      tag_705\n      jump\t// in\n    tag_827:\n        /* \"#utility.yul\":3773:3776   */\n      dup5\n        /* \"#utility.yul\":3769:3808   */\n      add\n        /* \"#utility.yul\":3762:3808   */\n      swap2\n      pop\n        /* \"#utility.yul\":3539:3814   */\n      pop\n        /* \"#utility.yul\":3457:3814   */\n      swap3\n      swap2\n      pop\n      pop\n      jump\t// out\n        /* \"#utility.yul\":3820:3958   */\n    tag_712:\n        /* \"#utility.yul\":3911:3917   */\n      0x00\n        /* \"#utility.yul\":3945:3950   */\n      dup2\n        /* \"#utility.yul\":3939:3951   */\n      mload\n        /* \"#utility.yul\":3929:3951   */\n      swap1\n      pop\n        /* \"#utility.yul\":3820:3958   */\n      swap2\n      swap1\n      pop\n      jump\t// out\n        /* \"#utility.yul\":3964:4162   */\n    tag_713:\n        /* \"#utility.yul\":4077:4088   */\n      0x00\n        /* \"#utility.yul\":4111:4117   */\n      dup3\n        /* \"#utility.yul\":4106:4109   */\n      dup3\n        /* \"#utility.yul\":4099:4118   */\n      mstore\n        /* \"#utility.yul\":4151:4155   */\n      0x20\n        /* \"#utility.yul\":4146:4149   */\n      dup3\n        /* \"#utility.yul\":4142:4156   */\n      add\n        /* \"#utility.yul\":4127:4156   */\n      swap1\n      pop\n        /* \"#utility.yul\":3964:4162   */\n      swap3\n      swap2\n      pop\n      pop\n      jump\t// out\n        /* \"#utility.yul\":4168:4324   */\n    tag_714:\n        /* \"#utility.yul\":4259:4263   */\n      0x00\n        /* \"#utility.yul\":4282:4285   */\n      dup2\n        /* \"#utility.yul\":4274:4285   */\n      swap1\n      pop\n        /* \"#utility.yul\":4312:4316   */\n      0x20\n        /* \"#utility.yul\":4307:4310   */\n      dup3\n        /* \"#utility.yul\":4303:4317   */\n      add\n        /* \"#utility.yul\":4295:4317   */\n      swap1\n      pop\n        /* \"#utility.yul\":4168:4324   */\n      swap2\n      swap1\n      pop\n      jump\t// out\n        /* \"#utility.yul\":4374:5305   */\n    tag_715:\n        /* \"#utility.yul\":4481:4484   */\n      0x00\n        /* \"#utility.yul\":4517:4521   */\n      0x60\n        /* \"#utility.yul\":4512:4515   */\n      dup4\n        /* \"#utility.yul\":4508:4522   */\n      add\n        /* \"#utility.yul\":4608:4612   */\n      0x00\n        /* \"#utility.yul\":4601:4606   */\n      dup4\n        /* \"#utility.yul\":4597:4613   */\n      add\n        /* \"#utility.yul\":4591:4614   */\n      mload\n        /* \"#utility.yul\":4661:4664   */\n      dup5\n        /* \"#utility.yul\":4655:4659   */\n      dup3\n        /* \"#utility.yul\":4651:4665   */\n      sub\n        /* \"#utility.yul\":4644:4648   */\n      0x00\n        /* \"#utility.yul\":4639:4642   */\n      dup7\n        /* \"#utility.yul\":4635:4649   */\n      add\n        /* \"#utility.yul\":4628:4666   */\n      mstore\n        /* \"#utility.yul\":4687:4760   */\n      tag_832\n        /* \"#utility.yul\":4755:4759   */\n      dup3\n        /* \"#utility.yul\":4741:4753   */\n      dup3\n        /* \"#utility.yul\":4687:4760   */\n      tag_711\n      jump\t// in\n    tag_832:\n        /* \"#utility.yul\":4679:4760   */\n      swap2\n      pop\n        /* \"#utility.yul\":4532:4771   */\n      pop\n        /* \"#utility.yul\":4863:4867   */\n      0x20\n        /* \"#utility.yul\":4856:4861   */\n      dup4\n        /* \"#utility.yul\":4852:4868   */\n      add\n        /* \"#utility.yul\":4846:4869   */\n      mload\n        /* \"#utility.yul\":4916:4919   */\n      dup5\n        /* \"#utility.yul\":4910:4914   */\n      dup3\n        /* \"#utility.yul\":4906:4920   */\n      sub\n        /* \"#utility.yul\":4899:4903   */\n      0x20\n        /* \"#utility.yul\":4894:4897   */\n      dup7\n        /* \"#utility.yul\":4890:4904   */\n      add\n        /* \"#utility.yul\":4883:4921   */\n      mstore\n        /* \"#utility.yul\":4942:5015   */\n      tag_833\n        /* \"#utility.yul\":5010:5014   */\n      dup3\n        /* \"#utility.yul\":4996:5008   */\n      dup3\n        /* \"#utility.yul\":4942:5015   */\n      tag_711\n      jump\t// in\n    tag_833:\n        /* \"#utility.yul\":4934:5015   */\n      swap2\n      pop\n        /* \"#utility.yul\":4781:5026   */\n      pop\n        /* \"#utility.yul\":5115:5119   */\n      0x40\n        /* \"#utility.yul\":5108:5113   */\n      dup4\n        /* \"#utility.yul\":5104:5120   */\n      add\n        /* \"#utility.yul\":5098:5121   */\n      mload\n        /* \"#utility.yul\":5168:5171   */\n      dup5\n        /* \"#utility.yul\":5162:5166   */\n      dup3\n        /* \"#utility.yul\":5158:5172   */\n      sub\n        /* \"#utility.yul\":5151:5155   */\n      0x40\n        /* \"#utility.yul\":5146:5149   */\n      dup7\n        /* \"#utility.yul\":5142:5156   */\n      add\n        /* \"#utility.yul\":5135:5173   */\n      mstore\n        /* \"#utility.yul\":5194:5267   */\n      tag_834\n        /* \"#utility.yul\":5262:5266   */\n      dup3\n        /* \"#utility.yul\":5248:5260   */\n      dup3\n        /* \"#utility.yul\":5194:5267   */\n      tag_711\n      jump\t// in\n    tag_834:\n        /* \"#utility.yul\":5186:5267   */\n      swap2\n      pop\n        /* \"#utility.yul\":5036:5278   */\n      pop\n        /* \"#utility.yul\":5295:5299   */\n      dup1\n        /* \"#utility.yul\":5288:5299   */\n      swap2\n      pop\n        /* \"#utility.yul\":4486:5305   */\n      pop\n        /* \"#utility.yul\":4374:5305   */\n      swap3\n      swap2\n      pop\n      pop\n      jump\t// out\n        /* \"#utility.yul\":5311:5563   */\n    tag_716:\n        /* \"#utility.yul\":5428:5438   */\n      0x00\n        /* \"#utility.yul\":5463:5557   */\n      tag_836\n        /* \"#utility.yul\":5553:5556   */\n      dup4\n        /* \"#utility.yul\":5545:5551   */\n      dup4\n        /* \"#utility.yul\":5463:5557   */\n      tag_715\n      jump\t// in\n    tag_836:\n        /* \"#utility.yul\":5449:5557   */\n      swap1\n      pop\n        /* \"#utility.yul\":5311:5563   */\n      swap3\n      swap2\n      pop\n      pop\n      jump\t// out\n        /* \"#utility.yul\":5569:5706   */\n    tag_717:\n        /* \"#utility.yul\":5663:5667   */\n      0x00\n        /* \"#utility.yul\":5695:5699   */\n      0x20\n        /* \"#utility.yul\":5690:5693   */\n      dup3\n        /* \"#utility.yul\":5686:5700   */\n      add\n        /* \"#utility.yul\":5678:5700   */\n      swap1\n      pop\n        /* \"#utility.yul\":5569:5706   */\n      swap2\n      swap1\n      pop\n      jump\t// out\n        /* \"#utility.yul\":5760:6843   */\n    tag_718:\n        /* \"#utility.yul\":5917:5920   */\n      0x00\n        /* \"#utility.yul\":5946:6024   */\n      tag_839\n        /* \"#utility.yul\":6018:6023   */\n      dup3\n        /* \"#utility.yul\":5946:6024   */\n      tag_712\n      jump\t// in\n    tag_839:\n        /* \"#utility.yul\":6040:6140   */\n      tag_840\n        /* \"#utility.yul\":6133:6139   */\n      dup2\n        /* \"#utility.yul\":6128:6131   */\n      dup6\n        /* \"#utility.yul\":6040:6140   */\n      tag_713\n      jump\t// in\n    tag_840:\n        /* \"#utility.yul\":6033:6140   */\n      swap4\n      pop\n        /* \"#utility.yul\":6166:6169   */\n      dup4\n        /* \"#utility.yul\":6211:6215   */\n      0x20\n        /* \"#utility.yul\":6203:6209   */\n      dup3\n        /* \"#utility.yul\":6199:6216   */\n      mul\n        /* \"#utility.yul\":6194:6197   */\n      dup6\n        /* \"#utility.yul\":6190:6217   */\n      add\n        /* \"#utility.yul\":6241:6321   */\n      tag_841\n        /* \"#utility.yul\":6315:6320   */\n      dup6\n        /* \"#utility.yul\":6241:6321   */\n      tag_714\n      jump\t// in\n    tag_841:\n        /* \"#utility.yul\":6344:6351   */\n      dup1\n        /* \"#utility.yul\":6375:6376   */\n      0x00\n        /* \"#utility.yul\":6360:6798   */\n    tag_842:\n        /* \"#utility.yul\":6385:6391   */\n      dup6\n        /* \"#utility.yul\":6382:6383   */\n      dup2\n        /* \"#utility.yul\":6379:6392   */\n      lt\n        /* \"#utility.yul\":6360:6798   */\n      iszero\n      tag_844\n      jumpi\n        /* \"#utility.yul\":6456:6465   */\n      dup5\n        /* \"#utility.yul\":6450:6454   */\n      dup5\n        /* \"#utility.yul\":6446:6466   */\n      sub\n        /* \"#utility.yul\":6441:6444   */\n      dup10\n        /* \"#utility.yul\":6434:6467   */\n      mstore\n        /* \"#utility.yul\":6507:6513   */\n      dup2\n        /* \"#utility.yul\":6501:6514   */\n      mload\n        /* \"#utility.yul\":6535:6647   */\n      tag_845\n        /* \"#utility.yul\":6642:6646   */\n      dup6\n        /* \"#utility.yul\":6627:6640   */\n      dup3\n        /* \"#utility.yul\":6535:6647   */\n      tag_716\n      jump\t// in\n    tag_845:\n        /* \"#utility.yul\":6527:6647   */\n      swap5\n      pop\n        /* \"#utility.yul\":6670:6754   */\n      tag_846\n        /* \"#utility.yul\":6747:6753   */\n      dup4\n        /* \"#utility.yul\":6670:6754   */\n      tag_717\n      jump\t// in\n    tag_846:\n        /* \"#utility.yul\":6660:6754   */\n      swap3\n      pop\n        /* \"#utility.yul\":6783:6787   */\n      0x20\n        /* \"#utility.yul\":6778:6781   */\n      dup11\n        /* \"#utility.yul\":6774:6788   */\n      add\n        /* \"#utility.yul\":6767:6788   */\n      swap10\n      pop\n        /* \"#utility.yul\":6420:6798   */\n      pop\n        /* \"#utility.yul\":6407:6408   */\n      0x01\n        /* \"#utility.yul\":6404:6405   */\n      dup2\n        /* \"#utility.yul\":6400:6409   */\n      add\n        /* \"#utility.yul\":6395:6409   */\n      swap1\n      pop\n        /* \"#utility.yul\":6360:6798   */\n      jump(tag_842)\n    tag_844:\n        /* \"#utility.yul\":6364:6378   */\n      pop\n        /* \"#utility.yul\":6814:6818   */\n      dup3\n        /* \"#utility.yul\":6807:6818   */\n      swap8\n      pop\n        /* \"#utility.yul\":6834:6837   */\n      dup8\n        /* \"#utility.yul\":6827:6837   */\n      swap6\n      pop\n        /* \"#utility.yul\":5922:6843   */\n      pop\n      pop\n      pop\n      pop\n      pop\n        /* \"#utility.yul\":5760:6843   */\n      swap3\n      swap2\n      pop\n      pop\n      jump\t// out\n        /* \"#utility.yul\":6849:6992   */\n    tag_719:\n        /* \"#utility.yul\":6945:6951   */\n      0x00\n        /* \"#utility.yul\":6979:6984   */\n      dup2\n        /* \"#utility.yul\":6973:6985   */\n      mload\n        /* \"#utility.yul\":6963:6985   */\n      swap1\n      pop\n        /* \"#utility.yul\":6849:6992   */\n      swap2\n      swap1\n      pop\n      jump\t// out\n        /* \"#utility.yul\":6998:7201   */\n    tag_720:\n        /* \"#utility.yul\":7116:7127   */\n      0x00\n        /* \"#utility.yul\":7150:7156   */\n      dup3\n        /* \"#utility.yul\":7145:7148   */\n      dup3\n        /* \"#utility.yul\":7138:7157   */\n      mstore\n        /* \"#utility.yul\":7190:7194   */\n      0x20\n        /* \"#utility.yul\":7185:7188   */\n      dup3\n        /* \"#utility.yul\":7181:7195   */\n      add\n        /* \"#utility.yul\":7166:7195   */\n      swap1\n      pop\n        /* \"#utility.yul\":6998:7201   */\n      swap3\n      swap2\n      pop\n      pop\n      jump\t// out\n        /* \"#utility.yul\":7207:7368   */\n    tag_721:\n        /* \"#utility.yul\":7303:7307   */\n      0x00\n        /* \"#utility.yul\":7326:7329   */\n      dup2\n        /* \"#utility.yul\":7318:7329   */\n      swap1\n      pop\n        /* \"#utility.yul\":7356:7360   */\n      0x20\n        /* \"#utility.yul\":7351:7354   */\n      dup3\n        /* \"#utility.yul\":7347:7361   */\n      add\n        /* \"#utility.yul\":7339:7361   */\n      swap1\n      pop\n        /* \"#utility.yul\":7207:7368   */\n      swap2\n      swap1\n      pop\n      jump\t// out\n        /* \"#utility.yul\":7426:8379   */\n    tag_722:\n        /* \"#utility.yul\":7543:7546   */\n      0x00\n        /* \"#utility.yul\":7579:7583   */\n      0x60\n        /* \"#utility.yul\":7574:7577   */\n      dup4\n        /* \"#utility.yul\":7570:7584   */\n      add\n        /* \"#utility.yul\":7674:7678   */\n      0x00\n        /* \"#utility.yul\":7667:7672   */\n      dup4\n        /* \"#utility.yul\":7663:7679   */\n      add\n        /* \"#utility.yul\":7657:7680   */\n      mload\n        /* \"#utility.yul\":7727:7730   */\n      dup5\n        /* \"#utility.yul\":7721:7725   */\n      dup3\n        /* \"#utility.yul\":7717:7731   */\n      sub\n        /* \"#utility.yul\":7710:7714   */\n      0x00\n        /* \"#utility.yul\":7705:7708   */\n      dup7\n        /* \"#utility.yul\":7701:7715   */\n      add\n        /* \"#utility.yul\":7694:7732   */\n      mstore\n        /* \"#utility.yul\":7753:7826   */\n      tag_851\n        /* \"#utility.yul\":7821:7825   */\n      dup3\n        /* \"#utility.yul\":7807:7819   */\n      dup3\n        /* \"#utility.yul\":7753:7826   */\n      tag_711\n      jump\t// in\n    tag_851:\n        /* \"#utility.yul\":7745:7826   */\n      swap2\n      pop\n        /* \"#utility.yul\":7594:7837   */\n      pop\n        /* \"#utility.yul\":7933:7937   */\n      0x20\n        /* \"#utility.yul\":7926:7931   */\n      dup4\n        /* \"#utility.yul\":7922:7938   */\n      add\n        /* \"#utility.yul\":7916:7939   */\n      mload\n        /* \"#utility.yul\":7986:7989   */\n      dup5\n        /* \"#utility.yul\":7980:7984   */\n      dup3\n        /* \"#utility.yul\":7976:7990   */\n      sub\n        /* \"#utility.yul\":7969:7973   */\n      0x20\n        /* \"#utility.yul\":7964:7967   */\n      dup7\n        /* \"#utility.yul\":7960:7974   */\n      add\n        /* \"#utility.yul\":7953:7991   */\n      mstore\n        /* \"#utility.yul\":8012:8085   */\n      tag_852\n        /* \"#utility.yul\":8080:8084   */\n      dup3\n        /* \"#utility.yul\":8066:8078   */\n      dup3\n        /* \"#utility.yul\":8012:8085   */\n      tag_711\n      jump\t// in\n    tag_852:\n        /* \"#utility.yul\":8004:8085   */\n      swap2\n      pop\n        /* \"#utility.yul\":7847:8096   */\n      pop\n        /* \"#utility.yul\":8189:8193   */\n      0x40\n        /* \"#utility.yul\":8182:8187   */\n      dup4\n        /* \"#utility.yul\":8178:8194   */\n      add\n        /* \"#utility.yul\":8172:8195   */\n      mload\n        /* \"#utility.yul\":8242:8245   */\n      dup5\n        /* \"#utility.yul\":8236:8240   */\n      dup3\n        /* \"#utility.yul\":8232:8246   */\n      sub\n        /* \"#utility.yul\":8225:8229   */\n      0x40\n        /* \"#utility.yul\":8220:8223   */\n      dup7\n        /* \"#utility.yul\":8216:8230   */\n      add\n        /* \"#utility.yul\":8209:8247   */\n      mstore\n        /* \"#utility.yul\":8268:8341   */\n      tag_853\n        /* \"#utility.yul\":8336:8340   */\n      dup3\n        /* \"#utility.yul\":8322:8334   */\n      dup3\n        /* \"#utility.yul\":8268:8341   */\n      tag_711\n      jump\t// in\n    tag_853:\n        /* \"#utility.yul\":8260:8341   */\n      swap2\n      pop\n        /* \"#utility.yul\":8106:8352   */\n      pop\n        /* \"#utility.yul\":8369:8373   */\n      dup1\n        /* \"#utility.yul\":8362:8373   */\n      swap2\n      pop\n        /* \"#utility.yul\":7548:8379   */\n      pop\n        /* \"#utility.yul\":7426:8379   */\n      swap3\n      swap2\n      pop\n      pop\n      jump\t// out\n        /* \"#utility.yul\":8385:8657   */\n    tag_723:\n        /* \"#utility.yul\":8512:8522   */\n      0x00\n        /* \"#utility.yul\":8547:8651   */\n      tag_855\n        /* \"#utility.yul\":8647:8650   */\n      dup4\n        /* \"#utility.yul\":8639:8645   */\n      dup4\n        /* \"#utility.yul\":8547:8651   */\n      tag_722\n      jump\t// in\n    tag_855:\n        /* \"#utility.yul\":8533:8651   */\n      swap1\n      pop\n        /* \"#utility.yul\":8385:8657   */\n      swap3\n      swap2\n      pop\n      pop\n      jump\t// out\n        /* \"#utility.yul\":8663:8805   */\n    tag_724:\n        /* \"#utility.yul\":8762:8766   */\n      0x00\n        /* \"#utility.yul\":8794:8798   */\n      0x20\n        /* \"#utility.yul\":8789:8792   */\n      dup3\n        /* \"#utility.yul\":8785:8799   */\n      add\n        /* \"#utility.yul\":8777:8799   */\n      swap1\n      pop\n        /* \"#utility.yul\":8663:8805   */\n      swap2\n      swap1\n      pop\n      jump\t// out\n        /* \"#utility.yul\":8867:9990   */\n    tag_725:\n        /* \"#utility.yul\":9034:9037   */\n      0x00\n        /* \"#utility.yul\":9063:9146   */\n      tag_858\n        /* \"#utility.yul\":9140:9145   */\n      dup3\n        /* \"#utility.yul\":9063:9146   */\n      tag_719\n      jump\t// in\n    tag_858:\n        /* \"#utility.yul\":9162:9267   */\n      tag_859\n        /* \"#utility.yul\":9260:9266   */\n      dup2\n        /* \"#utility.yul\":9255:9258   */\n      dup6\n        /* \"#utility.yul\":9162:9267   */\n      tag_720\n      jump\t// in\n    tag_859:\n        /* \"#utility.yul\":9155:9267   */\n      swap4\n      pop\n        /* \"#utility.yul\":9293:9296   */\n      dup4\n        /* \"#utility.yul\":9338:9342   */\n      0x20\n        /* \"#utility.yul\":9330:9336   */\n      dup3\n        /* \"#utility.yul\":9326:9343   */\n      mul\n        /* \"#utility.yul\":9321:9324   */\n      dup6\n        /* \"#utility.yul\":9317:9344   */\n      add\n        /* \"#utility.yul\":9368:9453   */\n      tag_860\n        /* \"#utility.yul\":9447:9452   */\n      dup6\n        /* \"#utility.yul\":9368:9453   */\n      tag_721\n      jump\t// in\n    tag_860:\n        /* \"#utility.yul\":9476:9483   */\n      dup1\n        /* \"#utility.yul\":9507:9508   */\n      0x00\n        /* \"#utility.yul\":9492:9945   */\n    tag_861:\n        /* \"#utility.yul\":9517:9523   */\n      dup6\n        /* \"#utility.yul\":9514:9515   */\n      dup2\n        /* \"#utility.yul\":9511:9524   */\n      lt\n        /* \"#utility.yul\":9492:9945   */\n      iszero\n      tag_863\n      jumpi\n        /* \"#utility.yul\":9588:9597   */\n      dup5\n        /* \"#utility.yul\":9582:9586   */\n      dup5\n        /* \"#utility.yul\":9578:9598   */\n      sub\n        /* \"#utility.yul\":9573:9576   */\n      dup10\n        /* \"#utility.yul\":9566:9599   */\n      mstore\n        /* \"#utility.yul\":9639:9645   */\n      dup2\n        /* \"#utility.yul\":9633:9646   */\n      mload\n        /* \"#utility.yul\":9667:9789   */\n      tag_864\n        /* \"#utility.yul\":9784:9788   */\n      dup6\n        /* \"#utility.yul\":9769:9782   */\n      dup3\n        /* \"#utility.yul\":9667:9789   */\n      tag_723\n      jump\t// in\n    tag_864:\n        /* \"#utility.yul\":9659:9789   */\n      swap5\n      pop\n        /* \"#utility.yul\":9812:9901   */\n      tag_865\n        /* \"#utility.yul\":9894:9900   */\n      dup4\n        /* \"#utility.yul\":9812:9901   */\n      tag_724\n      jump\t// in\n    tag_865:\n        /* \"#utility.yul\":9802:9901   */\n      swap3\n      pop\n        /* \"#utility.yul\":9930:9934   */\n      0x20\n        /* \"#utility.yul\":9925:9928   */\n      dup11\n        /* \"#utility.yul\":9921:9935   */\n      add\n        /* \"#utility.yul\":9914:9935   */\n      swap10\n      pop\n        /* \"#utility.yul\":9552:9945   */\n      pop\n        /* \"#utility.yul\":9539:9540   */\n      0x01\n        /* \"#utility.yul\":9536:9537   */\n      dup2\n        /* \"#utility.yul\":9532:9541   */\n      add\n        /* \"#utility.yul\":9527:9541   */\n      swap1\n      pop\n        /* \"#utility.yul\":9492:9945   */\n      jump(tag_861)\n    tag_863:\n        /* \"#utility.yul\":9496:9510   */\n      pop\n        /* \"#utility.yul\":9961:9965   */\n      dup3\n        /* \"#utility.yul\":9954:9965   */\n      swap8\n      pop\n        /* \"#utility.yul\":9981:9984   */\n      dup8\n        /* \"#utility.yul\":9974:9984   */\n      swap6\n      pop\n        /* \"#utility.yul\":9039:9990   */\n      pop\n      pop\n      pop\n      pop\n      pop\n        /* \"#utility.yul\":8867:9990   */\n      swap3\n      swap2\n      pop\n      pop\n      jump\t// out\n        /* \"#utility.yul\":9996:10086   */\n    tag_726:\n        /* \"#utility.yul\":10030:10037   */\n      0x00\n        /* \"#utility.yul\":10073:10078   */\n      dup2\n        /* \"#utility.yul\":10066:10079   */\n      iszero\n        /* \"#utility.yul\":10059:10080   */\n      iszero\n        /* \"#utility.yul\":10048:10080   */\n      swap1\n      pop\n        /* \"#utility.yul\":9996:10086   */\n      swap2\n      swap1\n      pop\n      jump\t// out\n        /* \"#utility.yul\":10092:10191   */\n    tag_727:\n        /* \"#utility.yul\":10163:10184   */\n      tag_868\n        /* \"#utility.yul\":10178:10183   */\n      dup2\n        /* \"#utility.yul\":10163:10184   */\n      tag_726\n      jump\t// in\n    tag_868:\n        /* \"#utility.yul\":10158:10161   */\n      dup3\n        /* \"#utility.yul\":10151:10185   */\n      mstore\n        /* \"#utility.yul\":10092:10191   */\n      pop\n      pop\n      jump\t// out\n        /* \"#utility.yul\":10197:10273   */\n    tag_728:\n        /* \"#utility.yul\":10233:10240   */\n      0x00\n        /* \"#utility.yul\":10262:10267   */\n      dup2\n        /* \"#utility.yul\":10251:10267   */\n      swap1\n      pop\n        /* \"#utility.yul\":10197:10273   */\n      swap2\n      swap1\n      pop\n      jump\t// out\n        /* \"#utility.yul\":10279:10384   */\n    tag_729:\n        /* \"#utility.yul\":10354:10377   */\n      tag_871\n        /* \"#utility.yul\":10371:10376   */\n      dup2\n        /* \"#utility.yul\":10354:10377   */\n      tag_728\n      jump\t// in\n    tag_871:\n        /* \"#utility.yul\":10349:10352   */\n      dup3\n        /* \"#utility.yul\":10342:10378   */\n      mstore\n        /* \"#utility.yul\":10279:10384   */\n      pop\n      pop\n      jump\t// out\n        /* \"#utility.yul\":10390:10488   */\n    tag_730:\n        /* \"#utility.yul\":10441:10447   */\n      0x00\n        /* \"#utility.yul\":10475:10480   */\n      dup2\n        /* \"#utility.yul\":10469:10481   */\n      mload\n        /* \"#utility.yul\":10459:10481   */\n      swap1\n      pop\n        /* \"#utility.yul\":10390:10488   */\n      swap2\n      swap1\n      pop\n      jump\t// out\n        /* \"#utility.yul\":10494:10652   */\n    tag_731:\n        /* \"#utility.yul\":10567:10578   */\n      0x00\n        /* \"#utility.yul\":10601:10607   */\n      dup3\n        /* \"#utility.yul\":10596:10599   */\n      dup3\n        /* \"#utility.yul\":10589:10608   */\n      mstore\n        /* \"#utility.yul\":10641:10645   */\n      0x20\n        /* \"#utility.yul\":10636:10639   */\n      dup3\n        /* \"#utility.yul\":10632:10646   */\n      add\n        /* \"#utility.yul\":10617:10646   */\n      swap1\n      pop\n        /* \"#utility.yul\":10494:10652   */\n      swap3\n      swap2\n      pop\n      pop\n      jump\t// out\n        /* \"#utility.yul\":10658:11011   */\n    tag_732:\n        /* \"#utility.yul\":10734:10737   */\n      0x00\n        /* \"#utility.yul\":10762:10800   */\n      tag_875\n        /* \"#utility.yul\":10794:10799   */\n      dup3\n        /* \"#utility.yul\":10762:10800   */\n      tag_730\n      jump\t// in\n    tag_875:\n        /* \"#utility.yul\":10816:10876   */\n      tag_876\n        /* \"#utility.yul\":10869:10875   */\n      dup2\n        /* \"#utility.yul\":10864:10867   */\n      dup6\n        /* \"#utility.yul\":10816:10876   */\n      tag_731\n      jump\t// in\n    tag_876:\n        /* \"#utility.yul\":10809:10876   */\n      swap4\n      pop\n        /* \"#utility.yul\":10885:10950   */\n      tag_877\n        /* \"#utility.yul\":10943:10949   */\n      dup2\n        /* \"#utility.yul\":10938:10941   */\n      dup6\n        /* \"#utility.yul\":10931:10935   */\n      0x20\n        /* \"#utility.yul\":10924:10929   */\n      dup7\n        /* \"#utility.yul\":10920:10936   */\n      add\n        /* \"#utility.yul\":10885:10950   */\n      tag_704\n      jump\t// in\n    tag_877:\n        /* \"#utility.yul\":10975:11004   */\n      tag_878\n        /* \"#utility.yul\":10997:11003   */\n      dup2\n        /* \"#utility.yul\":10975:11004   */\n      tag_705\n      jump\t// in\n    tag_878:\n        /* \"#utility.yul\":10970:10973   */\n      dup5\n        /* \"#utility.yul\":10966:11005   */\n      add\n        /* \"#utility.yul\":10959:11005   */\n      swap2\n      pop\n        /* \"#utility.yul\":10738:11011   */\n      pop\n        /* \"#utility.yul\":10658:11011   */\n      swap3\n      swap2\n      pop\n      pop\n      jump\t// out\n        /* \"#utility.yul\":11061:13945   */\n    tag_733:\n        /* \"#utility.yul\":11170:11173   */\n      0x00\n        /* \"#utility.yul\":11206:11212   */\n      0x0160\n        /* \"#utility.yul\":11201:11204   */\n      dup4\n        /* \"#utility.yul\":11197:11213   */\n      add\n        /* \"#utility.yul\":11303:11307   */\n      0x00\n        /* \"#utility.yul\":11296:11301   */\n      dup4\n        /* \"#utility.yul\":11292:11308   */\n      add\n        /* \"#utility.yul\":11286:11309   */\n      mload\n        /* \"#utility.yul\":11356:11359   */\n      dup5\n        /* \"#utility.yul\":11350:11354   */\n      dup3\n        /* \"#utility.yul\":11346:11360   */\n      sub\n        /* \"#utility.yul\":11339:11343   */\n      0x00\n        /* \"#utility.yul\":11334:11337   */\n      dup7\n        /* \"#utility.yul\":11330:11344   */\n      add\n        /* \"#utility.yul\":11323:11361   */\n      mstore\n        /* \"#utility.yul\":11382:11455   */\n      tag_880\n        /* \"#utility.yul\":11450:11454   */\n      dup3\n        /* \"#utility.yul\":11436:11448   */\n      dup3\n        /* \"#utility.yul\":11382:11455   */\n      tag_711\n      jump\t// in\n    tag_880:\n        /* \"#utility.yul\":11374:11455   */\n      swap2\n      pop\n        /* \"#utility.yul\":11223:11466   */\n      pop\n        /* \"#utility.yul\":11553:11557   */\n      0x20\n        /* \"#utility.yul\":11546:11551   */\n      dup4\n        /* \"#utility.yul\":11542:11558   */\n      add\n        /* \"#utility.yul\":11536:11559   */\n      mload\n        /* \"#utility.yul\":11606:11609   */\n      dup5\n        /* \"#utility.yul\":11600:11604   */\n      dup3\n        /* \"#utility.yul\":11596:11610   */\n      sub\n        /* \"#utility.yul\":11589:11593   */\n      0x20\n        /* \"#utility.yul\":11584:11587   */\n      dup7\n        /* \"#utility.yul\":11580:11594   */\n      add\n        /* \"#utility.yul\":11573:11611   */\n      mstore\n        /* \"#utility.yul\":11632:11705   */\n      tag_881\n        /* \"#utility.yul\":11700:11704   */\n      dup3\n        /* \"#utility.yul\":11686:11698   */\n      dup3\n        /* \"#utility.yul\":11632:11705   */\n      tag_711\n      jump\t// in\n    tag_881:\n        /* \"#utility.yul\":11624:11705   */\n      swap2\n      pop\n        /* \"#utility.yul\":11476:11716   */\n      pop\n        /* \"#utility.yul\":11810:11814   */\n      0x40\n        /* \"#utility.yul\":11803:11808   */\n      dup4\n        /* \"#utility.yul\":11799:11815   */\n      add\n        /* \"#utility.yul\":11793:11816   */\n      mload\n        /* \"#utility.yul\":11863:11866   */\n      dup5\n        /* \"#utility.yul\":11857:11861   */\n      dup3\n        /* \"#utility.yul\":11853:11867   */\n      sub\n        /* \"#utility.yul\":11846:11850   */\n      0x40\n        /* \"#utility.yul\":11841:11844   */\n      dup7\n        /* \"#utility.yul\":11837:11851   */\n      add\n        /* \"#utility.yul\":11830:11868   */\n      mstore\n        /* \"#utility.yul\":11889:11962   */\n      tag_882\n        /* \"#utility.yul\":11957:11961   */\n      dup3\n        /* \"#utility.yul\":11943:11955   */\n      dup3\n        /* \"#utility.yul\":11889:11962   */\n      tag_711\n      jump\t// in\n    tag_882:\n        /* \"#utility.yul\":11881:11962   */\n      swap2\n      pop\n        /* \"#utility.yul\":11726:11973   */\n      pop\n        /* \"#utility.yul\":12054:12058   */\n      0x60\n        /* \"#utility.yul\":12047:12052   */\n      dup4\n        /* \"#utility.yul\":12043:12059   */\n      add\n        /* \"#utility.yul\":12037:12060   */\n      mload\n        /* \"#utility.yul\":12107:12110   */\n      dup5\n        /* \"#utility.yul\":12101:12105   */\n      dup3\n        /* \"#utility.yul\":12097:12111   */\n      sub\n        /* \"#utility.yul\":12090:12094   */\n      0x60\n        /* \"#utility.yul\":12085:12088   */\n      dup7\n        /* \"#utility.yul\":12081:12095   */\n      add\n        /* \"#utility.yul\":12074:12112   */\n      mstore\n        /* \"#utility.yul\":12133:12206   */\n      tag_883\n        /* \"#utility.yul\":12201:12205   */\n      dup3\n        /* \"#utility.yul\":12187:12199   */\n      dup3\n        /* \"#utility.yul\":12133:12206   */\n      tag_711\n      jump\t// in\n    tag_883:\n        /* \"#utility.yul\":12125:12206   */\n      swap2\n      pop\n        /* \"#utility.yul\":11983:12217   */\n      pop\n        /* \"#utility.yul\":12305:12309   */\n      0x80\n        /* \"#utility.yul\":12298:12303   */\n      dup4\n        /* \"#utility.yul\":12294:12310   */\n      add\n        /* \"#utility.yul\":12288:12311   */\n      mload\n        /* \"#utility.yul\":12358:12361   */\n      dup5\n        /* \"#utility.yul\":12352:12356   */\n      dup3\n        /* \"#utility.yul\":12348:12362   */\n      sub\n        /* \"#utility.yul\":12341:12345   */\n      0x80\n        /* \"#utility.yul\":12336:12339   */\n      dup7\n        /* \"#utility.yul\":12332:12346   */\n      add\n        /* \"#utility.yul\":12325:12363   */\n      mstore\n        /* \"#utility.yul\":12384:12535   */\n      tag_884\n        /* \"#utility.yul\":12530:12534   */\n      dup3\n        /* \"#utility.yul\":12516:12528   */\n      dup3\n        /* \"#utility.yul\":12384:12535   */\n      tag_718\n      jump\t// in\n    tag_884:\n        /* \"#utility.yul\":12376:12535   */\n      swap2\n      pop\n        /* \"#utility.yul\":12227:12546   */\n      pop\n        /* \"#utility.yul\":12638:12642   */\n      0xa0\n        /* \"#utility.yul\":12631:12636   */\n      dup4\n        /* \"#utility.yul\":12627:12643   */\n      add\n        /* \"#utility.yul\":12621:12644   */\n      mload\n        /* \"#utility.yul\":12691:12694   */\n      dup5\n        /* \"#utility.yul\":12685:12689   */\n      dup3\n        /* \"#utility.yul\":12681:12695   */\n      sub\n        /* \"#utility.yul\":12674:12678   */\n      0xa0\n        /* \"#utility.yul\":12669:12672   */\n      dup7\n        /* \"#utility.yul\":12665:12679   */\n      add\n        /* \"#utility.yul\":12658:12696   */\n      mstore\n        /* \"#utility.yul\":12717:12878   */\n      tag_885\n        /* \"#utility.yul\":12873:12877   */\n      dup3\n        /* \"#utility.yul\":12859:12871   */\n      dup3\n        /* \"#utility.yul\":12717:12878   */\n      tag_725\n      jump\t// in\n    tag_885:\n        /* \"#utility.yul\":12709:12878   */\n      swap2\n      pop\n        /* \"#utility.yul\":12556:12889   */\n      pop\n        /* \"#utility.yul\":12975:12979   */\n      0xc0\n        /* \"#utility.yul\":12968:12973   */\n      dup4\n        /* \"#utility.yul\":12964:12980   */\n      add\n        /* \"#utility.yul\":12958:12981   */\n      mload\n        /* \"#utility.yul\":12994:13051   */\n      tag_886\n        /* \"#utility.yul\":13045:13049   */\n      0xc0\n        /* \"#utility.yul\":13040:13043   */\n      dup7\n        /* \"#utility.yul\":13036:13050   */\n      add\n        /* \"#utility.yul\":13022:13034   */\n      dup3\n        /* \"#utility.yul\":12994:13051   */\n      tag_727\n      jump\t// in\n    tag_886:\n        /* \"#utility.yul\":12899:13061   */\n      pop\n        /* \"#utility.yul\":13147:13151   */\n      0xe0\n        /* \"#utility.yul\":13140:13145   */\n      dup4\n        /* \"#utility.yul\":13136:13152   */\n      add\n        /* \"#utility.yul\":13130:13153   */\n      mload\n        /* \"#utility.yul\":13166:13227   */\n      tag_887\n        /* \"#utility.yul\":13221:13225   */\n      0xe0\n        /* \"#utility.yul\":13216:13219   */\n      dup7\n        /* \"#utility.yul\":13212:13226   */\n      add\n        /* \"#utility.yul\":13198:13210   */\n      dup3\n        /* \"#utility.yul\":13166:13227   */\n      tag_729\n      jump\t// in\n    tag_887:\n        /* \"#utility.yul\":13071:13237   */\n      pop\n        /* \"#utility.yul\":13323:13329   */\n      0x0100\n        /* \"#utility.yul\":13316:13321   */\n      dup4\n        /* \"#utility.yul\":13312:13330   */\n      add\n        /* \"#utility.yul\":13306:13331   */\n      mload\n        /* \"#utility.yul\":13344:13407   */\n      tag_888\n        /* \"#utility.yul\":13399:13405   */\n      0x0100\n        /* \"#utility.yul\":13394:13397   */\n      dup7\n        /* \"#utility.yul\":13390:13406   */\n      add\n        /* \"#utility.yul\":13376:13388   */\n      dup3\n        /* \"#utility.yul\":13344:13407   */\n      tag_729\n      jump\t// in\n    tag_888:\n        /* \"#utility.yul\":13247:13417   */\n      pop\n        /* \"#utility.yul\":13503:13509   */\n      0x0120\n        /* \"#utility.yul\":13496:13501   */\n      dup4\n        /* \"#utility.yul\":13492:13510   */\n      add\n        /* \"#utility.yul\":13486:13511   */\n      mload\n        /* \"#utility.yul\":13560:13563   */\n      dup5\n        /* \"#utility.yul\":13554:13558   */\n      dup3\n        /* \"#utility.yul\":13550:13564   */\n      sub\n        /* \"#utility.yul\":13541:13547   */\n      0x0120\n        /* \"#utility.yul\":13536:13539   */\n      dup7\n        /* \"#utility.yul\":13532:13548   */\n      add\n        /* \"#utility.yul\":13525:13565   */\n      mstore\n        /* \"#utility.yul\":13586:13659   */\n      tag_889\n        /* \"#utility.yul\":13654:13658   */\n      dup3\n        /* \"#utility.yul\":13640:13652   */\n      dup3\n        /* \"#utility.yul\":13586:13659   */\n      tag_711\n      jump\t// in\n    tag_889:\n        /* \"#utility.yul\":13578:13659   */\n      swap2\n      pop\n        /* \"#utility.yul\":13427:13670   */\n      pop\n        /* \"#utility.yul\":13753:13759   */\n      0x0140\n        /* \"#utility.yul\":13746:13751   */\n      dup4\n        /* \"#utility.yul\":13742:13760   */\n      add\n        /* \"#utility.yul\":13736:13761   */\n      mload\n        /* \"#utility.yul\":13810:13813   */\n      dup5\n        /* \"#utility.yul\":13804:13808   */\n      dup3\n        /* \"#utility.yul\":13800:13814   */\n      sub\n        /* \"#utility.yul\":13791:13797   */\n      0x0140\n        /* \"#utility.yul\":13786:13789   */\n      dup7\n        /* \"#utility.yul\":13782:13798   */\n      add\n        /* \"#utility.yul\":13775:13815   */\n      mstore\n        /* \"#utility.yul\":13836:13907   */\n      tag_890\n        /* \"#utility.yul\":13902:13906   */\n      dup3\n        /* \"#utility.yul\":13888:13900   */\n      dup3\n        /* \"#utility.yul\":13836:13907   */\n      tag_732\n      jump\t// in\n    tag_890:\n        /* \"#utility.yul\":13828:13907   */\n      swap2\n      pop\n        /* \"#utility.yul\":13680:13918   */\n      pop\n        /* \"#utility.yul\":13935:13939   */\n      dup1\n        /* \"#utility.yul\":13928:13939   */\n      swap2\n      pop\n        /* \"#utility.yul\":11175:13945   */\n      pop\n        /* \"#utility.yul\":11061:13945   */\n      swap3\n      swap2\n      pop\n      pop\n      jump\t// out\n        /* \"#utility.yul\":13951:14207   */\n    tag_734:\n        /* \"#utility.yul\":14070:14080   */\n      0x00\n        /* \"#utility.yul\":14105:14201   */\n      tag_892\n        /* \"#utility.yul\":14197:14200   */\n      dup4\n        /* \"#utility.yul\":14189:14195   */\n      dup4\n        /* \"#utility.yul\":14105:14201   */\n      tag_733\n      jump\t// in\n    tag_892:\n        /* \"#utility.yul\":14091:14201   */\n      swap1\n      pop\n        /* \"#utility.yul\":13951:14207   */\n      swap3\n      swap2\n      pop\n      pop\n      jump\t// out\n        /* \"#utility.yul\":14213:14351   */\n    tag_735:\n        /* \"#utility.yul\":14308:14312   */\n      0x00\n        /* \"#utility.yul\":14340:14344   */\n      0x20\n        /* \"#utility.yul\":14335:14338   */\n      dup3\n        /* \"#utility.yul\":14331:14345   */\n      add\n        /* \"#utility.yul\":14323:14345   */\n      swap1\n      pop\n        /* \"#utility.yul\":14213:14351   */\n      swap2\n      swap1\n      pop\n      jump\t// out\n        /* \"#utility.yul\":14405:15516   */\n    tag_736:\n        /* \"#utility.yul\":14574:14577   */\n      0x00\n        /* \"#utility.yul\":14603:14682   */\n      tag_895\n        /* \"#utility.yul\":14676:14681   */\n      dup3\n        /* \"#utility.yul\":14603:14682   */\n      tag_707\n      jump\t// in\n    tag_895:\n        /* \"#utility.yul\":14698:14809   */\n      tag_896\n        /* \"#utility.yul\":14802:14808   */\n      dup2\n        /* \"#utility.yul\":14797:14800   */\n      dup6\n        /* \"#utility.yul\":14698:14809   */\n      tag_708\n      jump\t// in\n    tag_896:\n        /* \"#utility.yul\":14691:14809   */\n      swap4\n      pop\n        /* \"#utility.yul\":14835:14838   */\n      dup4\n        /* \"#utility.yul\":14880:14884   */\n      0x20\n        /* \"#utility.yul\":14872:14878   */\n      dup3\n        /* \"#utility.yul\":14868:14885   */\n      mul\n        /* \"#utility.yul\":14863:14866   */\n      dup6\n        /* \"#utility.yul\":14859:14886   */\n      add\n        /* \"#utility.yul\":14910:14991   */\n      tag_897\n        /* \"#utility.yul\":14985:14990   */\n      dup6\n        /* \"#utility.yul\":14910:14991   */\n      tag_709\n      jump\t// in\n    tag_897:\n        /* \"#utility.yul\":15014:15021   */\n      dup1\n        /* \"#utility.yul\":15045:15046   */\n      0x00\n        /* \"#utility.yul\":15030:15471   */\n    tag_898:\n        /* \"#utility.yul\":15055:15061   */\n      dup6\n        /* \"#utility.yul\":15052:15053   */\n      dup2\n        /* \"#utility.yul\":15049:15062   */\n      lt\n        /* \"#utility.yul\":15030:15471   */\n      iszero\n      tag_900\n      jumpi\n        /* \"#utility.yul\":15126:15135   */\n      dup5\n        /* \"#utility.yul\":15120:15124   */\n      dup5\n        /* \"#utility.yul\":15116:15136   */\n      sub\n        /* \"#utility.yul\":15111:15114   */\n      dup10\n        /* \"#utility.yul\":15104:15137   */\n      mstore\n        /* \"#utility.yul\":15177:15183   */\n      dup2\n        /* \"#utility.yul\":15171:15184   */\n      mload\n        /* \"#utility.yul\":15205:15319   */\n      tag_901\n        /* \"#utility.yul\":15314:15318   */\n      dup6\n        /* \"#utility.yul\":15299:15312   */\n      dup3\n        /* \"#utility.yul\":15205:15319   */\n      tag_734\n      jump\t// in\n    tag_901:\n        /* \"#utility.yul\":15197:15319   */\n      swap5\n      pop\n        /* \"#utility.yul\":15342:15427   */\n      tag_902\n        /* \"#utility.yul\":15420:15426   */\n      dup4\n        /* \"#utility.yul\":15342:15427   */\n      tag_735\n      jump\t// in\n    tag_902:\n        /* \"#utility.yul\":15332:15427   */\n      swap3\n      pop\n        /* \"#utility.yul\":15456:15460   */\n      0x20\n        /* \"#utility.yul\":15451:15454   */\n      dup11\n        /* \"#utility.yul\":15447:15461   */\n      add\n        /* \"#utility.yul\":15440:15461   */\n      swap10\n      pop\n        /* \"#utility.yul\":15090:15471   */\n      pop\n        /* \"#utility.yul\":15077:15078   */\n      0x01\n        /* \"#utility.yul\":15074:15075   */\n      dup2\n        /* \"#utility.yul\":15070:15079   */\n      add\n        /* \"#utility.yul\":15065:15079   */\n      swap1\n      pop\n        /* \"#utility.yul\":15030:15471   */\n      jump(tag_898)\n    tag_900:\n        /* \"#utility.yul\":15034:15048   */\n      pop\n        /* \"#utility.yul\":15487:15491   */\n      dup3\n        /* \"#utility.yul\":15480:15491   */\n      swap8\n      pop\n        /* \"#utility.yul\":15507:15510   */\n      dup8\n        /* \"#utility.yul\":15500:15510   */\n      swap6\n      pop\n        /* \"#utility.yul\":14579:15516   */\n      pop\n      pop\n      pop\n      pop\n      pop\n        /* \"#utility.yul\":14405:15516   */\n      swap3\n      swap2\n      pop\n      pop\n      jump\t// out\n        /* \"#utility.yul\":15522:15995   */\n    tag_31:\n        /* \"#utility.yul\":15715:15719   */\n      0x00\n        /* \"#utility.yul\":15753:15755   */\n      0x20\n        /* \"#utility.yul\":15742:15751   */\n      dup3\n        /* \"#utility.yul\":15738:15756   */\n      add\n        /* \"#utility.yul\":15730:15756   */\n      swap1\n      pop\n        /* \"#utility.yul\":15802:15811   */\n      dup2\n        /* \"#utility.yul\":15796:15800   */\n      dup2\n        /* \"#utility.yul\":15792:15812   */\n      sub\n        /* \"#utility.yul\":15788:15789   */\n      0x00\n        /* \"#utility.yul\":15777:15786   */\n      dup4\n        /* \"#utility.yul\":15773:15790   */\n      add\n        /* \"#utility.yul\":15766:15813   */\n      mstore\n        /* \"#utility.yul\":15830:15988   */\n      tag_904\n        /* \"#utility.yul\":15983:15987   */\n      dup2\n        /* \"#utility.yul\":15974:15980   */\n      dup5\n        /* \"#utility.yul\":15830:15988   */\n      tag_736\n      jump\t// in\n    tag_904:\n        /* \"#utility.yul\":15822:15988   */\n      swap1\n      pop\n        /* \"#utility.yul\":15522:15995   */\n      swap3\n      swap2\n      pop\n      pop\n      jump\t// out\n        /* \"#utility.yul\":16001:16118   */\n    tag_737:\n        /* \"#utility.yul\":16110:16111   */\n      0x00\n        /* \"#utility.yul\":16107:16108   */\n      dup1\n        /* \"#utility.yul\":16100:16112   */\n      revert\n        /* \"#utility.yul\":16124:16241   */\n    tag_738:\n        /* \"#utility.yul\":16233:16234   */\n      0x00\n        /* \"#utility.yul\":16230:16231   */\n      dup1\n        /* \"#utility.yul\":16223:16235   */\n      revert\n        /* \"#utility.yul\":16247:16427   */\n    tag_108:\n        /* \"#utility.yul\":16295:16372   */\n      0x4e487b7100000000000000000000000000000000000000000000000000000000\n        /* \"#utility.yul\":16292:16293   */\n      0x00\n        /* \"#utility.yul\":16285:16373   */\n      mstore\n        /* \"#utility.yul\":16392:16396   */\n      0x41\n        /* \"#utility.yul\":16389:16390   */\n      0x04\n        /* \"#utility.yul\":16382:16397   */\n      mstore\n        /* \"#utility.yul\":16416:16420   */\n      0x24\n        /* \"#utility.yul\":16413:16414   */\n      0x00\n        /* \"#utility.yul\":16406:16421   */\n      revert\n        /* \"#utility.yul\":16433:16714   */\n    tag_739:\n        /* \"#utility.yul\":16516:16543   */\n      tag_909\n        /* \"#utility.yul\":16538:16542   */\n      dup3\n        /* \"#utility.yul\":16516:16543   */\n      tag_705\n      jump\t// in\n    tag_909:\n        /* \"#utility.yul\":16508:16514   */\n      dup2\n        /* \"#utility.yul\":16504:16544   */\n      add\n        /* \"#utility.yul\":16646:16652   */\n      dup2\n        /* \"#utility.yul\":16634:16644   */\n      dup2\n        /* \"#utility.yul\":16631:16653   */\n      lt\n        /* \"#utility.yul\":16610:16628   */\n      0xffffffffffffffff\n        /* \"#utility.yul\":16598:16608   */\n      dup3\n        /* \"#utility.yul\":16595:16629   */\n      gt\n        /* \"#utility.yul\":16592:16654   */\n      or\n        /* \"#utility.yul\":16589:16677   */\n      iszero\n      tag_910\n      jumpi\n        /* \"#utility.yul\":16657:16675   */\n      tag_911\n      tag_108\n      jump\t// in\n    tag_911:\n        /* \"#utility.yul\":16589:16677   */\n    tag_910:\n        /* \"#utility.yul\":16697:16707   */\n      dup1\n        /* \"#utility.yul\":16693:16695   */\n      0x40\n        /* \"#utility.yul\":16686:16708   */\n      mstore\n        /* \"#utility.yul\":16476:16714   */\n      pop\n        /* \"#utility.yul\":16433:16714   */\n      pop\n      pop\n      jump\t// out\n        /* \"#utility.yul\":16720:16849   */\n    tag_740:\n        /* \"#utility.yul\":16754:16760   */\n      0x00\n        /* \"#utility.yul\":16781:16801   */\n      tag_913\n      tag_696\n      jump\t// in\n    tag_913:\n        /* \"#utility.yul\":16771:16801   */\n      swap1\n      pop\n        /* \"#utility.yul\":16810:16843   */\n      tag_914\n        /* \"#utility.yul\":16838:16842   */\n      dup3\n        /* \"#utility.yul\":16830:16836   */\n      dup3\n        /* \"#utility.yul\":16810:16843   */\n      tag_739\n      jump\t// in\n    tag_914:\n        /* \"#utility.yul\":16720:16849   */\n      swap2\n      swap1\n      pop\n      jump\t// out\n        /* \"#utility.yul\":16855:17163   */\n    tag_741:\n        /* \"#utility.yul\":16917:16921   */\n      0x00\n        /* \"#utility.yul\":17007:17025   */\n      0xffffffffffffffff\n        /* \"#utility.yul\":16999:17005   */\n      dup3\n        /* \"#utility.yul\":16996:17026   */\n      gt\n        /* \"#utility.yul\":16993:17049   */\n      iszero\n      tag_916\n      jumpi\n        /* \"#utility.yul\":17029:17047   */\n      tag_917\n      tag_108\n      jump\t// in\n    tag_917:\n        /* \"#utility.yul\":16993:17049   */\n    tag_916:\n        /* \"#utility.yul\":17067:17096   */\n      tag_918\n        /* \"#utility.yul\":17089:17095   */\n      dup3\n        /* \"#utility.yul\":17067:17096   */\n      tag_705\n      jump\t// in\n    tag_918:\n        /* \"#utility.yul\":17059:17096   */\n      swap1\n      pop\n        /* \"#utility.yul\":17151:17155   */\n      0x20\n        /* \"#utility.yul\":17145:17149   */\n      dup2\n        /* \"#utility.yul\":17141:17156   */\n      add\n        /* \"#utility.yul\":17133:17156   */\n      swap1\n      pop\n        /* \"#utility.yul\":16855:17163   */\n      swap2\n      swap1\n      pop\n      jump\t// out\n        /* \"#utility.yul\":17169:17315   */\n    tag_742:\n        /* \"#utility.yul\":17266:17272   */\n      dup3\n        /* \"#utility.yul\":17261:17264   */\n      dup2\n        /* \"#utility.yul\":17256:17259   */\n      dup4\n        /* \"#utility.yul\":17243:17273   */\n      calldatacopy\n        /* \"#utility.yul\":17307:17308   */\n      0x00\n        /* \"#utility.yul\":17298:17304   */\n      dup4\n        /* \"#utility.yul\":17293:17296   */\n      dup4\n        /* \"#utility.yul\":17289:17305   */\n      add\n        /* \"#utility.yul\":17282:17309   */\n      mstore\n        /* \"#utility.yul\":17169:17315   */\n      pop\n      pop\n      pop\n      jump\t// out\n        /* \"#utility.yul\":17321:17746   */\n    tag_743:\n        /* \"#utility.yul\":17399:17404   */\n      0x00\n        /* \"#utility.yul\":17424:17490   */\n      tag_921\n        /* \"#utility.yul\":17440:17489   */\n      tag_922\n        /* \"#utility.yul\":17482:17488   */\n      dup5\n        /* \"#utility.yul\":17440:17489   */\n      tag_741\n      jump\t// in\n    tag_922:\n        /* \"#utility.yul\":17424:17490   */\n      tag_740\n      jump\t// in\n    tag_921:\n        /* \"#utility.yul\":17415:17490   */\n      swap1\n      pop\n        /* \"#utility.yul\":17513:17519   */\n      dup3\n        /* \"#utility.yul\":17506:17511   */\n      dup2\n        /* \"#utility.yul\":17499:17520   */\n      mstore\n        /* \"#utility.yul\":17551:17555   */\n      0x20\n        /* \"#utility.yul\":17544:17549   */\n      dup2\n        /* \"#utility.yul\":17540:17556   */\n      add\n        /* \"#utility.yul\":17589:17592   */\n      dup5\n        /* \"#utility.yul\":17580:17586   */\n      dup5\n        /* \"#utility.yul\":17575:17578   */\n      dup5\n        /* \"#utility.yul\":17571:17587   */\n      add\n        /* \"#utility.yul\":17568:17593   */\n      gt\n        /* \"#utility.yul\":17565:17677   */\n      iszero\n      tag_923\n      jumpi\n        /* \"#utility.yul\":17596:17675   */\n      tag_924\n      tag_738\n      jump\t// in\n    tag_924:\n        /* \"#utility.yul\":17565:17677   */\n    tag_923:\n        /* \"#utility.yul\":17686:17740   */\n      tag_925\n        /* \"#utility.yul\":17733:17739   */\n      dup5\n        /* \"#utility.yul\":17728:17731   */\n      dup3\n        /* \"#utility.yul\":17723:17726   */\n      dup6\n        /* \"#utility.yul\":17686:17740   */\n      tag_742\n      jump\t// in\n    tag_925:\n        /* \"#utility.yul\":17405:17746   */\n      pop\n        /* \"#utility.yul\":17321:17746   */\n      swap4\n      swap3\n      pop\n      pop\n      pop\n      jump\t// out\n        /* \"#utility.yul\":17766:18106   */\n    tag_744:\n        /* \"#utility.yul\":17822:17827   */\n      0x00\n        /* \"#utility.yul\":17871:17874   */\n      dup3\n        /* \"#utility.yul\":17864:17868   */\n      0x1f\n        /* \"#utility.yul\":17856:17862   */\n      dup4\n        /* \"#utility.yul\":17852:17869   */\n      add\n        /* \"#utility.yul\":17848:17875   */\n      slt\n        /* \"#utility.yul\":17838:17960   */\n      tag_927\n      jumpi\n        /* \"#utility.yul\":17879:17958   */\n      tag_928\n      tag_737\n      jump\t// in\n    tag_928:\n        /* \"#utility.yul\":17838:17960   */\n    tag_927:\n        /* \"#utility.yul\":17996:18002   */\n      dup2\n        /* \"#utility.yul\":17983:18003   */\n      calldataload\n        /* \"#utility.yul\":18021:18100   */\n      tag_929\n        /* \"#utility.yul\":18096:18099   */\n      dup5\n        /* \"#utility.yul\":18088:18094   */\n      dup3\n        /* \"#utility.yul\":18081:18085   */\n      0x20\n        /* \"#utility.yul\":18073:18079   */\n      dup7\n        /* \"#utility.yul\":18069:18086   */\n      add\n        /* \"#utility.yul\":18021:18100   */\n      tag_743\n      jump\t// in\n    tag_929:\n        /* \"#utility.yul\":18012:18100   */\n      swap2\n      pop\n        /* \"#utility.yul\":17828:18106   */\n      pop\n        /* \"#utility.yul\":17766:18106   */\n      swap3\n      swap2\n      pop\n      pop\n      jump\t// out\n        /* \"#utility.yul\":18112:18621   */\n    tag_42:\n        /* \"#utility.yul\":18181:18187   */\n      0x00\n        /* \"#utility.yul\":18230:18232   */\n      0x20\n        /* \"#utility.yul\":18218:18227   */\n      dup3\n        /* \"#utility.yul\":18209:18216   */\n      dup5\n        /* \"#utility.yul\":18205:18228   */\n      sub\n        /* \"#utility.yul\":18201:18233   */\n      slt\n        /* \"#utility.yul\":18198:18317   */\n      iszero\n      tag_931\n      jumpi\n        /* \"#utility.yul\":18236:18315   */\n      tag_932\n      tag_697\n      jump\t// in\n    tag_932:\n        /* \"#utility.yul\":18198:18317   */\n    tag_931:\n        /* \"#utility.yul\":18384:18385   */\n      0x00\n        /* \"#utility.yul\":18373:18382   */\n      dup3\n        /* \"#utility.yul\":18369:18386   */\n      add\n        /* \"#utility.yul\":18356:18387   */\n      calldataload\n        /* \"#utility.yul\":18414:18432   */\n      0xffffffffffffffff\n        /* \"#utility.yul\":18406:18412   */\n      dup2\n        /* \"#utility.yul\":18403:18433   */\n      gt\n        /* \"#utility.yul\":18400:18517   */\n      iszero\n      tag_933\n      jumpi\n        /* \"#utility.yul\":18436:18515   */\n      tag_934\n      tag_698\n      jump\t// in\n    tag_934:\n        /* \"#utility.yul\":18400:18517   */\n    tag_933:\n        /* \"#utility.yul\":18541:18604   */\n      tag_935\n        /* \"#utility.yul\":18596:18603   */\n      dup5\n        /* \"#utility.yul\":18587:18593   */\n      dup3\n        /* \"#utility.yul\":18576:18585   */\n      dup6\n        /* \"#utility.yul\":18572:18594   */\n      add\n        /* \"#utility.yul\":18541:18604   */\n      tag_744\n      jump\t// in\n    tag_935:\n        /* \"#utility.yul\":18531:18604   */\n      swap2\n      pop\n        /* \"#utility.yul\":18327:18614   */\n      pop\n        /* \"#utility.yul\":18112:18621   */\n      swap3\n      swap2\n      pop\n      pop\n      jump\t// out\n        /* \"#utility.yul\":18627:18736   */\n    tag_745:\n        /* \"#utility.yul\":18708:18729   */\n      tag_937\n        /* \"#utility.yul\":18723:18728   */\n      dup2\n        /* \"#utility.yul\":18708:18729   */\n      tag_726\n      jump\t// in\n    tag_937:\n        /* \"#utility.yul\":18703:18706   */\n      dup3\n        /* \"#utility.yul\":18696:18730   */\n      mstore\n        /* \"#utility.yul\":18627:18736   */\n      pop\n      pop\n      jump\t// out\n        /* \"#utility.yul\":18742:18857   */\n    tag_746:\n        /* \"#utility.yul\":18827:18850   */\n      tag_939\n        /* \"#utility.yul\":18844:18849   */\n      dup2\n        /* \"#utility.yul\":18827:18850   */\n      tag_728\n      jump\t// in\n    tag_939:\n        /* \"#utility.yul\":18822:18825   */\n      dup3\n        /* \"#utility.yul\":18815:18851   */\n      mstore\n        /* \"#utility.yul\":18742:18857   */\n      pop\n      pop\n      jump\t// out\n        /* \"#utility.yul\":18863:19031   */\n    tag_747:\n        /* \"#utility.yul\":18946:18957   */\n      0x00\n        /* \"#utility.yul\":18980:18986   */\n      dup3\n        /* \"#utility.yul\":18975:18978   */\n      dup3\n        /* \"#utility.yul\":18968:18987   */\n      mstore\n        /* \"#utility.yul\":19020:19024   */\n      0x20\n        /* \"#utility.yul\":19015:19018   */\n      dup3\n        /* \"#utility.yul\":19011:19025   */\n      add\n        /* \"#utility.yul\":18996:19025   */\n      swap1\n      pop\n        /* \"#utility.yul\":18863:19031   */\n      swap3\n      swap2\n      pop\n      pop\n      jump\t// out\n        /* \"#utility.yul\":19037:19410   */\n    tag_748:\n        /* \"#utility.yul\":19123:19126   */\n      0x00\n        /* \"#utility.yul\":19151:19189   */\n      tag_942\n        /* \"#utility.yul\":19183:19188   */\n      dup3\n        /* \"#utility.yul\":19151:19189   */\n      tag_730\n      jump\t// in\n    tag_942:\n        /* \"#utility.yul\":19205:19275   */\n      tag_943\n        /* \"#utility.yul\":19268:19274   */\n      dup2\n        /* \"#utility.yul\":19263:19266   */\n      dup6\n        /* \"#utility.yul\":19205:19275   */\n      tag_747\n      jump\t// in\n    tag_943:\n        /* \"#utility.yul\":19198:19275   */\n      swap4\n      pop\n        /* \"#utility.yul\":19284:19349   */\n      tag_944\n        /* \"#utility.yul\":19342:19348   */\n      dup2\n        /* \"#utility.yul\":19337:19340   */\n      dup6\n        /* \"#utility.yul\":19330:19334   */\n      0x20\n        /* \"#utility.yul\":19323:19328   */\n      dup7\n        /* \"#utility.yul\":19319:19335   */\n      add\n        /* \"#utility.yul\":19284:19349   */\n      tag_704\n      jump\t// in\n    tag_944:\n        /* \"#utility.yul\":19374:19403   */\n      tag_945\n        /* \"#utility.yul\":19396:19402   */\n      dup2\n        /* \"#utility.yul\":19374:19403   */\n      tag_705\n      jump\t// in\n    tag_945:\n        /* \"#utility.yul\":19369:19372   */\n      dup5\n        /* \"#utility.yul\":19365:19404   */\n      add\n        /* \"#utility.yul\":19358:19404   */\n      swap2\n      pop\n        /* \"#utility.yul\":19127:19410   */\n      pop\n        /* \"#utility.yul\":19037:19410   */\n      swap3\n      swap2\n      pop\n      pop\n      jump\t// out\n        /* \"#utility.yul\":19416:21046   */\n    tag_45:\n        /* \"#utility.yul\":19841:19845   */\n      0x00\n        /* \"#utility.yul\":19879:19882   */\n      0x0120\n        /* \"#utility.yul\":19868:19877   */\n      dup3\n        /* \"#utility.yul\":19864:19883   */\n      add\n        /* \"#utility.yul\":19856:19883   */\n      swap1\n      pop\n        /* \"#utility.yul\":19929:19938   */\n      dup2\n        /* \"#utility.yul\":19923:19927   */\n      dup2\n        /* \"#utility.yul\":19919:19939   */\n      sub\n        /* \"#utility.yul\":19915:19916   */\n      0x00\n        /* \"#utility.yul\":19904:19913   */\n      dup4\n        /* \"#utility.yul\":19900:19917   */\n      add\n        /* \"#utility.yul\":19893:19940   */\n      mstore\n        /* \"#utility.yul\":19957:20035   */\n      tag_947\n        /* \"#utility.yul\":20030:20034   */\n      dup2\n        /* \"#utility.yul\":20021:20027   */\n      dup13\n        /* \"#utility.yul\":19957:20035   */\n      tag_706\n      jump\t// in\n    tag_947:\n        /* \"#utility.yul\":19949:20035   */\n      swap1\n      pop\n        /* \"#utility.yul\":20082:20091   */\n      dup2\n        /* \"#utility.yul\":20076:20080   */\n      dup2\n        /* \"#utility.yul\":20072:20092   */\n      sub\n        /* \"#utility.yul\":20067:20069   */\n      0x20\n        /* \"#utility.yul\":20056:20065   */\n      dup4\n        /* \"#utility.yul\":20052:20070   */\n      add\n        /* \"#utility.yul\":20045:20093   */\n      mstore\n        /* \"#utility.yul\":20110:20188   */\n      tag_948\n        /* \"#utility.yul\":20183:20187   */\n      dup2\n        /* \"#utility.yul\":20174:20180   */\n      dup12\n        /* \"#utility.yul\":20110:20188   */\n      tag_706\n      jump\t// in\n    tag_948:\n        /* \"#utility.yul\":20102:20188   */\n      swap1\n      pop\n        /* \"#utility.yul\":20235:20244   */\n      dup2\n        /* \"#utility.yul\":20229:20233   */\n      dup2\n        /* \"#utility.yul\":20225:20245   */\n      sub\n        /* \"#utility.yul\":20220:20222   */\n      0x40\n        /* \"#utility.yul\":20209:20218   */\n      dup4\n        /* \"#utility.yul\":20205:20223   */\n      add\n        /* \"#utility.yul\":20198:20246   */\n      mstore\n        /* \"#utility.yul\":20263:20341   */\n      tag_949\n        /* \"#utility.yul\":20336:20340   */\n      dup2\n        /* \"#utility.yul\":20327:20333   */\n      dup11\n        /* \"#utility.yul\":20263:20341   */\n      tag_706\n      jump\t// in\n    tag_949:\n        /* \"#utility.yul\":20255:20341   */\n      swap1\n      pop\n        /* \"#utility.yul\":20388:20397   */\n      dup2\n        /* \"#utility.yul\":20382:20386   */\n      dup2\n        /* \"#utility.yul\":20378:20398   */\n      sub\n        /* \"#utility.yul\":20373:20375   */\n      0x60\n        /* \"#utility.yul\":20362:20371   */\n      dup4\n        /* \"#utility.yul\":20358:20376   */\n      add\n        /* \"#utility.yul\":20351:20399   */\n      mstore\n        /* \"#utility.yul\":20416:20494   */\n      tag_950\n        /* \"#utility.yul\":20489:20493   */\n      dup2\n        /* \"#utility.yul\":20480:20486   */\n      dup10\n        /* \"#utility.yul\":20416:20494   */\n      tag_706\n      jump\t// in\n    tag_950:\n        /* \"#utility.yul\":20408:20494   */\n      swap1\n      pop\n        /* \"#utility.yul\":20504:20571   */\n      tag_951\n        /* \"#utility.yul\":20566:20569   */\n      0x80\n        /* \"#utility.yul\":20555:20564   */\n      dup4\n        /* \"#utility.yul\":20551:20570   */\n      add\n        /* \"#utility.yul\":20542:20548   */\n      dup9\n        /* \"#utility.yul\":20504:20571   */\n      tag_745\n      jump\t// in\n    tag_951:\n        /* \"#utility.yul\":20581:20652   */\n      tag_952\n        /* \"#utility.yul\":20647:20650   */\n      0xa0\n        /* \"#utility.yul\":20636:20645   */\n      dup4\n        /* \"#utility.yul\":20632:20651   */\n      add\n        /* \"#utility.yul\":20623:20629   */\n      dup8\n        /* \"#utility.yul\":20581:20652   */\n      tag_746\n      jump\t// in\n    tag_952:\n        /* \"#utility.yul\":20662:20733   */\n      tag_953\n        /* \"#utility.yul\":20728:20731   */\n      0xc0\n        /* \"#utility.yul\":20717:20726   */\n      dup4\n        /* \"#utility.yul\":20713:20732   */\n      add\n        /* \"#utility.yul\":20704:20710   */\n      dup7\n        /* \"#utility.yul\":20662:20733   */\n      tag_746\n      jump\t// in\n    tag_953:\n        /* \"#utility.yul\":20781:20790   */\n      dup2\n        /* \"#utility.yul\":20775:20779   */\n      dup2\n        /* \"#utility.yul\":20771:20791   */\n      sub\n        /* \"#utility.yul\":20765:20768   */\n      0xe0\n        /* \"#utility.yul\":20754:20763   */\n      dup4\n        /* \"#utility.yul\":20750:20769   */\n      add\n        /* \"#utility.yul\":20743:20792   */\n      mstore\n        /* \"#utility.yul\":20809:20887   */\n      tag_954\n        /* \"#utility.yul\":20882:20886   */\n      dup2\n        /* \"#utility.yul\":20873:20879   */\n      dup6\n        /* \"#utility.yul\":20809:20887   */\n      tag_706\n      jump\t// in\n    tag_954:\n        /* \"#utility.yul\":20801:20887   */\n      swap1\n      pop\n        /* \"#utility.yul\":20935:20944   */\n      dup2\n        /* \"#utility.yul\":20929:20933   */\n      dup2\n        /* \"#utility.yul\":20925:20945   */\n      sub\n        /* \"#utility.yul\":20919:20922   */\n      0x0100\n        /* \"#utility.yul\":20908:20917   */\n      dup4\n        /* \"#utility.yul\":20904:20923   */\n      add\n        /* \"#utility.yul\":20897:20946   */\n      mstore\n        /* \"#utility.yul\":20963:21039   */\n      tag_955\n        /* \"#utility.yul\":21034:21038   */\n      dup2\n        /* \"#utility.yul\":21025:21031   */\n      dup5\n        /* \"#utility.yul\":20963:21039   */\n      tag_748\n      jump\t// in\n    tag_955:\n        /* \"#utility.yul\":20955:21039   */\n      swap1\n      pop\n        /* \"#utility.yul\":19416:21046   */\n      swap11\n      swap10\n      pop\n      pop\n      pop\n      pop\n      pop\n      pop\n      pop\n      pop\n      pop\n      pop\n      jump\t// out\n        /* \"#utility.yul\":21052:21260   */\n    tag_749:\n        /* \"#utility.yul\":21175:21186   */\n      0x00\n        /* \"#utility.yul\":21209:21215   */\n      dup3\n        /* \"#utility.yul\":21204:21207   */\n      dup3\n        /* \"#utility.yul\":21197:21216   */\n      mstore\n        /* \"#utility.yul\":21249:21253   */\n      0x20\n        /* \"#utility.yul\":21244:21247   */\n      dup3\n        /* \"#utility.yul\":21240:21254   */\n      add\n        /* \"#utility.yul\":21225:21254   */\n      swap1\n      pop\n        /* \"#utility.yul\":21052:21260   */\n      swap3\n      swap2\n      pop\n      pop\n      jump\t// out\n        /* \"#utility.yul\":21314:22417   */\n    tag_750:\n        /* \"#utility.yul\":21481:21484   */\n      0x00\n        /* \"#utility.yul\":21510:21588   */\n      tag_958\n        /* \"#utility.yul\":21582:21587   */\n      dup3\n        /* \"#utility.yul\":21510:21588   */\n      tag_712\n      jump\t// in\n    tag_958:\n        /* \"#utility.yul\":21604:21714   */\n      tag_959\n        /* \"#utility.yul\":21707:21713   */\n      dup2\n        /* \"#utility.yul\":21702:21705   */\n      dup6\n        /* \"#utility.yul\":21604:21714   */\n      tag_749\n      jump\t// in\n    tag_959:\n        /* \"#utility.yul\":21597:21714   */\n      swap4\n      pop\n        /* \"#utility.yul\":21740:21743   */\n      dup4\n        /* \"#utility.yul\":21785:21789   */\n      0x20\n        /* \"#utility.yul\":21777:21783   */\n      dup3\n        /* \"#utility.yul\":21773:21790   */\n      mul\n        /* \"#utility.yul\":21768:21771   */\n      dup6\n        /* \"#utility.yul\":21764:21791   */\n      add\n        /* \"#utility.yul\":21815:21895   */\n      tag_960\n        /* \"#utility.yul\":21889:21894   */\n      dup6\n        /* \"#utility.yul\":21815:21895   */\n      tag_714\n      jump\t// in\n    tag_960:\n        /* \"#utility.yul\":21918:21925   */\n      dup1\n        /* \"#utility.yul\":21949:21950   */\n      0x00\n        /* \"#utility.yul\":21934:22372   */\n    tag_961:\n        /* \"#utility.yul\":21959:21965   */\n      dup6\n        /* \"#utility.yul\":21956:21957   */\n      dup2\n        /* \"#utility.yul\":21953:21966   */\n      lt\n        /* \"#utility.yul\":21934:22372   */\n      iszero\n      tag_963\n      jumpi\n        /* \"#utility.yul\":22030:22039   */\n      dup5\n        /* \"#utility.yul\":22024:22028   */\n      dup5\n        /* \"#utility.yul\":22020:22040   */\n      sub\n        /* \"#utility.yul\":22015:22018   */\n      dup10\n        /* \"#utility.yul\":22008:22041   */\n      mstore\n        /* \"#utility.yul\":22081:22087   */\n      dup2\n        /* \"#utility.yul\":22075:22088   */\n      mload\n        /* \"#utility.yul\":22109:22221   */\n      tag_964\n        /* \"#utility.yul\":22216:22220   */\n      dup6\n        /* \"#utility.yul\":22201:22214   */\n      dup3\n        /* \"#utility.yul\":22109:22221   */\n      tag_716\n      jump\t// in\n    tag_964:\n        /* \"#utility.yul\":22101:22221   */\n      swap5\n      pop\n        /* \"#utility.yul\":22244:22328   */\n      tag_965\n        /* \"#utility.yul\":22321:22327   */\n      dup4\n        /* \"#utility.yul\":22244:22328   */\n      tag_717\n      jump\t// in\n    tag_965:\n        /* \"#utility.yul\":22234:22328   */\n      swap3\n      pop\n        /* \"#utility.yul\":22357:22361   */\n      0x20\n        /* \"#utility.yul\":22352:22355   */\n      dup11\n        /* \"#utility.yul\":22348:22362   */\n      add\n        /* \"#utility.yul\":22341:22362   */\n      swap10\n      pop\n        /* \"#utility.yul\":21994:22372   */\n      pop\n        /* \"#utility.yul\":21981:21982   */\n      0x01\n        /* \"#utility.yul\":21978:21979   */\n      dup2\n        /* \"#utility.yul\":21974:21983   */\n      add\n        /* \"#utility.yul\":21969:21983   */\n      swap1\n      pop\n        /* \"#utility.yul\":21934:22372   */\n      jump(tag_961)\n    tag_963:\n        /* \"#utility.yul\":21938:21952   */\n      pop\n        /* \"#utility.yul\":22388:22392   */\n      dup3\n        /* \"#utility.yul\":22381:22392   */\n      swap8\n      pop\n        /* \"#utility.yul\":22408:22411   */\n      dup8\n        /* \"#utility.yul\":22401:22411   */\n      swap6\n      pop\n        /* \"#utility.yul\":21486:22417   */\n      pop\n      pop\n      pop\n      pop\n      pop\n        /* \"#utility.yul\":21314:22417   */\n      swap3\n      swap2\n      pop\n      pop\n      jump\t// out\n        /* \"#utility.yul\":22423:22636   */\n    tag_751:\n        /* \"#utility.yul\":22551:22562   */\n      0x00\n        /* \"#utility.yul\":22585:22591   */\n      dup3\n        /* \"#utility.yul\":22580:22583   */\n      dup3\n        /* \"#utility.yul\":22573:22592   */\n      mstore\n        /* \"#utility.yul\":22625:22629   */\n      0x20\n        /* \"#utility.yul\":22620:22623   */\n      dup3\n        /* \"#utility.yul\":22616:22630   */\n      add\n        /* \"#utility.yul\":22601:22630   */\n      swap1\n      pop\n        /* \"#utility.yul\":22423:22636   */\n      swap3\n      swap2\n      pop\n      pop\n      jump\t// out\n        /* \"#utility.yul\":22698:23841   */\n    tag_752:\n        /* \"#utility.yul\":22875:22878   */\n      0x00\n        /* \"#utility.yul\":22904:22987   */\n      tag_968\n        /* \"#utility.yul\":22981:22986   */\n      dup3\n        /* \"#utility.yul\":22904:22987   */\n      tag_719\n      jump\t// in\n    tag_968:\n        /* \"#utility.yul\":23003:23118   */\n      tag_969\n        /* \"#utility.yul\":23111:23117   */\n      dup2\n        /* \"#utility.yul\":23106:23109   */\n      dup6\n        /* \"#utility.yul\":23003:23118   */\n      tag_751\n      jump\t// in\n    tag_969:\n        /* \"#utility.yul\":22996:23118   */\n      swap4\n      pop\n        /* \"#utility.yul\":23144:23147   */\n      dup4\n        /* \"#utility.yul\":23189:23193   */\n      0x20\n        /* \"#utility.yul\":23181:23187   */\n      dup3\n        /* \"#utility.yul\":23177:23194   */\n      mul\n        /* \"#utility.yul\":23172:23175   */\n      dup6\n        /* \"#utility.yul\":23168:23195   */\n      add\n        /* \"#utility.yul\":23219:23304   */\n      tag_970\n        /* \"#utility.yul\":23298:23303   */\n      dup6\n        /* \"#utility.yul\":23219:23304   */\n      tag_721\n      jump\t// in\n    tag_970:\n        /* \"#utility.yul\":23327:23334   */\n      dup1\n        /* \"#utility.yul\":23358:23359   */\n      0x00\n        /* \"#utility.yul\":23343:23796   */\n    tag_971:\n        /* \"#utility.yul\":23368:23374   */\n      dup6\n        /* \"#utility.yul\":23365:23366   */\n      dup2\n        /* \"#utility.yul\":23362:23375   */\n      lt\n        /* \"#utility.yul\":23343:23796   */\n      iszero\n      tag_973\n      jumpi\n        /* \"#utility.yul\":23439:23448   */\n      dup5\n        /* \"#utility.yul\":23433:23437   */\n      dup5\n        /* \"#utility.yul\":23429:23449   */\n      sub\n        /* \"#utility.yul\":23424:23427   */\n      dup10\n        /* \"#utility.yul\":23417:23450   */\n      mstore\n        /* \"#utility.yul\":23490:23496   */\n      dup2\n        /* \"#utility.yul\":23484:23497   */\n      mload\n        /* \"#utility.yul\":23518:23640   */\n      tag_974\n        /* \"#utility.yul\":23635:23639   */\n      dup6\n        /* \"#utility.yul\":23620:23633   */\n      dup3\n        /* \"#utility.yul\":23518:23640   */\n      tag_723\n      jump\t// in\n    tag_974:\n        /* \"#utility.yul\":23510:23640   */\n      swap5\n      pop\n        /* \"#utility.yul\":23663:23752   */\n      tag_975\n        /* \"#utility.yul\":23745:23751   */\n      dup4\n        /* \"#utility.yul\":23663:23752   */\n      tag_724\n      jump\t// in\n    tag_975:\n        /* \"#utility.yul\":23653:23752   */\n      swap3\n      pop\n        /* \"#utility.yul\":23781:23785   */\n      0x20\n        /* \"#utility.yul\":23776:23779   */\n      dup11\n        /* \"#utility.yul\":23772:23786   */\n      add\n        /* \"#utility.yul\":23765:23786   */\n      swap10\n      pop\n        /* \"#utility.yul\":23403:23796   */\n      pop\n        /* \"#utility.yul\":23390:23391   */\n      0x01\n        /* \"#utility.yul\":23387:23388   */\n      dup2\n        /* \"#utility.yul\":23383:23392   */\n      add\n        /* \"#utility.yul\":23378:23392   */\n      swap1\n      pop\n        /* \"#utility.yul\":23343:23796   */\n      jump(tag_971)\n    tag_973:\n        /* \"#utility.yul\":23347:23361   */\n      pop\n        /* \"#utility.yul\":23812:23816   */\n      dup3\n        /* \"#utility.yul\":23805:23816   */\n      swap8\n      pop\n        /* \"#utility.yul\":23832:23835   */\n      dup8\n        /* \"#utility.yul\":23825:23835   */\n      swap6\n      pop\n        /* \"#utility.yul\":22880:23841   */\n      pop\n      pop\n      pop\n      pop\n      pop\n        /* \"#utility.yul\":22698:23841   */\n      swap3\n      swap2\n      pop\n      pop\n      jump\t// out\n        /* \"#utility.yul\":23847:24693   */\n    tag_49:\n        /* \"#utility.yul\":24174:24178   */\n      0x00\n        /* \"#utility.yul\":24212:24214   */\n      0x40\n        /* \"#utility.yul\":24201:24210   */\n      dup3\n        /* \"#utility.yul\":24197:24215   */\n      add\n        /* \"#utility.yul\":24189:24215   */\n      swap1\n      pop\n        /* \"#utility.yul\":24261:24270   */\n      dup2\n        /* \"#utility.yul\":24255:24259   */\n      dup2\n        /* \"#utility.yul\":24251:24271   */\n      sub\n        /* \"#utility.yul\":24247:24248   */\n      0x00\n        /* \"#utility.yul\":24236:24245   */\n      dup4\n        /* \"#utility.yul\":24232:24249   */\n      add\n        /* \"#utility.yul\":24225:24272   */\n      mstore\n        /* \"#utility.yul\":24289:24445   */\n      tag_977\n        /* \"#utility.yul\":24440:24444   */\n      dup2\n        /* \"#utility.yul\":24431:24437   */\n      dup6\n        /* \"#utility.yul\":24289:24445   */\n      tag_750\n      jump\t// in\n    tag_977:\n        /* \"#utility.yul\":24281:24445   */\n      swap1\n      pop\n        /* \"#utility.yul\":24492:24501   */\n      dup2\n        /* \"#utility.yul\":24486:24490   */\n      dup2\n        /* \"#utility.yul\":24482:24502   */\n      sub\n        /* \"#utility.yul\":24477:24479   */\n      0x20\n        /* \"#utility.yul\":24466:24475   */\n      dup4\n        /* \"#utility.yul\":24462:24480   */\n      add\n        /* \"#utility.yul\":24455:24503   */\n      mstore\n        /* \"#utility.yul\":24520:24686   */\n      tag_978\n        /* \"#utility.yul\":24681:24685   */\n      dup2\n        /* \"#utility.yul\":24672:24678   */\n      dup5\n        /* \"#utility.yul\":24520:24686   */\n      tag_752\n      jump\t// in\n    tag_978:\n        /* \"#utility.yul\":24512:24686   */\n      swap1\n      pop\n        /* \"#utility.yul\":23847:24693   */\n      swap4\n      swap3\n      pop\n      pop\n      pop\n      jump\t// out\n        /* \"#utility.yul\":24699:24909   */\n    tag_56:\n        /* \"#utility.yul\":24786:24790   */\n      0x00\n        /* \"#utility.yul\":24824:24826   */\n      0x20\n        /* \"#utility.yul\":24813:24822   */\n      dup3\n        /* \"#utility.yul\":24809:24827   */\n      add\n        /* \"#utility.yul\":24801:24827   */\n      swap1\n      pop\n        /* \"#utility.yul\":24837:24902   */\n      tag_980\n        /* \"#utility.yul\":24899:24900   */\n      0x00\n        /* \"#utility.yul\":24888:24897   */\n      dup4\n        /* \"#utility.yul\":24884:24901   */\n      add\n        /* \"#utility.yul\":24875:24881   */\n      dup5\n        /* \"#utility.yul\":24837:24902   */\n      tag_745\n      jump\t// in\n    tag_980:\n        /* \"#utility.yul\":24699:24909   */\n      swap3\n      swap2\n      pop\n      pop\n      jump\t// out\n        /* \"#utility.yul\":24915:25261   */\n    tag_753:\n        /* \"#utility.yul\":25027:25031   */\n      0x00\n        /* \"#utility.yul\":25117:25135   */\n      0xffffffffffffffff\n        /* \"#utility.yul\":25109:25115   */\n      dup3\n        /* \"#utility.yul\":25106:25136   */\n      gt\n        /* \"#utility.yul\":25103:25159   */\n      iszero\n      tag_982\n      jumpi\n        /* \"#utility.yul\":25139:25157   */\n      tag_983\n      tag_108\n      jump\t// in\n    tag_983:\n        /* \"#utility.yul\":25103:25159   */\n    tag_982:\n        /* \"#utility.yul\":25189:25193   */\n      0x20\n        /* \"#utility.yul\":25181:25187   */\n      dup3\n        /* \"#utility.yul\":25177:25194   */\n      mul\n        /* \"#utility.yul\":25169:25194   */\n      swap1\n      pop\n        /* \"#utility.yul\":25249:25253   */\n      0x20\n        /* \"#utility.yul\":25243:25247   */\n      dup2\n        /* \"#utility.yul\":25239:25254   */\n      add\n        /* \"#utility.yul\":25231:25254   */\n      swap1\n      pop\n        /* \"#utility.yul\":24915:25261   */\n      swap2\n      swap1\n      pop\n      jump\t// out\n        /* \"#utility.yul\":25267:25384   */\n    tag_754:\n        /* \"#utility.yul\":25376:25377   */\n      0x00\n        /* \"#utility.yul\":25373:25374   */\n      dup1\n        /* \"#utility.yul\":25366:25378   */\n      revert\n        /* \"#utility.yul\":25390:25711   */\n    tag_755:\n        /* \"#utility.yul\":25477:25481   */\n      0x00\n        /* \"#utility.yul\":25567:25585   */\n      0xffffffffffffffff\n        /* \"#utility.yul\":25559:25565   */\n      dup3\n        /* \"#utility.yul\":25556:25586   */\n      gt\n        /* \"#utility.yul\":25553:25609   */\n      iszero\n      tag_986\n      jumpi\n        /* \"#utility.yul\":25589:25607   */\n      tag_987\n      tag_108\n      jump\t// in\n    tag_987:\n        /* \"#utility.yul\":25553:25609   */\n    tag_986:\n        /* \"#utility.yul\":25639:25643   */\n      0x20\n        /* \"#utility.yul\":25631:25637   */\n      dup3\n        /* \"#utility.yul\":25627:25644   */\n      mul\n        /* \"#utility.yul\":25619:25644   */\n      swap1\n      pop\n        /* \"#utility.yul\":25699:25703   */\n      0x20\n        /* \"#utility.yul\":25693:25697   */\n      dup2\n        /* \"#utility.yul\":25689:25704   */\n      add\n        /* \"#utility.yul\":25681:25704   */\n      swap1\n      pop\n        /* \"#utility.yul\":25390:25711   */\n      swap2\n      swap1\n      pop\n      jump\t// out\n        /* \"#utility.yul\":25733:26678   */\n    tag_756:\n        /* \"#utility.yul\":25839:25844   */\n      0x00\n        /* \"#utility.yul\":25864:25955   */\n      tag_989\n        /* \"#utility.yul\":25880:25954   */\n      tag_990\n        /* \"#utility.yul\":25947:25953   */\n      dup5\n        /* \"#utility.yul\":25880:25954   */\n      tag_755\n      jump\t// in\n    tag_990:\n        /* \"#utility.yul\":25864:25955   */\n      tag_740\n      jump\t// in\n    tag_989:\n        /* \"#utility.yul\":25855:25955   */\n      swap1\n      pop\n        /* \"#utility.yul\":25975:25980   */\n      dup1\n        /* \"#utility.yul\":26004:26010   */\n      dup4\n        /* \"#utility.yul\":25997:26002   */\n      dup3\n        /* \"#utility.yul\":25990:26011   */\n      mstore\n        /* \"#utility.yul\":26038:26042   */\n      0x20\n        /* \"#utility.yul\":26031:26036   */\n      dup3\n        /* \"#utility.yul\":26027:26043   */\n      add\n        /* \"#utility.yul\":26020:26043   */\n      swap1\n      pop\n        /* \"#utility.yul\":26091:26095   */\n      0x20\n        /* \"#utility.yul\":26083:26089   */\n      dup5\n        /* \"#utility.yul\":26079:26096   */\n      mul\n        /* \"#utility.yul\":26071:26077   */\n      dup4\n        /* \"#utility.yul\":26067:26097   */\n      add\n        /* \"#utility.yul\":26120:26123   */\n      dup6\n        /* \"#utility.yul\":26112:26118   */\n      dup2\n        /* \"#utility.yul\":26109:26124   */\n      gt\n        /* \"#utility.yul\":26106:26228   */\n      iszero\n      tag_991\n      jumpi\n        /* \"#utility.yul\":26139:26218   */\n      tag_992\n      tag_754\n      jump\t// in\n    tag_992:\n        /* \"#utility.yul\":26106:26228   */\n    tag_991:\n        /* \"#utility.yul\":26254:26260   */\n      dup4\n        /* \"#utility.yul\":26237:26672   */\n    tag_993:\n        /* \"#utility.yul\":26271:26277   */\n      dup2\n        /* \"#utility.yul\":26266:26269   */\n      dup2\n        /* \"#utility.yul\":26263:26278   */\n      lt\n        /* \"#utility.yul\":26237:26672   */\n      iszero\n      tag_995\n      jumpi\n        /* \"#utility.yul\":26360:26363   */\n      dup1\n        /* \"#utility.yul\":26347:26364   */\n      calldataload\n        /* \"#utility.yul\":26396:26414   */\n      0xffffffffffffffff\n        /* \"#utility.yul\":26383:26394   */\n      dup2\n        /* \"#utility.yul\":26380:26415   */\n      gt\n        /* \"#utility.yul\":26377:26499   */\n      iszero\n      tag_996\n      jumpi\n        /* \"#utility.yul\":26418:26497   */\n      tag_997\n      tag_737\n      jump\t// in\n    tag_997:\n        /* \"#utility.yul\":26377:26499   */\n    tag_996:\n        /* \"#utility.yul\":26542:26553   */\n      dup1\n        /* \"#utility.yul\":26534:26540   */\n      dup7\n        /* \"#utility.yul\":26530:26554   */\n      add\n        /* \"#utility.yul\":26580:26627   */\n      tag_998\n        /* \"#utility.yul\":26623:26626   */\n      dup10\n        /* \"#utility.yul\":26611:26621   */\n      dup3\n        /* \"#utility.yul\":26580:26627   */\n      tag_744\n      jump\t// in\n    tag_998:\n        /* \"#utility.yul\":26575:26578   */\n      dup6\n        /* \"#utility.yul\":26568:26628   */\n      mstore\n        /* \"#utility.yul\":26657:26661   */\n      0x20\n        /* \"#utility.yul\":26652:26655   */\n      dup6\n        /* \"#utility.yul\":26648:26662   */\n      add\n        /* \"#utility.yul\":26641:26662   */\n      swap5\n      pop\n        /* \"#utility.yul\":26313:26672   */\n      pop\n      pop\n        /* \"#utility.yul\":26297:26301   */\n      0x20\n        /* \"#utility.yul\":26292:26295   */\n      dup2\n        /* \"#utility.yul\":26288:26302   */\n      add\n        /* \"#utility.yul\":26281:26302   */\n      swap1\n      pop\n        /* \"#utility.yul\":26237:26672   */\n      jump(tag_993)\n    tag_995:\n        /* \"#utility.yul\":26241:26262   */\n      pop\n        /* \"#utility.yul\":25845:26678   */\n      pop\n      pop\n        /* \"#utility.yul\":25733:26678   */\n      swap4\n      swap3\n      pop\n      pop\n      pop\n      jump\t// out\n        /* \"#utility.yul\":26700:27090   */\n    tag_757:\n        /* \"#utility.yul\":26781:26786   */\n      0x00\n        /* \"#utility.yul\":26830:26833   */\n      dup3\n        /* \"#utility.yul\":26823:26827   */\n      0x1f\n        /* \"#utility.yul\":26815:26821   */\n      dup4\n        /* \"#utility.yul\":26811:26828   */\n      add\n        /* \"#utility.yul\":26807:26834   */\n      slt\n        /* \"#utility.yul\":26797:26919   */\n      tag_1000\n      jumpi\n        /* \"#utility.yul\":26838:26917   */\n      tag_1001\n      tag_737\n      jump\t// in\n    tag_1001:\n        /* \"#utility.yul\":26797:26919   */\n    tag_1000:\n        /* \"#utility.yul\":26955:26961   */\n      dup2\n        /* \"#utility.yul\":26942:26962   */\n      calldataload\n        /* \"#utility.yul\":26980:27084   */\n      tag_1002\n        /* \"#utility.yul\":27080:27083   */\n      dup5\n        /* \"#utility.yul\":27072:27078   */\n      dup3\n        /* \"#utility.yul\":27065:27069   */\n      0x20\n        /* \"#utility.yul\":27057:27063   */\n      dup7\n        /* \"#utility.yul\":27053:27070   */\n      add\n        /* \"#utility.yul\":26980:27084   */\n      tag_756\n      jump\t// in\n    tag_1002:\n        /* \"#utility.yul\":26971:27084   */\n      swap2\n      pop\n        /* \"#utility.yul\":26787:27090   */\n      pop\n        /* \"#utility.yul\":26700:27090   */\n      swap3\n      swap2\n      pop\n      pop\n      jump\t// out\n        /* \"#utility.yul\":27114:28134   */\n    tag_758:\n        /* \"#utility.yul\":27245:27250   */\n      0x00\n        /* \"#utility.yul\":27270:27386   */\n      tag_1004\n        /* \"#utility.yul\":27286:27385   */\n      tag_1005\n        /* \"#utility.yul\":27378:27384   */\n      dup5\n        /* \"#utility.yul\":27286:27385   */\n      tag_753\n      jump\t// in\n    tag_1005:\n        /* \"#utility.yul\":27270:27386   */\n      tag_740\n      jump\t// in\n    tag_1004:\n        /* \"#utility.yul\":27261:27386   */\n      swap1\n      pop\n        /* \"#utility.yul\":27406:27411   */\n      dup1\n        /* \"#utility.yul\":27435:27441   */\n      dup4\n        /* \"#utility.yul\":27428:27433   */\n      dup3\n        /* \"#utility.yul\":27421:27442   */\n      mstore\n        /* \"#utility.yul\":27469:27473   */\n      0x20\n        /* \"#utility.yul\":27462:27467   */\n      dup3\n        /* \"#utility.yul\":27458:27474   */\n      add\n        /* \"#utility.yul\":27451:27474   */\n      swap1\n      pop\n        /* \"#utility.yul\":27522:27526   */\n      0x20\n        /* \"#utility.yul\":27514:27520   */\n      dup5\n        /* \"#utility.yul\":27510:27527   */\n      mul\n        /* \"#utility.yul\":27502:27508   */\n      dup4\n        /* \"#utility.yul\":27498:27528   */\n      add\n        /* \"#utility.yul\":27551:27554   */\n      dup6\n        /* \"#utility.yul\":27543:27549   */\n      dup2\n        /* \"#utility.yul\":27540:27555   */\n      gt\n        /* \"#utility.yul\":27537:27659   */\n      iszero\n      tag_1006\n      jumpi\n        /* \"#utility.yul\":27570:27649   */\n      tag_1007\n      tag_754\n      jump\t// in\n    tag_1007:\n        /* \"#utility.yul\":27537:27659   */\n    tag_1006:\n        /* \"#utility.yul\":27685:27691   */\n      dup4\n        /* \"#utility.yul\":27668:28128   */\n    tag_1008:\n        /* \"#utility.yul\":27702:27708   */\n      dup2\n        /* \"#utility.yul\":27697:27700   */\n      dup2\n        /* \"#utility.yul\":27694:27709   */\n      lt\n        /* \"#utility.yul\":27668:28128   */\n      iszero\n      tag_1010\n      jumpi\n        /* \"#utility.yul\":27791:27794   */\n      dup1\n        /* \"#utility.yul\":27778:27795   */\n      calldataload\n        /* \"#utility.yul\":27827:27845   */\n      0xffffffffffffffff\n        /* \"#utility.yul\":27814:27825   */\n      dup2\n        /* \"#utility.yul\":27811:27846   */\n      gt\n        /* \"#utility.yul\":27808:27930   */\n      iszero\n      tag_1011\n      jumpi\n        /* \"#utility.yul\":27849:27928   */\n      tag_1012\n      tag_737\n      jump\t// in\n    tag_1012:\n        /* \"#utility.yul\":27808:27930   */\n    tag_1011:\n        /* \"#utility.yul\":27973:27984   */\n      dup1\n        /* \"#utility.yul\":27965:27971   */\n      dup7\n        /* \"#utility.yul\":27961:27985   */\n      add\n        /* \"#utility.yul\":28011:28083   */\n      tag_1013\n        /* \"#utility.yul\":28079:28082   */\n      dup10\n        /* \"#utility.yul\":28067:28077   */\n      dup3\n        /* \"#utility.yul\":28011:28083   */\n      tag_757\n      jump\t// in\n    tag_1013:\n        /* \"#utility.yul\":28006:28009   */\n      dup6\n        /* \"#utility.yul\":27999:28084   */\n      mstore\n        /* \"#utility.yul\":28113:28117   */\n      0x20\n        /* \"#utility.yul\":28108:28111   */\n      dup6\n        /* \"#utility.yul\":28104:28118   */\n      add\n        /* \"#utility.yul\":28097:28118   */\n      swap5\n      pop\n        /* \"#utility.yul\":27744:28128   */\n      pop\n      pop\n        /* \"#utility.yul\":27728:27732   */\n      0x20\n        /* \"#utility.yul\":27723:27726   */\n      dup2\n        /* \"#utility.yul\":27719:27733   */\n      add\n        /* \"#utility.yul\":27712:27733   */\n      swap1\n      pop\n        /* \"#utility.yul\":27668:28128   */\n      jump(tag_1008)\n    tag_1010:\n        /* \"#utility.yul\":27672:27693   */\n      pop\n        /* \"#utility.yul\":27251:28134   */\n      pop\n      pop\n        /* \"#utility.yul\":27114:28134   */\n      swap4\n      swap3\n      pop\n      pop\n      pop\n      jump\t// out\n        /* \"#utility.yul\":28158:28598   */\n    tag_759:\n        /* \"#utility.yul\":28264:28269   */\n      0x00\n        /* \"#utility.yul\":28313:28316   */\n      dup3\n        /* \"#utility.yul\":28306:28310   */\n      0x1f\n        /* \"#utility.yul\":28298:28304   */\n      dup4\n        /* \"#utility.yul\":28294:28311   */\n      add\n        /* \"#utility.yul\":28290:28317   */\n      slt\n        /* \"#utility.yul\":28280:28402   */\n      tag_1015\n      jumpi\n        /* \"#utility.yul\":28321:28400   */\n      tag_1016\n      tag_737\n      jump\t// in\n    tag_1016:\n        /* \"#utility.yul\":28280:28402   */\n    tag_1015:\n        /* \"#utility.yul\":28438:28444   */\n      dup2\n        /* \"#utility.yul\":28425:28445   */\n      calldataload\n        /* \"#utility.yul\":28463:28592   */\n      tag_1017\n        /* \"#utility.yul\":28588:28591   */\n      dup5\n        /* \"#utility.yul\":28580:28586   */\n      dup3\n        /* \"#utility.yul\":28573:28577   */\n      0x20\n        /* \"#utility.yul\":28565:28571   */\n      dup7\n        /* \"#utility.yul\":28561:28578   */\n      add\n        /* \"#utility.yul\":28463:28592   */\n      tag_758\n      jump\t// in\n    tag_1017:\n        /* \"#utility.yul\":28454:28592   */\n      swap2\n      pop\n        /* \"#utility.yul\":28270:28598   */\n      pop\n        /* \"#utility.yul\":28158:28598   */\n      swap3\n      swap2\n      pop\n      pop\n      jump\t// out\n        /* \"#utility.yul\":28604:31467   */\n    tag_59:\n        /* \"#utility.yul\":28987:28993   */\n      0x00\n        /* \"#utility.yul\":28995:29001   */\n      dup1\n        /* \"#utility.yul\":29003:29009   */\n      0x00\n        /* \"#utility.yul\":29011:29017   */\n      dup1\n        /* \"#utility.yul\":29019:29025   */\n      0x00\n        /* \"#utility.yul\":29027:29033   */\n      dup1\n        /* \"#utility.yul\":29035:29041   */\n      0x00\n        /* \"#utility.yul\":29084:29087   */\n      0xe0\n        /* \"#utility.yul\":29072:29081   */\n      dup9\n        /* \"#utility.yul\":29063:29070   */\n      dup11\n        /* \"#utility.yul\":29059:29082   */\n      sub\n        /* \"#utility.yul\":29055:29088   */\n      slt\n        /* \"#utility.yul\":29052:29172   */\n      iszero\n      tag_1019\n      jumpi\n        /* \"#utility.yul\":29091:29170   */\n      tag_1020\n      tag_697\n      jump\t// in\n    tag_1020:\n        /* \"#utility.yul\":29052:29172   */\n    tag_1019:\n        /* \"#utility.yul\":29239:29240   */\n      0x00\n        /* \"#utility.yul\":29228:29237   */\n      dup9\n        /* \"#utility.yul\":29224:29241   */\n      add\n        /* \"#utility.yul\":29211:29242   */\n      calldataload\n        /* \"#utility.yul\":29269:29287   */\n      0xffffffffffffffff\n        /* \"#utility.yul\":29261:29267   */\n      dup2\n        /* \"#utility.yul\":29258:29288   */\n      gt\n        /* \"#utility.yul\":29255:29372   */\n      iszero\n      tag_1021\n      jumpi\n        /* \"#utility.yul\":29291:29370   */\n      tag_1022\n      tag_698\n      jump\t// in\n    tag_1022:\n        /* \"#utility.yul\":29255:29372   */\n    tag_1021:\n        /* \"#utility.yul\":29396:29459   */\n      tag_1023\n        /* \"#utility.yul\":29451:29458   */\n      dup11\n        /* \"#utility.yul\":29442:29448   */\n      dup3\n        /* \"#utility.yul\":29431:29440   */\n      dup12\n        /* \"#utility.yul\":29427:29449   */\n      add\n        /* \"#utility.yul\":29396:29459   */\n      tag_744\n      jump\t// in\n    tag_1023:\n        /* \"#utility.yul\":29386:29459   */\n      swap8\n      pop\n        /* \"#utility.yul\":29182:29469   */\n      pop\n        /* \"#utility.yul\":29536:29538   */\n      0x20\n        /* \"#utility.yul\":29525:29534   */\n      dup9\n        /* \"#utility.yul\":29521:29539   */\n      add\n        /* \"#utility.yul\":29508:29540   */\n      calldataload\n        /* \"#utility.yul\":29567:29585   */\n      0xffffffffffffffff\n        /* \"#utility.yul\":29559:29565   */\n      dup2\n        /* \"#utility.yul\":29556:29586   */\n      gt\n        /* \"#utility.yul\":29553:29670   */\n      iszero\n      tag_1024\n      jumpi\n        /* \"#utility.yul\":29589:29668   */\n      tag_1025\n      tag_698\n      jump\t// in\n    tag_1025:\n        /* \"#utility.yul\":29553:29670   */\n    tag_1024:\n        /* \"#utility.yul\":29694:29757   */\n      tag_1026\n        /* \"#utility.yul\":29749:29756   */\n      dup11\n        /* \"#utility.yul\":29740:29746   */\n      dup3\n        /* \"#utility.yul\":29729:29738   */\n      dup12\n        /* \"#utility.yul\":29725:29747   */\n      add\n        /* \"#utility.yul\":29694:29757   */\n      tag_744\n      jump\t// in\n    tag_1026:\n        /* \"#utility.yul\":29684:29757   */\n      swap7\n      pop\n        /* \"#utility.yul\":29479:29767   */\n      pop\n        /* \"#utility.yul\":29834:29836   */\n      0x40\n        /* \"#utility.yul\":29823:29832   */\n      dup9\n        /* \"#utility.yul\":29819:29837   */\n      add\n        /* \"#utility.yul\":29806:29838   */\n      calldataload\n        /* \"#utility.yul\":29865:29883   */\n      0xffffffffffffffff\n        /* \"#utility.yul\":29857:29863   */\n      dup2\n        /* \"#utility.yul\":29854:29884   */\n      gt\n        /* \"#utility.yul\":29851:29968   */\n      iszero\n      tag_1027\n      jumpi\n        /* \"#utility.yul\":29887:29966   */\n      tag_1028\n      tag_698\n      jump\t// in\n    tag_1028:\n        /* \"#utility.yul\":29851:29968   */\n    tag_1027:\n        /* \"#utility.yul\":29992:30055   */\n      tag_1029\n        /* \"#utility.yul\":30047:30054   */\n      dup11\n        /* \"#utility.yul\":30038:30044   */\n      dup3\n        /* \"#utility.yul\":30027:30036   */\n      dup12\n        /* \"#utility.yul\":30023:30045   */\n      add\n        /* \"#utility.yul\":29992:30055   */\n      tag_744\n      jump\t// in\n    tag_1029:\n        /* \"#utility.yul\":29982:30055   */\n      swap6\n      pop\n        /* \"#utility.yul\":29777:30065   */\n      pop\n        /* \"#utility.yul\":30132:30134   */\n      0x60\n        /* \"#utility.yul\":30121:30130   */\n      dup9\n        /* \"#utility.yul\":30117:30135   */\n      add\n        /* \"#utility.yul\":30104:30136   */\n      calldataload\n        /* \"#utility.yul\":30163:30181   */\n      0xffffffffffffffff\n        /* \"#utility.yul\":30155:30161   */\n      dup2\n        /* \"#utility.yul\":30152:30182   */\n      gt\n        /* \"#utility.yul\":30149:30266   */\n      iszero\n      tag_1030\n      jumpi\n        /* \"#utility.yul\":30185:30264   */\n      tag_1031\n      tag_698\n      jump\t// in\n    tag_1031:\n        /* \"#utility.yul\":30149:30266   */\n    tag_1030:\n        /* \"#utility.yul\":30290:30403   */\n      tag_1032\n        /* \"#utility.yul\":30395:30402   */\n      dup11\n        /* \"#utility.yul\":30386:30392   */\n      dup3\n        /* \"#utility.yul\":30375:30384   */\n      dup12\n        /* \"#utility.yul\":30371:30393   */\n      add\n        /* \"#utility.yul\":30290:30403   */\n      tag_759\n      jump\t// in\n    tag_1032:\n        /* \"#utility.yul\":30280:30403   */\n      swap5\n      pop\n        /* \"#utility.yul\":30075:30413   */\n      pop\n        /* \"#utility.yul\":30480:30483   */\n      0x80\n        /* \"#utility.yul\":30469:30478   */\n      dup9\n        /* \"#utility.yul\":30465:30484   */\n      add\n        /* \"#utility.yul\":30452:30485   */\n      calldataload\n        /* \"#utility.yul\":30512:30530   */\n      0xffffffffffffffff\n        /* \"#utility.yul\":30504:30510   */\n      dup2\n        /* \"#utility.yul\":30501:30531   */\n      gt\n        /* \"#utility.yul\":30498:30615   */\n      iszero\n      tag_1033\n      jumpi\n        /* \"#utility.yul\":30534:30613   */\n      tag_1034\n      tag_698\n      jump\t// in\n    tag_1034:\n        /* \"#utility.yul\":30498:30615   */\n    tag_1033:\n        /* \"#utility.yul\":30639:30752   */\n      tag_1035\n        /* \"#utility.yul\":30744:30751   */\n      dup11\n        /* \"#utility.yul\":30735:30741   */\n      dup3\n        /* \"#utility.yul\":30724:30733   */\n      dup12\n        /* \"#utility.yul\":30720:30742   */\n      add\n        /* \"#utility.yul\":30639:30752   */\n      tag_759\n      jump\t// in\n    tag_1035:\n        /* \"#utility.yul\":30629:30752   */\n      swap4\n      pop\n        /* \"#utility.yul\":30423:30762   */\n      pop\n        /* \"#utility.yul\":30829:30832   */\n      0xa0\n        /* \"#utility.yul\":30818:30827   */\n      dup9\n        /* \"#utility.yul\":30814:30833   */\n      add\n        /* \"#utility.yul\":30801:30834   */\n      calldataload\n        /* \"#utility.yul\":30861:30879   */\n      0xffffffffffffffff\n        /* \"#utility.yul\":30853:30859   */\n      dup2\n        /* \"#utility.yul\":30850:30880   */\n      gt\n        /* \"#utility.yul\":30847:30964   */\n      iszero\n      tag_1036\n      jumpi\n        /* \"#utility.yul\":30883:30962   */\n      tag_1037\n      tag_698\n      jump\t// in\n    tag_1037:\n        /* \"#utility.yul\":30847:30964   */\n    tag_1036:\n        /* \"#utility.yul\":30988:31101   */\n      tag_1038\n        /* \"#utility.yul\":31093:31100   */\n      dup11\n        /* \"#utility.yul\":31084:31090   */\n      dup3\n        /* \"#utility.yul\":31073:31082   */\n      dup12\n        /* \"#utility.yul\":31069:31091   */\n      add\n        /* \"#utility.yul\":30988:31101   */\n      tag_759\n      jump\t// in\n    tag_1038:\n        /* \"#utility.yul\":30978:31101   */\n      swap3\n      pop\n        /* \"#utility.yul\":30772:31111   */\n      pop\n        /* \"#utility.yul\":31178:31181   */\n      0xc0\n        /* \"#utility.yul\":31167:31176   */\n      dup9\n        /* \"#utility.yul\":31163:31182   */\n      add\n        /* \"#utility.yul\":31150:31183   */\n      calldataload\n        /* \"#utility.yul\":31210:31228   */\n      0xffffffffffffffff\n        /* \"#utility.yul\":31202:31208   */\n      dup2\n        /* \"#utility.yul\":31199:31229   */\n      gt\n        /* \"#utility.yul\":31196:31313   */\n      iszero\n      tag_1039\n      jumpi\n        /* \"#utility.yul\":31232:31311   */\n      tag_1040\n      tag_698\n      jump\t// in\n    tag_1040:\n        /* \"#utility.yul\":31196:31313   */\n    tag_1039:\n        /* \"#utility.yul\":31337:31450   */\n      tag_1041\n        /* \"#utility.yul\":31442:31449   */\n      dup11\n        /* \"#utility.yul\":31433:31439   */\n      dup3\n        /* \"#utility.yul\":31422:31431   */\n      dup12\n        /* \"#utility.yul\":31418:31440   */\n      add\n        /* \"#utility.yul\":31337:31450   */\n      tag_759\n      jump\t// in\n    tag_1041:\n        /* \"#utility.yul\":31327:31450   */\n      swap2\n      pop\n        /* \"#utility.yul\":31121:31460   */\n      pop\n        /* \"#utility.yul\":28604:31467   */\n      swap3\n      swap6\n      swap9\n      swap2\n      swap5\n      swap8\n      pop\n      swap3\n      swap6\n      pop\n      jump\t// out\n        /* \"#utility.yul\":31473:32832   */\n    tag_63:\n        /* \"#utility.yul\":31680:31686   */\n      0x00\n        /* \"#utility.yul\":31688:31694   */\n      dup1\n        /* \"#utility.yul\":31696:31702   */\n      0x00\n        /* \"#utility.yul\":31745:31747   */\n      0x60\n        /* \"#utility.yul\":31733:31742   */\n      dup5\n        /* \"#utility.yul\":31724:31731   */\n      dup7\n        /* \"#utility.yul\":31720:31743   */\n      sub\n        /* \"#utility.yul\":31716:31748   */\n      slt\n        /* \"#utility.yul\":31713:31832   */\n      iszero\n      tag_1043\n      jumpi\n        /* \"#utility.yul\":31751:31830   */\n      tag_1044\n      tag_697\n      jump\t// in\n    tag_1044:\n        /* \"#utility.yul\":31713:31832   */\n    tag_1043:\n        /* \"#utility.yul\":31899:31900   */\n      0x00\n        /* \"#utility.yul\":31888:31897   */\n      dup5\n        /* \"#utility.yul\":31884:31901   */\n      add\n        /* \"#utility.yul\":31871:31902   */\n      calldataload\n        /* \"#utility.yul\":31929:31947   */\n      0xffffffffffffffff\n        /* \"#utility.yul\":31921:31927   */\n      dup2\n        /* \"#utility.yul\":31918:31948   */\n      gt\n        /* \"#utility.yul\":31915:32032   */\n      iszero\n      tag_1045\n      jumpi\n        /* \"#utility.yul\":31951:32030   */\n      tag_1046\n      tag_698\n      jump\t// in\n    tag_1046:\n        /* \"#utility.yul\":31915:32032   */\n    tag_1045:\n        /* \"#utility.yul\":32056:32119   */\n      tag_1047\n        /* \"#utility.yul\":32111:32118   */\n      dup7\n        /* \"#utility.yul\":32102:32108   */\n      dup3\n        /* \"#utility.yul\":32091:32100   */\n      dup8\n        /* \"#utility.yul\":32087:32109   */\n      add\n        /* \"#utility.yul\":32056:32119   */\n      tag_744\n      jump\t// in\n    tag_1047:\n        /* \"#utility.yul\":32046:32119   */\n      swap4\n      pop\n        /* \"#utility.yul\":31842:32129   */\n      pop\n        /* \"#utility.yul\":32196:32198   */\n      0x20\n        /* \"#utility.yul\":32185:32194   */\n      dup5\n        /* \"#utility.yul\":32181:32199   */\n      add\n        /* \"#utility.yul\":32168:32200   */\n      calldataload\n        /* \"#utility.yul\":32227:32245   */\n      0xffffffffffffffff\n        /* \"#utility.yul\":32219:32225   */\n      dup2\n        /* \"#utility.yul\":32216:32246   */\n      gt\n        /* \"#utility.yul\":32213:32330   */\n      iszero\n      tag_1048\n      jumpi\n        /* \"#utility.yul\":32249:32328   */\n      tag_1049\n      tag_698\n      jump\t// in\n    tag_1049:\n        /* \"#utility.yul\":32213:32330   */\n    tag_1048:\n        /* \"#utility.yul\":32354:32467   */\n      tag_1050\n        /* \"#utility.yul\":32459:32466   */\n      dup7\n        /* \"#utility.yul\":32450:32456   */\n      dup3\n        /* \"#utility.yul\":32439:32448   */\n      dup8\n        /* \"#utility.yul\":32435:32457   */\n      add\n        /* \"#utility.yul\":32354:32467   */\n      tag_759\n      jump\t// in\n    tag_1050:\n        /* \"#utility.yul\":32344:32467   */\n      swap3\n      pop\n        /* \"#utility.yul\":32139:32477   */\n      pop\n        /* \"#utility.yul\":32544:32546   */\n      0x40\n        /* \"#utility.yul\":32533:32542   */\n      dup5\n        /* \"#utility.yul\":32529:32547   */\n      add\n        /* \"#utility.yul\":32516:32548   */\n      calldataload\n        /* \"#utility.yul\":32575:32593   */\n      0xffffffffffffffff\n        /* \"#utility.yul\":32567:32573   */\n      dup2\n        /* \"#utility.yul\":32564:32594   */\n      gt\n        /* \"#utility.yul\":32561:32678   */\n      iszero\n      tag_1051\n      jumpi\n        /* \"#utility.yul\":32597:32676   */\n      tag_1052\n      tag_698\n      jump\t// in\n    tag_1052:\n        /* \"#utility.yul\":32561:32678   */\n    tag_1051:\n        /* \"#utility.yul\":32702:32815   */\n      tag_1053\n        /* \"#utility.yul\":32807:32814   */\n      dup7\n        /* \"#utility.yul\":32798:32804   */\n      dup3\n        /* \"#utility.yul\":32787:32796   */\n      dup8\n        /* \"#utility.yul\":32783:32805   */\n      add\n        /* \"#utility.yul\":32702:32815   */\n      tag_759\n      jump\t// in\n    tag_1053:\n        /* \"#utility.yul\":32692:32815   */\n      swap2\n      pop\n        /* \"#utility.yul\":32487:32825   */\n      pop\n        /* \"#utility.yul\":31473:32832   */\n      swap3\n      pop\n      swap3\n      pop\n      swap3\n      jump\t// out\n        /* \"#utility.yul\":32838:33145   */\n    tag_760:\n        /* \"#utility.yul\":32899:32903   */\n      0x00\n        /* \"#utility.yul\":32989:33007   */\n      0xffffffffffffffff\n        /* \"#utility.yul\":32981:32987   */\n      dup3\n        /* \"#utility.yul\":32978:33008   */\n      gt\n        /* \"#utility.yul\":32975:33031   */\n      iszero\n      tag_1055\n      jumpi\n        /* \"#utility.yul\":33011:33029   */\n      tag_1056\n      tag_108\n      jump\t// in\n    tag_1056:\n        /* \"#utility.yul\":32975:33031   */\n    tag_1055:\n        /* \"#utility.yul\":33049:33078   */\n      tag_1057\n        /* \"#utility.yul\":33071:33077   */\n      dup3\n        /* \"#utility.yul\":33049:33078   */\n      tag_705\n      jump\t// in\n    tag_1057:\n        /* \"#utility.yul\":33041:33078   */\n      swap1\n      pop\n        /* \"#utility.yul\":33133:33137   */\n      0x20\n        /* \"#utility.yul\":33127:33131   */\n      dup2\n        /* \"#utility.yul\":33123:33138   */\n      add\n        /* \"#utility.yul\":33115:33138   */\n      swap1\n      pop\n        /* \"#utility.yul\":32838:33145   */\n      swap2\n      swap1\n      pop\n      jump\t// out\n        /* \"#utility.yul\":33151:33574   */\n    tag_761:\n        /* \"#utility.yul\":33228:33233   */\n      0x00\n        /* \"#utility.yul\":33253:33318   */\n      tag_1059\n        /* \"#utility.yul\":33269:33317   */\n      tag_1060\n        /* \"#utility.yul\":33310:33316   */\n      dup5\n        /* \"#utility.yul\":33269:33317   */\n      tag_760\n      jump\t// in\n    tag_1060:\n        /* \"#utility.yul\":33253:33318   */\n      tag_740\n      jump\t// in\n    tag_1059:\n        /* \"#utility.yul\":33244:33318   */\n      swap1\n      pop\n        /* \"#utility.yul\":33341:33347   */\n      dup3\n        /* \"#utility.yul\":33334:33339   */\n      dup2\n        /* \"#utility.yul\":33327:33348   */\n      mstore\n        /* \"#utility.yul\":33379:33383   */\n      0x20\n        /* \"#utility.yul\":33372:33377   */\n      dup2\n        /* \"#utility.yul\":33368:33384   */\n      add\n        /* \"#utility.yul\":33417:33420   */\n      dup5\n        /* \"#utility.yul\":33408:33414   */\n      dup5\n        /* \"#utility.yul\":33403:33406   */\n      dup5\n        /* \"#utility.yul\":33399:33415   */\n      add\n        /* \"#utility.yul\":33396:33421   */\n      gt\n        /* \"#utility.yul\":33393:33505   */\n      iszero\n      tag_1061\n      jumpi\n        /* \"#utility.yul\":33424:33503   */\n      tag_1062\n      tag_738\n      jump\t// in\n    tag_1062:\n        /* \"#utility.yul\":33393:33505   */\n    tag_1061:\n        /* \"#utility.yul\":33514:33568   */\n      tag_1063\n        /* \"#utility.yul\":33561:33567   */\n      dup5\n        /* \"#utility.yul\":33556:33559   */\n      dup3\n        /* \"#utility.yul\":33551:33554   */\n      dup6\n        /* \"#utility.yul\":33514:33568   */\n      tag_742\n      jump\t// in\n    tag_1063:\n        /* \"#utility.yul\":33234:33574   */\n      pop\n        /* \"#utility.yul\":33151:33574   */\n      swap4\n      swap3\n      pop\n      pop\n      pop\n      jump\t// out\n        /* \"#utility.yul\":33593:33931   */\n    tag_762:\n        /* \"#utility.yul\":33648:33653   */\n      0x00\n        /* \"#utility.yul\":33697:33700   */\n      dup3\n        /* \"#utility.yul\":33690:33694   */\n      0x1f\n        /* \"#utility.yul\":33682:33688   */\n      dup4\n        /* \"#utility.yul\":33678:33695   */\n      add\n        /* \"#utility.yul\":33674:33701   */\n      slt\n        /* \"#utility.yul\":33664:33786   */\n      tag_1065\n      jumpi\n        /* \"#utility.yul\":33705:33784   */\n      tag_1066\n      tag_737\n      jump\t// in\n    tag_1066:\n        /* \"#utility.yul\":33664:33786   */\n    tag_1065:\n        /* \"#utility.yul\":33822:33828   */\n      dup2\n        /* \"#utility.yul\":33809:33829   */\n      calldataload\n        /* \"#utility.yul\":33847:33925   */\n      tag_1067\n        /* \"#utility.yul\":33921:33924   */\n      dup5\n        /* \"#utility.yul\":33913:33919   */\n      dup3\n        /* \"#utility.yul\":33906:33910   */\n      0x20\n        /* \"#utility.yul\":33898:33904   */\n      dup7\n        /* \"#utility.yul\":33894:33911   */\n      add\n        /* \"#utility.yul\":33847:33925   */\n      tag_761\n      jump\t// in\n    tag_1067:\n        /* \"#utility.yul\":33838:33925   */\n      swap2\n      pop\n        /* \"#utility.yul\":33654:33931   */\n      pop\n        /* \"#utility.yul\":33593:33931   */\n      swap3\n      swap2\n      pop\n      pop\n      jump\t// out\n        /* \"#utility.yul\":33937:35746   */\n    tag_73:\n        /* \"#utility.yul\":34081:34087   */\n      0x00\n        /* \"#utility.yul\":34089:34095   */\n      dup1\n        /* \"#utility.yul\":34097:34103   */\n      0x00\n        /* \"#utility.yul\":34105:34111   */\n      dup1\n        /* \"#utility.yul\":34113:34119   */\n      0x00\n        /* \"#utility.yul\":34162:34165   */\n      0xa0\n        /* \"#utility.yul\":34150:34159   */\n      dup7\n        /* \"#utility.yul\":34141:34148   */\n      dup9\n        /* \"#utility.yul\":34137:34160   */\n      sub\n        /* \"#utility.yul\":34133:34166   */\n      slt\n        /* \"#utility.yul\":34130:34250   */\n      iszero\n      tag_1069\n      jumpi\n        /* \"#utility.yul\":34169:34248   */\n      tag_1070\n      tag_697\n      jump\t// in\n    tag_1070:\n        /* \"#utility.yul\":34130:34250   */\n    tag_1069:\n        /* \"#utility.yul\":34317:34318   */\n      0x00\n        /* \"#utility.yul\":34306:34315   */\n      dup7\n        /* \"#utility.yul\":34302:34319   */\n      add\n        /* \"#utility.yul\":34289:34320   */\n      calldataload\n        /* \"#utility.yul\":34347:34365   */\n      0xffffffffffffffff\n        /* \"#utility.yul\":34339:34345   */\n      dup2\n        /* \"#utility.yul\":34336:34366   */\n      gt\n        /* \"#utility.yul\":34333:34450   */\n      iszero\n      tag_1071\n      jumpi\n        /* \"#utility.yul\":34369:34448   */\n      tag_1072\n      tag_698\n      jump\t// in\n    tag_1072:\n        /* \"#utility.yul\":34333:34450   */\n    tag_1071:\n        /* \"#utility.yul\":34474:34537   */\n      tag_1073\n        /* \"#utility.yul\":34529:34536   */\n      dup9\n        /* \"#utility.yul\":34520:34526   */\n      dup3\n        /* \"#utility.yul\":34509:34518   */\n      dup10\n        /* \"#utility.yul\":34505:34527   */\n      add\n        /* \"#utility.yul\":34474:34537   */\n      tag_744\n      jump\t// in\n    tag_1073:\n        /* \"#utility.yul\":34464:34537   */\n      swap6\n      pop\n        /* \"#utility.yul\":34260:34547   */\n      pop\n        /* \"#utility.yul\":34614:34616   */\n      0x20\n        /* \"#utility.yul\":34603:34612   */\n      dup7\n        /* \"#utility.yul\":34599:34617   */\n      add\n        /* \"#utility.yul\":34586:34618   */\n      calldataload\n        /* \"#utility.yul\":34645:34663   */\n      0xffffffffffffffff\n        /* \"#utility.yul\":34637:34643   */\n      dup2\n        /* \"#utility.yul\":34634:34664   */\n      gt\n        /* \"#utility.yul\":34631:34748   */\n      iszero\n      tag_1074\n      jumpi\n        /* \"#utility.yul\":34667:34746   */\n      tag_1075\n      tag_698\n      jump\t// in\n    tag_1075:\n        /* \"#utility.yul\":34631:34748   */\n    tag_1074:\n        /* \"#utility.yul\":34772:34835   */\n      tag_1076\n        /* \"#utility.yul\":34827:34834   */\n      dup9\n        /* \"#utility.yul\":34818:34824   */\n      dup3\n        /* \"#utility.yul\":34807:34816   */\n      dup10\n        /* \"#utility.yul\":34803:34825   */\n      add\n        /* \"#utility.yul\":34772:34835   */\n      tag_744\n      jump\t// in\n    tag_1076:\n        /* \"#utility.yul\":34762:34835   */\n      swap5\n      pop\n        /* \"#utility.yul\":34557:34845   */\n      pop\n        /* \"#utility.yul\":34912:34914   */\n      0x40\n        /* \"#utility.yul\":34901:34910   */\n      dup7\n        /* \"#utility.yul\":34897:34915   */\n      add\n        /* \"#utility.yul\":34884:34916   */\n      calldataload\n        /* \"#utility.yul\":34943:34961   */\n      0xffffffffffffffff\n        /* \"#utility.yul\":34935:34941   */\n      dup2\n        /* \"#utility.yul\":34932:34962   */\n      gt\n        /* \"#utility.yul\":34929:35046   */\n      iszero\n      tag_1077\n      jumpi\n        /* \"#utility.yul\":34965:35044   */\n      tag_1078\n      tag_698\n      jump\t// in\n    tag_1078:\n        /* \"#utility.yul\":34929:35046   */\n    tag_1077:\n        /* \"#utility.yul\":35070:35133   */\n      tag_1079\n        /* \"#utility.yul\":35125:35132   */\n      dup9\n        /* \"#utility.yul\":35116:35122   */\n      dup3\n        /* \"#utility.yul\":35105:35114   */\n      dup10\n        /* \"#utility.yul\":35101:35123   */\n      add\n        /* \"#utility.yul\":35070:35133   */\n      tag_744\n      jump\t// in\n    tag_1079:\n        /* \"#utility.yul\":35060:35133   */\n      swap4\n      pop\n        /* \"#utility.yul\":34855:35143   */\n      pop\n        /* \"#utility.yul\":35210:35212   */\n      0x60\n        /* \"#utility.yul\":35199:35208   */\n      dup7\n        /* \"#utility.yul\":35195:35213   */\n      add\n        /* \"#utility.yul\":35182:35214   */\n      calldataload\n        /* \"#utility.yul\":35241:35259   */\n      0xffffffffffffffff\n        /* \"#utility.yul\":35233:35239   */\n      dup2\n        /* \"#utility.yul\":35230:35260   */\n      gt\n        /* \"#utility.yul\":35227:35344   */\n      iszero\n      tag_1080\n      jumpi\n        /* \"#utility.yul\":35263:35342   */\n      tag_1081\n      tag_698\n      jump\t// in\n    tag_1081:\n        /* \"#utility.yul\":35227:35344   */\n    tag_1080:\n        /* \"#utility.yul\":35368:35431   */\n      tag_1082\n        /* \"#utility.yul\":35423:35430   */\n      dup9\n        /* \"#utility.yul\":35414:35420   */\n      dup3\n        /* \"#utility.yul\":35403:35412   */\n      dup10\n        /* \"#utility.yul\":35399:35421   */\n      add\n        /* \"#utility.yul\":35368:35431   */\n      tag_744\n      jump\t// in\n    tag_1082:\n        /* \"#utility.yul\":35358:35431   */\n      swap3\n      pop\n        /* \"#utility.yul\":35153:35441   */\n      pop\n        /* \"#utility.yul\":35508:35511   */\n      0x80\n        /* \"#utility.yul\":35497:35506   */\n      dup7\n        /* \"#utility.yul\":35493:35512   */\n      add\n        /* \"#utility.yul\":35480:35513   */\n      calldataload\n        /* \"#utility.yul\":35540:35558   */\n      0xffffffffffffffff\n        /* \"#utility.yul\":35532:35538   */\n      dup2\n        /* \"#utility.yul\":35529:35559   */\n      gt\n        /* \"#utility.yul\":35526:35643   */\n      iszero\n      tag_1083\n      jumpi\n        /* \"#utility.yul\":35562:35641   */\n      tag_1084\n      tag_698\n      jump\t// in\n    tag_1084:\n        /* \"#utility.yul\":35526:35643   */\n    tag_1083:\n        /* \"#utility.yul\":35667:35729   */\n      tag_1085\n        /* \"#utility.yul\":35721:35728   */\n      dup9\n        /* \"#utility.yul\":35712:35718   */\n      dup3\n        /* \"#utility.yul\":35701:35710   */\n      dup10\n        /* \"#utility.yul\":35697:35719   */\n      add\n        /* \"#utility.yul\":35667:35729   */\n      tag_762\n      jump\t// in\n    tag_1085:\n        /* \"#utility.yul\":35657:35729   */\n      swap2\n      pop\n        /* \"#utility.yul\":35451:35739   */\n      pop\n        /* \"#utility.yul\":33937:35746   */\n      swap3\n      swap6\n      pop\n      swap3\n      swap6\n      swap1\n      swap4\n      pop\n      jump\t// out\n        /* \"#utility.yul\":35752:35872   */\n    tag_763:\n        /* \"#utility.yul\":35824:35847   */\n      tag_1087\n        /* \"#utility.yul\":35841:35846   */\n      dup2\n        /* \"#utility.yul\":35824:35847   */\n      tag_728\n      jump\t// in\n    tag_1087:\n        /* \"#utility.yul\":35817:35822   */\n      dup2\n        /* \"#utility.yul\":35814:35848   */\n      eq\n        /* \"#utility.yul\":35804:35866   */\n      tag_1088\n      jumpi\n        /* \"#utility.yul\":35862:35863   */\n      0x00\n        /* \"#utility.yul\":35859:35860   */\n      dup1\n        /* \"#utility.yul\":35852:35864   */\n      revert\n        /* \"#utility.yul\":35804:35866   */\n    tag_1088:\n        /* \"#utility.yul\":35752:35872   */\n      pop\n      jump\t// out\n        /* \"#utility.yul\":35878:36015   */\n    tag_764:\n        /* \"#utility.yul\":35923:35928   */\n      0x00\n        /* \"#utility.yul\":35961:35967   */\n      dup2\n        /* \"#utility.yul\":35948:35968   */\n      calldataload\n        /* \"#utility.yul\":35939:35968   */\n      swap1\n      pop\n        /* \"#utility.yul\":35977:36009   */\n      tag_1090\n        /* \"#utility.yul\":36003:36008   */\n      dup2\n        /* \"#utility.yul\":35977:36009   */\n      tag_763\n      jump\t// in\n    tag_1090:\n        /* \"#utility.yul\":35878:36015   */\n      swap3\n      swap2\n      pop\n      pop\n      jump\t// out\n        /* \"#utility.yul\":36021:36998   */\n    tag_81:\n        /* \"#utility.yul\":36117:36123   */\n      0x00\n        /* \"#utility.yul\":36125:36131   */\n      dup1\n        /* \"#utility.yul\":36133:36139   */\n      0x00\n        /* \"#utility.yul\":36182:36184   */\n      0x60\n        /* \"#utility.yul\":36170:36179   */\n      dup5\n        /* \"#utility.yul\":36161:36168   */\n      dup7\n        /* \"#utility.yul\":36157:36180   */\n      sub\n        /* \"#utility.yul\":36153:36185   */\n      slt\n        /* \"#utility.yul\":36150:36269   */\n      iszero\n      tag_1092\n      jumpi\n        /* \"#utility.yul\":36188:36267   */\n      tag_1093\n      tag_697\n      jump\t// in\n    tag_1093:\n        /* \"#utility.yul\":36150:36269   */\n    tag_1092:\n        /* \"#utility.yul\":36336:36337   */\n      0x00\n        /* \"#utility.yul\":36325:36334   */\n      dup5\n        /* \"#utility.yul\":36321:36338   */\n      add\n        /* \"#utility.yul\":36308:36339   */\n      calldataload\n        /* \"#utility.yul\":36366:36384   */\n      0xffffffffffffffff\n        /* \"#utility.yul\":36358:36364   */\n      dup2\n        /* \"#utility.yul\":36355:36385   */\n      gt\n        /* \"#utility.yul\":36352:36469   */\n      iszero\n      tag_1094\n      jumpi\n        /* \"#utility.yul\":36388:36467   */\n      tag_1095\n      tag_698\n      jump\t// in\n    tag_1095:\n        /* \"#utility.yul\":36352:36469   */\n    tag_1094:\n        /* \"#utility.yul\":36493:36556   */\n      tag_1096\n        /* \"#utility.yul\":36548:36555   */\n      dup7\n        /* \"#utility.yul\":36539:36545   */\n      dup3\n        /* \"#utility.yul\":36528:36537   */\n      dup8\n        /* \"#utility.yul\":36524:36546   */\n      add\n        /* \"#utility.yul\":36493:36556   */\n      tag_744\n      jump\t// in\n    tag_1096:\n        /* \"#utility.yul\":36483:36556   */\n      swap4\n      pop\n        /* \"#utility.yul\":36279:36566   */\n      pop\n        /* \"#utility.yul\":36605:36607   */\n      0x20\n        /* \"#utility.yul\":36631:36683   */\n      tag_1097\n        /* \"#utility.yul\":36675:36682   */\n      dup7\n        /* \"#utility.yul\":36666:36672   */\n      dup3\n        /* \"#utility.yul\":36655:36664   */\n      dup8\n        /* \"#utility.yul\":36651:36673   */\n      add\n        /* \"#utility.yul\":36631:36683   */\n      tag_764\n      jump\t// in\n    tag_1097:\n        /* \"#utility.yul\":36621:36683   */\n      swap3\n      pop\n        /* \"#utility.yul\":36576:36693   */\n      pop\n        /* \"#utility.yul\":36760:36762   */\n      0x40\n        /* \"#utility.yul\":36749:36758   */\n      dup5\n        /* \"#utility.yul\":36745:36763   */\n      add\n        /* \"#utility.yul\":36732:36764   */\n      calldataload\n        /* \"#utility.yul\":36791:36809   */\n      0xffffffffffffffff\n        /* \"#utility.yul\":36783:36789   */\n      dup2\n        /* \"#utility.yul\":36780:36810   */\n      gt\n        /* \"#utility.yul\":36777:36894   */\n      iszero\n      tag_1098\n      jumpi\n        /* \"#utility.yul\":36813:36892   */\n      tag_1099\n      tag_698\n      jump\t// in\n    tag_1099:\n        /* \"#utility.yul\":36777:36894   */\n    tag_1098:\n        /* \"#utility.yul\":36918:36981   */\n      tag_1100\n        /* \"#utility.yul\":36973:36980   */\n      dup7\n        /* \"#utility.yul\":36964:36970   */\n      dup3\n        /* \"#utility.yul\":36953:36962   */\n      dup8\n        /* \"#utility.yul\":36949:36971   */\n      add\n        /* \"#utility.yul\":36918:36981   */\n      tag_744\n      jump\t// in\n    tag_1100:\n        /* \"#utility.yul\":36908:36981   */\n      swap2\n      pop\n        /* \"#utility.yul\":36703:36991   */\n      pop\n        /* \"#utility.yul\":36021:36998   */\n      swap3\n      pop\n      swap3\n      pop\n      swap3\n      jump\t// out\n        /* \"#utility.yul\":37004:37120   */\n    tag_765:\n        /* \"#utility.yul\":37074:37095   */\n      tag_1102\n        /* \"#utility.yul\":37089:37094   */\n      dup2\n        /* \"#utility.yul\":37074:37095   */\n      tag_726\n      jump\t// in\n    tag_1102:\n        /* \"#utility.yul\":37067:37072   */\n      dup2\n        /* \"#utility.yul\":37064:37096   */\n      eq\n        /* \"#utility.yul\":37054:37114   */\n      tag_1103\n      jumpi\n        /* \"#utility.yul\":37110:37111   */\n      0x00\n        /* \"#utility.yul\":37107:37108   */\n      dup1\n        /* \"#utility.yul\":37100:37112   */\n      revert\n        /* \"#utility.yul\":37054:37114   */\n    tag_1103:\n        /* \"#utility.yul\":37004:37120   */\n      pop\n      jump\t// out\n        /* \"#utility.yul\":37126:37259   */\n    tag_766:\n        /* \"#utility.yul\":37169:37174   */\n      0x00\n        /* \"#utility.yul\":37207:37213   */\n      dup2\n        /* \"#utility.yul\":37194:37214   */\n      calldataload\n        /* \"#utility.yul\":37185:37214   */\n      swap1\n      pop\n        /* \"#utility.yul\":37223:37253   */\n      tag_1105\n        /* \"#utility.yul\":37247:37252   */\n      dup2\n        /* \"#utility.yul\":37223:37253   */\n      tag_765\n      jump\t// in\n    tag_1105:\n        /* \"#utility.yul\":37126:37259   */\n      swap3\n      swap2\n      pop\n      pop\n      jump\t// out\n        /* \"#utility.yul\":37265:38238   */\n    tag_85:\n        /* \"#utility.yul\":37359:37365   */\n      0x00\n        /* \"#utility.yul\":37367:37373   */\n      dup1\n        /* \"#utility.yul\":37375:37381   */\n      0x00\n        /* \"#utility.yul\":37424:37426   */\n      0x60\n        /* \"#utility.yul\":37412:37421   */\n      dup5\n        /* \"#utility.yul\":37403:37410   */\n      dup7\n        /* \"#utility.yul\":37399:37422   */\n      sub\n        /* \"#utility.yul\":37395:37427   */\n      slt\n        /* \"#utility.yul\":37392:37511   */\n      iszero\n      tag_1107\n      jumpi\n        /* \"#utility.yul\":37430:37509   */\n      tag_1108\n      tag_697\n      jump\t// in\n    tag_1108:\n        /* \"#utility.yul\":37392:37511   */\n    tag_1107:\n        /* \"#utility.yul\":37578:37579   */\n      0x00\n        /* \"#utility.yul\":37567:37576   */\n      dup5\n        /* \"#utility.yul\":37563:37580   */\n      add\n        /* \"#utility.yul\":37550:37581   */\n      calldataload\n        /* \"#utility.yul\":37608:37626   */\n      0xffffffffffffffff\n        /* \"#utility.yul\":37600:37606   */\n      dup2\n        /* \"#utility.yul\":37597:37627   */\n      gt\n        /* \"#utility.yul\":37594:37711   */\n      iszero\n      tag_1109\n      jumpi\n        /* \"#utility.yul\":37630:37709   */\n      tag_1110\n      tag_698\n      jump\t// in\n    tag_1110:\n        /* \"#utility.yul\":37594:37711   */\n    tag_1109:\n        /* \"#utility.yul\":37735:37798   */\n      tag_1111\n        /* \"#utility.yul\":37790:37797   */\n      dup7\n        /* \"#utility.yul\":37781:37787   */\n      dup3\n        /* \"#utility.yul\":37770:37779   */\n      dup8\n        /* \"#utility.yul\":37766:37788   */\n      add\n        /* \"#utility.yul\":37735:37798   */\n      tag_744\n      jump\t// in\n    tag_1111:\n        /* \"#utility.yul\":37725:37798   */\n      swap4\n      pop\n        /* \"#utility.yul\":37521:37808   */\n      pop\n        /* \"#utility.yul\":37875:37877   */\n      0x20\n        /* \"#utility.yul\":37864:37873   */\n      dup5\n        /* \"#utility.yul\":37860:37878   */\n      add\n        /* \"#utility.yul\":37847:37879   */\n      calldataload\n        /* \"#utility.yul\":37906:37924   */\n      0xffffffffffffffff\n        /* \"#utility.yul\":37898:37904   */\n      dup2\n        /* \"#utility.yul\":37895:37925   */\n      gt\n        /* \"#utility.yul\":37892:38009   */\n      iszero\n      tag_1112\n      jumpi\n        /* \"#utility.yul\":37928:38007   */\n      tag_1113\n      tag_698\n      jump\t// in\n    tag_1113:\n        /* \"#utility.yul\":37892:38009   */\n    tag_1112:\n        /* \"#utility.yul\":38033:38096   */\n      tag_1114\n        /* \"#utility.yul\":38088:38095   */\n      dup7\n        /* \"#utility.yul\":38079:38085   */\n      dup3\n        /* \"#utility.yul\":38068:38077   */\n      dup8\n        /* \"#utility.yul\":38064:38086   */\n      add\n        /* \"#utility.yul\":38033:38096   */\n      tag_744\n      jump\t// in\n    tag_1114:\n        /* \"#utility.yul\":38023:38096   */\n      swap3\n      pop\n        /* \"#utility.yul\":37818:38106   */\n      pop\n        /* \"#utility.yul\":38145:38147   */\n      0x40\n        /* \"#utility.yul\":38171:38221   */\n      tag_1115\n        /* \"#utility.yul\":38213:38220   */\n      dup7\n        /* \"#utility.yul\":38204:38210   */\n      dup3\n        /* \"#utility.yul\":38193:38202   */\n      dup8\n        /* \"#utility.yul\":38189:38211   */\n      add\n        /* \"#utility.yul\":38171:38221   */\n      tag_766\n      jump\t// in\n    tag_1115:\n        /* \"#utility.yul\":38161:38221   */\n      swap2\n      pop\n        /* \"#utility.yul\":38116:38231   */\n      pop\n        /* \"#utility.yul\":37265:38238   */\n      swap3\n      pop\n      swap3\n      pop\n      swap3\n      jump\t// out\n        /* \"#utility.yul\":38244:38424   */\n    tag_767:\n        /* \"#utility.yul\":38292:38369   */\n      0x4e487b7100000000000000000000000000000000000000000000000000000000\n        /* \"#utility.yul\":38289:38290   */\n      0x00\n        /* \"#utility.yul\":38282:38370   */\n      mstore\n        /* \"#utility.yul\":38389:38393   */\n      0x22\n        /* \"#utility.yul\":38386:38387   */\n      0x04\n        /* \"#utility.yul\":38379:38394   */\n      mstore\n        /* \"#utility.yul\":38413:38417   */\n      0x24\n        /* \"#utility.yul\":38410:38411   */\n      0x00\n        /* \"#utility.yul\":38403:38418   */\n      revert\n        /* \"#utility.yul\":38430:38750   */\n    tag_90:\n        /* \"#utility.yul\":38474:38480   */\n      0x00\n        /* \"#utility.yul\":38511:38512   */\n      0x02\n        /* \"#utility.yul\":38505:38509   */\n      dup3\n        /* \"#utility.yul\":38501:38513   */\n      div\n        /* \"#utility.yul\":38491:38513   */\n      swap1\n      pop\n        /* \"#utility.yul\":38558:38559   */\n      0x01\n        /* \"#utility.yul\":38552:38556   */\n      dup3\n        /* \"#utility.yul\":38548:38560   */\n      and\n        /* \"#utility.yul\":38579:38597   */\n      dup1\n        /* \"#utility.yul\":38569:38650   */\n      tag_1118\n      jumpi\n        /* \"#utility.yul\":38635:38639   */\n      0x7f\n        /* \"#utility.yul\":38627:38633   */\n      dup3\n        /* \"#utility.yul\":38623:38640   */\n      and\n        /* \"#utility.yul\":38613:38640   */\n      swap2\n      pop\n        /* \"#utility.yul\":38569:38650   */\n    tag_1118:\n        /* \"#utility.yul\":38697:38699   */\n      0x20\n        /* \"#utility.yul\":38689:38695   */\n      dup3\n        /* \"#utility.yul\":38686:38700   */\n      lt\n        /* \"#utility.yul\":38666:38684   */\n      dup2\n        /* \"#utility.yul\":38663:38701   */\n      sub\n        /* \"#utility.yul\":38660:38744   */\n      tag_1119\n      jumpi\n        /* \"#utility.yul\":38716:38734   */\n      tag_1120\n      tag_767\n      jump\t// in\n    tag_1120:\n        /* \"#utility.yul\":38660:38744   */\n    tag_1119:\n        /* \"#utility.yul\":38481:38750   */\n      pop\n        /* \"#utility.yul\":38430:38750   */\n      swap2\n      swap1\n      pop\n      jump\t// out\n        /* \"#utility.yul\":38756:38936   */\n    tag_118:\n        /* \"#utility.yul\":38804:38881   */\n      0x4e487b7100000000000000000000000000000000000000000000000000000000\n        /* \"#utility.yul\":38801:38802   */\n      0x00\n        /* \"#utility.yul\":38794:38882   */\n      mstore\n        /* \"#utility.yul\":38901:38905   */\n      0x32\n        /* \"#utility.yul\":38898:38899   */\n      0x04\n        /* \"#utility.yul\":38891:38906   */\n      mstore\n        /* \"#utility.yul\":38925:38929   */\n      0x24\n        /* \"#utility.yul\":38922:38923   */\n      0x00\n        /* \"#utility.yul\":38915:38930   */\n      revert\n        /* \"#utility.yul\":38942:39090   */\n    tag_768:\n        /* \"#utility.yul\":39044:39055   */\n      0x00\n        /* \"#utility.yul\":39081:39084   */\n      dup2\n        /* \"#utility.yul\":39066:39084   */\n      swap1\n      pop\n        /* \"#utility.yul\":38942:39090   */\n      swap3\n      swap2\n      pop\n      pop\n      jump\t// out\n        /* \"#utility.yul\":39096:39237   */\n    tag_769:\n        /* \"#utility.yul\":39145:39149   */\n      0x00\n        /* \"#utility.yul\":39168:39171   */\n      dup2\n        /* \"#utility.yul\":39160:39171   */\n      swap1\n      pop\n        /* \"#utility.yul\":39191:39194   */\n      dup2\n        /* \"#utility.yul\":39188:39189   */\n      0x00\n        /* \"#utility.yul\":39181:39195   */\n      mstore\n        /* \"#utility.yul\":39225:39229   */\n      0x20\n        /* \"#utility.yul\":39222:39223   */\n      0x00\n        /* \"#utility.yul\":39212:39230   */\n      keccak256\n        /* \"#utility.yul\":39204:39230   */\n      swap1\n      pop\n        /* \"#utility.yul\":39096:39237   */\n      swap2\n      swap1\n      pop\n      jump\t// out\n        /* \"#utility.yul\":39267:40141   */\n    tag_770:\n        /* \"#utility.yul\":39370:39373   */\n      0x00\n        /* \"#utility.yul\":39407:39412   */\n      dup2\n        /* \"#utility.yul\":39401:39413   */\n      sload\n        /* \"#utility.yul\":39436:39472   */\n      tag_1125\n        /* \"#utility.yul\":39462:39471   */\n      dup2\n        /* \"#utility.yul\":39436:39472   */\n      tag_90\n      jump\t// in\n    tag_1125:\n        /* \"#utility.yul\":39488:39577   */\n      tag_1126\n        /* \"#utility.yul\":39570:39576   */\n      dup2\n        /* \"#utility.yul\":39565:39568   */\n      dup7\n        /* \"#utility.yul\":39488:39577   */\n      tag_768\n      jump\t// in\n    tag_1126:\n        /* \"#utility.yul\":39481:39577   */\n      swap5\n      pop\n        /* \"#utility.yul\":39608:39609   */\n      0x01\n        /* \"#utility.yul\":39597:39606   */\n      dup3\n        /* \"#utility.yul\":39593:39610   */\n      and\n        /* \"#utility.yul\":39624:39625   */\n      0x00\n        /* \"#utility.yul\":39619:39785   */\n      dup2\n      eq\n      tag_1128\n      jumpi\n        /* \"#utility.yul\":39799:39800   */\n      0x01\n        /* \"#utility.yul\":39794:40135   */\n      dup2\n      eq\n      tag_1129\n      jumpi\n        /* \"#utility.yul\":39586:40135   */\n      jump(tag_1127)\n        /* \"#utility.yul\":39619:39785   */\n    tag_1128:\n        /* \"#utility.yul\":39703:39707   */\n      0xff\n        /* \"#utility.yul\":39699:39708   */\n      not\n        /* \"#utility.yul\":39688:39697   */\n      dup4\n        /* \"#utility.yul\":39684:39709   */\n      and\n        /* \"#utility.yul\":39679:39682   */\n      dup7\n        /* \"#utility.yul\":39672:39710   */\n      mstore\n        /* \"#utility.yul\":39765:39771   */\n      dup2\n        /* \"#utility.yul\":39758:39772   */\n      iszero\n        /* \"#utility.yul\":39751:39773   */\n      iszero\n        /* \"#utility.yul\":39743:39749   */\n      dup3\n        /* \"#utility.yul\":39739:39774   */\n      mul\n        /* \"#utility.yul\":39734:39737   */\n      dup7\n        /* \"#utility.yul\":39730:39775   */\n      add\n        /* \"#utility.yul\":39723:39775   */\n      swap4\n      pop\n        /* \"#utility.yul\":39619:39785   */\n      jump(tag_1127)\n        /* \"#utility.yul\":39794:40135   */\n    tag_1129:\n        /* \"#utility.yul\":39861:39899   */\n      tag_1130\n        /* \"#utility.yul\":39893:39898   */\n      dup6\n        /* \"#utility.yul\":39861:39899   */\n      tag_769\n      jump\t// in\n    tag_1130:\n        /* \"#utility.yul\":39921:39922   */\n      0x00\n        /* \"#utility.yul\":39935:40089   */\n    tag_1131:\n        /* \"#utility.yul\":39949:39955   */\n      dup4\n        /* \"#utility.yul\":39946:39947   */\n      dup2\n        /* \"#utility.yul\":39943:39956   */\n      lt\n        /* \"#utility.yul\":39935:40089   */\n      iszero\n      tag_1133\n      jumpi\n        /* \"#utility.yul\":40023:40030   */\n      dup2\n        /* \"#utility.yul\":40017:40031   */\n      sload\n        /* \"#utility.yul\":40013:40014   */\n      dup2\n        /* \"#utility.yul\":40008:40011   */\n      dup10\n        /* \"#utility.yul\":40004:40015   */\n      add\n        /* \"#utility.yul\":39997:40032   */\n      mstore\n        /* \"#utility.yul\":40073:40074   */\n      0x01\n        /* \"#utility.yul\":40064:40071   */\n      dup3\n        /* \"#utility.yul\":40060:40075   */\n      add\n        /* \"#utility.yul\":40049:40075   */\n      swap2\n      pop\n        /* \"#utility.yul\":39971:39975   */\n      0x20\n        /* \"#utility.yul\":39968:39969   */\n      dup2\n        /* \"#utility.yul\":39964:39976   */\n      add\n        /* \"#utility.yul\":39959:39976   */\n      swap1\n      pop\n        /* \"#utility.yul\":39935:40089   */\n      jump(tag_1131)\n    tag_1133:\n        /* \"#utility.yul\":40118:40124   */\n      dup4\n        /* \"#utility.yul\":40113:40116   */\n      dup9\n        /* \"#utility.yul\":40109:40125   */\n      add\n        /* \"#utility.yul\":40102:40125   */\n      swap6\n      pop\n        /* \"#utility.yul\":39801:40135   */\n      pop\n      pop\n        /* \"#utility.yul\":39586:40135   */\n    tag_1127:\n      pop\n        /* \"#utility.yul\":39374:40141   */\n      pop\n      pop\n        /* \"#utility.yul\":39267:40141   */\n      swap3\n      swap2\n      pop\n      pop\n      jump\t// out\n        /* \"#utility.yul\":40147:40416   */\n    tag_121:\n        /* \"#utility.yul\":40276:40279   */\n      0x00\n        /* \"#utility.yul\":40298:40390   */\n      tag_1135\n        /* \"#utility.yul\":40386:40389   */\n      dup3\n        /* \"#utility.yul\":40377:40383   */\n      dup5\n        /* \"#utility.yul\":40298:40390   */\n      tag_770\n      jump\t// in\n    tag_1135:\n        /* \"#utility.yul\":40291:40390   */\n      swap2\n      pop\n        /* \"#utility.yul\":40407:40410   */\n      dup2\n        /* \"#utility.yul\":40400:40410   */\n      swap1\n      pop\n        /* \"#utility.yul\":40147:40416   */\n      swap3\n      swap2\n      pop\n      pop\n      jump\t// out\n        /* \"#utility.yul\":40422:40602   */\n    tag_771:\n        /* \"#utility.yul\":40470:40547   */\n      0x4e487b7100000000000000000000000000000000000000000000000000000000\n        /* \"#utility.yul\":40467:40468   */\n      0x00\n        /* \"#utility.yul\":40460:40548   */\n      mstore\n        /* \"#utility.yul\":40567:40571   */\n      0x11\n        /* \"#utility.yul\":40564:40565   */\n      0x04\n        /* \"#utility.yul\":40557:40572   */\n      mstore\n        /* \"#utility.yul\":40591:40595   */\n      0x24\n        /* \"#utility.yul\":40588:40589   */\n      0x00\n        /* \"#utility.yul\":40581:40596   */\n      revert\n        /* \"#utility.yul\":40608:40841   */\n    tag_191:\n        /* \"#utility.yul\":40647:40650   */\n      0x00\n        /* \"#utility.yul\":40670:40694   */\n      tag_1138\n        /* \"#utility.yul\":40688:40693   */\n      dup3\n        /* \"#utility.yul\":40670:40694   */\n      tag_699\n      jump\t// in\n    tag_1138:\n        /* \"#utility.yul\":40661:40694   */\n      swap2\n      pop\n        /* \"#utility.yul\":40716:40782   */\n      0xffffffffffffffffffffffffffffffffffffffffffffffffffffffffffffffff\n        /* \"#utility.yul\":40709:40714   */\n      dup3\n        /* \"#utility.yul\":40706:40783   */\n      sub\n        /* \"#utility.yul\":40703:40806   */\n      tag_1139\n      jumpi\n        /* \"#utility.yul\":40786:40804   */\n      tag_1140\n      tag_771\n      jump\t// in\n    tag_1140:\n        /* \"#utility.yul\":40703:40806   */\n    tag_1139:\n        /* \"#utility.yul\":40833:40834   */\n      0x01\n        /* \"#utility.yul\":40826:40831   */\n      dup3\n        /* \"#utility.yul\":40822:40835   */\n      add\n        /* \"#utility.yul\":40815:40835   */\n      swap1\n      pop\n        /* \"#utility.yul\":40608:40841   */\n      swap2\n      swap1\n      pop\n      jump\t// out\n        /* \"#utility.yul\":40847:41237   */\n    tag_772:\n        /* \"#utility.yul\":40953:40956   */\n      0x00\n        /* \"#utility.yul\":40981:41020   */\n      tag_1142\n        /* \"#utility.yul\":41014:41019   */\n      dup3\n        /* \"#utility.yul\":40981:41020   */\n      tag_702\n      jump\t// in\n    tag_1142:\n        /* \"#utility.yul\":41036:41125   */\n      tag_1143\n        /* \"#utility.yul\":41118:41124   */\n      dup2\n        /* \"#utility.yul\":41113:41116   */\n      dup6\n        /* \"#utility.yul\":41036:41125   */\n      tag_768\n      jump\t// in\n    tag_1143:\n        /* \"#utility.yul\":41029:41125   */\n      swap4\n      pop\n        /* \"#utility.yul\":41134:41199   */\n      tag_1144\n        /* \"#utility.yul\":41192:41198   */\n      dup2\n        /* \"#utility.yul\":41187:41190   */\n      dup6\n        /* \"#utility.yul\":41180:41184   */\n      0x20\n        /* \"#utility.yul\":41173:41178   */\n      dup7\n        /* \"#utility.yul\":41169:41185   */\n      add\n        /* \"#utility.yul\":41134:41199   */\n      tag_704\n      jump\t// in\n    tag_1144:\n        /* \"#utility.yul\":41224:41230   */\n      dup1\n        /* \"#utility.yul\":41219:41222   */\n      dup5\n        /* \"#utility.yul\":41215:41231   */\n      add\n        /* \"#utility.yul\":41208:41231   */\n      swap2\n      pop\n        /* \"#utility.yul\":40957:41237   */\n      pop\n        /* \"#utility.yul\":40847:41237   */\n      swap3\n      swap2\n      pop\n      pop\n      jump\t// out\n        /* \"#utility.yul\":41243:41518   */\n    tag_379:\n        /* \"#utility.yul\":41375:41378   */\n      0x00\n        /* \"#utility.yul\":41397:41492   */\n      tag_1146\n        /* \"#utility.yul\":41488:41491   */\n      dup3\n        /* \"#utility.yul\":41479:41485   */\n      dup5\n        /* \"#utility.yul\":41397:41492   */\n      tag_772\n      jump\t// in\n    tag_1146:\n        /* \"#utility.yul\":41390:41492   */\n      swap2\n      pop\n        /* \"#utility.yul\":41509:41512   */\n      dup2\n        /* \"#utility.yul\":41502:41512   */\n      swap1\n      pop\n        /* \"#utility.yul\":41243:41518   */\n      swap3\n      swap2\n      pop\n      pop\n      jump\t// out\n        /* \"#utility.yul\":41524:41617   */\n    tag_773:\n        /* \"#utility.yul\":41561:41567   */\n      0x00\n        /* \"#utility.yul\":41608:41610   */\n      0x20\n        /* \"#utility.yul\":41603:41605   */\n      0x1f\n        /* \"#utility.yul\":41596:41601   */\n      dup4\n        /* \"#utility.yul\":41592:41606   */\n      add\n        /* \"#utility.yul\":41588:41611   */\n      div\n        /* \"#utility.yul\":41578:41611   */\n      swap1\n      pop\n        /* \"#utility.yul\":41524:41617   */\n      swap2\n      swap1\n      pop\n      jump\t// out\n        /* \"#utility.yul\":41623:41730   */\n    tag_774:\n        /* \"#utility.yul\":41667:41675   */\n      0x00\n        /* \"#utility.yul\":41717:41722   */\n      dup3\n        /* \"#utility.yul\":41711:41715   */\n      dup3\n        /* \"#utility.yul\":41707:41723   */\n      shl\n        /* \"#utility.yul\":41686:41723   */\n      swap1\n      pop\n        /* \"#utility.yul\":41623:41730   */\n      swap3\n      swap2\n      pop\n      pop\n      jump\t// out\n        /* \"#utility.yul\":41736:42129   */\n    tag_775:\n        /* \"#utility.yul\":41805:41811   */\n      0x00\n        /* \"#utility.yul\":41855:41856   */\n      0x08\n        /* \"#utility.yul\":41843:41853   */\n      dup4\n        /* \"#utility.yul\":41839:41857   */\n      mul\n        /* \"#utility.yul\":41878:41975   */\n      tag_1150\n        /* \"#utility.yul\":41908:41974   */\n      0xffffffffffffffffffffffffffffffffffffffffffffffffffffffffffffffff\n        /* \"#utility.yul\":41897:41906   */\n      dup3\n        /* \"#utility.yul\":41878:41975   */\n      tag_774\n      jump\t// in\n    tag_1150:\n        /* \"#utility.yul\":41996:42035   */\n      tag_1151\n        /* \"#utility.yul\":42026:42034   */\n      dup7\n        /* \"#utility.yul\":42015:42024   */\n      dup4\n        /* \"#utility.yul\":41996:42035   */\n      tag_774\n      jump\t// in\n    tag_1151:\n        /* \"#utility.yul\":41984:42035   */\n      swap6\n      pop\n        /* \"#utility.yul\":42068:42072   */\n      dup1\n        /* \"#utility.yul\":42064:42073   */\n      not\n        /* \"#utility.yul\":42057:42062   */\n      dup5\n        /* \"#utility.yul\":42053:42074   */\n      and\n        /* \"#utility.yul\":42044:42074   */\n      swap4\n      pop\n        /* \"#utility.yul\":42117:42121   */\n      dup1\n        /* \"#utility.yul\":42107:42115   */\n      dup7\n        /* \"#utility.yul\":42103:42122   */\n      and\n        /* \"#utility.yul\":42096:42101   */\n      dup5\n        /* \"#utility.yul\":42093:42123   */\n      or\n        /* \"#utility.yul\":42083:42123   */\n      swap3\n      pop\n        /* \"#utility.yul\":41812:42129   */\n      pop\n      pop\n        /* \"#utility.yul\":41736:42129   */\n      swap4\n      swap3\n      pop\n      pop\n      pop\n      jump\t// out\n        /* \"#utility.yul\":42135:42195   */\n    tag_776:\n        /* \"#utility.yul\":42163:42166   */\n      0x00\n        /* \"#utility.yul\":42184:42189   */\n      dup2\n        /* \"#utility.yul\":42177:42189   */\n      swap1\n      pop\n        /* \"#utility.yul\":42135:42195   */\n      swap2\n      swap1\n      pop\n      jump\t// out\n        /* \"#utility.yul\":42201:42343   */\n    tag_777:\n        /* \"#utility.yul\":42251:42260   */\n      0x00\n        /* \"#utility.yul\":42284:42337   */\n      tag_1154\n        /* \"#utility.yul\":42302:42336   */\n      tag_1155\n        /* \"#utility.yul\":42311:42335   */\n      tag_1156\n        /* \"#utility.yul\":42329:42334   */\n      dup5\n        /* \"#utility.yul\":42311:42335   */\n      tag_699\n      jump\t// in\n    tag_1156:\n        /* \"#utility.yul\":42302:42336   */\n      tag_776\n      jump\t// in\n    tag_1155:\n        /* \"#utility.yul\":42284:42337   */\n      tag_699\n      jump\t// in\n    tag_1154:\n        /* \"#utility.yul\":42271:42337   */\n      swap1\n      pop\n        /* \"#utility.yul\":42201:42343   */\n      swap2\n      swap1\n      pop\n      jump\t// out\n        /* \"#utility.yul\":42349:42424   */\n    tag_778:\n        /* \"#utility.yul\":42392:42395   */\n      0x00\n        /* \"#utility.yul\":42413:42418   */\n      dup2\n        /* \"#utility.yul\":42406:42418   */\n      swap1\n      pop\n        /* \"#utility.yul\":42349:42424   */\n      swap2\n      swap1\n      pop\n      jump\t// out\n        /* \"#utility.yul\":42430:42699   */\n    tag_779:\n        /* \"#utility.yul\":42540:42579   */\n      tag_1159\n        /* \"#utility.yul\":42571:42578   */\n      dup4\n        /* \"#utility.yul\":42540:42579   */\n      tag_777\n      jump\t// in\n    tag_1159:\n        /* \"#utility.yul\":42601:42692   */\n      tag_1160\n        /* \"#utility.yul\":42650:42691   */\n      tag_1161\n        /* \"#utility.yul\":42674:42690   */\n      dup3\n        /* \"#utility.yul\":42650:42691   */\n      tag_778\n      jump\t// in\n    tag_1161:\n        /* \"#utility.yul\":42642:42648   */\n      dup5\n        /* \"#utility.yul\":42635:42639   */\n      dup5\n        /* \"#utility.yul\":42629:42640   */\n      sload\n        /* \"#utility.yul\":42601:42692   */\n      tag_775\n      jump\t// in\n    tag_1160:\n        /* \"#utility.yul\":42595:42599   */\n      dup3\n        /* \"#utility.yul\":42588:42693   */\n      sstore\n        /* \"#utility.yul\":42506:42699   */\n      pop\n        /* \"#utility.yul\":42430:42699   */\n      pop\n      pop\n      pop\n      jump\t// out\n        /* \"#utility.yul\":42705:42778   */\n    tag_780:\n        /* \"#utility.yul\":42750:42753   */\n      0x00\n        /* \"#utility.yul\":42705:42778   */\n      swap1\n      jump\t// out\n        /* \"#utility.yul\":42784:42973   */\n    tag_781:\n        /* \"#utility.yul\":42861:42893   */\n      tag_1164\n      tag_780\n      jump\t// in\n    tag_1164:\n        /* \"#utility.yul\":42902:42967   */\n      tag_1165\n        /* \"#utility.yul\":42960:42966   */\n      dup2\n        /* \"#utility.yul\":42952:42958   */\n      dup5\n        /* \"#utility.yul\":42946:42950   */\n      dup5\n        /* \"#utility.yul\":42902:42967   */\n      tag_779\n      jump\t// in\n    tag_1165:\n        /* \"#utility.yul\":42837:42973   */\n      pop\n        /* \"#utility.yul\":42784:42973   */\n      pop\n      pop\n      jump\t// out\n        /* \"#utility.yul\":42979:43165   */\n    tag_782:\n        /* \"#utility.yul\":43039:43159   */\n    tag_1167:\n        /* \"#utility.yul\":43056:43059   */\n      dup2\n        /* \"#utility.yul\":43049:43054   */\n      dup2\n        /* \"#utility.yul\":43046:43060   */\n      lt\n        /* \"#utility.yul\":43039:43159   */\n      iszero\n      tag_1169\n      jumpi\n        /* \"#utility.yul\":43110:43149   */\n      tag_1170\n        /* \"#utility.yul\":43147:43148   */\n      0x00\n        /* \"#utility.yul\":43140:43145   */\n      dup3\n        /* \"#utility.yul\":43110:43149   */\n      tag_781\n      jump\t// in\n    tag_1170:\n        /* \"#utility.yul\":43083:43084   */\n      0x01\n        /* \"#utility.yul\":43076:43081   */\n      dup2\n        /* \"#utility.yul\":43072:43085   */\n      add\n        /* \"#utility.yul\":43063:43085   */\n      swap1\n      pop\n        /* \"#utility.yul\":43039:43159   */\n      jump(tag_1167)\n    tag_1169:\n        /* \"#utility.yul\":42979:43165   */\n      pop\n      pop\n      jump\t// out\n        /* \"#utility.yul\":43171:43714   */\n    tag_783:\n        /* \"#utility.yul\":43272:43274   */\n      0x1f\n        /* \"#utility.yul\":43267:43270   */\n      dup3\n        /* \"#utility.yul\":43264:43275   */\n      gt\n        /* \"#utility.yul\":43261:43707   */\n      iszero\n      tag_1172\n      jumpi\n        /* \"#utility.yul\":43306:43344   */\n      tag_1173\n        /* \"#utility.yul\":43338:43343   */\n      dup2\n        /* \"#utility.yul\":43306:43344   */\n      tag_769\n      jump\t// in\n    tag_1173:\n        /* \"#utility.yul\":43390:43419   */\n      tag_1174\n        /* \"#utility.yul\":43408:43418   */\n      dup5\n        /* \"#utility.yul\":43390:43419   */\n      tag_773\n      jump\t// in\n    tag_1174:\n        /* \"#utility.yul\":43380:43388   */\n      dup2\n        /* \"#utility.yul\":43376:43420   */\n      add\n        /* \"#utility.yul\":43573:43575   */\n      0x20\n        /* \"#utility.yul\":43561:43571   */\n      dup6\n        /* \"#utility.yul\":43558:43576   */\n      lt\n        /* \"#utility.yul\":43555:43604   */\n      iszero\n      tag_1175\n      jumpi\n        /* \"#utility.yul\":43594:43602   */\n      dup2\n        /* \"#utility.yul\":43579:43602   */\n      swap1\n      pop\n        /* \"#utility.yul\":43555:43604   */\n    tag_1175:\n        /* \"#utility.yul\":43617:43697   */\n      tag_1176\n        /* \"#utility.yul\":43673:43695   */\n      tag_1177\n        /* \"#utility.yul\":43691:43694   */\n      dup6\n        /* \"#utility.yul\":43673:43695   */\n      tag_773\n      jump\t// in\n    tag_1177:\n        /* \"#utility.yul\":43663:43671   */\n      dup4\n        /* \"#utility.yul\":43659:43696   */\n      add\n        /* \"#utility.yul\":43646:43657   */\n      dup3\n        /* \"#utility.yul\":43617:43697   */\n      tag_782\n      jump\t// in\n    tag_1176:\n        /* \"#utility.yul\":43276:43707   */\n      pop\n      pop\n        /* \"#utility.yul\":43261:43707   */\n    tag_1172:\n        /* \"#utility.yul\":43171:43714   */\n      pop\n      pop\n      pop\n      jump\t// out\n        /* \"#utility.yul\":43720:43837   */\n    tag_784:\n        /* \"#utility.yul\":43774:43782   */\n      0x00\n        /* \"#utility.yul\":43824:43829   */\n      dup3\n        /* \"#utility.yul\":43818:43822   */\n      dup3\n        /* \"#utility.yul\":43814:43830   */\n      shr\n        /* \"#utility.yul\":43793:43830   */\n      swap1\n      pop\n        /* \"#utility.yul\":43720:43837   */\n      swap3\n      swap2\n      pop\n      pop\n      jump\t// out\n        /* \"#utility.yul\":43843:44012   */\n    tag_785:\n        /* \"#utility.yul\":43887:43893   */\n      0x00\n        /* \"#utility.yul\":43920:43971   */\n      tag_1180\n        /* \"#utility.yul\":43968:43969   */\n      0x00\n        /* \"#utility.yul\":43964:43970   */\n      not\n        /* \"#utility.yul\":43956:43961   */\n      dup5\n        /* \"#utility.yul\":43953:43954   */\n      0x08\n        /* \"#utility.yul\":43949:43962   */\n      mul\n        /* \"#utility.yul\":43920:43971   */\n      tag_784\n      jump\t// in\n    tag_1180:\n        /* \"#utility.yul\":43916:43972   */\n      not\n        /* \"#utility.yul\":44001:44005   */\n      dup1\n        /* \"#utility.yul\":43995:43999   */\n      dup4\n        /* \"#utility.yul\":43991:44006   */\n      and\n        /* \"#utility.yul\":43981:44006   */\n      swap2\n      pop\n        /* \"#utility.yul\":43894:44012   */\n      pop\n        /* \"#utility.yul\":43843:44012   */\n      swap3\n      swap2\n      pop\n      pop\n      jump\t// out\n        /* \"#utility.yul\":44017:44312   */\n    tag_786:\n        /* \"#utility.yul\":44093:44097   */\n      0x00\n        /* \"#utility.yul\":44239:44268   */\n      tag_1182\n        /* \"#utility.yul\":44264:44267   */\n      dup4\n        /* \"#utility.yul\":44258:44262   */\n      dup4\n        /* \"#utility.yul\":44239:44268   */\n      tag_785\n      jump\t// in\n    tag_1182:\n        /* \"#utility.yul\":44231:44268   */\n      swap2\n      pop\n        /* \"#utility.yul\":44301:44304   */\n      dup3\n        /* \"#utility.yul\":44298:44299   */\n      0x02\n        /* \"#utility.yul\":44294:44305   */\n      mul\n        /* \"#utility.yul\":44288:44292   */\n      dup3\n        /* \"#utility.yul\":44285:44306   */\n      or\n        /* \"#utility.yul\":44277:44306   */\n      swap1\n      pop\n        /* \"#utility.yul\":44017:44312   */\n      swap3\n      swap2\n      pop\n      pop\n      jump\t// out\n        /* \"#utility.yul\":44317:45712   */\n    tag_382:\n        /* \"#utility.yul\":44434:44471   */\n      tag_1184\n        /* \"#utility.yul\":44467:44470   */\n      dup3\n        /* \"#utility.yul\":44434:44471   */\n      tag_702\n      jump\t// in\n    tag_1184:\n        /* \"#utility.yul\":44536:44554   */\n      0xffffffffffffffff\n        /* \"#utility.yul\":44528:44534   */\n      dup2\n        /* \"#utility.yul\":44525:44555   */\n      gt\n        /* \"#utility.yul\":44522:44578   */\n      iszero\n      tag_1185\n      jumpi\n        /* \"#utility.yul\":44558:44576   */\n      tag_1186\n      tag_108\n      jump\t// in\n    tag_1186:\n        /* \"#utility.yul\":44522:44578   */\n    tag_1185:\n        /* \"#utility.yul\":44602:44640   */\n      tag_1187\n        /* \"#utility.yul\":44634:44638   */\n      dup3\n        /* \"#utility.yul\":44628:44639   */\n      sload\n        /* \"#utility.yul\":44602:44640   */\n      tag_90\n      jump\t// in\n    tag_1187:\n        /* \"#utility.yul\":44687:44754   */\n      tag_1188\n        /* \"#utility.yul\":44747:44753   */\n      dup3\n        /* \"#utility.yul\":44739:44745   */\n      dup3\n        /* \"#utility.yul\":44733:44737   */\n      dup6\n        /* \"#utility.yul\":44687:44754   */\n      tag_783\n      jump\t// in\n    tag_1188:\n        /* \"#utility.yul\":44781:44782   */\n      0x00\n        /* \"#utility.yul\":44805:44809   */\n      0x20\n        /* \"#utility.yul\":44792:44809   */\n      swap1\n      pop\n        /* \"#utility.yul\":44837:44839   */\n      0x1f\n        /* \"#utility.yul\":44829:44835   */\n      dup4\n        /* \"#utility.yul\":44826:44840   */\n      gt\n        /* \"#utility.yul\":44854:44855   */\n      0x01\n        /* \"#utility.yul\":44849:45467   */\n      dup2\n      eq\n      tag_1190\n      jumpi\n        /* \"#utility.yul\":45511:45512   */\n      0x00\n        /* \"#utility.yul\":45528:45534   */\n      dup5\n        /* \"#utility.yul\":45525:45602   */\n      iszero\n      tag_1191\n      jumpi\n        /* \"#utility.yul\":45577:45586   */\n      dup3\n        /* \"#utility.yul\":45572:45575   */\n      dup8\n        /* \"#utility.yul\":45568:45587   */\n      add\n        /* \"#utility.yul\":45562:45588   */\n      mload\n        /* \"#utility.yul\":45553:45588   */\n      swap1\n      pop\n        /* \"#utility.yul\":45525:45602   */\n    tag_1191:\n        /* \"#utility.yul\":45628:45695   */\n      tag_1192\n        /* \"#utility.yul\":45688:45694   */\n      dup6\n        /* \"#utility.yul\":45681:45686   */\n      dup3\n        /* \"#utility.yul\":45628:45695   */\n      tag_786\n      jump\t// in\n    tag_1192:\n        /* \"#utility.yul\":45622:45626   */\n      dup7\n        /* \"#utility.yul\":45615:45696   */\n      sstore\n        /* \"#utility.yul\":45484:45706   */\n      pop\n        /* \"#utility.yul\":44819:45706   */\n      jump(tag_1189)\n        /* \"#utility.yul\":44849:45467   */\n    tag_1190:\n        /* \"#utility.yul\":44901:44905   */\n      0x1f\n        /* \"#utility.yul\":44897:44906   */\n      not\n        /* \"#utility.yul\":44889:44895   */\n      dup5\n        /* \"#utility.yul\":44885:44907   */\n      and\n        /* \"#utility.yul\":44935:44972   */\n      tag_1193\n        /* \"#utility.yul\":44967:44971   */\n      dup7\n        /* \"#utility.yul\":44935:44972   */\n      tag_769\n      jump\t// in\n    tag_1193:\n        /* \"#utility.yul\":44994:44995   */\n      0x00\n        /* \"#utility.yul\":45008:45216   */\n    tag_1194:\n        /* \"#utility.yul\":45022:45029   */\n      dup3\n        /* \"#utility.yul\":45019:45020   */\n      dup2\n        /* \"#utility.yul\":45016:45030   */\n      lt\n        /* \"#utility.yul\":45008:45216   */\n      iszero\n      tag_1196\n      jumpi\n        /* \"#utility.yul\":45101:45110   */\n      dup5\n        /* \"#utility.yul\":45096:45099   */\n      dup10\n        /* \"#utility.yul\":45092:45111   */\n      add\n        /* \"#utility.yul\":45086:45112   */\n      mload\n        /* \"#utility.yul\":45078:45084   */\n      dup3\n        /* \"#utility.yul\":45071:45113   */\n      sstore\n        /* \"#utility.yul\":45152:45153   */\n      0x01\n        /* \"#utility.yul\":45144:45150   */\n      dup3\n        /* \"#utility.yul\":45140:45154   */\n      add\n        /* \"#utility.yul\":45130:45154   */\n      swap2\n      pop\n        /* \"#utility.yul\":45199:45201   */\n      0x20\n        /* \"#utility.yul\":45188:45197   */\n      dup6\n        /* \"#utility.yul\":45184:45202   */\n      add\n        /* \"#utility.yul\":45171:45202   */\n      swap5\n      pop\n        /* \"#utility.yul\":45045:45049   */\n      0x20\n        /* \"#utility.yul\":45042:45043   */\n      dup2\n        /* \"#utility.yul\":45038:45050   */\n      add\n        /* \"#utility.yul\":45033:45050   */\n      swap1\n      pop\n        /* \"#utility.yul\":45008:45216   */\n      jump(tag_1194)\n    tag_1196:\n        /* \"#utility.yul\":45244:45250   */\n      dup7\n        /* \"#utility.yul\":45235:45242   */\n      dup4\n        /* \"#utility.yul\":45232:45251   */\n      lt\n        /* \"#utility.yul\":45229:45408   */\n      iszero\n      tag_1197\n      jumpi\n        /* \"#utility.yul\":45302:45311   */\n      dup5\n        /* \"#utility.yul\":45297:45300   */\n      dup10\n        /* \"#utility.yul\":45293:45312   */\n      add\n        /* \"#utility.yul\":45287:45313   */\n      mload\n        /* \"#utility.yul\":45345:45393   */\n      tag_1198\n        /* \"#utility.yul\":45387:45391   */\n      0x1f\n        /* \"#utility.yul\":45379:45385   */\n      dup10\n        /* \"#utility.yul\":45375:45392   */\n      and\n        /* \"#utility.yul\":45364:45373   */\n      dup3\n        /* \"#utility.yul\":45345:45393   */\n      tag_785\n      jump\t// in\n    tag_1198:\n        /* \"#utility.yul\":45337:45343   */\n      dup4\n        /* \"#utility.yul\":45330:45394   */\n      sstore\n        /* \"#utility.yul\":45252:45408   */\n      pop\n        /* \"#utility.yul\":45229:45408   */\n    tag_1197:\n        /* \"#utility.yul\":45454:45455   */\n      0x01\n        /* \"#utility.yul\":45450:45451   */\n      0x02\n        /* \"#utility.yul\":45442:45448   */\n      dup9\n        /* \"#utility.yul\":45438:45452   */\n      mul\n        /* \"#utility.yul\":45434:45456   */\n      add\n        /* \"#utility.yul\":45428:45432   */\n      dup9\n        /* \"#utility.yul\":45421:45457   */\n      sstore\n        /* \"#utility.yul\":44856:45467   */\n      pop\n      pop\n      pop\n        /* \"#utility.yul\":44819:45706   */\n    tag_1189:\n      pop\n        /* \"#utility.yul\":44409:45712   */\n      pop\n      pop\n      pop\n        /* \"#utility.yul\":44317:45712   */\n      pop\n      pop\n      jump\t// out\n        /* \"#utility.yul\":45718:45858   */\n    tag_787:\n        /* \"#utility.yul\":45766:45770   */\n      0x00\n        /* \"#utility.yul\":45789:45792   */\n      dup2\n        /* \"#utility.yul\":45781:45792   */\n      swap1\n      pop\n        /* \"#utility.yul\":45812:45815   */\n      dup2\n        /* \"#utility.yul\":45809:45810   */\n      0x00\n        /* \"#utility.yul\":45802:45816   */\n      mstore\n        /* \"#utility.yul\":45846:45850   */\n      0x20\n        /* \"#utility.yul\":45843:45844   */\n      0x00\n        /* \"#utility.yul\":45833:45851   */\n      keccak256\n        /* \"#utility.yul\":45825:45851   */\n      swap1\n      pop\n        /* \"#utility.yul\":45718:45858   */\n      swap2\n      swap1\n      pop\n      jump\t// out\n        /* \"#utility.yul\":45864:46405   */\n    tag_788:\n        /* \"#utility.yul\":45964:45966   */\n      0x1f\n        /* \"#utility.yul\":45959:45962   */\n      dup3\n        /* \"#utility.yul\":45956:45967   */\n      gt\n        /* \"#utility.yul\":45953:46398   */\n      iszero\n      tag_1201\n      jumpi\n        /* \"#utility.yul\":45998:46035   */\n      tag_1202\n        /* \"#utility.yul\":46029:46034   */\n      dup2\n        /* \"#utility.yul\":45998:46035   */\n      tag_787\n      jump\t// in\n    tag_1202:\n        /* \"#utility.yul\":46081:46110   */\n      tag_1203\n        /* \"#utility.yul\":46099:46109   */\n      dup5\n        /* \"#utility.yul\":46081:46110   */\n      tag_773\n      jump\t// in\n    tag_1203:\n        /* \"#utility.yul\":46071:46079   */\n      dup2\n        /* \"#utility.yul\":46067:46111   */\n      add\n        /* \"#utility.yul\":46264:46266   */\n      0x20\n        /* \"#utility.yul\":46252:46262   */\n      dup6\n        /* \"#utility.yul\":46249:46267   */\n      lt\n        /* \"#utility.yul\":46246:46295   */\n      iszero\n      tag_1204\n      jumpi\n        /* \"#utility.yul\":46285:46293   */\n      dup2\n        /* \"#utility.yul\":46270:46293   */\n      swap1\n      pop\n        /* \"#utility.yul\":46246:46295   */\n    tag_1204:\n        /* \"#utility.yul\":46308:46388   */\n      tag_1205\n        /* \"#utility.yul\":46364:46386   */\n      tag_1206\n        /* \"#utility.yul\":46382:46385   */\n      dup6\n        /* \"#utility.yul\":46364:46386   */\n      tag_773\n      jump\t// in\n    tag_1206:\n        /* \"#utility.yul\":46354:46362   */\n      dup4\n        /* \"#utility.yul\":46350:46387   */\n      add\n        /* \"#utility.yul\":46337:46348   */\n      dup3\n        /* \"#utility.yul\":46308:46388   */\n      tag_782\n      jump\t// in\n    tag_1205:\n        /* \"#utility.yul\":45968:46398   */\n      pop\n      pop\n        /* \"#utility.yul\":45953:46398   */\n    tag_1201:\n        /* \"#utility.yul\":45864:46405   */\n      pop\n      pop\n      pop\n      jump\t// out\n        /* \"#utility.yul\":46411:47801   */\n    tag_605:\n        /* \"#utility.yul\":46526:46562   */\n      tag_1208\n        /* \"#utility.yul\":46558:46561   */\n      dup3\n        /* \"#utility.yul\":46526:46562   */\n      tag_730\n      jump\t// in\n    tag_1208:\n        /* \"#utility.yul\":46627:46645   */\n      0xffffffffffffffff\n        /* \"#utility.yul\":46619:46625   */\n      dup2\n        /* \"#utility.yul\":46616:46646   */\n      gt\n        /* \"#utility.yul\":46613:46669   */\n      iszero\n      tag_1209\n      jumpi\n        /* \"#utility.yul\":46649:46667   */\n      tag_1210\n      tag_108\n      jump\t// in\n    tag_1210:\n        /* \"#utility.yul\":46613:46669   */\n    tag_1209:\n        /* \"#utility.yul\":46693:46731   */\n      tag_1211\n        /* \"#utility.yul\":46725:46729   */\n      dup3\n        /* \"#utility.yul\":46719:46730   */\n      sload\n        /* \"#utility.yul\":46693:46731   */\n      tag_90\n      jump\t// in\n    tag_1211:\n        /* \"#utility.yul\":46778:46844   */\n      tag_1212\n        /* \"#utility.yul\":46837:46843   */\n      dup3\n        /* \"#utility.yul\":46829:46835   */\n      dup3\n        /* \"#utility.yul\":46823:46827   */\n      dup6\n        /* \"#utility.yul\":46778:46844   */\n      tag_788\n      jump\t// in\n    tag_1212:\n        /* \"#utility.yul\":46871:46872   */\n      0x00\n        /* \"#utility.yul\":46895:46899   */\n      0x20\n        /* \"#utility.yul\":46882:46899   */\n      swap1\n      pop\n        /* \"#utility.yul\":46927:46929   */\n      0x1f\n        /* \"#utility.yul\":46919:46925   */\n      dup4\n        /* \"#utility.yul\":46916:46930   */\n      gt\n        /* \"#utility.yul\":46944:46945   */\n      0x01\n        /* \"#utility.yul\":46939:47556   */\n      dup2\n      eq\n      tag_1214\n      jumpi\n        /* \"#utility.yul\":47600:47601   */\n      0x00\n        /* \"#utility.yul\":47617:47623   */\n      dup5\n        /* \"#utility.yul\":47614:47691   */\n      iszero\n      tag_1215\n      jumpi\n        /* \"#utility.yul\":47666:47675   */\n      dup3\n        /* \"#utility.yul\":47661:47664   */\n      dup8\n        /* \"#utility.yul\":47657:47676   */\n      add\n        /* \"#utility.yul\":47651:47677   */\n      mload\n        /* \"#utility.yul\":47642:47677   */\n      swap1\n      pop\n        /* \"#utility.yul\":47614:47691   */\n    tag_1215:\n        /* \"#utility.yul\":47717:47784   */\n      tag_1216\n        /* \"#utility.yul\":47777:47783   */\n      dup6\n        /* \"#utility.yul\":47770:47775   */\n      dup3\n        /* \"#utility.yul\":47717:47784   */\n      tag_786\n      jump\t// in\n    tag_1216:\n        /* \"#utility.yul\":47711:47715   */\n      dup7\n        /* \"#utility.yul\":47704:47785   */\n      sstore\n        /* \"#utility.yul\":47573:47795   */\n      pop\n        /* \"#utility.yul\":46909:47795   */\n      jump(tag_1213)\n        /* \"#utility.yul\":46939:47556   */\n    tag_1214:\n        /* \"#utility.yul\":46991:46995   */\n      0x1f\n        /* \"#utility.yul\":46987:46996   */\n      not\n        /* \"#utility.yul\":46979:46985   */\n      dup5\n        /* \"#utility.yul\":46975:46997   */\n      and\n        /* \"#utility.yul\":47025:47061   */\n      tag_1217\n        /* \"#utility.yul\":47056:47060   */\n      dup7\n        /* \"#utility.yul\":47025:47061   */\n      tag_787\n      jump\t// in\n    tag_1217:\n        /* \"#utility.yul\":47083:47084   */\n      0x00\n        /* \"#utility.yul\":47097:47305   */\n    tag_1218:\n        /* \"#utility.yul\":47111:47118   */\n      dup3\n        /* \"#utility.yul\":47108:47109   */\n      dup2\n        /* \"#utility.yul\":47105:47119   */\n      lt\n        /* \"#utility.yul\":47097:47305   */\n      iszero\n      tag_1220\n      jumpi\n        /* \"#utility.yul\":47190:47199   */\n      dup5\n        /* \"#utility.yul\":47185:47188   */\n      dup10\n        /* \"#utility.yul\":47181:47200   */\n      add\n        /* \"#utility.yul\":47175:47201   */\n      mload\n        /* \"#utility.yul\":47167:47173   */\n      dup3\n        /* \"#utility.yul\":47160:47202   */\n      sstore\n        /* \"#utility.yul\":47241:47242   */\n      0x01\n        /* \"#utility.yul\":47233:47239   */\n      dup3\n        /* \"#utility.yul\":47229:47243   */\n      add\n        /* \"#utility.yul\":47219:47243   */\n      swap2\n      pop\n        /* \"#utility.yul\":47288:47290   */\n      0x20\n        /* \"#utility.yul\":47277:47286   */\n      dup6\n        /* \"#utility.yul\":47273:47291   */\n      add\n        /* \"#utility.yul\":47260:47291   */\n      swap5\n      pop\n        /* \"#utility.yul\":47134:47138   */\n      0x20\n        /* \"#utility.yul\":47131:47132   */\n      dup2\n        /* \"#utility.yul\":47127:47139   */\n      add\n        /* \"#utility.yul\":47122:47139   */\n      swap1\n      pop\n        /* \"#utility.yul\":47097:47305   */\n      jump(tag_1218)\n    tag_1220:\n        /* \"#utility.yul\":47333:47339   */\n      dup7\n        /* \"#utility.yul\":47324:47331   */\n      dup4\n        /* \"#utility.yul\":47321:47340   */\n      lt\n        /* \"#utility.yul\":47318:47497   */\n      iszero\n      tag_1221\n      jumpi\n        /* \"#utility.yul\":47391:47400   */\n      dup5\n        /* \"#utility.yul\":47386:47389   */\n      dup10\n        /* \"#utility.yul\":47382:47401   */\n      add\n        /* \"#utility.yul\":47376:47402   */\n      mload\n        /* \"#utility.yul\":47434:47482   */\n      tag_1222\n        /* \"#utility.yul\":47476:47480   */\n      0x1f\n        /* \"#utility.yul\":47468:47474   */\n      dup10\n        /* \"#utility.yul\":47464:47481   */\n      and\n        /* \"#utility.yul\":47453:47462   */\n      dup3\n        /* \"#utility.yul\":47434:47482   */\n      tag_785\n      jump\t// in\n    tag_1222:\n        /* \"#utility.yul\":47426:47432   */\n      dup4\n        /* \"#utility.yul\":47419:47483   */\n      sstore\n        /* \"#utility.yul\":47341:47497   */\n      pop\n        /* \"#utility.yul\":47318:47497   */\n    tag_1221:\n        /* \"#utility.yul\":47543:47544   */\n      0x01\n        /* \"#utility.yul\":47539:47540   */\n      0x02\n        /* \"#utility.yul\":47531:47537   */\n      dup9\n        /* \"#utility.yul\":47527:47541   */\n      mul\n        /* \"#utility.yul\":47523:47545   */\n      add\n        /* \"#utility.yul\":47517:47521   */\n      dup9\n        /* \"#utility.yul\":47510:47546   */\n      sstore\n        /* \"#utility.yul\":46946:47556   */\n      pop\n      pop\n      pop\n        /* \"#utility.yul\":46909:47795   */\n    tag_1213:\n      pop\n        /* \"#utility.yul\":46501:47801   */\n      pop\n      pop\n      pop\n        /* \"#utility.yul\":46411:47801   */\n      pop\n      pop\n      jump\t// out\n\n    auxdata: 0xa2646970667358221220c4838abca2c72628dedf016df683ea2fc07ace41a342c4558d094f39629bc6d364736f6c63430008120033\n}\n",
				"bytecode": {
					"linkReferences": {},
					"object": "608060405234801561001057600080fd5b5061544e806100206000396000f3fe608060405234801561001057600080fd5b50600436106101005760003560e01c8063912d723011610097578063dba82a9c11610066578063dba82a9c146102c1578063ded1166c146102dd578063f82e4aee1461030f578063fd9284f11461032b57610100565b8063912d72301461024c578063ac0799e514610268578063b87dff8914610284578063c97da229146102a357610100565b8063692d51d2116100d3578063692d51d2146101b95780637c0a6fc1146101f15780638813ce121461021057806388feb7871461022e57610100565b80632548d05d14610105578063303941dd146101375780634d1ba790146101555780635faa043d14610187575b600080fd5b61011f600480360381019061011a9190613d75565b610347565b60405161012e93929190613e32565b60405180910390f35b61013f610519565b60405161014c9190614373565b60405180910390f35b61016f600480360381019061016a9190613d75565b610dcd565b60405161017e93929190613e32565b60405180910390f35b6101a1600480360381019061019c9190613d75565b610f9f565b6040516101b093929190613e32565b60405180910390f35b6101d360048036038101906101ce91906144ca565b611171565b6040516101e89998979695949392919061457b565b60405180910390f35b6101f9611512565b60405161020792919061473e565b60405180910390f35b61021861193f565b6040516102259190614373565b60405180910390f35b6102366121f3565b6040516102439190614775565b60405180910390f35b61026660048036038101906102619190614957565b612206565b005b610282600480360381019061027d9190614abd565b61257a565b005b61028c612864565b60405161029a92919061473e565b60405180910390f35b6102ab612cbd565b6040516102b89190614373565b60405180910390f35b6102db60048036038101906102d69190614c05565b6135d3565b005b6102f760048036038101906102f29190613d75565b61364f565b60405161030693929190613e32565b60405180910390f35b61032960048036038101906103249190614d38565b613821565b005b61034560048036038101906103409190614def565b61386d565b005b6003818154811061035757600080fd5b906000526020600020906003020160009150905080600001805461037a90614ea9565b80601f01602080910402602001604051908101604052809291908181526020018280546103a690614ea9565b80156103f35780601f106103c8576101008083540402835291602001916103f3565b820191906000526020600020905b8154815290600101906020018083116103d657829003601f168201915b50505050509080600101805461040890614ea9565b80601f016020809104026020016040519081016040528092919081815260200182805461043490614ea9565b80156104815780601f1061045657610100808354040283529160200191610481565b820191906000526020600020905b81548152906001019060200180831161046457829003601f168201915b50505050509080600201805461049690614ea9565b80601f01602080910402602001604051908101604052809291908181526020018280546104c290614ea9565b801561050f5780601f106104e45761010080835404028352916020019161050f565b820191906000526020600020905b8154815290600101906020018083116104f257829003601f168201915b5050505050905083565b6060600060078054905067ffffffffffffffff81111561053c5761053b61439f565b5b60405190808252806020026020018201604052801561057557816020015b610562613b9c565b81526020019060019003908161055a5790505b50905060005b600780549050811015610dc55760066007828154811061059e5761059d614eda565b5b906000526020600020016040516105b59190614fac565b9081526020016040518091039020604051806101600160405290816000820180546105df90614ea9565b80601f016020809104026020016040519081016040528092919081815260200182805461060b90614ea9565b80156106585780601f1061062d57610100808354040283529160200191610658565b820191906000526020600020905b81548152906001019060200180831161063b57829003601f168201915b5050505050815260200160018201805461067190614ea9565b80601f016020809104026020016040519081016040528092919081815260200182805461069d90614ea9565b80156106ea5780601f106106bf576101008083540402835291602001916106ea565b820191906000526020600020905b8154815290600101906020018083116106cd57829003601f168201915b5050505050815260200160028201805461070390614ea9565b80601f016020809104026020016040519081016040528092919081815260200182805461072f90614ea9565b801561077c5780601f106107515761010080835404028352916020019161077c565b820191906000526020600020905b81548152906001019060200180831161075f57829003601f168201915b5050505050815260200160038201805461079590614ea9565b80601f01602080910402602001604051908101604052809291908181526020018280546107c190614ea9565b801561080e5780601f106107e35761010080835404028352916020019161080e565b820191906000526020600020905b8154815290600101906020018083116107f157829003601f168201915b5050505050815260200160048201805480602002602001604051908101604052809291908181526020016000905b82821015610a24578382906000526020600020906003020160405180606001604052908160008201805461086f90614ea9565b80601f016020809104026020016040519081016040528092919081815260200182805461089b90614ea9565b80156108e85780601f106108bd576101008083540402835291602001916108e8565b820191906000526020600020905b8154815290600101906020018083116108cb57829003601f168201915b5050505050815260200160018201805461090190614ea9565b80601f016020809104026020016040519081016040528092919081815260200182805461092d90614ea9565b801561097a5780601f1061094f5761010080835404028352916020019161097a565b820191906000526020600020905b81548152906001019060200180831161095d57829003601f168201915b5050505050815260200160028201805461099390614ea9565b80601f01602080910402602001604051908101604052809291908181526020018280546109bf90614ea9565b8015610a0c5780601f106109e157610100808354040283529160200191610a0c565b820191906000526020600020905b8154815290600101906020018083116109ef57829003601f168201915b5050505050815250508152602001906001019061083c565b50505050815260200160058201805480602002602001604051908101604052809291908181526020016000905b82821015610c395783829060005260206000209060030201604051806060016040529081600082018054610a8490614ea9565b80601f0160208091040260200160405190810160405280929190818152602001828054610ab090614ea9565b8015610afd5780601f10610ad257610100808354040283529160200191610afd565b820191906000526020600020905b815481529060010190602001808311610ae057829003601f168201915b50505050508152602001600182018054610b1690614ea9565b80601f0160208091040260200160405190810160405280929190818152602001828054610b4290614ea9565b8015610b8f5780601f10610b6457610100808354040283529160200191610b8f565b820191906000526020600020905b815481529060010190602001808311610b7257829003601f168201915b50505050508152602001600282018054610ba890614ea9565b80601f0160208091040260200160405190810160405280929190818152602001828054610bd490614ea9565b8015610c215780601f10610bf657610100808354040283529160200191610c21565b820191906000526020600020905b815481529060010190602001808311610c0457829003601f168201915b50505050508152505081526020019060010190610a51565b5050505081526020016006820160009054906101000a900460ff161515151581526020016007820154815260200160088201548152602001600982018054610c8090614ea9565b80601f0160208091040260200160405190810160405280929190818152602001828054610cac90614ea9565b8015610cf95780601f10610cce57610100808354040283529160200191610cf9565b820191906000526020600020905b815481529060010190602001808311610cdc57829003601f168201915b50505050508152602001600a82018054610d1290614ea9565b80601f0160208091040260200160405190810160405280929190818152602001828054610d3e90614ea9565b8015610d8b5780601f10610d6057610100808354040283529160200191610d8b565b820191906000526020600020905b815481529060010190602001808311610d6e57829003601f168201915b505050505081525050828281518110610da757610da6614eda565b5b60200260200101819052508080610dbd90614ff2565b91505061057b565b508091505090565b60048181548110610ddd57600080fd5b9060005260206000209060030201600091509050806000018054610e0090614ea9565b80601f0160208091040260200160405190810160405280929190818152602001828054610e2c90614ea9565b8015610e795780601f10610e4e57610100808354040283529160200191610e79565b820191906000526020600020905b815481529060010190602001808311610e5c57829003601f168201915b505050505090806001018054610e8e90614ea9565b80601f0160208091040260200160405190810160405280929190818152602001828054610eba90614ea9565b8015610f075780601f10610edc57610100808354040283529160200191610f07565b820191906000526020600020905b815481529060010190602001808311610eea57829003601f168201915b505050505090806002018054610f1c90614ea9565b80601f0160208091040260200160405190810160405280929190818152602001828054610f4890614ea9565b8015610f955780601f10610f6a57610100808354040283529160200191610f95565b820191906000526020600020905b815481529060010190602001808311610f7857829003601f168201915b5050505050905083565b60028181548110610faf57600080fd5b9060005260206000209060030201600091509050806000018054610fd290614ea9565b80601f0160208091040260200160405190810160405280929190818152602001828054610ffe90614ea9565b801561104b5780601f106110205761010080835404028352916020019161104b565b820191906000526020600020905b81548152906001019060200180831161102e57829003601f168201915b50505050509080600101805461106090614ea9565b80601f016020809104026020016040519081016040528092919081815260200182805461108c90614ea9565b80156110d95780601f106110ae576101008083540402835291602001916110d9565b820191906000526020600020905b8154815290600101906020018083116110bc57829003601f168201915b5050505050908060020180546110ee90614ea9565b80601f016020809104026020016040519081016040528092919081815260200182805461111a90614ea9565b80156111675780601f1061113c57610100808354040283529160200191611167565b820191906000526020600020905b81548152906001019060200180831161114a57829003601f168201915b5050505050905083565b6006818051602081018201805184825260208301602085012081835280955050505050506000915090508060000180546111aa90614ea9565b80601f01602080910402602001604051908101604052809291908181526020018280546111d690614ea9565b80156112235780601f106111f857610100808354040283529160200191611223565b820191906000526020600020905b81548152906001019060200180831161120657829003601f168201915b50505050509080600101805461123890614ea9565b80601f016020809104026020016040519081016040528092919081815260200182805461126490614ea9565b80156112b15780601f10611286576101008083540402835291602001916112b1565b820191906000526020600020905b81548152906001019060200180831161129457829003601f168201915b5050505050908060020180546112c690614ea9565b80601f01602080910402602001604051908101604052809291908181526020018280546112f290614ea9565b801561133f5780601f106113145761010080835404028352916020019161133f565b820191906000526020600020905b81548152906001019060200180831161132257829003601f168201915b50505050509080600301805461135490614ea9565b80601f016020809104026020016040519081016040528092919081815260200182805461138090614ea9565b80156113cd5780601f106113a2576101008083540402835291602001916113cd565b820191906000526020600020905b8154815290600101906020018083116113b057829003601f168201915b5050505050908060060160009054906101000a900460ff169080600701549080600801549080600901805461140190614ea9565b80601f016020809104026020016040519081016040528092919081815260200182805461142d90614ea9565b801561147a5780601f1061144f5761010080835404028352916020019161147a565b820191906000526020600020905b81548152906001019060200180831161145d57829003601f168201915b50505050509080600a01805461148f90614ea9565b80601f01602080910402602001604051908101604052809291908181526020018280546114bb90614ea9565b80156115085780601f106114dd57610100808354040283529160200191611508565b820191906000526020600020905b8154815290600101906020018083116114eb57829003601f168201915b5050505050905089565b6060806003600481805480602002602001604051908101604052809291908181526020016000905b82821015611722578382906000526020600020906003020160405180606001604052908160008201805461156d90614ea9565b80601f016020809104026020016040519081016040528092919081815260200182805461159990614ea9565b80156115e65780601f106115bb576101008083540402835291602001916115e6565b820191906000526020600020905b8154815290600101906020018083116115c957829003601f168201915b505050505081526020016001820180546115ff90614ea9565b80601f016020809104026020016040519081016040528092919081815260200182805461162b90614ea9565b80156116785780601f1061164d57610100808354040283529160200191611678565b820191906000526020600020905b81548152906001019060200180831161165b57829003601f168201915b5050505050815260200160028201805461169190614ea9565b80601f01602080910402602001604051908101604052809291908181526020018280546116bd90614ea9565b801561170a5780601f106116df5761010080835404028352916020019161170a565b820191906000526020600020905b8154815290600101906020018083116116ed57829003601f168201915b5050505050815250508152602001906001019061153a565b50505050915080805480602002602001604051908101604052809291908181526020016000905b82821015611931578382906000526020600020906003020160405180606001604052908160008201805461177c90614ea9565b80601f01602080910402602001604051908101604052809291908181526020018280546117a890614ea9565b80156117f55780601f106117ca576101008083540402835291602001916117f5565b820191906000526020600020905b8154815290600101906020018083116117d857829003601f168201915b5050505050815260200160018201805461180e90614ea9565b80601f016020809104026020016040519081016040528092919081815260200182805461183a90614ea9565b80156118875780601f1061185c57610100808354040283529160200191611887565b820191906000526020600020905b81548152906001019060200180831161186a57829003601f168201915b505050505081526020016002820180546118a090614ea9565b80601f01602080910402602001604051908101604052809291908181526020018280546118cc90614ea9565b80156119195780601f106118ee57610100808354040283529160200191611919565b820191906000526020600020905b8154815290600101906020018083116118fc57829003601f168201915b50505050508152505081526020019060010190611749565b505050509050915091509091565b6060600060078054905067ffffffffffffffff8111156119625761196161439f565b5b60405190808252806020026020018201604052801561199b57816020015b611988613b9c565b8152602001906001900390816119805790505b50905060005b6007805490508110156121eb576006600782815481106119c4576119c3614eda565b5b906000526020600020016040516119db9190614fac565b908152602001604051809103902060405180610160016040529081600082018054611a0590614ea9565b80601f0160208091040260200160405190810160405280929190818152602001828054611a3190614ea9565b8015611a7e5780601f10611a5357610100808354040283529160200191611a7e565b820191906000526020600020905b815481529060010190602001808311611a6157829003601f168201915b50505050508152602001600182018054611a9790614ea9565b80601f0160208091040260200160405190810160405280929190818152602001828054611ac390614ea9565b8015611b105780601f10611ae557610100808354040283529160200191611b10565b820191906000526020600020905b815481529060010190602001808311611af357829003601f168201915b50505050508152602001600282018054611b2990614ea9565b80601f0160208091040260200160405190810160405280929190818152602001828054611b5590614ea9565b8015611ba25780601f10611b7757610100808354040283529160200191611ba2565b820191906000526020600020905b815481529060010190602001808311611b8557829003601f168201915b50505050508152602001600382018054611bbb90614ea9565b80601f0160208091040260200160405190810160405280929190818152602001828054611be790614ea9565b8015611c345780601f10611c0957610100808354040283529160200191611c34565b820191906000526020600020905b815481529060010190602001808311611c1757829003601f168201915b5050505050815260200160048201805480602002602001604051908101604052809291908181526020016000905b82821015611e4a5783829060005260206000209060030201604051806060016040529081600082018054611c9590614ea9565b80601f0160208091040260200160405190810160405280929190818152602001828054611cc190614ea9565b8015611d0e5780601f10611ce357610100808354040283529160200191611d0e565b820191906000526020600020905b815481529060010190602001808311611cf157829003601f168201915b50505050508152602001600182018054611d2790614ea9565b80601f0160208091040260200160405190810160405280929190818152602001828054611d5390614ea9565b8015611da05780601f10611d7557610100808354040283529160200191611da0565b820191906000526020600020905b815481529060010190602001808311611d8357829003601f168201915b50505050508152602001600282018054611db990614ea9565b80601f0160208091040260200160405190810160405280929190818152602001828054611de590614ea9565b8015611e325780601f10611e0757610100808354040283529160200191611e32565b820191906000526020600020905b815481529060010190602001808311611e1557829003601f168201915b50505050508152505081526020019060010190611c62565b50505050815260200160058201805480602002602001604051908101604052809291908181526020016000905b8282101561205f5783829060005260206000209060030201604051806060016040529081600082018054611eaa90614ea9565b80601f0160208091040260200160405190810160405280929190818152602001828054611ed690614ea9565b8015611f235780601f10611ef857610100808354040283529160200191611f23565b820191906000526020600020905b815481529060010190602001808311611f0657829003601f168201915b50505050508152602001600182018054611f3c90614ea9565b80601f0160208091040260200160405190810160405280929190818152602001828054611f6890614ea9565b8015611fb55780601f10611f8a57610100808354040283529160200191611fb5565b820191906000526020600020905b815481529060010190602001808311611f9857829003601f168201915b50505050508152602001600282018054611fce90614ea9565b80601f0160208091040260200160405190810160405280929190818152602001828054611ffa90614ea9565b80156120475780601f1061201c57610100808354040283529160200191612047565b820191906000526020600020905b81548152906001019060200180831161202a57829003601f168201915b50505050508152505081526020019060010190611e77565b5050505081526020016006820160009054906101000a900460ff1615151515815260200160078201548152602001600882015481526020016009820180546120a690614ea9565b80601f01602080910402602001604051908101604052809291908181526020018280546120d290614ea9565b801561211f5780601f106120f45761010080835404028352916020019161211f565b820191906000526020600020905b81548152906001019060200180831161210257829003601f168201915b50505050508152602001600a8201805461213890614ea9565b80601f016020809104026020016040519081016040528092919081815260200182805461216490614ea9565b80156121b15780601f10612186576101008083540402835291602001916121b1565b820191906000526020600020905b81548152906001019060200180831161219457829003601f168201915b5050505050815250508282815181106121cd576121cc614eda565b5b602002602001018190525080806121e390614ff2565b9150506119a1565b508091505090565b600560009054906101000a900460ff1681565b61221082826138c3565b6000600687604051612222919061506b565b908152602001604051809103902090506007879080600181540180825580915050600190039060005260206000200160009091909190915090816122669190615219565b50868160010190816122789190615219565b508581600201908161228a9190615219565b506000816008018190555060008160060160006101000a81548160ff02191690831515021790555060008160070181905550878160000190816122cd9190615219565b5060005b855181101561241e57600060405180606001604052808884815181106122fa576122f9614eda565b5b602002602001015160008151811061231557612314614eda565b5b6020026020010151815260200188848151811061233557612334614eda565b5b60200260200101516001815181106123505761234f614eda565b5b602002602001015181526020018884815181106123705761236f614eda565b5b602002602001015160028151811061238b5761238a614eda565b5b602002602001015181525090508260040181908060018154018082558091505060019003906000526020600020906003020160009091909190915060008201518160000190816123db9190615219565b5060208201518160010190816123f19190615219565b5060408201518160020190816124079190615219565b50505050808061241690614ff2565b9150506122d1565b5060005b845181101561256f576000604051806060016040528087848151811061244b5761244a614eda565b5b602002602001015160008151811061246657612465614eda565b5b6020026020010151815260200187848151811061248657612485614eda565b5b60200260200101516001815181106124a1576124a0614eda565b5b602002602001015181526020018784815181106124c1576124c0614eda565b5b60200260200101516002815181106124dc576124db614eda565b5b6020026020010151815250905082600501819080600181540180825580915050600190039060005260206000209060030201600090919091909150600082015181600001908161252c9190615219565b5060208201518160010190816125429190615219565b5060408201518160020190816125589190615219565b50505050808061256790614ff2565b915050612422565b505050505050505050565b82600090816125899190615219565b506000600560006101000a81548160ff021916908315150217905550600160006125b39190613bf8565b60005b825181101561270157600060405180606001604052808584815181106125df576125de614eda565b5b60200260200101516000815181106125fa576125f9614eda565b5b6020026020010151815260200185848151811061261a57612619614eda565b5b602002602001015160018151811061263557612634614eda565b5b6020026020010151815260200185848151811061265557612654614eda565b5b60200260200101516002815181106126705761266f614eda565b5b60200260200101518152509050600181908060018154018082558091505060019003906000526020600020906003020160009091909190915060008201518160000190816126be9190615219565b5060208201518160010190816126d49190615219565b5060408201518160020190816126ea9190615219565b5050505080806126f990614ff2565b9150506125b6565b50600260006127109190613c1c565b60005b815181101561285e576000604051806060016040528084848151811061273c5761273b614eda565b5b602002602001015160008151811061275757612756614eda565b5b6020026020010151815260200184848151811061277757612776614eda565b5b602002602001015160018151811061279257612791614eda565b5b602002602001015181526020018484815181106127b2576127b1614eda565b5b60200260200101516002815181106127cd576127cc614eda565b5b602002602001015181525090506002819080600181540180825580915050600190039060005260206000209060030201600090919091909150600082015181600001908161281b9190615219565b5060208201518160010190816128319190615219565b5060408201518160020190816128479190615219565b50505050808061285690614ff2565b915050612713565b50505050565b60608060001515600560009054906101000a900460ff16151503612cad576001600281805480602002602001604051908101604052809291908181526020016000905b82821015612a8f57838290600052602060002090600302016040518060600160405290816000820180546128da90614ea9565b80601f016020809104026020016040519081016040528092919081815260200182805461290690614ea9565b80156129535780601f1061292857610100808354040283529160200191612953565b820191906000526020600020905b81548152906001019060200180831161293657829003601f168201915b5050505050815260200160018201805461296c90614ea9565b80601f016020809104026020016040519081016040528092919081815260200182805461299890614ea9565b80156129e55780601f106129ba576101008083540402835291602001916129e5565b820191906000526020600020905b8154815290600101906020018083116129c857829003601f168201915b505050505081526020016002820180546129fe90614ea9565b80601f0160208091040260200160405190810160405280929190818152602001828054612a2a90614ea9565b8015612a775780601f10612a4c57610100808354040283529160200191612a77565b820191906000526020600020905b815481529060010190602001808311612a5a57829003601f168201915b505050505081525050815260200190600101906128a7565b50505050915080805480602002602001604051908101604052809291908181526020016000905b82821015612c9e5783829060005260206000209060030201604051806060016040529081600082018054612ae990614ea9565b80601f0160208091040260200160405190810160405280929190818152602001828054612b1590614ea9565b8015612b625780601f10612b3757610100808354040283529160200191612b62565b820191906000526020600020905b815481529060010190602001808311612b4557829003601f168201915b50505050508152602001600182018054612b7b90614ea9565b80601f0160208091040260200160405190810160405280929190818152602001828054612ba790614ea9565b8015612bf45780601f10612bc957610100808354040283529160200191612bf4565b820191906000526020600020905b815481529060010190602001808311612bd757829003601f168201915b50505050508152602001600282018054612c0d90614ea9565b80601f0160208091040260200160405190810160405280929190818152602001828054612c3990614ea9565b8015612c865780601f10612c5b57610100808354040283529160200191612c86565b820191906000526020600020905b815481529060010190602001808311612c6957829003601f168201915b50505050508152505081526020019060010190612ab6565b50505050905091509150612cb9565b60608081819350935050505b9091565b6060600060078054905067ffffffffffffffff811115612ce057612cdf61439f565b5b604051908082528060200260200182016040528015612d1957816020015b612d06613b9c565b815260200190600190039081612cfe5790505b5090506000805b6007805490508110156135ca57600660078281548110612d4357612d42614eda565b5b90600052602060002001604051612d5a9190614fac565b908152602001604051809103902060060160009054906101000a900460ff16156135b757600660078281548110612d9457612d93614eda565b5b90600052602060002001604051612dab9190614fac565b908152602001604051809103902060405180610160016040529081600082018054612dd590614ea9565b80601f0160208091040260200160405190810160405280929190818152602001828054612e0190614ea9565b8015612e4e5780601f10612e2357610100808354040283529160200191612e4e565b820191906000526020600020905b815481529060010190602001808311612e3157829003601f168201915b50505050508152602001600182018054612e6790614ea9565b80601f0160208091040260200160405190810160405280929190818152602001828054612e9390614ea9565b8015612ee05780601f10612eb557610100808354040283529160200191612ee0565b820191906000526020600020905b815481529060010190602001808311612ec357829003601f168201915b50505050508152602001600282018054612ef990614ea9565b80601f0160208091040260200160405190810160405280929190818152602001828054612f2590614ea9565b8015612f725780601f10612f4757610100808354040283529160200191612f72565b820191906000526020600020905b815481529060010190602001808311612f5557829003601f168201915b50505050508152602001600382018054612f8b90614ea9565b80601f0160208091040260200160405190810160405280929190818152602001828054612fb790614ea9565b80156130045780601f10612fd957610100808354040283529160200191613004565b820191906000526020600020905b815481529060010190602001808311612fe757829003601f168201915b5050505050815260200160048201805480602002602001604051908101604052809291908181526020016000905b8282101561321a578382906000526020600020906003020160405180606001604052908160008201805461306590614ea9565b80601f016020809104026020016040519081016040528092919081815260200182805461309190614ea9565b80156130de5780601f106130b3576101008083540402835291602001916130de565b820191906000526020600020905b8154815290600101906020018083116130c157829003601f168201915b505050505081526020016001820180546130f790614ea9565b80601f016020809104026020016040519081016040528092919081815260200182805461312390614ea9565b80156131705780601f1061314557610100808354040283529160200191613170565b820191906000526020600020905b81548152906001019060200180831161315357829003601f168201915b5050505050815260200160028201805461318990614ea9565b80601f01602080910402602001604051908101604052809291908181526020018280546131b590614ea9565b80156132025780601f106131d757610100808354040283529160200191613202565b820191906000526020600020905b8154815290600101906020018083116131e557829003601f168201915b50505050508152505081526020019060010190613032565b50505050815260200160058201805480602002602001604051908101604052809291908181526020016000905b8282101561342f578382906000526020600020906003020160405180606001604052908160008201805461327a90614ea9565b80601f01602080910402602001604051908101604052809291908181526020018280546132a690614ea9565b80156132f35780601f106132c8576101008083540402835291602001916132f3565b820191906000526020600020905b8154815290600101906020018083116132d657829003601f168201915b5050505050815260200160018201805461330c90614ea9565b80601f016020809104026020016040519081016040528092919081815260200182805461333890614ea9565b80156133855780601f1061335a57610100808354040283529160200191613385565b820191906000526020600020905b81548152906001019060200180831161336857829003601f168201915b5050505050815260200160028201805461339e90614ea9565b80601f01602080910402602001604051908101604052809291908181526020018280546133ca90614ea9565b80156134175780601f106133ec57610100808354040283529160200191613417565b820191906000526020600020905b8154815290600101906020018083116133fa57829003601f168201915b50505050508152505081526020019060010190613247565b5050505081526020016006820160009054906101000a900460ff16151515158152602001600782015481526020016008820154815260200160098201805461347690614ea9565b80601f01602080910402602001604051908101604052809291908181526020018280546134a290614ea9565b80156134ef5780601f106134c4576101008083540402835291602001916134ef565b820191906000526020600020905b8154815290600101906020018083116134d257829003601f168201915b50505050508152602001600a8201805461350890614ea9565b80601f016020809104026020016040519081016040528092919081815260200182805461353490614ea9565b80156135815780601f1061355657610100808354040283529160200191613581565b820191906000526020600020905b81548152906001019060200180831161356457829003601f168201915b50505050508152505083838151811061359d5761359c614eda565b5b602002602001018190525081806135b390614ff2565b9250505b80806135c290614ff2565b915050612d20565b50819250505090565b60006006856040516135e5919061506b565b90815260200160405180910390209050858160000190816136069190615219565b50838160030190816136189190615219565b508281600901908161362a9190615219565b508181600a01908161363c9190615346565b5060018160070181905550505050505050565b6001818154811061365f57600080fd5b906000526020600020906003020160009150905080600001805461368290614ea9565b80601f01602080910402602001604051908101604052809291908181526020018280546136ae90614ea9565b80156136fb5780601f106136d0576101008083540402835291602001916136fb565b820191906000526020600020905b8154815290600101906020018083116136de57829003601f168201915b50505050509080600101805461371090614ea9565b80601f016020809104026020016040519081016040528092919081815260200182805461373c90614ea9565b80156137895780601f1061375e57610100808354040283529160200191613789565b820191906000526020600020905b81548152906001019060200180831161376c57829003601f168201915b50505050509080600201805461379e90614ea9565b80601f01602080910402602001604051908101604052809291908181526020018280546137ca90614ea9565b80156138175780601f106137ec57610100808354040283529160200191613817565b820191906000526020600020905b8154815290600101906020018083116137fa57829003601f168201915b5050505050905083565b6000600682604051613833919061506b565b90815260200160405180910390209050828160080181905550828160070181905550838160000190816138669190615219565b5050505050565b600060068360405161387f919061506b565b90815260200160405180910390209050818160060160006101000a81548160ff021916908315150217905550838160000190816138bc9190615219565b5050505050565b600360006138d19190613bf8565b6001600560006101000a81548160ff02191690831515021790555060005b8251811015613a3a576000604051806060016040528085848151811061391857613917614eda565b5b602002602001015160008151811061393357613932614eda565b5b6020026020010151815260200185848151811061395357613952614eda565b5b602002602001015160018151811061396e5761396d614eda565b5b6020026020010151815260200185848151811061398e5761398d614eda565b5b60200260200101516002815181106139a9576139a8614eda565b5b60200260200101518152509050600381908060018154018082558091505060019003906000526020600020906003020160009091909190915060008201518160000190816139f79190615219565b506020820151816001019081613a0d9190615219565b506040820151816002019081613a239190615219565b505050508080613a3290614ff2565b9150506138ef565b5060046000613a499190613c1c565b60005b8151811015613b975760006040518060600160405280848481518110613a7557613a74614eda565b5b6020026020010151600081518110613a9057613a8f614eda565b5b60200260200101518152602001848481518110613ab057613aaf614eda565b5b6020026020010151600181518110613acb57613aca614eda565b5b60200260200101518152602001848481518110613aeb57613aea614eda565b5b6020026020010151600281518110613b0657613b05614eda565b5b6020026020010151815250905060048190806001815401808255809150506001900390600052602060002090600302016000909190919091506000820151816000019081613b549190615219565b506020820151816001019081613b6a9190615219565b506040820151816002019081613b809190615219565b505050508080613b8f90614ff2565b915050613a4c565b505050565b604051806101600160405280606081526020016060815260200160608152602001606081526020016060815260200160608152602001600015158152602001600081526020016000815260200160608152602001606081525090565b5080546000825560030290600052602060002090810190613c199190613c40565b50565b5080546000825560030290600052602060002090810190613c3d9190613c87565b50565b5b80821115613c835760008082016000613c5a9190613cce565b600182016000613c6a9190613cce565b600282016000613c7a9190613cce565b50600301613c41565b5090565b5b80821115613cca5760008082016000613ca19190613cce565b600182016000613cb19190613cce565b600282016000613cc19190613cce565b50600301613c88565b5090565b508054613cda90614ea9565b6000825580601f10613cec5750613d0b565b601f016020900490600052602060002090810190613d0a9190613d0e565b5b50565b5b80821115613d27576000816000905550600101613d0f565b5090565b6000604051905090565b600080fd5b600080fd5b6000819050919050565b613d5281613d3f565b8114613d5d57600080fd5b50565b600081359050613d6f81613d49565b92915050565b600060208284031215613d8b57613d8a613d35565b5b6000613d9984828501613d60565b91505092915050565b600081519050919050565b600082825260208201905092915050565b60005b83811015613ddc578082015181840152602081019050613dc1565b60008484015250505050565b6000601f19601f8301169050919050565b6000613e0482613da2565b613e0e8185613dad565b9350613e1e818560208601613dbe565b613e2781613de8565b840191505092915050565b60006060820190508181036000830152613e4c8186613df9565b90508181036020830152613e608185613df9565b90508181036040830152613e748184613df9565b9050949350505050565b600081519050919050565b600082825260208201905092915050565b6000819050602082019050919050565b600082825260208201905092915050565b6000613ec682613da2565b613ed08185613eaa565b9350613ee0818560208601613dbe565b613ee981613de8565b840191505092915050565b600081519050919050565b600082825260208201905092915050565b6000819050602082019050919050565b60006060830160008301518482036000860152613f3d8282613ebb565b91505060208301518482036020860152613f578282613ebb565b91505060408301518482036040860152613f718282613ebb565b9150508091505092915050565b6000613f8a8383613f20565b905092915050565b6000602082019050919050565b6000613faa82613ef4565b613fb48185613eff565b935083602082028501613fc685613f10565b8060005b858110156140025784840389528151613fe38582613f7e565b9450613fee83613f92565b925060208a01995050600181019050613fca565b50829750879550505050505092915050565b600081519050919050565b600082825260208201905092915050565b6000819050602082019050919050565b6000606083016000830151848203600086015261405d8282613ebb565b915050602083015184820360208601526140778282613ebb565b915050604083015184820360408601526140918282613ebb565b9150508091505092915050565b60006140aa8383614040565b905092915050565b6000602082019050919050565b60006140ca82614014565b6140d4818561401f565b9350836020820285016140e685614030565b8060005b858110156141225784840389528151614103858261409e565b945061410e836140b2565b925060208a019950506001810190506140ea565b50829750879550505050505092915050565b60008115159050919050565b61414981614134565b82525050565b6000819050919050565b6141628161414f565b82525050565b600081519050919050565b600082825260208201905092915050565b600061418f82614168565b6141998185614173565b93506141a9818560208601613dbe565b6141b281613de8565b840191505092915050565b60006101608301600083015184820360008601526141db8282613ebb565b915050602083015184820360208601526141f58282613ebb565b9150506040830151848203604086015261420f8282613ebb565b915050606083015184820360608601526142298282613ebb565b915050608083015184820360808601526142438282613f9f565b91505060a083015184820360a086015261425d82826140bf565b91505060c083015161427260c0860182614140565b5060e083015161428560e0860182614159565b5061010083015161429a610100860182614159565b506101208301518482036101208601526142b48282613ebb565b9150506101408301518482036101408601526142d08282614184565b9150508091505092915050565b60006142e983836141bd565b905092915050565b6000602082019050919050565b600061430982613e7e565b6143138185613e89565b93508360208202850161432585613e9a565b8060005b85811015614361578484038952815161434285826142dd565b945061434d836142f1565b925060208a01995050600181019050614329565b50829750879550505050505092915050565b6000602082019050818103600083015261438d81846142fe565b905092915050565b600080fd5b600080fd5b7f4e487b7100000000000000000000000000000000000000000000000000000000600052604160045260246000fd5b6143d782613de8565b810181811067ffffffffffffffff821117156143f6576143f561439f565b5b80604052505050565b6000614409613d2b565b905061441582826143ce565b919050565b600067ffffffffffffffff8211156144355761443461439f565b5b61443e82613de8565b9050602081019050919050565b82818337600083830152505050565b600061446d6144688461441a565b6143ff565b9050828152602081018484840111156144895761448861439a565b5b61449484828561444b565b509392505050565b600082601f8301126144b1576144b0614395565b5b81356144c184826020860161445a565b91505092915050565b6000602082840312156144e0576144df613d35565b5b600082013567ffffffffffffffff8111156144fe576144fd613d3a565b5b61450a8482850161449c565b91505092915050565b61451c81614134565b82525050565b61452b8161414f565b82525050565b600082825260208201905092915050565b600061454d82614168565b6145578185614531565b9350614567818560208601613dbe565b61457081613de8565b840191505092915050565b6000610120820190508181036000830152614596818c613df9565b905081810360208301526145aa818b613df9565b905081810360408301526145be818a613df9565b905081810360608301526145d28189613df9565b90506145e16080830188614513565b6145ee60a0830187614522565b6145fb60c0830186614522565b81810360e083015261460d8185613df9565b90508181036101008301526146228184614542565b90509a9950505050505050505050565b600082825260208201905092915050565b600061464e82613ef4565b6146588185614632565b93508360208202850161466a85613f10565b8060005b858110156146a657848403895281516146878582613f7e565b945061469283613f92565b925060208a0199505060018101905061466e565b50829750879550505050505092915050565b600082825260208201905092915050565b60006146d482614014565b6146de81856146b8565b9350836020820285016146f085614030565b8060005b8581101561472c578484038952815161470d858261409e565b9450614718836140b2565b925060208a019950506001810190506146f4565b50829750879550505050505092915050565b600060408201905081810360008301526147588185614643565b9050818103602083015261476c81846146c9565b90509392505050565b600060208201905061478a6000830184614513565b92915050565b600067ffffffffffffffff8211156147ab576147aa61439f565b5b602082029050602081019050919050565b600080fd5b600067ffffffffffffffff8211156147dc576147db61439f565b5b602082029050602081019050919050565b60006148006147fb846147c1565b6143ff565b90508083825260208201905060208402830185811115614823576148226147bc565b5b835b8181101561486a57803567ffffffffffffffff81111561484857614847614395565b5b808601614855898261449c565b85526020850194505050602081019050614825565b5050509392505050565b600082601f83011261488957614888614395565b5b81356148998482602086016147ed565b91505092915050565b60006148b56148b084614790565b6143ff565b905080838252602082019050602084028301858111156148d8576148d76147bc565b5b835b8181101561491f57803567ffffffffffffffff8111156148fd576148fc614395565b5b80860161490a8982614874565b855260208501945050506020810190506148da565b5050509392505050565b600082601f83011261493e5761493d614395565b5b813561494e8482602086016148a2565b91505092915050565b600080600080600080600060e0888a03121561497657614975613d35565b5b600088013567ffffffffffffffff81111561499457614993613d3a565b5b6149a08a828b0161449c565b975050602088013567ffffffffffffffff8111156149c1576149c0613d3a565b5b6149cd8a828b0161449c565b965050604088013567ffffffffffffffff8111156149ee576149ed613d3a565b5b6149fa8a828b0161449c565b955050606088013567ffffffffffffffff811115614a1b57614a1a613d3a565b5b614a278a828b01614929565b945050608088013567ffffffffffffffff811115614a4857614a47613d3a565b5b614a548a828b01614929565b93505060a088013567ffffffffffffffff811115614a7557614a74613d3a565b5b614a818a828b01614929565b92505060c088013567ffffffffffffffff811115614aa257614aa1613d3a565b5b614aae8a828b01614929565b91505092959891949750929550565b600080600060608486031215614ad657614ad5613d35565b5b600084013567ffffffffffffffff811115614af457614af3613d3a565b5b614b008682870161449c565b935050602084013567ffffffffffffffff811115614b2157614b20613d3a565b5b614b2d86828701614929565b925050604084013567ffffffffffffffff811115614b4e57614b4d613d3a565b5b614b5a86828701614929565b9150509250925092565b600067ffffffffffffffff821115614b7f57614b7e61439f565b5b614b8882613de8565b9050602081019050919050565b6000614ba8614ba384614b64565b6143ff565b905082815260208101848484011115614bc457614bc361439a565b5b614bcf84828561444b565b509392505050565b600082601f830112614bec57614beb614395565b5b8135614bfc848260208601614b95565b91505092915050565b600080600080600060a08688031215614c2157614c20613d35565b5b600086013567ffffffffffffffff811115614c3f57614c3e613d3a565b5b614c4b8882890161449c565b955050602086013567ffffffffffffffff811115614c6c57614c6b613d3a565b5b614c788882890161449c565b945050604086013567ffffffffffffffff811115614c9957614c98613d3a565b5b614ca58882890161449c565b935050606086013567ffffffffffffffff811115614cc657614cc5613d3a565b5b614cd28882890161449c565b925050608086013567ffffffffffffffff811115614cf357614cf2613d3a565b5b614cff88828901614bd7565b9150509295509295909350565b614d158161414f565b8114614d2057600080fd5b50565b600081359050614d3281614d0c565b92915050565b600080600060608486031215614d5157614d50613d35565b5b600084013567ffffffffffffffff811115614d6f57614d6e613d3a565b5b614d7b8682870161449c565b9350506020614d8c86828701614d23565b925050604084013567ffffffffffffffff811115614dad57614dac613d3a565b5b614db98682870161449c565b9150509250925092565b614dcc81614134565b8114614dd757600080fd5b50565b600081359050614de981614dc3565b92915050565b600080600060608486031215614e0857614e07613d35565b5b600084013567ffffffffffffffff811115614e2657614e25613d3a565b5b614e328682870161449c565b935050602084013567ffffffffffffffff811115614e5357614e52613d3a565b5b614e5f8682870161449c565b9250506040614e7086828701614dda565b9150509250925092565b7f4e487b7100000000000000000000000000000000000000000000000000000000600052602260045260246000fd5b60006002820490506001821680614ec157607f821691505b602082108103614ed457614ed3614e7a565b5b50919050565b7f4e487b7100000000000000000000000000000000000000000000000000000000600052603260045260246000fd5b600081905092915050565b60008190508160005260206000209050919050565b60008154614f3681614ea9565b614f408186614f09565b94506001821660008114614f5b5760018114614f7057614fa3565b60ff1983168652811515820286019350614fa3565b614f7985614f14565b60005b83811015614f9b57815481890152600182019150602081019050614f7c565b838801955050505b50505092915050565b6000614fb88284614f29565b915081905092915050565b7f4e487b7100000000000000000000000000000000000000000000000000000000600052601160045260246000fd5b6000614ffd82613d3f565b91507fffffffffffffffffffffffffffffffffffffffffffffffffffffffffffffffff820361502f5761502e614fc3565b5b600182019050919050565b600061504582613da2565b61504f8185614f09565b935061505f818560208601613dbe565b80840191505092915050565b6000615077828461503a565b915081905092915050565b60006020601f8301049050919050565b600082821b905092915050565b6000600883026150cf7fffffffffffffffffffffffffffffffffffffffffffffffffffffffffffffffff82615092565b6150d98683615092565b95508019841693508086168417925050509392505050565b6000819050919050565b600061511661511161510c84613d3f565b6150f1565b613d3f565b9050919050565b6000819050919050565b615130836150fb565b61514461513c8261511d565b84845461509f565b825550505050565b600090565b61515961514c565b615164818484615127565b505050565b5b818110156151885761517d600082615151565b60018101905061516a565b5050565b601f8211156151cd5761519e81614f14565b6151a784615082565b810160208510156151b6578190505b6151ca6151c285615082565b830182615169565b50505b505050565b600082821c905092915050565b60006151f0600019846008026151d2565b1980831691505092915050565b600061520983836151df565b9150826002028217905092915050565b61522282613da2565b67ffffffffffffffff81111561523b5761523a61439f565b5b6152458254614ea9565b61525082828561518c565b600060209050601f8311600181146152835760008415615271578287015190505b61527b85826151fd565b8655506152e3565b601f19841661529186614f14565b60005b828110156152b957848901518255600182019150602085019450602081019050615294565b868310156152d657848901516152d2601f8916826151df565b8355505b6001600288020188555050505b505050505050565b60008190508160005260206000209050919050565b601f82111561534157615312816152eb565b61531b84615082565b8101602085101561532a578190505b61533e61533685615082565b830182615169565b50505b505050565b61534f82614168565b67ffffffffffffffff8111156153685761536761439f565b5b6153728254614ea9565b61537d828285615300565b600060209050601f8311600181146153b0576000841561539e578287015190505b6153a885826151fd565b865550615410565b601f1984166153be866152eb565b60005b828110156153e6578489015182556001820191506020850194506020810190506153c1565b8683101561540357848901516153ff601f8916826151df565b8355505b6001600288020188555050505b50505050505056fea2646970667358221220c4838abca2c72628dedf016df683ea2fc07ace41a342c4558d094f39629bc6d364736f6c63430008120033",
					"opcodes": "PUSH1 0x80 PUSH1 0x40 MSTORE CALLVALUE DUP1 ISZERO PUSH2 0x10 JUMPI PUSH1 0x0 DUP1 REVERT JUMPDEST POP PUSH2 0x544E DUP1 PUSH2 0x20 PUSH1 0x0 CODECOPY PUSH1 0x0 RETURN INVALID PUSH1 0x80 PUSH1 0x40 MSTORE CALLVALUE DUP1 ISZERO PUSH2 0x10 JUMPI PUSH1 0x0 DUP1 REVERT JUMPDEST POP PUSH1 0x4 CALLDATASIZE LT PUSH2 0x100 JUMPI PUSH1 0x0 CALLDATALOAD PUSH1 0xE0 SHR DUP1 PUSH4 0x912D7230 GT PUSH2 0x97 JUMPI DUP1 PUSH4 0xDBA82A9C GT PUSH2 0x66 JUMPI DUP1 PUSH4 0xDBA82A9C EQ PUSH2 0x2C1 JUMPI DUP1 PUSH4 0xDED1166C EQ PUSH2 0x2DD JUMPI DUP1 PUSH4 0xF82E4AEE EQ PUSH2 0x30F JUMPI DUP1 PUSH4 0xFD9284F1 EQ PUSH2 0x32B JUMPI PUSH2 0x100 JUMP JUMPDEST DUP1 PUSH4 0x912D7230 EQ PUSH2 0x24C JUMPI DUP1 PUSH4 0xAC0799E5 EQ PUSH2 0x268 JUMPI DUP1 PUSH4 0xB87DFF89 EQ PUSH2 0x284 JUMPI DUP1 PUSH4 0xC97DA229 EQ PUSH2 0x2A3 JUMPI PUSH2 0x100 JUMP JUMPDEST DUP1 PUSH4 0x692D51D2 GT PUSH2 0xD3 JUMPI DUP1 PUSH4 0x692D51D2 EQ PUSH2 0x1B9 JUMPI DUP1 PUSH4 0x7C0A6FC1 EQ PUSH2 0x1F1 JUMPI DUP1 PUSH4 0x8813CE12 EQ PUSH2 0x210 JUMPI DUP1 PUSH4 0x88FEB787 EQ PUSH2 0x22E JUMPI PUSH2 0x100 JUMP JUMPDEST DUP1 PUSH4 0x2548D05D EQ PUSH2 0x105 JUMPI DUP1 PUSH4 0x303941DD EQ PUSH2 0x137 JUMPI DUP1 PUSH4 0x4D1BA790 EQ PUSH2 0x155 JUMPI DUP1 PUSH4 0x5FAA043D EQ PUSH2 0x187 JUMPI JUMPDEST PUSH1 0x0 DUP1 REVERT JUMPDEST PUSH2 0x11F PUSH1 0x4 DUP1 CALLDATASIZE SUB DUP2 ADD SWAP1 PUSH2 0x11A SWAP2 SWAP1 PUSH2 0x3D75 JUMP JUMPDEST PUSH2 0x347 JUMP JUMPDEST PUSH1 0x40 MLOAD PUSH2 0x12E SWAP4 SWAP3 SWAP2 SWAP1 PUSH2 0x3E32 JUMP JUMPDEST PUSH1 0x40 MLOAD DUP1 SWAP2 SUB SWAP1 RETURN JUMPDEST PUSH2 0x13F PUSH2 0x519 JUMP JUMPDEST PUSH1 0x40 MLOAD PUSH2 0x14C SWAP2 SWAP1 PUSH2 0x4373 JUMP JUMPDEST PUSH1 0x40 MLOAD DUP1 SWAP2 SUB SWAP1 RETURN JUMPDEST PUSH2 0x16F PUSH1 0x4 DUP1 CALLDATASIZE SUB DUP2 ADD SWAP1 PUSH2 0x16A SWAP2 SWAP1 PUSH2 0x3D75 JUMP JUMPDEST PUSH2 0xDCD JUMP JUMPDEST PUSH1 0x40 MLOAD PUSH2 0x17E SWAP4 SWAP3 SWAP2 SWAP1 PUSH2 0x3E32 JUMP JUMPDEST PUSH1 0x40 MLOAD DUP1 SWAP2 SUB SWAP1 RETURN JUMPDEST PUSH2 0x1A1 PUSH1 0x4 DUP1 CALLDATASIZE SUB DUP2 ADD SWAP1 PUSH2 0x19C SWAP2 SWAP1 PUSH2 0x3D75 JUMP JUMPDEST PUSH2 0xF9F JUMP JUMPDEST PUSH1 0x40 MLOAD PUSH2 0x1B0 SWAP4 SWAP3 SWAP2 SWAP1 PUSH2 0x3E32 JUMP JUMPDEST PUSH1 0x40 MLOAD DUP1 SWAP2 SUB SWAP1 RETURN JUMPDEST PUSH2 0x1D3 PUSH1 0x4 DUP1 CALLDATASIZE SUB DUP2 ADD SWAP1 PUSH2 0x1CE SWAP2 SWAP1 PUSH2 0x44CA JUMP JUMPDEST PUSH2 0x1171 JUMP JUMPDEST PUSH1 0x40 MLOAD PUSH2 0x1E8 SWAP10 SWAP9 SWAP8 SWAP7 SWAP6 SWAP5 SWAP4 SWAP3 SWAP2 SWAP1 PUSH2 0x457B JUMP JUMPDEST PUSH1 0x40 MLOAD DUP1 SWAP2 SUB SWAP1 RETURN JUMPDEST PUSH2 0x1F9 PUSH2 0x1512 JUMP JUMPDEST PUSH1 0x40 MLOAD PUSH2 0x207 SWAP3 SWAP2 SWAP1 PUSH2 0x473E JUMP JUMPDEST PUSH1 0x40 MLOAD DUP1 SWAP2 SUB SWAP1 RETURN JUMPDEST PUSH2 0x218 PUSH2 0x193F JUMP JUMPDEST PUSH1 0x40 MLOAD PUSH2 0x225 SWAP2 SWAP1 PUSH2 0x4373 JUMP JUMPDEST PUSH1 0x40 MLOAD DUP1 SWAP2 SUB SWAP1 RETURN JUMPDEST PUSH2 0x236 PUSH2 0x21F3 JUMP JUMPDEST PUSH1 0x40 MLOAD PUSH2 0x243 SWAP2 SWAP1 PUSH2 0x4775 JUMP JUMPDEST PUSH1 0x40 MLOAD DUP1 SWAP2 SUB SWAP1 RETURN JUMPDEST PUSH2 0x266 PUSH1 0x4 DUP1 CALLDATASIZE SUB DUP2 ADD SWAP1 PUSH2 0x261 SWAP2 SWAP1 PUSH2 0x4957 JUMP JUMPDEST PUSH2 0x2206 JUMP JUMPDEST STOP JUMPDEST PUSH2 0x282 PUSH1 0x4 DUP1 CALLDATASIZE SUB DUP2 ADD SWAP1 PUSH2 0x27D SWAP2 SWAP1 PUSH2 0x4ABD JUMP JUMPDEST PUSH2 0x257A JUMP JUMPDEST STOP JUMPDEST PUSH2 0x28C PUSH2 0x2864 JUMP JUMPDEST PUSH1 0x40 MLOAD PUSH2 0x29A SWAP3 SWAP2 SWAP1 PUSH2 0x473E JUMP JUMPDEST PUSH1 0x40 MLOAD DUP1 SWAP2 SUB SWAP1 RETURN JUMPDEST PUSH2 0x2AB PUSH2 0x2CBD JUMP JUMPDEST PUSH1 0x40 MLOAD PUSH2 0x2B8 SWAP2 SWAP1 PUSH2 0x4373 JUMP JUMPDEST PUSH1 0x40 MLOAD DUP1 SWAP2 SUB SWAP1 RETURN JUMPDEST PUSH2 0x2DB PUSH1 0x4 DUP1 CALLDATASIZE SUB DUP2 ADD SWAP1 PUSH2 0x2D6 SWAP2 SWAP1 PUSH2 0x4C05 JUMP JUMPDEST PUSH2 0x35D3 JUMP JUMPDEST STOP JUMPDEST PUSH2 0x2F7 PUSH1 0x4 DUP1 CALLDATASIZE SUB DUP2 ADD SWAP1 PUSH2 0x2F2 SWAP2 SWAP1 PUSH2 0x3D75 JUMP JUMPDEST PUSH2 0x364F JUMP JUMPDEST PUSH1 0x40 MLOAD PUSH2 0x306 SWAP4 SWAP3 SWAP2 SWAP1 PUSH2 0x3E32 JUMP JUMPDEST PUSH1 0x40 MLOAD DUP1 SWAP2 SUB SWAP1 RETURN JUMPDEST PUSH2 0x329 PUSH1 0x4 DUP1 CALLDATASIZE SUB DUP2 ADD SWAP1 PUSH2 0x324 SWAP2 SWAP1 PUSH2 0x4D38 JUMP JUMPDEST PUSH2 0x3821 JUMP JUMPDEST STOP JUMPDEST PUSH2 0x345 PUSH1 0x4 DUP1 CALLDATASIZE SUB DUP2 ADD SWAP1 PUSH2 0x340 SWAP2 SWAP1 PUSH2 0x4DEF JUMP JUMPDEST PUSH2 0x386D JUMP JUMPDEST STOP JUMPDEST PUSH1 0x3 DUP2 DUP2 SLOAD DUP2 LT PUSH2 0x357 JUMPI PUSH1 0x0 DUP1 REVERT JUMPDEST SWAP1 PUSH1 0x0 MSTORE PUSH1 0x20 PUSH1 0x0 KECCAK256 SWAP1 PUSH1 0x3 MUL ADD PUSH1 0x0 SWAP2 POP SWAP1 POP DUP1 PUSH1 0x0 ADD DUP1 SLOAD PUSH2 0x37A SWAP1 PUSH2 0x4EA9 JUMP JUMPDEST DUP1 PUSH1 0x1F ADD PUSH1 0x20 DUP1 SWAP2 DIV MUL PUSH1 0x20 ADD PUSH1 0x40 MLOAD SWAP1 DUP2 ADD PUSH1 0x40 MSTORE DUP1 SWAP3 SWAP2 SWAP1 DUP2 DUP2 MSTORE PUSH1 0x20 ADD DUP3 DUP1 SLOAD PUSH2 0x3A6 SWAP1 PUSH2 0x4EA9 JUMP JUMPDEST DUP1 ISZERO PUSH2 0x3F3 JUMPI DUP1 PUSH1 0x1F LT PUSH2 0x3C8 JUMPI PUSH2 0x100 DUP1 DUP4 SLOAD DIV MUL DUP4 MSTORE SWAP2 PUSH1 0x20 ADD SWAP2 PUSH2 0x3F3 JUMP JUMPDEST DUP3 ADD SWAP2 SWAP1 PUSH1 0x0 MSTORE PUSH1 0x20 PUSH1 0x0 KECCAK256 SWAP1 JUMPDEST DUP2 SLOAD DUP2 MSTORE SWAP1 PUSH1 0x1 ADD SWAP1 PUSH1 0x20 ADD DUP1 DUP4 GT PUSH2 0x3D6 JUMPI DUP3 SWAP1 SUB PUSH1 0x1F AND DUP3 ADD SWAP2 JUMPDEST POP POP POP POP POP SWAP1 DUP1 PUSH1 0x1 ADD DUP1 SLOAD PUSH2 0x408 SWAP1 PUSH2 0x4EA9 JUMP JUMPDEST DUP1 PUSH1 0x1F ADD PUSH1 0x20 DUP1 SWAP2 DIV MUL PUSH1 0x20 ADD PUSH1 0x40 MLOAD SWAP1 DUP2 ADD PUSH1 0x40 MSTORE DUP1 SWAP3 SWAP2 SWAP1 DUP2 DUP2 MSTORE PUSH1 0x20 ADD DUP3 DUP1 SLOAD PUSH2 0x434 SWAP1 PUSH2 0x4EA9 JUMP JUMPDEST DUP1 ISZERO PUSH2 0x481 JUMPI DUP1 PUSH1 0x1F LT PUSH2 0x456 JUMPI PUSH2 0x100 DUP1 DUP4 SLOAD DIV MUL DUP4 MSTORE SWAP2 PUSH1 0x20 ADD SWAP2 PUSH2 0x481 JUMP JUMPDEST DUP3 ADD SWAP2 SWAP1 PUSH1 0x0 MSTORE PUSH1 0x20 PUSH1 0x0 KECCAK256 SWAP1 JUMPDEST DUP2 SLOAD DUP2 MSTORE SWAP1 PUSH1 0x1 ADD SWAP1 PUSH1 0x20 ADD DUP1 DUP4 GT PUSH2 0x464 JUMPI DUP3 SWAP1 SUB PUSH1 0x1F AND DUP3 ADD SWAP2 JUMPDEST POP POP POP POP POP SWAP1 DUP1 PUSH1 0x2 ADD DUP1 SLOAD PUSH2 0x496 SWAP1 PUSH2 0x4EA9 JUMP JUMPDEST DUP1 PUSH1 0x1F ADD PUSH1 0x20 DUP1 SWAP2 DIV MUL PUSH1 0x20 ADD PUSH1 0x40 MLOAD SWAP1 DUP2 ADD PUSH1 0x40 MSTORE DUP1 SWAP3 SWAP2 SWAP1 DUP2 DUP2 MSTORE PUSH1 0x20 ADD DUP3 DUP1 SLOAD PUSH2 0x4C2 SWAP1 PUSH2 0x4EA9 JUMP JUMPDEST DUP1 ISZERO PUSH2 0x50F JUMPI DUP1 PUSH1 0x1F LT PUSH2 0x4E4 JUMPI PUSH2 0x100 DUP1 DUP4 SLOAD DIV MUL DUP4 MSTORE SWAP2 PUSH1 0x20 ADD SWAP2 PUSH2 0x50F JUMP JUMPDEST DUP3 ADD SWAP2 SWAP1 PUSH1 0x0 MSTORE PUSH1 0x20 PUSH1 0x0 KECCAK256 SWAP1 JUMPDEST DUP2 SLOAD DUP2 MSTORE SWAP1 PUSH1 0x1 ADD SWAP1 PUSH1 0x20 ADD DUP1 DUP4 GT PUSH2 0x4F2 JUMPI DUP3 SWAP1 SUB PUSH1 0x1F AND DUP3 ADD SWAP2 JUMPDEST POP POP POP POP POP SWAP1 POP DUP4 JUMP JUMPDEST PUSH1 0x60 PUSH1 0x0 PUSH1 0x7 DUP1 SLOAD SWAP1 POP PUSH8 0xFFFFFFFFFFFFFFFF DUP2 GT ISZERO PUSH2 0x53C JUMPI PUSH2 0x53B PUSH2 0x439F JUMP JUMPDEST JUMPDEST PUSH1 0x40 MLOAD SWAP1 DUP1 DUP3 MSTORE DUP1 PUSH1 0x20 MUL PUSH1 0x20 ADD DUP3 ADD PUSH1 0x40 MSTORE DUP1 ISZERO PUSH2 0x575 JUMPI DUP2 PUSH1 0x20 ADD JUMPDEST PUSH2 0x562 PUSH2 0x3B9C JUMP JUMPDEST DUP2 MSTORE PUSH1 0x20 ADD SWAP1 PUSH1 0x1 SWAP1 SUB SWAP1 DUP2 PUSH2 0x55A JUMPI SWAP1 POP JUMPDEST POP SWAP1 POP PUSH1 0x0 JUMPDEST PUSH1 0x7 DUP1 SLOAD SWAP1 POP DUP2 LT ISZERO PUSH2 0xDC5 JUMPI PUSH1 0x6 PUSH1 0x7 DUP3 DUP2 SLOAD DUP2 LT PUSH2 0x59E JUMPI PUSH2 0x59D PUSH2 0x4EDA JUMP JUMPDEST JUMPDEST SWAP1 PUSH1 0x0 MSTORE PUSH1 0x20 PUSH1 0x0 KECCAK256 ADD PUSH1 0x40 MLOAD PUSH2 0x5B5 SWAP2 SWAP1 PUSH2 0x4FAC JUMP JUMPDEST SWAP1 DUP2 MSTORE PUSH1 0x20 ADD PUSH1 0x40 MLOAD DUP1 SWAP2 SUB SWAP1 KECCAK256 PUSH1 0x40 MLOAD DUP1 PUSH2 0x160 ADD PUSH1 0x40 MSTORE SWAP1 DUP2 PUSH1 0x0 DUP3 ADD DUP1 SLOAD PUSH2 0x5DF SWAP1 PUSH2 0x4EA9 JUMP JUMPDEST DUP1 PUSH1 0x1F ADD PUSH1 0x20 DUP1 SWAP2 DIV MUL PUSH1 0x20 ADD PUSH1 0x40 MLOAD SWAP1 DUP2 ADD PUSH1 0x40 MSTORE DUP1 SWAP3 SWAP2 SWAP1 DUP2 DUP2 MSTORE PUSH1 0x20 ADD DUP3 DUP1 SLOAD PUSH2 0x60B SWAP1 PUSH2 0x4EA9 JUMP JUMPDEST DUP1 ISZERO PUSH2 0x658 JUMPI DUP1 PUSH1 0x1F LT PUSH2 0x62D JUMPI PUSH2 0x100 DUP1 DUP4 SLOAD DIV MUL DUP4 MSTORE SWAP2 PUSH1 0x20 ADD SWAP2 PUSH2 0x658 JUMP JUMPDEST DUP3 ADD SWAP2 SWAP1 PUSH1 0x0 MSTORE PUSH1 0x20 PUSH1 0x0 KECCAK256 SWAP1 JUMPDEST DUP2 SLOAD DUP2 MSTORE SWAP1 PUSH1 0x1 ADD SWAP1 PUSH1 0x20 ADD DUP1 DUP4 GT PUSH2 0x63B JUMPI DUP3 SWAP1 SUB PUSH1 0x1F AND DUP3 ADD SWAP2 JUMPDEST POP POP POP POP POP DUP2 MSTORE PUSH1 0x20 ADD PUSH1 0x1 DUP3 ADD DUP1 SLOAD PUSH2 0x671 SWAP1 PUSH2 0x4EA9 JUMP JUMPDEST DUP1 PUSH1 0x1F ADD PUSH1 0x20 DUP1 SWAP2 DIV MUL PUSH1 0x20 ADD PUSH1 0x40 MLOAD SWAP1 DUP2 ADD PUSH1 0x40 MSTORE DUP1 SWAP3 SWAP2 SWAP1 DUP2 DUP2 MSTORE PUSH1 0x20 ADD DUP3 DUP1 SLOAD PUSH2 0x69D SWAP1 PUSH2 0x4EA9 JUMP JUMPDEST DUP1 ISZERO PUSH2 0x6EA JUMPI DUP1 PUSH1 0x1F LT PUSH2 0x6BF JUMPI PUSH2 0x100 DUP1 DUP4 SLOAD DIV MUL DUP4 MSTORE SWAP2 PUSH1 0x20 ADD SWAP2 PUSH2 0x6EA JUMP JUMPDEST DUP3 ADD SWAP2 SWAP1 PUSH1 0x0 MSTORE PUSH1 0x20 PUSH1 0x0 KECCAK256 SWAP1 JUMPDEST DUP2 SLOAD DUP2 MSTORE SWAP1 PUSH1 0x1 ADD SWAP1 PUSH1 0x20 ADD DUP1 DUP4 GT PUSH2 0x6CD JUMPI DUP3 SWAP1 SUB PUSH1 0x1F AND DUP3 ADD SWAP2 JUMPDEST POP POP POP POP POP DUP2 MSTORE PUSH1 0x20 ADD PUSH1 0x2 DUP3 ADD DUP1 SLOAD PUSH2 0x703 SWAP1 PUSH2 0x4EA9 JUMP JUMPDEST DUP1 PUSH1 0x1F ADD PUSH1 0x20 DUP1 SWAP2 DIV MUL PUSH1 0x20 ADD PUSH1 0x40 MLOAD SWAP1 DUP2 ADD PUSH1 0x40 MSTORE DUP1 SWAP3 SWAP2 SWAP1 DUP2 DUP2 MSTORE PUSH1 0x20 ADD DUP3 DUP1 SLOAD PUSH2 0x72F SWAP1 PUSH2 0x4EA9 JUMP JUMPDEST DUP1 ISZERO PUSH2 0x77C JUMPI DUP1 PUSH1 0x1F LT PUSH2 0x751 JUMPI PUSH2 0x100 DUP1 DUP4 SLOAD DIV MUL DUP4 MSTORE SWAP2 PUSH1 0x20 ADD SWAP2 PUSH2 0x77C JUMP JUMPDEST DUP3 ADD SWAP2 SWAP1 PUSH1 0x0 MSTORE PUSH1 0x20 PUSH1 0x0 KECCAK256 SWAP1 JUMPDEST DUP2 SLOAD DUP2 MSTORE SWAP1 PUSH1 0x1 ADD SWAP1 PUSH1 0x20 ADD DUP1 DUP4 GT PUSH2 0x75F JUMPI DUP3 SWAP1 SUB PUSH1 0x1F AND DUP3 ADD SWAP2 JUMPDEST POP POP POP POP POP DUP2 MSTORE PUSH1 0x20 ADD PUSH1 0x3 DUP3 ADD DUP1 SLOAD PUSH2 0x795 SWAP1 PUSH2 0x4EA9 JUMP JUMPDEST DUP1 PUSH1 0x1F ADD PUSH1 0x20 DUP1 SWAP2 DIV MUL PUSH1 0x20 ADD PUSH1 0x40 MLOAD SWAP1 DUP2 ADD PUSH1 0x40 MSTORE DUP1 SWAP3 SWAP2 SWAP1 DUP2 DUP2 MSTORE PUSH1 0x20 ADD DUP3 DUP1 SLOAD PUSH2 0x7C1 SWAP1 PUSH2 0x4EA9 JUMP JUMPDEST DUP1 ISZERO PUSH2 0x80E JUMPI DUP1 PUSH1 0x1F LT PUSH2 0x7E3 JUMPI PUSH2 0x100 DUP1 DUP4 SLOAD DIV MUL DUP4 MSTORE SWAP2 PUSH1 0x20 ADD SWAP2 PUSH2 0x80E JUMP JUMPDEST DUP3 ADD SWAP2 SWAP1 PUSH1 0x0 MSTORE PUSH1 0x20 PUSH1 0x0 KECCAK256 SWAP1 JUMPDEST DUP2 SLOAD DUP2 MSTORE SWAP1 PUSH1 0x1 ADD SWAP1 PUSH1 0x20 ADD DUP1 DUP4 GT PUSH2 0x7F1 JUMPI DUP3 SWAP1 SUB PUSH1 0x1F AND DUP3 ADD SWAP2 JUMPDEST POP POP POP POP POP DUP2 MSTORE PUSH1 0x20 ADD PUSH1 0x4 DUP3 ADD DUP1 SLOAD DUP1 PUSH1 0x20 MUL PUSH1 0x20 ADD PUSH1 0x40 MLOAD SWAP1 DUP2 ADD PUSH1 0x40 MSTORE DUP1 SWAP3 SWAP2 SWAP1 DUP2 DUP2 MSTORE PUSH1 0x20 ADD PUSH1 0x0 SWAP1 JUMPDEST DUP3 DUP3 LT ISZERO PUSH2 0xA24 JUMPI DUP4 DUP3 SWAP1 PUSH1 0x0 MSTORE PUSH1 0x20 PUSH1 0x0 KECCAK256 SWAP1 PUSH1 0x3 MUL ADD PUSH1 0x40 MLOAD DUP1 PUSH1 0x60 ADD PUSH1 0x40 MSTORE SWAP1 DUP2 PUSH1 0x0 DUP3 ADD DUP1 SLOAD PUSH2 0x86F SWAP1 PUSH2 0x4EA9 JUMP JUMPDEST DUP1 PUSH1 0x1F ADD PUSH1 0x20 DUP1 SWAP2 DIV MUL PUSH1 0x20 ADD PUSH1 0x40 MLOAD SWAP1 DUP2 ADD PUSH1 0x40 MSTORE DUP1 SWAP3 SWAP2 SWAP1 DUP2 DUP2 MSTORE PUSH1 0x20 ADD DUP3 DUP1 SLOAD PUSH2 0x89B SWAP1 PUSH2 0x4EA9 JUMP JUMPDEST DUP1 ISZERO PUSH2 0x8E8 JUMPI DUP1 PUSH1 0x1F LT PUSH2 0x8BD JUMPI PUSH2 0x100 DUP1 DUP4 SLOAD DIV MUL DUP4 MSTORE SWAP2 PUSH1 0x20 ADD SWAP2 PUSH2 0x8E8 JUMP JUMPDEST DUP3 ADD SWAP2 SWAP1 PUSH1 0x0 MSTORE PUSH1 0x20 PUSH1 0x0 KECCAK256 SWAP1 JUMPDEST DUP2 SLOAD DUP2 MSTORE SWAP1 PUSH1 0x1 ADD SWAP1 PUSH1 0x20 ADD DUP1 DUP4 GT PUSH2 0x8CB JUMPI DUP3 SWAP1 SUB PUSH1 0x1F AND DUP3 ADD SWAP2 JUMPDEST POP POP POP POP POP DUP2 MSTORE PUSH1 0x20 ADD PUSH1 0x1 DUP3 ADD DUP1 SLOAD PUSH2 0x901 SWAP1 PUSH2 0x4EA9 JUMP JUMPDEST DUP1 PUSH1 0x1F ADD PUSH1 0x20 DUP1 SWAP2 DIV MUL PUSH1 0x20 ADD PUSH1 0x40 MLOAD SWAP1 DUP2 ADD PUSH1 0x40 MSTORE DUP1 SWAP3 SWAP2 SWAP1 DUP2 DUP2 MSTORE PUSH1 0x20 ADD DUP3 DUP1 SLOAD PUSH2 0x92D SWAP1 PUSH2 0x4EA9 JUMP JUMPDEST DUP1 ISZERO PUSH2 0x97A JUMPI DUP1 PUSH1 0x1F LT PUSH2 0x94F JUMPI PUSH2 0x100 DUP1 DUP4 SLOAD DIV MUL DUP4 MSTORE SWAP2 PUSH1 0x20 ADD SWAP2 PUSH2 0x97A JUMP JUMPDEST DUP3 ADD SWAP2 SWAP1 PUSH1 0x0 MSTORE PUSH1 0x20 PUSH1 0x0 KECCAK256 SWAP1 JUMPDEST DUP2 SLOAD DUP2 MSTORE SWAP1 PUSH1 0x1 ADD SWAP1 PUSH1 0x20 ADD DUP1 DUP4 GT PUSH2 0x95D JUMPI DUP3 SWAP1 SUB PUSH1 0x1F AND DUP3 ADD SWAP2 JUMPDEST POP POP POP POP POP DUP2 MSTORE PUSH1 0x20 ADD PUSH1 0x2 DUP3 ADD DUP1 SLOAD PUSH2 0x993 SWAP1 PUSH2 0x4EA9 JUMP JUMPDEST DUP1 PUSH1 0x1F ADD PUSH1 0x20 DUP1 SWAP2 DIV MUL PUSH1 0x20 ADD PUSH1 0x40 MLOAD SWAP1 DUP2 ADD PUSH1 0x40 MSTORE DUP1 SWAP3 SWAP2 SWAP1 DUP2 DUP2 MSTORE PUSH1 0x20 ADD DUP3 DUP1 SLOAD PUSH2 0x9BF SWAP1 PUSH2 0x4EA9 JUMP JUMPDEST DUP1 ISZERO PUSH2 0xA0C JUMPI DUP1 PUSH1 0x1F LT PUSH2 0x9E1 JUMPI PUSH2 0x100 DUP1 DUP4 SLOAD DIV MUL DUP4 MSTORE SWAP2 PUSH1 0x20 ADD SWAP2 PUSH2 0xA0C JUMP JUMPDEST DUP3 ADD SWAP2 SWAP1 PUSH1 0x0 MSTORE PUSH1 0x20 PUSH1 0x0 KECCAK256 SWAP1 JUMPDEST DUP2 SLOAD DUP2 MSTORE SWAP1 PUSH1 0x1 ADD SWAP1 PUSH1 0x20 ADD DUP1 DUP4 GT PUSH2 0x9EF JUMPI DUP3 SWAP1 SUB PUSH1 0x1F AND DUP3 ADD SWAP2 JUMPDEST POP POP POP POP POP DUP2 MSTORE POP POP DUP2 MSTORE PUSH1 0x20 ADD SWAP1 PUSH1 0x1 ADD SWAP1 PUSH2 0x83C JUMP JUMPDEST POP POP POP POP DUP2 MSTORE PUSH1 0x20 ADD PUSH1 0x5 DUP3 ADD DUP1 SLOAD DUP1 PUSH1 0x20 MUL PUSH1 0x20 ADD PUSH1 0x40 MLOAD SWAP1 DUP2 ADD PUSH1 0x40 MSTORE DUP1 SWAP3 SWAP2 SWAP1 DUP2 DUP2 MSTORE PUSH1 0x20 ADD PUSH1 0x0 SWAP1 JUMPDEST DUP3 DUP3 LT ISZERO PUSH2 0xC39 JUMPI DUP4 DUP3 SWAP1 PUSH1 0x0 MSTORE PUSH1 0x20 PUSH1 0x0 KECCAK256 SWAP1 PUSH1 0x3 MUL ADD PUSH1 0x40 MLOAD DUP1 PUSH1 0x60 ADD PUSH1 0x40 MSTORE SWAP1 DUP2 PUSH1 0x0 DUP3 ADD DUP1 SLOAD PUSH2 0xA84 SWAP1 PUSH2 0x4EA9 JUMP JUMPDEST DUP1 PUSH1 0x1F ADD PUSH1 0x20 DUP1 SWAP2 DIV MUL PUSH1 0x20 ADD PUSH1 0x40 MLOAD SWAP1 DUP2 ADD PUSH1 0x40 MSTORE DUP1 SWAP3 SWAP2 SWAP1 DUP2 DUP2 MSTORE PUSH1 0x20 ADD DUP3 DUP1 SLOAD PUSH2 0xAB0 SWAP1 PUSH2 0x4EA9 JUMP JUMPDEST DUP1 ISZERO PUSH2 0xAFD JUMPI DUP1 PUSH1 0x1F LT PUSH2 0xAD2 JUMPI PUSH2 0x100 DUP1 DUP4 SLOAD DIV MUL DUP4 MSTORE SWAP2 PUSH1 0x20 ADD SWAP2 PUSH2 0xAFD JUMP JUMPDEST DUP3 ADD SWAP2 SWAP1 PUSH1 0x0 MSTORE PUSH1 0x20 PUSH1 0x0 KECCAK256 SWAP1 JUMPDEST DUP2 SLOAD DUP2 MSTORE SWAP1 PUSH1 0x1 ADD SWAP1 PUSH1 0x20 ADD DUP1 DUP4 GT PUSH2 0xAE0 JUMPI DUP3 SWAP1 SUB PUSH1 0x1F AND DUP3 ADD SWAP2 JUMPDEST POP POP POP POP POP DUP2 MSTORE PUSH1 0x20 ADD PUSH1 0x1 DUP3 ADD DUP1 SLOAD PUSH2 0xB16 SWAP1 PUSH2 0x4EA9 JUMP JUMPDEST DUP1 PUSH1 0x1F ADD PUSH1 0x20 DUP1 SWAP2 DIV MUL PUSH1 0x20 ADD PUSH1 0x40 MLOAD SWAP1 DUP2 ADD PUSH1 0x40 MSTORE DUP1 SWAP3 SWAP2 SWAP1 DUP2 DUP2 MSTORE PUSH1 0x20 ADD DUP3 DUP1 SLOAD PUSH2 0xB42 SWAP1 PUSH2 0x4EA9 JUMP JUMPDEST DUP1 ISZERO PUSH2 0xB8F JUMPI DUP1 PUSH1 0x1F LT PUSH2 0xB64 JUMPI PUSH2 0x100 DUP1 DUP4 SLOAD DIV MUL DUP4 MSTORE SWAP2 PUSH1 0x20 ADD SWAP2 PUSH2 0xB8F JUMP JUMPDEST DUP3 ADD SWAP2 SWAP1 PUSH1 0x0 MSTORE PUSH1 0x20 PUSH1 0x0 KECCAK256 SWAP1 JUMPDEST DUP2 SLOAD DUP2 MSTORE SWAP1 PUSH1 0x1 ADD SWAP1 PUSH1 0x20 ADD DUP1 DUP4 GT PUSH2 0xB72 JUMPI DUP3 SWAP1 SUB PUSH1 0x1F AND DUP3 ADD SWAP2 JUMPDEST POP POP POP POP POP DUP2 MSTORE PUSH1 0x20 ADD PUSH1 0x2 DUP3 ADD DUP1 SLOAD PUSH2 0xBA8 SWAP1 PUSH2 0x4EA9 JUMP JUMPDEST DUP1 PUSH1 0x1F ADD PUSH1 0x20 DUP1 SWAP2 DIV MUL PUSH1 0x20 ADD PUSH1 0x40 MLOAD SWAP1 DUP2 ADD PUSH1 0x40 MSTORE DUP1 SWAP3 SWAP2 SWAP1 DUP2 DUP2 MSTORE PUSH1 0x20 ADD DUP3 DUP1 SLOAD PUSH2 0xBD4 SWAP1 PUSH2 0x4EA9 JUMP JUMPDEST DUP1 ISZERO PUSH2 0xC21 JUMPI DUP1 PUSH1 0x1F LT PUSH2 0xBF6 JUMPI PUSH2 0x100 DUP1 DUP4 SLOAD DIV MUL DUP4 MSTORE SWAP2 PUSH1 0x20 ADD SWAP2 PUSH2 0xC21 JUMP JUMPDEST DUP3 ADD SWAP2 SWAP1 PUSH1 0x0 MSTORE PUSH1 0x20 PUSH1 0x0 KECCAK256 SWAP1 JUMPDEST DUP2 SLOAD DUP2 MSTORE SWAP1 PUSH1 0x1 ADD SWAP1 PUSH1 0x20 ADD DUP1 DUP4 GT PUSH2 0xC04 JUMPI DUP3 SWAP1 SUB PUSH1 0x1F AND DUP3 ADD SWAP2 JUMPDEST POP POP POP POP POP DUP2 MSTORE POP POP DUP2 MSTORE PUSH1 0x20 ADD SWAP1 PUSH1 0x1 ADD SWAP1 PUSH2 0xA51 JUMP JUMPDEST POP POP POP POP DUP2 MSTORE PUSH1 0x20 ADD PUSH1 0x6 DUP3 ADD PUSH1 0x0 SWAP1 SLOAD SWAP1 PUSH2 0x100 EXP SWAP1 DIV PUSH1 0xFF AND ISZERO ISZERO ISZERO ISZERO DUP2 MSTORE PUSH1 0x20 ADD PUSH1 0x7 DUP3 ADD SLOAD DUP2 MSTORE PUSH1 0x20 ADD PUSH1 0x8 DUP3 ADD SLOAD DUP2 MSTORE PUSH1 0x20 ADD PUSH1 0x9 DUP3 ADD DUP1 SLOAD PUSH2 0xC80 SWAP1 PUSH2 0x4EA9 JUMP JUMPDEST DUP1 PUSH1 0x1F ADD PUSH1 0x20 DUP1 SWAP2 DIV MUL PUSH1 0x20 ADD PUSH1 0x40 MLOAD SWAP1 DUP2 ADD PUSH1 0x40 MSTORE DUP1 SWAP3 SWAP2 SWAP1 DUP2 DUP2 MSTORE PUSH1 0x20 ADD DUP3 DUP1 SLOAD PUSH2 0xCAC SWAP1 PUSH2 0x4EA9 JUMP JUMPDEST DUP1 ISZERO PUSH2 0xCF9 JUMPI DUP1 PUSH1 0x1F LT PUSH2 0xCCE JUMPI PUSH2 0x100 DUP1 DUP4 SLOAD DIV MUL DUP4 MSTORE SWAP2 PUSH1 0x20 ADD SWAP2 PUSH2 0xCF9 JUMP JUMPDEST DUP3 ADD SWAP2 SWAP1 PUSH1 0x0 MSTORE PUSH1 0x20 PUSH1 0x0 KECCAK256 SWAP1 JUMPDEST DUP2 SLOAD DUP2 MSTORE SWAP1 PUSH1 0x1 ADD SWAP1 PUSH1 0x20 ADD DUP1 DUP4 GT PUSH2 0xCDC JUMPI DUP3 SWAP1 SUB PUSH1 0x1F AND DUP3 ADD SWAP2 JUMPDEST POP POP POP POP POP DUP2 MSTORE PUSH1 0x20 ADD PUSH1 0xA DUP3 ADD DUP1 SLOAD PUSH2 0xD12 SWAP1 PUSH2 0x4EA9 JUMP JUMPDEST DUP1 PUSH1 0x1F ADD PUSH1 0x20 DUP1 SWAP2 DIV MUL PUSH1 0x20 ADD PUSH1 0x40 MLOAD SWAP1 DUP2 ADD PUSH1 0x40 MSTORE DUP1 SWAP3 SWAP2 SWAP1 DUP2 DUP2 MSTORE PUSH1 0x20 ADD DUP3 DUP1 SLOAD PUSH2 0xD3E SWAP1 PUSH2 0x4EA9 JUMP JUMPDEST DUP1 ISZERO PUSH2 0xD8B JUMPI DUP1 PUSH1 0x1F LT PUSH2 0xD60 JUMPI PUSH2 0x100 DUP1 DUP4 SLOAD DIV MUL DUP4 MSTORE SWAP2 PUSH1 0x20 ADD SWAP2 PUSH2 0xD8B JUMP JUMPDEST DUP3 ADD SWAP2 SWAP1 PUSH1 0x0 MSTORE PUSH1 0x20 PUSH1 0x0 KECCAK256 SWAP1 JUMPDEST DUP2 SLOAD DUP2 MSTORE SWAP1 PUSH1 0x1 ADD SWAP1 PUSH1 0x20 ADD DUP1 DUP4 GT PUSH2 0xD6E JUMPI DUP3 SWAP1 SUB PUSH1 0x1F AND DUP3 ADD SWAP2 JUMPDEST POP POP POP POP POP DUP2 MSTORE POP POP DUP3 DUP3 DUP2 MLOAD DUP2 LT PUSH2 0xDA7 JUMPI PUSH2 0xDA6 PUSH2 0x4EDA JUMP JUMPDEST JUMPDEST PUSH1 0x20 MUL PUSH1 0x20 ADD ADD DUP2 SWAP1 MSTORE POP DUP1 DUP1 PUSH2 0xDBD SWAP1 PUSH2 0x4FF2 JUMP JUMPDEST SWAP2 POP POP PUSH2 0x57B JUMP JUMPDEST POP DUP1 SWAP2 POP POP SWAP1 JUMP JUMPDEST PUSH1 0x4 DUP2 DUP2 SLOAD DUP2 LT PUSH2 0xDDD JUMPI PUSH1 0x0 DUP1 REVERT JUMPDEST SWAP1 PUSH1 0x0 MSTORE PUSH1 0x20 PUSH1 0x0 KECCAK256 SWAP1 PUSH1 0x3 MUL ADD PUSH1 0x0 SWAP2 POP SWAP1 POP DUP1 PUSH1 0x0 ADD DUP1 SLOAD PUSH2 0xE00 SWAP1 PUSH2 0x4EA9 JUMP JUMPDEST DUP1 PUSH1 0x1F ADD PUSH1 0x20 DUP1 SWAP2 DIV MUL PUSH1 0x20 ADD PUSH1 0x40 MLOAD SWAP1 DUP2 ADD PUSH1 0x40 MSTORE DUP1 SWAP3 SWAP2 SWAP1 DUP2 DUP2 MSTORE PUSH1 0x20 ADD DUP3 DUP1 SLOAD PUSH2 0xE2C SWAP1 PUSH2 0x4EA9 JUMP JUMPDEST DUP1 ISZERO PUSH2 0xE79 JUMPI DUP1 PUSH1 0x1F LT PUSH2 0xE4E JUMPI PUSH2 0x100 DUP1 DUP4 SLOAD DIV MUL DUP4 MSTORE SWAP2 PUSH1 0x20 ADD SWAP2 PUSH2 0xE79 JUMP JUMPDEST DUP3 ADD SWAP2 SWAP1 PUSH1 0x0 MSTORE PUSH1 0x20 PUSH1 0x0 KECCAK256 SWAP1 JUMPDEST DUP2 SLOAD DUP2 MSTORE SWAP1 PUSH1 0x1 ADD SWAP1 PUSH1 0x20 ADD DUP1 DUP4 GT PUSH2 0xE5C JUMPI DUP3 SWAP1 SUB PUSH1 0x1F AND DUP3 ADD SWAP2 JUMPDEST POP POP POP POP POP SWAP1 DUP1 PUSH1 0x1 ADD DUP1 SLOAD PUSH2 0xE8E SWAP1 PUSH2 0x4EA9 JUMP JUMPDEST DUP1 PUSH1 0x1F ADD PUSH1 0x20 DUP1 SWAP2 DIV MUL PUSH1 0x20 ADD PUSH1 0x40 MLOAD SWAP1 DUP2 ADD PUSH1 0x40 MSTORE DUP1 SWAP3 SWAP2 SWAP1 DUP2 DUP2 MSTORE PUSH1 0x20 ADD DUP3 DUP1 SLOAD PUSH2 0xEBA SWAP1 PUSH2 0x4EA9 JUMP JUMPDEST DUP1 ISZERO PUSH2 0xF07 JUMPI DUP1 PUSH1 0x1F LT PUSH2 0xEDC JUMPI PUSH2 0x100 DUP1 DUP4 SLOAD DIV MUL DUP4 MSTORE SWAP2 PUSH1 0x20 ADD SWAP2 PUSH2 0xF07 JUMP JUMPDEST DUP3 ADD SWAP2 SWAP1 PUSH1 0x0 MSTORE PUSH1 0x20 PUSH1 0x0 KECCAK256 SWAP1 JUMPDEST DUP2 SLOAD DUP2 MSTORE SWAP1 PUSH1 0x1 ADD SWAP1 PUSH1 0x20 ADD DUP1 DUP4 GT PUSH2 0xEEA JUMPI DUP3 SWAP1 SUB PUSH1 0x1F AND DUP3 ADD SWAP2 JUMPDEST POP POP POP POP POP SWAP1 DUP1 PUSH1 0x2 ADD DUP1 SLOAD PUSH2 0xF1C SWAP1 PUSH2 0x4EA9 JUMP JUMPDEST DUP1 PUSH1 0x1F ADD PUSH1 0x20 DUP1 SWAP2 DIV MUL PUSH1 0x20 ADD PUSH1 0x40 MLOAD SWAP1 DUP2 ADD PUSH1 0x40 MSTORE DUP1 SWAP3 SWAP2 SWAP1 DUP2 DUP2 MSTORE PUSH1 0x20 ADD DUP3 DUP1 SLOAD PUSH2 0xF48 SWAP1 PUSH2 0x4EA9 JUMP JUMPDEST DUP1 ISZERO PUSH2 0xF95 JUMPI DUP1 PUSH1 0x1F LT PUSH2 0xF6A JUMPI PUSH2 0x100 DUP1 DUP4 SLOAD DIV MUL DUP4 MSTORE SWAP2 PUSH1 0x20 ADD SWAP2 PUSH2 0xF95 JUMP JUMPDEST DUP3 ADD SWAP2 SWAP1 PUSH1 0x0 MSTORE PUSH1 0x20 PUSH1 0x0 KECCAK256 SWAP1 JUMPDEST DUP2 SLOAD DUP2 MSTORE SWAP1 PUSH1 0x1 ADD SWAP1 PUSH1 0x20 ADD DUP1 DUP4 GT PUSH2 0xF78 JUMPI DUP3 SWAP1 SUB PUSH1 0x1F AND DUP3 ADD SWAP2 JUMPDEST POP POP POP POP POP SWAP1 POP DUP4 JUMP JUMPDEST PUSH1 0x2 DUP2 DUP2 SLOAD DUP2 LT PUSH2 0xFAF JUMPI PUSH1 0x0 DUP1 REVERT JUMPDEST SWAP1 PUSH1 0x0 MSTORE PUSH1 0x20 PUSH1 0x0 KECCAK256 SWAP1 PUSH1 0x3 MUL ADD PUSH1 0x0 SWAP2 POP SWAP1 POP DUP1 PUSH1 0x0 ADD DUP1 SLOAD PUSH2 0xFD2 SWAP1 PUSH2 0x4EA9 JUMP JUMPDEST DUP1 PUSH1 0x1F ADD PUSH1 0x20 DUP1 SWAP2 DIV MUL PUSH1 0x20 ADD PUSH1 0x40 MLOAD SWAP1 DUP2 ADD PUSH1 0x40 MSTORE DUP1 SWAP3 SWAP2 SWAP1 DUP2 DUP2 MSTORE PUSH1 0x20 ADD DUP3 DUP1 SLOAD PUSH2 0xFFE SWAP1 PUSH2 0x4EA9 JUMP JUMPDEST DUP1 ISZERO PUSH2 0x104B JUMPI DUP1 PUSH1 0x1F LT PUSH2 0x1020 JUMPI PUSH2 0x100 DUP1 DUP4 SLOAD DIV MUL DUP4 MSTORE SWAP2 PUSH1 0x20 ADD SWAP2 PUSH2 0x104B JUMP JUMPDEST DUP3 ADD SWAP2 SWAP1 PUSH1 0x0 MSTORE PUSH1 0x20 PUSH1 0x0 KECCAK256 SWAP1 JUMPDEST DUP2 SLOAD DUP2 MSTORE SWAP1 PUSH1 0x1 ADD SWAP1 PUSH1 0x20 ADD DUP1 DUP4 GT PUSH2 0x102E JUMPI DUP3 SWAP1 SUB PUSH1 0x1F AND DUP3 ADD SWAP2 JUMPDEST POP POP POP POP POP SWAP1 DUP1 PUSH1 0x1 ADD DUP1 SLOAD PUSH2 0x1060 SWAP1 PUSH2 0x4EA9 JUMP JUMPDEST DUP1 PUSH1 0x1F ADD PUSH1 0x20 DUP1 SWAP2 DIV MUL PUSH1 0x20 ADD PUSH1 0x40 MLOAD SWAP1 DUP2 ADD PUSH1 0x40 MSTORE DUP1 SWAP3 SWAP2 SWAP1 DUP2 DUP2 MSTORE PUSH1 0x20 ADD DUP3 DUP1 SLOAD PUSH2 0x108C SWAP1 PUSH2 0x4EA9 JUMP JUMPDEST DUP1 ISZERO PUSH2 0x10D9 JUMPI DUP1 PUSH1 0x1F LT PUSH2 0x10AE JUMPI PUSH2 0x100 DUP1 DUP4 SLOAD DIV MUL DUP4 MSTORE SWAP2 PUSH1 0x20 ADD SWAP2 PUSH2 0x10D9 JUMP JUMPDEST DUP3 ADD SWAP2 SWAP1 PUSH1 0x0 MSTORE PUSH1 0x20 PUSH1 0x0 KECCAK256 SWAP1 JUMPDEST DUP2 SLOAD DUP2 MSTORE SWAP1 PUSH1 0x1 ADD SWAP1 PUSH1 0x20 ADD DUP1 DUP4 GT PUSH2 0x10BC JUMPI DUP3 SWAP1 SUB PUSH1 0x1F AND DUP3 ADD SWAP2 JUMPDEST POP POP POP POP POP SWAP1 DUP1 PUSH1 0x2 ADD DUP1 SLOAD PUSH2 0x10EE SWAP1 PUSH2 0x4EA9 JUMP JUMPDEST DUP1 PUSH1 0x1F ADD PUSH1 0x20 DUP1 SWAP2 DIV MUL PUSH1 0x20 ADD PUSH1 0x40 MLOAD SWAP1 DUP2 ADD PUSH1 0x40 MSTORE DUP1 SWAP3 SWAP2 SWAP1 DUP2 DUP2 MSTORE PUSH1 0x20 ADD DUP3 DUP1 SLOAD PUSH2 0x111A SWAP1 PUSH2 0x4EA9 JUMP JUMPDEST DUP1 ISZERO PUSH2 0x1167 JUMPI DUP1 PUSH1 0x1F LT PUSH2 0x113C JUMPI PUSH2 0x100 DUP1 DUP4 SLOAD DIV MUL DUP4 MSTORE SWAP2 PUSH1 0x20 ADD SWAP2 PUSH2 0x1167 JUMP JUMPDEST DUP3 ADD SWAP2 SWAP1 PUSH1 0x0 MSTORE PUSH1 0x20 PUSH1 0x0 KECCAK256 SWAP1 JUMPDEST DUP2 SLOAD DUP2 MSTORE SWAP1 PUSH1 0x1 ADD SWAP1 PUSH1 0x20 ADD DUP1 DUP4 GT PUSH2 0x114A JUMPI DUP3 SWAP1 SUB PUSH1 0x1F AND DUP3 ADD SWAP2 JUMPDEST POP POP POP POP POP SWAP1 POP DUP4 JUMP JUMPDEST PUSH1 0x6 DUP2 DUP1 MLOAD PUSH1 0x20 DUP2 ADD DUP3 ADD DUP1 MLOAD DUP5 DUP3 MSTORE PUSH1 0x20 DUP4 ADD PUSH1 0x20 DUP6 ADD KECCAK256 DUP2 DUP4 MSTORE DUP1 SWAP6 POP POP POP POP POP POP PUSH1 0x0 SWAP2 POP SWAP1 POP DUP1 PUSH1 0x0 ADD DUP1 SLOAD PUSH2 0x11AA SWAP1 PUSH2 0x4EA9 JUMP JUMPDEST DUP1 PUSH1 0x1F ADD PUSH1 0x20 DUP1 SWAP2 DIV MUL PUSH1 0x20 ADD PUSH1 0x40 MLOAD SWAP1 DUP2 ADD PUSH1 0x40 MSTORE DUP1 SWAP3 SWAP2 SWAP1 DUP2 DUP2 MSTORE PUSH1 0x20 ADD DUP3 DUP1 SLOAD PUSH2 0x11D6 SWAP1 PUSH2 0x4EA9 JUMP JUMPDEST DUP1 ISZERO PUSH2 0x1223 JUMPI DUP1 PUSH1 0x1F LT PUSH2 0x11F8 JUMPI PUSH2 0x100 DUP1 DUP4 SLOAD DIV MUL DUP4 MSTORE SWAP2 PUSH1 0x20 ADD SWAP2 PUSH2 0x1223 JUMP JUMPDEST DUP3 ADD SWAP2 SWAP1 PUSH1 0x0 MSTORE PUSH1 0x20 PUSH1 0x0 KECCAK256 SWAP1 JUMPDEST DUP2 SLOAD DUP2 MSTORE SWAP1 PUSH1 0x1 ADD SWAP1 PUSH1 0x20 ADD DUP1 DUP4 GT PUSH2 0x1206 JUMPI DUP3 SWAP1 SUB PUSH1 0x1F AND DUP3 ADD SWAP2 JUMPDEST POP POP POP POP POP SWAP1 DUP1 PUSH1 0x1 ADD DUP1 SLOAD PUSH2 0x1238 SWAP1 PUSH2 0x4EA9 JUMP JUMPDEST DUP1 PUSH1 0x1F ADD PUSH1 0x20 DUP1 SWAP2 DIV MUL PUSH1 0x20 ADD PUSH1 0x40 MLOAD SWAP1 DUP2 ADD PUSH1 0x40 MSTORE DUP1 SWAP3 SWAP2 SWAP1 DUP2 DUP2 MSTORE PUSH1 0x20 ADD DUP3 DUP1 SLOAD PUSH2 0x1264 SWAP1 PUSH2 0x4EA9 JUMP JUMPDEST DUP1 ISZERO PUSH2 0x12B1 JUMPI DUP1 PUSH1 0x1F LT PUSH2 0x1286 JUMPI PUSH2 0x100 DUP1 DUP4 SLOAD DIV MUL DUP4 MSTORE SWAP2 PUSH1 0x20 ADD SWAP2 PUSH2 0x12B1 JUMP JUMPDEST DUP3 ADD SWAP2 SWAP1 PUSH1 0x0 MSTORE PUSH1 0x20 PUSH1 0x0 KECCAK256 SWAP1 JUMPDEST DUP2 SLOAD DUP2 MSTORE SWAP1 PUSH1 0x1 ADD SWAP1 PUSH1 0x20 ADD DUP1 DUP4 GT PUSH2 0x1294 JUMPI DUP3 SWAP1 SUB PUSH1 0x1F AND DUP3 ADD SWAP2 JUMPDEST POP POP POP POP POP SWAP1 DUP1 PUSH1 0x2 ADD DUP1 SLOAD PUSH2 0x12C6 SWAP1 PUSH2 0x4EA9 JUMP JUMPDEST DUP1 PUSH1 0x1F ADD PUSH1 0x20 DUP1 SWAP2 DIV MUL PUSH1 0x20 ADD PUSH1 0x40 MLOAD SWAP1 DUP2 ADD PUSH1 0x40 MSTORE DUP1 SWAP3 SWAP2 SWAP1 DUP2 DUP2 MSTORE PUSH1 0x20 ADD DUP3 DUP1 SLOAD PUSH2 0x12F2 SWAP1 PUSH2 0x4EA9 JUMP JUMPDEST DUP1 ISZERO PUSH2 0x133F JUMPI DUP1 PUSH1 0x1F LT PUSH2 0x1314 JUMPI PUSH2 0x100 DUP1 DUP4 SLOAD DIV MUL DUP4 MSTORE SWAP2 PUSH1 0x20 ADD SWAP2 PUSH2 0x133F JUMP JUMPDEST DUP3 ADD SWAP2 SWAP1 PUSH1 0x0 MSTORE PUSH1 0x20 PUSH1 0x0 KECCAK256 SWAP1 JUMPDEST DUP2 SLOAD DUP2 MSTORE SWAP1 PUSH1 0x1 ADD SWAP1 PUSH1 0x20 ADD DUP1 DUP4 GT PUSH2 0x1322 JUMPI DUP3 SWAP1 SUB PUSH1 0x1F AND DUP3 ADD SWAP2 JUMPDEST POP POP POP POP POP SWAP1 DUP1 PUSH1 0x3 ADD DUP1 SLOAD PUSH2 0x1354 SWAP1 PUSH2 0x4EA9 JUMP JUMPDEST DUP1 PUSH1 0x1F ADD PUSH1 0x20 DUP1 SWAP2 DIV MUL PUSH1 0x20 ADD PUSH1 0x40 MLOAD SWAP1 DUP2 ADD PUSH1 0x40 MSTORE DUP1 SWAP3 SWAP2 SWAP1 DUP2 DUP2 MSTORE PUSH1 0x20 ADD DUP3 DUP1 SLOAD PUSH2 0x1380 SWAP1 PUSH2 0x4EA9 JUMP JUMPDEST DUP1 ISZERO PUSH2 0x13CD JUMPI DUP1 PUSH1 0x1F LT PUSH2 0x13A2 JUMPI PUSH2 0x100 DUP1 DUP4 SLOAD DIV MUL DUP4 MSTORE SWAP2 PUSH1 0x20 ADD SWAP2 PUSH2 0x13CD JUMP JUMPDEST DUP3 ADD SWAP2 SWAP1 PUSH1 0x0 MSTORE PUSH1 0x20 PUSH1 0x0 KECCAK256 SWAP1 JUMPDEST DUP2 SLOAD DUP2 MSTORE SWAP1 PUSH1 0x1 ADD SWAP1 PUSH1 0x20 ADD DUP1 DUP4 GT PUSH2 0x13B0 JUMPI DUP3 SWAP1 SUB PUSH1 0x1F AND DUP3 ADD SWAP2 JUMPDEST POP POP POP POP POP SWAP1 DUP1 PUSH1 0x6 ADD PUSH1 0x0 SWAP1 SLOAD SWAP1 PUSH2 0x100 EXP SWAP1 DIV PUSH1 0xFF AND SWAP1 DUP1 PUSH1 0x7 ADD SLOAD SWAP1 DUP1 PUSH1 0x8 ADD SLOAD SWAP1 DUP1 PUSH1 0x9 ADD DUP1 SLOAD PUSH2 0x1401 SWAP1 PUSH2 0x4EA9 JUMP JUMPDEST DUP1 PUSH1 0x1F ADD PUSH1 0x20 DUP1 SWAP2 DIV MUL PUSH1 0x20 ADD PUSH1 0x40 MLOAD SWAP1 DUP2 ADD PUSH1 0x40 MSTORE DUP1 SWAP3 SWAP2 SWAP1 DUP2 DUP2 MSTORE PUSH1 0x20 ADD DUP3 DUP1 SLOAD PUSH2 0x142D SWAP1 PUSH2 0x4EA9 JUMP JUMPDEST DUP1 ISZERO PUSH2 0x147A JUMPI DUP1 PUSH1 0x1F LT PUSH2 0x144F JUMPI PUSH2 0x100 DUP1 DUP4 SLOAD DIV MUL DUP4 MSTORE SWAP2 PUSH1 0x20 ADD SWAP2 PUSH2 0x147A JUMP JUMPDEST DUP3 ADD SWAP2 SWAP1 PUSH1 0x0 MSTORE PUSH1 0x20 PUSH1 0x0 KECCAK256 SWAP1 JUMPDEST DUP2 SLOAD DUP2 MSTORE SWAP1 PUSH1 0x1 ADD SWAP1 PUSH1 0x20 ADD DUP1 DUP4 GT PUSH2 0x145D JUMPI DUP3 SWAP1 SUB PUSH1 0x1F AND DUP3 ADD SWAP2 JUMPDEST POP POP POP POP POP SWAP1 DUP1 PUSH1 0xA ADD DUP1 SLOAD PUSH2 0x148F SWAP1 PUSH2 0x4EA9 JUMP JUMPDEST DUP1 PUSH1 0x1F ADD PUSH1 0x20 DUP1 SWAP2 DIV MUL PUSH1 0x20 ADD PUSH1 0x40 MLOAD SWAP1 DUP2 ADD PUSH1 0x40 MSTORE DUP1 SWAP3 SWAP2 SWAP1 DUP2 DUP2 MSTORE PUSH1 0x20 ADD DUP3 DUP1 SLOAD PUSH2 0x14BB SWAP1 PUSH2 0x4EA9 JUMP JUMPDEST DUP1 ISZERO PUSH2 0x1508 JUMPI DUP1 PUSH1 0x1F LT PUSH2 0x14DD JUMPI PUSH2 0x100 DUP1 DUP4 SLOAD DIV MUL DUP4 MSTORE SWAP2 PUSH1 0x20 ADD SWAP2 PUSH2 0x1508 JUMP JUMPDEST DUP3 ADD SWAP2 SWAP1 PUSH1 0x0 MSTORE PUSH1 0x20 PUSH1 0x0 KECCAK256 SWAP1 JUMPDEST DUP2 SLOAD DUP2 MSTORE SWAP1 PUSH1 0x1 ADD SWAP1 PUSH1 0x20 ADD DUP1 DUP4 GT PUSH2 0x14EB JUMPI DUP3 SWAP1 SUB PUSH1 0x1F AND DUP3 ADD SWAP2 JUMPDEST POP POP POP POP POP SWAP1 POP DUP10 JUMP JUMPDEST PUSH1 0x60 DUP1 PUSH1 0x3 PUSH1 0x4 DUP2 DUP1 SLOAD DUP1 PUSH1 0x20 MUL PUSH1 0x20 ADD PUSH1 0x40 MLOAD SWAP1 DUP2 ADD PUSH1 0x40 MSTORE DUP1 SWAP3 SWAP2 SWAP1 DUP2 DUP2 MSTORE PUSH1 0x20 ADD PUSH1 0x0 SWAP1 JUMPDEST DUP3 DUP3 LT ISZERO PUSH2 0x1722 JUMPI DUP4 DUP3 SWAP1 PUSH1 0x0 MSTORE PUSH1 0x20 PUSH1 0x0 KECCAK256 SWAP1 PUSH1 0x3 MUL ADD PUSH1 0x40 MLOAD DUP1 PUSH1 0x60 ADD PUSH1 0x40 MSTORE SWAP1 DUP2 PUSH1 0x0 DUP3 ADD DUP1 SLOAD PUSH2 0x156D SWAP1 PUSH2 0x4EA9 JUMP JUMPDEST DUP1 PUSH1 0x1F ADD PUSH1 0x20 DUP1 SWAP2 DIV MUL PUSH1 0x20 ADD PUSH1 0x40 MLOAD SWAP1 DUP2 ADD PUSH1 0x40 MSTORE DUP1 SWAP3 SWAP2 SWAP1 DUP2 DUP2 MSTORE PUSH1 0x20 ADD DUP3 DUP1 SLOAD PUSH2 0x1599 SWAP1 PUSH2 0x4EA9 JUMP JUMPDEST DUP1 ISZERO PUSH2 0x15E6 JUMPI DUP1 PUSH1 0x1F LT PUSH2 0x15BB JUMPI PUSH2 0x100 DUP1 DUP4 SLOAD DIV MUL DUP4 MSTORE SWAP2 PUSH1 0x20 ADD SWAP2 PUSH2 0x15E6 JUMP JUMPDEST DUP3 ADD SWAP2 SWAP1 PUSH1 0x0 MSTORE PUSH1 0x20 PUSH1 0x0 KECCAK256 SWAP1 JUMPDEST DUP2 SLOAD DUP2 MSTORE SWAP1 PUSH1 0x1 ADD SWAP1 PUSH1 0x20 ADD DUP1 DUP4 GT PUSH2 0x15C9 JUMPI DUP3 SWAP1 SUB PUSH1 0x1F AND DUP3 ADD SWAP2 JUMPDEST POP POP POP POP POP DUP2 MSTORE PUSH1 0x20 ADD PUSH1 0x1 DUP3 ADD DUP1 SLOAD PUSH2 0x15FF SWAP1 PUSH2 0x4EA9 JUMP JUMPDEST DUP1 PUSH1 0x1F ADD PUSH1 0x20 DUP1 SWAP2 DIV MUL PUSH1 0x20 ADD PUSH1 0x40 MLOAD SWAP1 DUP2 ADD PUSH1 0x40 MSTORE DUP1 SWAP3 SWAP2 SWAP1 DUP2 DUP2 MSTORE PUSH1 0x20 ADD DUP3 DUP1 SLOAD PUSH2 0x162B SWAP1 PUSH2 0x4EA9 JUMP JUMPDEST DUP1 ISZERO PUSH2 0x1678 JUMPI DUP1 PUSH1 0x1F LT PUSH2 0x164D JUMPI PUSH2 0x100 DUP1 DUP4 SLOAD DIV MUL DUP4 MSTORE SWAP2 PUSH1 0x20 ADD SWAP2 PUSH2 0x1678 JUMP JUMPDEST DUP3 ADD SWAP2 SWAP1 PUSH1 0x0 MSTORE PUSH1 0x20 PUSH1 0x0 KECCAK256 SWAP1 JUMPDEST DUP2 SLOAD DUP2 MSTORE SWAP1 PUSH1 0x1 ADD SWAP1 PUSH1 0x20 ADD DUP1 DUP4 GT PUSH2 0x165B JUMPI DUP3 SWAP1 SUB PUSH1 0x1F AND DUP3 ADD SWAP2 JUMPDEST POP POP POP POP POP DUP2 MSTORE PUSH1 0x20 ADD PUSH1 0x2 DUP3 ADD DUP1 SLOAD PUSH2 0x1691 SWAP1 PUSH2 0x4EA9 JUMP JUMPDEST DUP1 PUSH1 0x1F ADD PUSH1 0x20 DUP1 SWAP2 DIV MUL PUSH1 0x20 ADD PUSH1 0x40 MLOAD SWAP1 DUP2 ADD PUSH1 0x40 MSTORE DUP1 SWAP3 SWAP2 SWAP1 DUP2 DUP2 MSTORE PUSH1 0x20 ADD DUP3 DUP1 SLOAD PUSH2 0x16BD SWAP1 PUSH2 0x4EA9 JUMP JUMPDEST DUP1 ISZERO PUSH2 0x170A JUMPI DUP1 PUSH1 0x1F LT PUSH2 0x16DF JUMPI PUSH2 0x100 DUP1 DUP4 SLOAD DIV MUL DUP4 MSTORE SWAP2 PUSH1 0x20 ADD SWAP2 PUSH2 0x170A JUMP JUMPDEST DUP3 ADD SWAP2 SWAP1 PUSH1 0x0 MSTORE PUSH1 0x20 PUSH1 0x0 KECCAK256 SWAP1 JUMPDEST DUP2 SLOAD DUP2 MSTORE SWAP1 PUSH1 0x1 ADD SWAP1 PUSH1 0x20 ADD DUP1 DUP4 GT PUSH2 0x16ED JUMPI DUP3 SWAP1 SUB PUSH1 0x1F AND DUP3 ADD SWAP2 JUMPDEST POP POP POP POP POP DUP2 MSTORE POP POP DUP2 MSTORE PUSH1 0x20 ADD SWAP1 PUSH1 0x1 ADD SWAP1 PUSH2 0x153A JUMP JUMPDEST POP POP POP POP SWAP2 POP DUP1 DUP1 SLOAD DUP1 PUSH1 0x20 MUL PUSH1 0x20 ADD PUSH1 0x40 MLOAD SWAP1 DUP2 ADD PUSH1 0x40 MSTORE DUP1 SWAP3 SWAP2 SWAP1 DUP2 DUP2 MSTORE PUSH1 0x20 ADD PUSH1 0x0 SWAP1 JUMPDEST DUP3 DUP3 LT ISZERO PUSH2 0x1931 JUMPI DUP4 DUP3 SWAP1 PUSH1 0x0 MSTORE PUSH1 0x20 PUSH1 0x0 KECCAK256 SWAP1 PUSH1 0x3 MUL ADD PUSH1 0x40 MLOAD DUP1 PUSH1 0x60 ADD PUSH1 0x40 MSTORE SWAP1 DUP2 PUSH1 0x0 DUP3 ADD DUP1 SLOAD PUSH2 0x177C SWAP1 PUSH2 0x4EA9 JUMP JUMPDEST DUP1 PUSH1 0x1F ADD PUSH1 0x20 DUP1 SWAP2 DIV MUL PUSH1 0x20 ADD PUSH1 0x40 MLOAD SWAP1 DUP2 ADD PUSH1 0x40 MSTORE DUP1 SWAP3 SWAP2 SWAP1 DUP2 DUP2 MSTORE PUSH1 0x20 ADD DUP3 DUP1 SLOAD PUSH2 0x17A8 SWAP1 PUSH2 0x4EA9 JUMP JUMPDEST DUP1 ISZERO PUSH2 0x17F5 JUMPI DUP1 PUSH1 0x1F LT PUSH2 0x17CA JUMPI PUSH2 0x100 DUP1 DUP4 SLOAD DIV MUL DUP4 MSTORE SWAP2 PUSH1 0x20 ADD SWAP2 PUSH2 0x17F5 JUMP JUMPDEST DUP3 ADD SWAP2 SWAP1 PUSH1 0x0 MSTORE PUSH1 0x20 PUSH1 0x0 KECCAK256 SWAP1 JUMPDEST DUP2 SLOAD DUP2 MSTORE SWAP1 PUSH1 0x1 ADD SWAP1 PUSH1 0x20 ADD DUP1 DUP4 GT PUSH2 0x17D8 JUMPI DUP3 SWAP1 SUB PUSH1 0x1F AND DUP3 ADD SWAP2 JUMPDEST POP POP POP POP POP DUP2 MSTORE PUSH1 0x20 ADD PUSH1 0x1 DUP3 ADD DUP1 SLOAD PUSH2 0x180E SWAP1 PUSH2 0x4EA9 JUMP JUMPDEST DUP1 PUSH1 0x1F ADD PUSH1 0x20 DUP1 SWAP2 DIV MUL PUSH1 0x20 ADD PUSH1 0x40 MLOAD SWAP1 DUP2 ADD PUSH1 0x40 MSTORE DUP1 SWAP3 SWAP2 SWAP1 DUP2 DUP2 MSTORE PUSH1 0x20 ADD DUP3 DUP1 SLOAD PUSH2 0x183A SWAP1 PUSH2 0x4EA9 JUMP JUMPDEST DUP1 ISZERO PUSH2 0x1887 JUMPI DUP1 PUSH1 0x1F LT PUSH2 0x185C JUMPI PUSH2 0x100 DUP1 DUP4 SLOAD DIV MUL DUP4 MSTORE SWAP2 PUSH1 0x20 ADD SWAP2 PUSH2 0x1887 JUMP JUMPDEST DUP3 ADD SWAP2 SWAP1 PUSH1 0x0 MSTORE PUSH1 0x20 PUSH1 0x0 KECCAK256 SWAP1 JUMPDEST DUP2 SLOAD DUP2 MSTORE SWAP1 PUSH1 0x1 ADD SWAP1 PUSH1 0x20 ADD DUP1 DUP4 GT PUSH2 0x186A JUMPI DUP3 SWAP1 SUB PUSH1 0x1F AND DUP3 ADD SWAP2 JUMPDEST POP POP POP POP POP DUP2 MSTORE PUSH1 0x20 ADD PUSH1 0x2 DUP3 ADD DUP1 SLOAD PUSH2 0x18A0 SWAP1 PUSH2 0x4EA9 JUMP JUMPDEST DUP1 PUSH1 0x1F ADD PUSH1 0x20 DUP1 SWAP2 DIV MUL PUSH1 0x20 ADD PUSH1 0x40 MLOAD SWAP1 DUP2 ADD PUSH1 0x40 MSTORE DUP1 SWAP3 SWAP2 SWAP1 DUP2 DUP2 MSTORE PUSH1 0x20 ADD DUP3 DUP1 SLOAD PUSH2 0x18CC SWAP1 PUSH2 0x4EA9 JUMP JUMPDEST DUP1 ISZERO PUSH2 0x1919 JUMPI DUP1 PUSH1 0x1F LT PUSH2 0x18EE JUMPI PUSH2 0x100 DUP1 DUP4 SLOAD DIV MUL DUP4 MSTORE SWAP2 PUSH1 0x20 ADD SWAP2 PUSH2 0x1919 JUMP JUMPDEST DUP3 ADD SWAP2 SWAP1 PUSH1 0x0 MSTORE PUSH1 0x20 PUSH1 0x0 KECCAK256 SWAP1 JUMPDEST DUP2 SLOAD DUP2 MSTORE SWAP1 PUSH1 0x1 ADD SWAP1 PUSH1 0x20 ADD DUP1 DUP4 GT PUSH2 0x18FC JUMPI DUP3 SWAP1 SUB PUSH1 0x1F AND DUP3 ADD SWAP2 JUMPDEST POP POP POP POP POP DUP2 MSTORE POP POP DUP2 MSTORE PUSH1 0x20 ADD SWAP1 PUSH1 0x1 ADD SWAP1 PUSH2 0x1749 JUMP JUMPDEST POP POP POP POP SWAP1 POP SWAP2 POP SWAP2 POP SWAP1 SWAP2 JUMP JUMPDEST PUSH1 0x60 PUSH1 0x0 PUSH1 0x7 DUP1 SLOAD SWAP1 POP PUSH8 0xFFFFFFFFFFFFFFFF DUP2 GT ISZERO PUSH2 0x1962 JUMPI PUSH2 0x1961 PUSH2 0x439F JUMP JUMPDEST JUMPDEST PUSH1 0x40 MLOAD SWAP1 DUP1 DUP3 MSTORE DUP1 PUSH1 0x20 MUL PUSH1 0x20 ADD DUP3 ADD PUSH1 0x40 MSTORE DUP1 ISZERO PUSH2 0x199B JUMPI DUP2 PUSH1 0x20 ADD JUMPDEST PUSH2 0x1988 PUSH2 0x3B9C JUMP JUMPDEST DUP2 MSTORE PUSH1 0x20 ADD SWAP1 PUSH1 0x1 SWAP1 SUB SWAP1 DUP2 PUSH2 0x1980 JUMPI SWAP1 POP JUMPDEST POP SWAP1 POP PUSH1 0x0 JUMPDEST PUSH1 0x7 DUP1 SLOAD SWAP1 POP DUP2 LT ISZERO PUSH2 0x21EB JUMPI PUSH1 0x6 PUSH1 0x7 DUP3 DUP2 SLOAD DUP2 LT PUSH2 0x19C4 JUMPI PUSH2 0x19C3 PUSH2 0x4EDA JUMP JUMPDEST JUMPDEST SWAP1 PUSH1 0x0 MSTORE PUSH1 0x20 PUSH1 0x0 KECCAK256 ADD PUSH1 0x40 MLOAD PUSH2 0x19DB SWAP2 SWAP1 PUSH2 0x4FAC JUMP JUMPDEST SWAP1 DUP2 MSTORE PUSH1 0x20 ADD PUSH1 0x40 MLOAD DUP1 SWAP2 SUB SWAP1 KECCAK256 PUSH1 0x40 MLOAD DUP1 PUSH2 0x160 ADD PUSH1 0x40 MSTORE SWAP1 DUP2 PUSH1 0x0 DUP3 ADD DUP1 SLOAD PUSH2 0x1A05 SWAP1 PUSH2 0x4EA9 JUMP JUMPDEST DUP1 PUSH1 0x1F ADD PUSH1 0x20 DUP1 SWAP2 DIV MUL PUSH1 0x20 ADD PUSH1 0x40 MLOAD SWAP1 DUP2 ADD PUSH1 0x40 MSTORE DUP1 SWAP3 SWAP2 SWAP1 DUP2 DUP2 MSTORE PUSH1 0x20 ADD DUP3 DUP1 SLOAD PUSH2 0x1A31 SWAP1 PUSH2 0x4EA9 JUMP JUMPDEST DUP1 ISZERO PUSH2 0x1A7E JUMPI DUP1 PUSH1 0x1F LT PUSH2 0x1A53 JUMPI PUSH2 0x100 DUP1 DUP4 SLOAD DIV MUL DUP4 MSTORE SWAP2 PUSH1 0x20 ADD SWAP2 PUSH2 0x1A7E JUMP JUMPDEST DUP3 ADD SWAP2 SWAP1 PUSH1 0x0 MSTORE PUSH1 0x20 PUSH1 0x0 KECCAK256 SWAP1 JUMPDEST DUP2 SLOAD DUP2 MSTORE SWAP1 PUSH1 0x1 ADD SWAP1 PUSH1 0x20 ADD DUP1 DUP4 GT PUSH2 0x1A61 JUMPI DUP3 SWAP1 SUB PUSH1 0x1F AND DUP3 ADD SWAP2 JUMPDEST POP POP POP POP POP DUP2 MSTORE PUSH1 0x20 ADD PUSH1 0x1 DUP3 ADD DUP1 SLOAD PUSH2 0x1A97 SWAP1 PUSH2 0x4EA9 JUMP JUMPDEST DUP1 PUSH1 0x1F ADD PUSH1 0x20 DUP1 SWAP2 DIV MUL PUSH1 0x20 ADD PUSH1 0x40 MLOAD SWAP1 DUP2 ADD PUSH1 0x40 MSTORE DUP1 SWAP3 SWAP2 SWAP1 DUP2 DUP2 MSTORE PUSH1 0x20 ADD DUP3 DUP1 SLOAD PUSH2 0x1AC3 SWAP1 PUSH2 0x4EA9 JUMP JUMPDEST DUP1 ISZERO PUSH2 0x1B10 JUMPI DUP1 PUSH1 0x1F LT PUSH2 0x1AE5 JUMPI PUSH2 0x100 DUP1 DUP4 SLOAD DIV MUL DUP4 MSTORE SWAP2 PUSH1 0x20 ADD SWAP2 PUSH2 0x1B10 JUMP JUMPDEST DUP3 ADD SWAP2 SWAP1 PUSH1 0x0 MSTORE PUSH1 0x20 PUSH1 0x0 KECCAK256 SWAP1 JUMPDEST DUP2 SLOAD DUP2 MSTORE SWAP1 PUSH1 0x1 ADD SWAP1 PUSH1 0x20 ADD DUP1 DUP4 GT PUSH2 0x1AF3 JUMPI DUP3 SWAP1 SUB PUSH1 0x1F AND DUP3 ADD SWAP2 JUMPDEST POP POP POP POP POP DUP2 MSTORE PUSH1 0x20 ADD PUSH1 0x2 DUP3 ADD DUP1 SLOAD PUSH2 0x1B29 SWAP1 PUSH2 0x4EA9 JUMP JUMPDEST DUP1 PUSH1 0x1F ADD PUSH1 0x20 DUP1 SWAP2 DIV MUL PUSH1 0x20 ADD PUSH1 0x40 MLOAD SWAP1 DUP2 ADD PUSH1 0x40 MSTORE DUP1 SWAP3 SWAP2 SWAP1 DUP2 DUP2 MSTORE PUSH1 0x20 ADD DUP3 DUP1 SLOAD PUSH2 0x1B55 SWAP1 PUSH2 0x4EA9 JUMP JUMPDEST DUP1 ISZERO PUSH2 0x1BA2 JUMPI DUP1 PUSH1 0x1F LT PUSH2 0x1B77 JUMPI PUSH2 0x100 DUP1 DUP4 SLOAD DIV MUL DUP4 MSTORE SWAP2 PUSH1 0x20 ADD SWAP2 PUSH2 0x1BA2 JUMP JUMPDEST DUP3 ADD SWAP2 SWAP1 PUSH1 0x0 MSTORE PUSH1 0x20 PUSH1 0x0 KECCAK256 SWAP1 JUMPDEST DUP2 SLOAD DUP2 MSTORE SWAP1 PUSH1 0x1 ADD SWAP1 PUSH1 0x20 ADD DUP1 DUP4 GT PUSH2 0x1B85 JUMPI DUP3 SWAP1 SUB PUSH1 0x1F AND DUP3 ADD SWAP2 JUMPDEST POP POP POP POP POP DUP2 MSTORE PUSH1 0x20 ADD PUSH1 0x3 DUP3 ADD DUP1 SLOAD PUSH2 0x1BBB SWAP1 PUSH2 0x4EA9 JUMP JUMPDEST DUP1 PUSH1 0x1F ADD PUSH1 0x20 DUP1 SWAP2 DIV MUL PUSH1 0x20 ADD PUSH1 0x40 MLOAD SWAP1 DUP2 ADD PUSH1 0x40 MSTORE DUP1 SWAP3 SWAP2 SWAP1 DUP2 DUP2 MSTORE PUSH1 0x20 ADD DUP3 DUP1 SLOAD PUSH2 0x1BE7 SWAP1 PUSH2 0x4EA9 JUMP JUMPDEST DUP1 ISZERO PUSH2 0x1C34 JUMPI DUP1 PUSH1 0x1F LT PUSH2 0x1C09 JUMPI PUSH2 0x100 DUP1 DUP4 SLOAD DIV MUL DUP4 MSTORE SWAP2 PUSH1 0x20 ADD SWAP2 PUSH2 0x1C34 JUMP JUMPDEST DUP3 ADD SWAP2 SWAP1 PUSH1 0x0 MSTORE PUSH1 0x20 PUSH1 0x0 KECCAK256 SWAP1 JUMPDEST DUP2 SLOAD DUP2 MSTORE SWAP1 PUSH1 0x1 ADD SWAP1 PUSH1 0x20 ADD DUP1 DUP4 GT PUSH2 0x1C17 JUMPI DUP3 SWAP1 SUB PUSH1 0x1F AND DUP3 ADD SWAP2 JUMPDEST POP POP POP POP POP DUP2 MSTORE PUSH1 0x20 ADD PUSH1 0x4 DUP3 ADD DUP1 SLOAD DUP1 PUSH1 0x20 MUL PUSH1 0x20 ADD PUSH1 0x40 MLOAD SWAP1 DUP2 ADD PUSH1 0x40 MSTORE DUP1 SWAP3 SWAP2 SWAP1 DUP2 DUP2 MSTORE PUSH1 0x20 ADD PUSH1 0x0 SWAP1 JUMPDEST DUP3 DUP3 LT ISZERO PUSH2 0x1E4A JUMPI DUP4 DUP3 SWAP1 PUSH1 0x0 MSTORE PUSH1 0x20 PUSH1 0x0 KECCAK256 SWAP1 PUSH1 0x3 MUL ADD PUSH1 0x40 MLOAD DUP1 PUSH1 0x60 ADD PUSH1 0x40 MSTORE SWAP1 DUP2 PUSH1 0x0 DUP3 ADD DUP1 SLOAD PUSH2 0x1C95 SWAP1 PUSH2 0x4EA9 JUMP JUMPDEST DUP1 PUSH1 0x1F ADD PUSH1 0x20 DUP1 SWAP2 DIV MUL PUSH1 0x20 ADD PUSH1 0x40 MLOAD SWAP1 DUP2 ADD PUSH1 0x40 MSTORE DUP1 SWAP3 SWAP2 SWAP1 DUP2 DUP2 MSTORE PUSH1 0x20 ADD DUP3 DUP1 SLOAD PUSH2 0x1CC1 SWAP1 PUSH2 0x4EA9 JUMP JUMPDEST DUP1 ISZERO PUSH2 0x1D0E JUMPI DUP1 PUSH1 0x1F LT PUSH2 0x1CE3 JUMPI PUSH2 0x100 DUP1 DUP4 SLOAD DIV MUL DUP4 MSTORE SWAP2 PUSH1 0x20 ADD SWAP2 PUSH2 0x1D0E JUMP JUMPDEST DUP3 ADD SWAP2 SWAP1 PUSH1 0x0 MSTORE PUSH1 0x20 PUSH1 0x0 KECCAK256 SWAP1 JUMPDEST DUP2 SLOAD DUP2 MSTORE SWAP1 PUSH1 0x1 ADD SWAP1 PUSH1 0x20 ADD DUP1 DUP4 GT PUSH2 0x1CF1 JUMPI DUP3 SWAP1 SUB PUSH1 0x1F AND DUP3 ADD SWAP2 JUMPDEST POP POP POP POP POP DUP2 MSTORE PUSH1 0x20 ADD PUSH1 0x1 DUP3 ADD DUP1 SLOAD PUSH2 0x1D27 SWAP1 PUSH2 0x4EA9 JUMP JUMPDEST DUP1 PUSH1 0x1F ADD PUSH1 0x20 DUP1 SWAP2 DIV MUL PUSH1 0x20 ADD PUSH1 0x40 MLOAD SWAP1 DUP2 ADD PUSH1 0x40 MSTORE DUP1 SWAP3 SWAP2 SWAP1 DUP2 DUP2 MSTORE PUSH1 0x20 ADD DUP3 DUP1 SLOAD PUSH2 0x1D53 SWAP1 PUSH2 0x4EA9 JUMP JUMPDEST DUP1 ISZERO PUSH2 0x1DA0 JUMPI DUP1 PUSH1 0x1F LT PUSH2 0x1D75 JUMPI PUSH2 0x100 DUP1 DUP4 SLOAD DIV MUL DUP4 MSTORE SWAP2 PUSH1 0x20 ADD SWAP2 PUSH2 0x1DA0 JUMP JUMPDEST DUP3 ADD SWAP2 SWAP1 PUSH1 0x0 MSTORE PUSH1 0x20 PUSH1 0x0 KECCAK256 SWAP1 JUMPDEST DUP2 SLOAD DUP2 MSTORE SWAP1 PUSH1 0x1 ADD SWAP1 PUSH1 0x20 ADD DUP1 DUP4 GT PUSH2 0x1D83 JUMPI DUP3 SWAP1 SUB PUSH1 0x1F AND DUP3 ADD SWAP2 JUMPDEST POP POP POP POP POP DUP2 MSTORE PUSH1 0x20 ADD PUSH1 0x2 DUP3 ADD DUP1 SLOAD PUSH2 0x1DB9 SWAP1 PUSH2 0x4EA9 JUMP JUMPDEST DUP1 PUSH1 0x1F ADD PUSH1 0x20 DUP1 SWAP2 DIV MUL PUSH1 0x20 ADD PUSH1 0x40 MLOAD SWAP1 DUP2 ADD PUSH1 0x40 MSTORE DUP1 SWAP3 SWAP2 SWAP1 DUP2 DUP2 MSTORE PUSH1 0x20 ADD DUP3 DUP1 SLOAD PUSH2 0x1DE5 SWAP1 PUSH2 0x4EA9 JUMP JUMPDEST DUP1 ISZERO PUSH2 0x1E32 JUMPI DUP1 PUSH1 0x1F LT PUSH2 0x1E07 JUMPI PUSH2 0x100 DUP1 DUP4 SLOAD DIV MUL DUP4 MSTORE SWAP2 PUSH1 0x20 ADD SWAP2 PUSH2 0x1E32 JUMP JUMPDEST DUP3 ADD SWAP2 SWAP1 PUSH1 0x0 MSTORE PUSH1 0x20 PUSH1 0x0 KECCAK256 SWAP1 JUMPDEST DUP2 SLOAD DUP2 MSTORE SWAP1 PUSH1 0x1 ADD SWAP1 PUSH1 0x20 ADD DUP1 DUP4 GT PUSH2 0x1E15 JUMPI DUP3 SWAP1 SUB PUSH1 0x1F AND DUP3 ADD SWAP2 JUMPDEST POP POP POP POP POP DUP2 MSTORE POP POP DUP2 MSTORE PUSH1 0x20 ADD SWAP1 PUSH1 0x1 ADD SWAP1 PUSH2 0x1C62 JUMP JUMPDEST POP POP POP POP DUP2 MSTORE PUSH1 0x20 ADD PUSH1 0x5 DUP3 ADD DUP1 SLOAD DUP1 PUSH1 0x20 MUL PUSH1 0x20 ADD PUSH1 0x40 MLOAD SWAP1 DUP2 ADD PUSH1 0x40 MSTORE DUP1 SWAP3 SWAP2 SWAP1 DUP2 DUP2 MSTORE PUSH1 0x20 ADD PUSH1 0x0 SWAP1 JUMPDEST DUP3 DUP3 LT ISZERO PUSH2 0x205F JUMPI DUP4 DUP3 SWAP1 PUSH1 0x0 MSTORE PUSH1 0x20 PUSH1 0x0 KECCAK256 SWAP1 PUSH1 0x3 MUL ADD PUSH1 0x40 MLOAD DUP1 PUSH1 0x60 ADD PUSH1 0x40 MSTORE SWAP1 DUP2 PUSH1 0x0 DUP3 ADD DUP1 SLOAD PUSH2 0x1EAA SWAP1 PUSH2 0x4EA9 JUMP JUMPDEST DUP1 PUSH1 0x1F ADD PUSH1 0x20 DUP1 SWAP2 DIV MUL PUSH1 0x20 ADD PUSH1 0x40 MLOAD SWAP1 DUP2 ADD PUSH1 0x40 MSTORE DUP1 SWAP3 SWAP2 SWAP1 DUP2 DUP2 MSTORE PUSH1 0x20 ADD DUP3 DUP1 SLOAD PUSH2 0x1ED6 SWAP1 PUSH2 0x4EA9 JUMP JUMPDEST DUP1 ISZERO PUSH2 0x1F23 JUMPI DUP1 PUSH1 0x1F LT PUSH2 0x1EF8 JUMPI PUSH2 0x100 DUP1 DUP4 SLOAD DIV MUL DUP4 MSTORE SWAP2 PUSH1 0x20 ADD SWAP2 PUSH2 0x1F23 JUMP JUMPDEST DUP3 ADD SWAP2 SWAP1 PUSH1 0x0 MSTORE PUSH1 0x20 PUSH1 0x0 KECCAK256 SWAP1 JUMPDEST DUP2 SLOAD DUP2 MSTORE SWAP1 PUSH1 0x1 ADD SWAP1 PUSH1 0x20 ADD DUP1 DUP4 GT PUSH2 0x1F06 JUMPI DUP3 SWAP1 SUB PUSH1 0x1F AND DUP3 ADD SWAP2 JUMPDEST POP POP POP POP POP DUP2 MSTORE PUSH1 0x20 ADD PUSH1 0x1 DUP3 ADD DUP1 SLOAD PUSH2 0x1F3C SWAP1 PUSH2 0x4EA9 JUMP JUMPDEST DUP1 PUSH1 0x1F ADD PUSH1 0x20 DUP1 SWAP2 DIV MUL PUSH1 0x20 ADD PUSH1 0x40 MLOAD SWAP1 DUP2 ADD PUSH1 0x40 MSTORE DUP1 SWAP3 SWAP2 SWAP1 DUP2 DUP2 MSTORE PUSH1 0x20 ADD DUP3 DUP1 SLOAD PUSH2 0x1F68 SWAP1 PUSH2 0x4EA9 JUMP JUMPDEST DUP1 ISZERO PUSH2 0x1FB5 JUMPI DUP1 PUSH1 0x1F LT PUSH2 0x1F8A JUMPI PUSH2 0x100 DUP1 DUP4 SLOAD DIV MUL DUP4 MSTORE SWAP2 PUSH1 0x20 ADD SWAP2 PUSH2 0x1FB5 JUMP JUMPDEST DUP3 ADD SWAP2 SWAP1 PUSH1 0x0 MSTORE PUSH1 0x20 PUSH1 0x0 KECCAK256 SWAP1 JUMPDEST DUP2 SLOAD DUP2 MSTORE SWAP1 PUSH1 0x1 ADD SWAP1 PUSH1 0x20 ADD DUP1 DUP4 GT PUSH2 0x1F98 JUMPI DUP3 SWAP1 SUB PUSH1 0x1F AND DUP3 ADD SWAP2 JUMPDEST POP POP POP POP POP DUP2 MSTORE PUSH1 0x20 ADD PUSH1 0x2 DUP3 ADD DUP1 SLOAD PUSH2 0x1FCE SWAP1 PUSH2 0x4EA9 JUMP JUMPDEST DUP1 PUSH1 0x1F ADD PUSH1 0x20 DUP1 SWAP2 DIV MUL PUSH1 0x20 ADD PUSH1 0x40 MLOAD SWAP1 DUP2 ADD PUSH1 0x40 MSTORE DUP1 SWAP3 SWAP2 SWAP1 DUP2 DUP2 MSTORE PUSH1 0x20 ADD DUP3 DUP1 SLOAD PUSH2 0x1FFA SWAP1 PUSH2 0x4EA9 JUMP JUMPDEST DUP1 ISZERO PUSH2 0x2047 JUMPI DUP1 PUSH1 0x1F LT PUSH2 0x201C JUMPI PUSH2 0x100 DUP1 DUP4 SLOAD DIV MUL DUP4 MSTORE SWAP2 PUSH1 0x20 ADD SWAP2 PUSH2 0x2047 JUMP JUMPDEST DUP3 ADD SWAP2 SWAP1 PUSH1 0x0 MSTORE PUSH1 0x20 PUSH1 0x0 KECCAK256 SWAP1 JUMPDEST DUP2 SLOAD DUP2 MSTORE SWAP1 PUSH1 0x1 ADD SWAP1 PUSH1 0x20 ADD DUP1 DUP4 GT PUSH2 0x202A JUMPI DUP3 SWAP1 SUB PUSH1 0x1F AND DUP3 ADD SWAP2 JUMPDEST POP POP POP POP POP DUP2 MSTORE POP POP DUP2 MSTORE PUSH1 0x20 ADD SWAP1 PUSH1 0x1 ADD SWAP1 PUSH2 0x1E77 JUMP JUMPDEST POP POP POP POP DUP2 MSTORE PUSH1 0x20 ADD PUSH1 0x6 DUP3 ADD PUSH1 0x0 SWAP1 SLOAD SWAP1 PUSH2 0x100 EXP SWAP1 DIV PUSH1 0xFF AND ISZERO ISZERO ISZERO ISZERO DUP2 MSTORE PUSH1 0x20 ADD PUSH1 0x7 DUP3 ADD SLOAD DUP2 MSTORE PUSH1 0x20 ADD PUSH1 0x8 DUP3 ADD SLOAD DUP2 MSTORE PUSH1 0x20 ADD PUSH1 0x9 DUP3 ADD DUP1 SLOAD PUSH2 0x20A6 SWAP1 PUSH2 0x4EA9 JUMP JUMPDEST DUP1 PUSH1 0x1F ADD PUSH1 0x20 DUP1 SWAP2 DIV MUL PUSH1 0x20 ADD PUSH1 0x40 MLOAD SWAP1 DUP2 ADD PUSH1 0x40 MSTORE DUP1 SWAP3 SWAP2 SWAP1 DUP2 DUP2 MSTORE PUSH1 0x20 ADD DUP3 DUP1 SLOAD PUSH2 0x20D2 SWAP1 PUSH2 0x4EA9 JUMP JUMPDEST DUP1 ISZERO PUSH2 0x211F JUMPI DUP1 PUSH1 0x1F LT PUSH2 0x20F4 JUMPI PUSH2 0x100 DUP1 DUP4 SLOAD DIV MUL DUP4 MSTORE SWAP2 PUSH1 0x20 ADD SWAP2 PUSH2 0x211F JUMP JUMPDEST DUP3 ADD SWAP2 SWAP1 PUSH1 0x0 MSTORE PUSH1 0x20 PUSH1 0x0 KECCAK256 SWAP1 JUMPDEST DUP2 SLOAD DUP2 MSTORE SWAP1 PUSH1 0x1 ADD SWAP1 PUSH1 0x20 ADD DUP1 DUP4 GT PUSH2 0x2102 JUMPI DUP3 SWAP1 SUB PUSH1 0x1F AND DUP3 ADD SWAP2 JUMPDEST POP POP POP POP POP DUP2 MSTORE PUSH1 0x20 ADD PUSH1 0xA DUP3 ADD DUP1 SLOAD PUSH2 0x2138 SWAP1 PUSH2 0x4EA9 JUMP JUMPDEST DUP1 PUSH1 0x1F ADD PUSH1 0x20 DUP1 SWAP2 DIV MUL PUSH1 0x20 ADD PUSH1 0x40 MLOAD SWAP1 DUP2 ADD PUSH1 0x40 MSTORE DUP1 SWAP3 SWAP2 SWAP1 DUP2 DUP2 MSTORE PUSH1 0x20 ADD DUP3 DUP1 SLOAD PUSH2 0x2164 SWAP1 PUSH2 0x4EA9 JUMP JUMPDEST DUP1 ISZERO PUSH2 0x21B1 JUMPI DUP1 PUSH1 0x1F LT PUSH2 0x2186 JUMPI PUSH2 0x100 DUP1 DUP4 SLOAD DIV MUL DUP4 MSTORE SWAP2 PUSH1 0x20 ADD SWAP2 PUSH2 0x21B1 JUMP JUMPDEST DUP3 ADD SWAP2 SWAP1 PUSH1 0x0 MSTORE PUSH1 0x20 PUSH1 0x0 KECCAK256 SWAP1 JUMPDEST DUP2 SLOAD DUP2 MSTORE SWAP1 PUSH1 0x1 ADD SWAP1 PUSH1 0x20 ADD DUP1 DUP4 GT PUSH2 0x2194 JUMPI DUP3 SWAP1 SUB PUSH1 0x1F AND DUP3 ADD SWAP2 JUMPDEST POP POP POP POP POP DUP2 MSTORE POP POP DUP3 DUP3 DUP2 MLOAD DUP2 LT PUSH2 0x21CD JUMPI PUSH2 0x21CC PUSH2 0x4EDA JUMP JUMPDEST JUMPDEST PUSH1 0x20 MUL PUSH1 0x20 ADD ADD DUP2 SWAP1 MSTORE POP DUP1 DUP1 PUSH2 0x21E3 SWAP1 PUSH2 0x4FF2 JUMP JUMPDEST SWAP2 POP POP PUSH2 0x19A1 JUMP JUMPDEST POP DUP1 SWAP2 POP POP SWAP1 JUMP JUMPDEST PUSH1 0x5 PUSH1 0x0 SWAP1 SLOAD SWAP1 PUSH2 0x100 EXP SWAP1 DIV PUSH1 0xFF AND DUP2 JUMP JUMPDEST PUSH2 0x2210 DUP3 DUP3 PUSH2 0x38C3 JUMP JUMPDEST PUSH1 0x0 PUSH1 0x6 DUP8 PUSH1 0x40 MLOAD PUSH2 0x2222 SWAP2 SWAP1 PUSH2 0x506B JUMP JUMPDEST SWAP1 DUP2 MSTORE PUSH1 0x20 ADD PUSH1 0x40 MLOAD DUP1 SWAP2 SUB SWAP1 KECCAK256 SWAP1 POP PUSH1 0x7 DUP8 SWAP1 DUP1 PUSH1 0x1 DUP2 SLOAD ADD DUP1 DUP3 SSTORE DUP1 SWAP2 POP POP PUSH1 0x1 SWAP1 SUB SWAP1 PUSH1 0x0 MSTORE PUSH1 0x20 PUSH1 0x0 KECCAK256 ADD PUSH1 0x0 SWAP1 SWAP2 SWAP1 SWAP2 SWAP1 SWAP2 POP SWAP1 DUP2 PUSH2 0x2266 SWAP2 SWAP1 PUSH2 0x5219 JUMP JUMPDEST POP DUP7 DUP2 PUSH1 0x1 ADD SWAP1 DUP2 PUSH2 0x2278 SWAP2 SWAP1 PUSH2 0x5219 JUMP JUMPDEST POP DUP6 DUP2 PUSH1 0x2 ADD SWAP1 DUP2 PUSH2 0x228A SWAP2 SWAP1 PUSH2 0x5219 JUMP JUMPDEST POP PUSH1 0x0 DUP2 PUSH1 0x8 ADD DUP2 SWAP1 SSTORE POP PUSH1 0x0 DUP2 PUSH1 0x6 ADD PUSH1 0x0 PUSH2 0x100 EXP DUP2 SLOAD DUP2 PUSH1 0xFF MUL NOT AND SWAP1 DUP4 ISZERO ISZERO MUL OR SWAP1 SSTORE POP PUSH1 0x0 DUP2 PUSH1 0x7 ADD DUP2 SWAP1 SSTORE POP DUP8 DUP2 PUSH1 0x0 ADD SWAP1 DUP2 PUSH2 0x22CD SWAP2 SWAP1 PUSH2 0x5219 JUMP JUMPDEST POP PUSH1 0x0 JUMPDEST DUP6 MLOAD DUP2 LT ISZERO PUSH2 0x241E JUMPI PUSH1 0x0 PUSH1 0x40 MLOAD DUP1 PUSH1 0x60 ADD PUSH1 0x40 MSTORE DUP1 DUP9 DUP5 DUP2 MLOAD DUP2 LT PUSH2 0x22FA JUMPI PUSH2 0x22F9 PUSH2 0x4EDA JUMP JUMPDEST JUMPDEST PUSH1 0x20 MUL PUSH1 0x20 ADD ADD MLOAD PUSH1 0x0 DUP2 MLOAD DUP2 LT PUSH2 0x2315 JUMPI PUSH2 0x2314 PUSH2 0x4EDA JUMP JUMPDEST JUMPDEST PUSH1 0x20 MUL PUSH1 0x20 ADD ADD MLOAD DUP2 MSTORE PUSH1 0x20 ADD DUP9 DUP5 DUP2 MLOAD DUP2 LT PUSH2 0x2335 JUMPI PUSH2 0x2334 PUSH2 0x4EDA JUMP JUMPDEST JUMPDEST PUSH1 0x20 MUL PUSH1 0x20 ADD ADD MLOAD PUSH1 0x1 DUP2 MLOAD DUP2 LT PUSH2 0x2350 JUMPI PUSH2 0x234F PUSH2 0x4EDA JUMP JUMPDEST JUMPDEST PUSH1 0x20 MUL PUSH1 0x20 ADD ADD MLOAD DUP2 MSTORE PUSH1 0x20 ADD DUP9 DUP5 DUP2 MLOAD DUP2 LT PUSH2 0x2370 JUMPI PUSH2 0x236F PUSH2 0x4EDA JUMP JUMPDEST JUMPDEST PUSH1 0x20 MUL PUSH1 0x20 ADD ADD MLOAD PUSH1 0x2 DUP2 MLOAD DUP2 LT PUSH2 0x238B JUMPI PUSH2 0x238A PUSH2 0x4EDA JUMP JUMPDEST JUMPDEST PUSH1 0x20 MUL PUSH1 0x20 ADD ADD MLOAD DUP2 MSTORE POP SWAP1 POP DUP3 PUSH1 0x4 ADD DUP2 SWAP1 DUP1 PUSH1 0x1 DUP2 SLOAD ADD DUP1 DUP3 SSTORE DUP1 SWAP2 POP POP PUSH1 0x1 SWAP1 SUB SWAP1 PUSH1 0x0 MSTORE PUSH1 0x20 PUSH1 0x0 KECCAK256 SWAP1 PUSH1 0x3 MUL ADD PUSH1 0x0 SWAP1 SWAP2 SWAP1 SWAP2 SWAP1 SWAP2 POP PUSH1 0x0 DUP3 ADD MLOAD DUP2 PUSH1 0x0 ADD SWAP1 DUP2 PUSH2 0x23DB SWAP2 SWAP1 PUSH2 0x5219 JUMP JUMPDEST POP PUSH1 0x20 DUP3 ADD MLOAD DUP2 PUSH1 0x1 ADD SWAP1 DUP2 PUSH2 0x23F1 SWAP2 SWAP1 PUSH2 0x5219 JUMP JUMPDEST POP PUSH1 0x40 DUP3 ADD MLOAD DUP2 PUSH1 0x2 ADD SWAP1 DUP2 PUSH2 0x2407 SWAP2 SWAP1 PUSH2 0x5219 JUMP JUMPDEST POP POP POP POP DUP1 DUP1 PUSH2 0x2416 SWAP1 PUSH2 0x4FF2 JUMP JUMPDEST SWAP2 POP POP PUSH2 0x22D1 JUMP JUMPDEST POP PUSH1 0x0 JUMPDEST DUP5 MLOAD DUP2 LT ISZERO PUSH2 0x256F JUMPI PUSH1 0x0 PUSH1 0x40 MLOAD DUP1 PUSH1 0x60 ADD PUSH1 0x40 MSTORE DUP1 DUP8 DUP5 DUP2 MLOAD DUP2 LT PUSH2 0x244B JUMPI PUSH2 0x244A PUSH2 0x4EDA JUMP JUMPDEST JUMPDEST PUSH1 0x20 MUL PUSH1 0x20 ADD ADD MLOAD PUSH1 0x0 DUP2 MLOAD DUP2 LT PUSH2 0x2466 JUMPI PUSH2 0x2465 PUSH2 0x4EDA JUMP JUMPDEST JUMPDEST PUSH1 0x20 MUL PUSH1 0x20 ADD ADD MLOAD DUP2 MSTORE PUSH1 0x20 ADD DUP8 DUP5 DUP2 MLOAD DUP2 LT PUSH2 0x2486 JUMPI PUSH2 0x2485 PUSH2 0x4EDA JUMP JUMPDEST JUMPDEST PUSH1 0x20 MUL PUSH1 0x20 ADD ADD MLOAD PUSH1 0x1 DUP2 MLOAD DUP2 LT PUSH2 0x24A1 JUMPI PUSH2 0x24A0 PUSH2 0x4EDA JUMP JUMPDEST JUMPDEST PUSH1 0x20 MUL PUSH1 0x20 ADD ADD MLOAD DUP2 MSTORE PUSH1 0x20 ADD DUP8 DUP5 DUP2 MLOAD DUP2 LT PUSH2 0x24C1 JUMPI PUSH2 0x24C0 PUSH2 0x4EDA JUMP JUMPDEST JUMPDEST PUSH1 0x20 MUL PUSH1 0x20 ADD ADD MLOAD PUSH1 0x2 DUP2 MLOAD DUP2 LT PUSH2 0x24DC JUMPI PUSH2 0x24DB PUSH2 0x4EDA JUMP JUMPDEST JUMPDEST PUSH1 0x20 MUL PUSH1 0x20 ADD ADD MLOAD DUP2 MSTORE POP SWAP1 POP DUP3 PUSH1 0x5 ADD DUP2 SWAP1 DUP1 PUSH1 0x1 DUP2 SLOAD ADD DUP1 DUP3 SSTORE DUP1 SWAP2 POP POP PUSH1 0x1 SWAP1 SUB SWAP1 PUSH1 0x0 MSTORE PUSH1 0x20 PUSH1 0x0 KECCAK256 SWAP1 PUSH1 0x3 MUL ADD PUSH1 0x0 SWAP1 SWAP2 SWAP1 SWAP2 SWAP1 SWAP2 POP PUSH1 0x0 DUP3 ADD MLOAD DUP2 PUSH1 0x0 ADD SWAP1 DUP2 PUSH2 0x252C SWAP2 SWAP1 PUSH2 0x5219 JUMP JUMPDEST POP PUSH1 0x20 DUP3 ADD MLOAD DUP2 PUSH1 0x1 ADD SWAP1 DUP2 PUSH2 0x2542 SWAP2 SWAP1 PUSH2 0x5219 JUMP JUMPDEST POP PUSH1 0x40 DUP3 ADD MLOAD DUP2 PUSH1 0x2 ADD SWAP1 DUP2 PUSH2 0x2558 SWAP2 SWAP1 PUSH2 0x5219 JUMP JUMPDEST POP POP POP POP DUP1 DUP1 PUSH2 0x2567 SWAP1 PUSH2 0x4FF2 JUMP JUMPDEST SWAP2 POP POP PUSH2 0x2422 JUMP JUMPDEST POP POP POP POP POP POP POP POP POP JUMP JUMPDEST DUP3 PUSH1 0x0 SWAP1 DUP2 PUSH2 0x2589 SWAP2 SWAP1 PUSH2 0x5219 JUMP JUMPDEST POP PUSH1 0x0 PUSH1 0x5 PUSH1 0x0 PUSH2 0x100 EXP DUP2 SLOAD DUP2 PUSH1 0xFF MUL NOT AND SWAP1 DUP4 ISZERO ISZERO MUL OR SWAP1 SSTORE POP PUSH1 0x1 PUSH1 0x0 PUSH2 0x25B3 SWAP2 SWAP1 PUSH2 0x3BF8 JUMP JUMPDEST PUSH1 0x0 JUMPDEST DUP3 MLOAD DUP2 LT ISZERO PUSH2 0x2701 JUMPI PUSH1 0x0 PUSH1 0x40 MLOAD DUP1 PUSH1 0x60 ADD PUSH1 0x40 MSTORE DUP1 DUP6 DUP5 DUP2 MLOAD DUP2 LT PUSH2 0x25DF JUMPI PUSH2 0x25DE PUSH2 0x4EDA JUMP JUMPDEST JUMPDEST PUSH1 0x20 MUL PUSH1 0x20 ADD ADD MLOAD PUSH1 0x0 DUP2 MLOAD DUP2 LT PUSH2 0x25FA JUMPI PUSH2 0x25F9 PUSH2 0x4EDA JUMP JUMPDEST JUMPDEST PUSH1 0x20 MUL PUSH1 0x20 ADD ADD MLOAD DUP2 MSTORE PUSH1 0x20 ADD DUP6 DUP5 DUP2 MLOAD DUP2 LT PUSH2 0x261A JUMPI PUSH2 0x2619 PUSH2 0x4EDA JUMP JUMPDEST JUMPDEST PUSH1 0x20 MUL PUSH1 0x20 ADD ADD MLOAD PUSH1 0x1 DUP2 MLOAD DUP2 LT PUSH2 0x2635 JUMPI PUSH2 0x2634 PUSH2 0x4EDA JUMP JUMPDEST JUMPDEST PUSH1 0x20 MUL PUSH1 0x20 ADD ADD MLOAD DUP2 MSTORE PUSH1 0x20 ADD DUP6 DUP5 DUP2 MLOAD DUP2 LT PUSH2 0x2655 JUMPI PUSH2 0x2654 PUSH2 0x4EDA JUMP JUMPDEST JUMPDEST PUSH1 0x20 MUL PUSH1 0x20 ADD ADD MLOAD PUSH1 0x2 DUP2 MLOAD DUP2 LT PUSH2 0x2670 JUMPI PUSH2 0x266F PUSH2 0x4EDA JUMP JUMPDEST JUMPDEST PUSH1 0x20 MUL PUSH1 0x20 ADD ADD MLOAD DUP2 MSTORE POP SWAP1 POP PUSH1 0x1 DUP2 SWAP1 DUP1 PUSH1 0x1 DUP2 SLOAD ADD DUP1 DUP3 SSTORE DUP1 SWAP2 POP POP PUSH1 0x1 SWAP1 SUB SWAP1 PUSH1 0x0 MSTORE PUSH1 0x20 PUSH1 0x0 KECCAK256 SWAP1 PUSH1 0x3 MUL ADD PUSH1 0x0 SWAP1 SWAP2 SWAP1 SWAP2 SWAP1 SWAP2 POP PUSH1 0x0 DUP3 ADD MLOAD DUP2 PUSH1 0x0 ADD SWAP1 DUP2 PUSH2 0x26BE SWAP2 SWAP1 PUSH2 0x5219 JUMP JUMPDEST POP PUSH1 0x20 DUP3 ADD MLOAD DUP2 PUSH1 0x1 ADD SWAP1 DUP2 PUSH2 0x26D4 SWAP2 SWAP1 PUSH2 0x5219 JUMP JUMPDEST POP PUSH1 0x40 DUP3 ADD MLOAD DUP2 PUSH1 0x2 ADD SWAP1 DUP2 PUSH2 0x26EA SWAP2 SWAP1 PUSH2 0x5219 JUMP JUMPDEST POP POP POP POP DUP1 DUP1 PUSH2 0x26F9 SWAP1 PUSH2 0x4FF2 JUMP JUMPDEST SWAP2 POP POP PUSH2 0x25B6 JUMP JUMPDEST POP PUSH1 0x2 PUSH1 0x0 PUSH2 0x2710 SWAP2 SWAP1 PUSH2 0x3C1C JUMP JUMPDEST PUSH1 0x0 JUMPDEST DUP2 MLOAD DUP2 LT ISZERO PUSH2 0x285E JUMPI PUSH1 0x0 PUSH1 0x40 MLOAD DUP1 PUSH1 0x60 ADD PUSH1 0x40 MSTORE DUP1 DUP5 DUP5 DUP2 MLOAD DUP2 LT PUSH2 0x273C JUMPI PUSH2 0x273B PUSH2 0x4EDA JUMP JUMPDEST JUMPDEST PUSH1 0x20 MUL PUSH1 0x20 ADD ADD MLOAD PUSH1 0x0 DUP2 MLOAD DUP2 LT PUSH2 0x2757 JUMPI PUSH2 0x2756 PUSH2 0x4EDA JUMP JUMPDEST JUMPDEST PUSH1 0x20 MUL PUSH1 0x20 ADD ADD MLOAD DUP2 MSTORE PUSH1 0x20 ADD DUP5 DUP5 DUP2 MLOAD DUP2 LT PUSH2 0x2777 JUMPI PUSH2 0x2776 PUSH2 0x4EDA JUMP JUMPDEST JUMPDEST PUSH1 0x20 MUL PUSH1 0x20 ADD ADD MLOAD PUSH1 0x1 DUP2 MLOAD DUP2 LT PUSH2 0x2792 JUMPI PUSH2 0x2791 PUSH2 0x4EDA JUMP JUMPDEST JUMPDEST PUSH1 0x20 MUL PUSH1 0x20 ADD ADD MLOAD DUP2 MSTORE PUSH1 0x20 ADD DUP5 DUP5 DUP2 MLOAD DUP2 LT PUSH2 0x27B2 JUMPI PUSH2 0x27B1 PUSH2 0x4EDA JUMP JUMPDEST JUMPDEST PUSH1 0x20 MUL PUSH1 0x20 ADD ADD MLOAD PUSH1 0x2 DUP2 MLOAD DUP2 LT PUSH2 0x27CD JUMPI PUSH2 0x27CC PUSH2 0x4EDA JUMP JUMPDEST JUMPDEST PUSH1 0x20 MUL PUSH1 0x20 ADD ADD MLOAD DUP2 MSTORE POP SWAP1 POP PUSH1 0x2 DUP2 SWAP1 DUP1 PUSH1 0x1 DUP2 SLOAD ADD DUP1 DUP3 SSTORE DUP1 SWAP2 POP POP PUSH1 0x1 SWAP1 SUB SWAP1 PUSH1 0x0 MSTORE PUSH1 0x20 PUSH1 0x0 KECCAK256 SWAP1 PUSH1 0x3 MUL ADD PUSH1 0x0 SWAP1 SWAP2 SWAP1 SWAP2 SWAP1 SWAP2 POP PUSH1 0x0 DUP3 ADD MLOAD DUP2 PUSH1 0x0 ADD SWAP1 DUP2 PUSH2 0x281B SWAP2 SWAP1 PUSH2 0x5219 JUMP JUMPDEST POP PUSH1 0x20 DUP3 ADD MLOAD DUP2 PUSH1 0x1 ADD SWAP1 DUP2 PUSH2 0x2831 SWAP2 SWAP1 PUSH2 0x5219 JUMP JUMPDEST POP PUSH1 0x40 DUP3 ADD MLOAD DUP2 PUSH1 0x2 ADD SWAP1 DUP2 PUSH2 0x2847 SWAP2 SWAP1 PUSH2 0x5219 JUMP JUMPDEST POP POP POP POP DUP1 DUP1 PUSH2 0x2856 SWAP1 PUSH2 0x4FF2 JUMP JUMPDEST SWAP2 POP POP PUSH2 0x2713 JUMP JUMPDEST POP POP POP POP JUMP JUMPDEST PUSH1 0x60 DUP1 PUSH1 0x0 ISZERO ISZERO PUSH1 0x5 PUSH1 0x0 SWAP1 SLOAD SWAP1 PUSH2 0x100 EXP SWAP1 DIV PUSH1 0xFF AND ISZERO ISZERO SUB PUSH2 0x2CAD JUMPI PUSH1 0x1 PUSH1 0x2 DUP2 DUP1 SLOAD DUP1 PUSH1 0x20 MUL PUSH1 0x20 ADD PUSH1 0x40 MLOAD SWAP1 DUP2 ADD PUSH1 0x40 MSTORE DUP1 SWAP3 SWAP2 SWAP1 DUP2 DUP2 MSTORE PUSH1 0x20 ADD PUSH1 0x0 SWAP1 JUMPDEST DUP3 DUP3 LT ISZERO PUSH2 0x2A8F JUMPI DUP4 DUP3 SWAP1 PUSH1 0x0 MSTORE PUSH1 0x20 PUSH1 0x0 KECCAK256 SWAP1 PUSH1 0x3 MUL ADD PUSH1 0x40 MLOAD DUP1 PUSH1 0x60 ADD PUSH1 0x40 MSTORE SWAP1 DUP2 PUSH1 0x0 DUP3 ADD DUP1 SLOAD PUSH2 0x28DA SWAP1 PUSH2 0x4EA9 JUMP JUMPDEST DUP1 PUSH1 0x1F ADD PUSH1 0x20 DUP1 SWAP2 DIV MUL PUSH1 0x20 ADD PUSH1 0x40 MLOAD SWAP1 DUP2 ADD PUSH1 0x40 MSTORE DUP1 SWAP3 SWAP2 SWAP1 DUP2 DUP2 MSTORE PUSH1 0x20 ADD DUP3 DUP1 SLOAD PUSH2 0x2906 SWAP1 PUSH2 0x4EA9 JUMP JUMPDEST DUP1 ISZERO PUSH2 0x2953 JUMPI DUP1 PUSH1 0x1F LT PUSH2 0x2928 JUMPI PUSH2 0x100 DUP1 DUP4 SLOAD DIV MUL DUP4 MSTORE SWAP2 PUSH1 0x20 ADD SWAP2 PUSH2 0x2953 JUMP JUMPDEST DUP3 ADD SWAP2 SWAP1 PUSH1 0x0 MSTORE PUSH1 0x20 PUSH1 0x0 KECCAK256 SWAP1 JUMPDEST DUP2 SLOAD DUP2 MSTORE SWAP1 PUSH1 0x1 ADD SWAP1 PUSH1 0x20 ADD DUP1 DUP4 GT PUSH2 0x2936 JUMPI DUP3 SWAP1 SUB PUSH1 0x1F AND DUP3 ADD SWAP2 JUMPDEST POP POP POP POP POP DUP2 MSTORE PUSH1 0x20 ADD PUSH1 0x1 DUP3 ADD DUP1 SLOAD PUSH2 0x296C SWAP1 PUSH2 0x4EA9 JUMP JUMPDEST DUP1 PUSH1 0x1F ADD PUSH1 0x20 DUP1 SWAP2 DIV MUL PUSH1 0x20 ADD PUSH1 0x40 MLOAD SWAP1 DUP2 ADD PUSH1 0x40 MSTORE DUP1 SWAP3 SWAP2 SWAP1 DUP2 DUP2 MSTORE PUSH1 0x20 ADD DUP3 DUP1 SLOAD PUSH2 0x2998 SWAP1 PUSH2 0x4EA9 JUMP JUMPDEST DUP1 ISZERO PUSH2 0x29E5 JUMPI DUP1 PUSH1 0x1F LT PUSH2 0x29BA JUMPI PUSH2 0x100 DUP1 DUP4 SLOAD DIV MUL DUP4 MSTORE SWAP2 PUSH1 0x20 ADD SWAP2 PUSH2 0x29E5 JUMP JUMPDEST DUP3 ADD SWAP2 SWAP1 PUSH1 0x0 MSTORE PUSH1 0x20 PUSH1 0x0 KECCAK256 SWAP1 JUMPDEST DUP2 SLOAD DUP2 MSTORE SWAP1 PUSH1 0x1 ADD SWAP1 PUSH1 0x20 ADD DUP1 DUP4 GT PUSH2 0x29C8 JUMPI DUP3 SWAP1 SUB PUSH1 0x1F AND DUP3 ADD SWAP2 JUMPDEST POP POP POP POP POP DUP2 MSTORE PUSH1 0x20 ADD PUSH1 0x2 DUP3 ADD DUP1 SLOAD PUSH2 0x29FE SWAP1 PUSH2 0x4EA9 JUMP JUMPDEST DUP1 PUSH1 0x1F ADD PUSH1 0x20 DUP1 SWAP2 DIV MUL PUSH1 0x20 ADD PUSH1 0x40 MLOAD SWAP1 DUP2 ADD PUSH1 0x40 MSTORE DUP1 SWAP3 SWAP2 SWAP1 DUP2 DUP2 MSTORE PUSH1 0x20 ADD DUP3 DUP1 SLOAD PUSH2 0x2A2A SWAP1 PUSH2 0x4EA9 JUMP JUMPDEST DUP1 ISZERO PUSH2 0x2A77 JUMPI DUP1 PUSH1 0x1F LT PUSH2 0x2A4C JUMPI PUSH2 0x100 DUP1 DUP4 SLOAD DIV MUL DUP4 MSTORE SWAP2 PUSH1 0x20 ADD SWAP2 PUSH2 0x2A77 JUMP JUMPDEST DUP3 ADD SWAP2 SWAP1 PUSH1 0x0 MSTORE PUSH1 0x20 PUSH1 0x0 KECCAK256 SWAP1 JUMPDEST DUP2 SLOAD DUP2 MSTORE SWAP1 PUSH1 0x1 ADD SWAP1 PUSH1 0x20 ADD DUP1 DUP4 GT PUSH2 0x2A5A JUMPI DUP3 SWAP1 SUB PUSH1 0x1F AND DUP3 ADD SWAP2 JUMPDEST POP POP POP POP POP DUP2 MSTORE POP POP DUP2 MSTORE PUSH1 0x20 ADD SWAP1 PUSH1 0x1 ADD SWAP1 PUSH2 0x28A7 JUMP JUMPDEST POP POP POP POP SWAP2 POP DUP1 DUP1 SLOAD DUP1 PUSH1 0x20 MUL PUSH1 0x20 ADD PUSH1 0x40 MLOAD SWAP1 DUP2 ADD PUSH1 0x40 MSTORE DUP1 SWAP3 SWAP2 SWAP1 DUP2 DUP2 MSTORE PUSH1 0x20 ADD PUSH1 0x0 SWAP1 JUMPDEST DUP3 DUP3 LT ISZERO PUSH2 0x2C9E JUMPI DUP4 DUP3 SWAP1 PUSH1 0x0 MSTORE PUSH1 0x20 PUSH1 0x0 KECCAK256 SWAP1 PUSH1 0x3 MUL ADD PUSH1 0x40 MLOAD DUP1 PUSH1 0x60 ADD PUSH1 0x40 MSTORE SWAP1 DUP2 PUSH1 0x0 DUP3 ADD DUP1 SLOAD PUSH2 0x2AE9 SWAP1 PUSH2 0x4EA9 JUMP JUMPDEST DUP1 PUSH1 0x1F ADD PUSH1 0x20 DUP1 SWAP2 DIV MUL PUSH1 0x20 ADD PUSH1 0x40 MLOAD SWAP1 DUP2 ADD PUSH1 0x40 MSTORE DUP1 SWAP3 SWAP2 SWAP1 DUP2 DUP2 MSTORE PUSH1 0x20 ADD DUP3 DUP1 SLOAD PUSH2 0x2B15 SWAP1 PUSH2 0x4EA9 JUMP JUMPDEST DUP1 ISZERO PUSH2 0x2B62 JUMPI DUP1 PUSH1 0x1F LT PUSH2 0x2B37 JUMPI PUSH2 0x100 DUP1 DUP4 SLOAD DIV MUL DUP4 MSTORE SWAP2 PUSH1 0x20 ADD SWAP2 PUSH2 0x2B62 JUMP JUMPDEST DUP3 ADD SWAP2 SWAP1 PUSH1 0x0 MSTORE PUSH1 0x20 PUSH1 0x0 KECCAK256 SWAP1 JUMPDEST DUP2 SLOAD DUP2 MSTORE SWAP1 PUSH1 0x1 ADD SWAP1 PUSH1 0x20 ADD DUP1 DUP4 GT PUSH2 0x2B45 JUMPI DUP3 SWAP1 SUB PUSH1 0x1F AND DUP3 ADD SWAP2 JUMPDEST POP POP POP POP POP DUP2 MSTORE PUSH1 0x20 ADD PUSH1 0x1 DUP3 ADD DUP1 SLOAD PUSH2 0x2B7B SWAP1 PUSH2 0x4EA9 JUMP JUMPDEST DUP1 PUSH1 0x1F ADD PUSH1 0x20 DUP1 SWAP2 DIV MUL PUSH1 0x20 ADD PUSH1 0x40 MLOAD SWAP1 DUP2 ADD PUSH1 0x40 MSTORE DUP1 SWAP3 SWAP2 SWAP1 DUP2 DUP2 MSTORE PUSH1 0x20 ADD DUP3 DUP1 SLOAD PUSH2 0x2BA7 SWAP1 PUSH2 0x4EA9 JUMP JUMPDEST DUP1 ISZERO PUSH2 0x2BF4 JUMPI DUP1 PUSH1 0x1F LT PUSH2 0x2BC9 JUMPI PUSH2 0x100 DUP1 DUP4 SLOAD DIV MUL DUP4 MSTORE SWAP2 PUSH1 0x20 ADD SWAP2 PUSH2 0x2BF4 JUMP JUMPDEST DUP3 ADD SWAP2 SWAP1 PUSH1 0x0 MSTORE PUSH1 0x20 PUSH1 0x0 KECCAK256 SWAP1 JUMPDEST DUP2 SLOAD DUP2 MSTORE SWAP1 PUSH1 0x1 ADD SWAP1 PUSH1 0x20 ADD DUP1 DUP4 GT PUSH2 0x2BD7 JUMPI DUP3 SWAP1 SUB PUSH1 0x1F AND DUP3 ADD SWAP2 JUMPDEST POP POP POP POP POP DUP2 MSTORE PUSH1 0x20 ADD PUSH1 0x2 DUP3 ADD DUP1 SLOAD PUSH2 0x2C0D SWAP1 PUSH2 0x4EA9 JUMP JUMPDEST DUP1 PUSH1 0x1F ADD PUSH1 0x20 DUP1 SWAP2 DIV MUL PUSH1 0x20 ADD PUSH1 0x40 MLOAD SWAP1 DUP2 ADD PUSH1 0x40 MSTORE DUP1 SWAP3 SWAP2 SWAP1 DUP2 DUP2 MSTORE PUSH1 0x20 ADD DUP3 DUP1 SLOAD PUSH2 0x2C39 SWAP1 PUSH2 0x4EA9 JUMP JUMPDEST DUP1 ISZERO PUSH2 0x2C86 JUMPI DUP1 PUSH1 0x1F LT PUSH2 0x2C5B JUMPI PUSH2 0x100 DUP1 DUP4 SLOAD DIV MUL DUP4 MSTORE SWAP2 PUSH1 0x20 ADD SWAP2 PUSH2 0x2C86 JUMP JUMPDEST DUP3 ADD SWAP2 SWAP1 PUSH1 0x0 MSTORE PUSH1 0x20 PUSH1 0x0 KECCAK256 SWAP1 JUMPDEST DUP2 SLOAD DUP2 MSTORE SWAP1 PUSH1 0x1 ADD SWAP1 PUSH1 0x20 ADD DUP1 DUP4 GT PUSH2 0x2C69 JUMPI DUP3 SWAP1 SUB PUSH1 0x1F AND DUP3 ADD SWAP2 JUMPDEST POP POP POP POP POP DUP2 MSTORE POP POP DUP2 MSTORE PUSH1 0x20 ADD SWAP1 PUSH1 0x1 ADD SWAP1 PUSH2 0x2AB6 JUMP JUMPDEST POP POP POP POP SWAP1 POP SWAP2 POP SWAP2 POP PUSH2 0x2CB9 JUMP JUMPDEST PUSH1 0x60 DUP1 DUP2 DUP2 SWAP4 POP SWAP4 POP POP POP JUMPDEST SWAP1 SWAP2 JUMP JUMPDEST PUSH1 0x60 PUSH1 0x0 PUSH1 0x7 DUP1 SLOAD SWAP1 POP PUSH8 0xFFFFFFFFFFFFFFFF DUP2 GT ISZERO PUSH2 0x2CE0 JUMPI PUSH2 0x2CDF PUSH2 0x439F JUMP JUMPDEST JUMPDEST PUSH1 0x40 MLOAD SWAP1 DUP1 DUP3 MSTORE DUP1 PUSH1 0x20 MUL PUSH1 0x20 ADD DUP3 ADD PUSH1 0x40 MSTORE DUP1 ISZERO PUSH2 0x2D19 JUMPI DUP2 PUSH1 0x20 ADD JUMPDEST PUSH2 0x2D06 PUSH2 0x3B9C JUMP JUMPDEST DUP2 MSTORE PUSH1 0x20 ADD SWAP1 PUSH1 0x1 SWAP1 SUB SWAP1 DUP2 PUSH2 0x2CFE JUMPI SWAP1 POP JUMPDEST POP SWAP1 POP PUSH1 0x0 DUP1 JUMPDEST PUSH1 0x7 DUP1 SLOAD SWAP1 POP DUP2 LT ISZERO PUSH2 0x35CA JUMPI PUSH1 0x6 PUSH1 0x7 DUP3 DUP2 SLOAD DUP2 LT PUSH2 0x2D43 JUMPI PUSH2 0x2D42 PUSH2 0x4EDA JUMP JUMPDEST JUMPDEST SWAP1 PUSH1 0x0 MSTORE PUSH1 0x20 PUSH1 0x0 KECCAK256 ADD PUSH1 0x40 MLOAD PUSH2 0x2D5A SWAP2 SWAP1 PUSH2 0x4FAC JUMP JUMPDEST SWAP1 DUP2 MSTORE PUSH1 0x20 ADD PUSH1 0x40 MLOAD DUP1 SWAP2 SUB SWAP1 KECCAK256 PUSH1 0x6 ADD PUSH1 0x0 SWAP1 SLOAD SWAP1 PUSH2 0x100 EXP SWAP1 DIV PUSH1 0xFF AND ISZERO PUSH2 0x35B7 JUMPI PUSH1 0x6 PUSH1 0x7 DUP3 DUP2 SLOAD DUP2 LT PUSH2 0x2D94 JUMPI PUSH2 0x2D93 PUSH2 0x4EDA JUMP JUMPDEST JUMPDEST SWAP1 PUSH1 0x0 MSTORE PUSH1 0x20 PUSH1 0x0 KECCAK256 ADD PUSH1 0x40 MLOAD PUSH2 0x2DAB SWAP2 SWAP1 PUSH2 0x4FAC JUMP JUMPDEST SWAP1 DUP2 MSTORE PUSH1 0x20 ADD PUSH1 0x40 MLOAD DUP1 SWAP2 SUB SWAP1 KECCAK256 PUSH1 0x40 MLOAD DUP1 PUSH2 0x160 ADD PUSH1 0x40 MSTORE SWAP1 DUP2 PUSH1 0x0 DUP3 ADD DUP1 SLOAD PUSH2 0x2DD5 SWAP1 PUSH2 0x4EA9 JUMP JUMPDEST DUP1 PUSH1 0x1F ADD PUSH1 0x20 DUP1 SWAP2 DIV MUL PUSH1 0x20 ADD PUSH1 0x40 MLOAD SWAP1 DUP2 ADD PUSH1 0x40 MSTORE DUP1 SWAP3 SWAP2 SWAP1 DUP2 DUP2 MSTORE PUSH1 0x20 ADD DUP3 DUP1 SLOAD PUSH2 0x2E01 SWAP1 PUSH2 0x4EA9 JUMP JUMPDEST DUP1 ISZERO PUSH2 0x2E4E JUMPI DUP1 PUSH1 0x1F LT PUSH2 0x2E23 JUMPI PUSH2 0x100 DUP1 DUP4 SLOAD DIV MUL DUP4 MSTORE SWAP2 PUSH1 0x20 ADD SWAP2 PUSH2 0x2E4E JUMP JUMPDEST DUP3 ADD SWAP2 SWAP1 PUSH1 0x0 MSTORE PUSH1 0x20 PUSH1 0x0 KECCAK256 SWAP1 JUMPDEST DUP2 SLOAD DUP2 MSTORE SWAP1 PUSH1 0x1 ADD SWAP1 PUSH1 0x20 ADD DUP1 DUP4 GT PUSH2 0x2E31 JUMPI DUP3 SWAP1 SUB PUSH1 0x1F AND DUP3 ADD SWAP2 JUMPDEST POP POP POP POP POP DUP2 MSTORE PUSH1 0x20 ADD PUSH1 0x1 DUP3 ADD DUP1 SLOAD PUSH2 0x2E67 SWAP1 PUSH2 0x4EA9 JUMP JUMPDEST DUP1 PUSH1 0x1F ADD PUSH1 0x20 DUP1 SWAP2 DIV MUL PUSH1 0x20 ADD PUSH1 0x40 MLOAD SWAP1 DUP2 ADD PUSH1 0x40 MSTORE DUP1 SWAP3 SWAP2 SWAP1 DUP2 DUP2 MSTORE PUSH1 0x20 ADD DUP3 DUP1 SLOAD PUSH2 0x2E93 SWAP1 PUSH2 0x4EA9 JUMP JUMPDEST DUP1 ISZERO PUSH2 0x2EE0 JUMPI DUP1 PUSH1 0x1F LT PUSH2 0x2EB5 JUMPI PUSH2 0x100 DUP1 DUP4 SLOAD DIV MUL DUP4 MSTORE SWAP2 PUSH1 0x20 ADD SWAP2 PUSH2 0x2EE0 JUMP JUMPDEST DUP3 ADD SWAP2 SWAP1 PUSH1 0x0 MSTORE PUSH1 0x20 PUSH1 0x0 KECCAK256 SWAP1 JUMPDEST DUP2 SLOAD DUP2 MSTORE SWAP1 PUSH1 0x1 ADD SWAP1 PUSH1 0x20 ADD DUP1 DUP4 GT PUSH2 0x2EC3 JUMPI DUP3 SWAP1 SUB PUSH1 0x1F AND DUP3 ADD SWAP2 JUMPDEST POP POP POP POP POP DUP2 MSTORE PUSH1 0x20 ADD PUSH1 0x2 DUP3 ADD DUP1 SLOAD PUSH2 0x2EF9 SWAP1 PUSH2 0x4EA9 JUMP JUMPDEST DUP1 PUSH1 0x1F ADD PUSH1 0x20 DUP1 SWAP2 DIV MUL PUSH1 0x20 ADD PUSH1 0x40 MLOAD SWAP1 DUP2 ADD PUSH1 0x40 MSTORE DUP1 SWAP3 SWAP2 SWAP1 DUP2 DUP2 MSTORE PUSH1 0x20 ADD DUP3 DUP1 SLOAD PUSH2 0x2F25 SWAP1 PUSH2 0x4EA9 JUMP JUMPDEST DUP1 ISZERO PUSH2 0x2F72 JUMPI DUP1 PUSH1 0x1F LT PUSH2 0x2F47 JUMPI PUSH2 0x100 DUP1 DUP4 SLOAD DIV MUL DUP4 MSTORE SWAP2 PUSH1 0x20 ADD SWAP2 PUSH2 0x2F72 JUMP JUMPDEST DUP3 ADD SWAP2 SWAP1 PUSH1 0x0 MSTORE PUSH1 0x20 PUSH1 0x0 KECCAK256 SWAP1 JUMPDEST DUP2 SLOAD DUP2 MSTORE SWAP1 PUSH1 0x1 ADD SWAP1 PUSH1 0x20 ADD DUP1 DUP4 GT PUSH2 0x2F55 JUMPI DUP3 SWAP1 SUB PUSH1 0x1F AND DUP3 ADD SWAP2 JUMPDEST POP POP POP POP POP DUP2 MSTORE PUSH1 0x20 ADD PUSH1 0x3 DUP3 ADD DUP1 SLOAD PUSH2 0x2F8B SWAP1 PUSH2 0x4EA9 JUMP JUMPDEST DUP1 PUSH1 0x1F ADD PUSH1 0x20 DUP1 SWAP2 DIV MUL PUSH1 0x20 ADD PUSH1 0x40 MLOAD SWAP1 DUP2 ADD PUSH1 0x40 MSTORE DUP1 SWAP3 SWAP2 SWAP1 DUP2 DUP2 MSTORE PUSH1 0x20 ADD DUP3 DUP1 SLOAD PUSH2 0x2FB7 SWAP1 PUSH2 0x4EA9 JUMP JUMPDEST DUP1 ISZERO PUSH2 0x3004 JUMPI DUP1 PUSH1 0x1F LT PUSH2 0x2FD9 JUMPI PUSH2 0x100 DUP1 DUP4 SLOAD DIV MUL DUP4 MSTORE SWAP2 PUSH1 0x20 ADD SWAP2 PUSH2 0x3004 JUMP JUMPDEST DUP3 ADD SWAP2 SWAP1 PUSH1 0x0 MSTORE PUSH1 0x20 PUSH1 0x0 KECCAK256 SWAP1 JUMPDEST DUP2 SLOAD DUP2 MSTORE SWAP1 PUSH1 0x1 ADD SWAP1 PUSH1 0x20 ADD DUP1 DUP4 GT PUSH2 0x2FE7 JUMPI DUP3 SWAP1 SUB PUSH1 0x1F AND DUP3 ADD SWAP2 JUMPDEST POP POP POP POP POP DUP2 MSTORE PUSH1 0x20 ADD PUSH1 0x4 DUP3 ADD DUP1 SLOAD DUP1 PUSH1 0x20 MUL PUSH1 0x20 ADD PUSH1 0x40 MLOAD SWAP1 DUP2 ADD PUSH1 0x40 MSTORE DUP1 SWAP3 SWAP2 SWAP1 DUP2 DUP2 MSTORE PUSH1 0x20 ADD PUSH1 0x0 SWAP1 JUMPDEST DUP3 DUP3 LT ISZERO PUSH2 0x321A JUMPI DUP4 DUP3 SWAP1 PUSH1 0x0 MSTORE PUSH1 0x20 PUSH1 0x0 KECCAK256 SWAP1 PUSH1 0x3 MUL ADD PUSH1 0x40 MLOAD DUP1 PUSH1 0x60 ADD PUSH1 0x40 MSTORE SWAP1 DUP2 PUSH1 0x0 DUP3 ADD DUP1 SLOAD PUSH2 0x3065 SWAP1 PUSH2 0x4EA9 JUMP JUMPDEST DUP1 PUSH1 0x1F ADD PUSH1 0x20 DUP1 SWAP2 DIV MUL PUSH1 0x20 ADD PUSH1 0x40 MLOAD SWAP1 DUP2 ADD PUSH1 0x40 MSTORE DUP1 SWAP3 SWAP2 SWAP1 DUP2 DUP2 MSTORE PUSH1 0x20 ADD DUP3 DUP1 SLOAD PUSH2 0x3091 SWAP1 PUSH2 0x4EA9 JUMP JUMPDEST DUP1 ISZERO PUSH2 0x30DE JUMPI DUP1 PUSH1 0x1F LT PUSH2 0x30B3 JUMPI PUSH2 0x100 DUP1 DUP4 SLOAD DIV MUL DUP4 MSTORE SWAP2 PUSH1 0x20 ADD SWAP2 PUSH2 0x30DE JUMP JUMPDEST DUP3 ADD SWAP2 SWAP1 PUSH1 0x0 MSTORE PUSH1 0x20 PUSH1 0x0 KECCAK256 SWAP1 JUMPDEST DUP2 SLOAD DUP2 MSTORE SWAP1 PUSH1 0x1 ADD SWAP1 PUSH1 0x20 ADD DUP1 DUP4 GT PUSH2 0x30C1 JUMPI DUP3 SWAP1 SUB PUSH1 0x1F AND DUP3 ADD SWAP2 JUMPDEST POP POP POP POP POP DUP2 MSTORE PUSH1 0x20 ADD PUSH1 0x1 DUP3 ADD DUP1 SLOAD PUSH2 0x30F7 SWAP1 PUSH2 0x4EA9 JUMP JUMPDEST DUP1 PUSH1 0x1F ADD PUSH1 0x20 DUP1 SWAP2 DIV MUL PUSH1 0x20 ADD PUSH1 0x40 MLOAD SWAP1 DUP2 ADD PUSH1 0x40 MSTORE DUP1 SWAP3 SWAP2 SWAP1 DUP2 DUP2 MSTORE PUSH1 0x20 ADD DUP3 DUP1 SLOAD PUSH2 0x3123 SWAP1 PUSH2 0x4EA9 JUMP JUMPDEST DUP1 ISZERO PUSH2 0x3170 JUMPI DUP1 PUSH1 0x1F LT PUSH2 0x3145 JUMPI PUSH2 0x100 DUP1 DUP4 SLOAD DIV MUL DUP4 MSTORE SWAP2 PUSH1 0x20 ADD SWAP2 PUSH2 0x3170 JUMP JUMPDEST DUP3 ADD SWAP2 SWAP1 PUSH1 0x0 MSTORE PUSH1 0x20 PUSH1 0x0 KECCAK256 SWAP1 JUMPDEST DUP2 SLOAD DUP2 MSTORE SWAP1 PUSH1 0x1 ADD SWAP1 PUSH1 0x20 ADD DUP1 DUP4 GT PUSH2 0x3153 JUMPI DUP3 SWAP1 SUB PUSH1 0x1F AND DUP3 ADD SWAP2 JUMPDEST POP POP POP POP POP DUP2 MSTORE PUSH1 0x20 ADD PUSH1 0x2 DUP3 ADD DUP1 SLOAD PUSH2 0x3189 SWAP1 PUSH2 0x4EA9 JUMP JUMPDEST DUP1 PUSH1 0x1F ADD PUSH1 0x20 DUP1 SWAP2 DIV MUL PUSH1 0x20 ADD PUSH1 0x40 MLOAD SWAP1 DUP2 ADD PUSH1 0x40 MSTORE DUP1 SWAP3 SWAP2 SWAP1 DUP2 DUP2 MSTORE PUSH1 0x20 ADD DUP3 DUP1 SLOAD PUSH2 0x31B5 SWAP1 PUSH2 0x4EA9 JUMP JUMPDEST DUP1 ISZERO PUSH2 0x3202 JUMPI DUP1 PUSH1 0x1F LT PUSH2 0x31D7 JUMPI PUSH2 0x100 DUP1 DUP4 SLOAD DIV MUL DUP4 MSTORE SWAP2 PUSH1 0x20 ADD SWAP2 PUSH2 0x3202 JUMP JUMPDEST DUP3 ADD SWAP2 SWAP1 PUSH1 0x0 MSTORE PUSH1 0x20 PUSH1 0x0 KECCAK256 SWAP1 JUMPDEST DUP2 SLOAD DUP2 MSTORE SWAP1 PUSH1 0x1 ADD SWAP1 PUSH1 0x20 ADD DUP1 DUP4 GT PUSH2 0x31E5 JUMPI DUP3 SWAP1 SUB PUSH1 0x1F AND DUP3 ADD SWAP2 JUMPDEST POP POP POP POP POP DUP2 MSTORE POP POP DUP2 MSTORE PUSH1 0x20 ADD SWAP1 PUSH1 0x1 ADD SWAP1 PUSH2 0x3032 JUMP JUMPDEST POP POP POP POP DUP2 MSTORE PUSH1 0x20 ADD PUSH1 0x5 DUP3 ADD DUP1 SLOAD DUP1 PUSH1 0x20 MUL PUSH1 0x20 ADD PUSH1 0x40 MLOAD SWAP1 DUP2 ADD PUSH1 0x40 MSTORE DUP1 SWAP3 SWAP2 SWAP1 DUP2 DUP2 MSTORE PUSH1 0x20 ADD PUSH1 0x0 SWAP1 JUMPDEST DUP3 DUP3 LT ISZERO PUSH2 0x342F JUMPI DUP4 DUP3 SWAP1 PUSH1 0x0 MSTORE PUSH1 0x20 PUSH1 0x0 KECCAK256 SWAP1 PUSH1 0x3 MUL ADD PUSH1 0x40 MLOAD DUP1 PUSH1 0x60 ADD PUSH1 0x40 MSTORE SWAP1 DUP2 PUSH1 0x0 DUP3 ADD DUP1 SLOAD PUSH2 0x327A SWAP1 PUSH2 0x4EA9 JUMP JUMPDEST DUP1 PUSH1 0x1F ADD PUSH1 0x20 DUP1 SWAP2 DIV MUL PUSH1 0x20 ADD PUSH1 0x40 MLOAD SWAP1 DUP2 ADD PUSH1 0x40 MSTORE DUP1 SWAP3 SWAP2 SWAP1 DUP2 DUP2 MSTORE PUSH1 0x20 ADD DUP3 DUP1 SLOAD PUSH2 0x32A6 SWAP1 PUSH2 0x4EA9 JUMP JUMPDEST DUP1 ISZERO PUSH2 0x32F3 JUMPI DUP1 PUSH1 0x1F LT PUSH2 0x32C8 JUMPI PUSH2 0x100 DUP1 DUP4 SLOAD DIV MUL DUP4 MSTORE SWAP2 PUSH1 0x20 ADD SWAP2 PUSH2 0x32F3 JUMP JUMPDEST DUP3 ADD SWAP2 SWAP1 PUSH1 0x0 MSTORE PUSH1 0x20 PUSH1 0x0 KECCAK256 SWAP1 JUMPDEST DUP2 SLOAD DUP2 MSTORE SWAP1 PUSH1 0x1 ADD SWAP1 PUSH1 0x20 ADD DUP1 DUP4 GT PUSH2 0x32D6 JUMPI DUP3 SWAP1 SUB PUSH1 0x1F AND DUP3 ADD SWAP2 JUMPDEST POP POP POP POP POP DUP2 MSTORE PUSH1 0x20 ADD PUSH1 0x1 DUP3 ADD DUP1 SLOAD PUSH2 0x330C SWAP1 PUSH2 0x4EA9 JUMP JUMPDEST DUP1 PUSH1 0x1F ADD PUSH1 0x20 DUP1 SWAP2 DIV MUL PUSH1 0x20 ADD PUSH1 0x40 MLOAD SWAP1 DUP2 ADD PUSH1 0x40 MSTORE DUP1 SWAP3 SWAP2 SWAP1 DUP2 DUP2 MSTORE PUSH1 0x20 ADD DUP3 DUP1 SLOAD PUSH2 0x3338 SWAP1 PUSH2 0x4EA9 JUMP JUMPDEST DUP1 ISZERO PUSH2 0x3385 JUMPI DUP1 PUSH1 0x1F LT PUSH2 0x335A JUMPI PUSH2 0x100 DUP1 DUP4 SLOAD DIV MUL DUP4 MSTORE SWAP2 PUSH1 0x20 ADD SWAP2 PUSH2 0x3385 JUMP JUMPDEST DUP3 ADD SWAP2 SWAP1 PUSH1 0x0 MSTORE PUSH1 0x20 PUSH1 0x0 KECCAK256 SWAP1 JUMPDEST DUP2 SLOAD DUP2 MSTORE SWAP1 PUSH1 0x1 ADD SWAP1 PUSH1 0x20 ADD DUP1 DUP4 GT PUSH2 0x3368 JUMPI DUP3 SWAP1 SUB PUSH1 0x1F AND DUP3 ADD SWAP2 JUMPDEST POP POP POP POP POP DUP2 MSTORE PUSH1 0x20 ADD PUSH1 0x2 DUP3 ADD DUP1 SLOAD PUSH2 0x339E SWAP1 PUSH2 0x4EA9 JUMP JUMPDEST DUP1 PUSH1 0x1F ADD PUSH1 0x20 DUP1 SWAP2 DIV MUL PUSH1 0x20 ADD PUSH1 0x40 MLOAD SWAP1 DUP2 ADD PUSH1 0x40 MSTORE DUP1 SWAP3 SWAP2 SWAP1 DUP2 DUP2 MSTORE PUSH1 0x20 ADD DUP3 DUP1 SLOAD PUSH2 0x33CA SWAP1 PUSH2 0x4EA9 JUMP JUMPDEST DUP1 ISZERO PUSH2 0x3417 JUMPI DUP1 PUSH1 0x1F LT PUSH2 0x33EC JUMPI PUSH2 0x100 DUP1 DUP4 SLOAD DIV MUL DUP4 MSTORE SWAP2 PUSH1 0x20 ADD SWAP2 PUSH2 0x3417 JUMP JUMPDEST DUP3 ADD SWAP2 SWAP1 PUSH1 0x0 MSTORE PUSH1 0x20 PUSH1 0x0 KECCAK256 SWAP1 JUMPDEST DUP2 SLOAD DUP2 MSTORE SWAP1 PUSH1 0x1 ADD SWAP1 PUSH1 0x20 ADD DUP1 DUP4 GT PUSH2 0x33FA JUMPI DUP3 SWAP1 SUB PUSH1 0x1F AND DUP3 ADD SWAP2 JUMPDEST POP POP POP POP POP DUP2 MSTORE POP POP DUP2 MSTORE PUSH1 0x20 ADD SWAP1 PUSH1 0x1 ADD SWAP1 PUSH2 0x3247 JUMP JUMPDEST POP POP POP POP DUP2 MSTORE PUSH1 0x20 ADD PUSH1 0x6 DUP3 ADD PUSH1 0x0 SWAP1 SLOAD SWAP1 PUSH2 0x100 EXP SWAP1 DIV PUSH1 0xFF AND ISZERO ISZERO ISZERO ISZERO DUP2 MSTORE PUSH1 0x20 ADD PUSH1 0x7 DUP3 ADD SLOAD DUP2 MSTORE PUSH1 0x20 ADD PUSH1 0x8 DUP3 ADD SLOAD DUP2 MSTORE PUSH1 0x20 ADD PUSH1 0x9 DUP3 ADD DUP1 SLOAD PUSH2 0x3476 SWAP1 PUSH2 0x4EA9 JUMP JUMPDEST DUP1 PUSH1 0x1F ADD PUSH1 0x20 DUP1 SWAP2 DIV MUL PUSH1 0x20 ADD PUSH1 0x40 MLOAD SWAP1 DUP2 ADD PUSH1 0x40 MSTORE DUP1 SWAP3 SWAP2 SWAP1 DUP2 DUP2 MSTORE PUSH1 0x20 ADD DUP3 DUP1 SLOAD PUSH2 0x34A2 SWAP1 PUSH2 0x4EA9 JUMP JUMPDEST DUP1 ISZERO PUSH2 0x34EF JUMPI DUP1 PUSH1 0x1F LT PUSH2 0x34C4 JUMPI PUSH2 0x100 DUP1 DUP4 SLOAD DIV MUL DUP4 MSTORE SWAP2 PUSH1 0x20 ADD SWAP2 PUSH2 0x34EF JUMP JUMPDEST DUP3 ADD SWAP2 SWAP1 PUSH1 0x0 MSTORE PUSH1 0x20 PUSH1 0x0 KECCAK256 SWAP1 JUMPDEST DUP2 SLOAD DUP2 MSTORE SWAP1 PUSH1 0x1 ADD SWAP1 PUSH1 0x20 ADD DUP1 DUP4 GT PUSH2 0x34D2 JUMPI DUP3 SWAP1 SUB PUSH1 0x1F AND DUP3 ADD SWAP2 JUMPDEST POP POP POP POP POP DUP2 MSTORE PUSH1 0x20 ADD PUSH1 0xA DUP3 ADD DUP1 SLOAD PUSH2 0x3508 SWAP1 PUSH2 0x4EA9 JUMP JUMPDEST DUP1 PUSH1 0x1F ADD PUSH1 0x20 DUP1 SWAP2 DIV MUL PUSH1 0x20 ADD PUSH1 0x40 MLOAD SWAP1 DUP2 ADD PUSH1 0x40 MSTORE DUP1 SWAP3 SWAP2 SWAP1 DUP2 DUP2 MSTORE PUSH1 0x20 ADD DUP3 DUP1 SLOAD PUSH2 0x3534 SWAP1 PUSH2 0x4EA9 JUMP JUMPDEST DUP1 ISZERO PUSH2 0x3581 JUMPI DUP1 PUSH1 0x1F LT PUSH2 0x3556 JUMPI PUSH2 0x100 DUP1 DUP4 SLOAD DIV MUL DUP4 MSTORE SWAP2 PUSH1 0x20 ADD SWAP2 PUSH2 0x3581 JUMP JUMPDEST DUP3 ADD SWAP2 SWAP1 PUSH1 0x0 MSTORE PUSH1 0x20 PUSH1 0x0 KECCAK256 SWAP1 JUMPDEST DUP2 SLOAD DUP2 MSTORE SWAP1 PUSH1 0x1 ADD SWAP1 PUSH1 0x20 ADD DUP1 DUP4 GT PUSH2 0x3564 JUMPI DUP3 SWAP1 SUB PUSH1 0x1F AND DUP3 ADD SWAP2 JUMPDEST POP POP POP POP POP DUP2 MSTORE POP POP DUP4 DUP4 DUP2 MLOAD DUP2 LT PUSH2 0x359D JUMPI PUSH2 0x359C PUSH2 0x4EDA JUMP JUMPDEST JUMPDEST PUSH1 0x20 MUL PUSH1 0x20 ADD ADD DUP2 SWAP1 MSTORE POP DUP2 DUP1 PUSH2 0x35B3 SWAP1 PUSH2 0x4FF2 JUMP JUMPDEST SWAP3 POP POP JUMPDEST DUP1 DUP1 PUSH2 0x35C2 SWAP1 PUSH2 0x4FF2 JUMP JUMPDEST SWAP2 POP POP PUSH2 0x2D20 JUMP JUMPDEST POP DUP2 SWAP3 POP POP POP SWAP1 JUMP JUMPDEST PUSH1 0x0 PUSH1 0x6 DUP6 PUSH1 0x40 MLOAD PUSH2 0x35E5 SWAP2 SWAP1 PUSH2 0x506B JUMP JUMPDEST SWAP1 DUP2 MSTORE PUSH1 0x20 ADD PUSH1 0x40 MLOAD DUP1 SWAP2 SUB SWAP1 KECCAK256 SWAP1 POP DUP6 DUP2 PUSH1 0x0 ADD SWAP1 DUP2 PUSH2 0x3606 SWAP2 SWAP1 PUSH2 0x5219 JUMP JUMPDEST POP DUP4 DUP2 PUSH1 0x3 ADD SWAP1 DUP2 PUSH2 0x3618 SWAP2 SWAP1 PUSH2 0x5219 JUMP JUMPDEST POP DUP3 DUP2 PUSH1 0x9 ADD SWAP1 DUP2 PUSH2 0x362A SWAP2 SWAP1 PUSH2 0x5219 JUMP JUMPDEST POP DUP2 DUP2 PUSH1 0xA ADD SWAP1 DUP2 PUSH2 0x363C SWAP2 SWAP1 PUSH2 0x5346 JUMP JUMPDEST POP PUSH1 0x1 DUP2 PUSH1 0x7 ADD DUP2 SWAP1 SSTORE POP POP POP POP POP POP POP JUMP JUMPDEST PUSH1 0x1 DUP2 DUP2 SLOAD DUP2 LT PUSH2 0x365F JUMPI PUSH1 0x0 DUP1 REVERT JUMPDEST SWAP1 PUSH1 0x0 MSTORE PUSH1 0x20 PUSH1 0x0 KECCAK256 SWAP1 PUSH1 0x3 MUL ADD PUSH1 0x0 SWAP2 POP SWAP1 POP DUP1 PUSH1 0x0 ADD DUP1 SLOAD PUSH2 0x3682 SWAP1 PUSH2 0x4EA9 JUMP JUMPDEST DUP1 PUSH1 0x1F ADD PUSH1 0x20 DUP1 SWAP2 DIV MUL PUSH1 0x20 ADD PUSH1 0x40 MLOAD SWAP1 DUP2 ADD PUSH1 0x40 MSTORE DUP1 SWAP3 SWAP2 SWAP1 DUP2 DUP2 MSTORE PUSH1 0x20 ADD DUP3 DUP1 SLOAD PUSH2 0x36AE SWAP1 PUSH2 0x4EA9 JUMP JUMPDEST DUP1 ISZERO PUSH2 0x36FB JUMPI DUP1 PUSH1 0x1F LT PUSH2 0x36D0 JUMPI PUSH2 0x100 DUP1 DUP4 SLOAD DIV MUL DUP4 MSTORE SWAP2 PUSH1 0x20 ADD SWAP2 PUSH2 0x36FB JUMP JUMPDEST DUP3 ADD SWAP2 SWAP1 PUSH1 0x0 MSTORE PUSH1 0x20 PUSH1 0x0 KECCAK256 SWAP1 JUMPDEST DUP2 SLOAD DUP2 MSTORE SWAP1 PUSH1 0x1 ADD SWAP1 PUSH1 0x20 ADD DUP1 DUP4 GT PUSH2 0x36DE JUMPI DUP3 SWAP1 SUB PUSH1 0x1F AND DUP3 ADD SWAP2 JUMPDEST POP POP POP POP POP SWAP1 DUP1 PUSH1 0x1 ADD DUP1 SLOAD PUSH2 0x3710 SWAP1 PUSH2 0x4EA9 JUMP JUMPDEST DUP1 PUSH1 0x1F ADD PUSH1 0x20 DUP1 SWAP2 DIV MUL PUSH1 0x20 ADD PUSH1 0x40 MLOAD SWAP1 DUP2 ADD PUSH1 0x40 MSTORE DUP1 SWAP3 SWAP2 SWAP1 DUP2 DUP2 MSTORE PUSH1 0x20 ADD DUP3 DUP1 SLOAD PUSH2 0x373C SWAP1 PUSH2 0x4EA9 JUMP JUMPDEST DUP1 ISZERO PUSH2 0x3789 JUMPI DUP1 PUSH1 0x1F LT PUSH2 0x375E JUMPI PUSH2 0x100 DUP1 DUP4 SLOAD DIV MUL DUP4 MSTORE SWAP2 PUSH1 0x20 ADD SWAP2 PUSH2 0x3789 JUMP JUMPDEST DUP3 ADD SWAP2 SWAP1 PUSH1 0x0 MSTORE PUSH1 0x20 PUSH1 0x0 KECCAK256 SWAP1 JUMPDEST DUP2 SLOAD DUP2 MSTORE SWAP1 PUSH1 0x1 ADD SWAP1 PUSH1 0x20 ADD DUP1 DUP4 GT PUSH2 0x376C JUMPI DUP3 SWAP1 SUB PUSH1 0x1F AND DUP3 ADD SWAP2 JUMPDEST POP POP POP POP POP SWAP1 DUP1 PUSH1 0x2 ADD DUP1 SLOAD PUSH2 0x379E SWAP1 PUSH2 0x4EA9 JUMP JUMPDEST DUP1 PUSH1 0x1F ADD PUSH1 0x20 DUP1 SWAP2 DIV MUL PUSH1 0x20 ADD PUSH1 0x40 MLOAD SWAP1 DUP2 ADD PUSH1 0x40 MSTORE DUP1 SWAP3 SWAP2 SWAP1 DUP2 DUP2 MSTORE PUSH1 0x20 ADD DUP3 DUP1 SLOAD PUSH2 0x37CA SWAP1 PUSH2 0x4EA9 JUMP JUMPDEST DUP1 ISZERO PUSH2 0x3817 JUMPI DUP1 PUSH1 0x1F LT PUSH2 0x37EC JUMPI PUSH2 0x100 DUP1 DUP4 SLOAD DIV MUL DUP4 MSTORE SWAP2 PUSH1 0x20 ADD SWAP2 PUSH2 0x3817 JUMP JUMPDEST DUP3 ADD SWAP2 SWAP1 PUSH1 0x0 MSTORE PUSH1 0x20 PUSH1 0x0 KECCAK256 SWAP1 JUMPDEST DUP2 SLOAD DUP2 MSTORE SWAP1 PUSH1 0x1 ADD SWAP1 PUSH1 0x20 ADD DUP1 DUP4 GT PUSH2 0x37FA JUMPI DUP3 SWAP1 SUB PUSH1 0x1F AND DUP3 ADD SWAP2 JUMPDEST POP POP POP POP POP SWAP1 POP DUP4 JUMP JUMPDEST PUSH1 0x0 PUSH1 0x6 DUP3 PUSH1 0x40 MLOAD PUSH2 0x3833 SWAP2 SWAP1 PUSH2 0x506B JUMP JUMPDEST SWAP1 DUP2 MSTORE PUSH1 0x20 ADD PUSH1 0x40 MLOAD DUP1 SWAP2 SUB SWAP1 KECCAK256 SWAP1 POP DUP3 DUP2 PUSH1 0x8 ADD DUP2 SWAP1 SSTORE POP DUP3 DUP2 PUSH1 0x7 ADD DUP2 SWAP1 SSTORE POP DUP4 DUP2 PUSH1 0x0 ADD SWAP1 DUP2 PUSH2 0x3866 SWAP2 SWAP1 PUSH2 0x5219 JUMP JUMPDEST POP POP POP POP POP JUMP JUMPDEST PUSH1 0x0 PUSH1 0x6 DUP4 PUSH1 0x40 MLOAD PUSH2 0x387F SWAP2 SWAP1 PUSH2 0x506B JUMP JUMPDEST SWAP1 DUP2 MSTORE PUSH1 0x20 ADD PUSH1 0x40 MLOAD DUP1 SWAP2 SUB SWAP1 KECCAK256 SWAP1 POP DUP2 DUP2 PUSH1 0x6 ADD PUSH1 0x0 PUSH2 0x100 EXP DUP2 SLOAD DUP2 PUSH1 0xFF MUL NOT AND SWAP1 DUP4 ISZERO ISZERO MUL OR SWAP1 SSTORE POP DUP4 DUP2 PUSH1 0x0 ADD SWAP1 DUP2 PUSH2 0x38BC SWAP2 SWAP1 PUSH2 0x5219 JUMP JUMPDEST POP POP POP POP POP JUMP JUMPDEST PUSH1 0x3 PUSH1 0x0 PUSH2 0x38D1 SWAP2 SWAP1 PUSH2 0x3BF8 JUMP JUMPDEST PUSH1 0x1 PUSH1 0x5 PUSH1 0x0 PUSH2 0x100 EXP DUP2 SLOAD DUP2 PUSH1 0xFF MUL NOT AND SWAP1 DUP4 ISZERO ISZERO MUL OR SWAP1 SSTORE POP PUSH1 0x0 JUMPDEST DUP3 MLOAD DUP2 LT ISZERO PUSH2 0x3A3A JUMPI PUSH1 0x0 PUSH1 0x40 MLOAD DUP1 PUSH1 0x60 ADD PUSH1 0x40 MSTORE DUP1 DUP6 DUP5 DUP2 MLOAD DUP2 LT PUSH2 0x3918 JUMPI PUSH2 0x3917 PUSH2 0x4EDA JUMP JUMPDEST JUMPDEST PUSH1 0x20 MUL PUSH1 0x20 ADD ADD MLOAD PUSH1 0x0 DUP2 MLOAD DUP2 LT PUSH2 0x3933 JUMPI PUSH2 0x3932 PUSH2 0x4EDA JUMP JUMPDEST JUMPDEST PUSH1 0x20 MUL PUSH1 0x20 ADD ADD MLOAD DUP2 MSTORE PUSH1 0x20 ADD DUP6 DUP5 DUP2 MLOAD DUP2 LT PUSH2 0x3953 JUMPI PUSH2 0x3952 PUSH2 0x4EDA JUMP JUMPDEST JUMPDEST PUSH1 0x20 MUL PUSH1 0x20 ADD ADD MLOAD PUSH1 0x1 DUP2 MLOAD DUP2 LT PUSH2 0x396E JUMPI PUSH2 0x396D PUSH2 0x4EDA JUMP JUMPDEST JUMPDEST PUSH1 0x20 MUL PUSH1 0x20 ADD ADD MLOAD DUP2 MSTORE PUSH1 0x20 ADD DUP6 DUP5 DUP2 MLOAD DUP2 LT PUSH2 0x398E JUMPI PUSH2 0x398D PUSH2 0x4EDA JUMP JUMPDEST JUMPDEST PUSH1 0x20 MUL PUSH1 0x20 ADD ADD MLOAD PUSH1 0x2 DUP2 MLOAD DUP2 LT PUSH2 0x39A9 JUMPI PUSH2 0x39A8 PUSH2 0x4EDA JUMP JUMPDEST JUMPDEST PUSH1 0x20 MUL PUSH1 0x20 ADD ADD MLOAD DUP2 MSTORE POP SWAP1 POP PUSH1 0x3 DUP2 SWAP1 DUP1 PUSH1 0x1 DUP2 SLOAD ADD DUP1 DUP3 SSTORE DUP1 SWAP2 POP POP PUSH1 0x1 SWAP1 SUB SWAP1 PUSH1 0x0 MSTORE PUSH1 0x20 PUSH1 0x0 KECCAK256 SWAP1 PUSH1 0x3 MUL ADD PUSH1 0x0 SWAP1 SWAP2 SWAP1 SWAP2 SWAP1 SWAP2 POP PUSH1 0x0 DUP3 ADD MLOAD DUP2 PUSH1 0x0 ADD SWAP1 DUP2 PUSH2 0x39F7 SWAP2 SWAP1 PUSH2 0x5219 JUMP JUMPDEST POP PUSH1 0x20 DUP3 ADD MLOAD DUP2 PUSH1 0x1 ADD SWAP1 DUP2 PUSH2 0x3A0D SWAP2 SWAP1 PUSH2 0x5219 JUMP JUMPDEST POP PUSH1 0x40 DUP3 ADD MLOAD DUP2 PUSH1 0x2 ADD SWAP1 DUP2 PUSH2 0x3A23 SWAP2 SWAP1 PUSH2 0x5219 JUMP JUMPDEST POP POP POP POP DUP1 DUP1 PUSH2 0x3A32 SWAP1 PUSH2 0x4FF2 JUMP JUMPDEST SWAP2 POP POP PUSH2 0x38EF JUMP JUMPDEST POP PUSH1 0x4 PUSH1 0x0 PUSH2 0x3A49 SWAP2 SWAP1 PUSH2 0x3C1C JUMP JUMPDEST PUSH1 0x0 JUMPDEST DUP2 MLOAD DUP2 LT ISZERO PUSH2 0x3B97 JUMPI PUSH1 0x0 PUSH1 0x40 MLOAD DUP1 PUSH1 0x60 ADD PUSH1 0x40 MSTORE DUP1 DUP5 DUP5 DUP2 MLOAD DUP2 LT PUSH2 0x3A75 JUMPI PUSH2 0x3A74 PUSH2 0x4EDA JUMP JUMPDEST JUMPDEST PUSH1 0x20 MUL PUSH1 0x20 ADD ADD MLOAD PUSH1 0x0 DUP2 MLOAD DUP2 LT PUSH2 0x3A90 JUMPI PUSH2 0x3A8F PUSH2 0x4EDA JUMP JUMPDEST JUMPDEST PUSH1 0x20 MUL PUSH1 0x20 ADD ADD MLOAD DUP2 MSTORE PUSH1 0x20 ADD DUP5 DUP5 DUP2 MLOAD DUP2 LT PUSH2 0x3AB0 JUMPI PUSH2 0x3AAF PUSH2 0x4EDA JUMP JUMPDEST JUMPDEST PUSH1 0x20 MUL PUSH1 0x20 ADD ADD MLOAD PUSH1 0x1 DUP2 MLOAD DUP2 LT PUSH2 0x3ACB JUMPI PUSH2 0x3ACA PUSH2 0x4EDA JUMP JUMPDEST JUMPDEST PUSH1 0x20 MUL PUSH1 0x20 ADD ADD MLOAD DUP2 MSTORE PUSH1 0x20 ADD DUP5 DUP5 DUP2 MLOAD DUP2 LT PUSH2 0x3AEB JUMPI PUSH2 0x3AEA PUSH2 0x4EDA JUMP JUMPDEST JUMPDEST PUSH1 0x20 MUL PUSH1 0x20 ADD ADD MLOAD PUSH1 0x2 DUP2 MLOAD DUP2 LT PUSH2 0x3B06 JUMPI PUSH2 0x3B05 PUSH2 0x4EDA JUMP JUMPDEST JUMPDEST PUSH1 0x20 MUL PUSH1 0x20 ADD ADD MLOAD DUP2 MSTORE POP SWAP1 POP PUSH1 0x4 DUP2 SWAP1 DUP1 PUSH1 0x1 DUP2 SLOAD ADD DUP1 DUP3 SSTORE DUP1 SWAP2 POP POP PUSH1 0x1 SWAP1 SUB SWAP1 PUSH1 0x0 MSTORE PUSH1 0x20 PUSH1 0x0 KECCAK256 SWAP1 PUSH1 0x3 MUL ADD PUSH1 0x0 SWAP1 SWAP2 SWAP1 SWAP2 SWAP1 SWAP2 POP PUSH1 0x0 DUP3 ADD MLOAD DUP2 PUSH1 0x0 ADD SWAP1 DUP2 PUSH2 0x3B54 SWAP2 SWAP1 PUSH2 0x5219 JUMP JUMPDEST POP PUSH1 0x20 DUP3 ADD MLOAD DUP2 PUSH1 0x1 ADD SWAP1 DUP2 PUSH2 0x3B6A SWAP2 SWAP1 PUSH2 0x5219 JUMP JUMPDEST POP PUSH1 0x40 DUP3 ADD MLOAD DUP2 PUSH1 0x2 ADD SWAP1 DUP2 PUSH2 0x3B80 SWAP2 SWAP1 PUSH2 0x5219 JUMP JUMPDEST POP POP POP POP DUP1 DUP1 PUSH2 0x3B8F SWAP1 PUSH2 0x4FF2 JUMP JUMPDEST SWAP2 POP POP PUSH2 0x3A4C JUMP JUMPDEST POP POP POP JUMP JUMPDEST PUSH1 0x40 MLOAD DUP1 PUSH2 0x160 ADD PUSH1 0x40 MSTORE DUP1 PUSH1 0x60 DUP2 MSTORE PUSH1 0x20 ADD PUSH1 0x60 DUP2 MSTORE PUSH1 0x20 ADD PUSH1 0x60 DUP2 MSTORE PUSH1 0x20 ADD PUSH1 0x60 DUP2 MSTORE PUSH1 0x20 ADD PUSH1 0x60 DUP2 MSTORE PUSH1 0x20 ADD PUSH1 0x60 DUP2 MSTORE PUSH1 0x20 ADD PUSH1 0x0 ISZERO ISZERO DUP2 MSTORE PUSH1 0x20 ADD PUSH1 0x0 DUP2 MSTORE PUSH1 0x20 ADD PUSH1 0x0 DUP2 MSTORE PUSH1 0x20 ADD PUSH1 0x60 DUP2 MSTORE PUSH1 0x20 ADD PUSH1 0x60 DUP2 MSTORE POP SWAP1 JUMP JUMPDEST POP DUP1 SLOAD PUSH1 0x0 DUP3 SSTORE PUSH1 0x3 MUL SWAP1 PUSH1 0x0 MSTORE PUSH1 0x20 PUSH1 0x0 KECCAK256 SWAP1 DUP2 ADD SWAP1 PUSH2 0x3C19 SWAP2 SWAP1 PUSH2 0x3C40 JUMP JUMPDEST POP JUMP JUMPDEST POP DUP1 SLOAD PUSH1 0x0 DUP3 SSTORE PUSH1 0x3 MUL SWAP1 PUSH1 0x0 MSTORE PUSH1 0x20 PUSH1 0x0 KECCAK256 SWAP1 DUP2 ADD SWAP1 PUSH2 0x3C3D SWAP2 SWAP1 PUSH2 0x3C87 JUMP JUMPDEST POP JUMP JUMPDEST JUMPDEST DUP1 DUP3 GT ISZERO PUSH2 0x3C83 JUMPI PUSH1 0x0 DUP1 DUP3 ADD PUSH1 0x0 PUSH2 0x3C5A SWAP2 SWAP1 PUSH2 0x3CCE JUMP JUMPDEST PUSH1 0x1 DUP3 ADD PUSH1 0x0 PUSH2 0x3C6A SWAP2 SWAP1 PUSH2 0x3CCE JUMP JUMPDEST PUSH1 0x2 DUP3 ADD PUSH1 0x0 PUSH2 0x3C7A SWAP2 SWAP1 PUSH2 0x3CCE JUMP JUMPDEST POP PUSH1 0x3 ADD PUSH2 0x3C41 JUMP JUMPDEST POP SWAP1 JUMP JUMPDEST JUMPDEST DUP1 DUP3 GT ISZERO PUSH2 0x3CCA JUMPI PUSH1 0x0 DUP1 DUP3 ADD PUSH1 0x0 PUSH2 0x3CA1 SWAP2 SWAP1 PUSH2 0x3CCE JUMP JUMPDEST PUSH1 0x1 DUP3 ADD PUSH1 0x0 PUSH2 0x3CB1 SWAP2 SWAP1 PUSH2 0x3CCE JUMP JUMPDEST PUSH1 0x2 DUP3 ADD PUSH1 0x0 PUSH2 0x3CC1 SWAP2 SWAP1 PUSH2 0x3CCE JUMP JUMPDEST POP PUSH1 0x3 ADD PUSH2 0x3C88 JUMP JUMPDEST POP SWAP1 JUMP JUMPDEST POP DUP1 SLOAD PUSH2 0x3CDA SWAP1 PUSH2 0x4EA9 JUMP JUMPDEST PUSH1 0x0 DUP3 SSTORE DUP1 PUSH1 0x1F LT PUSH2 0x3CEC JUMPI POP PUSH2 0x3D0B JUMP JUMPDEST PUSH1 0x1F ADD PUSH1 0x20 SWAP1 DIV SWAP1 PUSH1 0x0 MSTORE PUSH1 0x20 PUSH1 0x0 KECCAK256 SWAP1 DUP2 ADD SWAP1 PUSH2 0x3D0A SWAP2 SWAP1 PUSH2 0x3D0E JUMP JUMPDEST JUMPDEST POP JUMP JUMPDEST JUMPDEST DUP1 DUP3 GT ISZERO PUSH2 0x3D27 JUMPI PUSH1 0x0 DUP2 PUSH1 0x0 SWAP1 SSTORE POP PUSH1 0x1 ADD PUSH2 0x3D0F JUMP JUMPDEST POP SWAP1 JUMP JUMPDEST PUSH1 0x0 PUSH1 0x40 MLOAD SWAP1 POP SWAP1 JUMP JUMPDEST PUSH1 0x0 DUP1 REVERT JUMPDEST PUSH1 0x0 DUP1 REVERT JUMPDEST PUSH1 0x0 DUP2 SWAP1 POP SWAP2 SWAP1 POP JUMP JUMPDEST PUSH2 0x3D52 DUP2 PUSH2 0x3D3F JUMP JUMPDEST DUP2 EQ PUSH2 0x3D5D JUMPI PUSH1 0x0 DUP1 REVERT JUMPDEST POP JUMP JUMPDEST PUSH1 0x0 DUP2 CALLDATALOAD SWAP1 POP PUSH2 0x3D6F DUP2 PUSH2 0x3D49 JUMP JUMPDEST SWAP3 SWAP2 POP POP JUMP JUMPDEST PUSH1 0x0 PUSH1 0x20 DUP3 DUP5 SUB SLT ISZERO PUSH2 0x3D8B JUMPI PUSH2 0x3D8A PUSH2 0x3D35 JUMP JUMPDEST JUMPDEST PUSH1 0x0 PUSH2 0x3D99 DUP5 DUP3 DUP6 ADD PUSH2 0x3D60 JUMP JUMPDEST SWAP2 POP POP SWAP3 SWAP2 POP POP JUMP JUMPDEST PUSH1 0x0 DUP2 MLOAD SWAP1 POP SWAP2 SWAP1 POP JUMP JUMPDEST PUSH1 0x0 DUP3 DUP3 MSTORE PUSH1 0x20 DUP3 ADD SWAP1 POP SWAP3 SWAP2 POP POP JUMP JUMPDEST PUSH1 0x0 JUMPDEST DUP4 DUP2 LT ISZERO PUSH2 0x3DDC JUMPI DUP1 DUP3 ADD MLOAD DUP2 DUP5 ADD MSTORE PUSH1 0x20 DUP2 ADD SWAP1 POP PUSH2 0x3DC1 JUMP JUMPDEST PUSH1 0x0 DUP5 DUP5 ADD MSTORE POP POP POP POP JUMP JUMPDEST PUSH1 0x0 PUSH1 0x1F NOT PUSH1 0x1F DUP4 ADD AND SWAP1 POP SWAP2 SWAP1 POP JUMP JUMPDEST PUSH1 0x0 PUSH2 0x3E04 DUP3 PUSH2 0x3DA2 JUMP JUMPDEST PUSH2 0x3E0E DUP2 DUP6 PUSH2 0x3DAD JUMP JUMPDEST SWAP4 POP PUSH2 0x3E1E DUP2 DUP6 PUSH1 0x20 DUP7 ADD PUSH2 0x3DBE JUMP JUMPDEST PUSH2 0x3E27 DUP2 PUSH2 0x3DE8 JUMP JUMPDEST DUP5 ADD SWAP2 POP POP SWAP3 SWAP2 POP POP JUMP JUMPDEST PUSH1 0x0 PUSH1 0x60 DUP3 ADD SWAP1 POP DUP2 DUP2 SUB PUSH1 0x0 DUP4 ADD MSTORE PUSH2 0x3E4C DUP2 DUP7 PUSH2 0x3DF9 JUMP JUMPDEST SWAP1 POP DUP2 DUP2 SUB PUSH1 0x20 DUP4 ADD MSTORE PUSH2 0x3E60 DUP2 DUP6 PUSH2 0x3DF9 JUMP JUMPDEST SWAP1 POP DUP2 DUP2 SUB PUSH1 0x40 DUP4 ADD MSTORE PUSH2 0x3E74 DUP2 DUP5 PUSH2 0x3DF9 JUMP JUMPDEST SWAP1 POP SWAP5 SWAP4 POP POP POP POP JUMP JUMPDEST PUSH1 0x0 DUP2 MLOAD SWAP1 POP SWAP2 SWAP1 POP JUMP JUMPDEST PUSH1 0x0 DUP3 DUP3 MSTORE PUSH1 0x20 DUP3 ADD SWAP1 POP SWAP3 SWAP2 POP POP JUMP JUMPDEST PUSH1 0x0 DUP2 SWAP1 POP PUSH1 0x20 DUP3 ADD SWAP1 POP SWAP2 SWAP1 POP JUMP JUMPDEST PUSH1 0x0 DUP3 DUP3 MSTORE PUSH1 0x20 DUP3 ADD SWAP1 POP SWAP3 SWAP2 POP POP JUMP JUMPDEST PUSH1 0x0 PUSH2 0x3EC6 DUP3 PUSH2 0x3DA2 JUMP JUMPDEST PUSH2 0x3ED0 DUP2 DUP6 PUSH2 0x3EAA JUMP JUMPDEST SWAP4 POP PUSH2 0x3EE0 DUP2 DUP6 PUSH1 0x20 DUP7 ADD PUSH2 0x3DBE JUMP JUMPDEST PUSH2 0x3EE9 DUP2 PUSH2 0x3DE8 JUMP JUMPDEST DUP5 ADD SWAP2 POP POP SWAP3 SWAP2 POP POP JUMP JUMPDEST PUSH1 0x0 DUP2 MLOAD SWAP1 POP SWAP2 SWAP1 POP JUMP JUMPDEST PUSH1 0x0 DUP3 DUP3 MSTORE PUSH1 0x20 DUP3 ADD SWAP1 POP SWAP3 SWAP2 POP POP JUMP JUMPDEST PUSH1 0x0 DUP2 SWAP1 POP PUSH1 0x20 DUP3 ADD SWAP1 POP SWAP2 SWAP1 POP JUMP JUMPDEST PUSH1 0x0 PUSH1 0x60 DUP4 ADD PUSH1 0x0 DUP4 ADD MLOAD DUP5 DUP3 SUB PUSH1 0x0 DUP7 ADD MSTORE PUSH2 0x3F3D DUP3 DUP3 PUSH2 0x3EBB JUMP JUMPDEST SWAP2 POP POP PUSH1 0x20 DUP4 ADD MLOAD DUP5 DUP3 SUB PUSH1 0x20 DUP7 ADD MSTORE PUSH2 0x3F57 DUP3 DUP3 PUSH2 0x3EBB JUMP JUMPDEST SWAP2 POP POP PUSH1 0x40 DUP4 ADD MLOAD DUP5 DUP3 SUB PUSH1 0x40 DUP7 ADD MSTORE PUSH2 0x3F71 DUP3 DUP3 PUSH2 0x3EBB JUMP JUMPDEST SWAP2 POP POP DUP1 SWAP2 POP POP SWAP3 SWAP2 POP POP JUMP JUMPDEST PUSH1 0x0 PUSH2 0x3F8A DUP4 DUP4 PUSH2 0x3F20 JUMP JUMPDEST SWAP1 POP SWAP3 SWAP2 POP POP JUMP JUMPDEST PUSH1 0x0 PUSH1 0x20 DUP3 ADD SWAP1 POP SWAP2 SWAP1 POP JUMP JUMPDEST PUSH1 0x0 PUSH2 0x3FAA DUP3 PUSH2 0x3EF4 JUMP JUMPDEST PUSH2 0x3FB4 DUP2 DUP6 PUSH2 0x3EFF JUMP JUMPDEST SWAP4 POP DUP4 PUSH1 0x20 DUP3 MUL DUP6 ADD PUSH2 0x3FC6 DUP6 PUSH2 0x3F10 JUMP JUMPDEST DUP1 PUSH1 0x0 JUMPDEST DUP6 DUP2 LT ISZERO PUSH2 0x4002 JUMPI DUP5 DUP5 SUB DUP10 MSTORE DUP2 MLOAD PUSH2 0x3FE3 DUP6 DUP3 PUSH2 0x3F7E JUMP JUMPDEST SWAP5 POP PUSH2 0x3FEE DUP4 PUSH2 0x3F92 JUMP JUMPDEST SWAP3 POP PUSH1 0x20 DUP11 ADD SWAP10 POP POP PUSH1 0x1 DUP2 ADD SWAP1 POP PUSH2 0x3FCA JUMP JUMPDEST POP DUP3 SWAP8 POP DUP8 SWAP6 POP POP POP POP POP POP SWAP3 SWAP2 POP POP JUMP JUMPDEST PUSH1 0x0 DUP2 MLOAD SWAP1 POP SWAP2 SWAP1 POP JUMP JUMPDEST PUSH1 0x0 DUP3 DUP3 MSTORE PUSH1 0x20 DUP3 ADD SWAP1 POP SWAP3 SWAP2 POP POP JUMP JUMPDEST PUSH1 0x0 DUP2 SWAP1 POP PUSH1 0x20 DUP3 ADD SWAP1 POP SWAP2 SWAP1 POP JUMP JUMPDEST PUSH1 0x0 PUSH1 0x60 DUP4 ADD PUSH1 0x0 DUP4 ADD MLOAD DUP5 DUP3 SUB PUSH1 0x0 DUP7 ADD MSTORE PUSH2 0x405D DUP3 DUP3 PUSH2 0x3EBB JUMP JUMPDEST SWAP2 POP POP PUSH1 0x20 DUP4 ADD MLOAD DUP5 DUP3 SUB PUSH1 0x20 DUP7 ADD MSTORE PUSH2 0x4077 DUP3 DUP3 PUSH2 0x3EBB JUMP JUMPDEST SWAP2 POP POP PUSH1 0x40 DUP4 ADD MLOAD DUP5 DUP3 SUB PUSH1 0x40 DUP7 ADD MSTORE PUSH2 0x4091 DUP3 DUP3 PUSH2 0x3EBB JUMP JUMPDEST SWAP2 POP POP DUP1 SWAP2 POP POP SWAP3 SWAP2 POP POP JUMP JUMPDEST PUSH1 0x0 PUSH2 0x40AA DUP4 DUP4 PUSH2 0x4040 JUMP JUMPDEST SWAP1 POP SWAP3 SWAP2 POP POP JUMP JUMPDEST PUSH1 0x0 PUSH1 0x20 DUP3 ADD SWAP1 POP SWAP2 SWAP1 POP JUMP JUMPDEST PUSH1 0x0 PUSH2 0x40CA DUP3 PUSH2 0x4014 JUMP JUMPDEST PUSH2 0x40D4 DUP2 DUP6 PUSH2 0x401F JUMP JUMPDEST SWAP4 POP DUP4 PUSH1 0x20 DUP3 MUL DUP6 ADD PUSH2 0x40E6 DUP6 PUSH2 0x4030 JUMP JUMPDEST DUP1 PUSH1 0x0 JUMPDEST DUP6 DUP2 LT ISZERO PUSH2 0x4122 JUMPI DUP5 DUP5 SUB DUP10 MSTORE DUP2 MLOAD PUSH2 0x4103 DUP6 DUP3 PUSH2 0x409E JUMP JUMPDEST SWAP5 POP PUSH2 0x410E DUP4 PUSH2 0x40B2 JUMP JUMPDEST SWAP3 POP PUSH1 0x20 DUP11 ADD SWAP10 POP POP PUSH1 0x1 DUP2 ADD SWAP1 POP PUSH2 0x40EA JUMP JUMPDEST POP DUP3 SWAP8 POP DUP8 SWAP6 POP POP POP POP POP POP SWAP3 SWAP2 POP POP JUMP JUMPDEST PUSH1 0x0 DUP2 ISZERO ISZERO SWAP1 POP SWAP2 SWAP1 POP JUMP JUMPDEST PUSH2 0x4149 DUP2 PUSH2 0x4134 JUMP JUMPDEST DUP3 MSTORE POP POP JUMP JUMPDEST PUSH1 0x0 DUP2 SWAP1 POP SWAP2 SWAP1 POP JUMP JUMPDEST PUSH2 0x4162 DUP2 PUSH2 0x414F JUMP JUMPDEST DUP3 MSTORE POP POP JUMP JUMPDEST PUSH1 0x0 DUP2 MLOAD SWAP1 POP SWAP2 SWAP1 POP JUMP JUMPDEST PUSH1 0x0 DUP3 DUP3 MSTORE PUSH1 0x20 DUP3 ADD SWAP1 POP SWAP3 SWAP2 POP POP JUMP JUMPDEST PUSH1 0x0 PUSH2 0x418F DUP3 PUSH2 0x4168 JUMP JUMPDEST PUSH2 0x4199 DUP2 DUP6 PUSH2 0x4173 JUMP JUMPDEST SWAP4 POP PUSH2 0x41A9 DUP2 DUP6 PUSH1 0x20 DUP7 ADD PUSH2 0x3DBE JUMP JUMPDEST PUSH2 0x41B2 DUP2 PUSH2 0x3DE8 JUMP JUMPDEST DUP5 ADD SWAP2 POP POP SWAP3 SWAP2 POP POP JUMP JUMPDEST PUSH1 0x0 PUSH2 0x160 DUP4 ADD PUSH1 0x0 DUP4 ADD MLOAD DUP5 DUP3 SUB PUSH1 0x0 DUP7 ADD MSTORE PUSH2 0x41DB DUP3 DUP3 PUSH2 0x3EBB JUMP JUMPDEST SWAP2 POP POP PUSH1 0x20 DUP4 ADD MLOAD DUP5 DUP3 SUB PUSH1 0x20 DUP7 ADD MSTORE PUSH2 0x41F5 DUP3 DUP3 PUSH2 0x3EBB JUMP JUMPDEST SWAP2 POP POP PUSH1 0x40 DUP4 ADD MLOAD DUP5 DUP3 SUB PUSH1 0x40 DUP7 ADD MSTORE PUSH2 0x420F DUP3 DUP3 PUSH2 0x3EBB JUMP JUMPDEST SWAP2 POP POP PUSH1 0x60 DUP4 ADD MLOAD DUP5 DUP3 SUB PUSH1 0x60 DUP7 ADD MSTORE PUSH2 0x4229 DUP3 DUP3 PUSH2 0x3EBB JUMP JUMPDEST SWAP2 POP POP PUSH1 0x80 DUP4 ADD MLOAD DUP5 DUP3 SUB PUSH1 0x80 DUP7 ADD MSTORE PUSH2 0x4243 DUP3 DUP3 PUSH2 0x3F9F JUMP JUMPDEST SWAP2 POP POP PUSH1 0xA0 DUP4 ADD MLOAD DUP5 DUP3 SUB PUSH1 0xA0 DUP7 ADD MSTORE PUSH2 0x425D DUP3 DUP3 PUSH2 0x40BF JUMP JUMPDEST SWAP2 POP POP PUSH1 0xC0 DUP4 ADD MLOAD PUSH2 0x4272 PUSH1 0xC0 DUP7 ADD DUP3 PUSH2 0x4140 JUMP JUMPDEST POP PUSH1 0xE0 DUP4 ADD MLOAD PUSH2 0x4285 PUSH1 0xE0 DUP7 ADD DUP3 PUSH2 0x4159 JUMP JUMPDEST POP PUSH2 0x100 DUP4 ADD MLOAD PUSH2 0x429A PUSH2 0x100 DUP7 ADD DUP3 PUSH2 0x4159 JUMP JUMPDEST POP PUSH2 0x120 DUP4 ADD MLOAD DUP5 DUP3 SUB PUSH2 0x120 DUP7 ADD MSTORE PUSH2 0x42B4 DUP3 DUP3 PUSH2 0x3EBB JUMP JUMPDEST SWAP2 POP POP PUSH2 0x140 DUP4 ADD MLOAD DUP5 DUP3 SUB PUSH2 0x140 DUP7 ADD MSTORE PUSH2 0x42D0 DUP3 DUP3 PUSH2 0x4184 JUMP JUMPDEST SWAP2 POP POP DUP1 SWAP2 POP POP SWAP3 SWAP2 POP POP JUMP JUMPDEST PUSH1 0x0 PUSH2 0x42E9 DUP4 DUP4 PUSH2 0x41BD JUMP JUMPDEST SWAP1 POP SWAP3 SWAP2 POP POP JUMP JUMPDEST PUSH1 0x0 PUSH1 0x20 DUP3 ADD SWAP1 POP SWAP2 SWAP1 POP JUMP JUMPDEST PUSH1 0x0 PUSH2 0x4309 DUP3 PUSH2 0x3E7E JUMP JUMPDEST PUSH2 0x4313 DUP2 DUP6 PUSH2 0x3E89 JUMP JUMPDEST SWAP4 POP DUP4 PUSH1 0x20 DUP3 MUL DUP6 ADD PUSH2 0x4325 DUP6 PUSH2 0x3E9A JUMP JUMPDEST DUP1 PUSH1 0x0 JUMPDEST DUP6 DUP2 LT ISZERO PUSH2 0x4361 JUMPI DUP5 DUP5 SUB DUP10 MSTORE DUP2 MLOAD PUSH2 0x4342 DUP6 DUP3 PUSH2 0x42DD JUMP JUMPDEST SWAP5 POP PUSH2 0x434D DUP4 PUSH2 0x42F1 JUMP JUMPDEST SWAP3 POP PUSH1 0x20 DUP11 ADD SWAP10 POP POP PUSH1 0x1 DUP2 ADD SWAP1 POP PUSH2 0x4329 JUMP JUMPDEST POP DUP3 SWAP8 POP DUP8 SWAP6 POP POP POP POP POP POP SWAP3 SWAP2 POP POP JUMP JUMPDEST PUSH1 0x0 PUSH1 0x20 DUP3 ADD SWAP1 POP DUP2 DUP2 SUB PUSH1 0x0 DUP4 ADD MSTORE PUSH2 0x438D DUP2 DUP5 PUSH2 0x42FE JUMP JUMPDEST SWAP1 POP SWAP3 SWAP2 POP POP JUMP JUMPDEST PUSH1 0x0 DUP1 REVERT JUMPDEST PUSH1 0x0 DUP1 REVERT JUMPDEST PUSH32 0x4E487B7100000000000000000000000000000000000000000000000000000000 PUSH1 0x0 MSTORE PUSH1 0x41 PUSH1 0x4 MSTORE PUSH1 0x24 PUSH1 0x0 REVERT JUMPDEST PUSH2 0x43D7 DUP3 PUSH2 0x3DE8 JUMP JUMPDEST DUP2 ADD DUP2 DUP2 LT PUSH8 0xFFFFFFFFFFFFFFFF DUP3 GT OR ISZERO PUSH2 0x43F6 JUMPI PUSH2 0x43F5 PUSH2 0x439F JUMP JUMPDEST JUMPDEST DUP1 PUSH1 0x40 MSTORE POP POP POP JUMP JUMPDEST PUSH1 0x0 PUSH2 0x4409 PUSH2 0x3D2B JUMP JUMPDEST SWAP1 POP PUSH2 0x4415 DUP3 DUP3 PUSH2 0x43CE JUMP JUMPDEST SWAP2 SWAP1 POP JUMP JUMPDEST PUSH1 0x0 PUSH8 0xFFFFFFFFFFFFFFFF DUP3 GT ISZERO PUSH2 0x4435 JUMPI PUSH2 0x4434 PUSH2 0x439F JUMP JUMPDEST JUMPDEST PUSH2 0x443E DUP3 PUSH2 0x3DE8 JUMP JUMPDEST SWAP1 POP PUSH1 0x20 DUP2 ADD SWAP1 POP SWAP2 SWAP1 POP JUMP JUMPDEST DUP3 DUP2 DUP4 CALLDATACOPY PUSH1 0x0 DUP4 DUP4 ADD MSTORE POP POP POP JUMP JUMPDEST PUSH1 0x0 PUSH2 0x446D PUSH2 0x4468 DUP5 PUSH2 0x441A JUMP JUMPDEST PUSH2 0x43FF JUMP JUMPDEST SWAP1 POP DUP3 DUP2 MSTORE PUSH1 0x20 DUP2 ADD DUP5 DUP5 DUP5 ADD GT ISZERO PUSH2 0x4489 JUMPI PUSH2 0x4488 PUSH2 0x439A JUMP JUMPDEST JUMPDEST PUSH2 0x4494 DUP5 DUP3 DUP6 PUSH2 0x444B JUMP JUMPDEST POP SWAP4 SWAP3 POP POP POP JUMP JUMPDEST PUSH1 0x0 DUP3 PUSH1 0x1F DUP4 ADD SLT PUSH2 0x44B1 JUMPI PUSH2 0x44B0 PUSH2 0x4395 JUMP JUMPDEST JUMPDEST DUP2 CALLDATALOAD PUSH2 0x44C1 DUP5 DUP3 PUSH1 0x20 DUP7 ADD PUSH2 0x445A JUMP JUMPDEST SWAP2 POP POP SWAP3 SWAP2 POP POP JUMP JUMPDEST PUSH1 0x0 PUSH1 0x20 DUP3 DUP5 SUB SLT ISZERO PUSH2 0x44E0 JUMPI PUSH2 0x44DF PUSH2 0x3D35 JUMP JUMPDEST JUMPDEST PUSH1 0x0 DUP3 ADD CALLDATALOAD PUSH8 0xFFFFFFFFFFFFFFFF DUP2 GT ISZERO PUSH2 0x44FE JUMPI PUSH2 0x44FD PUSH2 0x3D3A JUMP JUMPDEST JUMPDEST PUSH2 0x450A DUP5 DUP3 DUP6 ADD PUSH2 0x449C JUMP JUMPDEST SWAP2 POP POP SWAP3 SWAP2 POP POP JUMP JUMPDEST PUSH2 0x451C DUP2 PUSH2 0x4134 JUMP JUMPDEST DUP3 MSTORE POP POP JUMP JUMPDEST PUSH2 0x452B DUP2 PUSH2 0x414F JUMP JUMPDEST DUP3 MSTORE POP POP JUMP JUMPDEST PUSH1 0x0 DUP3 DUP3 MSTORE PUSH1 0x20 DUP3 ADD SWAP1 POP SWAP3 SWAP2 POP POP JUMP JUMPDEST PUSH1 0x0 PUSH2 0x454D DUP3 PUSH2 0x4168 JUMP JUMPDEST PUSH2 0x4557 DUP2 DUP6 PUSH2 0x4531 JUMP JUMPDEST SWAP4 POP PUSH2 0x4567 DUP2 DUP6 PUSH1 0x20 DUP7 ADD PUSH2 0x3DBE JUMP JUMPDEST PUSH2 0x4570 DUP2 PUSH2 0x3DE8 JUMP JUMPDEST DUP5 ADD SWAP2 POP POP SWAP3 SWAP2 POP POP JUMP JUMPDEST PUSH1 0x0 PUSH2 0x120 DUP3 ADD SWAP1 POP DUP2 DUP2 SUB PUSH1 0x0 DUP4 ADD MSTORE PUSH2 0x4596 DUP2 DUP13 PUSH2 0x3DF9 JUMP JUMPDEST SWAP1 POP DUP2 DUP2 SUB PUSH1 0x20 DUP4 ADD MSTORE PUSH2 0x45AA DUP2 DUP12 PUSH2 0x3DF9 JUMP JUMPDEST SWAP1 POP DUP2 DUP2 SUB PUSH1 0x40 DUP4 ADD MSTORE PUSH2 0x45BE DUP2 DUP11 PUSH2 0x3DF9 JUMP JUMPDEST SWAP1 POP DUP2 DUP2 SUB PUSH1 0x60 DUP4 ADD MSTORE PUSH2 0x45D2 DUP2 DUP10 PUSH2 0x3DF9 JUMP JUMPDEST SWAP1 POP PUSH2 0x45E1 PUSH1 0x80 DUP4 ADD DUP9 PUSH2 0x4513 JUMP JUMPDEST PUSH2 0x45EE PUSH1 0xA0 DUP4 ADD DUP8 PUSH2 0x4522 JUMP JUMPDEST PUSH2 0x45FB PUSH1 0xC0 DUP4 ADD DUP7 PUSH2 0x4522 JUMP JUMPDEST DUP2 DUP2 SUB PUSH1 0xE0 DUP4 ADD MSTORE PUSH2 0x460D DUP2 DUP6 PUSH2 0x3DF9 JUMP JUMPDEST SWAP1 POP DUP2 DUP2 SUB PUSH2 0x100 DUP4 ADD MSTORE PUSH2 0x4622 DUP2 DUP5 PUSH2 0x4542 JUMP JUMPDEST SWAP1 POP SWAP11 SWAP10 POP POP POP POP POP POP POP POP POP POP JUMP JUMPDEST PUSH1 0x0 DUP3 DUP3 MSTORE PUSH1 0x20 DUP3 ADD SWAP1 POP SWAP3 SWAP2 POP POP JUMP JUMPDEST PUSH1 0x0 PUSH2 0x464E DUP3 PUSH2 0x3EF4 JUMP JUMPDEST PUSH2 0x4658 DUP2 DUP6 PUSH2 0x4632 JUMP JUMPDEST SWAP4 POP DUP4 PUSH1 0x20 DUP3 MUL DUP6 ADD PUSH2 0x466A DUP6 PUSH2 0x3F10 JUMP JUMPDEST DUP1 PUSH1 0x0 JUMPDEST DUP6 DUP2 LT ISZERO PUSH2 0x46A6 JUMPI DUP5 DUP5 SUB DUP10 MSTORE DUP2 MLOAD PUSH2 0x4687 DUP6 DUP3 PUSH2 0x3F7E JUMP JUMPDEST SWAP5 POP PUSH2 0x4692 DUP4 PUSH2 0x3F92 JUMP JUMPDEST SWAP3 POP PUSH1 0x20 DUP11 ADD SWAP10 POP POP PUSH1 0x1 DUP2 ADD SWAP1 POP PUSH2 0x466E JUMP JUMPDEST POP DUP3 SWAP8 POP DUP8 SWAP6 POP POP POP POP POP POP SWAP3 SWAP2 POP POP JUMP JUMPDEST PUSH1 0x0 DUP3 DUP3 MSTORE PUSH1 0x20 DUP3 ADD SWAP1 POP SWAP3 SWAP2 POP POP JUMP JUMPDEST PUSH1 0x0 PUSH2 0x46D4 DUP3 PUSH2 0x4014 JUMP JUMPDEST PUSH2 0x46DE DUP2 DUP6 PUSH2 0x46B8 JUMP JUMPDEST SWAP4 POP DUP4 PUSH1 0x20 DUP3 MUL DUP6 ADD PUSH2 0x46F0 DUP6 PUSH2 0x4030 JUMP JUMPDEST DUP1 PUSH1 0x0 JUMPDEST DUP6 DUP2 LT ISZERO PUSH2 0x472C JUMPI DUP5 DUP5 SUB DUP10 MSTORE DUP2 MLOAD PUSH2 0x470D DUP6 DUP3 PUSH2 0x409E JUMP JUMPDEST SWAP5 POP PUSH2 0x4718 DUP4 PUSH2 0x40B2 JUMP JUMPDEST SWAP3 POP PUSH1 0x20 DUP11 ADD SWAP10 POP POP PUSH1 0x1 DUP2 ADD SWAP1 POP PUSH2 0x46F4 JUMP JUMPDEST POP DUP3 SWAP8 POP DUP8 SWAP6 POP POP POP POP POP POP SWAP3 SWAP2 POP POP JUMP JUMPDEST PUSH1 0x0 PUSH1 0x40 DUP3 ADD SWAP1 POP DUP2 DUP2 SUB PUSH1 0x0 DUP4 ADD MSTORE PUSH2 0x4758 DUP2 DUP6 PUSH2 0x4643 JUMP JUMPDEST SWAP1 POP DUP2 DUP2 SUB PUSH1 0x20 DUP4 ADD MSTORE PUSH2 0x476C DUP2 DUP5 PUSH2 0x46C9 JUMP JUMPDEST SWAP1 POP SWAP4 SWAP3 POP POP POP JUMP JUMPDEST PUSH1 0x0 PUSH1 0x20 DUP3 ADD SWAP1 POP PUSH2 0x478A PUSH1 0x0 DUP4 ADD DUP5 PUSH2 0x4513 JUMP JUMPDEST SWAP3 SWAP2 POP POP JUMP JUMPDEST PUSH1 0x0 PUSH8 0xFFFFFFFFFFFFFFFF DUP3 GT ISZERO PUSH2 0x47AB JUMPI PUSH2 0x47AA PUSH2 0x439F JUMP JUMPDEST JUMPDEST PUSH1 0x20 DUP3 MUL SWAP1 POP PUSH1 0x20 DUP2 ADD SWAP1 POP SWAP2 SWAP1 POP JUMP JUMPDEST PUSH1 0x0 DUP1 REVERT JUMPDEST PUSH1 0x0 PUSH8 0xFFFFFFFFFFFFFFFF DUP3 GT ISZERO PUSH2 0x47DC JUMPI PUSH2 0x47DB PUSH2 0x439F JUMP JUMPDEST JUMPDEST PUSH1 0x20 DUP3 MUL SWAP1 POP PUSH1 0x20 DUP2 ADD SWAP1 POP SWAP2 SWAP1 POP JUMP JUMPDEST PUSH1 0x0 PUSH2 0x4800 PUSH2 0x47FB DUP5 PUSH2 0x47C1 JUMP JUMPDEST PUSH2 0x43FF JUMP JUMPDEST SWAP1 POP DUP1 DUP4 DUP3 MSTORE PUSH1 0x20 DUP3 ADD SWAP1 POP PUSH1 0x20 DUP5 MUL DUP4 ADD DUP6 DUP2 GT ISZERO PUSH2 0x4823 JUMPI PUSH2 0x4822 PUSH2 0x47BC JUMP JUMPDEST JUMPDEST DUP4 JUMPDEST DUP2 DUP2 LT ISZERO PUSH2 0x486A JUMPI DUP1 CALLDATALOAD PUSH8 0xFFFFFFFFFFFFFFFF DUP2 GT ISZERO PUSH2 0x4848 JUMPI PUSH2 0x4847 PUSH2 0x4395 JUMP JUMPDEST JUMPDEST DUP1 DUP7 ADD PUSH2 0x4855 DUP10 DUP3 PUSH2 0x449C JUMP JUMPDEST DUP6 MSTORE PUSH1 0x20 DUP6 ADD SWAP5 POP POP POP PUSH1 0x20 DUP2 ADD SWAP1 POP PUSH2 0x4825 JUMP JUMPDEST POP POP POP SWAP4 SWAP3 POP POP POP JUMP JUMPDEST PUSH1 0x0 DUP3 PUSH1 0x1F DUP4 ADD SLT PUSH2 0x4889 JUMPI PUSH2 0x4888 PUSH2 0x4395 JUMP JUMPDEST JUMPDEST DUP2 CALLDATALOAD PUSH2 0x4899 DUP5 DUP3 PUSH1 0x20 DUP7 ADD PUSH2 0x47ED JUMP JUMPDEST SWAP2 POP POP SWAP3 SWAP2 POP POP JUMP JUMPDEST PUSH1 0x0 PUSH2 0x48B5 PUSH2 0x48B0 DUP5 PUSH2 0x4790 JUMP JUMPDEST PUSH2 0x43FF JUMP JUMPDEST SWAP1 POP DUP1 DUP4 DUP3 MSTORE PUSH1 0x20 DUP3 ADD SWAP1 POP PUSH1 0x20 DUP5 MUL DUP4 ADD DUP6 DUP2 GT ISZERO PUSH2 0x48D8 JUMPI PUSH2 0x48D7 PUSH2 0x47BC JUMP JUMPDEST JUMPDEST DUP4 JUMPDEST DUP2 DUP2 LT ISZERO PUSH2 0x491F JUMPI DUP1 CALLDATALOAD PUSH8 0xFFFFFFFFFFFFFFFF DUP2 GT ISZERO PUSH2 0x48FD JUMPI PUSH2 0x48FC PUSH2 0x4395 JUMP JUMPDEST JUMPDEST DUP1 DUP7 ADD PUSH2 0x490A DUP10 DUP3 PUSH2 0x4874 JUMP JUMPDEST DUP6 MSTORE PUSH1 0x20 DUP6 ADD SWAP5 POP POP POP PUSH1 0x20 DUP2 ADD SWAP1 POP PUSH2 0x48DA JUMP JUMPDEST POP POP POP SWAP4 SWAP3 POP POP POP JUMP JUMPDEST PUSH1 0x0 DUP3 PUSH1 0x1F DUP4 ADD SLT PUSH2 0x493E JUMPI PUSH2 0x493D PUSH2 0x4395 JUMP JUMPDEST JUMPDEST DUP2 CALLDATALOAD PUSH2 0x494E DUP5 DUP3 PUSH1 0x20 DUP7 ADD PUSH2 0x48A2 JUMP JUMPDEST SWAP2 POP POP SWAP3 SWAP2 POP POP JUMP JUMPDEST PUSH1 0x0 DUP1 PUSH1 0x0 DUP1 PUSH1 0x0 DUP1 PUSH1 0x0 PUSH1 0xE0 DUP9 DUP11 SUB SLT ISZERO PUSH2 0x4976 JUMPI PUSH2 0x4975 PUSH2 0x3D35 JUMP JUMPDEST JUMPDEST PUSH1 0x0 DUP9 ADD CALLDATALOAD PUSH8 0xFFFFFFFFFFFFFFFF DUP2 GT ISZERO PUSH2 0x4994 JUMPI PUSH2 0x4993 PUSH2 0x3D3A JUMP JUMPDEST JUMPDEST PUSH2 0x49A0 DUP11 DUP3 DUP12 ADD PUSH2 0x449C JUMP JUMPDEST SWAP8 POP POP PUSH1 0x20 DUP9 ADD CALLDATALOAD PUSH8 0xFFFFFFFFFFFFFFFF DUP2 GT ISZERO PUSH2 0x49C1 JUMPI PUSH2 0x49C0 PUSH2 0x3D3A JUMP JUMPDEST JUMPDEST PUSH2 0x49CD DUP11 DUP3 DUP12 ADD PUSH2 0x449C JUMP JUMPDEST SWAP7 POP POP PUSH1 0x40 DUP9 ADD CALLDATALOAD PUSH8 0xFFFFFFFFFFFFFFFF DUP2 GT ISZERO PUSH2 0x49EE JUMPI PUSH2 0x49ED PUSH2 0x3D3A JUMP JUMPDEST JUMPDEST PUSH2 0x49FA DUP11 DUP3 DUP12 ADD PUSH2 0x449C JUMP JUMPDEST SWAP6 POP POP PUSH1 0x60 DUP9 ADD CALLDATALOAD PUSH8 0xFFFFFFFFFFFFFFFF DUP2 GT ISZERO PUSH2 0x4A1B JUMPI PUSH2 0x4A1A PUSH2 0x3D3A JUMP JUMPDEST JUMPDEST PUSH2 0x4A27 DUP11 DUP3 DUP12 ADD PUSH2 0x4929 JUMP JUMPDEST SWAP5 POP POP PUSH1 0x80 DUP9 ADD CALLDATALOAD PUSH8 0xFFFFFFFFFFFFFFFF DUP2 GT ISZERO PUSH2 0x4A48 JUMPI PUSH2 0x4A47 PUSH2 0x3D3A JUMP JUMPDEST JUMPDEST PUSH2 0x4A54 DUP11 DUP3 DUP12 ADD PUSH2 0x4929 JUMP JUMPDEST SWAP4 POP POP PUSH1 0xA0 DUP9 ADD CALLDATALOAD PUSH8 0xFFFFFFFFFFFFFFFF DUP2 GT ISZERO PUSH2 0x4A75 JUMPI PUSH2 0x4A74 PUSH2 0x3D3A JUMP JUMPDEST JUMPDEST PUSH2 0x4A81 DUP11 DUP3 DUP12 ADD PUSH2 0x4929 JUMP JUMPDEST SWAP3 POP POP PUSH1 0xC0 DUP9 ADD CALLDATALOAD PUSH8 0xFFFFFFFFFFFFFFFF DUP2 GT ISZERO PUSH2 0x4AA2 JUMPI PUSH2 0x4AA1 PUSH2 0x3D3A JUMP JUMPDEST JUMPDEST PUSH2 0x4AAE DUP11 DUP3 DUP12 ADD PUSH2 0x4929 JUMP JUMPDEST SWAP2 POP POP SWAP3 SWAP6 SWAP9 SWAP2 SWAP5 SWAP8 POP SWAP3 SWAP6 POP JUMP JUMPDEST PUSH1 0x0 DUP1 PUSH1 0x0 PUSH1 0x60 DUP5 DUP7 SUB SLT ISZERO PUSH2 0x4AD6 JUMPI PUSH2 0x4AD5 PUSH2 0x3D35 JUMP JUMPDEST JUMPDEST PUSH1 0x0 DUP5 ADD CALLDATALOAD PUSH8 0xFFFFFFFFFFFFFFFF DUP2 GT ISZERO PUSH2 0x4AF4 JUMPI PUSH2 0x4AF3 PUSH2 0x3D3A JUMP JUMPDEST JUMPDEST PUSH2 0x4B00 DUP7 DUP3 DUP8 ADD PUSH2 0x449C JUMP JUMPDEST SWAP4 POP POP PUSH1 0x20 DUP5 ADD CALLDATALOAD PUSH8 0xFFFFFFFFFFFFFFFF DUP2 GT ISZERO PUSH2 0x4B21 JUMPI PUSH2 0x4B20 PUSH2 0x3D3A JUMP JUMPDEST JUMPDEST PUSH2 0x4B2D DUP7 DUP3 DUP8 ADD PUSH2 0x4929 JUMP JUMPDEST SWAP3 POP POP PUSH1 0x40 DUP5 ADD CALLDATALOAD PUSH8 0xFFFFFFFFFFFFFFFF DUP2 GT ISZERO PUSH2 0x4B4E JUMPI PUSH2 0x4B4D PUSH2 0x3D3A JUMP JUMPDEST JUMPDEST PUSH2 0x4B5A DUP7 DUP3 DUP8 ADD PUSH2 0x4929 JUMP JUMPDEST SWAP2 POP POP SWAP3 POP SWAP3 POP SWAP3 JUMP JUMPDEST PUSH1 0x0 PUSH8 0xFFFFFFFFFFFFFFFF DUP3 GT ISZERO PUSH2 0x4B7F JUMPI PUSH2 0x4B7E PUSH2 0x439F JUMP JUMPDEST JUMPDEST PUSH2 0x4B88 DUP3 PUSH2 0x3DE8 JUMP JUMPDEST SWAP1 POP PUSH1 0x20 DUP2 ADD SWAP1 POP SWAP2 SWAP1 POP JUMP JUMPDEST PUSH1 0x0 PUSH2 0x4BA8 PUSH2 0x4BA3 DUP5 PUSH2 0x4B64 JUMP JUMPDEST PUSH2 0x43FF JUMP JUMPDEST SWAP1 POP DUP3 DUP2 MSTORE PUSH1 0x20 DUP2 ADD DUP5 DUP5 DUP5 ADD GT ISZERO PUSH2 0x4BC4 JUMPI PUSH2 0x4BC3 PUSH2 0x439A JUMP JUMPDEST JUMPDEST PUSH2 0x4BCF DUP5 DUP3 DUP6 PUSH2 0x444B JUMP JUMPDEST POP SWAP4 SWAP3 POP POP POP JUMP JUMPDEST PUSH1 0x0 DUP3 PUSH1 0x1F DUP4 ADD SLT PUSH2 0x4BEC JUMPI PUSH2 0x4BEB PUSH2 0x4395 JUMP JUMPDEST JUMPDEST DUP2 CALLDATALOAD PUSH2 0x4BFC DUP5 DUP3 PUSH1 0x20 DUP7 ADD PUSH2 0x4B95 JUMP JUMPDEST SWAP2 POP POP SWAP3 SWAP2 POP POP JUMP JUMPDEST PUSH1 0x0 DUP1 PUSH1 0x0 DUP1 PUSH1 0x0 PUSH1 0xA0 DUP7 DUP9 SUB SLT ISZERO PUSH2 0x4C21 JUMPI PUSH2 0x4C20 PUSH2 0x3D35 JUMP JUMPDEST JUMPDEST PUSH1 0x0 DUP7 ADD CALLDATALOAD PUSH8 0xFFFFFFFFFFFFFFFF DUP2 GT ISZERO PUSH2 0x4C3F JUMPI PUSH2 0x4C3E PUSH2 0x3D3A JUMP JUMPDEST JUMPDEST PUSH2 0x4C4B DUP9 DUP3 DUP10 ADD PUSH2 0x449C JUMP JUMPDEST SWAP6 POP POP PUSH1 0x20 DUP7 ADD CALLDATALOAD PUSH8 0xFFFFFFFFFFFFFFFF DUP2 GT ISZERO PUSH2 0x4C6C JUMPI PUSH2 0x4C6B PUSH2 0x3D3A JUMP JUMPDEST JUMPDEST PUSH2 0x4C78 DUP9 DUP3 DUP10 ADD PUSH2 0x449C JUMP JUMPDEST SWAP5 POP POP PUSH1 0x40 DUP7 ADD CALLDATALOAD PUSH8 0xFFFFFFFFFFFFFFFF DUP2 GT ISZERO PUSH2 0x4C99 JUMPI PUSH2 0x4C98 PUSH2 0x3D3A JUMP JUMPDEST JUMPDEST PUSH2 0x4CA5 DUP9 DUP3 DUP10 ADD PUSH2 0x449C JUMP JUMPDEST SWAP4 POP POP PUSH1 0x60 DUP7 ADD CALLDATALOAD PUSH8 0xFFFFFFFFFFFFFFFF DUP2 GT ISZERO PUSH2 0x4CC6 JUMPI PUSH2 0x4CC5 PUSH2 0x3D3A JUMP JUMPDEST JUMPDEST PUSH2 0x4CD2 DUP9 DUP3 DUP10 ADD PUSH2 0x449C JUMP JUMPDEST SWAP3 POP POP PUSH1 0x80 DUP7 ADD CALLDATALOAD PUSH8 0xFFFFFFFFFFFFFFFF DUP2 GT ISZERO PUSH2 0x4CF3 JUMPI PUSH2 0x4CF2 PUSH2 0x3D3A JUMP JUMPDEST JUMPDEST PUSH2 0x4CFF DUP9 DUP3 DUP10 ADD PUSH2 0x4BD7 JUMP JUMPDEST SWAP2 POP POP SWAP3 SWAP6 POP SWAP3 SWAP6 SWAP1 SWAP4 POP JUMP JUMPDEST PUSH2 0x4D15 DUP2 PUSH2 0x414F JUMP JUMPDEST DUP2 EQ PUSH2 0x4D20 JUMPI PUSH1 0x0 DUP1 REVERT JUMPDEST POP JUMP JUMPDEST PUSH1 0x0 DUP2 CALLDATALOAD SWAP1 POP PUSH2 0x4D32 DUP2 PUSH2 0x4D0C JUMP JUMPDEST SWAP3 SWAP2 POP POP JUMP JUMPDEST PUSH1 0x0 DUP1 PUSH1 0x0 PUSH1 0x60 DUP5 DUP7 SUB SLT ISZERO PUSH2 0x4D51 JUMPI PUSH2 0x4D50 PUSH2 0x3D35 JUMP JUMPDEST JUMPDEST PUSH1 0x0 DUP5 ADD CALLDATALOAD PUSH8 0xFFFFFFFFFFFFFFFF DUP2 GT ISZERO PUSH2 0x4D6F JUMPI PUSH2 0x4D6E PUSH2 0x3D3A JUMP JUMPDEST JUMPDEST PUSH2 0x4D7B DUP7 DUP3 DUP8 ADD PUSH2 0x449C JUMP JUMPDEST SWAP4 POP POP PUSH1 0x20 PUSH2 0x4D8C DUP7 DUP3 DUP8 ADD PUSH2 0x4D23 JUMP JUMPDEST SWAP3 POP POP PUSH1 0x40 DUP5 ADD CALLDATALOAD PUSH8 0xFFFFFFFFFFFFFFFF DUP2 GT ISZERO PUSH2 0x4DAD JUMPI PUSH2 0x4DAC PUSH2 0x3D3A JUMP JUMPDEST JUMPDEST PUSH2 0x4DB9 DUP7 DUP3 DUP8 ADD PUSH2 0x449C JUMP JUMPDEST SWAP2 POP POP SWAP3 POP SWAP3 POP SWAP3 JUMP JUMPDEST PUSH2 0x4DCC DUP2 PUSH2 0x4134 JUMP JUMPDEST DUP2 EQ PUSH2 0x4DD7 JUMPI PUSH1 0x0 DUP1 REVERT JUMPDEST POP JUMP JUMPDEST PUSH1 0x0 DUP2 CALLDATALOAD SWAP1 POP PUSH2 0x4DE9 DUP2 PUSH2 0x4DC3 JUMP JUMPDEST SWAP3 SWAP2 POP POP JUMP JUMPDEST PUSH1 0x0 DUP1 PUSH1 0x0 PUSH1 0x60 DUP5 DUP7 SUB SLT ISZERO PUSH2 0x4E08 JUMPI PUSH2 0x4E07 PUSH2 0x3D35 JUMP JUMPDEST JUMPDEST PUSH1 0x0 DUP5 ADD CALLDATALOAD PUSH8 0xFFFFFFFFFFFFFFFF DUP2 GT ISZERO PUSH2 0x4E26 JUMPI PUSH2 0x4E25 PUSH2 0x3D3A JUMP JUMPDEST JUMPDEST PUSH2 0x4E32 DUP7 DUP3 DUP8 ADD PUSH2 0x449C JUMP JUMPDEST SWAP4 POP POP PUSH1 0x20 DUP5 ADD CALLDATALOAD PUSH8 0xFFFFFFFFFFFFFFFF DUP2 GT ISZERO PUSH2 0x4E53 JUMPI PUSH2 0x4E52 PUSH2 0x3D3A JUMP JUMPDEST JUMPDEST PUSH2 0x4E5F DUP7 DUP3 DUP8 ADD PUSH2 0x449C JUMP JUMPDEST SWAP3 POP POP PUSH1 0x40 PUSH2 0x4E70 DUP7 DUP3 DUP8 ADD PUSH2 0x4DDA JUMP JUMPDEST SWAP2 POP POP SWAP3 POP SWAP3 POP SWAP3 JUMP JUMPDEST PUSH32 0x4E487B7100000000000000000000000000000000000000000000000000000000 PUSH1 0x0 MSTORE PUSH1 0x22 PUSH1 0x4 MSTORE PUSH1 0x24 PUSH1 0x0 REVERT JUMPDEST PUSH1 0x0 PUSH1 0x2 DUP3 DIV SWAP1 POP PUSH1 0x1 DUP3 AND DUP1 PUSH2 0x4EC1 JUMPI PUSH1 0x7F DUP3 AND SWAP2 POP JUMPDEST PUSH1 0x20 DUP3 LT DUP2 SUB PUSH2 0x4ED4 JUMPI PUSH2 0x4ED3 PUSH2 0x4E7A JUMP JUMPDEST JUMPDEST POP SWAP2 SWAP1 POP JUMP JUMPDEST PUSH32 0x4E487B7100000000000000000000000000000000000000000000000000000000 PUSH1 0x0 MSTORE PUSH1 0x32 PUSH1 0x4 MSTORE PUSH1 0x24 PUSH1 0x0 REVERT JUMPDEST PUSH1 0x0 DUP2 SWAP1 POP SWAP3 SWAP2 POP POP JUMP JUMPDEST PUSH1 0x0 DUP2 SWAP1 POP DUP2 PUSH1 0x0 MSTORE PUSH1 0x20 PUSH1 0x0 KECCAK256 SWAP1 POP SWAP2 SWAP1 POP JUMP JUMPDEST PUSH1 0x0 DUP2 SLOAD PUSH2 0x4F36 DUP2 PUSH2 0x4EA9 JUMP JUMPDEST PUSH2 0x4F40 DUP2 DUP7 PUSH2 0x4F09 JUMP JUMPDEST SWAP5 POP PUSH1 0x1 DUP3 AND PUSH1 0x0 DUP2 EQ PUSH2 0x4F5B JUMPI PUSH1 0x1 DUP2 EQ PUSH2 0x4F70 JUMPI PUSH2 0x4FA3 JUMP JUMPDEST PUSH1 0xFF NOT DUP4 AND DUP7 MSTORE DUP2 ISZERO ISZERO DUP3 MUL DUP7 ADD SWAP4 POP PUSH2 0x4FA3 JUMP JUMPDEST PUSH2 0x4F79 DUP6 PUSH2 0x4F14 JUMP JUMPDEST PUSH1 0x0 JUMPDEST DUP4 DUP2 LT ISZERO PUSH2 0x4F9B JUMPI DUP2 SLOAD DUP2 DUP10 ADD MSTORE PUSH1 0x1 DUP3 ADD SWAP2 POP PUSH1 0x20 DUP2 ADD SWAP1 POP PUSH2 0x4F7C JUMP JUMPDEST DUP4 DUP9 ADD SWAP6 POP POP POP JUMPDEST POP POP POP SWAP3 SWAP2 POP POP JUMP JUMPDEST PUSH1 0x0 PUSH2 0x4FB8 DUP3 DUP5 PUSH2 0x4F29 JUMP JUMPDEST SWAP2 POP DUP2 SWAP1 POP SWAP3 SWAP2 POP POP JUMP JUMPDEST PUSH32 0x4E487B7100000000000000000000000000000000000000000000000000000000 PUSH1 0x0 MSTORE PUSH1 0x11 PUSH1 0x4 MSTORE PUSH1 0x24 PUSH1 0x0 REVERT JUMPDEST PUSH1 0x0 PUSH2 0x4FFD DUP3 PUSH2 0x3D3F JUMP JUMPDEST SWAP2 POP PUSH32 0xFFFFFFFFFFFFFFFFFFFFFFFFFFFFFFFFFFFFFFFFFFFFFFFFFFFFFFFFFFFFFFFF DUP3 SUB PUSH2 0x502F JUMPI PUSH2 0x502E PUSH2 0x4FC3 JUMP JUMPDEST JUMPDEST PUSH1 0x1 DUP3 ADD SWAP1 POP SWAP2 SWAP1 POP JUMP JUMPDEST PUSH1 0x0 PUSH2 0x5045 DUP3 PUSH2 0x3DA2 JUMP JUMPDEST PUSH2 0x504F DUP2 DUP6 PUSH2 0x4F09 JUMP JUMPDEST SWAP4 POP PUSH2 0x505F DUP2 DUP6 PUSH1 0x20 DUP7 ADD PUSH2 0x3DBE JUMP JUMPDEST DUP1 DUP5 ADD SWAP2 POP POP SWAP3 SWAP2 POP POP JUMP JUMPDEST PUSH1 0x0 PUSH2 0x5077 DUP3 DUP5 PUSH2 0x503A JUMP JUMPDEST SWAP2 POP DUP2 SWAP1 POP SWAP3 SWAP2 POP POP JUMP JUMPDEST PUSH1 0x0 PUSH1 0x20 PUSH1 0x1F DUP4 ADD DIV SWAP1 POP SWAP2 SWAP1 POP JUMP JUMPDEST PUSH1 0x0 DUP3 DUP3 SHL SWAP1 POP SWAP3 SWAP2 POP POP JUMP JUMPDEST PUSH1 0x0 PUSH1 0x8 DUP4 MUL PUSH2 0x50CF PUSH32 0xFFFFFFFFFFFFFFFFFFFFFFFFFFFFFFFFFFFFFFFFFFFFFFFFFFFFFFFFFFFFFFFF DUP3 PUSH2 0x5092 JUMP JUMPDEST PUSH2 0x50D9 DUP7 DUP4 PUSH2 0x5092 JUMP JUMPDEST SWAP6 POP DUP1 NOT DUP5 AND SWAP4 POP DUP1 DUP7 AND DUP5 OR SWAP3 POP POP POP SWAP4 SWAP3 POP POP POP JUMP JUMPDEST PUSH1 0x0 DUP2 SWAP1 POP SWAP2 SWAP1 POP JUMP JUMPDEST PUSH1 0x0 PUSH2 0x5116 PUSH2 0x5111 PUSH2 0x510C DUP5 PUSH2 0x3D3F JUMP JUMPDEST PUSH2 0x50F1 JUMP JUMPDEST PUSH2 0x3D3F JUMP JUMPDEST SWAP1 POP SWAP2 SWAP1 POP JUMP JUMPDEST PUSH1 0x0 DUP2 SWAP1 POP SWAP2 SWAP1 POP JUMP JUMPDEST PUSH2 0x5130 DUP4 PUSH2 0x50FB JUMP JUMPDEST PUSH2 0x5144 PUSH2 0x513C DUP3 PUSH2 0x511D JUMP JUMPDEST DUP5 DUP5 SLOAD PUSH2 0x509F JUMP JUMPDEST DUP3 SSTORE POP POP POP POP JUMP JUMPDEST PUSH1 0x0 SWAP1 JUMP JUMPDEST PUSH2 0x5159 PUSH2 0x514C JUMP JUMPDEST PUSH2 0x5164 DUP2 DUP5 DUP5 PUSH2 0x5127 JUMP JUMPDEST POP POP POP JUMP JUMPDEST JUMPDEST DUP2 DUP2 LT ISZERO PUSH2 0x5188 JUMPI PUSH2 0x517D PUSH1 0x0 DUP3 PUSH2 0x5151 JUMP JUMPDEST PUSH1 0x1 DUP2 ADD SWAP1 POP PUSH2 0x516A JUMP JUMPDEST POP POP JUMP JUMPDEST PUSH1 0x1F DUP3 GT ISZERO PUSH2 0x51CD JUMPI PUSH2 0x519E DUP2 PUSH2 0x4F14 JUMP JUMPDEST PUSH2 0x51A7 DUP5 PUSH2 0x5082 JUMP JUMPDEST DUP2 ADD PUSH1 0x20 DUP6 LT ISZERO PUSH2 0x51B6 JUMPI DUP2 SWAP1 POP JUMPDEST PUSH2 0x51CA PUSH2 0x51C2 DUP6 PUSH2 0x5082 JUMP JUMPDEST DUP4 ADD DUP3 PUSH2 0x5169 JUMP JUMPDEST POP POP JUMPDEST POP POP POP JUMP JUMPDEST PUSH1 0x0 DUP3 DUP3 SHR SWAP1 POP SWAP3 SWAP2 POP POP JUMP JUMPDEST PUSH1 0x0 PUSH2 0x51F0 PUSH1 0x0 NOT DUP5 PUSH1 0x8 MUL PUSH2 0x51D2 JUMP JUMPDEST NOT DUP1 DUP4 AND SWAP2 POP POP SWAP3 SWAP2 POP POP JUMP JUMPDEST PUSH1 0x0 PUSH2 0x5209 DUP4 DUP4 PUSH2 0x51DF JUMP JUMPDEST SWAP2 POP DUP3 PUSH1 0x2 MUL DUP3 OR SWAP1 POP SWAP3 SWAP2 POP POP JUMP JUMPDEST PUSH2 0x5222 DUP3 PUSH2 0x3DA2 JUMP JUMPDEST PUSH8 0xFFFFFFFFFFFFFFFF DUP2 GT ISZERO PUSH2 0x523B JUMPI PUSH2 0x523A PUSH2 0x439F JUMP JUMPDEST JUMPDEST PUSH2 0x5245 DUP3 SLOAD PUSH2 0x4EA9 JUMP JUMPDEST PUSH2 0x5250 DUP3 DUP3 DUP6 PUSH2 0x518C JUMP JUMPDEST PUSH1 0x0 PUSH1 0x20 SWAP1 POP PUSH1 0x1F DUP4 GT PUSH1 0x1 DUP2 EQ PUSH2 0x5283 JUMPI PUSH1 0x0 DUP5 ISZERO PUSH2 0x5271 JUMPI DUP3 DUP8 ADD MLOAD SWAP1 POP JUMPDEST PUSH2 0x527B DUP6 DUP3 PUSH2 0x51FD JUMP JUMPDEST DUP7 SSTORE POP PUSH2 0x52E3 JUMP JUMPDEST PUSH1 0x1F NOT DUP5 AND PUSH2 0x5291 DUP7 PUSH2 0x4F14 JUMP JUMPDEST PUSH1 0x0 JUMPDEST DUP3 DUP2 LT ISZERO PUSH2 0x52B9 JUMPI DUP5 DUP10 ADD MLOAD DUP3 SSTORE PUSH1 0x1 DUP3 ADD SWAP2 POP PUSH1 0x20 DUP6 ADD SWAP5 POP PUSH1 0x20 DUP2 ADD SWAP1 POP PUSH2 0x5294 JUMP JUMPDEST DUP7 DUP4 LT ISZERO PUSH2 0x52D6 JUMPI DUP5 DUP10 ADD MLOAD PUSH2 0x52D2 PUSH1 0x1F DUP10 AND DUP3 PUSH2 0x51DF JUMP JUMPDEST DUP4 SSTORE POP JUMPDEST PUSH1 0x1 PUSH1 0x2 DUP9 MUL ADD DUP9 SSTORE POP POP POP JUMPDEST POP POP POP POP POP POP JUMP JUMPDEST PUSH1 0x0 DUP2 SWAP1 POP DUP2 PUSH1 0x0 MSTORE PUSH1 0x20 PUSH1 0x0 KECCAK256 SWAP1 POP SWAP2 SWAP1 POP JUMP JUMPDEST PUSH1 0x1F DUP3 GT ISZERO PUSH2 0x5341 JUMPI PUSH2 0x5312 DUP2 PUSH2 0x52EB JUMP JUMPDEST PUSH2 0x531B DUP5 PUSH2 0x5082 JUMP JUMPDEST DUP2 ADD PUSH1 0x20 DUP6 LT ISZERO PUSH2 0x532A JUMPI DUP2 SWAP1 POP JUMPDEST PUSH2 0x533E PUSH2 0x5336 DUP6 PUSH2 0x5082 JUMP JUMPDEST DUP4 ADD DUP3 PUSH2 0x5169 JUMP JUMPDEST POP POP JUMPDEST POP POP POP JUMP JUMPDEST PUSH2 0x534F DUP3 PUSH2 0x4168 JUMP JUMPDEST PUSH8 0xFFFFFFFFFFFFFFFF DUP2 GT ISZERO PUSH2 0x5368 JUMPI PUSH2 0x5367 PUSH2 0x439F JUMP JUMPDEST JUMPDEST PUSH2 0x5372 DUP3 SLOAD PUSH2 0x4EA9 JUMP JUMPDEST PUSH2 0x537D DUP3 DUP3 DUP6 PUSH2 0x5300 JUMP JUMPDEST PUSH1 0x0 PUSH1 0x20 SWAP1 POP PUSH1 0x1F DUP4 GT PUSH1 0x1 DUP2 EQ PUSH2 0x53B0 JUMPI PUSH1 0x0 DUP5 ISZERO PUSH2 0x539E JUMPI DUP3 DUP8 ADD MLOAD SWAP1 POP JUMPDEST PUSH2 0x53A8 DUP6 DUP3 PUSH2 0x51FD JUMP JUMPDEST DUP7 SSTORE POP PUSH2 0x5410 JUMP JUMPDEST PUSH1 0x1F NOT DUP5 AND PUSH2 0x53BE DUP7 PUSH2 0x52EB JUMP JUMPDEST PUSH1 0x0 JUMPDEST DUP3 DUP2 LT ISZERO PUSH2 0x53E6 JUMPI DUP5 DUP10 ADD MLOAD DUP3 SSTORE PUSH1 0x1 DUP3 ADD SWAP2 POP PUSH1 0x20 DUP6 ADD SWAP5 POP PUSH1 0x20 DUP2 ADD SWAP1 POP PUSH2 0x53C1 JUMP JUMPDEST DUP7 DUP4 LT ISZERO PUSH2 0x5403 JUMPI DUP5 DUP10 ADD MLOAD PUSH2 0x53FF PUSH1 0x1F DUP10 AND DUP3 PUSH2 0x51DF JUMP JUMPDEST DUP4 SSTORE POP JUMPDEST PUSH1 0x1 PUSH1 0x2 DUP9 MUL ADD DUP9 SSTORE POP POP POP JUMPDEST POP POP POP POP POP POP JUMP INVALID LOG2 PUSH5 0x6970667358 0x22 SLT KECCAK256 0xC4 DUP4 DUP11 0xBC LOG2 0xC7 0x26 0x28 0xDE 0xDF ADD PUSH14 0xF683EA2FC07ACE41A342C4558D09 0x4F CODECOPY PUSH3 0x9BC6D3 PUSH5 0x736F6C6343 STOP ADDMOD SLT STOP CALLER "
				},
				"gasEstimates": {
					"creation": {
						"codeDepositCost": "4316400",
						"executionCost": "4990",
						"totalCost": "4321390"
					},
					"external": {
						"approval(string,int256,string)": "infinite",
						"bugs_arr(uint256)": "infinite",
						"deployment(string,string,bool)": "infinite",
						"features_arr(uint256)": "infinite",
						"fromAdmin(string,string,string,string[][],string[][],string[][],string[][])": "infinite",
						"getRequests()": "infinite",
						"getfromDev()": "infinite",
						"newPatches()": "infinite",
						"previousReq()": "infinite",
						"requests(string)": "infinite",
						"send_list()": "infinite",
						"submittedbyadmin()": "2560",
						"toAdmin(string,string[][],string[][])": "infinite",
						"unselectedBugs(uint256)": "infinite",
						"unselectedFeatures(uint256)": "infinite",
						"uploadedbyDev(string,string,string,string,bytes)": "infinite"
					},
					"internal": {
						"unChecked(string memory[] memory[] memory,string memory[] memory[] memory)": "infinite"
					}
				},
				"methodIdentifiers": {
					"approval(string,int256,string)": "f82e4aee",
					"bugs_arr(uint256)": "ded1166c",
					"deployment(string,string,bool)": "fd9284f1",
					"features_arr(uint256)": "5faa043d",
					"fromAdmin(string,string,string,string[][],string[][],string[][],string[][])": "912d7230",
					"getRequests()": "8813ce12",
					"getfromDev()": "303941dd",
					"newPatches()": "c97da229",
					"previousReq()": "7c0a6fc1",
					"requests(string)": "692d51d2",
					"send_list()": "b87dff89",
					"submittedbyadmin()": "88feb787",
					"toAdmin(string,string[][],string[][])": "ac0799e5",
					"unselectedBugs(uint256)": "2548d05d",
					"unselectedFeatures(uint256)": "4d1ba790",
					"uploadedbyDev(string,string,string,string,bytes)": "dba82a9c"
				}
			},
			"storageLayout": {
				"storage": [
					{
						"astId": 44,
						"contract": "complete.sol:PatchDevelopment",
						"label": "timeofRequest",
						"offset": 0,
						"slot": "0",
						"type": "t_string_storage"
					},
					{
						"astId": 48,
						"contract": "complete.sol:PatchDevelopment",
						"label": "bugs_arr",
						"offset": 0,
						"slot": "1",
						"type": "t_array(t_struct(bugReport)8_storage)dyn_storage"
					},
					{
						"astId": 52,
						"contract": "complete.sol:PatchDevelopment",
						"label": "features_arr",
						"offset": 0,
						"slot": "2",
						"type": "t_array(t_struct(featureReport)15_storage)dyn_storage"
					},
					{
						"astId": 56,
						"contract": "complete.sol:PatchDevelopment",
						"label": "unselectedBugs",
						"offset": 0,
						"slot": "3",
						"type": "t_array(t_struct(bugReport)8_storage)dyn_storage"
					},
					{
						"astId": 60,
						"contract": "complete.sol:PatchDevelopment",
						"label": "unselectedFeatures",
						"offset": 0,
						"slot": "4",
						"type": "t_array(t_struct(featureReport)15_storage)dyn_storage"
					},
					{
						"astId": 62,
						"contract": "complete.sol:PatchDevelopment",
						"label": "submittedbyadmin",
						"offset": 0,
						"slot": "5",
						"type": "t_bool"
					},
					{
						"astId": 67,
						"contract": "complete.sol:PatchDevelopment",
						"label": "requests",
						"offset": 0,
						"slot": "6",
						"type": "t_mapping(t_string_memory_ptr,t_struct(listOfBnF)42_storage)"
					},
					{
						"astId": 70,
						"contract": "complete.sol:PatchDevelopment",
						"label": "patchnames",
						"offset": 0,
						"slot": "7",
						"type": "t_array(t_string_storage)dyn_storage"
					}
				],
				"types": {
					"t_array(t_string_storage)dyn_storage": {
						"base": "t_string_storage",
						"encoding": "dynamic_array",
						"label": "string[]",
						"numberOfBytes": "32"
					},
					"t_array(t_struct(bugReport)8_storage)dyn_storage": {
						"base": "t_struct(bugReport)8_storage",
						"encoding": "dynamic_array",
						"label": "struct bugReport[]",
						"numberOfBytes": "32"
					},
					"t_array(t_struct(featureReport)15_storage)dyn_storage": {
						"base": "t_struct(featureReport)15_storage",
						"encoding": "dynamic_array",
						"label": "struct featureReport[]",
						"numberOfBytes": "32"
					},
					"t_bool": {
						"encoding": "inplace",
						"label": "bool",
						"numberOfBytes": "1"
					},
					"t_bytes_storage": {
						"encoding": "bytes",
						"label": "bytes",
						"numberOfBytes": "32"
					},
					"t_int256": {
						"encoding": "inplace",
						"label": "int256",
						"numberOfBytes": "32"
					},
					"t_mapping(t_string_memory_ptr,t_struct(listOfBnF)42_storage)": {
						"encoding": "mapping",
						"key": "t_string_memory_ptr",
						"label": "mapping(string => struct listOfBnF)",
						"numberOfBytes": "32",
						"value": "t_struct(listOfBnF)42_storage"
					},
					"t_string_memory_ptr": {
						"encoding": "bytes",
						"label": "string",
						"numberOfBytes": "32"
					},
					"t_string_storage": {
						"encoding": "bytes",
						"label": "string",
						"numberOfBytes": "32"
					},
					"t_struct(bugReport)8_storage": {
						"encoding": "inplace",
						"label": "struct bugReport",
						"members": [
							{
								"astId": 3,
								"contract": "complete.sol:PatchDevelopment",
								"label": "bugTitle",
								"offset": 0,
								"slot": "0",
								"type": "t_string_storage"
							},
							{
								"astId": 5,
								"contract": "complete.sol:PatchDevelopment",
								"label": "bugDescription",
								"offset": 0,
								"slot": "1",
								"type": "t_string_storage"
							},
							{
								"astId": 7,
								"contract": "complete.sol:PatchDevelopment",
								"label": "bugPriority",
								"offset": 0,
								"slot": "2",
								"type": "t_string_storage"
							}
						],
						"numberOfBytes": "96"
					},
					"t_struct(featureReport)15_storage": {
						"encoding": "inplace",
						"label": "struct featureReport",
						"members": [
							{
								"astId": 10,
								"contract": "complete.sol:PatchDevelopment",
								"label": "featureTitle",
								"offset": 0,
								"slot": "0",
								"type": "t_string_storage"
							},
							{
								"astId": 12,
								"contract": "complete.sol:PatchDevelopment",
								"label": "featureDescription",
								"offset": 0,
								"slot": "1",
								"type": "t_string_storage"
							},
							{
								"astId": 14,
								"contract": "complete.sol:PatchDevelopment",
								"label": "featurePriority",
								"offset": 0,
								"slot": "2",
								"type": "t_string_storage"
							}
						],
						"numberOfBytes": "96"
					},
					"t_struct(listOfBnF)42_storage": {
						"encoding": "inplace",
						"label": "struct listOfBnF",
						"members": [
							{
								"astId": 17,
								"contract": "complete.sol:PatchDevelopment",
								"label": "timeofReport",
								"offset": 0,
								"slot": "0",
								"type": "t_string_storage"
							},
							{
								"astId": 19,
								"contract": "complete.sol:PatchDevelopment",
								"label": "patchName",
								"offset": 0,
								"slot": "1",
								"type": "t_string_storage"
							},
							{
								"astId": 21,
								"contract": "complete.sol:PatchDevelopment",
								"label": "patchDescription",
								"offset": 0,
								"slot": "2",
								"type": "t_string_storage"
							},
							{
								"astId": 23,
								"contract": "complete.sol:PatchDevelopment",
								"label": "vno",
								"offset": 0,
								"slot": "3",
								"type": "t_string_storage"
							},
							{
								"astId": 27,
								"contract": "complete.sol:PatchDevelopment",
								"label": "bugRequest",
								"offset": 0,
								"slot": "4",
								"type": "t_array(t_struct(bugReport)8_storage)dyn_storage"
							},
							{
								"astId": 31,
								"contract": "complete.sol:PatchDevelopment",
								"label": "featureRequest",
								"offset": 0,
								"slot": "5",
								"type": "t_array(t_struct(featureReport)15_storage)dyn_storage"
							},
							{
								"astId": 33,
								"contract": "complete.sol:PatchDevelopment",
								"label": "deployed",
								"offset": 0,
								"slot": "6",
								"type": "t_bool"
							},
							{
								"astId": 35,
								"contract": "complete.sol:PatchDevelopment",
								"label": "uploaded",
								"offset": 0,
								"slot": "7",
								"type": "t_int256"
							},
							{
								"astId": 37,
								"contract": "complete.sol:PatchDevelopment",
								"label": "approved",
								"offset": 0,
								"slot": "8",
								"type": "t_int256"
							},
							{
								"astId": 39,
								"contract": "complete.sol:PatchDevelopment",
								"label": "filename",
								"offset": 0,
								"slot": "9",
								"type": "t_string_storage"
							},
							{
								"astId": 41,
								"contract": "complete.sol:PatchDevelopment",
								"label": "patch",
								"offset": 0,
								"slot": "10",
								"type": "t_bytes_storage"
							}
						],
						"numberOfBytes": "352"
					}
				}
			},
			"userdoc": {
				"kind": "user",
				"methods": {},
				"version": 1
			}
		}
	}
}