{
	"fromAdmin.sol": {
		"ToAdmin": {
			"abi": [
				{
					"inputs": [
						{
							"internalType": "string",
							"name": "time_rn",
							"type": "string"
						},
						{
							"internalType": "int256",
							"name": "status",
							"type": "int256"
						},
						{
							"internalType": "string",
							"name": "time_ofdev",
							"type": "string"
						}
					],
					"name": "approval",
					"outputs": [],
					"stateMutability": "nonpayable",
					"type": "function"
				},
				{
					"inputs": [
						{
							"internalType": "string",
							"name": "",
							"type": "string"
						}
					],
					"name": "developer",
					"outputs": [
						{
							"internalType": "string",
							"name": "timeofReport",
							"type": "string"
						},
						{
							"internalType": "string",
							"name": "patchName",
							"type": "string"
						},
						{
							"internalType": "string",
							"name": "vno",
							"type": "string"
						},
						{
							"internalType": "bool",
							"name": "deployed",
							"type": "bool"
						},
						{
							"internalType": "int256",
							"name": "uploaded",
							"type": "int256"
						},
						{
							"internalType": "int256",
							"name": "approved",
							"type": "int256"
						},
						{
							"internalType": "bytes",
							"name": "patch",
							"type": "bytes"
						}
					],
					"stateMutability": "view",
					"type": "function"
				},
				{
					"inputs": [
						{
							"internalType": "string",
							"name": "time_rn",
							"type": "string"
						},
						{
							"internalType": "string",
							"name": "pname",
							"type": "string"
						},
						{
							"internalType": "string[][]",
							"name": "bugs",
							"type": "string[][]"
						},
						{
							"internalType": "string[][]",
							"name": "features",
							"type": "string[][]"
						}
					],
					"name": "fromAdmin",
					"outputs": [],
					"stateMutability": "nonpayable",
					"type": "function"
				},
				{
					"inputs": [],
					"name": "getRequests",
					"outputs": [
						{
							"components": [
								{
									"internalType": "string",
									"name": "timeofReport",
									"type": "string"
								},
								{
									"internalType": "string",
									"name": "patchName",
									"type": "string"
								},
								{
									"internalType": "string",
									"name": "vno",
									"type": "string"
								},
								{
									"components": [
										{
											"internalType": "string",
											"name": "bugTitle",
											"type": "string"
										},
										{
											"internalType": "string",
											"name": "bugDescription",
											"type": "string"
										},
										{
											"internalType": "string",
											"name": "bugPriority",
											"type": "string"
										}
									],
									"internalType": "struct bugReport[]",
									"name": "bugRequest",
									"type": "tuple[]"
								},
								{
									"components": [
										{
											"internalType": "string",
											"name": "featureTitle",
											"type": "string"
										},
										{
											"internalType": "string",
											"name": "featureDescription",
											"type": "string"
										},
										{
											"internalType": "string",
											"name": "featurePriority",
											"type": "string"
										}
									],
									"internalType": "struct featureReport[]",
									"name": "featureRequest",
									"type": "tuple[]"
								},
								{
									"internalType": "bool",
									"name": "deployed",
									"type": "bool"
								},
								{
									"internalType": "int256",
									"name": "uploaded",
									"type": "int256"
								},
								{
									"internalType": "int256",
									"name": "approved",
									"type": "int256"
								},
								{
									"internalType": "bytes",
									"name": "patch",
									"type": "bytes"
								}
							],
							"internalType": "struct listOfBnF[]",
							"name": "",
							"type": "tuple[]"
						}
					],
					"stateMutability": "view",
					"type": "function"
				},
				{
					"inputs": [],
					"name": "getfromDev",
					"outputs": [
						{
							"components": [
								{
									"internalType": "string",
									"name": "timeofReport",
									"type": "string"
								},
								{
									"internalType": "string",
									"name": "patchName",
									"type": "string"
								},
								{
									"internalType": "string",
									"name": "vno",
									"type": "string"
								},
								{
									"components": [
										{
											"internalType": "string",
											"name": "bugTitle",
											"type": "string"
										},
										{
											"internalType": "string",
											"name": "bugDescription",
											"type": "string"
										},
										{
											"internalType": "string",
											"name": "bugPriority",
											"type": "string"
										}
									],
									"internalType": "struct bugReport[]",
									"name": "bugRequest",
									"type": "tuple[]"
								},
								{
									"components": [
										{
											"internalType": "string",
											"name": "featureTitle",
											"type": "string"
										},
										{
											"internalType": "string",
											"name": "featureDescription",
											"type": "string"
										},
										{
											"internalType": "string",
											"name": "featurePriority",
											"type": "string"
										}
									],
									"internalType": "struct featureReport[]",
									"name": "featureRequest",
									"type": "tuple[]"
								},
								{
									"internalType": "bool",
									"name": "deployed",
									"type": "bool"
								},
								{
									"internalType": "int256",
									"name": "uploaded",
									"type": "int256"
								},
								{
									"internalType": "int256",
									"name": "approved",
									"type": "int256"
								},
								{
									"internalType": "bytes",
									"name": "patch",
									"type": "bytes"
								}
							],
							"internalType": "struct listOfBnF[]",
							"name": "",
							"type": "tuple[]"
						}
					],
					"stateMutability": "view",
					"type": "function"
				},
				{
					"inputs": [
						{
							"internalType": "string",
							"name": "",
							"type": "string"
						}
					],
					"name": "requests",
					"outputs": [
						{
							"internalType": "string",
							"name": "timeofReport",
							"type": "string"
						},
						{
							"internalType": "string",
							"name": "patchName",
							"type": "string"
						},
						{
							"internalType": "string",
							"name": "vno",
							"type": "string"
						},
						{
							"internalType": "bool",
							"name": "deployed",
							"type": "bool"
						},
						{
							"internalType": "int256",
							"name": "uploaded",
							"type": "int256"
						},
						{
							"internalType": "int256",
							"name": "approved",
							"type": "int256"
						},
						{
							"internalType": "bytes",
							"name": "patch",
							"type": "bytes"
						}
					],
					"stateMutability": "view",
					"type": "function"
				},
				{
					"inputs": [
						{
							"internalType": "string",
							"name": "time_rn",
							"type": "string"
						},
						{
							"internalType": "string",
							"name": "pname",
							"type": "string"
						},
						{
							"internalType": "string",
							"name": "ver",
							"type": "string"
						},
						{
							"internalType": "string[][]",
							"name": "bugs",
							"type": "string[][]"
						},
						{
							"internalType": "string[][]",
							"name": "features",
							"type": "string[][]"
						},
						{
							"internalType": "string[][]",
							"name": "bugsUn",
							"type": "string[][]"
						},
						{
							"internalType": "string[][]",
							"name": "featuresUn",
							"type": "string[][]"
						},
						{
							"internalType": "bytes",
							"name": "_patch",
							"type": "bytes"
						}
					],
					"name": "uploadedbyDev",
					"outputs": [],
					"stateMutability": "nonpayable",
					"type": "function"
				}
			],
			"devdoc": {
				"kind": "dev",
				"methods": {},
				"version": 1
			},
			"evm": {
				"assembly": "    /* \"fromAdmin.sol\":523:3752  contract ToAdmin {... */\n  mstore(0x40, 0x80)\n  callvalue\n  dup1\n  iszero\n  tag_1\n  jumpi\n  0x00\n  dup1\n  revert\ntag_1:\n  pop\n  dataSize(sub_0)\n  dup1\n  dataOffset(sub_0)\n  0x00\n  codecopy\n  0x00\n  return\nstop\n\nsub_0: assembly {\n        /* \"fromAdmin.sol\":523:3752  contract ToAdmin {... */\n      mstore(0x40, 0x80)\n      callvalue\n      dup1\n      iszero\n      tag_1\n      jumpi\n      0x00\n      dup1\n      revert\n    tag_1:\n      pop\n      jumpi(tag_2, lt(calldatasize, 0x04))\n      shr(0xe0, calldataload(0x00))\n      dup1\n      0x692d51d2\n      gt\n      tag_10\n      jumpi\n      dup1\n      0x692d51d2\n      eq\n      tag_6\n      jumpi\n      dup1\n      0x8813ce12\n      eq\n      tag_7\n      jumpi\n      dup1\n      0xd7428bc7\n      eq\n      tag_8\n      jumpi\n      dup1\n      0xf82e4aee\n      eq\n      tag_9\n      jumpi\n      jump(tag_2)\n    tag_10:\n      dup1\n      0x09129dee\n      eq\n      tag_3\n      jumpi\n      dup1\n      0x303941dd\n      eq\n      tag_4\n      jumpi\n      dup1\n      0x4b006240\n      eq\n      tag_5\n      jumpi\n    tag_2:\n      0x00\n      dup1\n      revert\n        /* \"fromAdmin.sol\":590:635  mapping(string => listOfBnF) public developer */\n    tag_3:\n      tag_11\n      0x04\n      dup1\n      calldatasize\n      sub\n      dup2\n      add\n      swap1\n      tag_12\n      swap2\n      swap1\n      tag_13\n      jump\t// in\n    tag_12:\n      tag_14\n      jump\t// in\n    tag_11:\n      mload(0x40)\n      tag_15\n      swap8\n      swap7\n      swap6\n      swap5\n      swap4\n      swap3\n      swap2\n      swap1\n      tag_16\n      jump\t// in\n    tag_15:\n      mload(0x40)\n      dup1\n      swap2\n      sub\n      swap1\n      return\n        /* \"fromAdmin.sol\":3171:3443  function getfromDev() public view returns (listOfBnF[] memory) {... */\n    tag_4:\n      tag_17\n      tag_18\n      jump\t// in\n    tag_17:\n      mload(0x40)\n      tag_19\n      swap2\n      swap1\n      tag_20\n      jump\t// in\n    tag_19:\n      mload(0x40)\n      dup1\n      swap2\n      sub\n      swap1\n      return\n        /* \"fromAdmin.sol\":2003:3105  function uploadedbyDev(string memory time_rn, string memory pname, string memory ver, string[][] memory bugs, string[][] memory features, string[][] memory bugsUn, string[][] memory featuresUn, bytes memory _patch) public{... */\n    tag_5:\n      tag_21\n      0x04\n      dup1\n      calldatasize\n      sub\n      dup2\n      add\n      swap1\n      tag_22\n      swap2\n      swap1\n      tag_23\n      jump\t// in\n    tag_22:\n      tag_24\n      jump\t// in\n    tag_21:\n      stop\n        /* \"fromAdmin.sol\":543:587  mapping(string => listOfBnF) public requests */\n    tag_6:\n      tag_25\n      0x04\n      dup1\n      calldatasize\n      sub\n      dup2\n      add\n      swap1\n      tag_26\n      swap2\n      swap1\n      tag_13\n      jump\t// in\n    tag_26:\n      tag_27\n      jump\t// in\n    tag_25:\n      mload(0x40)\n      tag_28\n      swap8\n      swap7\n      swap6\n      swap5\n      swap4\n      swap3\n      swap2\n      swap1\n      tag_16\n      jump\t// in\n    tag_28:\n      mload(0x40)\n      dup1\n      swap2\n      sub\n      swap1\n      return\n        /* \"fromAdmin.sol\":1674:1952  function getRequests() public view returns (listOfBnF[] memory) {... */\n    tag_7:\n      tag_29\n      tag_30\n      jump\t// in\n    tag_29:\n      mload(0x40)\n      tag_31\n      swap2\n      swap1\n      tag_20\n      jump\t// in\n    tag_31:\n      mload(0x40)\n      dup1\n      swap2\n      sub\n      swap1\n      return\n        /* \"fromAdmin.sol\":744:1603  function fromAdmin(string memory time_rn, string memory pname, string[][] memory bugs, string[][] memory features) public {... */\n    tag_8:\n      tag_32\n      0x04\n      dup1\n      calldatasize\n      sub\n      dup2\n      add\n      swap1\n      tag_33\n      swap2\n      swap1\n      tag_34\n      jump\t// in\n    tag_33:\n      tag_35\n      jump\t// in\n    tag_32:\n      stop\n        /* \"fromAdmin.sol\":3478:3726  function approval(string memory time_rn, int status, string memory time_ofdev) public{... */\n    tag_9:\n      tag_36\n      0x04\n      dup1\n      calldatasize\n      sub\n      dup2\n      add\n      swap1\n      tag_37\n      swap2\n      swap1\n      tag_38\n      jump\t// in\n    tag_37:\n      tag_39\n      jump\t// in\n    tag_36:\n      stop\n        /* \"fromAdmin.sol\":590:635  mapping(string => listOfBnF) public developer */\n    tag_14:\n      0x01\n      dup2\n      dup1\n      mload\n      0x20\n      dup2\n      add\n      dup3\n      add\n      dup1\n      mload\n      dup5\n      dup3\n      mstore\n      0x20\n      dup4\n      add\n      0x20\n      dup6\n      add\n      keccak256\n      dup2\n      dup4\n      mstore\n      dup1\n      swap6\n      pop\n      pop\n      pop\n      pop\n      pop\n      pop\n      0x00\n      swap2\n      pop\n      swap1\n      pop\n      dup1\n      0x00\n      add\n      dup1\n      sload\n      tag_40\n      swap1\n      tag_41\n      jump\t// in\n    tag_40:\n      dup1\n      0x1f\n      add\n      0x20\n      dup1\n      swap2\n      div\n      mul\n      0x20\n      add\n      mload(0x40)\n      swap1\n      dup2\n      add\n      0x40\n      mstore\n      dup1\n      swap3\n      swap2\n      swap1\n      dup2\n      dup2\n      mstore\n      0x20\n      add\n      dup3\n      dup1\n      sload\n      tag_42\n      swap1\n      tag_41\n      jump\t// in\n    tag_42:\n      dup1\n      iszero\n      tag_43\n      jumpi\n      dup1\n      0x1f\n      lt\n      tag_44\n      jumpi\n      0x0100\n      dup1\n      dup4\n      sload\n      div\n      mul\n      dup4\n      mstore\n      swap2\n      0x20\n      add\n      swap2\n      jump(tag_43)\n    tag_44:\n      dup3\n      add\n      swap2\n      swap1\n      0x00\n      mstore\n      keccak256(0x00, 0x20)\n      swap1\n    tag_45:\n      dup2\n      sload\n      dup2\n      mstore\n      swap1\n      0x01\n      add\n      swap1\n      0x20\n      add\n      dup1\n      dup4\n      gt\n      tag_45\n      jumpi\n      dup3\n      swap1\n      sub\n      0x1f\n      and\n      dup3\n      add\n      swap2\n    tag_43:\n      pop\n      pop\n      pop\n      pop\n      pop\n      swap1\n      dup1\n      0x01\n      add\n      dup1\n      sload\n      tag_46\n      swap1\n      tag_41\n      jump\t// in\n    tag_46:\n      dup1\n      0x1f\n      add\n      0x20\n      dup1\n      swap2\n      div\n      mul\n      0x20\n      add\n      mload(0x40)\n      swap1\n      dup2\n      add\n      0x40\n      mstore\n      dup1\n      swap3\n      swap2\n      swap1\n      dup2\n      dup2\n      mstore\n      0x20\n      add\n      dup3\n      dup1\n      sload\n      tag_47\n      swap1\n      tag_41\n      jump\t// in\n    tag_47:\n      dup1\n      iszero\n      tag_48\n      jumpi\n      dup1\n      0x1f\n      lt\n      tag_49\n      jumpi\n      0x0100\n      dup1\n      dup4\n      sload\n      div\n      mul\n      dup4\n      mstore\n      swap2\n      0x20\n      add\n      swap2\n      jump(tag_48)\n    tag_49:\n      dup3\n      add\n      swap2\n      swap1\n      0x00\n      mstore\n      keccak256(0x00, 0x20)\n      swap1\n    tag_50:\n      dup2\n      sload\n      dup2\n      mstore\n      swap1\n      0x01\n      add\n      swap1\n      0x20\n      add\n      dup1\n      dup4\n      gt\n      tag_50\n      jumpi\n      dup3\n      swap1\n      sub\n      0x1f\n      and\n      dup3\n      add\n      swap2\n    tag_48:\n      pop\n      pop\n      pop\n      pop\n      pop\n      swap1\n      dup1\n      0x02\n      add\n      dup1\n      sload\n      tag_51\n      swap1\n      tag_41\n      jump\t// in\n    tag_51:\n      dup1\n      0x1f\n      add\n      0x20\n      dup1\n      swap2\n      div\n      mul\n      0x20\n      add\n      mload(0x40)\n      swap1\n      dup2\n      add\n      0x40\n      mstore\n      dup1\n      swap3\n      swap2\n      swap1\n      dup2\n      dup2\n      mstore\n      0x20\n      add\n      dup3\n      dup1\n      sload\n      tag_52\n      swap1\n      tag_41\n      jump\t// in\n    tag_52:\n      dup1\n      iszero\n      tag_53\n      jumpi\n      dup1\n      0x1f\n      lt\n      tag_54\n      jumpi\n      0x0100\n      dup1\n      dup4\n      sload\n      div\n      mul\n      dup4\n      mstore\n      swap2\n      0x20\n      add\n      swap2\n      jump(tag_53)\n    tag_54:\n      dup3\n      add\n      swap2\n      swap1\n      0x00\n      mstore\n      keccak256(0x00, 0x20)\n      swap1\n    tag_55:\n      dup2\n      sload\n      dup2\n      mstore\n      swap1\n      0x01\n      add\n      swap1\n      0x20\n      add\n      dup1\n      dup4\n      gt\n      tag_55\n      jumpi\n      dup3\n      swap1\n      sub\n      0x1f\n      and\n      dup3\n      add\n      swap2\n    tag_53:\n      pop\n      pop\n      pop\n      pop\n      pop\n      swap1\n      dup1\n      0x05\n      add\n      0x00\n      swap1\n      sload\n      swap1\n      0x0100\n      exp\n      swap1\n      div\n      0xff\n      and\n      swap1\n      dup1\n      0x06\n      add\n      sload\n      swap1\n      dup1\n      0x07\n      add\n      sload\n      swap1\n      dup1\n      0x08\n      add\n      dup1\n      sload\n      tag_56\n      swap1\n      tag_41\n      jump\t// in\n    tag_56:\n      dup1\n      0x1f\n      add\n      0x20\n      dup1\n      swap2\n      div\n      mul\n      0x20\n      add\n      mload(0x40)\n      swap1\n      dup2\n      add\n      0x40\n      mstore\n      dup1\n      swap3\n      swap2\n      swap1\n      dup2\n      dup2\n      mstore\n      0x20\n      add\n      dup3\n      dup1\n      sload\n      tag_57\n      swap1\n      tag_41\n      jump\t// in\n    tag_57:\n      dup1\n      iszero\n      tag_58\n      jumpi\n      dup1\n      0x1f\n      lt\n      tag_59\n      jumpi\n      0x0100\n      dup1\n      dup4\n      sload\n      div\n      mul\n      dup4\n      mstore\n      swap2\n      0x20\n      add\n      swap2\n      jump(tag_58)\n    tag_59:\n      dup3\n      add\n      swap2\n      swap1\n      0x00\n      mstore\n      keccak256(0x00, 0x20)\n      swap1\n    tag_60:\n      dup2\n      sload\n      dup2\n      mstore\n      swap1\n      0x01\n      add\n      swap1\n      0x20\n      add\n      dup1\n      dup4\n      gt\n      tag_60\n      jumpi\n      dup3\n      swap1\n      sub\n      0x1f\n      and\n      dup3\n      add\n      swap2\n    tag_58:\n      pop\n      pop\n      pop\n      pop\n      pop\n      swap1\n      pop\n      dup8\n      jump\t// out\n        /* \"fromAdmin.sol\":3171:3443  function getfromDev() public view returns (listOfBnF[] memory) {... */\n    tag_18:\n        /* \"fromAdmin.sol\":3214:3232  listOfBnF[] memory */\n      0x60\n        /* \"fromAdmin.sol\":3245:3270  listOfBnF[] memory result */\n      0x00\n        /* \"fromAdmin.sol\":3289:3292  dev */\n      0x03\n        /* \"fromAdmin.sol\":3289:3299  dev.length */\n      dup1\n      sload\n      swap1\n      pop\n        /* \"fromAdmin.sol\":3273:3300  new listOfBnF[](dev.length) */\n      0xffffffffffffffff\n      dup2\n      gt\n      iszero\n      tag_62\n      jumpi\n      tag_63\n      tag_64\n      jump\t// in\n    tag_63:\n    tag_62:\n      mload(0x40)\n      swap1\n      dup1\n      dup3\n      mstore\n      dup1\n      0x20\n      mul\n      0x20\n      add\n      dup3\n      add\n      0x40\n      mstore\n      dup1\n      iszero\n      tag_65\n      jumpi\n      dup2\n      0x20\n      add\n    tag_66:\n      tag_67\n      tag_68\n      jump\t// in\n    tag_67:\n      dup2\n      mstore\n      0x20\n      add\n      swap1\n      0x01\n      swap1\n      sub\n      swap1\n      dup2\n      tag_66\n      jumpi\n      swap1\n      pop\n    tag_65:\n      pop\n        /* \"fromAdmin.sol\":3245:3300  listOfBnF[] memory result = new listOfBnF[](dev.length) */\n      swap1\n      pop\n        /* \"fromAdmin.sol\":3318:3324  uint i */\n      0x00\n        /* \"fromAdmin.sol\":3313:3410  for (uint i = 0; i < dev.length; i++) {   ... */\n    tag_69:\n        /* \"fromAdmin.sol\":3334:3337  dev */\n      0x03\n        /* \"fromAdmin.sol\":3334:3344  dev.length */\n      dup1\n      sload\n      swap1\n      pop\n        /* \"fromAdmin.sol\":3330:3331  i */\n      dup2\n        /* \"fromAdmin.sol\":3330:3344  i < dev.length */\n      lt\n        /* \"fromAdmin.sol\":3313:3410  for (uint i = 0; i < dev.length; i++) {   ... */\n      iszero\n      tag_70\n      jumpi\n        /* \"fromAdmin.sol\":3381:3390  developer */\n      0x01\n        /* \"fromAdmin.sol\":3391:3394  dev */\n      0x03\n        /* \"fromAdmin.sol\":3395:3396  i */\n      dup3\n        /* \"fromAdmin.sol\":3391:3397  dev[i] */\n      dup2\n      sload\n      dup2\n      lt\n      tag_72\n      jumpi\n      tag_73\n      tag_74\n      jump\t// in\n    tag_73:\n    tag_72:\n      swap1\n      0x00\n      mstore\n      keccak256(0x00, 0x20)\n      add\n        /* \"fromAdmin.sol\":3381:3398  developer[dev[i]] */\n      mload(0x40)\n      tag_76\n      swap2\n      swap1\n      tag_77\n      jump\t// in\n    tag_76:\n      swap1\n      dup2\n      mstore\n      0x20\n      add\n      mload(0x40)\n      dup1\n      swap2\n      sub\n      swap1\n      keccak256\n        /* \"fromAdmin.sol\":3369:3398  result[i] = developer[dev[i]] */\n      mload(0x40)\n      dup1\n      0x0120\n      add\n      0x40\n      mstore\n      swap1\n      dup2\n      0x00\n      dup3\n      add\n      dup1\n      sload\n      tag_78\n      swap1\n      tag_41\n      jump\t// in\n    tag_78:\n      dup1\n      0x1f\n      add\n      0x20\n      dup1\n      swap2\n      div\n      mul\n      0x20\n      add\n      mload(0x40)\n      swap1\n      dup2\n      add\n      0x40\n      mstore\n      dup1\n      swap3\n      swap2\n      swap1\n      dup2\n      dup2\n      mstore\n      0x20\n      add\n      dup3\n      dup1\n      sload\n      tag_79\n      swap1\n      tag_41\n      jump\t// in\n    tag_79:\n      dup1\n      iszero\n      tag_80\n      jumpi\n      dup1\n      0x1f\n      lt\n      tag_81\n      jumpi\n      0x0100\n      dup1\n      dup4\n      sload\n      div\n      mul\n      dup4\n      mstore\n      swap2\n      0x20\n      add\n      swap2\n      jump(tag_80)\n    tag_81:\n      dup3\n      add\n      swap2\n      swap1\n      0x00\n      mstore\n      keccak256(0x00, 0x20)\n      swap1\n    tag_82:\n      dup2\n      sload\n      dup2\n      mstore\n      swap1\n      0x01\n      add\n      swap1\n      0x20\n      add\n      dup1\n      dup4\n      gt\n      tag_82\n      jumpi\n      dup3\n      swap1\n      sub\n      0x1f\n      and\n      dup3\n      add\n      swap2\n    tag_80:\n      pop\n      pop\n      pop\n      pop\n      pop\n      dup2\n      mstore\n      0x20\n      add\n      0x01\n      dup3\n      add\n      dup1\n      sload\n      tag_83\n      swap1\n      tag_41\n      jump\t// in\n    tag_83:\n      dup1\n      0x1f\n      add\n      0x20\n      dup1\n      swap2\n      div\n      mul\n      0x20\n      add\n      mload(0x40)\n      swap1\n      dup2\n      add\n      0x40\n      mstore\n      dup1\n      swap3\n      swap2\n      swap1\n      dup2\n      dup2\n      mstore\n      0x20\n      add\n      dup3\n      dup1\n      sload\n      tag_84\n      swap1\n      tag_41\n      jump\t// in\n    tag_84:\n      dup1\n      iszero\n      tag_85\n      jumpi\n      dup1\n      0x1f\n      lt\n      tag_86\n      jumpi\n      0x0100\n      dup1\n      dup4\n      sload\n      div\n      mul\n      dup4\n      mstore\n      swap2\n      0x20\n      add\n      swap2\n      jump(tag_85)\n    tag_86:\n      dup3\n      add\n      swap2\n      swap1\n      0x00\n      mstore\n      keccak256(0x00, 0x20)\n      swap1\n    tag_87:\n      dup2\n      sload\n      dup2\n      mstore\n      swap1\n      0x01\n      add\n      swap1\n      0x20\n      add\n      dup1\n      dup4\n      gt\n      tag_87\n      jumpi\n      dup3\n      swap1\n      sub\n      0x1f\n      and\n      dup3\n      add\n      swap2\n    tag_85:\n      pop\n      pop\n      pop\n      pop\n      pop\n      dup2\n      mstore\n      0x20\n      add\n      0x02\n      dup3\n      add\n      dup1\n      sload\n      tag_88\n      swap1\n      tag_41\n      jump\t// in\n    tag_88:\n      dup1\n      0x1f\n      add\n      0x20\n      dup1\n      swap2\n      div\n      mul\n      0x20\n      add\n      mload(0x40)\n      swap1\n      dup2\n      add\n      0x40\n      mstore\n      dup1\n      swap3\n      swap2\n      swap1\n      dup2\n      dup2\n      mstore\n      0x20\n      add\n      dup3\n      dup1\n      sload\n      tag_89\n      swap1\n      tag_41\n      jump\t// in\n    tag_89:\n      dup1\n      iszero\n      tag_90\n      jumpi\n      dup1\n      0x1f\n      lt\n      tag_91\n      jumpi\n      0x0100\n      dup1\n      dup4\n      sload\n      div\n      mul\n      dup4\n      mstore\n      swap2\n      0x20\n      add\n      swap2\n      jump(tag_90)\n    tag_91:\n      dup3\n      add\n      swap2\n      swap1\n      0x00\n      mstore\n      keccak256(0x00, 0x20)\n      swap1\n    tag_92:\n      dup2\n      sload\n      dup2\n      mstore\n      swap1\n      0x01\n      add\n      swap1\n      0x20\n      add\n      dup1\n      dup4\n      gt\n      tag_92\n      jumpi\n      dup3\n      swap1\n      sub\n      0x1f\n      and\n      dup3\n      add\n      swap2\n    tag_90:\n      pop\n      pop\n      pop\n      pop\n      pop\n      dup2\n      mstore\n      0x20\n      add\n      0x03\n      dup3\n      add\n      dup1\n      sload\n      dup1\n      0x20\n      mul\n      0x20\n      add\n      mload(0x40)\n      swap1\n      dup2\n      add\n      0x40\n      mstore\n      dup1\n      swap3\n      swap2\n      swap1\n      dup2\n      dup2\n      mstore\n      0x20\n      add\n      0x00\n      swap1\n    tag_93:\n      dup3\n      dup3\n      lt\n      iszero\n      tag_94\n      jumpi\n      dup4\n      dup3\n      swap1\n      0x00\n      mstore\n      keccak256(0x00, 0x20)\n      swap1\n      0x03\n      mul\n      add\n      mload(0x40)\n      dup1\n      0x60\n      add\n      0x40\n      mstore\n      swap1\n      dup2\n      0x00\n      dup3\n      add\n      dup1\n      sload\n      tag_96\n      swap1\n      tag_41\n      jump\t// in\n    tag_96:\n      dup1\n      0x1f\n      add\n      0x20\n      dup1\n      swap2\n      div\n      mul\n      0x20\n      add\n      mload(0x40)\n      swap1\n      dup2\n      add\n      0x40\n      mstore\n      dup1\n      swap3\n      swap2\n      swap1\n      dup2\n      dup2\n      mstore\n      0x20\n      add\n      dup3\n      dup1\n      sload\n      tag_97\n      swap1\n      tag_41\n      jump\t// in\n    tag_97:\n      dup1\n      iszero\n      tag_98\n      jumpi\n      dup1\n      0x1f\n      lt\n      tag_99\n      jumpi\n      0x0100\n      dup1\n      dup4\n      sload\n      div\n      mul\n      dup4\n      mstore\n      swap2\n      0x20\n      add\n      swap2\n      jump(tag_98)\n    tag_99:\n      dup3\n      add\n      swap2\n      swap1\n      0x00\n      mstore\n      keccak256(0x00, 0x20)\n      swap1\n    tag_100:\n      dup2\n      sload\n      dup2\n      mstore\n      swap1\n      0x01\n      add\n      swap1\n      0x20\n      add\n      dup1\n      dup4\n      gt\n      tag_100\n      jumpi\n      dup3\n      swap1\n      sub\n      0x1f\n      and\n      dup3\n      add\n      swap2\n    tag_98:\n      pop\n      pop\n      pop\n      pop\n      pop\n      dup2\n      mstore\n      0x20\n      add\n      0x01\n      dup3\n      add\n      dup1\n      sload\n      tag_101\n      swap1\n      tag_41\n      jump\t// in\n    tag_101:\n      dup1\n      0x1f\n      add\n      0x20\n      dup1\n      swap2\n      div\n      mul\n      0x20\n      add\n      mload(0x40)\n      swap1\n      dup2\n      add\n      0x40\n      mstore\n      dup1\n      swap3\n      swap2\n      swap1\n      dup2\n      dup2\n      mstore\n      0x20\n      add\n      dup3\n      dup1\n      sload\n      tag_102\n      swap1\n      tag_41\n      jump\t// in\n    tag_102:\n      dup1\n      iszero\n      tag_103\n      jumpi\n      dup1\n      0x1f\n      lt\n      tag_104\n      jumpi\n      0x0100\n      dup1\n      dup4\n      sload\n      div\n      mul\n      dup4\n      mstore\n      swap2\n      0x20\n      add\n      swap2\n      jump(tag_103)\n    tag_104:\n      dup3\n      add\n      swap2\n      swap1\n      0x00\n      mstore\n      keccak256(0x00, 0x20)\n      swap1\n    tag_105:\n      dup2\n      sload\n      dup2\n      mstore\n      swap1\n      0x01\n      add\n      swap1\n      0x20\n      add\n      dup1\n      dup4\n      gt\n      tag_105\n      jumpi\n      dup3\n      swap1\n      sub\n      0x1f\n      and\n      dup3\n      add\n      swap2\n    tag_103:\n      pop\n      pop\n      pop\n      pop\n      pop\n      dup2\n      mstore\n      0x20\n      add\n      0x02\n      dup3\n      add\n      dup1\n      sload\n      tag_106\n      swap1\n      tag_41\n      jump\t// in\n    tag_106:\n      dup1\n      0x1f\n      add\n      0x20\n      dup1\n      swap2\n      div\n      mul\n      0x20\n      add\n      mload(0x40)\n      swap1\n      dup2\n      add\n      0x40\n      mstore\n      dup1\n      swap3\n      swap2\n      swap1\n      dup2\n      dup2\n      mstore\n      0x20\n      add\n      dup3\n      dup1\n      sload\n      tag_107\n      swap1\n      tag_41\n      jump\t// in\n    tag_107:\n      dup1\n      iszero\n      tag_108\n      jumpi\n      dup1\n      0x1f\n      lt\n      tag_109\n      jumpi\n      0x0100\n      dup1\n      dup4\n      sload\n      div\n      mul\n      dup4\n      mstore\n      swap2\n      0x20\n      add\n      swap2\n      jump(tag_108)\n    tag_109:\n      dup3\n      add\n      swap2\n      swap1\n      0x00\n      mstore\n      keccak256(0x00, 0x20)\n      swap1\n    tag_110:\n      dup2\n      sload\n      dup2\n      mstore\n      swap1\n      0x01\n      add\n      swap1\n      0x20\n      add\n      dup1\n      dup4\n      gt\n      tag_110\n      jumpi\n      dup3\n      swap1\n      sub\n      0x1f\n      and\n      dup3\n      add\n      swap2\n    tag_108:\n      pop\n      pop\n      pop\n      pop\n      pop\n      dup2\n      mstore\n      pop\n      pop\n      dup2\n      mstore\n      0x20\n      add\n      swap1\n      0x01\n      add\n      swap1\n      jump(tag_93)\n    tag_94:\n      pop\n      pop\n      pop\n      pop\n      dup2\n      mstore\n      0x20\n      add\n      0x04\n      dup3\n      add\n      dup1\n      sload\n      dup1\n      0x20\n      mul\n      0x20\n      add\n      mload(0x40)\n      swap1\n      dup2\n      add\n      0x40\n      mstore\n      dup1\n      swap3\n      swap2\n      swap1\n      dup2\n      dup2\n      mstore\n      0x20\n      add\n      0x00\n      swap1\n    tag_111:\n      dup3\n      dup3\n      lt\n      iszero\n      tag_112\n      jumpi\n      dup4\n      dup3\n      swap1\n      0x00\n      mstore\n      keccak256(0x00, 0x20)\n      swap1\n      0x03\n      mul\n      add\n      mload(0x40)\n      dup1\n      0x60\n      add\n      0x40\n      mstore\n      swap1\n      dup2\n      0x00\n      dup3\n      add\n      dup1\n      sload\n      tag_114\n      swap1\n      tag_41\n      jump\t// in\n    tag_114:\n      dup1\n      0x1f\n      add\n      0x20\n      dup1\n      swap2\n      div\n      mul\n      0x20\n      add\n      mload(0x40)\n      swap1\n      dup2\n      add\n      0x40\n      mstore\n      dup1\n      swap3\n      swap2\n      swap1\n      dup2\n      dup2\n      mstore\n      0x20\n      add\n      dup3\n      dup1\n      sload\n      tag_115\n      swap1\n      tag_41\n      jump\t// in\n    tag_115:\n      dup1\n      iszero\n      tag_116\n      jumpi\n      dup1\n      0x1f\n      lt\n      tag_117\n      jumpi\n      0x0100\n      dup1\n      dup4\n      sload\n      div\n      mul\n      dup4\n      mstore\n      swap2\n      0x20\n      add\n      swap2\n      jump(tag_116)\n    tag_117:\n      dup3\n      add\n      swap2\n      swap1\n      0x00\n      mstore\n      keccak256(0x00, 0x20)\n      swap1\n    tag_118:\n      dup2\n      sload\n      dup2\n      mstore\n      swap1\n      0x01\n      add\n      swap1\n      0x20\n      add\n      dup1\n      dup4\n      gt\n      tag_118\n      jumpi\n      dup3\n      swap1\n      sub\n      0x1f\n      and\n      dup3\n      add\n      swap2\n    tag_116:\n      pop\n      pop\n      pop\n      pop\n      pop\n      dup2\n      mstore\n      0x20\n      add\n      0x01\n      dup3\n      add\n      dup1\n      sload\n      tag_119\n      swap1\n      tag_41\n      jump\t// in\n    tag_119:\n      dup1\n      0x1f\n      add\n      0x20\n      dup1\n      swap2\n      div\n      mul\n      0x20\n      add\n      mload(0x40)\n      swap1\n      dup2\n      add\n      0x40\n      mstore\n      dup1\n      swap3\n      swap2\n      swap1\n      dup2\n      dup2\n      mstore\n      0x20\n      add\n      dup3\n      dup1\n      sload\n      tag_120\n      swap1\n      tag_41\n      jump\t// in\n    tag_120:\n      dup1\n      iszero\n      tag_121\n      jumpi\n      dup1\n      0x1f\n      lt\n      tag_122\n      jumpi\n      0x0100\n      dup1\n      dup4\n      sload\n      div\n      mul\n      dup4\n      mstore\n      swap2\n      0x20\n      add\n      swap2\n      jump(tag_121)\n    tag_122:\n      dup3\n      add\n      swap2\n      swap1\n      0x00\n      mstore\n      keccak256(0x00, 0x20)\n      swap1\n    tag_123:\n      dup2\n      sload\n      dup2\n      mstore\n      swap1\n      0x01\n      add\n      swap1\n      0x20\n      add\n      dup1\n      dup4\n      gt\n      tag_123\n      jumpi\n      dup3\n      swap1\n      sub\n      0x1f\n      and\n      dup3\n      add\n      swap2\n    tag_121:\n      pop\n      pop\n      pop\n      pop\n      pop\n      dup2\n      mstore\n      0x20\n      add\n      0x02\n      dup3\n      add\n      dup1\n      sload\n      tag_124\n      swap1\n      tag_41\n      jump\t// in\n    tag_124:\n      dup1\n      0x1f\n      add\n      0x20\n      dup1\n      swap2\n      div\n      mul\n      0x20\n      add\n      mload(0x40)\n      swap1\n      dup2\n      add\n      0x40\n      mstore\n      dup1\n      swap3\n      swap2\n      swap1\n      dup2\n      dup2\n      mstore\n      0x20\n      add\n      dup3\n      dup1\n      sload\n      tag_125\n      swap1\n      tag_41\n      jump\t// in\n    tag_125:\n      dup1\n      iszero\n      tag_126\n      jumpi\n      dup1\n      0x1f\n      lt\n      tag_127\n      jumpi\n      0x0100\n      dup1\n      dup4\n      sload\n      div\n      mul\n      dup4\n      mstore\n      swap2\n      0x20\n      add\n      swap2\n      jump(tag_126)\n    tag_127:\n      dup3\n      add\n      swap2\n      swap1\n      0x00\n      mstore\n      keccak256(0x00, 0x20)\n      swap1\n    tag_128:\n      dup2\n      sload\n      dup2\n      mstore\n      swap1\n      0x01\n      add\n      swap1\n      0x20\n      add\n      dup1\n      dup4\n      gt\n      tag_128\n      jumpi\n      dup3\n      swap1\n      sub\n      0x1f\n      and\n      dup3\n      add\n      swap2\n    tag_126:\n      pop\n      pop\n      pop\n      pop\n      pop\n      dup2\n      mstore\n      pop\n      pop\n      dup2\n      mstore\n      0x20\n      add\n      swap1\n      0x01\n      add\n      swap1\n      jump(tag_111)\n    tag_112:\n      pop\n      pop\n      pop\n      pop\n      dup2\n      mstore\n      0x20\n      add\n      0x05\n      dup3\n      add\n      0x00\n      swap1\n      sload\n      swap1\n      0x0100\n      exp\n      swap1\n      div\n      0xff\n      and\n      iszero\n      iszero\n      iszero\n      iszero\n      dup2\n      mstore\n      0x20\n      add\n      0x06\n      dup3\n      add\n      sload\n      dup2\n      mstore\n      0x20\n      add\n      0x07\n      dup3\n      add\n      sload\n      dup2\n      mstore\n      0x20\n      add\n      0x08\n      dup3\n      add\n      dup1\n      sload\n      tag_129\n      swap1\n      tag_41\n      jump\t// in\n    tag_129:\n      dup1\n      0x1f\n      add\n      0x20\n      dup1\n      swap2\n      div\n      mul\n      0x20\n      add\n      mload(0x40)\n      swap1\n      dup2\n      add\n      0x40\n      mstore\n      dup1\n      swap3\n      swap2\n      swap1\n      dup2\n      dup2\n      mstore\n      0x20\n      add\n      dup3\n      dup1\n      sload\n      tag_130\n      swap1\n      tag_41\n      jump\t// in\n    tag_130:\n      dup1\n      iszero\n      tag_131\n      jumpi\n      dup1\n      0x1f\n      lt\n      tag_132\n      jumpi\n      0x0100\n      dup1\n      dup4\n      sload\n      div\n      mul\n      dup4\n      mstore\n      swap2\n      0x20\n      add\n      swap2\n      jump(tag_131)\n    tag_132:\n      dup3\n      add\n      swap2\n      swap1\n      0x00\n      mstore\n      keccak256(0x00, 0x20)\n      swap1\n    tag_133:\n      dup2\n      sload\n      dup2\n      mstore\n      swap1\n      0x01\n      add\n      swap1\n      0x20\n      add\n      dup1\n      dup4\n      gt\n      tag_133\n      jumpi\n      dup3\n      swap1\n      sub\n      0x1f\n      and\n      dup3\n      add\n      swap2\n    tag_131:\n      pop\n      pop\n      pop\n      pop\n      pop\n      dup2\n      mstore\n      pop\n      pop\n        /* \"fromAdmin.sol\":3369:3375  result */\n      dup3\n        /* \"fromAdmin.sol\":3376:3377  i */\n      dup3\n        /* \"fromAdmin.sol\":3369:3378  result[i] */\n      dup2\n      mload\n      dup2\n      lt\n      tag_134\n      jumpi\n      tag_135\n      tag_74\n      jump\t// in\n    tag_135:\n    tag_134:\n      0x20\n      mul\n      0x20\n      add\n      add\n        /* \"fromAdmin.sol\":3369:3398  result[i] = developer[dev[i]] */\n      dup2\n      swap1\n      mstore\n      pop\n        /* \"fromAdmin.sol\":3346:3349  i++ */\n      dup1\n      dup1\n      tag_136\n      swap1\n      tag_137\n      jump\t// in\n    tag_136:\n      swap2\n      pop\n      pop\n        /* \"fromAdmin.sol\":3313:3410  for (uint i = 0; i < dev.length; i++) {   ... */\n      jump(tag_69)\n    tag_70:\n      pop\n        /* \"fromAdmin.sol\":3429:3435  result */\n      dup1\n        /* \"fromAdmin.sol\":3422:3435  return result */\n      swap2\n      pop\n      pop\n        /* \"fromAdmin.sol\":3171:3443  function getfromDev() public view returns (listOfBnF[] memory) {... */\n      swap1\n      jump\t// out\n        /* \"fromAdmin.sol\":2003:3105  function uploadedbyDev(string memory time_rn, string memory pname, string memory ver, string[][] memory bugs, string[][] memory features, string[][] memory bugsUn, string[][] memory featuresUn, bytes memory _patch) public{... */\n    tag_24:\n        /* \"fromAdmin.sol\":2235:2262  listOfBnF storage temporary */\n      0x00\n        /* \"fromAdmin.sol\":2265:2274  developer */\n      0x01\n        /* \"fromAdmin.sol\":2275:2282  time_rn */\n      dup10\n        /* \"fromAdmin.sol\":2265:2283  developer[time_rn] */\n      mload(0x40)\n      tag_139\n      swap2\n      swap1\n      tag_140\n      jump\t// in\n    tag_139:\n      swap1\n      dup2\n      mstore\n      0x20\n      add\n      mload(0x40)\n      dup1\n      swap2\n      sub\n      swap1\n      keccak256\n        /* \"fromAdmin.sol\":2235:2283  listOfBnF storage temporary = developer[time_rn] */\n      swap1\n      pop\n        /* \"fromAdmin.sol\":2294:2297  dev */\n      0x03\n        /* \"fromAdmin.sol\":2303:2310  time_rn */\n      dup10\n        /* \"fromAdmin.sol\":2294:2311  dev.push(time_rn) */\n      swap1\n      dup1\n      0x01\n      dup2\n      sload\n      add\n      dup1\n      dup3\n      sstore\n      dup1\n      swap2\n      pop\n      pop\n      0x01\n      swap1\n      sub\n      swap1\n      0x00\n      mstore\n      keccak256(0x00, 0x20)\n      add\n      0x00\n      swap1\n      swap2\n      swap1\n      swap2\n      swap1\n      swap2\n      pop\n      swap1\n      dup2\n      tag_142\n      swap2\n      swap1\n      tag_143\n      jump\t// in\n    tag_142:\n      pop\n        /* \"fromAdmin.sol\":2343:2344  0 */\n      0x00\n        /* \"fromAdmin.sol\":2322:2331  temporary */\n      dup2\n        /* \"fromAdmin.sol\":2322:2340  temporary.approved */\n      0x07\n      add\n        /* \"fromAdmin.sol\":2322:2344  temporary.approved = 0 */\n      dup2\n      swap1\n      sstore\n      pop\n        /* \"fromAdmin.sol\":2376:2381  false */\n      0x00\n        /* \"fromAdmin.sol\":2355:2364  temporary */\n      dup2\n        /* \"fromAdmin.sol\":2355:2373  temporary.deployed */\n      0x05\n      add\n      0x00\n        /* \"fromAdmin.sol\":2355:2381  temporary.deployed = false */\n      0x0100\n      exp\n      dup2\n      sload\n      dup2\n      0xff\n      mul\n      not\n      and\n      swap1\n      dup4\n      iszero\n      iszero\n      mul\n      or\n      swap1\n      sstore\n      pop\n        /* \"fromAdmin.sol\":2413:2414  1 */\n      0x01\n        /* \"fromAdmin.sol\":2392:2401  temporary */\n      dup2\n        /* \"fromAdmin.sol\":2392:2410  temporary.uploaded */\n      0x06\n      add\n        /* \"fromAdmin.sol\":2392:2414  temporary.uploaded = 1 */\n      dup2\n      swap1\n      sstore\n      pop\n        /* \"fromAdmin.sol\":2441:2444  ver */\n      dup7\n        /* \"fromAdmin.sol\":2425:2434  temporary */\n      dup2\n        /* \"fromAdmin.sol\":2425:2438  temporary.vno */\n      0x02\n      add\n        /* \"fromAdmin.sol\":2425:2444  temporary.vno = ver */\n      swap1\n      dup2\n      tag_144\n      swap2\n      swap1\n      tag_143\n      jump\t// in\n    tag_144:\n      pop\n        /* \"fromAdmin.sol\":2480:2487  time_rn */\n      dup9\n        /* \"fromAdmin.sol\":2455:2464  temporary */\n      dup2\n        /* \"fromAdmin.sol\":2455:2477  temporary.timeofReport */\n      0x00\n      add\n        /* \"fromAdmin.sol\":2455:2487  temporary.timeofReport = time_rn */\n      swap1\n      dup2\n      tag_145\n      swap2\n      swap1\n      tag_143\n      jump\t// in\n    tag_145:\n      pop\n        /* \"fromAdmin.sol\":2516:2522  _patch */\n      dup2\n        /* \"fromAdmin.sol\":2498:2507  temporary */\n      dup2\n        /* \"fromAdmin.sol\":2498:2513  temporary.patch */\n      0x08\n      add\n        /* \"fromAdmin.sol\":2498:2522  temporary.patch = _patch */\n      swap1\n      dup2\n      tag_146\n      swap2\n      swap1\n      tag_147\n      jump\t// in\n    tag_146:\n      pop\n        /* \"fromAdmin.sol\":2538:2544  uint i */\n      0x00\n        /* \"fromAdmin.sol\":2533:2721  for (uint i = 0; i < bugs.length; i++) {... */\n    tag_148:\n        /* \"fromAdmin.sol\":2554:2558  bugs */\n      dup7\n        /* \"fromAdmin.sol\":2554:2565  bugs.length */\n      mload\n        /* \"fromAdmin.sol\":2550:2551  i */\n      dup2\n        /* \"fromAdmin.sol\":2550:2565  i < bugs.length */\n      lt\n        /* \"fromAdmin.sol\":2533:2721  for (uint i = 0; i < bugs.length; i++) {... */\n      iszero\n      tag_149\n      jumpi\n        /* \"fromAdmin.sol\":2587:2611  bugReport memory bugTemp */\n      0x00\n        /* \"fromAdmin.sol\":2615:2660  bugReport(bugs[i][0], bugs[i][1], bugs[i][2]) */\n      mload(0x40)\n      dup1\n      0x60\n      add\n      0x40\n      mstore\n      dup1\n        /* \"fromAdmin.sol\":2625:2629  bugs */\n      dup10\n        /* \"fromAdmin.sol\":2630:2631  i */\n      dup5\n        /* \"fromAdmin.sol\":2625:2632  bugs[i] */\n      dup2\n      mload\n      dup2\n      lt\n      tag_151\n      jumpi\n      tag_152\n      tag_74\n      jump\t// in\n    tag_152:\n    tag_151:\n      0x20\n      mul\n      0x20\n      add\n      add\n      mload\n        /* \"fromAdmin.sol\":2633:2634  0 */\n      0x00\n        /* \"fromAdmin.sol\":2625:2635  bugs[i][0] */\n      dup2\n      mload\n      dup2\n      lt\n      tag_153\n      jumpi\n      tag_154\n      tag_74\n      jump\t// in\n    tag_154:\n    tag_153:\n      0x20\n      mul\n      0x20\n      add\n      add\n      mload\n        /* \"fromAdmin.sol\":2615:2660  bugReport(bugs[i][0], bugs[i][1], bugs[i][2]) */\n      dup2\n      mstore\n      0x20\n      add\n        /* \"fromAdmin.sol\":2637:2641  bugs */\n      dup10\n        /* \"fromAdmin.sol\":2642:2643  i */\n      dup5\n        /* \"fromAdmin.sol\":2637:2644  bugs[i] */\n      dup2\n      mload\n      dup2\n      lt\n      tag_155\n      jumpi\n      tag_156\n      tag_74\n      jump\t// in\n    tag_156:\n    tag_155:\n      0x20\n      mul\n      0x20\n      add\n      add\n      mload\n        /* \"fromAdmin.sol\":2645:2646  1 */\n      0x01\n        /* \"fromAdmin.sol\":2637:2647  bugs[i][1] */\n      dup2\n      mload\n      dup2\n      lt\n      tag_157\n      jumpi\n      tag_158\n      tag_74\n      jump\t// in\n    tag_158:\n    tag_157:\n      0x20\n      mul\n      0x20\n      add\n      add\n      mload\n        /* \"fromAdmin.sol\":2615:2660  bugReport(bugs[i][0], bugs[i][1], bugs[i][2]) */\n      dup2\n      mstore\n      0x20\n      add\n        /* \"fromAdmin.sol\":2649:2653  bugs */\n      dup10\n        /* \"fromAdmin.sol\":2654:2655  i */\n      dup5\n        /* \"fromAdmin.sol\":2649:2656  bugs[i] */\n      dup2\n      mload\n      dup2\n      lt\n      tag_159\n      jumpi\n      tag_160\n      tag_74\n      jump\t// in\n    tag_160:\n    tag_159:\n      0x20\n      mul\n      0x20\n      add\n      add\n      mload\n        /* \"fromAdmin.sol\":2657:2658  2 */\n      0x02\n        /* \"fromAdmin.sol\":2649:2659  bugs[i][2] */\n      dup2\n      mload\n      dup2\n      lt\n      tag_161\n      jumpi\n      tag_162\n      tag_74\n      jump\t// in\n    tag_162:\n    tag_161:\n      0x20\n      mul\n      0x20\n      add\n      add\n      mload\n        /* \"fromAdmin.sol\":2615:2660  bugReport(bugs[i][0], bugs[i][1], bugs[i][2]) */\n      dup2\n      mstore\n      pop\n        /* \"fromAdmin.sol\":2587:2660  bugReport memory bugTemp =  bugReport(bugs[i][0], bugs[i][1], bugs[i][2]) */\n      swap1\n      pop\n        /* \"fromAdmin.sol\":2675:2684  temporary */\n      dup3\n        /* \"fromAdmin.sol\":2675:2695  temporary.bugRequest */\n      0x03\n      add\n        /* \"fromAdmin.sol\":2701:2708  bugTemp */\n      dup2\n        /* \"fromAdmin.sol\":2675:2709  temporary.bugRequest.push(bugTemp) */\n      swap1\n      dup1\n      0x01\n      dup2\n      sload\n      add\n      dup1\n      dup3\n      sstore\n      dup1\n      swap2\n      pop\n      pop\n      0x01\n      swap1\n      sub\n      swap1\n      0x00\n      mstore\n      keccak256(0x00, 0x20)\n      swap1\n      0x03\n      mul\n      add\n      0x00\n      swap1\n      swap2\n      swap1\n      swap2\n      swap1\n      swap2\n      pop\n      0x00\n      dup3\n      add\n      mload\n      dup2\n      0x00\n      add\n      swap1\n      dup2\n      tag_164\n      swap2\n      swap1\n      tag_143\n      jump\t// in\n    tag_164:\n      pop\n      0x20\n      dup3\n      add\n      mload\n      dup2\n      0x01\n      add\n      swap1\n      dup2\n      tag_165\n      swap2\n      swap1\n      tag_143\n      jump\t// in\n    tag_165:\n      pop\n      0x40\n      dup3\n      add\n      mload\n      dup2\n      0x02\n      add\n      swap1\n      dup2\n      tag_166\n      swap2\n      swap1\n      tag_143\n      jump\t// in\n    tag_166:\n      pop\n      pop\n      pop\n        /* \"fromAdmin.sol\":2572:2721  {... */\n      pop\n        /* \"fromAdmin.sol\":2567:2570  i++ */\n      dup1\n      dup1\n      tag_167\n      swap1\n      tag_137\n      jump\t// in\n    tag_167:\n      swap2\n      pop\n      pop\n        /* \"fromAdmin.sol\":2533:2721  for (uint i = 0; i < bugs.length; i++) {... */\n      jump(tag_148)\n    tag_149:\n      pop\n        /* \"fromAdmin.sol\":2746:2752  uint i */\n      0x00\n        /* \"fromAdmin.sol\":2741:2972  for (uint i = 0; i < features.length; i++) {... */\n    tag_168:\n        /* \"fromAdmin.sol\":2762:2770  features */\n      dup6\n        /* \"fromAdmin.sol\":2762:2777  features.length */\n      mload\n        /* \"fromAdmin.sol\":2758:2759  i */\n      dup2\n        /* \"fromAdmin.sol\":2758:2777  i < features.length */\n      lt\n        /* \"fromAdmin.sol\":2741:2972  for (uint i = 0; i < features.length; i++) {... */\n      iszero\n      tag_169\n      jumpi\n        /* \"fromAdmin.sol\":2799:2831  featureReport memory featureTemp */\n      0x00\n        /* \"fromAdmin.sol\":2834:2895  featureReport(features[i][0], features[i][1], features[i][2]) */\n      mload(0x40)\n      dup1\n      0x60\n      add\n      0x40\n      mstore\n      dup1\n        /* \"fromAdmin.sol\":2848:2856  features */\n      dup9\n        /* \"fromAdmin.sol\":2857:2858  i */\n      dup5\n        /* \"fromAdmin.sol\":2848:2859  features[i] */\n      dup2\n      mload\n      dup2\n      lt\n      tag_171\n      jumpi\n      tag_172\n      tag_74\n      jump\t// in\n    tag_172:\n    tag_171:\n      0x20\n      mul\n      0x20\n      add\n      add\n      mload\n        /* \"fromAdmin.sol\":2860:2861  0 */\n      0x00\n        /* \"fromAdmin.sol\":2848:2862  features[i][0] */\n      dup2\n      mload\n      dup2\n      lt\n      tag_173\n      jumpi\n      tag_174\n      tag_74\n      jump\t// in\n    tag_174:\n    tag_173:\n      0x20\n      mul\n      0x20\n      add\n      add\n      mload\n        /* \"fromAdmin.sol\":2834:2895  featureReport(features[i][0], features[i][1], features[i][2]) */\n      dup2\n      mstore\n      0x20\n      add\n        /* \"fromAdmin.sol\":2864:2872  features */\n      dup9\n        /* \"fromAdmin.sol\":2873:2874  i */\n      dup5\n        /* \"fromAdmin.sol\":2864:2875  features[i] */\n      dup2\n      mload\n      dup2\n      lt\n      tag_175\n      jumpi\n      tag_176\n      tag_74\n      jump\t// in\n    tag_176:\n    tag_175:\n      0x20\n      mul\n      0x20\n      add\n      add\n      mload\n        /* \"fromAdmin.sol\":2876:2877  1 */\n      0x01\n        /* \"fromAdmin.sol\":2864:2878  features[i][1] */\n      dup2\n      mload\n      dup2\n      lt\n      tag_177\n      jumpi\n      tag_178\n      tag_74\n      jump\t// in\n    tag_178:\n    tag_177:\n      0x20\n      mul\n      0x20\n      add\n      add\n      mload\n        /* \"fromAdmin.sol\":2834:2895  featureReport(features[i][0], features[i][1], features[i][2]) */\n      dup2\n      mstore\n      0x20\n      add\n        /* \"fromAdmin.sol\":2880:2888  features */\n      dup9\n        /* \"fromAdmin.sol\":2889:2890  i */\n      dup5\n        /* \"fromAdmin.sol\":2880:2891  features[i] */\n      dup2\n      mload\n      dup2\n      lt\n      tag_179\n      jumpi\n      tag_180\n      tag_74\n      jump\t// in\n    tag_180:\n    tag_179:\n      0x20\n      mul\n      0x20\n      add\n      add\n      mload\n        /* \"fromAdmin.sol\":2892:2893  2 */\n      0x02\n        /* \"fromAdmin.sol\":2880:2894  features[i][2] */\n      dup2\n      mload\n      dup2\n      lt\n      tag_181\n      jumpi\n      tag_182\n      tag_74\n      jump\t// in\n    tag_182:\n    tag_181:\n      0x20\n      mul\n      0x20\n      add\n      add\n      mload\n        /* \"fromAdmin.sol\":2834:2895  featureReport(features[i][0], features[i][1], features[i][2]) */\n      dup2\n      mstore\n      pop\n        /* \"fromAdmin.sol\":2799:2895  featureReport memory featureTemp = featureReport(features[i][0], features[i][1], features[i][2]) */\n      swap1\n      pop\n        /* \"fromAdmin.sol\":2918:2927  temporary */\n      dup3\n        /* \"fromAdmin.sol\":2918:2942  temporary.featureRequest */\n      0x04\n      add\n        /* \"fromAdmin.sol\":2948:2959  featureTemp */\n      dup2\n        /* \"fromAdmin.sol\":2918:2960  temporary.featureRequest.push(featureTemp) */\n      swap1\n      dup1\n      0x01\n      dup2\n      sload\n      add\n      dup1\n      dup3\n      sstore\n      dup1\n      swap2\n      pop\n      pop\n      0x01\n      swap1\n      sub\n      swap1\n      0x00\n      mstore\n      keccak256(0x00, 0x20)\n      swap1\n      0x03\n      mul\n      add\n      0x00\n      swap1\n      swap2\n      swap1\n      swap2\n      swap1\n      swap2\n      pop\n      0x00\n      dup3\n      add\n      mload\n      dup2\n      0x00\n      add\n      swap1\n      dup2\n      tag_184\n      swap2\n      swap1\n      tag_143\n      jump\t// in\n    tag_184:\n      pop\n      0x20\n      dup3\n      add\n      mload\n      dup2\n      0x01\n      add\n      swap1\n      dup2\n      tag_185\n      swap2\n      swap1\n      tag_143\n      jump\t// in\n    tag_185:\n      pop\n      0x40\n      dup3\n      add\n      mload\n      dup2\n      0x02\n      add\n      swap1\n      dup2\n      tag_186\n      swap2\n      swap1\n      tag_143\n      jump\t// in\n    tag_186:\n      pop\n      pop\n      pop\n        /* \"fromAdmin.sol\":2784:2972  {... */\n      pop\n        /* \"fromAdmin.sol\":2779:2782  i++ */\n      dup1\n      dup1\n      tag_187\n      swap1\n      tag_137\n      jump\t// in\n    tag_187:\n      swap2\n      pop\n      pop\n        /* \"fromAdmin.sol\":2741:2972  for (uint i = 0; i < features.length; i++) {... */\n      jump(tag_168)\n    tag_169:\n      pop\n        /* \"fromAdmin.sol\":3000:3001  0 */\n      0x00\n        /* \"fromAdmin.sol\":2985:2991  bugsUn */\n      dup5\n        /* \"fromAdmin.sol\":2985:2998  bugsUn.length */\n      mload\n        /* \"fromAdmin.sol\":2985:3001  bugsUn.length!=0 */\n      eq\n      iszero\n        /* \"fromAdmin.sol\":2985:3025  bugsUn.length!=0 || featuresUn.length!=0 */\n      dup1\n      tag_188\n      jumpi\n      pop\n        /* \"fromAdmin.sol\":3024:3025  0 */\n      0x00\n        /* \"fromAdmin.sol\":3005:3015  featuresUn */\n      dup4\n        /* \"fromAdmin.sol\":3005:3022  featuresUn.length */\n      mload\n        /* \"fromAdmin.sol\":3005:3025  featuresUn.length!=0 */\n      eq\n      iszero\n        /* \"fromAdmin.sol\":2985:3025  bugsUn.length!=0 || featuresUn.length!=0 */\n    tag_188:\n        /* \"fromAdmin.sol\":2982:3098  if(bugsUn.length!=0 || featuresUn.length!=0){... */\n      iszero\n      tag_189\n      jumpi\n        /* \"fromAdmin.sol\":3041:3086  fromAdmin(time_rn, pname, bugsUn, featuresUn) */\n      tag_190\n        /* \"fromAdmin.sol\":3051:3058  time_rn */\n      dup10\n        /* \"fromAdmin.sol\":3060:3065  pname */\n      dup10\n        /* \"fromAdmin.sol\":3067:3073  bugsUn */\n      dup7\n        /* \"fromAdmin.sol\":3075:3085  featuresUn */\n      dup7\n        /* \"fromAdmin.sol\":3041:3050  fromAdmin */\n      tag_35\n        /* \"fromAdmin.sol\":3041:3086  fromAdmin(time_rn, pname, bugsUn, featuresUn) */\n      jump\t// in\n    tag_190:\n        /* \"fromAdmin.sol\":2982:3098  if(bugsUn.length!=0 || featuresUn.length!=0){... */\n    tag_189:\n        /* \"fromAdmin.sol\":2224:3105  {... */\n      pop\n        /* \"fromAdmin.sol\":2003:3105  function uploadedbyDev(string memory time_rn, string memory pname, string memory ver, string[][] memory bugs, string[][] memory features, string[][] memory bugsUn, string[][] memory featuresUn, bytes memory _patch) public{... */\n      pop\n      pop\n      pop\n      pop\n      pop\n      pop\n      pop\n      pop\n      jump\t// out\n        /* \"fromAdmin.sol\":543:587  mapping(string => listOfBnF) public requests */\n    tag_27:\n      0x00\n      dup2\n      dup1\n      mload\n      0x20\n      dup2\n      add\n      dup3\n      add\n      dup1\n      mload\n      dup5\n      dup3\n      mstore\n      0x20\n      dup4\n      add\n      0x20\n      dup6\n      add\n      keccak256\n      dup2\n      dup4\n      mstore\n      dup1\n      swap6\n      pop\n      pop\n      pop\n      pop\n      pop\n      pop\n      0x00\n      swap2\n      pop\n      swap1\n      pop\n      dup1\n      0x00\n      add\n      dup1\n      sload\n      tag_191\n      swap1\n      tag_41\n      jump\t// in\n    tag_191:\n      dup1\n      0x1f\n      add\n      0x20\n      dup1\n      swap2\n      div\n      mul\n      0x20\n      add\n      mload(0x40)\n      swap1\n      dup2\n      add\n      0x40\n      mstore\n      dup1\n      swap3\n      swap2\n      swap1\n      dup2\n      dup2\n      mstore\n      0x20\n      add\n      dup3\n      dup1\n      sload\n      tag_192\n      swap1\n      tag_41\n      jump\t// in\n    tag_192:\n      dup1\n      iszero\n      tag_193\n      jumpi\n      dup1\n      0x1f\n      lt\n      tag_194\n      jumpi\n      0x0100\n      dup1\n      dup4\n      sload\n      div\n      mul\n      dup4\n      mstore\n      swap2\n      0x20\n      add\n      swap2\n      jump(tag_193)\n    tag_194:\n      dup3\n      add\n      swap2\n      swap1\n      0x00\n      mstore\n      keccak256(0x00, 0x20)\n      swap1\n    tag_195:\n      dup2\n      sload\n      dup2\n      mstore\n      swap1\n      0x01\n      add\n      swap1\n      0x20\n      add\n      dup1\n      dup4\n      gt\n      tag_195\n      jumpi\n      dup3\n      swap1\n      sub\n      0x1f\n      and\n      dup3\n      add\n      swap2\n    tag_193:\n      pop\n      pop\n      pop\n      pop\n      pop\n      swap1\n      dup1\n      0x01\n      add\n      dup1\n      sload\n      tag_196\n      swap1\n      tag_41\n      jump\t// in\n    tag_196:\n      dup1\n      0x1f\n      add\n      0x20\n      dup1\n      swap2\n      div\n      mul\n      0x20\n      add\n      mload(0x40)\n      swap1\n      dup2\n      add\n      0x40\n      mstore\n      dup1\n      swap3\n      swap2\n      swap1\n      dup2\n      dup2\n      mstore\n      0x20\n      add\n      dup3\n      dup1\n      sload\n      tag_197\n      swap1\n      tag_41\n      jump\t// in\n    tag_197:\n      dup1\n      iszero\n      tag_198\n      jumpi\n      dup1\n      0x1f\n      lt\n      tag_199\n      jumpi\n      0x0100\n      dup1\n      dup4\n      sload\n      div\n      mul\n      dup4\n      mstore\n      swap2\n      0x20\n      add\n      swap2\n      jump(tag_198)\n    tag_199:\n      dup3\n      add\n      swap2\n      swap1\n      0x00\n      mstore\n      keccak256(0x00, 0x20)\n      swap1\n    tag_200:\n      dup2\n      sload\n      dup2\n      mstore\n      swap1\n      0x01\n      add\n      swap1\n      0x20\n      add\n      dup1\n      dup4\n      gt\n      tag_200\n      jumpi\n      dup3\n      swap1\n      sub\n      0x1f\n      and\n      dup3\n      add\n      swap2\n    tag_198:\n      pop\n      pop\n      pop\n      pop\n      pop\n      swap1\n      dup1\n      0x02\n      add\n      dup1\n      sload\n      tag_201\n      swap1\n      tag_41\n      jump\t// in\n    tag_201:\n      dup1\n      0x1f\n      add\n      0x20\n      dup1\n      swap2\n      div\n      mul\n      0x20\n      add\n      mload(0x40)\n      swap1\n      dup2\n      add\n      0x40\n      mstore\n      dup1\n      swap3\n      swap2\n      swap1\n      dup2\n      dup2\n      mstore\n      0x20\n      add\n      dup3\n      dup1\n      sload\n      tag_202\n      swap1\n      tag_41\n      jump\t// in\n    tag_202:\n      dup1\n      iszero\n      tag_203\n      jumpi\n      dup1\n      0x1f\n      lt\n      tag_204\n      jumpi\n      0x0100\n      dup1\n      dup4\n      sload\n      div\n      mul\n      dup4\n      mstore\n      swap2\n      0x20\n      add\n      swap2\n      jump(tag_203)\n    tag_204:\n      dup3\n      add\n      swap2\n      swap1\n      0x00\n      mstore\n      keccak256(0x00, 0x20)\n      swap1\n    tag_205:\n      dup2\n      sload\n      dup2\n      mstore\n      swap1\n      0x01\n      add\n      swap1\n      0x20\n      add\n      dup1\n      dup4\n      gt\n      tag_205\n      jumpi\n      dup3\n      swap1\n      sub\n      0x1f\n      and\n      dup3\n      add\n      swap2\n    tag_203:\n      pop\n      pop\n      pop\n      pop\n      pop\n      swap1\n      dup1\n      0x05\n      add\n      0x00\n      swap1\n      sload\n      swap1\n      0x0100\n      exp\n      swap1\n      div\n      0xff\n      and\n      swap1\n      dup1\n      0x06\n      add\n      sload\n      swap1\n      dup1\n      0x07\n      add\n      sload\n      swap1\n      dup1\n      0x08\n      add\n      dup1\n      sload\n      tag_206\n      swap1\n      tag_41\n      jump\t// in\n    tag_206:\n      dup1\n      0x1f\n      add\n      0x20\n      dup1\n      swap2\n      div\n      mul\n      0x20\n      add\n      mload(0x40)\n      swap1\n      dup2\n      add\n      0x40\n      mstore\n      dup1\n      swap3\n      swap2\n      swap1\n      dup2\n      dup2\n      mstore\n      0x20\n      add\n      dup3\n      dup1\n      sload\n      tag_207\n      swap1\n      tag_41\n      jump\t// in\n    tag_207:\n      dup1\n      iszero\n      tag_208\n      jumpi\n      dup1\n      0x1f\n      lt\n      tag_209\n      jumpi\n      0x0100\n      dup1\n      dup4\n      sload\n      div\n      mul\n      dup4\n      mstore\n      swap2\n      0x20\n      add\n      swap2\n      jump(tag_208)\n    tag_209:\n      dup3\n      add\n      swap2\n      swap1\n      0x00\n      mstore\n      keccak256(0x00, 0x20)\n      swap1\n    tag_210:\n      dup2\n      sload\n      dup2\n      mstore\n      swap1\n      0x01\n      add\n      swap1\n      0x20\n      add\n      dup1\n      dup4\n      gt\n      tag_210\n      jumpi\n      dup3\n      swap1\n      sub\n      0x1f\n      and\n      dup3\n      add\n      swap2\n    tag_208:\n      pop\n      pop\n      pop\n      pop\n      pop\n      swap1\n      pop\n      dup8\n      jump\t// out\n        /* \"fromAdmin.sol\":1674:1952  function getRequests() public view returns (listOfBnF[] memory) {... */\n    tag_30:\n        /* \"fromAdmin.sol\":1718:1736  listOfBnF[] memory */\n      0x60\n        /* \"fromAdmin.sol\":1749:1774  listOfBnF[] memory result */\n      0x00\n        /* \"fromAdmin.sol\":1793:1798  admin */\n      0x02\n        /* \"fromAdmin.sol\":1793:1805  admin.length */\n      dup1\n      sload\n      swap1\n      pop\n        /* \"fromAdmin.sol\":1777:1806  new listOfBnF[](admin.length) */\n      0xffffffffffffffff\n      dup2\n      gt\n      iszero\n      tag_212\n      jumpi\n      tag_213\n      tag_64\n      jump\t// in\n    tag_213:\n    tag_212:\n      mload(0x40)\n      swap1\n      dup1\n      dup3\n      mstore\n      dup1\n      0x20\n      mul\n      0x20\n      add\n      dup3\n      add\n      0x40\n      mstore\n      dup1\n      iszero\n      tag_214\n      jumpi\n      dup2\n      0x20\n      add\n    tag_215:\n      tag_216\n      tag_68\n      jump\t// in\n    tag_216:\n      dup2\n      mstore\n      0x20\n      add\n      swap1\n      0x01\n      swap1\n      sub\n      swap1\n      dup2\n      tag_215\n      jumpi\n      swap1\n      pop\n    tag_214:\n      pop\n        /* \"fromAdmin.sol\":1749:1806  listOfBnF[] memory result = new listOfBnF[](admin.length) */\n      swap1\n      pop\n        /* \"fromAdmin.sol\":1824:1830  uint i */\n      0x00\n        /* \"fromAdmin.sol\":1819:1919  for (uint i = 0; i < admin.length; i++) {   ... */\n    tag_217:\n        /* \"fromAdmin.sol\":1840:1845  admin */\n      0x02\n        /* \"fromAdmin.sol\":1840:1852  admin.length */\n      dup1\n      sload\n      swap1\n      pop\n        /* \"fromAdmin.sol\":1836:1837  i */\n      dup2\n        /* \"fromAdmin.sol\":1836:1852  i < admin.length */\n      lt\n        /* \"fromAdmin.sol\":1819:1919  for (uint i = 0; i < admin.length; i++) {   ... */\n      iszero\n      tag_218\n      jumpi\n        /* \"fromAdmin.sol\":1889:1897  requests */\n      0x00\n        /* \"fromAdmin.sol\":1898:1903  admin */\n      0x02\n        /* \"fromAdmin.sol\":1904:1905  i */\n      dup3\n        /* \"fromAdmin.sol\":1898:1906  admin[i] */\n      dup2\n      sload\n      dup2\n      lt\n      tag_220\n      jumpi\n      tag_221\n      tag_74\n      jump\t// in\n    tag_221:\n    tag_220:\n      swap1\n      0x00\n      mstore\n      keccak256(0x00, 0x20)\n      add\n        /* \"fromAdmin.sol\":1889:1907  requests[admin[i]] */\n      mload(0x40)\n      tag_223\n      swap2\n      swap1\n      tag_77\n      jump\t// in\n    tag_223:\n      swap1\n      dup2\n      mstore\n      0x20\n      add\n      mload(0x40)\n      dup1\n      swap2\n      sub\n      swap1\n      keccak256\n        /* \"fromAdmin.sol\":1877:1907  result[i] = requests[admin[i]] */\n      mload(0x40)\n      dup1\n      0x0120\n      add\n      0x40\n      mstore\n      swap1\n      dup2\n      0x00\n      dup3\n      add\n      dup1\n      sload\n      tag_224\n      swap1\n      tag_41\n      jump\t// in\n    tag_224:\n      dup1\n      0x1f\n      add\n      0x20\n      dup1\n      swap2\n      div\n      mul\n      0x20\n      add\n      mload(0x40)\n      swap1\n      dup2\n      add\n      0x40\n      mstore\n      dup1\n      swap3\n      swap2\n      swap1\n      dup2\n      dup2\n      mstore\n      0x20\n      add\n      dup3\n      dup1\n      sload\n      tag_225\n      swap1\n      tag_41\n      jump\t// in\n    tag_225:\n      dup1\n      iszero\n      tag_226\n      jumpi\n      dup1\n      0x1f\n      lt\n      tag_227\n      jumpi\n      0x0100\n      dup1\n      dup4\n      sload\n      div\n      mul\n      dup4\n      mstore\n      swap2\n      0x20\n      add\n      swap2\n      jump(tag_226)\n    tag_227:\n      dup3\n      add\n      swap2\n      swap1\n      0x00\n      mstore\n      keccak256(0x00, 0x20)\n      swap1\n    tag_228:\n      dup2\n      sload\n      dup2\n      mstore\n      swap1\n      0x01\n      add\n      swap1\n      0x20\n      add\n      dup1\n      dup4\n      gt\n      tag_228\n      jumpi\n      dup3\n      swap1\n      sub\n      0x1f\n      and\n      dup3\n      add\n      swap2\n    tag_226:\n      pop\n      pop\n      pop\n      pop\n      pop\n      dup2\n      mstore\n      0x20\n      add\n      0x01\n      dup3\n      add\n      dup1\n      sload\n      tag_229\n      swap1\n      tag_41\n      jump\t// in\n    tag_229:\n      dup1\n      0x1f\n      add\n      0x20\n      dup1\n      swap2\n      div\n      mul\n      0x20\n      add\n      mload(0x40)\n      swap1\n      dup2\n      add\n      0x40\n      mstore\n      dup1\n      swap3\n      swap2\n      swap1\n      dup2\n      dup2\n      mstore\n      0x20\n      add\n      dup3\n      dup1\n      sload\n      tag_230\n      swap1\n      tag_41\n      jump\t// in\n    tag_230:\n      dup1\n      iszero\n      tag_231\n      jumpi\n      dup1\n      0x1f\n      lt\n      tag_232\n      jumpi\n      0x0100\n      dup1\n      dup4\n      sload\n      div\n      mul\n      dup4\n      mstore\n      swap2\n      0x20\n      add\n      swap2\n      jump(tag_231)\n    tag_232:\n      dup3\n      add\n      swap2\n      swap1\n      0x00\n      mstore\n      keccak256(0x00, 0x20)\n      swap1\n    tag_233:\n      dup2\n      sload\n      dup2\n      mstore\n      swap1\n      0x01\n      add\n      swap1\n      0x20\n      add\n      dup1\n      dup4\n      gt\n      tag_233\n      jumpi\n      dup3\n      swap1\n      sub\n      0x1f\n      and\n      dup3\n      add\n      swap2\n    tag_231:\n      pop\n      pop\n      pop\n      pop\n      pop\n      dup2\n      mstore\n      0x20\n      add\n      0x02\n      dup3\n      add\n      dup1\n      sload\n      tag_234\n      swap1\n      tag_41\n      jump\t// in\n    tag_234:\n      dup1\n      0x1f\n      add\n      0x20\n      dup1\n      swap2\n      div\n      mul\n      0x20\n      add\n      mload(0x40)\n      swap1\n      dup2\n      add\n      0x40\n      mstore\n      dup1\n      swap3\n      swap2\n      swap1\n      dup2\n      dup2\n      mstore\n      0x20\n      add\n      dup3\n      dup1\n      sload\n      tag_235\n      swap1\n      tag_41\n      jump\t// in\n    tag_235:\n      dup1\n      iszero\n      tag_236\n      jumpi\n      dup1\n      0x1f\n      lt\n      tag_237\n      jumpi\n      0x0100\n      dup1\n      dup4\n      sload\n      div\n      mul\n      dup4\n      mstore\n      swap2\n      0x20\n      add\n      swap2\n      jump(tag_236)\n    tag_237:\n      dup3\n      add\n      swap2\n      swap1\n      0x00\n      mstore\n      keccak256(0x00, 0x20)\n      swap1\n    tag_238:\n      dup2\n      sload\n      dup2\n      mstore\n      swap1\n      0x01\n      add\n      swap1\n      0x20\n      add\n      dup1\n      dup4\n      gt\n      tag_238\n      jumpi\n      dup3\n      swap1\n      sub\n      0x1f\n      and\n      dup3\n      add\n      swap2\n    tag_236:\n      pop\n      pop\n      pop\n      pop\n      pop\n      dup2\n      mstore\n      0x20\n      add\n      0x03\n      dup3\n      add\n      dup1\n      sload\n      dup1\n      0x20\n      mul\n      0x20\n      add\n      mload(0x40)\n      swap1\n      dup2\n      add\n      0x40\n      mstore\n      dup1\n      swap3\n      swap2\n      swap1\n      dup2\n      dup2\n      mstore\n      0x20\n      add\n      0x00\n      swap1\n    tag_239:\n      dup3\n      dup3\n      lt\n      iszero\n      tag_240\n      jumpi\n      dup4\n      dup3\n      swap1\n      0x00\n      mstore\n      keccak256(0x00, 0x20)\n      swap1\n      0x03\n      mul\n      add\n      mload(0x40)\n      dup1\n      0x60\n      add\n      0x40\n      mstore\n      swap1\n      dup2\n      0x00\n      dup3\n      add\n      dup1\n      sload\n      tag_242\n      swap1\n      tag_41\n      jump\t// in\n    tag_242:\n      dup1\n      0x1f\n      add\n      0x20\n      dup1\n      swap2\n      div\n      mul\n      0x20\n      add\n      mload(0x40)\n      swap1\n      dup2\n      add\n      0x40\n      mstore\n      dup1\n      swap3\n      swap2\n      swap1\n      dup2\n      dup2\n      mstore\n      0x20\n      add\n      dup3\n      dup1\n      sload\n      tag_243\n      swap1\n      tag_41\n      jump\t// in\n    tag_243:\n      dup1\n      iszero\n      tag_244\n      jumpi\n      dup1\n      0x1f\n      lt\n      tag_245\n      jumpi\n      0x0100\n      dup1\n      dup4\n      sload\n      div\n      mul\n      dup4\n      mstore\n      swap2\n      0x20\n      add\n      swap2\n      jump(tag_244)\n    tag_245:\n      dup3\n      add\n      swap2\n      swap1\n      0x00\n      mstore\n      keccak256(0x00, 0x20)\n      swap1\n    tag_246:\n      dup2\n      sload\n      dup2\n      mstore\n      swap1\n      0x01\n      add\n      swap1\n      0x20\n      add\n      dup1\n      dup4\n      gt\n      tag_246\n      jumpi\n      dup3\n      swap1\n      sub\n      0x1f\n      and\n      dup3\n      add\n      swap2\n    tag_244:\n      pop\n      pop\n      pop\n      pop\n      pop\n      dup2\n      mstore\n      0x20\n      add\n      0x01\n      dup3\n      add\n      dup1\n      sload\n      tag_247\n      swap1\n      tag_41\n      jump\t// in\n    tag_247:\n      dup1\n      0x1f\n      add\n      0x20\n      dup1\n      swap2\n      div\n      mul\n      0x20\n      add\n      mload(0x40)\n      swap1\n      dup2\n      add\n      0x40\n      mstore\n      dup1\n      swap3\n      swap2\n      swap1\n      dup2\n      dup2\n      mstore\n      0x20\n      add\n      dup3\n      dup1\n      sload\n      tag_248\n      swap1\n      tag_41\n      jump\t// in\n    tag_248:\n      dup1\n      iszero\n      tag_249\n      jumpi\n      dup1\n      0x1f\n      lt\n      tag_250\n      jumpi\n      0x0100\n      dup1\n      dup4\n      sload\n      div\n      mul\n      dup4\n      mstore\n      swap2\n      0x20\n      add\n      swap2\n      jump(tag_249)\n    tag_250:\n      dup3\n      add\n      swap2\n      swap1\n      0x00\n      mstore\n      keccak256(0x00, 0x20)\n      swap1\n    tag_251:\n      dup2\n      sload\n      dup2\n      mstore\n      swap1\n      0x01\n      add\n      swap1\n      0x20\n      add\n      dup1\n      dup4\n      gt\n      tag_251\n      jumpi\n      dup3\n      swap1\n      sub\n      0x1f\n      and\n      dup3\n      add\n      swap2\n    tag_249:\n      pop\n      pop\n      pop\n      pop\n      pop\n      dup2\n      mstore\n      0x20\n      add\n      0x02\n      dup3\n      add\n      dup1\n      sload\n      tag_252\n      swap1\n      tag_41\n      jump\t// in\n    tag_252:\n      dup1\n      0x1f\n      add\n      0x20\n      dup1\n      swap2\n      div\n      mul\n      0x20\n      add\n      mload(0x40)\n      swap1\n      dup2\n      add\n      0x40\n      mstore\n      dup1\n      swap3\n      swap2\n      swap1\n      dup2\n      dup2\n      mstore\n      0x20\n      add\n      dup3\n      dup1\n      sload\n      tag_253\n      swap1\n      tag_41\n      jump\t// in\n    tag_253:\n      dup1\n      iszero\n      tag_254\n      jumpi\n      dup1\n      0x1f\n      lt\n      tag_255\n      jumpi\n      0x0100\n      dup1\n      dup4\n      sload\n      div\n      mul\n      dup4\n      mstore\n      swap2\n      0x20\n      add\n      swap2\n      jump(tag_254)\n    tag_255:\n      dup3\n      add\n      swap2\n      swap1\n      0x00\n      mstore\n      keccak256(0x00, 0x20)\n      swap1\n    tag_256:\n      dup2\n      sload\n      dup2\n      mstore\n      swap1\n      0x01\n      add\n      swap1\n      0x20\n      add\n      dup1\n      dup4\n      gt\n      tag_256\n      jumpi\n      dup3\n      swap1\n      sub\n      0x1f\n      and\n      dup3\n      add\n      swap2\n    tag_254:\n      pop\n      pop\n      pop\n      pop\n      pop\n      dup2\n      mstore\n      pop\n      pop\n      dup2\n      mstore\n      0x20\n      add\n      swap1\n      0x01\n      add\n      swap1\n      jump(tag_239)\n    tag_240:\n      pop\n      pop\n      pop\n      pop\n      dup2\n      mstore\n      0x20\n      add\n      0x04\n      dup3\n      add\n      dup1\n      sload\n      dup1\n      0x20\n      mul\n      0x20\n      add\n      mload(0x40)\n      swap1\n      dup2\n      add\n      0x40\n      mstore\n      dup1\n      swap3\n      swap2\n      swap1\n      dup2\n      dup2\n      mstore\n      0x20\n      add\n      0x00\n      swap1\n    tag_257:\n      dup3\n      dup3\n      lt\n      iszero\n      tag_258\n      jumpi\n      dup4\n      dup3\n      swap1\n      0x00\n      mstore\n      keccak256(0x00, 0x20)\n      swap1\n      0x03\n      mul\n      add\n      mload(0x40)\n      dup1\n      0x60\n      add\n      0x40\n      mstore\n      swap1\n      dup2\n      0x00\n      dup3\n      add\n      dup1\n      sload\n      tag_260\n      swap1\n      tag_41\n      jump\t// in\n    tag_260:\n      dup1\n      0x1f\n      add\n      0x20\n      dup1\n      swap2\n      div\n      mul\n      0x20\n      add\n      mload(0x40)\n      swap1\n      dup2\n      add\n      0x40\n      mstore\n      dup1\n      swap3\n      swap2\n      swap1\n      dup2\n      dup2\n      mstore\n      0x20\n      add\n      dup3\n      dup1\n      sload\n      tag_261\n      swap1\n      tag_41\n      jump\t// in\n    tag_261:\n      dup1\n      iszero\n      tag_262\n      jumpi\n      dup1\n      0x1f\n      lt\n      tag_263\n      jumpi\n      0x0100\n      dup1\n      dup4\n      sload\n      div\n      mul\n      dup4\n      mstore\n      swap2\n      0x20\n      add\n      swap2\n      jump(tag_262)\n    tag_263:\n      dup3\n      add\n      swap2\n      swap1\n      0x00\n      mstore\n      keccak256(0x00, 0x20)\n      swap1\n    tag_264:\n      dup2\n      sload\n      dup2\n      mstore\n      swap1\n      0x01\n      add\n      swap1\n      0x20\n      add\n      dup1\n      dup4\n      gt\n      tag_264\n      jumpi\n      dup3\n      swap1\n      sub\n      0x1f\n      and\n      dup3\n      add\n      swap2\n    tag_262:\n      pop\n      pop\n      pop\n      pop\n      pop\n      dup2\n      mstore\n      0x20\n      add\n      0x01\n      dup3\n      add\n      dup1\n      sload\n      tag_265\n      swap1\n      tag_41\n      jump\t// in\n    tag_265:\n      dup1\n      0x1f\n      add\n      0x20\n      dup1\n      swap2\n      div\n      mul\n      0x20\n      add\n      mload(0x40)\n      swap1\n      dup2\n      add\n      0x40\n      mstore\n      dup1\n      swap3\n      swap2\n      swap1\n      dup2\n      dup2\n      mstore\n      0x20\n      add\n      dup3\n      dup1\n      sload\n      tag_266\n      swap1\n      tag_41\n      jump\t// in\n    tag_266:\n      dup1\n      iszero\n      tag_267\n      jumpi\n      dup1\n      0x1f\n      lt\n      tag_268\n      jumpi\n      0x0100\n      dup1\n      dup4\n      sload\n      div\n      mul\n      dup4\n      mstore\n      swap2\n      0x20\n      add\n      swap2\n      jump(tag_267)\n    tag_268:\n      dup3\n      add\n      swap2\n      swap1\n      0x00\n      mstore\n      keccak256(0x00, 0x20)\n      swap1\n    tag_269:\n      dup2\n      sload\n      dup2\n      mstore\n      swap1\n      0x01\n      add\n      swap1\n      0x20\n      add\n      dup1\n      dup4\n      gt\n      tag_269\n      jumpi\n      dup3\n      swap1\n      sub\n      0x1f\n      and\n      dup3\n      add\n      swap2\n    tag_267:\n      pop\n      pop\n      pop\n      pop\n      pop\n      dup2\n      mstore\n      0x20\n      add\n      0x02\n      dup3\n      add\n      dup1\n      sload\n      tag_270\n      swap1\n      tag_41\n      jump\t// in\n    tag_270:\n      dup1\n      0x1f\n      add\n      0x20\n      dup1\n      swap2\n      div\n      mul\n      0x20\n      add\n      mload(0x40)\n      swap1\n      dup2\n      add\n      0x40\n      mstore\n      dup1\n      swap3\n      swap2\n      swap1\n      dup2\n      dup2\n      mstore\n      0x20\n      add\n      dup3\n      dup1\n      sload\n      tag_271\n      swap1\n      tag_41\n      jump\t// in\n    tag_271:\n      dup1\n      iszero\n      tag_272\n      jumpi\n      dup1\n      0x1f\n      lt\n      tag_273\n      jumpi\n      0x0100\n      dup1\n      dup4\n      sload\n      div\n      mul\n      dup4\n      mstore\n      swap2\n      0x20\n      add\n      swap2\n      jump(tag_272)\n    tag_273:\n      dup3\n      add\n      swap2\n      swap1\n      0x00\n      mstore\n      keccak256(0x00, 0x20)\n      swap1\n    tag_274:\n      dup2\n      sload\n      dup2\n      mstore\n      swap1\n      0x01\n      add\n      swap1\n      0x20\n      add\n      dup1\n      dup4\n      gt\n      tag_274\n      jumpi\n      dup3\n      swap1\n      sub\n      0x1f\n      and\n      dup3\n      add\n      swap2\n    tag_272:\n      pop\n      pop\n      pop\n      pop\n      pop\n      dup2\n      mstore\n      pop\n      pop\n      dup2\n      mstore\n      0x20\n      add\n      swap1\n      0x01\n      add\n      swap1\n      jump(tag_257)\n    tag_258:\n      pop\n      pop\n      pop\n      pop\n      dup2\n      mstore\n      0x20\n      add\n      0x05\n      dup3\n      add\n      0x00\n      swap1\n      sload\n      swap1\n      0x0100\n      exp\n      swap1\n      div\n      0xff\n      and\n      iszero\n      iszero\n      iszero\n      iszero\n      dup2\n      mstore\n      0x20\n      add\n      0x06\n      dup3\n      add\n      sload\n      dup2\n      mstore\n      0x20\n      add\n      0x07\n      dup3\n      add\n      sload\n      dup2\n      mstore\n      0x20\n      add\n      0x08\n      dup3\n      add\n      dup1\n      sload\n      tag_275\n      swap1\n      tag_41\n      jump\t// in\n    tag_275:\n      dup1\n      0x1f\n      add\n      0x20\n      dup1\n      swap2\n      div\n      mul\n      0x20\n      add\n      mload(0x40)\n      swap1\n      dup2\n      add\n      0x40\n      mstore\n      dup1\n      swap3\n      swap2\n      swap1\n      dup2\n      dup2\n      mstore\n      0x20\n      add\n      dup3\n      dup1\n      sload\n      tag_276\n      swap1\n      tag_41\n      jump\t// in\n    tag_276:\n      dup1\n      iszero\n      tag_277\n      jumpi\n      dup1\n      0x1f\n      lt\n      tag_278\n      jumpi\n      0x0100\n      dup1\n      dup4\n      sload\n      div\n      mul\n      dup4\n      mstore\n      swap2\n      0x20\n      add\n      swap2\n      jump(tag_277)\n    tag_278:\n      dup3\n      add\n      swap2\n      swap1\n      0x00\n      mstore\n      keccak256(0x00, 0x20)\n      swap1\n    tag_279:\n      dup2\n      sload\n      dup2\n      mstore\n      swap1\n      0x01\n      add\n      swap1\n      0x20\n      add\n      dup1\n      dup4\n      gt\n      tag_279\n      jumpi\n      dup3\n      swap1\n      sub\n      0x1f\n      and\n      dup3\n      add\n      swap2\n    tag_277:\n      pop\n      pop\n      pop\n      pop\n      pop\n      dup2\n      mstore\n      pop\n      pop\n        /* \"fromAdmin.sol\":1877:1883  result */\n      dup3\n        /* \"fromAdmin.sol\":1884:1885  i */\n      dup3\n        /* \"fromAdmin.sol\":1877:1886  result[i] */\n      dup2\n      mload\n      dup2\n      lt\n      tag_280\n      jumpi\n      tag_281\n      tag_74\n      jump\t// in\n    tag_281:\n    tag_280:\n      0x20\n      mul\n      0x20\n      add\n      add\n        /* \"fromAdmin.sol\":1877:1907  result[i] = requests[admin[i]] */\n      dup2\n      swap1\n      mstore\n      pop\n        /* \"fromAdmin.sol\":1854:1857  i++ */\n      dup1\n      dup1\n      tag_282\n      swap1\n      tag_137\n      jump\t// in\n    tag_282:\n      swap2\n      pop\n      pop\n        /* \"fromAdmin.sol\":1819:1919  for (uint i = 0; i < admin.length; i++) {   ... */\n      jump(tag_217)\n    tag_218:\n      pop\n        /* \"fromAdmin.sol\":1938:1944  result */\n      dup1\n        /* \"fromAdmin.sol\":1931:1944  return result */\n      swap2\n      pop\n      pop\n        /* \"fromAdmin.sol\":1674:1952  function getRequests() public view returns (listOfBnF[] memory) {... */\n      swap1\n      jump\t// out\n        /* \"fromAdmin.sol\":744:1603  function fromAdmin(string memory time_rn, string memory pname, string[][] memory bugs, string[][] memory features) public {... */\n    tag_35:\n        /* \"fromAdmin.sol\":877:904  listOfBnF storage temporary */\n      0x00\n        /* \"fromAdmin.sol\":907:915  requests */\n      dup1\n        /* \"fromAdmin.sol\":916:923  time_rn */\n      dup6\n        /* \"fromAdmin.sol\":907:924  requests[time_rn] */\n      mload(0x40)\n      tag_284\n      swap2\n      swap1\n      tag_140\n      jump\t// in\n    tag_284:\n      swap1\n      dup2\n      mstore\n      0x20\n      add\n      mload(0x40)\n      dup1\n      swap2\n      sub\n      swap1\n      keccak256\n        /* \"fromAdmin.sol\":877:924  listOfBnF storage temporary = requests[time_rn] */\n      swap1\n      pop\n        /* \"fromAdmin.sol\":935:940  admin */\n      0x02\n        /* \"fromAdmin.sol\":946:953  time_rn */\n      dup6\n        /* \"fromAdmin.sol\":935:954  admin.push(time_rn) */\n      swap1\n      dup1\n      0x01\n      dup2\n      sload\n      add\n      dup1\n      dup3\n      sstore\n      dup1\n      swap2\n      pop\n      pop\n      0x01\n      swap1\n      sub\n      swap1\n      0x00\n      mstore\n      keccak256(0x00, 0x20)\n      add\n      0x00\n      swap1\n      swap2\n      swap1\n      swap2\n      swap1\n      swap2\n      pop\n      swap1\n      dup2\n      tag_286\n      swap2\n      swap1\n      tag_143\n      jump\t// in\n    tag_286:\n      pop\n        /* \"fromAdmin.sol\":987:992  pname */\n      dup4\n        /* \"fromAdmin.sol\":965:974  temporary */\n      dup2\n        /* \"fromAdmin.sol\":965:984  temporary.patchName */\n      0x01\n      add\n        /* \"fromAdmin.sol\":965:992  temporary.patchName = pname */\n      swap1\n      dup2\n      tag_287\n      swap2\n      swap1\n      tag_143\n      jump\t// in\n    tag_287:\n      pop\n        /* \"fromAdmin.sol\":1024:1025  0 */\n      0x00\n        /* \"fromAdmin.sol\":1003:1012  temporary */\n      dup2\n        /* \"fromAdmin.sol\":1003:1021  temporary.approved */\n      0x07\n      add\n        /* \"fromAdmin.sol\":1003:1025  temporary.approved = 0 */\n      dup2\n      swap1\n      sstore\n      pop\n        /* \"fromAdmin.sol\":1057:1062  false */\n      0x00\n        /* \"fromAdmin.sol\":1036:1045  temporary */\n      dup2\n        /* \"fromAdmin.sol\":1036:1054  temporary.deployed */\n      0x05\n      add\n      0x00\n        /* \"fromAdmin.sol\":1036:1062  temporary.deployed = false */\n      0x0100\n      exp\n      dup2\n      sload\n      dup2\n      0xff\n      mul\n      not\n      and\n      swap1\n      dup4\n      iszero\n      iszero\n      mul\n      or\n      swap1\n      sstore\n      pop\n        /* \"fromAdmin.sol\":1094:1095  0 */\n      0x00\n        /* \"fromAdmin.sol\":1073:1082  temporary */\n      dup2\n        /* \"fromAdmin.sol\":1073:1091  temporary.uploaded */\n      0x06\n      add\n        /* \"fromAdmin.sol\":1073:1095  temporary.uploaded = 0 */\n      dup2\n      swap1\n      sstore\n      pop\n        /* \"fromAdmin.sol\":1131:1138  time_rn */\n      dup5\n        /* \"fromAdmin.sol\":1106:1115  temporary */\n      dup2\n        /* \"fromAdmin.sol\":1106:1128  temporary.timeofReport */\n      0x00\n      add\n        /* \"fromAdmin.sol\":1106:1138  temporary.timeofReport = time_rn */\n      swap1\n      dup2\n      tag_288\n      swap2\n      swap1\n      tag_143\n      jump\t// in\n    tag_288:\n      pop\n        /* \"fromAdmin.sol\":1156:1162  uint i */\n      0x00\n        /* \"fromAdmin.sol\":1151:1339  for (uint i = 0; i < bugs.length; i++) {... */\n    tag_289:\n        /* \"fromAdmin.sol\":1172:1176  bugs */\n      dup4\n        /* \"fromAdmin.sol\":1172:1183  bugs.length */\n      mload\n        /* \"fromAdmin.sol\":1168:1169  i */\n      dup2\n        /* \"fromAdmin.sol\":1168:1183  i < bugs.length */\n      lt\n        /* \"fromAdmin.sol\":1151:1339  for (uint i = 0; i < bugs.length; i++) {... */\n      iszero\n      tag_290\n      jumpi\n        /* \"fromAdmin.sol\":1205:1229  bugReport memory bugTemp */\n      0x00\n        /* \"fromAdmin.sol\":1233:1278  bugReport(bugs[i][0], bugs[i][1], bugs[i][2]) */\n      mload(0x40)\n      dup1\n      0x60\n      add\n      0x40\n      mstore\n      dup1\n        /* \"fromAdmin.sol\":1243:1247  bugs */\n      dup7\n        /* \"fromAdmin.sol\":1248:1249  i */\n      dup5\n        /* \"fromAdmin.sol\":1243:1250  bugs[i] */\n      dup2\n      mload\n      dup2\n      lt\n      tag_292\n      jumpi\n      tag_293\n      tag_74\n      jump\t// in\n    tag_293:\n    tag_292:\n      0x20\n      mul\n      0x20\n      add\n      add\n      mload\n        /* \"fromAdmin.sol\":1251:1252  0 */\n      0x00\n        /* \"fromAdmin.sol\":1243:1253  bugs[i][0] */\n      dup2\n      mload\n      dup2\n      lt\n      tag_294\n      jumpi\n      tag_295\n      tag_74\n      jump\t// in\n    tag_295:\n    tag_294:\n      0x20\n      mul\n      0x20\n      add\n      add\n      mload\n        /* \"fromAdmin.sol\":1233:1278  bugReport(bugs[i][0], bugs[i][1], bugs[i][2]) */\n      dup2\n      mstore\n      0x20\n      add\n        /* \"fromAdmin.sol\":1255:1259  bugs */\n      dup7\n        /* \"fromAdmin.sol\":1260:1261  i */\n      dup5\n        /* \"fromAdmin.sol\":1255:1262  bugs[i] */\n      dup2\n      mload\n      dup2\n      lt\n      tag_296\n      jumpi\n      tag_297\n      tag_74\n      jump\t// in\n    tag_297:\n    tag_296:\n      0x20\n      mul\n      0x20\n      add\n      add\n      mload\n        /* \"fromAdmin.sol\":1263:1264  1 */\n      0x01\n        /* \"fromAdmin.sol\":1255:1265  bugs[i][1] */\n      dup2\n      mload\n      dup2\n      lt\n      tag_298\n      jumpi\n      tag_299\n      tag_74\n      jump\t// in\n    tag_299:\n    tag_298:\n      0x20\n      mul\n      0x20\n      add\n      add\n      mload\n        /* \"fromAdmin.sol\":1233:1278  bugReport(bugs[i][0], bugs[i][1], bugs[i][2]) */\n      dup2\n      mstore\n      0x20\n      add\n        /* \"fromAdmin.sol\":1267:1271  bugs */\n      dup7\n        /* \"fromAdmin.sol\":1272:1273  i */\n      dup5\n        /* \"fromAdmin.sol\":1267:1274  bugs[i] */\n      dup2\n      mload\n      dup2\n      lt\n      tag_300\n      jumpi\n      tag_301\n      tag_74\n      jump\t// in\n    tag_301:\n    tag_300:\n      0x20\n      mul\n      0x20\n      add\n      add\n      mload\n        /* \"fromAdmin.sol\":1275:1276  2 */\n      0x02\n        /* \"fromAdmin.sol\":1267:1277  bugs[i][2] */\n      dup2\n      mload\n      dup2\n      lt\n      tag_302\n      jumpi\n      tag_303\n      tag_74\n      jump\t// in\n    tag_303:\n    tag_302:\n      0x20\n      mul\n      0x20\n      add\n      add\n      mload\n        /* \"fromAdmin.sol\":1233:1278  bugReport(bugs[i][0], bugs[i][1], bugs[i][2]) */\n      dup2\n      mstore\n      pop\n        /* \"fromAdmin.sol\":1205:1278  bugReport memory bugTemp =  bugReport(bugs[i][0], bugs[i][1], bugs[i][2]) */\n      swap1\n      pop\n        /* \"fromAdmin.sol\":1293:1302  temporary */\n      dup3\n        /* \"fromAdmin.sol\":1293:1313  temporary.bugRequest */\n      0x03\n      add\n        /* \"fromAdmin.sol\":1319:1326  bugTemp */\n      dup2\n        /* \"fromAdmin.sol\":1293:1327  temporary.bugRequest.push(bugTemp) */\n      swap1\n      dup1\n      0x01\n      dup2\n      sload\n      add\n      dup1\n      dup3\n      sstore\n      dup1\n      swap2\n      pop\n      pop\n      0x01\n      swap1\n      sub\n      swap1\n      0x00\n      mstore\n      keccak256(0x00, 0x20)\n      swap1\n      0x03\n      mul\n      add\n      0x00\n      swap1\n      swap2\n      swap1\n      swap2\n      swap1\n      swap2\n      pop\n      0x00\n      dup3\n      add\n      mload\n      dup2\n      0x00\n      add\n      swap1\n      dup2\n      tag_305\n      swap2\n      swap1\n      tag_143\n      jump\t// in\n    tag_305:\n      pop\n      0x20\n      dup3\n      add\n      mload\n      dup2\n      0x01\n      add\n      swap1\n      dup2\n      tag_306\n      swap2\n      swap1\n      tag_143\n      jump\t// in\n    tag_306:\n      pop\n      0x40\n      dup3\n      add\n      mload\n      dup2\n      0x02\n      add\n      swap1\n      dup2\n      tag_307\n      swap2\n      swap1\n      tag_143\n      jump\t// in\n    tag_307:\n      pop\n      pop\n      pop\n        /* \"fromAdmin.sol\":1190:1339  {... */\n      pop\n        /* \"fromAdmin.sol\":1185:1188  i++ */\n      dup1\n      dup1\n      tag_308\n      swap1\n      tag_137\n      jump\t// in\n    tag_308:\n      swap2\n      pop\n      pop\n        /* \"fromAdmin.sol\":1151:1339  for (uint i = 0; i < bugs.length; i++) {... */\n      jump(tag_289)\n    tag_290:\n      pop\n        /* \"fromAdmin.sol\":1364:1370  uint i */\n      0x00\n        /* \"fromAdmin.sol\":1359:1596  for (uint i = 0; i < features.length; i++) {... */\n    tag_309:\n        /* \"fromAdmin.sol\":1380:1388  features */\n      dup3\n        /* \"fromAdmin.sol\":1380:1395  features.length */\n      mload\n        /* \"fromAdmin.sol\":1376:1377  i */\n      dup2\n        /* \"fromAdmin.sol\":1376:1395  i < features.length */\n      lt\n        /* \"fromAdmin.sol\":1359:1596  for (uint i = 0; i < features.length; i++) {... */\n      iszero\n      tag_310\n      jumpi\n        /* \"fromAdmin.sol\":1417:1449  featureReport memory featureTemp */\n      0x00\n        /* \"fromAdmin.sol\":1452:1513  featureReport(features[i][0], features[i][1], features[i][2]) */\n      mload(0x40)\n      dup1\n      0x60\n      add\n      0x40\n      mstore\n      dup1\n        /* \"fromAdmin.sol\":1466:1474  features */\n      dup6\n        /* \"fromAdmin.sol\":1475:1476  i */\n      dup5\n        /* \"fromAdmin.sol\":1466:1477  features[i] */\n      dup2\n      mload\n      dup2\n      lt\n      tag_312\n      jumpi\n      tag_313\n      tag_74\n      jump\t// in\n    tag_313:\n    tag_312:\n      0x20\n      mul\n      0x20\n      add\n      add\n      mload\n        /* \"fromAdmin.sol\":1478:1479  0 */\n      0x00\n        /* \"fromAdmin.sol\":1466:1480  features[i][0] */\n      dup2\n      mload\n      dup2\n      lt\n      tag_314\n      jumpi\n      tag_315\n      tag_74\n      jump\t// in\n    tag_315:\n    tag_314:\n      0x20\n      mul\n      0x20\n      add\n      add\n      mload\n        /* \"fromAdmin.sol\":1452:1513  featureReport(features[i][0], features[i][1], features[i][2]) */\n      dup2\n      mstore\n      0x20\n      add\n        /* \"fromAdmin.sol\":1482:1490  features */\n      dup6\n        /* \"fromAdmin.sol\":1491:1492  i */\n      dup5\n        /* \"fromAdmin.sol\":1482:1493  features[i] */\n      dup2\n      mload\n      dup2\n      lt\n      tag_316\n      jumpi\n      tag_317\n      tag_74\n      jump\t// in\n    tag_317:\n    tag_316:\n      0x20\n      mul\n      0x20\n      add\n      add\n      mload\n        /* \"fromAdmin.sol\":1494:1495  1 */\n      0x01\n        /* \"fromAdmin.sol\":1482:1496  features[i][1] */\n      dup2\n      mload\n      dup2\n      lt\n      tag_318\n      jumpi\n      tag_319\n      tag_74\n      jump\t// in\n    tag_319:\n    tag_318:\n      0x20\n      mul\n      0x20\n      add\n      add\n      mload\n        /* \"fromAdmin.sol\":1452:1513  featureReport(features[i][0], features[i][1], features[i][2]) */\n      dup2\n      mstore\n      0x20\n      add\n        /* \"fromAdmin.sol\":1498:1506  features */\n      dup6\n        /* \"fromAdmin.sol\":1507:1508  i */\n      dup5\n        /* \"fromAdmin.sol\":1498:1509  features[i] */\n      dup2\n      mload\n      dup2\n      lt\n      tag_320\n      jumpi\n      tag_321\n      tag_74\n      jump\t// in\n    tag_321:\n    tag_320:\n      0x20\n      mul\n      0x20\n      add\n      add\n      mload\n        /* \"fromAdmin.sol\":1510:1511  2 */\n      0x02\n        /* \"fromAdmin.sol\":1498:1512  features[i][2] */\n      dup2\n      mload\n      dup2\n      lt\n      tag_322\n      jumpi\n      tag_323\n      tag_74\n      jump\t// in\n    tag_323:\n    tag_322:\n      0x20\n      mul\n      0x20\n      add\n      add\n      mload\n        /* \"fromAdmin.sol\":1452:1513  featureReport(features[i][0], features[i][1], features[i][2]) */\n      dup2\n      mstore\n      pop\n        /* \"fromAdmin.sol\":1417:1513  featureReport memory featureTemp = featureReport(features[i][0], features[i][1], features[i][2]) */\n      swap1\n      pop\n        /* \"fromAdmin.sol\":1542:1551  temporary */\n      dup3\n        /* \"fromAdmin.sol\":1542:1566  temporary.featureRequest */\n      0x04\n      add\n        /* \"fromAdmin.sol\":1572:1583  featureTemp */\n      dup2\n        /* \"fromAdmin.sol\":1542:1584  temporary.featureRequest.push(featureTemp) */\n      swap1\n      dup1\n      0x01\n      dup2\n      sload\n      add\n      dup1\n      dup3\n      sstore\n      dup1\n      swap2\n      pop\n      pop\n      0x01\n      swap1\n      sub\n      swap1\n      0x00\n      mstore\n      keccak256(0x00, 0x20)\n      swap1\n      0x03\n      mul\n      add\n      0x00\n      swap1\n      swap2\n      swap1\n      swap2\n      swap1\n      swap2\n      pop\n      0x00\n      dup3\n      add\n      mload\n      dup2\n      0x00\n      add\n      swap1\n      dup2\n      tag_325\n      swap2\n      swap1\n      tag_143\n      jump\t// in\n    tag_325:\n      pop\n      0x20\n      dup3\n      add\n      mload\n      dup2\n      0x01\n      add\n      swap1\n      dup2\n      tag_326\n      swap2\n      swap1\n      tag_143\n      jump\t// in\n    tag_326:\n      pop\n      0x40\n      dup3\n      add\n      mload\n      dup2\n      0x02\n      add\n      swap1\n      dup2\n      tag_327\n      swap2\n      swap1\n      tag_143\n      jump\t// in\n    tag_327:\n      pop\n      pop\n      pop\n        /* \"fromAdmin.sol\":1402:1596  {... */\n      pop\n        /* \"fromAdmin.sol\":1397:1400  i++ */\n      dup1\n      dup1\n      tag_328\n      swap1\n      tag_137\n      jump\t// in\n    tag_328:\n      swap2\n      pop\n      pop\n        /* \"fromAdmin.sol\":1359:1596  for (uint i = 0; i < features.length; i++) {... */\n      jump(tag_309)\n    tag_310:\n      pop\n        /* \"fromAdmin.sol\":866:1603  {... */\n      pop\n        /* \"fromAdmin.sol\":744:1603  function fromAdmin(string memory time_rn, string memory pname, string[][] memory bugs, string[][] memory features) public {... */\n      pop\n      pop\n      pop\n      pop\n      jump\t// out\n        /* \"fromAdmin.sol\":3478:3726  function approval(string memory time_rn, int status, string memory time_ofdev) public{... */\n    tag_39:\n        /* \"fromAdmin.sol\":3607:3613  status */\n      dup2\n        /* \"fromAdmin.sol\":3574:3583  developer */\n      0x01\n        /* \"fromAdmin.sol\":3584:3594  time_ofdev */\n      dup3\n        /* \"fromAdmin.sol\":3574:3595  developer[time_ofdev] */\n      mload(0x40)\n      tag_330\n      swap2\n      swap1\n      tag_140\n      jump\t// in\n    tag_330:\n      swap1\n      dup2\n      mstore\n      0x20\n      add\n      mload(0x40)\n      dup1\n      swap2\n      sub\n      swap1\n      keccak256\n        /* \"fromAdmin.sol\":3574:3604  developer[time_ofdev].approved */\n      0x07\n      add\n        /* \"fromAdmin.sol\":3574:3613  developer[time_ofdev].approved = status */\n      dup2\n      swap1\n      sstore\n      pop\n        /* \"fromAdmin.sol\":3657:3663  status */\n      dup2\n        /* \"fromAdmin.sol\":3624:3633  developer */\n      0x01\n        /* \"fromAdmin.sol\":3634:3644  time_ofdev */\n      dup3\n        /* \"fromAdmin.sol\":3624:3645  developer[time_ofdev] */\n      mload(0x40)\n      tag_331\n      swap2\n      swap1\n      tag_140\n      jump\t// in\n    tag_331:\n      swap1\n      dup2\n      mstore\n      0x20\n      add\n      mload(0x40)\n      dup1\n      swap2\n      sub\n      swap1\n      keccak256\n        /* \"fromAdmin.sol\":3624:3654  developer[time_ofdev].uploaded */\n      0x06\n      add\n        /* \"fromAdmin.sol\":3624:3663  developer[time_ofdev].uploaded = status */\n      dup2\n      swap1\n      sstore\n      pop\n        /* \"fromAdmin.sol\":3711:3718  time_rn */\n      dup3\n        /* \"fromAdmin.sol\":3674:3683  developer */\n      0x01\n        /* \"fromAdmin.sol\":3684:3694  time_ofdev */\n      dup3\n        /* \"fromAdmin.sol\":3674:3695  developer[time_ofdev] */\n      mload(0x40)\n      tag_332\n      swap2\n      swap1\n      tag_140\n      jump\t// in\n    tag_332:\n      swap1\n      dup2\n      mstore\n      0x20\n      add\n      mload(0x40)\n      dup1\n      swap2\n      sub\n      swap1\n      keccak256\n        /* \"fromAdmin.sol\":3674:3708  developer[time_ofdev].timeofReport */\n      0x00\n      add\n        /* \"fromAdmin.sol\":3674:3718  developer[time_ofdev].timeofReport = time_rn */\n      swap1\n      dup2\n      tag_333\n      swap2\n      swap1\n      tag_143\n      jump\t// in\n    tag_333:\n      pop\n        /* \"fromAdmin.sol\":3478:3726  function approval(string memory time_rn, int status, string memory time_ofdev) public{... */\n      pop\n      pop\n      pop\n      jump\t// out\n    tag_68:\n      mload(0x40)\n      dup1\n      0x0120\n      add\n      0x40\n      mstore\n      dup1\n      0x60\n      dup2\n      mstore\n      0x20\n      add\n      0x60\n      dup2\n      mstore\n      0x20\n      add\n      0x60\n      dup2\n      mstore\n      0x20\n      add\n      0x60\n      dup2\n      mstore\n      0x20\n      add\n      0x60\n      dup2\n      mstore\n      0x20\n      add\n      iszero(iszero(0x00))\n      dup2\n      mstore\n      0x20\n      add\n      0x00\n      dup2\n      mstore\n      0x20\n      add\n      0x00\n      dup2\n      mstore\n      0x20\n      add\n      0x60\n      dup2\n      mstore\n      pop\n      swap1\n      jump\t// out\n        /* \"#utility.yul\":7:82   */\n    tag_334:\n        /* \"#utility.yul\":40:46   */\n      0x00\n        /* \"#utility.yul\":73:75   */\n      0x40\n        /* \"#utility.yul\":67:76   */\n      mload\n        /* \"#utility.yul\":57:76   */\n      swap1\n      pop\n        /* \"#utility.yul\":7:82   */\n      swap1\n      jump\t// out\n        /* \"#utility.yul\":88:205   */\n    tag_335:\n        /* \"#utility.yul\":197:198   */\n      0x00\n        /* \"#utility.yul\":194:195   */\n      dup1\n        /* \"#utility.yul\":187:199   */\n      revert\n        /* \"#utility.yul\":211:328   */\n    tag_336:\n        /* \"#utility.yul\":320:321   */\n      0x00\n        /* \"#utility.yul\":317:318   */\n      dup1\n        /* \"#utility.yul\":310:322   */\n      revert\n        /* \"#utility.yul\":334:451   */\n    tag_337:\n        /* \"#utility.yul\":443:444   */\n      0x00\n        /* \"#utility.yul\":440:441   */\n      dup1\n        /* \"#utility.yul\":433:445   */\n      revert\n        /* \"#utility.yul\":457:574   */\n    tag_338:\n        /* \"#utility.yul\":566:567   */\n      0x00\n        /* \"#utility.yul\":563:564   */\n      dup1\n        /* \"#utility.yul\":556:568   */\n      revert\n        /* \"#utility.yul\":580:682   */\n    tag_339:\n        /* \"#utility.yul\":621:627   */\n      0x00\n        /* \"#utility.yul\":672:674   */\n      0x1f\n        /* \"#utility.yul\":668:675   */\n      not\n        /* \"#utility.yul\":663:665   */\n      0x1f\n        /* \"#utility.yul\":656:661   */\n      dup4\n        /* \"#utility.yul\":652:666   */\n      add\n        /* \"#utility.yul\":648:676   */\n      and\n        /* \"#utility.yul\":638:676   */\n      swap1\n      pop\n        /* \"#utility.yul\":580:682   */\n      swap2\n      swap1\n      pop\n      jump\t// out\n        /* \"#utility.yul\":688:868   */\n    tag_64:\n        /* \"#utility.yul\":736:813   */\n      0x4e487b7100000000000000000000000000000000000000000000000000000000\n        /* \"#utility.yul\":733:734   */\n      0x00\n        /* \"#utility.yul\":726:814   */\n      mstore\n        /* \"#utility.yul\":833:837   */\n      0x41\n        /* \"#utility.yul\":830:831   */\n      0x04\n        /* \"#utility.yul\":823:838   */\n      mstore\n        /* \"#utility.yul\":857:861   */\n      0x24\n        /* \"#utility.yul\":854:855   */\n      0x00\n        /* \"#utility.yul\":847:862   */\n      revert\n        /* \"#utility.yul\":874:1155   */\n    tag_340:\n        /* \"#utility.yul\":957:984   */\n      tag_428\n        /* \"#utility.yul\":979:983   */\n      dup3\n        /* \"#utility.yul\":957:984   */\n      tag_339\n      jump\t// in\n    tag_428:\n        /* \"#utility.yul\":949:955   */\n      dup2\n        /* \"#utility.yul\":945:985   */\n      add\n        /* \"#utility.yul\":1087:1093   */\n      dup2\n        /* \"#utility.yul\":1075:1085   */\n      dup2\n        /* \"#utility.yul\":1072:1094   */\n      lt\n        /* \"#utility.yul\":1051:1069   */\n      0xffffffffffffffff\n        /* \"#utility.yul\":1039:1049   */\n      dup3\n        /* \"#utility.yul\":1036:1070   */\n      gt\n        /* \"#utility.yul\":1033:1095   */\n      or\n        /* \"#utility.yul\":1030:1118   */\n      iszero\n      tag_429\n      jumpi\n        /* \"#utility.yul\":1098:1116   */\n      tag_430\n      tag_64\n      jump\t// in\n    tag_430:\n        /* \"#utility.yul\":1030:1118   */\n    tag_429:\n        /* \"#utility.yul\":1138:1148   */\n      dup1\n        /* \"#utility.yul\":1134:1136   */\n      0x40\n        /* \"#utility.yul\":1127:1149   */\n      mstore\n        /* \"#utility.yul\":917:1155   */\n      pop\n        /* \"#utility.yul\":874:1155   */\n      pop\n      pop\n      jump\t// out\n        /* \"#utility.yul\":1161:1290   */\n    tag_341:\n        /* \"#utility.yul\":1195:1201   */\n      0x00\n        /* \"#utility.yul\":1222:1242   */\n      tag_432\n      tag_334\n      jump\t// in\n    tag_432:\n        /* \"#utility.yul\":1212:1242   */\n      swap1\n      pop\n        /* \"#utility.yul\":1251:1284   */\n      tag_433\n        /* \"#utility.yul\":1279:1283   */\n      dup3\n        /* \"#utility.yul\":1271:1277   */\n      dup3\n        /* \"#utility.yul\":1251:1284   */\n      tag_340\n      jump\t// in\n    tag_433:\n        /* \"#utility.yul\":1161:1290   */\n      swap2\n      swap1\n      pop\n      jump\t// out\n        /* \"#utility.yul\":1296:1604   */\n    tag_342:\n        /* \"#utility.yul\":1358:1362   */\n      0x00\n        /* \"#utility.yul\":1448:1466   */\n      0xffffffffffffffff\n        /* \"#utility.yul\":1440:1446   */\n      dup3\n        /* \"#utility.yul\":1437:1467   */\n      gt\n        /* \"#utility.yul\":1434:1490   */\n      iszero\n      tag_435\n      jumpi\n        /* \"#utility.yul\":1470:1488   */\n      tag_436\n      tag_64\n      jump\t// in\n    tag_436:\n        /* \"#utility.yul\":1434:1490   */\n    tag_435:\n        /* \"#utility.yul\":1508:1537   */\n      tag_437\n        /* \"#utility.yul\":1530:1536   */\n      dup3\n        /* \"#utility.yul\":1508:1537   */\n      tag_339\n      jump\t// in\n    tag_437:\n        /* \"#utility.yul\":1500:1537   */\n      swap1\n      pop\n        /* \"#utility.yul\":1592:1596   */\n      0x20\n        /* \"#utility.yul\":1586:1590   */\n      dup2\n        /* \"#utility.yul\":1582:1597   */\n      add\n        /* \"#utility.yul\":1574:1597   */\n      swap1\n      pop\n        /* \"#utility.yul\":1296:1604   */\n      swap2\n      swap1\n      pop\n      jump\t// out\n        /* \"#utility.yul\":1610:1756   */\n    tag_343:\n        /* \"#utility.yul\":1707:1713   */\n      dup3\n        /* \"#utility.yul\":1702:1705   */\n      dup2\n        /* \"#utility.yul\":1697:1700   */\n      dup4\n        /* \"#utility.yul\":1684:1714   */\n      calldatacopy\n        /* \"#utility.yul\":1748:1749   */\n      0x00\n        /* \"#utility.yul\":1739:1745   */\n      dup4\n        /* \"#utility.yul\":1734:1737   */\n      dup4\n        /* \"#utility.yul\":1730:1746   */\n      add\n        /* \"#utility.yul\":1723:1750   */\n      mstore\n        /* \"#utility.yul\":1610:1756   */\n      pop\n      pop\n      pop\n      jump\t// out\n        /* \"#utility.yul\":1762:2187   */\n    tag_344:\n        /* \"#utility.yul\":1840:1845   */\n      0x00\n        /* \"#utility.yul\":1865:1931   */\n      tag_440\n        /* \"#utility.yul\":1881:1930   */\n      tag_441\n        /* \"#utility.yul\":1923:1929   */\n      dup5\n        /* \"#utility.yul\":1881:1930   */\n      tag_342\n      jump\t// in\n    tag_441:\n        /* \"#utility.yul\":1865:1931   */\n      tag_341\n      jump\t// in\n    tag_440:\n        /* \"#utility.yul\":1856:1931   */\n      swap1\n      pop\n        /* \"#utility.yul\":1954:1960   */\n      dup3\n        /* \"#utility.yul\":1947:1952   */\n      dup2\n        /* \"#utility.yul\":1940:1961   */\n      mstore\n        /* \"#utility.yul\":1992:1996   */\n      0x20\n        /* \"#utility.yul\":1985:1990   */\n      dup2\n        /* \"#utility.yul\":1981:1997   */\n      add\n        /* \"#utility.yul\":2030:2033   */\n      dup5\n        /* \"#utility.yul\":2021:2027   */\n      dup5\n        /* \"#utility.yul\":2016:2019   */\n      dup5\n        /* \"#utility.yul\":2012:2028   */\n      add\n        /* \"#utility.yul\":2009:2034   */\n      gt\n        /* \"#utility.yul\":2006:2118   */\n      iszero\n      tag_442\n      jumpi\n        /* \"#utility.yul\":2037:2116   */\n      tag_443\n      tag_338\n      jump\t// in\n    tag_443:\n        /* \"#utility.yul\":2006:2118   */\n    tag_442:\n        /* \"#utility.yul\":2127:2181   */\n      tag_444\n        /* \"#utility.yul\":2174:2180   */\n      dup5\n        /* \"#utility.yul\":2169:2172   */\n      dup3\n        /* \"#utility.yul\":2164:2167   */\n      dup6\n        /* \"#utility.yul\":2127:2181   */\n      tag_343\n      jump\t// in\n    tag_444:\n        /* \"#utility.yul\":1846:2187   */\n      pop\n        /* \"#utility.yul\":1762:2187   */\n      swap4\n      swap3\n      pop\n      pop\n      pop\n      jump\t// out\n        /* \"#utility.yul\":2207:2547   */\n    tag_345:\n        /* \"#utility.yul\":2263:2268   */\n      0x00\n        /* \"#utility.yul\":2312:2315   */\n      dup3\n        /* \"#utility.yul\":2305:2309   */\n      0x1f\n        /* \"#utility.yul\":2297:2303   */\n      dup4\n        /* \"#utility.yul\":2293:2310   */\n      add\n        /* \"#utility.yul\":2289:2316   */\n      slt\n        /* \"#utility.yul\":2279:2401   */\n      tag_446\n      jumpi\n        /* \"#utility.yul\":2320:2399   */\n      tag_447\n      tag_337\n      jump\t// in\n    tag_447:\n        /* \"#utility.yul\":2279:2401   */\n    tag_446:\n        /* \"#utility.yul\":2437:2443   */\n      dup2\n        /* \"#utility.yul\":2424:2444   */\n      calldataload\n        /* \"#utility.yul\":2462:2541   */\n      tag_448\n        /* \"#utility.yul\":2537:2540   */\n      dup5\n        /* \"#utility.yul\":2529:2535   */\n      dup3\n        /* \"#utility.yul\":2522:2526   */\n      0x20\n        /* \"#utility.yul\":2514:2520   */\n      dup7\n        /* \"#utility.yul\":2510:2527   */\n      add\n        /* \"#utility.yul\":2462:2541   */\n      tag_344\n      jump\t// in\n    tag_448:\n        /* \"#utility.yul\":2453:2541   */\n      swap2\n      pop\n        /* \"#utility.yul\":2269:2547   */\n      pop\n        /* \"#utility.yul\":2207:2547   */\n      swap3\n      swap2\n      pop\n      pop\n      jump\t// out\n        /* \"#utility.yul\":2553:3062   */\n    tag_13:\n        /* \"#utility.yul\":2622:2628   */\n      0x00\n        /* \"#utility.yul\":2671:2673   */\n      0x20\n        /* \"#utility.yul\":2659:2668   */\n      dup3\n        /* \"#utility.yul\":2650:2657   */\n      dup5\n        /* \"#utility.yul\":2646:2669   */\n      sub\n        /* \"#utility.yul\":2642:2674   */\n      slt\n        /* \"#utility.yul\":2639:2758   */\n      iszero\n      tag_450\n      jumpi\n        /* \"#utility.yul\":2677:2756   */\n      tag_451\n      tag_335\n      jump\t// in\n    tag_451:\n        /* \"#utility.yul\":2639:2758   */\n    tag_450:\n        /* \"#utility.yul\":2825:2826   */\n      0x00\n        /* \"#utility.yul\":2814:2823   */\n      dup3\n        /* \"#utility.yul\":2810:2827   */\n      add\n        /* \"#utility.yul\":2797:2828   */\n      calldataload\n        /* \"#utility.yul\":2855:2873   */\n      0xffffffffffffffff\n        /* \"#utility.yul\":2847:2853   */\n      dup2\n        /* \"#utility.yul\":2844:2874   */\n      gt\n        /* \"#utility.yul\":2841:2958   */\n      iszero\n      tag_452\n      jumpi\n        /* \"#utility.yul\":2877:2956   */\n      tag_453\n      tag_336\n      jump\t// in\n    tag_453:\n        /* \"#utility.yul\":2841:2958   */\n    tag_452:\n        /* \"#utility.yul\":2982:3045   */\n      tag_454\n        /* \"#utility.yul\":3037:3044   */\n      dup5\n        /* \"#utility.yul\":3028:3034   */\n      dup3\n        /* \"#utility.yul\":3017:3026   */\n      dup6\n        /* \"#utility.yul\":3013:3035   */\n      add\n        /* \"#utility.yul\":2982:3045   */\n      tag_345\n      jump\t// in\n    tag_454:\n        /* \"#utility.yul\":2972:3045   */\n      swap2\n      pop\n        /* \"#utility.yul\":2768:3055   */\n      pop\n        /* \"#utility.yul\":2553:3062   */\n      swap3\n      swap2\n      pop\n      pop\n      jump\t// out\n        /* \"#utility.yul\":3068:3167   */\n    tag_346:\n        /* \"#utility.yul\":3120:3126   */\n      0x00\n        /* \"#utility.yul\":3154:3159   */\n      dup2\n        /* \"#utility.yul\":3148:3160   */\n      mload\n        /* \"#utility.yul\":3138:3160   */\n      swap1\n      pop\n        /* \"#utility.yul\":3068:3167   */\n      swap2\n      swap1\n      pop\n      jump\t// out\n        /* \"#utility.yul\":3173:3342   */\n    tag_347:\n        /* \"#utility.yul\":3257:3268   */\n      0x00\n        /* \"#utility.yul\":3291:3297   */\n      dup3\n        /* \"#utility.yul\":3286:3289   */\n      dup3\n        /* \"#utility.yul\":3279:3298   */\n      mstore\n        /* \"#utility.yul\":3331:3335   */\n      0x20\n        /* \"#utility.yul\":3326:3329   */\n      dup3\n        /* \"#utility.yul\":3322:3336   */\n      add\n        /* \"#utility.yul\":3307:3336   */\n      swap1\n      pop\n        /* \"#utility.yul\":3173:3342   */\n      swap3\n      swap2\n      pop\n      pop\n      jump\t// out\n        /* \"#utility.yul\":3348:3594   */\n    tag_348:\n        /* \"#utility.yul\":3429:3430   */\n      0x00\n        /* \"#utility.yul\":3439:3552   */\n    tag_458:\n        /* \"#utility.yul\":3453:3459   */\n      dup4\n        /* \"#utility.yul\":3450:3451   */\n      dup2\n        /* \"#utility.yul\":3447:3460   */\n      lt\n        /* \"#utility.yul\":3439:3552   */\n      iszero\n      tag_460\n      jumpi\n        /* \"#utility.yul\":3538:3539   */\n      dup1\n        /* \"#utility.yul\":3533:3536   */\n      dup3\n        /* \"#utility.yul\":3529:3540   */\n      add\n        /* \"#utility.yul\":3523:3541   */\n      mload\n        /* \"#utility.yul\":3519:3520   */\n      dup2\n        /* \"#utility.yul\":3514:3517   */\n      dup5\n        /* \"#utility.yul\":3510:3521   */\n      add\n        /* \"#utility.yul\":3503:3542   */\n      mstore\n        /* \"#utility.yul\":3475:3477   */\n      0x20\n        /* \"#utility.yul\":3472:3473   */\n      dup2\n        /* \"#utility.yul\":3468:3478   */\n      add\n        /* \"#utility.yul\":3463:3478   */\n      swap1\n      pop\n        /* \"#utility.yul\":3439:3552   */\n      jump(tag_458)\n    tag_460:\n        /* \"#utility.yul\":3586:3587   */\n      0x00\n        /* \"#utility.yul\":3577:3583   */\n      dup5\n        /* \"#utility.yul\":3572:3575   */\n      dup5\n        /* \"#utility.yul\":3568:3584   */\n      add\n        /* \"#utility.yul\":3561:3588   */\n      mstore\n        /* \"#utility.yul\":3410:3594   */\n      pop\n        /* \"#utility.yul\":3348:3594   */\n      pop\n      pop\n      pop\n      jump\t// out\n        /* \"#utility.yul\":3600:3977   */\n    tag_349:\n        /* \"#utility.yul\":3688:3691   */\n      0x00\n        /* \"#utility.yul\":3716:3755   */\n      tag_462\n        /* \"#utility.yul\":3749:3754   */\n      dup3\n        /* \"#utility.yul\":3716:3755   */\n      tag_346\n      jump\t// in\n    tag_462:\n        /* \"#utility.yul\":3771:3842   */\n      tag_463\n        /* \"#utility.yul\":3835:3841   */\n      dup2\n        /* \"#utility.yul\":3830:3833   */\n      dup6\n        /* \"#utility.yul\":3771:3842   */\n      tag_347\n      jump\t// in\n    tag_463:\n        /* \"#utility.yul\":3764:3842   */\n      swap4\n      pop\n        /* \"#utility.yul\":3851:3916   */\n      tag_464\n        /* \"#utility.yul\":3909:3915   */\n      dup2\n        /* \"#utility.yul\":3904:3907   */\n      dup6\n        /* \"#utility.yul\":3897:3901   */\n      0x20\n        /* \"#utility.yul\":3890:3895   */\n      dup7\n        /* \"#utility.yul\":3886:3902   */\n      add\n        /* \"#utility.yul\":3851:3916   */\n      tag_348\n      jump\t// in\n    tag_464:\n        /* \"#utility.yul\":3941:3970   */\n      tag_465\n        /* \"#utility.yul\":3963:3969   */\n      dup2\n        /* \"#utility.yul\":3941:3970   */\n      tag_339\n      jump\t// in\n    tag_465:\n        /* \"#utility.yul\":3936:3939   */\n      dup5\n        /* \"#utility.yul\":3932:3971   */\n      add\n        /* \"#utility.yul\":3925:3971   */\n      swap2\n      pop\n        /* \"#utility.yul\":3692:3977   */\n      pop\n        /* \"#utility.yul\":3600:3977   */\n      swap3\n      swap2\n      pop\n      pop\n      jump\t// out\n        /* \"#utility.yul\":3983:4073   */\n    tag_350:\n        /* \"#utility.yul\":4017:4024   */\n      0x00\n        /* \"#utility.yul\":4060:4065   */\n      dup2\n        /* \"#utility.yul\":4053:4066   */\n      iszero\n        /* \"#utility.yul\":4046:4067   */\n      iszero\n        /* \"#utility.yul\":4035:4067   */\n      swap1\n      pop\n        /* \"#utility.yul\":3983:4073   */\n      swap2\n      swap1\n      pop\n      jump\t// out\n        /* \"#utility.yul\":4079:4188   */\n    tag_351:\n        /* \"#utility.yul\":4160:4181   */\n      tag_468\n        /* \"#utility.yul\":4175:4180   */\n      dup2\n        /* \"#utility.yul\":4160:4181   */\n      tag_350\n      jump\t// in\n    tag_468:\n        /* \"#utility.yul\":4155:4158   */\n      dup3\n        /* \"#utility.yul\":4148:4182   */\n      mstore\n        /* \"#utility.yul\":4079:4188   */\n      pop\n      pop\n      jump\t// out\n        /* \"#utility.yul\":4194:4270   */\n    tag_352:\n        /* \"#utility.yul\":4230:4237   */\n      0x00\n        /* \"#utility.yul\":4259:4264   */\n      dup2\n        /* \"#utility.yul\":4248:4264   */\n      swap1\n      pop\n        /* \"#utility.yul\":4194:4270   */\n      swap2\n      swap1\n      pop\n      jump\t// out\n        /* \"#utility.yul\":4276:4391   */\n    tag_353:\n        /* \"#utility.yul\":4361:4384   */\n      tag_471\n        /* \"#utility.yul\":4378:4383   */\n      dup2\n        /* \"#utility.yul\":4361:4384   */\n      tag_352\n      jump\t// in\n    tag_471:\n        /* \"#utility.yul\":4356:4359   */\n      dup3\n        /* \"#utility.yul\":4349:4385   */\n      mstore\n        /* \"#utility.yul\":4276:4391   */\n      pop\n      pop\n      jump\t// out\n        /* \"#utility.yul\":4397:4495   */\n    tag_354:\n        /* \"#utility.yul\":4448:4454   */\n      0x00\n        /* \"#utility.yul\":4482:4487   */\n      dup2\n        /* \"#utility.yul\":4476:4488   */\n      mload\n        /* \"#utility.yul\":4466:4488   */\n      swap1\n      pop\n        /* \"#utility.yul\":4397:4495   */\n      swap2\n      swap1\n      pop\n      jump\t// out\n        /* \"#utility.yul\":4501:4669   */\n    tag_355:\n        /* \"#utility.yul\":4584:4595   */\n      0x00\n        /* \"#utility.yul\":4618:4624   */\n      dup3\n        /* \"#utility.yul\":4613:4616   */\n      dup3\n        /* \"#utility.yul\":4606:4625   */\n      mstore\n        /* \"#utility.yul\":4658:4662   */\n      0x20\n        /* \"#utility.yul\":4653:4656   */\n      dup3\n        /* \"#utility.yul\":4649:4663   */\n      add\n        /* \"#utility.yul\":4634:4663   */\n      swap1\n      pop\n        /* \"#utility.yul\":4501:4669   */\n      swap3\n      swap2\n      pop\n      pop\n      jump\t// out\n        /* \"#utility.yul\":4675:5048   */\n    tag_356:\n        /* \"#utility.yul\":4761:4764   */\n      0x00\n        /* \"#utility.yul\":4789:4827   */\n      tag_475\n        /* \"#utility.yul\":4821:4826   */\n      dup3\n        /* \"#utility.yul\":4789:4827   */\n      tag_354\n      jump\t// in\n    tag_475:\n        /* \"#utility.yul\":4843:4913   */\n      tag_476\n        /* \"#utility.yul\":4906:4912   */\n      dup2\n        /* \"#utility.yul\":4901:4904   */\n      dup6\n        /* \"#utility.yul\":4843:4913   */\n      tag_355\n      jump\t// in\n    tag_476:\n        /* \"#utility.yul\":4836:4913   */\n      swap4\n      pop\n        /* \"#utility.yul\":4922:4987   */\n      tag_477\n        /* \"#utility.yul\":4980:4986   */\n      dup2\n        /* \"#utility.yul\":4975:4978   */\n      dup6\n        /* \"#utility.yul\":4968:4972   */\n      0x20\n        /* \"#utility.yul\":4961:4966   */\n      dup7\n        /* \"#utility.yul\":4957:4973   */\n      add\n        /* \"#utility.yul\":4922:4987   */\n      tag_348\n      jump\t// in\n    tag_477:\n        /* \"#utility.yul\":5012:5041   */\n      tag_478\n        /* \"#utility.yul\":5034:5040   */\n      dup2\n        /* \"#utility.yul\":5012:5041   */\n      tag_339\n      jump\t// in\n    tag_478:\n        /* \"#utility.yul\":5007:5010   */\n      dup5\n        /* \"#utility.yul\":5003:5042   */\n      add\n        /* \"#utility.yul\":4996:5042   */\n      swap2\n      pop\n        /* \"#utility.yul\":4765:5048   */\n      pop\n        /* \"#utility.yul\":4675:5048   */\n      swap3\n      swap2\n      pop\n      pop\n      jump\t// out\n        /* \"#utility.yul\":5054:6280   */\n    tag_16:\n        /* \"#utility.yul\":5383:5387   */\n      0x00\n        /* \"#utility.yul\":5421:5424   */\n      0xe0\n        /* \"#utility.yul\":5410:5419   */\n      dup3\n        /* \"#utility.yul\":5406:5425   */\n      add\n        /* \"#utility.yul\":5398:5425   */\n      swap1\n      pop\n        /* \"#utility.yul\":5471:5480   */\n      dup2\n        /* \"#utility.yul\":5465:5469   */\n      dup2\n        /* \"#utility.yul\":5461:5481   */\n      sub\n        /* \"#utility.yul\":5457:5458   */\n      0x00\n        /* \"#utility.yul\":5446:5455   */\n      dup4\n        /* \"#utility.yul\":5442:5459   */\n      add\n        /* \"#utility.yul\":5435:5482   */\n      mstore\n        /* \"#utility.yul\":5499:5577   */\n      tag_480\n        /* \"#utility.yul\":5572:5576   */\n      dup2\n        /* \"#utility.yul\":5563:5569   */\n      dup11\n        /* \"#utility.yul\":5499:5577   */\n      tag_349\n      jump\t// in\n    tag_480:\n        /* \"#utility.yul\":5491:5577   */\n      swap1\n      pop\n        /* \"#utility.yul\":5624:5633   */\n      dup2\n        /* \"#utility.yul\":5618:5622   */\n      dup2\n        /* \"#utility.yul\":5614:5634   */\n      sub\n        /* \"#utility.yul\":5609:5611   */\n      0x20\n        /* \"#utility.yul\":5598:5607   */\n      dup4\n        /* \"#utility.yul\":5594:5612   */\n      add\n        /* \"#utility.yul\":5587:5635   */\n      mstore\n        /* \"#utility.yul\":5652:5730   */\n      tag_481\n        /* \"#utility.yul\":5725:5729   */\n      dup2\n        /* \"#utility.yul\":5716:5722   */\n      dup10\n        /* \"#utility.yul\":5652:5730   */\n      tag_349\n      jump\t// in\n    tag_481:\n        /* \"#utility.yul\":5644:5730   */\n      swap1\n      pop\n        /* \"#utility.yul\":5777:5786   */\n      dup2\n        /* \"#utility.yul\":5771:5775   */\n      dup2\n        /* \"#utility.yul\":5767:5787   */\n      sub\n        /* \"#utility.yul\":5762:5764   */\n      0x40\n        /* \"#utility.yul\":5751:5760   */\n      dup4\n        /* \"#utility.yul\":5747:5765   */\n      add\n        /* \"#utility.yul\":5740:5788   */\n      mstore\n        /* \"#utility.yul\":5805:5883   */\n      tag_482\n        /* \"#utility.yul\":5878:5882   */\n      dup2\n        /* \"#utility.yul\":5869:5875   */\n      dup9\n        /* \"#utility.yul\":5805:5883   */\n      tag_349\n      jump\t// in\n    tag_482:\n        /* \"#utility.yul\":5797:5883   */\n      swap1\n      pop\n        /* \"#utility.yul\":5893:5959   */\n      tag_483\n        /* \"#utility.yul\":5955:5957   */\n      0x60\n        /* \"#utility.yul\":5944:5953   */\n      dup4\n        /* \"#utility.yul\":5940:5958   */\n      add\n        /* \"#utility.yul\":5931:5937   */\n      dup8\n        /* \"#utility.yul\":5893:5959   */\n      tag_351\n      jump\t// in\n    tag_483:\n        /* \"#utility.yul\":5969:6040   */\n      tag_484\n        /* \"#utility.yul\":6035:6038   */\n      0x80\n        /* \"#utility.yul\":6024:6033   */\n      dup4\n        /* \"#utility.yul\":6020:6039   */\n      add\n        /* \"#utility.yul\":6011:6017   */\n      dup7\n        /* \"#utility.yul\":5969:6040   */\n      tag_353\n      jump\t// in\n    tag_484:\n        /* \"#utility.yul\":6050:6121   */\n      tag_485\n        /* \"#utility.yul\":6116:6119   */\n      0xa0\n        /* \"#utility.yul\":6105:6114   */\n      dup4\n        /* \"#utility.yul\":6101:6120   */\n      add\n        /* \"#utility.yul\":6092:6098   */\n      dup6\n        /* \"#utility.yul\":6050:6121   */\n      tag_353\n      jump\t// in\n    tag_485:\n        /* \"#utility.yul\":6169:6178   */\n      dup2\n        /* \"#utility.yul\":6163:6167   */\n      dup2\n        /* \"#utility.yul\":6159:6179   */\n      sub\n        /* \"#utility.yul\":6153:6156   */\n      0xc0\n        /* \"#utility.yul\":6142:6151   */\n      dup4\n        /* \"#utility.yul\":6138:6157   */\n      add\n        /* \"#utility.yul\":6131:6180   */\n      mstore\n        /* \"#utility.yul\":6197:6273   */\n      tag_486\n        /* \"#utility.yul\":6268:6272   */\n      dup2\n        /* \"#utility.yul\":6259:6265   */\n      dup5\n        /* \"#utility.yul\":6197:6273   */\n      tag_356\n      jump\t// in\n    tag_486:\n        /* \"#utility.yul\":6189:6273   */\n      swap1\n      pop\n        /* \"#utility.yul\":5054:6280   */\n      swap9\n      swap8\n      pop\n      pop\n      pop\n      pop\n      pop\n      pop\n      pop\n      pop\n      jump\t// out\n        /* \"#utility.yul\":6286:6425   */\n    tag_357:\n        /* \"#utility.yul\":6378:6384   */\n      0x00\n        /* \"#utility.yul\":6412:6417   */\n      dup2\n        /* \"#utility.yul\":6406:6418   */\n      mload\n        /* \"#utility.yul\":6396:6418   */\n      swap1\n      pop\n        /* \"#utility.yul\":6286:6425   */\n      swap2\n      swap1\n      pop\n      jump\t// out\n        /* \"#utility.yul\":6431:6640   */\n    tag_358:\n        /* \"#utility.yul\":6555:6566   */\n      0x00\n        /* \"#utility.yul\":6589:6595   */\n      dup3\n        /* \"#utility.yul\":6584:6587   */\n      dup3\n        /* \"#utility.yul\":6577:6596   */\n      mstore\n        /* \"#utility.yul\":6629:6633   */\n      0x20\n        /* \"#utility.yul\":6624:6627   */\n      dup3\n        /* \"#utility.yul\":6620:6634   */\n      add\n        /* \"#utility.yul\":6605:6634   */\n      swap1\n      pop\n        /* \"#utility.yul\":6431:6640   */\n      swap3\n      swap2\n      pop\n      pop\n      jump\t// out\n        /* \"#utility.yul\":6646:6803   */\n    tag_359:\n        /* \"#utility.yul\":6738:6742   */\n      0x00\n        /* \"#utility.yul\":6761:6764   */\n      dup2\n        /* \"#utility.yul\":6753:6764   */\n      swap1\n      pop\n        /* \"#utility.yul\":6791:6795   */\n      0x20\n        /* \"#utility.yul\":6786:6789   */\n      dup3\n        /* \"#utility.yul\":6782:6796   */\n      add\n        /* \"#utility.yul\":6774:6796   */\n      swap1\n      pop\n        /* \"#utility.yul\":6646:6803   */\n      swap2\n      swap1\n      pop\n      jump\t// out\n        /* \"#utility.yul\":6809:6968   */\n    tag_360:\n        /* \"#utility.yul\":6883:6894   */\n      0x00\n        /* \"#utility.yul\":6917:6923   */\n      dup3\n        /* \"#utility.yul\":6912:6915   */\n      dup3\n        /* \"#utility.yul\":6905:6924   */\n      mstore\n        /* \"#utility.yul\":6957:6961   */\n      0x20\n        /* \"#utility.yul\":6952:6955   */\n      dup3\n        /* \"#utility.yul\":6948:6962   */\n      add\n        /* \"#utility.yul\":6933:6962   */\n      swap1\n      pop\n        /* \"#utility.yul\":6809:6968   */\n      swap3\n      swap2\n      pop\n      pop\n      jump\t// out\n        /* \"#utility.yul\":6974:7331   */\n    tag_361:\n        /* \"#utility.yul\":7052:7055   */\n      0x00\n        /* \"#utility.yul\":7080:7119   */\n      tag_492\n        /* \"#utility.yul\":7113:7118   */\n      dup3\n        /* \"#utility.yul\":7080:7119   */\n      tag_346\n      jump\t// in\n    tag_492:\n        /* \"#utility.yul\":7135:7196   */\n      tag_493\n        /* \"#utility.yul\":7189:7195   */\n      dup2\n        /* \"#utility.yul\":7184:7187   */\n      dup6\n        /* \"#utility.yul\":7135:7196   */\n      tag_360\n      jump\t// in\n    tag_493:\n        /* \"#utility.yul\":7128:7196   */\n      swap4\n      pop\n        /* \"#utility.yul\":7205:7270   */\n      tag_494\n        /* \"#utility.yul\":7263:7269   */\n      dup2\n        /* \"#utility.yul\":7258:7261   */\n      dup6\n        /* \"#utility.yul\":7251:7255   */\n      0x20\n        /* \"#utility.yul\":7244:7249   */\n      dup7\n        /* \"#utility.yul\":7240:7256   */\n      add\n        /* \"#utility.yul\":7205:7270   */\n      tag_348\n      jump\t// in\n    tag_494:\n        /* \"#utility.yul\":7295:7324   */\n      tag_495\n        /* \"#utility.yul\":7317:7323   */\n      dup2\n        /* \"#utility.yul\":7295:7324   */\n      tag_339\n      jump\t// in\n    tag_495:\n        /* \"#utility.yul\":7290:7293   */\n      dup5\n        /* \"#utility.yul\":7286:7325   */\n      add\n        /* \"#utility.yul\":7279:7325   */\n      swap2\n      pop\n        /* \"#utility.yul\":7056:7331   */\n      pop\n        /* \"#utility.yul\":6974:7331   */\n      swap3\n      swap2\n      pop\n      pop\n      jump\t// out\n        /* \"#utility.yul\":7337:7475   */\n    tag_362:\n        /* \"#utility.yul\":7428:7434   */\n      0x00\n        /* \"#utility.yul\":7462:7467   */\n      dup2\n        /* \"#utility.yul\":7456:7468   */\n      mload\n        /* \"#utility.yul\":7446:7468   */\n      swap1\n      pop\n        /* \"#utility.yul\":7337:7475   */\n      swap2\n      swap1\n      pop\n      jump\t// out\n        /* \"#utility.yul\":7481:7679   */\n    tag_363:\n        /* \"#utility.yul\":7594:7605   */\n      0x00\n        /* \"#utility.yul\":7628:7634   */\n      dup3\n        /* \"#utility.yul\":7623:7626   */\n      dup3\n        /* \"#utility.yul\":7616:7635   */\n      mstore\n        /* \"#utility.yul\":7668:7672   */\n      0x20\n        /* \"#utility.yul\":7663:7666   */\n      dup3\n        /* \"#utility.yul\":7659:7673   */\n      add\n        /* \"#utility.yul\":7644:7673   */\n      swap1\n      pop\n        /* \"#utility.yul\":7481:7679   */\n      swap3\n      swap2\n      pop\n      pop\n      jump\t// out\n        /* \"#utility.yul\":7685:7841   */\n    tag_364:\n        /* \"#utility.yul\":7776:7780   */\n      0x00\n        /* \"#utility.yul\":7799:7802   */\n      dup2\n        /* \"#utility.yul\":7791:7802   */\n      swap1\n      pop\n        /* \"#utility.yul\":7829:7833   */\n      0x20\n        /* \"#utility.yul\":7824:7827   */\n      dup3\n        /* \"#utility.yul\":7820:7834   */\n      add\n        /* \"#utility.yul\":7812:7834   */\n      swap1\n      pop\n        /* \"#utility.yul\":7685:7841   */\n      swap2\n      swap1\n      pop\n      jump\t// out\n        /* \"#utility.yul\":7891:8822   */\n    tag_365:\n        /* \"#utility.yul\":7998:8001   */\n      0x00\n        /* \"#utility.yul\":8034:8038   */\n      0x60\n        /* \"#utility.yul\":8029:8032   */\n      dup4\n        /* \"#utility.yul\":8025:8039   */\n      add\n        /* \"#utility.yul\":8125:8129   */\n      0x00\n        /* \"#utility.yul\":8118:8123   */\n      dup4\n        /* \"#utility.yul\":8114:8130   */\n      add\n        /* \"#utility.yul\":8108:8131   */\n      mload\n        /* \"#utility.yul\":8178:8181   */\n      dup5\n        /* \"#utility.yul\":8172:8176   */\n      dup3\n        /* \"#utility.yul\":8168:8182   */\n      sub\n        /* \"#utility.yul\":8161:8165   */\n      0x00\n        /* \"#utility.yul\":8156:8159   */\n      dup7\n        /* \"#utility.yul\":8152:8166   */\n      add\n        /* \"#utility.yul\":8145:8183   */\n      mstore\n        /* \"#utility.yul\":8204:8277   */\n      tag_500\n        /* \"#utility.yul\":8272:8276   */\n      dup3\n        /* \"#utility.yul\":8258:8270   */\n      dup3\n        /* \"#utility.yul\":8204:8277   */\n      tag_361\n      jump\t// in\n    tag_500:\n        /* \"#utility.yul\":8196:8277   */\n      swap2\n      pop\n        /* \"#utility.yul\":8049:8288   */\n      pop\n        /* \"#utility.yul\":8380:8384   */\n      0x20\n        /* \"#utility.yul\":8373:8378   */\n      dup4\n        /* \"#utility.yul\":8369:8385   */\n      add\n        /* \"#utility.yul\":8363:8386   */\n      mload\n        /* \"#utility.yul\":8433:8436   */\n      dup5\n        /* \"#utility.yul\":8427:8431   */\n      dup3\n        /* \"#utility.yul\":8423:8437   */\n      sub\n        /* \"#utility.yul\":8416:8420   */\n      0x20\n        /* \"#utility.yul\":8411:8414   */\n      dup7\n        /* \"#utility.yul\":8407:8421   */\n      add\n        /* \"#utility.yul\":8400:8438   */\n      mstore\n        /* \"#utility.yul\":8459:8532   */\n      tag_501\n        /* \"#utility.yul\":8527:8531   */\n      dup3\n        /* \"#utility.yul\":8513:8525   */\n      dup3\n        /* \"#utility.yul\":8459:8532   */\n      tag_361\n      jump\t// in\n    tag_501:\n        /* \"#utility.yul\":8451:8532   */\n      swap2\n      pop\n        /* \"#utility.yul\":8298:8543   */\n      pop\n        /* \"#utility.yul\":8632:8636   */\n      0x40\n        /* \"#utility.yul\":8625:8630   */\n      dup4\n        /* \"#utility.yul\":8621:8637   */\n      add\n        /* \"#utility.yul\":8615:8638   */\n      mload\n        /* \"#utility.yul\":8685:8688   */\n      dup5\n        /* \"#utility.yul\":8679:8683   */\n      dup3\n        /* \"#utility.yul\":8675:8689   */\n      sub\n        /* \"#utility.yul\":8668:8672   */\n      0x40\n        /* \"#utility.yul\":8663:8666   */\n      dup7\n        /* \"#utility.yul\":8659:8673   */\n      add\n        /* \"#utility.yul\":8652:8690   */\n      mstore\n        /* \"#utility.yul\":8711:8784   */\n      tag_502\n        /* \"#utility.yul\":8779:8783   */\n      dup3\n        /* \"#utility.yul\":8765:8777   */\n      dup3\n        /* \"#utility.yul\":8711:8784   */\n      tag_361\n      jump\t// in\n    tag_502:\n        /* \"#utility.yul\":8703:8784   */\n      swap2\n      pop\n        /* \"#utility.yul\":8553:8795   */\n      pop\n        /* \"#utility.yul\":8812:8816   */\n      dup1\n        /* \"#utility.yul\":8805:8816   */\n      swap2\n      pop\n        /* \"#utility.yul\":8003:8822   */\n      pop\n        /* \"#utility.yul\":7891:8822   */\n      swap3\n      swap2\n      pop\n      pop\n      jump\t// out\n        /* \"#utility.yul\":8828:9080   */\n    tag_366:\n        /* \"#utility.yul\":8945:8955   */\n      0x00\n        /* \"#utility.yul\":8980:9074   */\n      tag_504\n        /* \"#utility.yul\":9070:9073   */\n      dup4\n        /* \"#utility.yul\":9062:9068   */\n      dup4\n        /* \"#utility.yul\":8980:9074   */\n      tag_365\n      jump\t// in\n    tag_504:\n        /* \"#utility.yul\":8966:9074   */\n      swap1\n      pop\n        /* \"#utility.yul\":8828:9080   */\n      swap3\n      swap2\n      pop\n      pop\n      jump\t// out\n        /* \"#utility.yul\":9086:9223   */\n    tag_367:\n        /* \"#utility.yul\":9180:9184   */\n      0x00\n        /* \"#utility.yul\":9212:9216   */\n      0x20\n        /* \"#utility.yul\":9207:9210   */\n      dup3\n        /* \"#utility.yul\":9203:9217   */\n      add\n        /* \"#utility.yul\":9195:9217   */\n      swap1\n      pop\n        /* \"#utility.yul\":9086:9223   */\n      swap2\n      swap1\n      pop\n      jump\t// out\n        /* \"#utility.yul\":9277:10360   */\n    tag_368:\n        /* \"#utility.yul\":9434:9437   */\n      0x00\n        /* \"#utility.yul\":9463:9541   */\n      tag_507\n        /* \"#utility.yul\":9535:9540   */\n      dup3\n        /* \"#utility.yul\":9463:9541   */\n      tag_362\n      jump\t// in\n    tag_507:\n        /* \"#utility.yul\":9557:9657   */\n      tag_508\n        /* \"#utility.yul\":9650:9656   */\n      dup2\n        /* \"#utility.yul\":9645:9648   */\n      dup6\n        /* \"#utility.yul\":9557:9657   */\n      tag_363\n      jump\t// in\n    tag_508:\n        /* \"#utility.yul\":9550:9657   */\n      swap4\n      pop\n        /* \"#utility.yul\":9683:9686   */\n      dup4\n        /* \"#utility.yul\":9728:9732   */\n      0x20\n        /* \"#utility.yul\":9720:9726   */\n      dup3\n        /* \"#utility.yul\":9716:9733   */\n      mul\n        /* \"#utility.yul\":9711:9714   */\n      dup6\n        /* \"#utility.yul\":9707:9734   */\n      add\n        /* \"#utility.yul\":9758:9838   */\n      tag_509\n        /* \"#utility.yul\":9832:9837   */\n      dup6\n        /* \"#utility.yul\":9758:9838   */\n      tag_364\n      jump\t// in\n    tag_509:\n        /* \"#utility.yul\":9861:9868   */\n      dup1\n        /* \"#utility.yul\":9892:9893   */\n      0x00\n        /* \"#utility.yul\":9877:10315   */\n    tag_510:\n        /* \"#utility.yul\":9902:9908   */\n      dup6\n        /* \"#utility.yul\":9899:9900   */\n      dup2\n        /* \"#utility.yul\":9896:9909   */\n      lt\n        /* \"#utility.yul\":9877:10315   */\n      iszero\n      tag_512\n      jumpi\n        /* \"#utility.yul\":9973:9982   */\n      dup5\n        /* \"#utility.yul\":9967:9971   */\n      dup5\n        /* \"#utility.yul\":9963:9983   */\n      sub\n        /* \"#utility.yul\":9958:9961   */\n      dup10\n        /* \"#utility.yul\":9951:9984   */\n      mstore\n        /* \"#utility.yul\":10024:10030   */\n      dup2\n        /* \"#utility.yul\":10018:10031   */\n      mload\n        /* \"#utility.yul\":10052:10164   */\n      tag_513\n        /* \"#utility.yul\":10159:10163   */\n      dup6\n        /* \"#utility.yul\":10144:10157   */\n      dup3\n        /* \"#utility.yul\":10052:10164   */\n      tag_366\n      jump\t// in\n    tag_513:\n        /* \"#utility.yul\":10044:10164   */\n      swap5\n      pop\n        /* \"#utility.yul\":10187:10271   */\n      tag_514\n        /* \"#utility.yul\":10264:10270   */\n      dup4\n        /* \"#utility.yul\":10187:10271   */\n      tag_367\n      jump\t// in\n    tag_514:\n        /* \"#utility.yul\":10177:10271   */\n      swap3\n      pop\n        /* \"#utility.yul\":10300:10304   */\n      0x20\n        /* \"#utility.yul\":10295:10298   */\n      dup11\n        /* \"#utility.yul\":10291:10305   */\n      add\n        /* \"#utility.yul\":10284:10305   */\n      swap10\n      pop\n        /* \"#utility.yul\":9937:10315   */\n      pop\n        /* \"#utility.yul\":9924:9925   */\n      0x01\n        /* \"#utility.yul\":9921:9922   */\n      dup2\n        /* \"#utility.yul\":9917:9926   */\n      add\n        /* \"#utility.yul\":9912:9926   */\n      swap1\n      pop\n        /* \"#utility.yul\":9877:10315   */\n      jump(tag_510)\n    tag_512:\n        /* \"#utility.yul\":9881:9895   */\n      pop\n        /* \"#utility.yul\":10331:10335   */\n      dup3\n        /* \"#utility.yul\":10324:10335   */\n      swap8\n      pop\n        /* \"#utility.yul\":10351:10354   */\n      dup8\n        /* \"#utility.yul\":10344:10354   */\n      swap6\n      pop\n        /* \"#utility.yul\":9439:10360   */\n      pop\n      pop\n      pop\n      pop\n      pop\n        /* \"#utility.yul\":9277:10360   */\n      swap3\n      swap2\n      pop\n      pop\n      jump\t// out\n        /* \"#utility.yul\":10366:10509   */\n    tag_369:\n        /* \"#utility.yul\":10462:10468   */\n      0x00\n        /* \"#utility.yul\":10496:10501   */\n      dup2\n        /* \"#utility.yul\":10490:10502   */\n      mload\n        /* \"#utility.yul\":10480:10502   */\n      swap1\n      pop\n        /* \"#utility.yul\":10366:10509   */\n      swap2\n      swap1\n      pop\n      jump\t// out\n        /* \"#utility.yul\":10515:10718   */\n    tag_370:\n        /* \"#utility.yul\":10633:10644   */\n      0x00\n        /* \"#utility.yul\":10667:10673   */\n      dup3\n        /* \"#utility.yul\":10662:10665   */\n      dup3\n        /* \"#utility.yul\":10655:10674   */\n      mstore\n        /* \"#utility.yul\":10707:10711   */\n      0x20\n        /* \"#utility.yul\":10702:10705   */\n      dup3\n        /* \"#utility.yul\":10698:10712   */\n      add\n        /* \"#utility.yul\":10683:10712   */\n      swap1\n      pop\n        /* \"#utility.yul\":10515:10718   */\n      swap3\n      swap2\n      pop\n      pop\n      jump\t// out\n        /* \"#utility.yul\":10724:10885   */\n    tag_371:\n        /* \"#utility.yul\":10820:10824   */\n      0x00\n        /* \"#utility.yul\":10843:10846   */\n      dup2\n        /* \"#utility.yul\":10835:10846   */\n      swap1\n      pop\n        /* \"#utility.yul\":10873:10877   */\n      0x20\n        /* \"#utility.yul\":10868:10871   */\n      dup3\n        /* \"#utility.yul\":10864:10878   */\n      add\n        /* \"#utility.yul\":10856:10878   */\n      swap1\n      pop\n        /* \"#utility.yul\":10724:10885   */\n      swap2\n      swap1\n      pop\n      jump\t// out\n        /* \"#utility.yul\":10943:11896   */\n    tag_372:\n        /* \"#utility.yul\":11060:11063   */\n      0x00\n        /* \"#utility.yul\":11096:11100   */\n      0x60\n        /* \"#utility.yul\":11091:11094   */\n      dup4\n        /* \"#utility.yul\":11087:11101   */\n      add\n        /* \"#utility.yul\":11191:11195   */\n      0x00\n        /* \"#utility.yul\":11184:11189   */\n      dup4\n        /* \"#utility.yul\":11180:11196   */\n      add\n        /* \"#utility.yul\":11174:11197   */\n      mload\n        /* \"#utility.yul\":11244:11247   */\n      dup5\n        /* \"#utility.yul\":11238:11242   */\n      dup3\n        /* \"#utility.yul\":11234:11248   */\n      sub\n        /* \"#utility.yul\":11227:11231   */\n      0x00\n        /* \"#utility.yul\":11222:11225   */\n      dup7\n        /* \"#utility.yul\":11218:11232   */\n      add\n        /* \"#utility.yul\":11211:11249   */\n      mstore\n        /* \"#utility.yul\":11270:11343   */\n      tag_519\n        /* \"#utility.yul\":11338:11342   */\n      dup3\n        /* \"#utility.yul\":11324:11336   */\n      dup3\n        /* \"#utility.yul\":11270:11343   */\n      tag_361\n      jump\t// in\n    tag_519:\n        /* \"#utility.yul\":11262:11343   */\n      swap2\n      pop\n        /* \"#utility.yul\":11111:11354   */\n      pop\n        /* \"#utility.yul\":11450:11454   */\n      0x20\n        /* \"#utility.yul\":11443:11448   */\n      dup4\n        /* \"#utility.yul\":11439:11455   */\n      add\n        /* \"#utility.yul\":11433:11456   */\n      mload\n        /* \"#utility.yul\":11503:11506   */\n      dup5\n        /* \"#utility.yul\":11497:11501   */\n      dup3\n        /* \"#utility.yul\":11493:11507   */\n      sub\n        /* \"#utility.yul\":11486:11490   */\n      0x20\n        /* \"#utility.yul\":11481:11484   */\n      dup7\n        /* \"#utility.yul\":11477:11491   */\n      add\n        /* \"#utility.yul\":11470:11508   */\n      mstore\n        /* \"#utility.yul\":11529:11602   */\n      tag_520\n        /* \"#utility.yul\":11597:11601   */\n      dup3\n        /* \"#utility.yul\":11583:11595   */\n      dup3\n        /* \"#utility.yul\":11529:11602   */\n      tag_361\n      jump\t// in\n    tag_520:\n        /* \"#utility.yul\":11521:11602   */\n      swap2\n      pop\n        /* \"#utility.yul\":11364:11613   */\n      pop\n        /* \"#utility.yul\":11706:11710   */\n      0x40\n        /* \"#utility.yul\":11699:11704   */\n      dup4\n        /* \"#utility.yul\":11695:11711   */\n      add\n        /* \"#utility.yul\":11689:11712   */\n      mload\n        /* \"#utility.yul\":11759:11762   */\n      dup5\n        /* \"#utility.yul\":11753:11757   */\n      dup3\n        /* \"#utility.yul\":11749:11763   */\n      sub\n        /* \"#utility.yul\":11742:11746   */\n      0x40\n        /* \"#utility.yul\":11737:11740   */\n      dup7\n        /* \"#utility.yul\":11733:11747   */\n      add\n        /* \"#utility.yul\":11726:11764   */\n      mstore\n        /* \"#utility.yul\":11785:11858   */\n      tag_521\n        /* \"#utility.yul\":11853:11857   */\n      dup3\n        /* \"#utility.yul\":11839:11851   */\n      dup3\n        /* \"#utility.yul\":11785:11858   */\n      tag_361\n      jump\t// in\n    tag_521:\n        /* \"#utility.yul\":11777:11858   */\n      swap2\n      pop\n        /* \"#utility.yul\":11623:11869   */\n      pop\n        /* \"#utility.yul\":11886:11890   */\n      dup1\n        /* \"#utility.yul\":11879:11890   */\n      swap2\n      pop\n        /* \"#utility.yul\":11065:11896   */\n      pop\n        /* \"#utility.yul\":10943:11896   */\n      swap3\n      swap2\n      pop\n      pop\n      jump\t// out\n        /* \"#utility.yul\":11902:12174   */\n    tag_373:\n        /* \"#utility.yul\":12029:12039   */\n      0x00\n        /* \"#utility.yul\":12064:12168   */\n      tag_523\n        /* \"#utility.yul\":12164:12167   */\n      dup4\n        /* \"#utility.yul\":12156:12162   */\n      dup4\n        /* \"#utility.yul\":12064:12168   */\n      tag_372\n      jump\t// in\n    tag_523:\n        /* \"#utility.yul\":12050:12168   */\n      swap1\n      pop\n        /* \"#utility.yul\":11902:12174   */\n      swap3\n      swap2\n      pop\n      pop\n      jump\t// out\n        /* \"#utility.yul\":12180:12322   */\n    tag_374:\n        /* \"#utility.yul\":12279:12283   */\n      0x00\n        /* \"#utility.yul\":12311:12315   */\n      0x20\n        /* \"#utility.yul\":12306:12309   */\n      dup3\n        /* \"#utility.yul\":12302:12316   */\n      add\n        /* \"#utility.yul\":12294:12316   */\n      swap1\n      pop\n        /* \"#utility.yul\":12180:12322   */\n      swap2\n      swap1\n      pop\n      jump\t// out\n        /* \"#utility.yul\":12384:13507   */\n    tag_375:\n        /* \"#utility.yul\":12551:12554   */\n      0x00\n        /* \"#utility.yul\":12580:12663   */\n      tag_526\n        /* \"#utility.yul\":12657:12662   */\n      dup3\n        /* \"#utility.yul\":12580:12663   */\n      tag_369\n      jump\t// in\n    tag_526:\n        /* \"#utility.yul\":12679:12784   */\n      tag_527\n        /* \"#utility.yul\":12777:12783   */\n      dup2\n        /* \"#utility.yul\":12772:12775   */\n      dup6\n        /* \"#utility.yul\":12679:12784   */\n      tag_370\n      jump\t// in\n    tag_527:\n        /* \"#utility.yul\":12672:12784   */\n      swap4\n      pop\n        /* \"#utility.yul\":12810:12813   */\n      dup4\n        /* \"#utility.yul\":12855:12859   */\n      0x20\n        /* \"#utility.yul\":12847:12853   */\n      dup3\n        /* \"#utility.yul\":12843:12860   */\n      mul\n        /* \"#utility.yul\":12838:12841   */\n      dup6\n        /* \"#utility.yul\":12834:12861   */\n      add\n        /* \"#utility.yul\":12885:12970   */\n      tag_528\n        /* \"#utility.yul\":12964:12969   */\n      dup6\n        /* \"#utility.yul\":12885:12970   */\n      tag_371\n      jump\t// in\n    tag_528:\n        /* \"#utility.yul\":12993:13000   */\n      dup1\n        /* \"#utility.yul\":13024:13025   */\n      0x00\n        /* \"#utility.yul\":13009:13462   */\n    tag_529:\n        /* \"#utility.yul\":13034:13040   */\n      dup6\n        /* \"#utility.yul\":13031:13032   */\n      dup2\n        /* \"#utility.yul\":13028:13041   */\n      lt\n        /* \"#utility.yul\":13009:13462   */\n      iszero\n      tag_531\n      jumpi\n        /* \"#utility.yul\":13105:13114   */\n      dup5\n        /* \"#utility.yul\":13099:13103   */\n      dup5\n        /* \"#utility.yul\":13095:13115   */\n      sub\n        /* \"#utility.yul\":13090:13093   */\n      dup10\n        /* \"#utility.yul\":13083:13116   */\n      mstore\n        /* \"#utility.yul\":13156:13162   */\n      dup2\n        /* \"#utility.yul\":13150:13163   */\n      mload\n        /* \"#utility.yul\":13184:13306   */\n      tag_532\n        /* \"#utility.yul\":13301:13305   */\n      dup6\n        /* \"#utility.yul\":13286:13299   */\n      dup3\n        /* \"#utility.yul\":13184:13306   */\n      tag_373\n      jump\t// in\n    tag_532:\n        /* \"#utility.yul\":13176:13306   */\n      swap5\n      pop\n        /* \"#utility.yul\":13329:13418   */\n      tag_533\n        /* \"#utility.yul\":13411:13417   */\n      dup4\n        /* \"#utility.yul\":13329:13418   */\n      tag_374\n      jump\t// in\n    tag_533:\n        /* \"#utility.yul\":13319:13418   */\n      swap3\n      pop\n        /* \"#utility.yul\":13447:13451   */\n      0x20\n        /* \"#utility.yul\":13442:13445   */\n      dup11\n        /* \"#utility.yul\":13438:13452   */\n      add\n        /* \"#utility.yul\":13431:13452   */\n      swap10\n      pop\n        /* \"#utility.yul\":13069:13462   */\n      pop\n        /* \"#utility.yul\":13056:13057   */\n      0x01\n        /* \"#utility.yul\":13053:13054   */\n      dup2\n        /* \"#utility.yul\":13049:13058   */\n      add\n        /* \"#utility.yul\":13044:13058   */\n      swap1\n      pop\n        /* \"#utility.yul\":13009:13462   */\n      jump(tag_529)\n    tag_531:\n        /* \"#utility.yul\":13013:13027   */\n      pop\n        /* \"#utility.yul\":13478:13482   */\n      dup3\n        /* \"#utility.yul\":13471:13482   */\n      swap8\n      pop\n        /* \"#utility.yul\":13498:13501   */\n      dup8\n        /* \"#utility.yul\":13491:13501   */\n      swap6\n      pop\n        /* \"#utility.yul\":12556:13507   */\n      pop\n      pop\n      pop\n      pop\n      pop\n        /* \"#utility.yul\":12384:13507   */\n      swap3\n      swap2\n      pop\n      pop\n      jump\t// out\n        /* \"#utility.yul\":13513:13612   */\n    tag_376:\n        /* \"#utility.yul\":13584:13605   */\n      tag_535\n        /* \"#utility.yul\":13599:13604   */\n      dup2\n        /* \"#utility.yul\":13584:13605   */\n      tag_350\n      jump\t// in\n    tag_535:\n        /* \"#utility.yul\":13579:13582   */\n      dup3\n        /* \"#utility.yul\":13572:13606   */\n      mstore\n        /* \"#utility.yul\":13513:13612   */\n      pop\n      pop\n      jump\t// out\n        /* \"#utility.yul\":13618:13723   */\n    tag_377:\n        /* \"#utility.yul\":13693:13716   */\n      tag_537\n        /* \"#utility.yul\":13710:13715   */\n      dup2\n        /* \"#utility.yul\":13693:13716   */\n      tag_352\n      jump\t// in\n    tag_537:\n        /* \"#utility.yul\":13688:13691   */\n      dup3\n        /* \"#utility.yul\":13681:13717   */\n      mstore\n        /* \"#utility.yul\":13618:13723   */\n      pop\n      pop\n      jump\t// out\n        /* \"#utility.yul\":13729:13887   */\n    tag_378:\n        /* \"#utility.yul\":13802:13813   */\n      0x00\n        /* \"#utility.yul\":13836:13842   */\n      dup3\n        /* \"#utility.yul\":13831:13834   */\n      dup3\n        /* \"#utility.yul\":13824:13843   */\n      mstore\n        /* \"#utility.yul\":13876:13880   */\n      0x20\n        /* \"#utility.yul\":13871:13874   */\n      dup3\n        /* \"#utility.yul\":13867:13881   */\n      add\n        /* \"#utility.yul\":13852:13881   */\n      swap1\n      pop\n        /* \"#utility.yul\":13729:13887   */\n      swap3\n      swap2\n      pop\n      pop\n      jump\t// out\n        /* \"#utility.yul\":13893:14246   */\n    tag_379:\n        /* \"#utility.yul\":13969:13972   */\n      0x00\n        /* \"#utility.yul\":13997:14035   */\n      tag_540\n        /* \"#utility.yul\":14029:14034   */\n      dup3\n        /* \"#utility.yul\":13997:14035   */\n      tag_354\n      jump\t// in\n    tag_540:\n        /* \"#utility.yul\":14051:14111   */\n      tag_541\n        /* \"#utility.yul\":14104:14110   */\n      dup2\n        /* \"#utility.yul\":14099:14102   */\n      dup6\n        /* \"#utility.yul\":14051:14111   */\n      tag_378\n      jump\t// in\n    tag_541:\n        /* \"#utility.yul\":14044:14111   */\n      swap4\n      pop\n        /* \"#utility.yul\":14120:14185   */\n      tag_542\n        /* \"#utility.yul\":14178:14184   */\n      dup2\n        /* \"#utility.yul\":14173:14176   */\n      dup6\n        /* \"#utility.yul\":14166:14170   */\n      0x20\n        /* \"#utility.yul\":14159:14164   */\n      dup7\n        /* \"#utility.yul\":14155:14171   */\n      add\n        /* \"#utility.yul\":14120:14185   */\n      tag_348\n      jump\t// in\n    tag_542:\n        /* \"#utility.yul\":14210:14239   */\n      tag_543\n        /* \"#utility.yul\":14232:14238   */\n      dup2\n        /* \"#utility.yul\":14210:14239   */\n      tag_339\n      jump\t// in\n    tag_543:\n        /* \"#utility.yul\":14205:14208   */\n      dup5\n        /* \"#utility.yul\":14201:14240   */\n      add\n        /* \"#utility.yul\":14194:14240   */\n      swap2\n      pop\n        /* \"#utility.yul\":13973:14246   */\n      pop\n        /* \"#utility.yul\":13893:14246   */\n      swap3\n      swap2\n      pop\n      pop\n      jump\t// out\n        /* \"#utility.yul\":14296:16666   */\n    tag_380:\n        /* \"#utility.yul\":14405:14408   */\n      0x00\n        /* \"#utility.yul\":14441:14447   */\n      0x0120\n        /* \"#utility.yul\":14436:14439   */\n      dup4\n        /* \"#utility.yul\":14432:14448   */\n      add\n        /* \"#utility.yul\":14538:14542   */\n      0x00\n        /* \"#utility.yul\":14531:14536   */\n      dup4\n        /* \"#utility.yul\":14527:14543   */\n      add\n        /* \"#utility.yul\":14521:14544   */\n      mload\n        /* \"#utility.yul\":14591:14594   */\n      dup5\n        /* \"#utility.yul\":14585:14589   */\n      dup3\n        /* \"#utility.yul\":14581:14595   */\n      sub\n        /* \"#utility.yul\":14574:14578   */\n      0x00\n        /* \"#utility.yul\":14569:14572   */\n      dup7\n        /* \"#utility.yul\":14565:14579   */\n      add\n        /* \"#utility.yul\":14558:14596   */\n      mstore\n        /* \"#utility.yul\":14617:14690   */\n      tag_545\n        /* \"#utility.yul\":14685:14689   */\n      dup3\n        /* \"#utility.yul\":14671:14683   */\n      dup3\n        /* \"#utility.yul\":14617:14690   */\n      tag_361\n      jump\t// in\n    tag_545:\n        /* \"#utility.yul\":14609:14690   */\n      swap2\n      pop\n        /* \"#utility.yul\":14458:14701   */\n      pop\n        /* \"#utility.yul\":14788:14792   */\n      0x20\n        /* \"#utility.yul\":14781:14786   */\n      dup4\n        /* \"#utility.yul\":14777:14793   */\n      add\n        /* \"#utility.yul\":14771:14794   */\n      mload\n        /* \"#utility.yul\":14841:14844   */\n      dup5\n        /* \"#utility.yul\":14835:14839   */\n      dup3\n        /* \"#utility.yul\":14831:14845   */\n      sub\n        /* \"#utility.yul\":14824:14828   */\n      0x20\n        /* \"#utility.yul\":14819:14822   */\n      dup7\n        /* \"#utility.yul\":14815:14829   */\n      add\n        /* \"#utility.yul\":14808:14846   */\n      mstore\n        /* \"#utility.yul\":14867:14940   */\n      tag_546\n        /* \"#utility.yul\":14935:14939   */\n      dup3\n        /* \"#utility.yul\":14921:14933   */\n      dup3\n        /* \"#utility.yul\":14867:14940   */\n      tag_361\n      jump\t// in\n    tag_546:\n        /* \"#utility.yul\":14859:14940   */\n      swap2\n      pop\n        /* \"#utility.yul\":14711:14951   */\n      pop\n        /* \"#utility.yul\":15032:15036   */\n      0x40\n        /* \"#utility.yul\":15025:15030   */\n      dup4\n        /* \"#utility.yul\":15021:15037   */\n      add\n        /* \"#utility.yul\":15015:15038   */\n      mload\n        /* \"#utility.yul\":15085:15088   */\n      dup5\n        /* \"#utility.yul\":15079:15083   */\n      dup3\n        /* \"#utility.yul\":15075:15089   */\n      sub\n        /* \"#utility.yul\":15068:15072   */\n      0x40\n        /* \"#utility.yul\":15063:15066   */\n      dup7\n        /* \"#utility.yul\":15059:15073   */\n      add\n        /* \"#utility.yul\":15052:15090   */\n      mstore\n        /* \"#utility.yul\":15111:15184   */\n      tag_547\n        /* \"#utility.yul\":15179:15183   */\n      dup3\n        /* \"#utility.yul\":15165:15177   */\n      dup3\n        /* \"#utility.yul\":15111:15184   */\n      tag_361\n      jump\t// in\n    tag_547:\n        /* \"#utility.yul\":15103:15184   */\n      swap2\n      pop\n        /* \"#utility.yul\":14961:15195   */\n      pop\n        /* \"#utility.yul\":15283:15287   */\n      0x60\n        /* \"#utility.yul\":15276:15281   */\n      dup4\n        /* \"#utility.yul\":15272:15288   */\n      add\n        /* \"#utility.yul\":15266:15289   */\n      mload\n        /* \"#utility.yul\":15336:15339   */\n      dup5\n        /* \"#utility.yul\":15330:15334   */\n      dup3\n        /* \"#utility.yul\":15326:15340   */\n      sub\n        /* \"#utility.yul\":15319:15323   */\n      0x60\n        /* \"#utility.yul\":15314:15317   */\n      dup7\n        /* \"#utility.yul\":15310:15324   */\n      add\n        /* \"#utility.yul\":15303:15341   */\n      mstore\n        /* \"#utility.yul\":15362:15513   */\n      tag_548\n        /* \"#utility.yul\":15508:15512   */\n      dup3\n        /* \"#utility.yul\":15494:15506   */\n      dup3\n        /* \"#utility.yul\":15362:15513   */\n      tag_368\n      jump\t// in\n    tag_548:\n        /* \"#utility.yul\":15354:15513   */\n      swap2\n      pop\n        /* \"#utility.yul\":15205:15524   */\n      pop\n        /* \"#utility.yul\":15616:15620   */\n      0x80\n        /* \"#utility.yul\":15609:15614   */\n      dup4\n        /* \"#utility.yul\":15605:15621   */\n      add\n        /* \"#utility.yul\":15599:15622   */\n      mload\n        /* \"#utility.yul\":15669:15672   */\n      dup5\n        /* \"#utility.yul\":15663:15667   */\n      dup3\n        /* \"#utility.yul\":15659:15673   */\n      sub\n        /* \"#utility.yul\":15652:15656   */\n      0x80\n        /* \"#utility.yul\":15647:15650   */\n      dup7\n        /* \"#utility.yul\":15643:15657   */\n      add\n        /* \"#utility.yul\":15636:15674   */\n      mstore\n        /* \"#utility.yul\":15695:15856   */\n      tag_549\n        /* \"#utility.yul\":15851:15855   */\n      dup3\n        /* \"#utility.yul\":15837:15849   */\n      dup3\n        /* \"#utility.yul\":15695:15856   */\n      tag_375\n      jump\t// in\n    tag_549:\n        /* \"#utility.yul\":15687:15856   */\n      swap2\n      pop\n        /* \"#utility.yul\":15534:15867   */\n      pop\n        /* \"#utility.yul\":15953:15957   */\n      0xa0\n        /* \"#utility.yul\":15946:15951   */\n      dup4\n        /* \"#utility.yul\":15942:15958   */\n      add\n        /* \"#utility.yul\":15936:15959   */\n      mload\n        /* \"#utility.yul\":15972:16029   */\n      tag_550\n        /* \"#utility.yul\":16023:16027   */\n      0xa0\n        /* \"#utility.yul\":16018:16021   */\n      dup7\n        /* \"#utility.yul\":16014:16028   */\n      add\n        /* \"#utility.yul\":16000:16012   */\n      dup3\n        /* \"#utility.yul\":15972:16029   */\n      tag_376\n      jump\t// in\n    tag_550:\n        /* \"#utility.yul\":15877:16039   */\n      pop\n        /* \"#utility.yul\":16125:16129   */\n      0xc0\n        /* \"#utility.yul\":16118:16123   */\n      dup4\n        /* \"#utility.yul\":16114:16130   */\n      add\n        /* \"#utility.yul\":16108:16131   */\n      mload\n        /* \"#utility.yul\":16144:16205   */\n      tag_551\n        /* \"#utility.yul\":16199:16203   */\n      0xc0\n        /* \"#utility.yul\":16194:16197   */\n      dup7\n        /* \"#utility.yul\":16190:16204   */\n      add\n        /* \"#utility.yul\":16176:16188   */\n      dup3\n        /* \"#utility.yul\":16144:16205   */\n      tag_377\n      jump\t// in\n    tag_551:\n        /* \"#utility.yul\":16049:16215   */\n      pop\n        /* \"#utility.yul\":16301:16305   */\n      0xe0\n        /* \"#utility.yul\":16294:16299   */\n      dup4\n        /* \"#utility.yul\":16290:16306   */\n      add\n        /* \"#utility.yul\":16284:16307   */\n      mload\n        /* \"#utility.yul\":16320:16381   */\n      tag_552\n        /* \"#utility.yul\":16375:16379   */\n      0xe0\n        /* \"#utility.yul\":16370:16373   */\n      dup7\n        /* \"#utility.yul\":16366:16380   */\n      add\n        /* \"#utility.yul\":16352:16364   */\n      dup3\n        /* \"#utility.yul\":16320:16381   */\n      tag_377\n      jump\t// in\n    tag_552:\n        /* \"#utility.yul\":16225:16391   */\n      pop\n        /* \"#utility.yul\":16474:16480   */\n      0x0100\n        /* \"#utility.yul\":16467:16472   */\n      dup4\n        /* \"#utility.yul\":16463:16481   */\n      add\n        /* \"#utility.yul\":16457:16482   */\n      mload\n        /* \"#utility.yul\":16531:16534   */\n      dup5\n        /* \"#utility.yul\":16525:16529   */\n      dup3\n        /* \"#utility.yul\":16521:16535   */\n      sub\n        /* \"#utility.yul\":16512:16518   */\n      0x0100\n        /* \"#utility.yul\":16507:16510   */\n      dup7\n        /* \"#utility.yul\":16503:16519   */\n      add\n        /* \"#utility.yul\":16496:16536   */\n      mstore\n        /* \"#utility.yul\":16557:16628   */\n      tag_553\n        /* \"#utility.yul\":16623:16627   */\n      dup3\n        /* \"#utility.yul\":16609:16621   */\n      dup3\n        /* \"#utility.yul\":16557:16628   */\n      tag_379\n      jump\t// in\n    tag_553:\n        /* \"#utility.yul\":16549:16628   */\n      swap2\n      pop\n        /* \"#utility.yul\":16401:16639   */\n      pop\n        /* \"#utility.yul\":16656:16660   */\n      dup1\n        /* \"#utility.yul\":16649:16660   */\n      swap2\n      pop\n        /* \"#utility.yul\":14410:16666   */\n      pop\n        /* \"#utility.yul\":14296:16666   */\n      swap3\n      swap2\n      pop\n      pop\n      jump\t// out\n        /* \"#utility.yul\":16672:16928   */\n    tag_381:\n        /* \"#utility.yul\":16791:16801   */\n      0x00\n        /* \"#utility.yul\":16826:16922   */\n      tag_555\n        /* \"#utility.yul\":16918:16921   */\n      dup4\n        /* \"#utility.yul\":16910:16916   */\n      dup4\n        /* \"#utility.yul\":16826:16922   */\n      tag_380\n      jump\t// in\n    tag_555:\n        /* \"#utility.yul\":16812:16922   */\n      swap1\n      pop\n        /* \"#utility.yul\":16672:16928   */\n      swap3\n      swap2\n      pop\n      pop\n      jump\t// out\n        /* \"#utility.yul\":16934:17072   */\n    tag_382:\n        /* \"#utility.yul\":17029:17033   */\n      0x00\n        /* \"#utility.yul\":17061:17065   */\n      0x20\n        /* \"#utility.yul\":17056:17059   */\n      dup3\n        /* \"#utility.yul\":17052:17066   */\n      add\n        /* \"#utility.yul\":17044:17066   */\n      swap1\n      pop\n        /* \"#utility.yul\":16934:17072   */\n      swap2\n      swap1\n      pop\n      jump\t// out\n        /* \"#utility.yul\":17126:18237   */\n    tag_383:\n        /* \"#utility.yul\":17295:17298   */\n      0x00\n        /* \"#utility.yul\":17324:17403   */\n      tag_558\n        /* \"#utility.yul\":17397:17402   */\n      dup3\n        /* \"#utility.yul\":17324:17403   */\n      tag_357\n      jump\t// in\n    tag_558:\n        /* \"#utility.yul\":17419:17530   */\n      tag_559\n        /* \"#utility.yul\":17523:17529   */\n      dup2\n        /* \"#utility.yul\":17518:17521   */\n      dup6\n        /* \"#utility.yul\":17419:17530   */\n      tag_358\n      jump\t// in\n    tag_559:\n        /* \"#utility.yul\":17412:17530   */\n      swap4\n      pop\n        /* \"#utility.yul\":17556:17559   */\n      dup4\n        /* \"#utility.yul\":17601:17605   */\n      0x20\n        /* \"#utility.yul\":17593:17599   */\n      dup3\n        /* \"#utility.yul\":17589:17606   */\n      mul\n        /* \"#utility.yul\":17584:17587   */\n      dup6\n        /* \"#utility.yul\":17580:17607   */\n      add\n        /* \"#utility.yul\":17631:17712   */\n      tag_560\n        /* \"#utility.yul\":17706:17711   */\n      dup6\n        /* \"#utility.yul\":17631:17712   */\n      tag_359\n      jump\t// in\n    tag_560:\n        /* \"#utility.yul\":17735:17742   */\n      dup1\n        /* \"#utility.yul\":17766:17767   */\n      0x00\n        /* \"#utility.yul\":17751:18192   */\n    tag_561:\n        /* \"#utility.yul\":17776:17782   */\n      dup6\n        /* \"#utility.yul\":17773:17774   */\n      dup2\n        /* \"#utility.yul\":17770:17783   */\n      lt\n        /* \"#utility.yul\":17751:18192   */\n      iszero\n      tag_563\n      jumpi\n        /* \"#utility.yul\":17847:17856   */\n      dup5\n        /* \"#utility.yul\":17841:17845   */\n      dup5\n        /* \"#utility.yul\":17837:17857   */\n      sub\n        /* \"#utility.yul\":17832:17835   */\n      dup10\n        /* \"#utility.yul\":17825:17858   */\n      mstore\n        /* \"#utility.yul\":17898:17904   */\n      dup2\n        /* \"#utility.yul\":17892:17905   */\n      mload\n        /* \"#utility.yul\":17926:18040   */\n      tag_564\n        /* \"#utility.yul\":18035:18039   */\n      dup6\n        /* \"#utility.yul\":18020:18033   */\n      dup3\n        /* \"#utility.yul\":17926:18040   */\n      tag_381\n      jump\t// in\n    tag_564:\n        /* \"#utility.yul\":17918:18040   */\n      swap5\n      pop\n        /* \"#utility.yul\":18063:18148   */\n      tag_565\n        /* \"#utility.yul\":18141:18147   */\n      dup4\n        /* \"#utility.yul\":18063:18148   */\n      tag_382\n      jump\t// in\n    tag_565:\n        /* \"#utility.yul\":18053:18148   */\n      swap3\n      pop\n        /* \"#utility.yul\":18177:18181   */\n      0x20\n        /* \"#utility.yul\":18172:18175   */\n      dup11\n        /* \"#utility.yul\":18168:18182   */\n      add\n        /* \"#utility.yul\":18161:18182   */\n      swap10\n      pop\n        /* \"#utility.yul\":17811:18192   */\n      pop\n        /* \"#utility.yul\":17798:17799   */\n      0x01\n        /* \"#utility.yul\":17795:17796   */\n      dup2\n        /* \"#utility.yul\":17791:17800   */\n      add\n        /* \"#utility.yul\":17786:17800   */\n      swap1\n      pop\n        /* \"#utility.yul\":17751:18192   */\n      jump(tag_561)\n    tag_563:\n        /* \"#utility.yul\":17755:17769   */\n      pop\n        /* \"#utility.yul\":18208:18212   */\n      dup3\n        /* \"#utility.yul\":18201:18212   */\n      swap8\n      pop\n        /* \"#utility.yul\":18228:18231   */\n      dup8\n        /* \"#utility.yul\":18221:18231   */\n      swap6\n      pop\n        /* \"#utility.yul\":17300:18237   */\n      pop\n      pop\n      pop\n      pop\n      pop\n        /* \"#utility.yul\":17126:18237   */\n      swap3\n      swap2\n      pop\n      pop\n      jump\t// out\n        /* \"#utility.yul\":18243:18716   */\n    tag_20:\n        /* \"#utility.yul\":18436:18440   */\n      0x00\n        /* \"#utility.yul\":18474:18476   */\n      0x20\n        /* \"#utility.yul\":18463:18472   */\n      dup3\n        /* \"#utility.yul\":18459:18477   */\n      add\n        /* \"#utility.yul\":18451:18477   */\n      swap1\n      pop\n        /* \"#utility.yul\":18523:18532   */\n      dup2\n        /* \"#utility.yul\":18517:18521   */\n      dup2\n        /* \"#utility.yul\":18513:18533   */\n      sub\n        /* \"#utility.yul\":18509:18510   */\n      0x00\n        /* \"#utility.yul\":18498:18507   */\n      dup4\n        /* \"#utility.yul\":18494:18511   */\n      add\n        /* \"#utility.yul\":18487:18534   */\n      mstore\n        /* \"#utility.yul\":18551:18709   */\n      tag_567\n        /* \"#utility.yul\":18704:18708   */\n      dup2\n        /* \"#utility.yul\":18695:18701   */\n      dup5\n        /* \"#utility.yul\":18551:18709   */\n      tag_383\n      jump\t// in\n    tag_567:\n        /* \"#utility.yul\":18543:18709   */\n      swap1\n      pop\n        /* \"#utility.yul\":18243:18716   */\n      swap3\n      swap2\n      pop\n      pop\n      jump\t// out\n        /* \"#utility.yul\":18722:19068   */\n    tag_384:\n        /* \"#utility.yul\":18834:18838   */\n      0x00\n        /* \"#utility.yul\":18924:18942   */\n      0xffffffffffffffff\n        /* \"#utility.yul\":18916:18922   */\n      dup3\n        /* \"#utility.yul\":18913:18943   */\n      gt\n        /* \"#utility.yul\":18910:18966   */\n      iszero\n      tag_569\n      jumpi\n        /* \"#utility.yul\":18946:18964   */\n      tag_570\n      tag_64\n      jump\t// in\n    tag_570:\n        /* \"#utility.yul\":18910:18966   */\n    tag_569:\n        /* \"#utility.yul\":18996:19000   */\n      0x20\n        /* \"#utility.yul\":18988:18994   */\n      dup3\n        /* \"#utility.yul\":18984:19001   */\n      mul\n        /* \"#utility.yul\":18976:19001   */\n      swap1\n      pop\n        /* \"#utility.yul\":19056:19060   */\n      0x20\n        /* \"#utility.yul\":19050:19054   */\n      dup2\n        /* \"#utility.yul\":19046:19061   */\n      add\n        /* \"#utility.yul\":19038:19061   */\n      swap1\n      pop\n        /* \"#utility.yul\":18722:19068   */\n      swap2\n      swap1\n      pop\n      jump\t// out\n        /* \"#utility.yul\":19074:19191   */\n    tag_385:\n        /* \"#utility.yul\":19183:19184   */\n      0x00\n        /* \"#utility.yul\":19180:19181   */\n      dup1\n        /* \"#utility.yul\":19173:19185   */\n      revert\n        /* \"#utility.yul\":19197:19518   */\n    tag_386:\n        /* \"#utility.yul\":19284:19288   */\n      0x00\n        /* \"#utility.yul\":19374:19392   */\n      0xffffffffffffffff\n        /* \"#utility.yul\":19366:19372   */\n      dup3\n        /* \"#utility.yul\":19363:19393   */\n      gt\n        /* \"#utility.yul\":19360:19416   */\n      iszero\n      tag_573\n      jumpi\n        /* \"#utility.yul\":19396:19414   */\n      tag_574\n      tag_64\n      jump\t// in\n    tag_574:\n        /* \"#utility.yul\":19360:19416   */\n    tag_573:\n        /* \"#utility.yul\":19446:19450   */\n      0x20\n        /* \"#utility.yul\":19438:19444   */\n      dup3\n        /* \"#utility.yul\":19434:19451   */\n      mul\n        /* \"#utility.yul\":19426:19451   */\n      swap1\n      pop\n        /* \"#utility.yul\":19506:19510   */\n      0x20\n        /* \"#utility.yul\":19500:19504   */\n      dup2\n        /* \"#utility.yul\":19496:19511   */\n      add\n        /* \"#utility.yul\":19488:19511   */\n      swap1\n      pop\n        /* \"#utility.yul\":19197:19518   */\n      swap2\n      swap1\n      pop\n      jump\t// out\n        /* \"#utility.yul\":19540:20485   */\n    tag_387:\n        /* \"#utility.yul\":19646:19651   */\n      0x00\n        /* \"#utility.yul\":19671:19762   */\n      tag_576\n        /* \"#utility.yul\":19687:19761   */\n      tag_577\n        /* \"#utility.yul\":19754:19760   */\n      dup5\n        /* \"#utility.yul\":19687:19761   */\n      tag_386\n      jump\t// in\n    tag_577:\n        /* \"#utility.yul\":19671:19762   */\n      tag_341\n      jump\t// in\n    tag_576:\n        /* \"#utility.yul\":19662:19762   */\n      swap1\n      pop\n        /* \"#utility.yul\":19782:19787   */\n      dup1\n        /* \"#utility.yul\":19811:19817   */\n      dup4\n        /* \"#utility.yul\":19804:19809   */\n      dup3\n        /* \"#utility.yul\":19797:19818   */\n      mstore\n        /* \"#utility.yul\":19845:19849   */\n      0x20\n        /* \"#utility.yul\":19838:19843   */\n      dup3\n        /* \"#utility.yul\":19834:19850   */\n      add\n        /* \"#utility.yul\":19827:19850   */\n      swap1\n      pop\n        /* \"#utility.yul\":19898:19902   */\n      0x20\n        /* \"#utility.yul\":19890:19896   */\n      dup5\n        /* \"#utility.yul\":19886:19903   */\n      mul\n        /* \"#utility.yul\":19878:19884   */\n      dup4\n        /* \"#utility.yul\":19874:19904   */\n      add\n        /* \"#utility.yul\":19927:19930   */\n      dup6\n        /* \"#utility.yul\":19919:19925   */\n      dup2\n        /* \"#utility.yul\":19916:19931   */\n      gt\n        /* \"#utility.yul\":19913:20035   */\n      iszero\n      tag_578\n      jumpi\n        /* \"#utility.yul\":19946:20025   */\n      tag_579\n      tag_385\n      jump\t// in\n    tag_579:\n        /* \"#utility.yul\":19913:20035   */\n    tag_578:\n        /* \"#utility.yul\":20061:20067   */\n      dup4\n        /* \"#utility.yul\":20044:20479   */\n    tag_580:\n        /* \"#utility.yul\":20078:20084   */\n      dup2\n        /* \"#utility.yul\":20073:20076   */\n      dup2\n        /* \"#utility.yul\":20070:20085   */\n      lt\n        /* \"#utility.yul\":20044:20479   */\n      iszero\n      tag_582\n      jumpi\n        /* \"#utility.yul\":20167:20170   */\n      dup1\n        /* \"#utility.yul\":20154:20171   */\n      calldataload\n        /* \"#utility.yul\":20203:20221   */\n      0xffffffffffffffff\n        /* \"#utility.yul\":20190:20201   */\n      dup2\n        /* \"#utility.yul\":20187:20222   */\n      gt\n        /* \"#utility.yul\":20184:20306   */\n      iszero\n      tag_583\n      jumpi\n        /* \"#utility.yul\":20225:20304   */\n      tag_584\n      tag_337\n      jump\t// in\n    tag_584:\n        /* \"#utility.yul\":20184:20306   */\n    tag_583:\n        /* \"#utility.yul\":20349:20360   */\n      dup1\n        /* \"#utility.yul\":20341:20347   */\n      dup7\n        /* \"#utility.yul\":20337:20361   */\n      add\n        /* \"#utility.yul\":20387:20434   */\n      tag_585\n        /* \"#utility.yul\":20430:20433   */\n      dup10\n        /* \"#utility.yul\":20418:20428   */\n      dup3\n        /* \"#utility.yul\":20387:20434   */\n      tag_345\n      jump\t// in\n    tag_585:\n        /* \"#utility.yul\":20382:20385   */\n      dup6\n        /* \"#utility.yul\":20375:20435   */\n      mstore\n        /* \"#utility.yul\":20464:20468   */\n      0x20\n        /* \"#utility.yul\":20459:20462   */\n      dup6\n        /* \"#utility.yul\":20455:20469   */\n      add\n        /* \"#utility.yul\":20448:20469   */\n      swap5\n      pop\n        /* \"#utility.yul\":20120:20479   */\n      pop\n      pop\n        /* \"#utility.yul\":20104:20108   */\n      0x20\n        /* \"#utility.yul\":20099:20102   */\n      dup2\n        /* \"#utility.yul\":20095:20109   */\n      add\n        /* \"#utility.yul\":20088:20109   */\n      swap1\n      pop\n        /* \"#utility.yul\":20044:20479   */\n      jump(tag_580)\n    tag_582:\n        /* \"#utility.yul\":20048:20069   */\n      pop\n        /* \"#utility.yul\":19652:20485   */\n      pop\n      pop\n        /* \"#utility.yul\":19540:20485   */\n      swap4\n      swap3\n      pop\n      pop\n      pop\n      jump\t// out\n        /* \"#utility.yul\":20507:20897   */\n    tag_388:\n        /* \"#utility.yul\":20588:20593   */\n      0x00\n        /* \"#utility.yul\":20637:20640   */\n      dup3\n        /* \"#utility.yul\":20630:20634   */\n      0x1f\n        /* \"#utility.yul\":20622:20628   */\n      dup4\n        /* \"#utility.yul\":20618:20635   */\n      add\n        /* \"#utility.yul\":20614:20641   */\n      slt\n        /* \"#utility.yul\":20604:20726   */\n      tag_587\n      jumpi\n        /* \"#utility.yul\":20645:20724   */\n      tag_588\n      tag_337\n      jump\t// in\n    tag_588:\n        /* \"#utility.yul\":20604:20726   */\n    tag_587:\n        /* \"#utility.yul\":20762:20768   */\n      dup2\n        /* \"#utility.yul\":20749:20769   */\n      calldataload\n        /* \"#utility.yul\":20787:20891   */\n      tag_589\n        /* \"#utility.yul\":20887:20890   */\n      dup5\n        /* \"#utility.yul\":20879:20885   */\n      dup3\n        /* \"#utility.yul\":20872:20876   */\n      0x20\n        /* \"#utility.yul\":20864:20870   */\n      dup7\n        /* \"#utility.yul\":20860:20877   */\n      add\n        /* \"#utility.yul\":20787:20891   */\n      tag_387\n      jump\t// in\n    tag_589:\n        /* \"#utility.yul\":20778:20891   */\n      swap2\n      pop\n        /* \"#utility.yul\":20594:20897   */\n      pop\n        /* \"#utility.yul\":20507:20897   */\n      swap3\n      swap2\n      pop\n      pop\n      jump\t// out\n        /* \"#utility.yul\":20921:21941   */\n    tag_389:\n        /* \"#utility.yul\":21052:21057   */\n      0x00\n        /* \"#utility.yul\":21077:21193   */\n      tag_591\n        /* \"#utility.yul\":21093:21192   */\n      tag_592\n        /* \"#utility.yul\":21185:21191   */\n      dup5\n        /* \"#utility.yul\":21093:21192   */\n      tag_384\n      jump\t// in\n    tag_592:\n        /* \"#utility.yul\":21077:21193   */\n      tag_341\n      jump\t// in\n    tag_591:\n        /* \"#utility.yul\":21068:21193   */\n      swap1\n      pop\n        /* \"#utility.yul\":21213:21218   */\n      dup1\n        /* \"#utility.yul\":21242:21248   */\n      dup4\n        /* \"#utility.yul\":21235:21240   */\n      dup3\n        /* \"#utility.yul\":21228:21249   */\n      mstore\n        /* \"#utility.yul\":21276:21280   */\n      0x20\n        /* \"#utility.yul\":21269:21274   */\n      dup3\n        /* \"#utility.yul\":21265:21281   */\n      add\n        /* \"#utility.yul\":21258:21281   */\n      swap1\n      pop\n        /* \"#utility.yul\":21329:21333   */\n      0x20\n        /* \"#utility.yul\":21321:21327   */\n      dup5\n        /* \"#utility.yul\":21317:21334   */\n      mul\n        /* \"#utility.yul\":21309:21315   */\n      dup4\n        /* \"#utility.yul\":21305:21335   */\n      add\n        /* \"#utility.yul\":21358:21361   */\n      dup6\n        /* \"#utility.yul\":21350:21356   */\n      dup2\n        /* \"#utility.yul\":21347:21362   */\n      gt\n        /* \"#utility.yul\":21344:21466   */\n      iszero\n      tag_593\n      jumpi\n        /* \"#utility.yul\":21377:21456   */\n      tag_594\n      tag_385\n      jump\t// in\n    tag_594:\n        /* \"#utility.yul\":21344:21466   */\n    tag_593:\n        /* \"#utility.yul\":21492:21498   */\n      dup4\n        /* \"#utility.yul\":21475:21935   */\n    tag_595:\n        /* \"#utility.yul\":21509:21515   */\n      dup2\n        /* \"#utility.yul\":21504:21507   */\n      dup2\n        /* \"#utility.yul\":21501:21516   */\n      lt\n        /* \"#utility.yul\":21475:21935   */\n      iszero\n      tag_597\n      jumpi\n        /* \"#utility.yul\":21598:21601   */\n      dup1\n        /* \"#utility.yul\":21585:21602   */\n      calldataload\n        /* \"#utility.yul\":21634:21652   */\n      0xffffffffffffffff\n        /* \"#utility.yul\":21621:21632   */\n      dup2\n        /* \"#utility.yul\":21618:21653   */\n      gt\n        /* \"#utility.yul\":21615:21737   */\n      iszero\n      tag_598\n      jumpi\n        /* \"#utility.yul\":21656:21735   */\n      tag_599\n      tag_337\n      jump\t// in\n    tag_599:\n        /* \"#utility.yul\":21615:21737   */\n    tag_598:\n        /* \"#utility.yul\":21780:21791   */\n      dup1\n        /* \"#utility.yul\":21772:21778   */\n      dup7\n        /* \"#utility.yul\":21768:21792   */\n      add\n        /* \"#utility.yul\":21818:21890   */\n      tag_600\n        /* \"#utility.yul\":21886:21889   */\n      dup10\n        /* \"#utility.yul\":21874:21884   */\n      dup3\n        /* \"#utility.yul\":21818:21890   */\n      tag_388\n      jump\t// in\n    tag_600:\n        /* \"#utility.yul\":21813:21816   */\n      dup6\n        /* \"#utility.yul\":21806:21891   */\n      mstore\n        /* \"#utility.yul\":21920:21924   */\n      0x20\n        /* \"#utility.yul\":21915:21918   */\n      dup6\n        /* \"#utility.yul\":21911:21925   */\n      add\n        /* \"#utility.yul\":21904:21925   */\n      swap5\n      pop\n        /* \"#utility.yul\":21551:21935   */\n      pop\n      pop\n        /* \"#utility.yul\":21535:21539   */\n      0x20\n        /* \"#utility.yul\":21530:21533   */\n      dup2\n        /* \"#utility.yul\":21526:21540   */\n      add\n        /* \"#utility.yul\":21519:21540   */\n      swap1\n      pop\n        /* \"#utility.yul\":21475:21935   */\n      jump(tag_595)\n    tag_597:\n        /* \"#utility.yul\":21479:21500   */\n      pop\n        /* \"#utility.yul\":21058:21941   */\n      pop\n      pop\n        /* \"#utility.yul\":20921:21941   */\n      swap4\n      swap3\n      pop\n      pop\n      pop\n      jump\t// out\n        /* \"#utility.yul\":21965:22405   */\n    tag_390:\n        /* \"#utility.yul\":22071:22076   */\n      0x00\n        /* \"#utility.yul\":22120:22123   */\n      dup3\n        /* \"#utility.yul\":22113:22117   */\n      0x1f\n        /* \"#utility.yul\":22105:22111   */\n      dup4\n        /* \"#utility.yul\":22101:22118   */\n      add\n        /* \"#utility.yul\":22097:22124   */\n      slt\n        /* \"#utility.yul\":22087:22209   */\n      tag_602\n      jumpi\n        /* \"#utility.yul\":22128:22207   */\n      tag_603\n      tag_337\n      jump\t// in\n    tag_603:\n        /* \"#utility.yul\":22087:22209   */\n    tag_602:\n        /* \"#utility.yul\":22245:22251   */\n      dup2\n        /* \"#utility.yul\":22232:22252   */\n      calldataload\n        /* \"#utility.yul\":22270:22399   */\n      tag_604\n        /* \"#utility.yul\":22395:22398   */\n      dup5\n        /* \"#utility.yul\":22387:22393   */\n      dup3\n        /* \"#utility.yul\":22380:22384   */\n      0x20\n        /* \"#utility.yul\":22372:22378   */\n      dup7\n        /* \"#utility.yul\":22368:22385   */\n      add\n        /* \"#utility.yul\":22270:22399   */\n      tag_389\n      jump\t// in\n    tag_604:\n        /* \"#utility.yul\":22261:22399   */\n      swap2\n      pop\n        /* \"#utility.yul\":22077:22405   */\n      pop\n        /* \"#utility.yul\":21965:22405   */\n      swap3\n      swap2\n      pop\n      pop\n      jump\t// out\n        /* \"#utility.yul\":22411:22718   */\n    tag_391:\n        /* \"#utility.yul\":22472:22476   */\n      0x00\n        /* \"#utility.yul\":22562:22580   */\n      0xffffffffffffffff\n        /* \"#utility.yul\":22554:22560   */\n      dup3\n        /* \"#utility.yul\":22551:22581   */\n      gt\n        /* \"#utility.yul\":22548:22604   */\n      iszero\n      tag_606\n      jumpi\n        /* \"#utility.yul\":22584:22602   */\n      tag_607\n      tag_64\n      jump\t// in\n    tag_607:\n        /* \"#utility.yul\":22548:22604   */\n    tag_606:\n        /* \"#utility.yul\":22622:22651   */\n      tag_608\n        /* \"#utility.yul\":22644:22650   */\n      dup3\n        /* \"#utility.yul\":22622:22651   */\n      tag_339\n      jump\t// in\n    tag_608:\n        /* \"#utility.yul\":22614:22651   */\n      swap1\n      pop\n        /* \"#utility.yul\":22706:22710   */\n      0x20\n        /* \"#utility.yul\":22700:22704   */\n      dup2\n        /* \"#utility.yul\":22696:22711   */\n      add\n        /* \"#utility.yul\":22688:22711   */\n      swap1\n      pop\n        /* \"#utility.yul\":22411:22718   */\n      swap2\n      swap1\n      pop\n      jump\t// out\n        /* \"#utility.yul\":22724:23147   */\n    tag_392:\n        /* \"#utility.yul\":22801:22806   */\n      0x00\n        /* \"#utility.yul\":22826:22891   */\n      tag_610\n        /* \"#utility.yul\":22842:22890   */\n      tag_611\n        /* \"#utility.yul\":22883:22889   */\n      dup5\n        /* \"#utility.yul\":22842:22890   */\n      tag_391\n      jump\t// in\n    tag_611:\n        /* \"#utility.yul\":22826:22891   */\n      tag_341\n      jump\t// in\n    tag_610:\n        /* \"#utility.yul\":22817:22891   */\n      swap1\n      pop\n        /* \"#utility.yul\":22914:22920   */\n      dup3\n        /* \"#utility.yul\":22907:22912   */\n      dup2\n        /* \"#utility.yul\":22900:22921   */\n      mstore\n        /* \"#utility.yul\":22952:22956   */\n      0x20\n        /* \"#utility.yul\":22945:22950   */\n      dup2\n        /* \"#utility.yul\":22941:22957   */\n      add\n        /* \"#utility.yul\":22990:22993   */\n      dup5\n        /* \"#utility.yul\":22981:22987   */\n      dup5\n        /* \"#utility.yul\":22976:22979   */\n      dup5\n        /* \"#utility.yul\":22972:22988   */\n      add\n        /* \"#utility.yul\":22969:22994   */\n      gt\n        /* \"#utility.yul\":22966:23078   */\n      iszero\n      tag_612\n      jumpi\n        /* \"#utility.yul\":22997:23076   */\n      tag_613\n      tag_338\n      jump\t// in\n    tag_613:\n        /* \"#utility.yul\":22966:23078   */\n    tag_612:\n        /* \"#utility.yul\":23087:23141   */\n      tag_614\n        /* \"#utility.yul\":23134:23140   */\n      dup5\n        /* \"#utility.yul\":23129:23132   */\n      dup3\n        /* \"#utility.yul\":23124:23127   */\n      dup6\n        /* \"#utility.yul\":23087:23141   */\n      tag_343\n      jump\t// in\n    tag_614:\n        /* \"#utility.yul\":22807:23147   */\n      pop\n        /* \"#utility.yul\":22724:23147   */\n      swap4\n      swap3\n      pop\n      pop\n      pop\n      jump\t// out\n        /* \"#utility.yul\":23166:23504   */\n    tag_393:\n        /* \"#utility.yul\":23221:23226   */\n      0x00\n        /* \"#utility.yul\":23270:23273   */\n      dup3\n        /* \"#utility.yul\":23263:23267   */\n      0x1f\n        /* \"#utility.yul\":23255:23261   */\n      dup4\n        /* \"#utility.yul\":23251:23268   */\n      add\n        /* \"#utility.yul\":23247:23274   */\n      slt\n        /* \"#utility.yul\":23237:23359   */\n      tag_616\n      jumpi\n        /* \"#utility.yul\":23278:23357   */\n      tag_617\n      tag_337\n      jump\t// in\n    tag_617:\n        /* \"#utility.yul\":23237:23359   */\n    tag_616:\n        /* \"#utility.yul\":23395:23401   */\n      dup2\n        /* \"#utility.yul\":23382:23402   */\n      calldataload\n        /* \"#utility.yul\":23420:23498   */\n      tag_618\n        /* \"#utility.yul\":23494:23497   */\n      dup5\n        /* \"#utility.yul\":23486:23492   */\n      dup3\n        /* \"#utility.yul\":23479:23483   */\n      0x20\n        /* \"#utility.yul\":23471:23477   */\n      dup7\n        /* \"#utility.yul\":23467:23484   */\n      add\n        /* \"#utility.yul\":23420:23498   */\n      tag_392\n      jump\t// in\n    tag_618:\n        /* \"#utility.yul\":23411:23498   */\n      swap2\n      pop\n        /* \"#utility.yul\":23227:23504   */\n      pop\n        /* \"#utility.yul\":23166:23504   */\n      swap3\n      swap2\n      pop\n      pop\n      jump\t// out\n        /* \"#utility.yul\":23510:26697   */\n    tag_23:\n        /* \"#utility.yul\":23911:23917   */\n      0x00\n        /* \"#utility.yul\":23919:23925   */\n      dup1\n        /* \"#utility.yul\":23927:23933   */\n      0x00\n        /* \"#utility.yul\":23935:23941   */\n      dup1\n        /* \"#utility.yul\":23943:23949   */\n      0x00\n        /* \"#utility.yul\":23951:23957   */\n      dup1\n        /* \"#utility.yul\":23959:23965   */\n      0x00\n        /* \"#utility.yul\":23967:23973   */\n      dup1\n        /* \"#utility.yul\":24016:24019   */\n      0x0100\n        /* \"#utility.yul\":24004:24013   */\n      dup10\n        /* \"#utility.yul\":23995:24002   */\n      dup12\n        /* \"#utility.yul\":23991:24014   */\n      sub\n        /* \"#utility.yul\":23987:24020   */\n      slt\n        /* \"#utility.yul\":23984:24104   */\n      iszero\n      tag_620\n      jumpi\n        /* \"#utility.yul\":24023:24102   */\n      tag_621\n      tag_335\n      jump\t// in\n    tag_621:\n        /* \"#utility.yul\":23984:24104   */\n    tag_620:\n        /* \"#utility.yul\":24171:24172   */\n      0x00\n        /* \"#utility.yul\":24160:24169   */\n      dup10\n        /* \"#utility.yul\":24156:24173   */\n      add\n        /* \"#utility.yul\":24143:24174   */\n      calldataload\n        /* \"#utility.yul\":24201:24219   */\n      0xffffffffffffffff\n        /* \"#utility.yul\":24193:24199   */\n      dup2\n        /* \"#utility.yul\":24190:24220   */\n      gt\n        /* \"#utility.yul\":24187:24304   */\n      iszero\n      tag_622\n      jumpi\n        /* \"#utility.yul\":24223:24302   */\n      tag_623\n      tag_336\n      jump\t// in\n    tag_623:\n        /* \"#utility.yul\":24187:24304   */\n    tag_622:\n        /* \"#utility.yul\":24328:24391   */\n      tag_624\n        /* \"#utility.yul\":24383:24390   */\n      dup12\n        /* \"#utility.yul\":24374:24380   */\n      dup3\n        /* \"#utility.yul\":24363:24372   */\n      dup13\n        /* \"#utility.yul\":24359:24381   */\n      add\n        /* \"#utility.yul\":24328:24391   */\n      tag_345\n      jump\t// in\n    tag_624:\n        /* \"#utility.yul\":24318:24391   */\n      swap9\n      pop\n        /* \"#utility.yul\":24114:24401   */\n      pop\n        /* \"#utility.yul\":24468:24470   */\n      0x20\n        /* \"#utility.yul\":24457:24466   */\n      dup10\n        /* \"#utility.yul\":24453:24471   */\n      add\n        /* \"#utility.yul\":24440:24472   */\n      calldataload\n        /* \"#utility.yul\":24499:24517   */\n      0xffffffffffffffff\n        /* \"#utility.yul\":24491:24497   */\n      dup2\n        /* \"#utility.yul\":24488:24518   */\n      gt\n        /* \"#utility.yul\":24485:24602   */\n      iszero\n      tag_625\n      jumpi\n        /* \"#utility.yul\":24521:24600   */\n      tag_626\n      tag_336\n      jump\t// in\n    tag_626:\n        /* \"#utility.yul\":24485:24602   */\n    tag_625:\n        /* \"#utility.yul\":24626:24689   */\n      tag_627\n        /* \"#utility.yul\":24681:24688   */\n      dup12\n        /* \"#utility.yul\":24672:24678   */\n      dup3\n        /* \"#utility.yul\":24661:24670   */\n      dup13\n        /* \"#utility.yul\":24657:24679   */\n      add\n        /* \"#utility.yul\":24626:24689   */\n      tag_345\n      jump\t// in\n    tag_627:\n        /* \"#utility.yul\":24616:24689   */\n      swap8\n      pop\n        /* \"#utility.yul\":24411:24699   */\n      pop\n        /* \"#utility.yul\":24766:24768   */\n      0x40\n        /* \"#utility.yul\":24755:24764   */\n      dup10\n        /* \"#utility.yul\":24751:24769   */\n      add\n        /* \"#utility.yul\":24738:24770   */\n      calldataload\n        /* \"#utility.yul\":24797:24815   */\n      0xffffffffffffffff\n        /* \"#utility.yul\":24789:24795   */\n      dup2\n        /* \"#utility.yul\":24786:24816   */\n      gt\n        /* \"#utility.yul\":24783:24900   */\n      iszero\n      tag_628\n      jumpi\n        /* \"#utility.yul\":24819:24898   */\n      tag_629\n      tag_336\n      jump\t// in\n    tag_629:\n        /* \"#utility.yul\":24783:24900   */\n    tag_628:\n        /* \"#utility.yul\":24924:24987   */\n      tag_630\n        /* \"#utility.yul\":24979:24986   */\n      dup12\n        /* \"#utility.yul\":24970:24976   */\n      dup3\n        /* \"#utility.yul\":24959:24968   */\n      dup13\n        /* \"#utility.yul\":24955:24977   */\n      add\n        /* \"#utility.yul\":24924:24987   */\n      tag_345\n      jump\t// in\n    tag_630:\n        /* \"#utility.yul\":24914:24987   */\n      swap7\n      pop\n        /* \"#utility.yul\":24709:24997   */\n      pop\n        /* \"#utility.yul\":25064:25066   */\n      0x60\n        /* \"#utility.yul\":25053:25062   */\n      dup10\n        /* \"#utility.yul\":25049:25067   */\n      add\n        /* \"#utility.yul\":25036:25068   */\n      calldataload\n        /* \"#utility.yul\":25095:25113   */\n      0xffffffffffffffff\n        /* \"#utility.yul\":25087:25093   */\n      dup2\n        /* \"#utility.yul\":25084:25114   */\n      gt\n        /* \"#utility.yul\":25081:25198   */\n      iszero\n      tag_631\n      jumpi\n        /* \"#utility.yul\":25117:25196   */\n      tag_632\n      tag_336\n      jump\t// in\n    tag_632:\n        /* \"#utility.yul\":25081:25198   */\n    tag_631:\n        /* \"#utility.yul\":25222:25335   */\n      tag_633\n        /* \"#utility.yul\":25327:25334   */\n      dup12\n        /* \"#utility.yul\":25318:25324   */\n      dup3\n        /* \"#utility.yul\":25307:25316   */\n      dup13\n        /* \"#utility.yul\":25303:25325   */\n      add\n        /* \"#utility.yul\":25222:25335   */\n      tag_390\n      jump\t// in\n    tag_633:\n        /* \"#utility.yul\":25212:25335   */\n      swap6\n      pop\n        /* \"#utility.yul\":25007:25345   */\n      pop\n        /* \"#utility.yul\":25412:25415   */\n      0x80\n        /* \"#utility.yul\":25401:25410   */\n      dup10\n        /* \"#utility.yul\":25397:25416   */\n      add\n        /* \"#utility.yul\":25384:25417   */\n      calldataload\n        /* \"#utility.yul\":25444:25462   */\n      0xffffffffffffffff\n        /* \"#utility.yul\":25436:25442   */\n      dup2\n        /* \"#utility.yul\":25433:25463   */\n      gt\n        /* \"#utility.yul\":25430:25547   */\n      iszero\n      tag_634\n      jumpi\n        /* \"#utility.yul\":25466:25545   */\n      tag_635\n      tag_336\n      jump\t// in\n    tag_635:\n        /* \"#utility.yul\":25430:25547   */\n    tag_634:\n        /* \"#utility.yul\":25571:25684   */\n      tag_636\n        /* \"#utility.yul\":25676:25683   */\n      dup12\n        /* \"#utility.yul\":25667:25673   */\n      dup3\n        /* \"#utility.yul\":25656:25665   */\n      dup13\n        /* \"#utility.yul\":25652:25674   */\n      add\n        /* \"#utility.yul\":25571:25684   */\n      tag_390\n      jump\t// in\n    tag_636:\n        /* \"#utility.yul\":25561:25684   */\n      swap5\n      pop\n        /* \"#utility.yul\":25355:25694   */\n      pop\n        /* \"#utility.yul\":25761:25764   */\n      0xa0\n        /* \"#utility.yul\":25750:25759   */\n      dup10\n        /* \"#utility.yul\":25746:25765   */\n      add\n        /* \"#utility.yul\":25733:25766   */\n      calldataload\n        /* \"#utility.yul\":25793:25811   */\n      0xffffffffffffffff\n        /* \"#utility.yul\":25785:25791   */\n      dup2\n        /* \"#utility.yul\":25782:25812   */\n      gt\n        /* \"#utility.yul\":25779:25896   */\n      iszero\n      tag_637\n      jumpi\n        /* \"#utility.yul\":25815:25894   */\n      tag_638\n      tag_336\n      jump\t// in\n    tag_638:\n        /* \"#utility.yul\":25779:25896   */\n    tag_637:\n        /* \"#utility.yul\":25920:26033   */\n      tag_639\n        /* \"#utility.yul\":26025:26032   */\n      dup12\n        /* \"#utility.yul\":26016:26022   */\n      dup3\n        /* \"#utility.yul\":26005:26014   */\n      dup13\n        /* \"#utility.yul\":26001:26023   */\n      add\n        /* \"#utility.yul\":25920:26033   */\n      tag_390\n      jump\t// in\n    tag_639:\n        /* \"#utility.yul\":25910:26033   */\n      swap4\n      pop\n        /* \"#utility.yul\":25704:26043   */\n      pop\n        /* \"#utility.yul\":26110:26113   */\n      0xc0\n        /* \"#utility.yul\":26099:26108   */\n      dup10\n        /* \"#utility.yul\":26095:26114   */\n      add\n        /* \"#utility.yul\":26082:26115   */\n      calldataload\n        /* \"#utility.yul\":26142:26160   */\n      0xffffffffffffffff\n        /* \"#utility.yul\":26134:26140   */\n      dup2\n        /* \"#utility.yul\":26131:26161   */\n      gt\n        /* \"#utility.yul\":26128:26245   */\n      iszero\n      tag_640\n      jumpi\n        /* \"#utility.yul\":26164:26243   */\n      tag_641\n      tag_336\n      jump\t// in\n    tag_641:\n        /* \"#utility.yul\":26128:26245   */\n    tag_640:\n        /* \"#utility.yul\":26269:26382   */\n      tag_642\n        /* \"#utility.yul\":26374:26381   */\n      dup12\n        /* \"#utility.yul\":26365:26371   */\n      dup3\n        /* \"#utility.yul\":26354:26363   */\n      dup13\n        /* \"#utility.yul\":26350:26372   */\n      add\n        /* \"#utility.yul\":26269:26382   */\n      tag_390\n      jump\t// in\n    tag_642:\n        /* \"#utility.yul\":26259:26382   */\n      swap3\n      pop\n        /* \"#utility.yul\":26053:26392   */\n      pop\n        /* \"#utility.yul\":26459:26462   */\n      0xe0\n        /* \"#utility.yul\":26448:26457   */\n      dup10\n        /* \"#utility.yul\":26444:26463   */\n      add\n        /* \"#utility.yul\":26431:26464   */\n      calldataload\n        /* \"#utility.yul\":26491:26509   */\n      0xffffffffffffffff\n        /* \"#utility.yul\":26483:26489   */\n      dup2\n        /* \"#utility.yul\":26480:26510   */\n      gt\n        /* \"#utility.yul\":26477:26594   */\n      iszero\n      tag_643\n      jumpi\n        /* \"#utility.yul\":26513:26592   */\n      tag_644\n      tag_336\n      jump\t// in\n    tag_644:\n        /* \"#utility.yul\":26477:26594   */\n    tag_643:\n        /* \"#utility.yul\":26618:26680   */\n      tag_645\n        /* \"#utility.yul\":26672:26679   */\n      dup12\n        /* \"#utility.yul\":26663:26669   */\n      dup3\n        /* \"#utility.yul\":26652:26661   */\n      dup13\n        /* \"#utility.yul\":26648:26670   */\n      add\n        /* \"#utility.yul\":26618:26680   */\n      tag_393\n      jump\t// in\n    tag_645:\n        /* \"#utility.yul\":26608:26680   */\n      swap2\n      pop\n        /* \"#utility.yul\":26402:26690   */\n      pop\n        /* \"#utility.yul\":23510:26697   */\n      swap3\n      swap6\n      swap9\n      pop\n      swap3\n      swap6\n      swap9\n      swap1\n      swap4\n      swap7\n      pop\n      jump\t// out\n        /* \"#utility.yul\":26703:28388   */\n    tag_34:\n        /* \"#utility.yul\":26929:26935   */\n      0x00\n        /* \"#utility.yul\":26937:26943   */\n      dup1\n        /* \"#utility.yul\":26945:26951   */\n      0x00\n        /* \"#utility.yul\":26953:26959   */\n      dup1\n        /* \"#utility.yul\":27002:27005   */\n      0x80\n        /* \"#utility.yul\":26990:26999   */\n      dup6\n        /* \"#utility.yul\":26981:26988   */\n      dup8\n        /* \"#utility.yul\":26977:27000   */\n      sub\n        /* \"#utility.yul\":26973:27006   */\n      slt\n        /* \"#utility.yul\":26970:27090   */\n      iszero\n      tag_647\n      jumpi\n        /* \"#utility.yul\":27009:27088   */\n      tag_648\n      tag_335\n      jump\t// in\n    tag_648:\n        /* \"#utility.yul\":26970:27090   */\n    tag_647:\n        /* \"#utility.yul\":27157:27158   */\n      0x00\n        /* \"#utility.yul\":27146:27155   */\n      dup6\n        /* \"#utility.yul\":27142:27159   */\n      add\n        /* \"#utility.yul\":27129:27160   */\n      calldataload\n        /* \"#utility.yul\":27187:27205   */\n      0xffffffffffffffff\n        /* \"#utility.yul\":27179:27185   */\n      dup2\n        /* \"#utility.yul\":27176:27206   */\n      gt\n        /* \"#utility.yul\":27173:27290   */\n      iszero\n      tag_649\n      jumpi\n        /* \"#utility.yul\":27209:27288   */\n      tag_650\n      tag_336\n      jump\t// in\n    tag_650:\n        /* \"#utility.yul\":27173:27290   */\n    tag_649:\n        /* \"#utility.yul\":27314:27377   */\n      tag_651\n        /* \"#utility.yul\":27369:27376   */\n      dup8\n        /* \"#utility.yul\":27360:27366   */\n      dup3\n        /* \"#utility.yul\":27349:27358   */\n      dup9\n        /* \"#utility.yul\":27345:27367   */\n      add\n        /* \"#utility.yul\":27314:27377   */\n      tag_345\n      jump\t// in\n    tag_651:\n        /* \"#utility.yul\":27304:27377   */\n      swap5\n      pop\n        /* \"#utility.yul\":27100:27387   */\n      pop\n        /* \"#utility.yul\":27454:27456   */\n      0x20\n        /* \"#utility.yul\":27443:27452   */\n      dup6\n        /* \"#utility.yul\":27439:27457   */\n      add\n        /* \"#utility.yul\":27426:27458   */\n      calldataload\n        /* \"#utility.yul\":27485:27503   */\n      0xffffffffffffffff\n        /* \"#utility.yul\":27477:27483   */\n      dup2\n        /* \"#utility.yul\":27474:27504   */\n      gt\n        /* \"#utility.yul\":27471:27588   */\n      iszero\n      tag_652\n      jumpi\n        /* \"#utility.yul\":27507:27586   */\n      tag_653\n      tag_336\n      jump\t// in\n    tag_653:\n        /* \"#utility.yul\":27471:27588   */\n    tag_652:\n        /* \"#utility.yul\":27612:27675   */\n      tag_654\n        /* \"#utility.yul\":27667:27674   */\n      dup8\n        /* \"#utility.yul\":27658:27664   */\n      dup3\n        /* \"#utility.yul\":27647:27656   */\n      dup9\n        /* \"#utility.yul\":27643:27665   */\n      add\n        /* \"#utility.yul\":27612:27675   */\n      tag_345\n      jump\t// in\n    tag_654:\n        /* \"#utility.yul\":27602:27675   */\n      swap4\n      pop\n        /* \"#utility.yul\":27397:27685   */\n      pop\n        /* \"#utility.yul\":27752:27754   */\n      0x40\n        /* \"#utility.yul\":27741:27750   */\n      dup6\n        /* \"#utility.yul\":27737:27755   */\n      add\n        /* \"#utility.yul\":27724:27756   */\n      calldataload\n        /* \"#utility.yul\":27783:27801   */\n      0xffffffffffffffff\n        /* \"#utility.yul\":27775:27781   */\n      dup2\n        /* \"#utility.yul\":27772:27802   */\n      gt\n        /* \"#utility.yul\":27769:27886   */\n      iszero\n      tag_655\n      jumpi\n        /* \"#utility.yul\":27805:27884   */\n      tag_656\n      tag_336\n      jump\t// in\n    tag_656:\n        /* \"#utility.yul\":27769:27886   */\n    tag_655:\n        /* \"#utility.yul\":27910:28023   */\n      tag_657\n        /* \"#utility.yul\":28015:28022   */\n      dup8\n        /* \"#utility.yul\":28006:28012   */\n      dup3\n        /* \"#utility.yul\":27995:28004   */\n      dup9\n        /* \"#utility.yul\":27991:28013   */\n      add\n        /* \"#utility.yul\":27910:28023   */\n      tag_390\n      jump\t// in\n    tag_657:\n        /* \"#utility.yul\":27900:28023   */\n      swap3\n      pop\n        /* \"#utility.yul\":27695:28033   */\n      pop\n        /* \"#utility.yul\":28100:28102   */\n      0x60\n        /* \"#utility.yul\":28089:28098   */\n      dup6\n        /* \"#utility.yul\":28085:28103   */\n      add\n        /* \"#utility.yul\":28072:28104   */\n      calldataload\n        /* \"#utility.yul\":28131:28149   */\n      0xffffffffffffffff\n        /* \"#utility.yul\":28123:28129   */\n      dup2\n        /* \"#utility.yul\":28120:28150   */\n      gt\n        /* \"#utility.yul\":28117:28234   */\n      iszero\n      tag_658\n      jumpi\n        /* \"#utility.yul\":28153:28232   */\n      tag_659\n      tag_336\n      jump\t// in\n    tag_659:\n        /* \"#utility.yul\":28117:28234   */\n    tag_658:\n        /* \"#utility.yul\":28258:28371   */\n      tag_660\n        /* \"#utility.yul\":28363:28370   */\n      dup8\n        /* \"#utility.yul\":28354:28360   */\n      dup3\n        /* \"#utility.yul\":28343:28352   */\n      dup9\n        /* \"#utility.yul\":28339:28361   */\n      add\n        /* \"#utility.yul\":28258:28371   */\n      tag_390\n      jump\t// in\n    tag_660:\n        /* \"#utility.yul\":28248:28371   */\n      swap2\n      pop\n        /* \"#utility.yul\":28043:28381   */\n      pop\n        /* \"#utility.yul\":26703:28388   */\n      swap3\n      swap6\n      swap2\n      swap5\n      pop\n      swap3\n      pop\n      jump\t// out\n        /* \"#utility.yul\":28394:28514   */\n    tag_394:\n        /* \"#utility.yul\":28466:28489   */\n      tag_662\n        /* \"#utility.yul\":28483:28488   */\n      dup2\n        /* \"#utility.yul\":28466:28489   */\n      tag_352\n      jump\t// in\n    tag_662:\n        /* \"#utility.yul\":28459:28464   */\n      dup2\n        /* \"#utility.yul\":28456:28490   */\n      eq\n        /* \"#utility.yul\":28446:28508   */\n      tag_663\n      jumpi\n        /* \"#utility.yul\":28504:28505   */\n      0x00\n        /* \"#utility.yul\":28501:28502   */\n      dup1\n        /* \"#utility.yul\":28494:28506   */\n      revert\n        /* \"#utility.yul\":28446:28508   */\n    tag_663:\n        /* \"#utility.yul\":28394:28514   */\n      pop\n      jump\t// out\n        /* \"#utility.yul\":28520:28657   */\n    tag_395:\n        /* \"#utility.yul\":28565:28570   */\n      0x00\n        /* \"#utility.yul\":28603:28609   */\n      dup2\n        /* \"#utility.yul\":28590:28610   */\n      calldataload\n        /* \"#utility.yul\":28581:28610   */\n      swap1\n      pop\n        /* \"#utility.yul\":28619:28651   */\n      tag_665\n        /* \"#utility.yul\":28645:28650   */\n      dup2\n        /* \"#utility.yul\":28619:28651   */\n      tag_394\n      jump\t// in\n    tag_665:\n        /* \"#utility.yul\":28520:28657   */\n      swap3\n      swap2\n      pop\n      pop\n      jump\t// out\n        /* \"#utility.yul\":28663:29640   */\n    tag_38:\n        /* \"#utility.yul\":28759:28765   */\n      0x00\n        /* \"#utility.yul\":28767:28773   */\n      dup1\n        /* \"#utility.yul\":28775:28781   */\n      0x00\n        /* \"#utility.yul\":28824:28826   */\n      0x60\n        /* \"#utility.yul\":28812:28821   */\n      dup5\n        /* \"#utility.yul\":28803:28810   */\n      dup7\n        /* \"#utility.yul\":28799:28822   */\n      sub\n        /* \"#utility.yul\":28795:28827   */\n      slt\n        /* \"#utility.yul\":28792:28911   */\n      iszero\n      tag_667\n      jumpi\n        /* \"#utility.yul\":28830:28909   */\n      tag_668\n      tag_335\n      jump\t// in\n    tag_668:\n        /* \"#utility.yul\":28792:28911   */\n    tag_667:\n        /* \"#utility.yul\":28978:28979   */\n      0x00\n        /* \"#utility.yul\":28967:28976   */\n      dup5\n        /* \"#utility.yul\":28963:28980   */\n      add\n        /* \"#utility.yul\":28950:28981   */\n      calldataload\n        /* \"#utility.yul\":29008:29026   */\n      0xffffffffffffffff\n        /* \"#utility.yul\":29000:29006   */\n      dup2\n        /* \"#utility.yul\":28997:29027   */\n      gt\n        /* \"#utility.yul\":28994:29111   */\n      iszero\n      tag_669\n      jumpi\n        /* \"#utility.yul\":29030:29109   */\n      tag_670\n      tag_336\n      jump\t// in\n    tag_670:\n        /* \"#utility.yul\":28994:29111   */\n    tag_669:\n        /* \"#utility.yul\":29135:29198   */\n      tag_671\n        /* \"#utility.yul\":29190:29197   */\n      dup7\n        /* \"#utility.yul\":29181:29187   */\n      dup3\n        /* \"#utility.yul\":29170:29179   */\n      dup8\n        /* \"#utility.yul\":29166:29188   */\n      add\n        /* \"#utility.yul\":29135:29198   */\n      tag_345\n      jump\t// in\n    tag_671:\n        /* \"#utility.yul\":29125:29198   */\n      swap4\n      pop\n        /* \"#utility.yul\":28921:29208   */\n      pop\n        /* \"#utility.yul\":29247:29249   */\n      0x20\n        /* \"#utility.yul\":29273:29325   */\n      tag_672\n        /* \"#utility.yul\":29317:29324   */\n      dup7\n        /* \"#utility.yul\":29308:29314   */\n      dup3\n        /* \"#utility.yul\":29297:29306   */\n      dup8\n        /* \"#utility.yul\":29293:29315   */\n      add\n        /* \"#utility.yul\":29273:29325   */\n      tag_395\n      jump\t// in\n    tag_672:\n        /* \"#utility.yul\":29263:29325   */\n      swap3\n      pop\n        /* \"#utility.yul\":29218:29335   */\n      pop\n        /* \"#utility.yul\":29402:29404   */\n      0x40\n        /* \"#utility.yul\":29391:29400   */\n      dup5\n        /* \"#utility.yul\":29387:29405   */\n      add\n        /* \"#utility.yul\":29374:29406   */\n      calldataload\n        /* \"#utility.yul\":29433:29451   */\n      0xffffffffffffffff\n        /* \"#utility.yul\":29425:29431   */\n      dup2\n        /* \"#utility.yul\":29422:29452   */\n      gt\n        /* \"#utility.yul\":29419:29536   */\n      iszero\n      tag_673\n      jumpi\n        /* \"#utility.yul\":29455:29534   */\n      tag_674\n      tag_336\n      jump\t// in\n    tag_674:\n        /* \"#utility.yul\":29419:29536   */\n    tag_673:\n        /* \"#utility.yul\":29560:29623   */\n      tag_675\n        /* \"#utility.yul\":29615:29622   */\n      dup7\n        /* \"#utility.yul\":29606:29612   */\n      dup3\n        /* \"#utility.yul\":29595:29604   */\n      dup8\n        /* \"#utility.yul\":29591:29613   */\n      add\n        /* \"#utility.yul\":29560:29623   */\n      tag_345\n      jump\t// in\n    tag_675:\n        /* \"#utility.yul\":29550:29623   */\n      swap2\n      pop\n        /* \"#utility.yul\":29345:29633   */\n      pop\n        /* \"#utility.yul\":28663:29640   */\n      swap3\n      pop\n      swap3\n      pop\n      swap3\n      jump\t// out\n        /* \"#utility.yul\":29646:29826   */\n    tag_396:\n        /* \"#utility.yul\":29694:29771   */\n      0x4e487b7100000000000000000000000000000000000000000000000000000000\n        /* \"#utility.yul\":29691:29692   */\n      0x00\n        /* \"#utility.yul\":29684:29772   */\n      mstore\n        /* \"#utility.yul\":29791:29795   */\n      0x22\n        /* \"#utility.yul\":29788:29789   */\n      0x04\n        /* \"#utility.yul\":29781:29796   */\n      mstore\n        /* \"#utility.yul\":29815:29819   */\n      0x24\n        /* \"#utility.yul\":29812:29813   */\n      0x00\n        /* \"#utility.yul\":29805:29820   */\n      revert\n        /* \"#utility.yul\":29832:30152   */\n    tag_41:\n        /* \"#utility.yul\":29876:29882   */\n      0x00\n        /* \"#utility.yul\":29913:29914   */\n      0x02\n        /* \"#utility.yul\":29907:29911   */\n      dup3\n        /* \"#utility.yul\":29903:29915   */\n      div\n        /* \"#utility.yul\":29893:29915   */\n      swap1\n      pop\n        /* \"#utility.yul\":29960:29961   */\n      0x01\n        /* \"#utility.yul\":29954:29958   */\n      dup3\n        /* \"#utility.yul\":29950:29962   */\n      and\n        /* \"#utility.yul\":29981:29999   */\n      dup1\n        /* \"#utility.yul\":29971:30052   */\n      tag_678\n      jumpi\n        /* \"#utility.yul\":30037:30041   */\n      0x7f\n        /* \"#utility.yul\":30029:30035   */\n      dup3\n        /* \"#utility.yul\":30025:30042   */\n      and\n        /* \"#utility.yul\":30015:30042   */\n      swap2\n      pop\n        /* \"#utility.yul\":29971:30052   */\n    tag_678:\n        /* \"#utility.yul\":30099:30101   */\n      0x20\n        /* \"#utility.yul\":30091:30097   */\n      dup3\n        /* \"#utility.yul\":30088:30102   */\n      lt\n        /* \"#utility.yul\":30068:30086   */\n      dup2\n        /* \"#utility.yul\":30065:30103   */\n      sub\n        /* \"#utility.yul\":30062:30146   */\n      tag_679\n      jumpi\n        /* \"#utility.yul\":30118:30136   */\n      tag_680\n      tag_396\n      jump\t// in\n    tag_680:\n        /* \"#utility.yul\":30062:30146   */\n    tag_679:\n        /* \"#utility.yul\":29883:30152   */\n      pop\n        /* \"#utility.yul\":29832:30152   */\n      swap2\n      swap1\n      pop\n      jump\t// out\n        /* \"#utility.yul\":30158:30338   */\n    tag_74:\n        /* \"#utility.yul\":30206:30283   */\n      0x4e487b7100000000000000000000000000000000000000000000000000000000\n        /* \"#utility.yul\":30203:30204   */\n      0x00\n        /* \"#utility.yul\":30196:30284   */\n      mstore\n        /* \"#utility.yul\":30303:30307   */\n      0x32\n        /* \"#utility.yul\":30300:30301   */\n      0x04\n        /* \"#utility.yul\":30293:30308   */\n      mstore\n        /* \"#utility.yul\":30327:30331   */\n      0x24\n        /* \"#utility.yul\":30324:30325   */\n      0x00\n        /* \"#utility.yul\":30317:30332   */\n      revert\n        /* \"#utility.yul\":30344:30492   */\n    tag_397:\n        /* \"#utility.yul\":30446:30457   */\n      0x00\n        /* \"#utility.yul\":30483:30486   */\n      dup2\n        /* \"#utility.yul\":30468:30486   */\n      swap1\n      pop\n        /* \"#utility.yul\":30344:30492   */\n      swap3\n      swap2\n      pop\n      pop\n      jump\t// out\n        /* \"#utility.yul\":30498:30639   */\n    tag_398:\n        /* \"#utility.yul\":30547:30551   */\n      0x00\n        /* \"#utility.yul\":30570:30573   */\n      dup2\n        /* \"#utility.yul\":30562:30573   */\n      swap1\n      pop\n        /* \"#utility.yul\":30593:30596   */\n      dup2\n        /* \"#utility.yul\":30590:30591   */\n      0x00\n        /* \"#utility.yul\":30583:30597   */\n      mstore\n        /* \"#utility.yul\":30627:30631   */\n      0x20\n        /* \"#utility.yul\":30624:30625   */\n      0x00\n        /* \"#utility.yul\":30614:30632   */\n      keccak256\n        /* \"#utility.yul\":30606:30632   */\n      swap1\n      pop\n        /* \"#utility.yul\":30498:30639   */\n      swap2\n      swap1\n      pop\n      jump\t// out\n        /* \"#utility.yul\":30669:31543   */\n    tag_399:\n        /* \"#utility.yul\":30772:30775   */\n      0x00\n        /* \"#utility.yul\":30809:30814   */\n      dup2\n        /* \"#utility.yul\":30803:30815   */\n      sload\n        /* \"#utility.yul\":30838:30874   */\n      tag_685\n        /* \"#utility.yul\":30864:30873   */\n      dup2\n        /* \"#utility.yul\":30838:30874   */\n      tag_41\n      jump\t// in\n    tag_685:\n        /* \"#utility.yul\":30890:30979   */\n      tag_686\n        /* \"#utility.yul\":30972:30978   */\n      dup2\n        /* \"#utility.yul\":30967:30970   */\n      dup7\n        /* \"#utility.yul\":30890:30979   */\n      tag_397\n      jump\t// in\n    tag_686:\n        /* \"#utility.yul\":30883:30979   */\n      swap5\n      pop\n        /* \"#utility.yul\":31010:31011   */\n      0x01\n        /* \"#utility.yul\":30999:31008   */\n      dup3\n        /* \"#utility.yul\":30995:31012   */\n      and\n        /* \"#utility.yul\":31026:31027   */\n      0x00\n        /* \"#utility.yul\":31021:31187   */\n      dup2\n      eq\n      tag_688\n      jumpi\n        /* \"#utility.yul\":31201:31202   */\n      0x01\n        /* \"#utility.yul\":31196:31537   */\n      dup2\n      eq\n      tag_689\n      jumpi\n        /* \"#utility.yul\":30988:31537   */\n      jump(tag_687)\n        /* \"#utility.yul\":31021:31187   */\n    tag_688:\n        /* \"#utility.yul\":31105:31109   */\n      0xff\n        /* \"#utility.yul\":31101:31110   */\n      not\n        /* \"#utility.yul\":31090:31099   */\n      dup4\n        /* \"#utility.yul\":31086:31111   */\n      and\n        /* \"#utility.yul\":31081:31084   */\n      dup7\n        /* \"#utility.yul\":31074:31112   */\n      mstore\n        /* \"#utility.yul\":31167:31173   */\n      dup2\n        /* \"#utility.yul\":31160:31174   */\n      iszero\n        /* \"#utility.yul\":31153:31175   */\n      iszero\n        /* \"#utility.yul\":31145:31151   */\n      dup3\n        /* \"#utility.yul\":31141:31176   */\n      mul\n        /* \"#utility.yul\":31136:31139   */\n      dup7\n        /* \"#utility.yul\":31132:31177   */\n      add\n        /* \"#utility.yul\":31125:31177   */\n      swap4\n      pop\n        /* \"#utility.yul\":31021:31187   */\n      jump(tag_687)\n        /* \"#utility.yul\":31196:31537   */\n    tag_689:\n        /* \"#utility.yul\":31263:31301   */\n      tag_690\n        /* \"#utility.yul\":31295:31300   */\n      dup6\n        /* \"#utility.yul\":31263:31301   */\n      tag_398\n      jump\t// in\n    tag_690:\n        /* \"#utility.yul\":31323:31324   */\n      0x00\n        /* \"#utility.yul\":31337:31491   */\n    tag_691:\n        /* \"#utility.yul\":31351:31357   */\n      dup4\n        /* \"#utility.yul\":31348:31349   */\n      dup2\n        /* \"#utility.yul\":31345:31358   */\n      lt\n        /* \"#utility.yul\":31337:31491   */\n      iszero\n      tag_693\n      jumpi\n        /* \"#utility.yul\":31425:31432   */\n      dup2\n        /* \"#utility.yul\":31419:31433   */\n      sload\n        /* \"#utility.yul\":31415:31416   */\n      dup2\n        /* \"#utility.yul\":31410:31413   */\n      dup10\n        /* \"#utility.yul\":31406:31417   */\n      add\n        /* \"#utility.yul\":31399:31434   */\n      mstore\n        /* \"#utility.yul\":31475:31476   */\n      0x01\n        /* \"#utility.yul\":31466:31473   */\n      dup3\n        /* \"#utility.yul\":31462:31477   */\n      add\n        /* \"#utility.yul\":31451:31477   */\n      swap2\n      pop\n        /* \"#utility.yul\":31373:31377   */\n      0x20\n        /* \"#utility.yul\":31370:31371   */\n      dup2\n        /* \"#utility.yul\":31366:31378   */\n      add\n        /* \"#utility.yul\":31361:31378   */\n      swap1\n      pop\n        /* \"#utility.yul\":31337:31491   */\n      jump(tag_691)\n    tag_693:\n        /* \"#utility.yul\":31520:31526   */\n      dup4\n        /* \"#utility.yul\":31515:31518   */\n      dup9\n        /* \"#utility.yul\":31511:31527   */\n      add\n        /* \"#utility.yul\":31504:31527   */\n      swap6\n      pop\n        /* \"#utility.yul\":31203:31537   */\n      pop\n      pop\n        /* \"#utility.yul\":30988:31537   */\n    tag_687:\n      pop\n        /* \"#utility.yul\":30776:31543   */\n      pop\n      pop\n        /* \"#utility.yul\":30669:31543   */\n      swap3\n      swap2\n      pop\n      pop\n      jump\t// out\n        /* \"#utility.yul\":31549:31818   */\n    tag_77:\n        /* \"#utility.yul\":31678:31681   */\n      0x00\n        /* \"#utility.yul\":31700:31792   */\n      tag_695\n        /* \"#utility.yul\":31788:31791   */\n      dup3\n        /* \"#utility.yul\":31779:31785   */\n      dup5\n        /* \"#utility.yul\":31700:31792   */\n      tag_399\n      jump\t// in\n    tag_695:\n        /* \"#utility.yul\":31693:31792   */\n      swap2\n      pop\n        /* \"#utility.yul\":31809:31812   */\n      dup2\n        /* \"#utility.yul\":31802:31812   */\n      swap1\n      pop\n        /* \"#utility.yul\":31549:31818   */\n      swap3\n      swap2\n      pop\n      pop\n      jump\t// out\n        /* \"#utility.yul\":31824:32004   */\n    tag_400:\n        /* \"#utility.yul\":31872:31949   */\n      0x4e487b7100000000000000000000000000000000000000000000000000000000\n        /* \"#utility.yul\":31869:31870   */\n      0x00\n        /* \"#utility.yul\":31862:31950   */\n      mstore\n        /* \"#utility.yul\":31969:31973   */\n      0x11\n        /* \"#utility.yul\":31966:31967   */\n      0x04\n        /* \"#utility.yul\":31959:31974   */\n      mstore\n        /* \"#utility.yul\":31993:31997   */\n      0x24\n        /* \"#utility.yul\":31990:31991   */\n      0x00\n        /* \"#utility.yul\":31983:31998   */\n      revert\n        /* \"#utility.yul\":32010:32087   */\n    tag_401:\n        /* \"#utility.yul\":32047:32054   */\n      0x00\n        /* \"#utility.yul\":32076:32081   */\n      dup2\n        /* \"#utility.yul\":32065:32081   */\n      swap1\n      pop\n        /* \"#utility.yul\":32010:32087   */\n      swap2\n      swap1\n      pop\n      jump\t// out\n        /* \"#utility.yul\":32093:32326   */\n    tag_137:\n        /* \"#utility.yul\":32132:32135   */\n      0x00\n        /* \"#utility.yul\":32155:32179   */\n      tag_699\n        /* \"#utility.yul\":32173:32178   */\n      dup3\n        /* \"#utility.yul\":32155:32179   */\n      tag_401\n      jump\t// in\n    tag_699:\n        /* \"#utility.yul\":32146:32179   */\n      swap2\n      pop\n        /* \"#utility.yul\":32201:32267   */\n      0xffffffffffffffffffffffffffffffffffffffffffffffffffffffffffffffff\n        /* \"#utility.yul\":32194:32199   */\n      dup3\n        /* \"#utility.yul\":32191:32268   */\n      sub\n        /* \"#utility.yul\":32188:32291   */\n      tag_700\n      jumpi\n        /* \"#utility.yul\":32271:32289   */\n      tag_701\n      tag_400\n      jump\t// in\n    tag_701:\n        /* \"#utility.yul\":32188:32291   */\n    tag_700:\n        /* \"#utility.yul\":32318:32319   */\n      0x01\n        /* \"#utility.yul\":32311:32316   */\n      dup3\n        /* \"#utility.yul\":32307:32320   */\n      add\n        /* \"#utility.yul\":32300:32320   */\n      swap1\n      pop\n        /* \"#utility.yul\":32093:32326   */\n      swap2\n      swap1\n      pop\n      jump\t// out\n        /* \"#utility.yul\":32332:32722   */\n    tag_402:\n        /* \"#utility.yul\":32438:32441   */\n      0x00\n        /* \"#utility.yul\":32466:32505   */\n      tag_703\n        /* \"#utility.yul\":32499:32504   */\n      dup3\n        /* \"#utility.yul\":32466:32505   */\n      tag_346\n      jump\t// in\n    tag_703:\n        /* \"#utility.yul\":32521:32610   */\n      tag_704\n        /* \"#utility.yul\":32603:32609   */\n      dup2\n        /* \"#utility.yul\":32598:32601   */\n      dup6\n        /* \"#utility.yul\":32521:32610   */\n      tag_397\n      jump\t// in\n    tag_704:\n        /* \"#utility.yul\":32514:32610   */\n      swap4\n      pop\n        /* \"#utility.yul\":32619:32684   */\n      tag_705\n        /* \"#utility.yul\":32677:32683   */\n      dup2\n        /* \"#utility.yul\":32672:32675   */\n      dup6\n        /* \"#utility.yul\":32665:32669   */\n      0x20\n        /* \"#utility.yul\":32658:32663   */\n      dup7\n        /* \"#utility.yul\":32654:32670   */\n      add\n        /* \"#utility.yul\":32619:32684   */\n      tag_348\n      jump\t// in\n    tag_705:\n        /* \"#utility.yul\":32709:32715   */\n      dup1\n        /* \"#utility.yul\":32704:32707   */\n      dup5\n        /* \"#utility.yul\":32700:32716   */\n      add\n        /* \"#utility.yul\":32693:32716   */\n      swap2\n      pop\n        /* \"#utility.yul\":32442:32722   */\n      pop\n        /* \"#utility.yul\":32332:32722   */\n      swap3\n      swap2\n      pop\n      pop\n      jump\t// out\n        /* \"#utility.yul\":32728:33003   */\n    tag_140:\n        /* \"#utility.yul\":32860:32863   */\n      0x00\n        /* \"#utility.yul\":32882:32977   */\n      tag_707\n        /* \"#utility.yul\":32973:32976   */\n      dup3\n        /* \"#utility.yul\":32964:32970   */\n      dup5\n        /* \"#utility.yul\":32882:32977   */\n      tag_402\n      jump\t// in\n    tag_707:\n        /* \"#utility.yul\":32875:32977   */\n      swap2\n      pop\n        /* \"#utility.yul\":32994:32997   */\n      dup2\n        /* \"#utility.yul\":32987:32997   */\n      swap1\n      pop\n        /* \"#utility.yul\":32728:33003   */\n      swap3\n      swap2\n      pop\n      pop\n      jump\t// out\n        /* \"#utility.yul\":33009:33102   */\n    tag_403:\n        /* \"#utility.yul\":33046:33052   */\n      0x00\n        /* \"#utility.yul\":33093:33095   */\n      0x20\n        /* \"#utility.yul\":33088:33090   */\n      0x1f\n        /* \"#utility.yul\":33081:33086   */\n      dup4\n        /* \"#utility.yul\":33077:33091   */\n      add\n        /* \"#utility.yul\":33073:33096   */\n      div\n        /* \"#utility.yul\":33063:33096   */\n      swap1\n      pop\n        /* \"#utility.yul\":33009:33102   */\n      swap2\n      swap1\n      pop\n      jump\t// out\n        /* \"#utility.yul\":33108:33215   */\n    tag_404:\n        /* \"#utility.yul\":33152:33160   */\n      0x00\n        /* \"#utility.yul\":33202:33207   */\n      dup3\n        /* \"#utility.yul\":33196:33200   */\n      dup3\n        /* \"#utility.yul\":33192:33208   */\n      shl\n        /* \"#utility.yul\":33171:33208   */\n      swap1\n      pop\n        /* \"#utility.yul\":33108:33215   */\n      swap3\n      swap2\n      pop\n      pop\n      jump\t// out\n        /* \"#utility.yul\":33221:33614   */\n    tag_405:\n        /* \"#utility.yul\":33290:33296   */\n      0x00\n        /* \"#utility.yul\":33340:33341   */\n      0x08\n        /* \"#utility.yul\":33328:33338   */\n      dup4\n        /* \"#utility.yul\":33324:33342   */\n      mul\n        /* \"#utility.yul\":33363:33460   */\n      tag_711\n        /* \"#utility.yul\":33393:33459   */\n      0xffffffffffffffffffffffffffffffffffffffffffffffffffffffffffffffff\n        /* \"#utility.yul\":33382:33391   */\n      dup3\n        /* \"#utility.yul\":33363:33460   */\n      tag_404\n      jump\t// in\n    tag_711:\n        /* \"#utility.yul\":33481:33520   */\n      tag_712\n        /* \"#utility.yul\":33511:33519   */\n      dup7\n        /* \"#utility.yul\":33500:33509   */\n      dup4\n        /* \"#utility.yul\":33481:33520   */\n      tag_404\n      jump\t// in\n    tag_712:\n        /* \"#utility.yul\":33469:33520   */\n      swap6\n      pop\n        /* \"#utility.yul\":33553:33557   */\n      dup1\n        /* \"#utility.yul\":33549:33558   */\n      not\n        /* \"#utility.yul\":33542:33547   */\n      dup5\n        /* \"#utility.yul\":33538:33559   */\n      and\n        /* \"#utility.yul\":33529:33559   */\n      swap4\n      pop\n        /* \"#utility.yul\":33602:33606   */\n      dup1\n        /* \"#utility.yul\":33592:33600   */\n      dup7\n        /* \"#utility.yul\":33588:33607   */\n      and\n        /* \"#utility.yul\":33581:33586   */\n      dup5\n        /* \"#utility.yul\":33578:33608   */\n      or\n        /* \"#utility.yul\":33568:33608   */\n      swap3\n      pop\n        /* \"#utility.yul\":33297:33614   */\n      pop\n      pop\n        /* \"#utility.yul\":33221:33614   */\n      swap4\n      swap3\n      pop\n      pop\n      pop\n      jump\t// out\n        /* \"#utility.yul\":33620:33680   */\n    tag_406:\n        /* \"#utility.yul\":33648:33651   */\n      0x00\n        /* \"#utility.yul\":33669:33674   */\n      dup2\n        /* \"#utility.yul\":33662:33674   */\n      swap1\n      pop\n        /* \"#utility.yul\":33620:33680   */\n      swap2\n      swap1\n      pop\n      jump\t// out\n        /* \"#utility.yul\":33686:33828   */\n    tag_407:\n        /* \"#utility.yul\":33736:33745   */\n      0x00\n        /* \"#utility.yul\":33769:33822   */\n      tag_715\n        /* \"#utility.yul\":33787:33821   */\n      tag_716\n        /* \"#utility.yul\":33796:33820   */\n      tag_717\n        /* \"#utility.yul\":33814:33819   */\n      dup5\n        /* \"#utility.yul\":33796:33820   */\n      tag_401\n      jump\t// in\n    tag_717:\n        /* \"#utility.yul\":33787:33821   */\n      tag_406\n      jump\t// in\n    tag_716:\n        /* \"#utility.yul\":33769:33822   */\n      tag_401\n      jump\t// in\n    tag_715:\n        /* \"#utility.yul\":33756:33822   */\n      swap1\n      pop\n        /* \"#utility.yul\":33686:33828   */\n      swap2\n      swap1\n      pop\n      jump\t// out\n        /* \"#utility.yul\":33834:33909   */\n    tag_408:\n        /* \"#utility.yul\":33877:33880   */\n      0x00\n        /* \"#utility.yul\":33898:33903   */\n      dup2\n        /* \"#utility.yul\":33891:33903   */\n      swap1\n      pop\n        /* \"#utility.yul\":33834:33909   */\n      swap2\n      swap1\n      pop\n      jump\t// out\n        /* \"#utility.yul\":33915:34184   */\n    tag_409:\n        /* \"#utility.yul\":34025:34064   */\n      tag_720\n        /* \"#utility.yul\":34056:34063   */\n      dup4\n        /* \"#utility.yul\":34025:34064   */\n      tag_407\n      jump\t// in\n    tag_720:\n        /* \"#utility.yul\":34086:34177   */\n      tag_721\n        /* \"#utility.yul\":34135:34176   */\n      tag_722\n        /* \"#utility.yul\":34159:34175   */\n      dup3\n        /* \"#utility.yul\":34135:34176   */\n      tag_408\n      jump\t// in\n    tag_722:\n        /* \"#utility.yul\":34127:34133   */\n      dup5\n        /* \"#utility.yul\":34120:34124   */\n      dup5\n        /* \"#utility.yul\":34114:34125   */\n      sload\n        /* \"#utility.yul\":34086:34177   */\n      tag_405\n      jump\t// in\n    tag_721:\n        /* \"#utility.yul\":34080:34084   */\n      dup3\n        /* \"#utility.yul\":34073:34178   */\n      sstore\n        /* \"#utility.yul\":33991:34184   */\n      pop\n        /* \"#utility.yul\":33915:34184   */\n      pop\n      pop\n      pop\n      jump\t// out\n        /* \"#utility.yul\":34190:34263   */\n    tag_410:\n        /* \"#utility.yul\":34235:34238   */\n      0x00\n        /* \"#utility.yul\":34190:34263   */\n      swap1\n      jump\t// out\n        /* \"#utility.yul\":34269:34458   */\n    tag_411:\n        /* \"#utility.yul\":34346:34378   */\n      tag_725\n      tag_410\n      jump\t// in\n    tag_725:\n        /* \"#utility.yul\":34387:34452   */\n      tag_726\n        /* \"#utility.yul\":34445:34451   */\n      dup2\n        /* \"#utility.yul\":34437:34443   */\n      dup5\n        /* \"#utility.yul\":34431:34435   */\n      dup5\n        /* \"#utility.yul\":34387:34452   */\n      tag_409\n      jump\t// in\n    tag_726:\n        /* \"#utility.yul\":34322:34458   */\n      pop\n        /* \"#utility.yul\":34269:34458   */\n      pop\n      pop\n      jump\t// out\n        /* \"#utility.yul\":34464:34650   */\n    tag_412:\n        /* \"#utility.yul\":34524:34644   */\n    tag_728:\n        /* \"#utility.yul\":34541:34544   */\n      dup2\n        /* \"#utility.yul\":34534:34539   */\n      dup2\n        /* \"#utility.yul\":34531:34545   */\n      lt\n        /* \"#utility.yul\":34524:34644   */\n      iszero\n      tag_730\n      jumpi\n        /* \"#utility.yul\":34595:34634   */\n      tag_731\n        /* \"#utility.yul\":34632:34633   */\n      0x00\n        /* \"#utility.yul\":34625:34630   */\n      dup3\n        /* \"#utility.yul\":34595:34634   */\n      tag_411\n      jump\t// in\n    tag_731:\n        /* \"#utility.yul\":34568:34569   */\n      0x01\n        /* \"#utility.yul\":34561:34566   */\n      dup2\n        /* \"#utility.yul\":34557:34570   */\n      add\n        /* \"#utility.yul\":34548:34570   */\n      swap1\n      pop\n        /* \"#utility.yul\":34524:34644   */\n      jump(tag_728)\n    tag_730:\n        /* \"#utility.yul\":34464:34650   */\n      pop\n      pop\n      jump\t// out\n        /* \"#utility.yul\":34656:35199   */\n    tag_413:\n        /* \"#utility.yul\":34757:34759   */\n      0x1f\n        /* \"#utility.yul\":34752:34755   */\n      dup3\n        /* \"#utility.yul\":34749:34760   */\n      gt\n        /* \"#utility.yul\":34746:35192   */\n      iszero\n      tag_733\n      jumpi\n        /* \"#utility.yul\":34791:34829   */\n      tag_734\n        /* \"#utility.yul\":34823:34828   */\n      dup2\n        /* \"#utility.yul\":34791:34829   */\n      tag_398\n      jump\t// in\n    tag_734:\n        /* \"#utility.yul\":34875:34904   */\n      tag_735\n        /* \"#utility.yul\":34893:34903   */\n      dup5\n        /* \"#utility.yul\":34875:34904   */\n      tag_403\n      jump\t// in\n    tag_735:\n        /* \"#utility.yul\":34865:34873   */\n      dup2\n        /* \"#utility.yul\":34861:34905   */\n      add\n        /* \"#utility.yul\":35058:35060   */\n      0x20\n        /* \"#utility.yul\":35046:35056   */\n      dup6\n        /* \"#utility.yul\":35043:35061   */\n      lt\n        /* \"#utility.yul\":35040:35089   */\n      iszero\n      tag_736\n      jumpi\n        /* \"#utility.yul\":35079:35087   */\n      dup2\n        /* \"#utility.yul\":35064:35087   */\n      swap1\n      pop\n        /* \"#utility.yul\":35040:35089   */\n    tag_736:\n        /* \"#utility.yul\":35102:35182   */\n      tag_737\n        /* \"#utility.yul\":35158:35180   */\n      tag_738\n        /* \"#utility.yul\":35176:35179   */\n      dup6\n        /* \"#utility.yul\":35158:35180   */\n      tag_403\n      jump\t// in\n    tag_738:\n        /* \"#utility.yul\":35148:35156   */\n      dup4\n        /* \"#utility.yul\":35144:35181   */\n      add\n        /* \"#utility.yul\":35131:35142   */\n      dup3\n        /* \"#utility.yul\":35102:35182   */\n      tag_412\n      jump\t// in\n    tag_737:\n        /* \"#utility.yul\":34761:35192   */\n      pop\n      pop\n        /* \"#utility.yul\":34746:35192   */\n    tag_733:\n        /* \"#utility.yul\":34656:35199   */\n      pop\n      pop\n      pop\n      jump\t// out\n        /* \"#utility.yul\":35205:35322   */\n    tag_414:\n        /* \"#utility.yul\":35259:35267   */\n      0x00\n        /* \"#utility.yul\":35309:35314   */\n      dup3\n        /* \"#utility.yul\":35303:35307   */\n      dup3\n        /* \"#utility.yul\":35299:35315   */\n      shr\n        /* \"#utility.yul\":35278:35315   */\n      swap1\n      pop\n        /* \"#utility.yul\":35205:35322   */\n      swap3\n      swap2\n      pop\n      pop\n      jump\t// out\n        /* \"#utility.yul\":35328:35497   */\n    tag_415:\n        /* \"#utility.yul\":35372:35378   */\n      0x00\n        /* \"#utility.yul\":35405:35456   */\n      tag_741\n        /* \"#utility.yul\":35453:35454   */\n      0x00\n        /* \"#utility.yul\":35449:35455   */\n      not\n        /* \"#utility.yul\":35441:35446   */\n      dup5\n        /* \"#utility.yul\":35438:35439   */\n      0x08\n        /* \"#utility.yul\":35434:35447   */\n      mul\n        /* \"#utility.yul\":35405:35456   */\n      tag_414\n      jump\t// in\n    tag_741:\n        /* \"#utility.yul\":35401:35457   */\n      not\n        /* \"#utility.yul\":35486:35490   */\n      dup1\n        /* \"#utility.yul\":35480:35484   */\n      dup4\n        /* \"#utility.yul\":35476:35491   */\n      and\n        /* \"#utility.yul\":35466:35491   */\n      swap2\n      pop\n        /* \"#utility.yul\":35379:35497   */\n      pop\n        /* \"#utility.yul\":35328:35497   */\n      swap3\n      swap2\n      pop\n      pop\n      jump\t// out\n        /* \"#utility.yul\":35502:35797   */\n    tag_416:\n        /* \"#utility.yul\":35578:35582   */\n      0x00\n        /* \"#utility.yul\":35724:35753   */\n      tag_743\n        /* \"#utility.yul\":35749:35752   */\n      dup4\n        /* \"#utility.yul\":35743:35747   */\n      dup4\n        /* \"#utility.yul\":35724:35753   */\n      tag_415\n      jump\t// in\n    tag_743:\n        /* \"#utility.yul\":35716:35753   */\n      swap2\n      pop\n        /* \"#utility.yul\":35786:35789   */\n      dup3\n        /* \"#utility.yul\":35783:35784   */\n      0x02\n        /* \"#utility.yul\":35779:35790   */\n      mul\n        /* \"#utility.yul\":35773:35777   */\n      dup3\n        /* \"#utility.yul\":35770:35791   */\n      or\n        /* \"#utility.yul\":35762:35791   */\n      swap1\n      pop\n        /* \"#utility.yul\":35502:35797   */\n      swap3\n      swap2\n      pop\n      pop\n      jump\t// out\n        /* \"#utility.yul\":35802:37197   */\n    tag_143:\n        /* \"#utility.yul\":35919:35956   */\n      tag_745\n        /* \"#utility.yul\":35952:35955   */\n      dup3\n        /* \"#utility.yul\":35919:35956   */\n      tag_346\n      jump\t// in\n    tag_745:\n        /* \"#utility.yul\":36021:36039   */\n      0xffffffffffffffff\n        /* \"#utility.yul\":36013:36019   */\n      dup2\n        /* \"#utility.yul\":36010:36040   */\n      gt\n        /* \"#utility.yul\":36007:36063   */\n      iszero\n      tag_746\n      jumpi\n        /* \"#utility.yul\":36043:36061   */\n      tag_747\n      tag_64\n      jump\t// in\n    tag_747:\n        /* \"#utility.yul\":36007:36063   */\n    tag_746:\n        /* \"#utility.yul\":36087:36125   */\n      tag_748\n        /* \"#utility.yul\":36119:36123   */\n      dup3\n        /* \"#utility.yul\":36113:36124   */\n      sload\n        /* \"#utility.yul\":36087:36125   */\n      tag_41\n      jump\t// in\n    tag_748:\n        /* \"#utility.yul\":36172:36239   */\n      tag_749\n        /* \"#utility.yul\":36232:36238   */\n      dup3\n        /* \"#utility.yul\":36224:36230   */\n      dup3\n        /* \"#utility.yul\":36218:36222   */\n      dup6\n        /* \"#utility.yul\":36172:36239   */\n      tag_413\n      jump\t// in\n    tag_749:\n        /* \"#utility.yul\":36266:36267   */\n      0x00\n        /* \"#utility.yul\":36290:36294   */\n      0x20\n        /* \"#utility.yul\":36277:36294   */\n      swap1\n      pop\n        /* \"#utility.yul\":36322:36324   */\n      0x1f\n        /* \"#utility.yul\":36314:36320   */\n      dup4\n        /* \"#utility.yul\":36311:36325   */\n      gt\n        /* \"#utility.yul\":36339:36340   */\n      0x01\n        /* \"#utility.yul\":36334:36952   */\n      dup2\n      eq\n      tag_751\n      jumpi\n        /* \"#utility.yul\":36996:36997   */\n      0x00\n        /* \"#utility.yul\":37013:37019   */\n      dup5\n        /* \"#utility.yul\":37010:37087   */\n      iszero\n      tag_752\n      jumpi\n        /* \"#utility.yul\":37062:37071   */\n      dup3\n        /* \"#utility.yul\":37057:37060   */\n      dup8\n        /* \"#utility.yul\":37053:37072   */\n      add\n        /* \"#utility.yul\":37047:37073   */\n      mload\n        /* \"#utility.yul\":37038:37073   */\n      swap1\n      pop\n        /* \"#utility.yul\":37010:37087   */\n    tag_752:\n        /* \"#utility.yul\":37113:37180   */\n      tag_753\n        /* \"#utility.yul\":37173:37179   */\n      dup6\n        /* \"#utility.yul\":37166:37171   */\n      dup3\n        /* \"#utility.yul\":37113:37180   */\n      tag_416\n      jump\t// in\n    tag_753:\n        /* \"#utility.yul\":37107:37111   */\n      dup7\n        /* \"#utility.yul\":37100:37181   */\n      sstore\n        /* \"#utility.yul\":36969:37191   */\n      pop\n        /* \"#utility.yul\":36304:37191   */\n      jump(tag_750)\n        /* \"#utility.yul\":36334:36952   */\n    tag_751:\n        /* \"#utility.yul\":36386:36390   */\n      0x1f\n        /* \"#utility.yul\":36382:36391   */\n      not\n        /* \"#utility.yul\":36374:36380   */\n      dup5\n        /* \"#utility.yul\":36370:36392   */\n      and\n        /* \"#utility.yul\":36420:36457   */\n      tag_754\n        /* \"#utility.yul\":36452:36456   */\n      dup7\n        /* \"#utility.yul\":36420:36457   */\n      tag_398\n      jump\t// in\n    tag_754:\n        /* \"#utility.yul\":36479:36480   */\n      0x00\n        /* \"#utility.yul\":36493:36701   */\n    tag_755:\n        /* \"#utility.yul\":36507:36514   */\n      dup3\n        /* \"#utility.yul\":36504:36505   */\n      dup2\n        /* \"#utility.yul\":36501:36515   */\n      lt\n        /* \"#utility.yul\":36493:36701   */\n      iszero\n      tag_757\n      jumpi\n        /* \"#utility.yul\":36586:36595   */\n      dup5\n        /* \"#utility.yul\":36581:36584   */\n      dup10\n        /* \"#utility.yul\":36577:36596   */\n      add\n        /* \"#utility.yul\":36571:36597   */\n      mload\n        /* \"#utility.yul\":36563:36569   */\n      dup3\n        /* \"#utility.yul\":36556:36598   */\n      sstore\n        /* \"#utility.yul\":36637:36638   */\n      0x01\n        /* \"#utility.yul\":36629:36635   */\n      dup3\n        /* \"#utility.yul\":36625:36639   */\n      add\n        /* \"#utility.yul\":36615:36639   */\n      swap2\n      pop\n        /* \"#utility.yul\":36684:36686   */\n      0x20\n        /* \"#utility.yul\":36673:36682   */\n      dup6\n        /* \"#utility.yul\":36669:36687   */\n      add\n        /* \"#utility.yul\":36656:36687   */\n      swap5\n      pop\n        /* \"#utility.yul\":36530:36534   */\n      0x20\n        /* \"#utility.yul\":36527:36528   */\n      dup2\n        /* \"#utility.yul\":36523:36535   */\n      add\n        /* \"#utility.yul\":36518:36535   */\n      swap1\n      pop\n        /* \"#utility.yul\":36493:36701   */\n      jump(tag_755)\n    tag_757:\n        /* \"#utility.yul\":36729:36735   */\n      dup7\n        /* \"#utility.yul\":36720:36727   */\n      dup4\n        /* \"#utility.yul\":36717:36736   */\n      lt\n        /* \"#utility.yul\":36714:36893   */\n      iszero\n      tag_758\n      jumpi\n        /* \"#utility.yul\":36787:36796   */\n      dup5\n        /* \"#utility.yul\":36782:36785   */\n      dup10\n        /* \"#utility.yul\":36778:36797   */\n      add\n        /* \"#utility.yul\":36772:36798   */\n      mload\n        /* \"#utility.yul\":36830:36878   */\n      tag_759\n        /* \"#utility.yul\":36872:36876   */\n      0x1f\n        /* \"#utility.yul\":36864:36870   */\n      dup10\n        /* \"#utility.yul\":36860:36877   */\n      and\n        /* \"#utility.yul\":36849:36858   */\n      dup3\n        /* \"#utility.yul\":36830:36878   */\n      tag_415\n      jump\t// in\n    tag_759:\n        /* \"#utility.yul\":36822:36828   */\n      dup4\n        /* \"#utility.yul\":36815:36879   */\n      sstore\n        /* \"#utility.yul\":36737:36893   */\n      pop\n        /* \"#utility.yul\":36714:36893   */\n    tag_758:\n        /* \"#utility.yul\":36939:36940   */\n      0x01\n        /* \"#utility.yul\":36935:36936   */\n      0x02\n        /* \"#utility.yul\":36927:36933   */\n      dup9\n        /* \"#utility.yul\":36923:36937   */\n      mul\n        /* \"#utility.yul\":36919:36941   */\n      add\n        /* \"#utility.yul\":36913:36917   */\n      dup9\n        /* \"#utility.yul\":36906:36942   */\n      sstore\n        /* \"#utility.yul\":36341:36952   */\n      pop\n      pop\n      pop\n        /* \"#utility.yul\":36304:37191   */\n    tag_750:\n      pop\n        /* \"#utility.yul\":35894:37197   */\n      pop\n      pop\n      pop\n        /* \"#utility.yul\":35802:37197   */\n      pop\n      pop\n      jump\t// out\n        /* \"#utility.yul\":37203:37343   */\n    tag_417:\n        /* \"#utility.yul\":37251:37255   */\n      0x00\n        /* \"#utility.yul\":37274:37277   */\n      dup2\n        /* \"#utility.yul\":37266:37277   */\n      swap1\n      pop\n        /* \"#utility.yul\":37297:37300   */\n      dup2\n        /* \"#utility.yul\":37294:37295   */\n      0x00\n        /* \"#utility.yul\":37287:37301   */\n      mstore\n        /* \"#utility.yul\":37331:37335   */\n      0x20\n        /* \"#utility.yul\":37328:37329   */\n      0x00\n        /* \"#utility.yul\":37318:37336   */\n      keccak256\n        /* \"#utility.yul\":37310:37336   */\n      swap1\n      pop\n        /* \"#utility.yul\":37203:37343   */\n      swap2\n      swap1\n      pop\n      jump\t// out\n        /* \"#utility.yul\":37349:37890   */\n    tag_418:\n        /* \"#utility.yul\":37449:37451   */\n      0x1f\n        /* \"#utility.yul\":37444:37447   */\n      dup3\n        /* \"#utility.yul\":37441:37452   */\n      gt\n        /* \"#utility.yul\":37438:37883   */\n      iszero\n      tag_762\n      jumpi\n        /* \"#utility.yul\":37483:37520   */\n      tag_763\n        /* \"#utility.yul\":37514:37519   */\n      dup2\n        /* \"#utility.yul\":37483:37520   */\n      tag_417\n      jump\t// in\n    tag_763:\n        /* \"#utility.yul\":37566:37595   */\n      tag_764\n        /* \"#utility.yul\":37584:37594   */\n      dup5\n        /* \"#utility.yul\":37566:37595   */\n      tag_403\n      jump\t// in\n    tag_764:\n        /* \"#utility.yul\":37556:37564   */\n      dup2\n        /* \"#utility.yul\":37552:37596   */\n      add\n        /* \"#utility.yul\":37749:37751   */\n      0x20\n        /* \"#utility.yul\":37737:37747   */\n      dup6\n        /* \"#utility.yul\":37734:37752   */\n      lt\n        /* \"#utility.yul\":37731:37780   */\n      iszero\n      tag_765\n      jumpi\n        /* \"#utility.yul\":37770:37778   */\n      dup2\n        /* \"#utility.yul\":37755:37778   */\n      swap1\n      pop\n        /* \"#utility.yul\":37731:37780   */\n    tag_765:\n        /* \"#utility.yul\":37793:37873   */\n      tag_766\n        /* \"#utility.yul\":37849:37871   */\n      tag_767\n        /* \"#utility.yul\":37867:37870   */\n      dup6\n        /* \"#utility.yul\":37849:37871   */\n      tag_403\n      jump\t// in\n    tag_767:\n        /* \"#utility.yul\":37839:37847   */\n      dup4\n        /* \"#utility.yul\":37835:37872   */\n      add\n        /* \"#utility.yul\":37822:37833   */\n      dup3\n        /* \"#utility.yul\":37793:37873   */\n      tag_412\n      jump\t// in\n    tag_766:\n        /* \"#utility.yul\":37453:37883   */\n      pop\n      pop\n        /* \"#utility.yul\":37438:37883   */\n    tag_762:\n        /* \"#utility.yul\":37349:37890   */\n      pop\n      pop\n      pop\n      jump\t// out\n        /* \"#utility.yul\":37896:39286   */\n    tag_147:\n        /* \"#utility.yul\":38011:38047   */\n      tag_769\n        /* \"#utility.yul\":38043:38046   */\n      dup3\n        /* \"#utility.yul\":38011:38047   */\n      tag_354\n      jump\t// in\n    tag_769:\n        /* \"#utility.yul\":38112:38130   */\n      0xffffffffffffffff\n        /* \"#utility.yul\":38104:38110   */\n      dup2\n        /* \"#utility.yul\":38101:38131   */\n      gt\n        /* \"#utility.yul\":38098:38154   */\n      iszero\n      tag_770\n      jumpi\n        /* \"#utility.yul\":38134:38152   */\n      tag_771\n      tag_64\n      jump\t// in\n    tag_771:\n        /* \"#utility.yul\":38098:38154   */\n    tag_770:\n        /* \"#utility.yul\":38178:38216   */\n      tag_772\n        /* \"#utility.yul\":38210:38214   */\n      dup3\n        /* \"#utility.yul\":38204:38215   */\n      sload\n        /* \"#utility.yul\":38178:38216   */\n      tag_41\n      jump\t// in\n    tag_772:\n        /* \"#utility.yul\":38263:38329   */\n      tag_773\n        /* \"#utility.yul\":38322:38328   */\n      dup3\n        /* \"#utility.yul\":38314:38320   */\n      dup3\n        /* \"#utility.yul\":38308:38312   */\n      dup6\n        /* \"#utility.yul\":38263:38329   */\n      tag_418\n      jump\t// in\n    tag_773:\n        /* \"#utility.yul\":38356:38357   */\n      0x00\n        /* \"#utility.yul\":38380:38384   */\n      0x20\n        /* \"#utility.yul\":38367:38384   */\n      swap1\n      pop\n        /* \"#utility.yul\":38412:38414   */\n      0x1f\n        /* \"#utility.yul\":38404:38410   */\n      dup4\n        /* \"#utility.yul\":38401:38415   */\n      gt\n        /* \"#utility.yul\":38429:38430   */\n      0x01\n        /* \"#utility.yul\":38424:39041   */\n      dup2\n      eq\n      tag_775\n      jumpi\n        /* \"#utility.yul\":39085:39086   */\n      0x00\n        /* \"#utility.yul\":39102:39108   */\n      dup5\n        /* \"#utility.yul\":39099:39176   */\n      iszero\n      tag_776\n      jumpi\n        /* \"#utility.yul\":39151:39160   */\n      dup3\n        /* \"#utility.yul\":39146:39149   */\n      dup8\n        /* \"#utility.yul\":39142:39161   */\n      add\n        /* \"#utility.yul\":39136:39162   */\n      mload\n        /* \"#utility.yul\":39127:39162   */\n      swap1\n      pop\n        /* \"#utility.yul\":39099:39176   */\n    tag_776:\n        /* \"#utility.yul\":39202:39269   */\n      tag_777\n        /* \"#utility.yul\":39262:39268   */\n      dup6\n        /* \"#utility.yul\":39255:39260   */\n      dup3\n        /* \"#utility.yul\":39202:39269   */\n      tag_416\n      jump\t// in\n    tag_777:\n        /* \"#utility.yul\":39196:39200   */\n      dup7\n        /* \"#utility.yul\":39189:39270   */\n      sstore\n        /* \"#utility.yul\":39058:39280   */\n      pop\n        /* \"#utility.yul\":38394:39280   */\n      jump(tag_774)\n        /* \"#utility.yul\":38424:39041   */\n    tag_775:\n        /* \"#utility.yul\":38476:38480   */\n      0x1f\n        /* \"#utility.yul\":38472:38481   */\n      not\n        /* \"#utility.yul\":38464:38470   */\n      dup5\n        /* \"#utility.yul\":38460:38482   */\n      and\n        /* \"#utility.yul\":38510:38546   */\n      tag_778\n        /* \"#utility.yul\":38541:38545   */\n      dup7\n        /* \"#utility.yul\":38510:38546   */\n      tag_417\n      jump\t// in\n    tag_778:\n        /* \"#utility.yul\":38568:38569   */\n      0x00\n        /* \"#utility.yul\":38582:38790   */\n    tag_779:\n        /* \"#utility.yul\":38596:38603   */\n      dup3\n        /* \"#utility.yul\":38593:38594   */\n      dup2\n        /* \"#utility.yul\":38590:38604   */\n      lt\n        /* \"#utility.yul\":38582:38790   */\n      iszero\n      tag_781\n      jumpi\n        /* \"#utility.yul\":38675:38684   */\n      dup5\n        /* \"#utility.yul\":38670:38673   */\n      dup10\n        /* \"#utility.yul\":38666:38685   */\n      add\n        /* \"#utility.yul\":38660:38686   */\n      mload\n        /* \"#utility.yul\":38652:38658   */\n      dup3\n        /* \"#utility.yul\":38645:38687   */\n      sstore\n        /* \"#utility.yul\":38726:38727   */\n      0x01\n        /* \"#utility.yul\":38718:38724   */\n      dup3\n        /* \"#utility.yul\":38714:38728   */\n      add\n        /* \"#utility.yul\":38704:38728   */\n      swap2\n      pop\n        /* \"#utility.yul\":38773:38775   */\n      0x20\n        /* \"#utility.yul\":38762:38771   */\n      dup6\n        /* \"#utility.yul\":38758:38776   */\n      add\n        /* \"#utility.yul\":38745:38776   */\n      swap5\n      pop\n        /* \"#utility.yul\":38619:38623   */\n      0x20\n        /* \"#utility.yul\":38616:38617   */\n      dup2\n        /* \"#utility.yul\":38612:38624   */\n      add\n        /* \"#utility.yul\":38607:38624   */\n      swap1\n      pop\n        /* \"#utility.yul\":38582:38790   */\n      jump(tag_779)\n    tag_781:\n        /* \"#utility.yul\":38818:38824   */\n      dup7\n        /* \"#utility.yul\":38809:38816   */\n      dup4\n        /* \"#utility.yul\":38806:38825   */\n      lt\n        /* \"#utility.yul\":38803:38982   */\n      iszero\n      tag_782\n      jumpi\n        /* \"#utility.yul\":38876:38885   */\n      dup5\n        /* \"#utility.yul\":38871:38874   */\n      dup10\n        /* \"#utility.yul\":38867:38886   */\n      add\n        /* \"#utility.yul\":38861:38887   */\n      mload\n        /* \"#utility.yul\":38919:38967   */\n      tag_783\n        /* \"#utility.yul\":38961:38965   */\n      0x1f\n        /* \"#utility.yul\":38953:38959   */\n      dup10\n        /* \"#utility.yul\":38949:38966   */\n      and\n        /* \"#utility.yul\":38938:38947   */\n      dup3\n        /* \"#utility.yul\":38919:38967   */\n      tag_415\n      jump\t// in\n    tag_783:\n        /* \"#utility.yul\":38911:38917   */\n      dup4\n        /* \"#utility.yul\":38904:38968   */\n      sstore\n        /* \"#utility.yul\":38826:38982   */\n      pop\n        /* \"#utility.yul\":38803:38982   */\n    tag_782:\n        /* \"#utility.yul\":39028:39029   */\n      0x01\n        /* \"#utility.yul\":39024:39025   */\n      0x02\n        /* \"#utility.yul\":39016:39022   */\n      dup9\n        /* \"#utility.yul\":39012:39026   */\n      mul\n        /* \"#utility.yul\":39008:39030   */\n      add\n        /* \"#utility.yul\":39002:39006   */\n      dup9\n        /* \"#utility.yul\":38995:39031   */\n      sstore\n        /* \"#utility.yul\":38431:39041   */\n      pop\n      pop\n      pop\n        /* \"#utility.yul\":38394:39280   */\n    tag_774:\n      pop\n        /* \"#utility.yul\":37986:39286   */\n      pop\n      pop\n      pop\n        /* \"#utility.yul\":37896:39286   */\n      pop\n      pop\n      jump\t// out\n\n    auxdata: 0xa2646970667358221220da42734860e4a85cc255b2fd37b275b02c299ebe2c89cbf89d4799603060266664736f6c63430008120033\n}\n",
				"bytecode": {
					"linkReferences": {},
					"object": "608060405234801561001057600080fd5b506130b8806100206000396000f3fe608060405234801561001057600080fd5b506004361061007d5760003560e01c8063692d51d21161005b578063692d51d2146100f25780638813ce1214610128578063d7428bc714610146578063f82e4aee146101625761007d565b806309129dee14610082578063303941dd146100b85780634b006240146100d6575b600080fd5b61009c60048036038101906100979190611eb4565b61017e565b6040516100af9796959493929190612005565b60405180910390f35b6100c0610403565b6040516100cd919061252c565b60405180910390f35b6100f060048036038101906100eb91906127b6565b610b93565b005b61010c60048036038101906101079190611eb4565b610f23565b60405161011f9796959493929190612005565b60405180910390f35b6101306111a8565b60405161013d919061252c565b60405180910390f35b610160600480360381019061015b919061294c565b611938565b005b61017c60048036038101906101779190612a4f565b611c8c565b005b6001818051602081018201805184825260208301602085012081835280955050505050506000915090508060000180546101b790612b09565b80601f01602080910402602001604051908101604052809291908181526020018280546101e390612b09565b80156102305780601f1061020557610100808354040283529160200191610230565b820191906000526020600020905b81548152906001019060200180831161021357829003601f168201915b50505050509080600101805461024590612b09565b80601f016020809104026020016040519081016040528092919081815260200182805461027190612b09565b80156102be5780601f10610293576101008083540402835291602001916102be565b820191906000526020600020905b8154815290600101906020018083116102a157829003601f168201915b5050505050908060020180546102d390612b09565b80601f01602080910402602001604051908101604052809291908181526020018280546102ff90612b09565b801561034c5780601f106103215761010080835404028352916020019161034c565b820191906000526020600020905b81548152906001019060200180831161032f57829003601f168201915b5050505050908060050160009054906101000a900460ff169080600601549080600701549080600801805461038090612b09565b80601f01602080910402602001604051908101604052809291908181526020018280546103ac90612b09565b80156103f95780601f106103ce576101008083540402835291602001916103f9565b820191906000526020600020905b8154815290600101906020018083116103dc57829003601f168201915b5050505050905087565b6060600060038054905067ffffffffffffffff81111561042657610425611d89565b5b60405190808252806020026020018201604052801561045f57816020015b61044c611d0c565b8152602001906001900390816104445790505b50905060005b600380549050811015610b8b5760016003828154811061048857610487612b3a565b5b9060005260206000200160405161049f9190612c0c565b9081526020016040518091039020604051806101200160405290816000820180546104c990612b09565b80601f01602080910402602001604051908101604052809291908181526020018280546104f590612b09565b80156105425780601f1061051757610100808354040283529160200191610542565b820191906000526020600020905b81548152906001019060200180831161052557829003601f168201915b5050505050815260200160018201805461055b90612b09565b80601f016020809104026020016040519081016040528092919081815260200182805461058790612b09565b80156105d45780601f106105a9576101008083540402835291602001916105d4565b820191906000526020600020905b8154815290600101906020018083116105b757829003601f168201915b505050505081526020016002820180546105ed90612b09565b80601f016020809104026020016040519081016040528092919081815260200182805461061990612b09565b80156106665780601f1061063b57610100808354040283529160200191610666565b820191906000526020600020905b81548152906001019060200180831161064957829003601f168201915b5050505050815260200160038201805480602002602001604051908101604052809291908181526020016000905b8282101561087c57838290600052602060002090600302016040518060600160405290816000820180546106c790612b09565b80601f01602080910402602001604051908101604052809291908181526020018280546106f390612b09565b80156107405780601f1061071557610100808354040283529160200191610740565b820191906000526020600020905b81548152906001019060200180831161072357829003601f168201915b5050505050815260200160018201805461075990612b09565b80601f016020809104026020016040519081016040528092919081815260200182805461078590612b09565b80156107d25780601f106107a7576101008083540402835291602001916107d2565b820191906000526020600020905b8154815290600101906020018083116107b557829003601f168201915b505050505081526020016002820180546107eb90612b09565b80601f016020809104026020016040519081016040528092919081815260200182805461081790612b09565b80156108645780601f1061083957610100808354040283529160200191610864565b820191906000526020600020905b81548152906001019060200180831161084757829003601f168201915b50505050508152505081526020019060010190610694565b50505050815260200160048201805480602002602001604051908101604052809291908181526020016000905b82821015610a9157838290600052602060002090600302016040518060600160405290816000820180546108dc90612b09565b80601f016020809104026020016040519081016040528092919081815260200182805461090890612b09565b80156109555780601f1061092a57610100808354040283529160200191610955565b820191906000526020600020905b81548152906001019060200180831161093857829003601f168201915b5050505050815260200160018201805461096e90612b09565b80601f016020809104026020016040519081016040528092919081815260200182805461099a90612b09565b80156109e75780601f106109bc576101008083540402835291602001916109e7565b820191906000526020600020905b8154815290600101906020018083116109ca57829003601f168201915b50505050508152602001600282018054610a0090612b09565b80601f0160208091040260200160405190810160405280929190818152602001828054610a2c90612b09565b8015610a795780601f10610a4e57610100808354040283529160200191610a79565b820191906000526020600020905b815481529060010190602001808311610a5c57829003601f168201915b505050505081525050815260200190600101906108a9565b5050505081526020016005820160009054906101000a900460ff161515151581526020016006820154815260200160078201548152602001600882018054610ad890612b09565b80601f0160208091040260200160405190810160405280929190818152602001828054610b0490612b09565b8015610b515780601f10610b2657610100808354040283529160200191610b51565b820191906000526020600020905b815481529060010190602001808311610b3457829003601f168201915b505050505081525050828281518110610b6d57610b6c612b3a565b5b60200260200101819052508080610b8390612c5c565b915050610465565b508091505090565b6000600189604051610ba59190612cd5565b90815260200160405180910390209050600389908060018154018082558091505060019003906000526020600020016000909190919091509081610be99190612e83565b506000816007018190555060008160050160006101000a81548160ff0219169083151502179055506001816006018190555086816002019081610c2c9190612e83565b5088816000019081610c3e9190612e83565b5081816008019081610c509190612fb0565b5060005b8651811015610da15760006040518060600160405280898481518110610c7d57610c7c612b3a565b5b6020026020010151600081518110610c9857610c97612b3a565b5b60200260200101518152602001898481518110610cb857610cb7612b3a565b5b6020026020010151600181518110610cd357610cd2612b3a565b5b60200260200101518152602001898481518110610cf357610cf2612b3a565b5b6020026020010151600281518110610d0e57610d0d612b3a565b5b60200260200101518152509050826003018190806001815401808255809150506001900390600052602060002090600302016000909190919091506000820151816000019081610d5e9190612e83565b506020820151816001019081610d749190612e83565b506040820151816002019081610d8a9190612e83565b505050508080610d9990612c5c565b915050610c54565b5060005b8551811015610ef25760006040518060600160405280888481518110610dce57610dcd612b3a565b5b6020026020010151600081518110610de957610de8612b3a565b5b60200260200101518152602001888481518110610e0957610e08612b3a565b5b6020026020010151600181518110610e2457610e23612b3a565b5b60200260200101518152602001888481518110610e4457610e43612b3a565b5b6020026020010151600281518110610e5f57610e5e612b3a565b5b60200260200101518152509050826004018190806001815401808255809150506001900390600052602060002090600302016000909190919091506000820151816000019081610eaf9190612e83565b506020820151816001019081610ec59190612e83565b506040820151816002019081610edb9190612e83565b505050508080610eea90612c5c565b915050610da5565b5060008451141580610f0657506000835114155b15610f1857610f1789898686611938565b5b505050505050505050565b600081805160208101820180518482526020830160208501208183528095505050505050600091509050806000018054610f5c90612b09565b80601f0160208091040260200160405190810160405280929190818152602001828054610f8890612b09565b8015610fd55780601f10610faa57610100808354040283529160200191610fd5565b820191906000526020600020905b815481529060010190602001808311610fb857829003601f168201915b505050505090806001018054610fea90612b09565b80601f016020809104026020016040519081016040528092919081815260200182805461101690612b09565b80156110635780601f1061103857610100808354040283529160200191611063565b820191906000526020600020905b81548152906001019060200180831161104657829003601f168201915b50505050509080600201805461107890612b09565b80601f01602080910402602001604051908101604052809291908181526020018280546110a490612b09565b80156110f15780601f106110c6576101008083540402835291602001916110f1565b820191906000526020600020905b8154815290600101906020018083116110d457829003601f168201915b5050505050908060050160009054906101000a900460ff169080600601549080600701549080600801805461112590612b09565b80601f016020809104026020016040519081016040528092919081815260200182805461115190612b09565b801561119e5780601f106111735761010080835404028352916020019161119e565b820191906000526020600020905b81548152906001019060200180831161118157829003601f168201915b5050505050905087565b6060600060028054905067ffffffffffffffff8111156111cb576111ca611d89565b5b60405190808252806020026020018201604052801561120457816020015b6111f1611d0c565b8152602001906001900390816111e95790505b50905060005b6002805490508110156119305760006002828154811061122d5761122c612b3a565b5b906000526020600020016040516112449190612c0c565b90815260200160405180910390206040518061012001604052908160008201805461126e90612b09565b80601f016020809104026020016040519081016040528092919081815260200182805461129a90612b09565b80156112e75780601f106112bc576101008083540402835291602001916112e7565b820191906000526020600020905b8154815290600101906020018083116112ca57829003601f168201915b5050505050815260200160018201805461130090612b09565b80601f016020809104026020016040519081016040528092919081815260200182805461132c90612b09565b80156113795780601f1061134e57610100808354040283529160200191611379565b820191906000526020600020905b81548152906001019060200180831161135c57829003601f168201915b5050505050815260200160028201805461139290612b09565b80601f01602080910402602001604051908101604052809291908181526020018280546113be90612b09565b801561140b5780601f106113e05761010080835404028352916020019161140b565b820191906000526020600020905b8154815290600101906020018083116113ee57829003601f168201915b5050505050815260200160038201805480602002602001604051908101604052809291908181526020016000905b82821015611621578382906000526020600020906003020160405180606001604052908160008201805461146c90612b09565b80601f016020809104026020016040519081016040528092919081815260200182805461149890612b09565b80156114e55780601f106114ba576101008083540402835291602001916114e5565b820191906000526020600020905b8154815290600101906020018083116114c857829003601f168201915b505050505081526020016001820180546114fe90612b09565b80601f016020809104026020016040519081016040528092919081815260200182805461152a90612b09565b80156115775780601f1061154c57610100808354040283529160200191611577565b820191906000526020600020905b81548152906001019060200180831161155a57829003601f168201915b5050505050815260200160028201805461159090612b09565b80601f01602080910402602001604051908101604052809291908181526020018280546115bc90612b09565b80156116095780601f106115de57610100808354040283529160200191611609565b820191906000526020600020905b8154815290600101906020018083116115ec57829003601f168201915b50505050508152505081526020019060010190611439565b50505050815260200160048201805480602002602001604051908101604052809291908181526020016000905b82821015611836578382906000526020600020906003020160405180606001604052908160008201805461168190612b09565b80601f01602080910402602001604051908101604052809291908181526020018280546116ad90612b09565b80156116fa5780601f106116cf576101008083540402835291602001916116fa565b820191906000526020600020905b8154815290600101906020018083116116dd57829003601f168201915b5050505050815260200160018201805461171390612b09565b80601f016020809104026020016040519081016040528092919081815260200182805461173f90612b09565b801561178c5780601f106117615761010080835404028352916020019161178c565b820191906000526020600020905b81548152906001019060200180831161176f57829003601f168201915b505050505081526020016002820180546117a590612b09565b80601f01602080910402602001604051908101604052809291908181526020018280546117d190612b09565b801561181e5780601f106117f35761010080835404028352916020019161181e565b820191906000526020600020905b81548152906001019060200180831161180157829003601f168201915b5050505050815250508152602001906001019061164e565b5050505081526020016005820160009054906101000a900460ff16151515158152602001600682015481526020016007820154815260200160088201805461187d90612b09565b80601f01602080910402602001604051908101604052809291908181526020018280546118a990612b09565b80156118f65780601f106118cb576101008083540402835291602001916118f6565b820191906000526020600020905b8154815290600101906020018083116118d957829003601f168201915b50505050508152505082828151811061191257611911612b3a565b5b6020026020010181905250808061192890612c5c565b91505061120a565b508091505090565b600080856040516119499190612cd5565b9081526020016040518091039020905060028590806001815401808255809150506001900390600052602060002001600090919091909150908161198d9190612e83565b508381600101908161199f9190612e83565b506000816007018190555060008160050160006101000a81548160ff02191690831515021790555060008160060181905550848160000190816119e29190612e83565b5060005b8351811015611b335760006040518060600160405280868481518110611a0f57611a0e612b3a565b5b6020026020010151600081518110611a2a57611a29612b3a565b5b60200260200101518152602001868481518110611a4a57611a49612b3a565b5b6020026020010151600181518110611a6557611a64612b3a565b5b60200260200101518152602001868481518110611a8557611a84612b3a565b5b6020026020010151600281518110611aa057611a9f612b3a565b5b60200260200101518152509050826003018190806001815401808255809150506001900390600052602060002090600302016000909190919091506000820151816000019081611af09190612e83565b506020820151816001019081611b069190612e83565b506040820151816002019081611b1c9190612e83565b505050508080611b2b90612c5c565b9150506119e6565b5060005b8251811015611c845760006040518060600160405280858481518110611b6057611b5f612b3a565b5b6020026020010151600081518110611b7b57611b7a612b3a565b5b60200260200101518152602001858481518110611b9b57611b9a612b3a565b5b6020026020010151600181518110611bb657611bb5612b3a565b5b60200260200101518152602001858481518110611bd657611bd5612b3a565b5b6020026020010151600281518110611bf157611bf0612b3a565b5b60200260200101518152509050826004018190806001815401808255809150506001900390600052602060002090600302016000909190919091506000820151816000019081611c419190612e83565b506020820151816001019081611c579190612e83565b506040820151816002019081611c6d9190612e83565b505050508080611c7c90612c5c565b915050611b37565b505050505050565b81600182604051611c9d9190612cd5565b90815260200160405180910390206007018190555081600182604051611cc39190612cd5565b90815260200160405180910390206006018190555082600182604051611ce99190612cd5565b90815260200160405180910390206000019081611d069190612e83565b50505050565b60405180610120016040528060608152602001606081526020016060815260200160608152602001606081526020016000151581526020016000815260200160008152602001606081525090565b6000604051905090565b600080fd5b600080fd5b600080fd5b600080fd5b6000601f19601f8301169050919050565b7f4e487b7100000000000000000000000000000000000000000000000000000000600052604160045260246000fd5b611dc182611d78565b810181811067ffffffffffffffff82111715611de057611ddf611d89565b5b80604052505050565b6000611df3611d5a565b9050611dff8282611db8565b919050565b600067ffffffffffffffff821115611e1f57611e1e611d89565b5b611e2882611d78565b9050602081019050919050565b82818337600083830152505050565b6000611e57611e5284611e04565b611de9565b905082815260208101848484011115611e7357611e72611d73565b5b611e7e848285611e35565b509392505050565b600082601f830112611e9b57611e9a611d6e565b5b8135611eab848260208601611e44565b91505092915050565b600060208284031215611eca57611ec9611d64565b5b600082013567ffffffffffffffff811115611ee857611ee7611d69565b5b611ef484828501611e86565b91505092915050565b600081519050919050565b600082825260208201905092915050565b60005b83811015611f37578082015181840152602081019050611f1c565b60008484015250505050565b6000611f4e82611efd565b611f588185611f08565b9350611f68818560208601611f19565b611f7181611d78565b840191505092915050565b60008115159050919050565b611f9181611f7c565b82525050565b6000819050919050565b611faa81611f97565b82525050565b600081519050919050565b600082825260208201905092915050565b6000611fd782611fb0565b611fe18185611fbb565b9350611ff1818560208601611f19565b611ffa81611d78565b840191505092915050565b600060e082019050818103600083015261201f818a611f43565b905081810360208301526120338189611f43565b905081810360408301526120478188611f43565b90506120566060830187611f88565b6120636080830186611fa1565b61207060a0830185611fa1565b81810360c08301526120828184611fcc565b905098975050505050505050565b600081519050919050565b600082825260208201905092915050565b6000819050602082019050919050565b600082825260208201905092915050565b60006120d882611efd565b6120e281856120bc565b93506120f2818560208601611f19565b6120fb81611d78565b840191505092915050565b600081519050919050565b600082825260208201905092915050565b6000819050602082019050919050565b6000606083016000830151848203600086015261214f82826120cd565b9150506020830151848203602086015261216982826120cd565b9150506040830151848203604086015261218382826120cd565b9150508091505092915050565b600061219c8383612132565b905092915050565b6000602082019050919050565b60006121bc82612106565b6121c68185612111565b9350836020820285016121d885612122565b8060005b8581101561221457848403895281516121f58582612190565b9450612200836121a4565b925060208a019950506001810190506121dc565b50829750879550505050505092915050565b600081519050919050565b600082825260208201905092915050565b6000819050602082019050919050565b6000606083016000830151848203600086015261226f82826120cd565b9150506020830151848203602086015261228982826120cd565b915050604083015184820360408601526122a382826120cd565b9150508091505092915050565b60006122bc8383612252565b905092915050565b6000602082019050919050565b60006122dc82612226565b6122e68185612231565b9350836020820285016122f885612242565b8060005b85811015612334578484038952815161231585826122b0565b9450612320836122c4565b925060208a019950506001810190506122fc565b50829750879550505050505092915050565b61234f81611f7c565b82525050565b61235e81611f97565b82525050565b600082825260208201905092915050565b600061238082611fb0565b61238a8185612364565b935061239a818560208601611f19565b6123a381611d78565b840191505092915050565b60006101208301600083015184820360008601526123cc82826120cd565b915050602083015184820360208601526123e682826120cd565b9150506040830151848203604086015261240082826120cd565b9150506060830151848203606086015261241a82826121b1565b9150506080830151848203608086015261243482826122d1565b91505060a083015161244960a0860182612346565b5060c083015161245c60c0860182612355565b5060e083015161246f60e0860182612355565b506101008301518482036101008601526124898282612375565b9150508091505092915050565b60006124a283836123ae565b905092915050565b6000602082019050919050565b60006124c282612090565b6124cc818561209b565b9350836020820285016124de856120ac565b8060005b8581101561251a57848403895281516124fb8582612496565b9450612506836124aa565b925060208a019950506001810190506124e2565b50829750879550505050505092915050565b6000602082019050818103600083015261254681846124b7565b905092915050565b600067ffffffffffffffff82111561256957612568611d89565b5b602082029050602081019050919050565b600080fd5b600067ffffffffffffffff82111561259a57612599611d89565b5b602082029050602081019050919050565b60006125be6125b98461257f565b611de9565b905080838252602082019050602084028301858111156125e1576125e061257a565b5b835b8181101561262857803567ffffffffffffffff81111561260657612605611d6e565b5b8086016126138982611e86565b855260208501945050506020810190506125e3565b5050509392505050565b600082601f83011261264757612646611d6e565b5b81356126578482602086016125ab565b91505092915050565b600061267361266e8461254e565b611de9565b905080838252602082019050602084028301858111156126965761269561257a565b5b835b818110156126dd57803567ffffffffffffffff8111156126bb576126ba611d6e565b5b8086016126c88982612632565b85526020850194505050602081019050612698565b5050509392505050565b600082601f8301126126fc576126fb611d6e565b5b813561270c848260208601612660565b91505092915050565b600067ffffffffffffffff8211156127305761272f611d89565b5b61273982611d78565b9050602081019050919050565b600061275961275484612715565b611de9565b90508281526020810184848401111561277557612774611d73565b5b612780848285611e35565b509392505050565b600082601f83011261279d5761279c611d6e565b5b81356127ad848260208601612746565b91505092915050565b600080600080600080600080610100898b0312156127d7576127d6611d64565b5b600089013567ffffffffffffffff8111156127f5576127f4611d69565b5b6128018b828c01611e86565b985050602089013567ffffffffffffffff81111561282257612821611d69565b5b61282e8b828c01611e86565b975050604089013567ffffffffffffffff81111561284f5761284e611d69565b5b61285b8b828c01611e86565b965050606089013567ffffffffffffffff81111561287c5761287b611d69565b5b6128888b828c016126e7565b955050608089013567ffffffffffffffff8111156128a9576128a8611d69565b5b6128b58b828c016126e7565b94505060a089013567ffffffffffffffff8111156128d6576128d5611d69565b5b6128e28b828c016126e7565b93505060c089013567ffffffffffffffff81111561290357612902611d69565b5b61290f8b828c016126e7565b92505060e089013567ffffffffffffffff8111156129305761292f611d69565b5b61293c8b828c01612788565b9150509295985092959890939650565b6000806000806080858703121561296657612965611d64565b5b600085013567ffffffffffffffff81111561298457612983611d69565b5b61299087828801611e86565b945050602085013567ffffffffffffffff8111156129b1576129b0611d69565b5b6129bd87828801611e86565b935050604085013567ffffffffffffffff8111156129de576129dd611d69565b5b6129ea878288016126e7565b925050606085013567ffffffffffffffff811115612a0b57612a0a611d69565b5b612a17878288016126e7565b91505092959194509250565b612a2c81611f97565b8114612a3757600080fd5b50565b600081359050612a4981612a23565b92915050565b600080600060608486031215612a6857612a67611d64565b5b600084013567ffffffffffffffff811115612a8657612a85611d69565b5b612a9286828701611e86565b9350506020612aa386828701612a3a565b925050604084013567ffffffffffffffff811115612ac457612ac3611d69565b5b612ad086828701611e86565b9150509250925092565b7f4e487b7100000000000000000000000000000000000000000000000000000000600052602260045260246000fd5b60006002820490506001821680612b2157607f821691505b602082108103612b3457612b33612ada565b5b50919050565b7f4e487b7100000000000000000000000000000000000000000000000000000000600052603260045260246000fd5b600081905092915050565b60008190508160005260206000209050919050565b60008154612b9681612b09565b612ba08186612b69565b94506001821660008114612bbb5760018114612bd057612c03565b60ff1983168652811515820286019350612c03565b612bd985612b74565b60005b83811015612bfb57815481890152600182019150602081019050612bdc565b838801955050505b50505092915050565b6000612c188284612b89565b915081905092915050565b7f4e487b7100000000000000000000000000000000000000000000000000000000600052601160045260246000fd5b6000819050919050565b6000612c6782612c52565b91507fffffffffffffffffffffffffffffffffffffffffffffffffffffffffffffffff8203612c9957612c98612c23565b5b600182019050919050565b6000612caf82611efd565b612cb98185612b69565b9350612cc9818560208601611f19565b80840191505092915050565b6000612ce18284612ca4565b915081905092915050565b60006020601f8301049050919050565b600082821b905092915050565b600060088302612d397fffffffffffffffffffffffffffffffffffffffffffffffffffffffffffffffff82612cfc565b612d438683612cfc565b95508019841693508086168417925050509392505050565b6000819050919050565b6000612d80612d7b612d7684612c52565b612d5b565b612c52565b9050919050565b6000819050919050565b612d9a83612d65565b612dae612da682612d87565b848454612d09565b825550505050565b600090565b612dc3612db6565b612dce818484612d91565b505050565b5b81811015612df257612de7600082612dbb565b600181019050612dd4565b5050565b601f821115612e3757612e0881612b74565b612e1184612cec565b81016020851015612e20578190505b612e34612e2c85612cec565b830182612dd3565b50505b505050565b600082821c905092915050565b6000612e5a60001984600802612e3c565b1980831691505092915050565b6000612e738383612e49565b9150826002028217905092915050565b612e8c82611efd565b67ffffffffffffffff811115612ea557612ea4611d89565b5b612eaf8254612b09565b612eba828285612df6565b600060209050601f831160018114612eed5760008415612edb578287015190505b612ee58582612e67565b865550612f4d565b601f198416612efb86612b74565b60005b82811015612f2357848901518255600182019150602085019450602081019050612efe565b86831015612f405784890151612f3c601f891682612e49565b8355505b6001600288020188555050505b505050505050565b60008190508160005260206000209050919050565b601f821115612fab57612f7c81612f55565b612f8584612cec565b81016020851015612f94578190505b612fa8612fa085612cec565b830182612dd3565b50505b505050565b612fb982611fb0565b67ffffffffffffffff811115612fd257612fd1611d89565b5b612fdc8254612b09565b612fe7828285612f6a565b600060209050601f83116001811461301a5760008415613008578287015190505b6130128582612e67565b86555061307a565b601f19841661302886612f55565b60005b828110156130505784890151825560018201915060208501945060208101905061302b565b8683101561306d5784890151613069601f891682612e49565b8355505b6001600288020188555050505b50505050505056fea2646970667358221220da42734860e4a85cc255b2fd37b275b02c299ebe2c89cbf89d4799603060266664736f6c63430008120033",
					"opcodes": "PUSH1 0x80 PUSH1 0x40 MSTORE CALLVALUE DUP1 ISZERO PUSH2 0x10 JUMPI PUSH1 0x0 DUP1 REVERT JUMPDEST POP PUSH2 0x30B8 DUP1 PUSH2 0x20 PUSH1 0x0 CODECOPY PUSH1 0x0 RETURN INVALID PUSH1 0x80 PUSH1 0x40 MSTORE CALLVALUE DUP1 ISZERO PUSH2 0x10 JUMPI PUSH1 0x0 DUP1 REVERT JUMPDEST POP PUSH1 0x4 CALLDATASIZE LT PUSH2 0x7D JUMPI PUSH1 0x0 CALLDATALOAD PUSH1 0xE0 SHR DUP1 PUSH4 0x692D51D2 GT PUSH2 0x5B JUMPI DUP1 PUSH4 0x692D51D2 EQ PUSH2 0xF2 JUMPI DUP1 PUSH4 0x8813CE12 EQ PUSH2 0x128 JUMPI DUP1 PUSH4 0xD7428BC7 EQ PUSH2 0x146 JUMPI DUP1 PUSH4 0xF82E4AEE EQ PUSH2 0x162 JUMPI PUSH2 0x7D JUMP JUMPDEST DUP1 PUSH4 0x9129DEE EQ PUSH2 0x82 JUMPI DUP1 PUSH4 0x303941DD EQ PUSH2 0xB8 JUMPI DUP1 PUSH4 0x4B006240 EQ PUSH2 0xD6 JUMPI JUMPDEST PUSH1 0x0 DUP1 REVERT JUMPDEST PUSH2 0x9C PUSH1 0x4 DUP1 CALLDATASIZE SUB DUP2 ADD SWAP1 PUSH2 0x97 SWAP2 SWAP1 PUSH2 0x1EB4 JUMP JUMPDEST PUSH2 0x17E JUMP JUMPDEST PUSH1 0x40 MLOAD PUSH2 0xAF SWAP8 SWAP7 SWAP6 SWAP5 SWAP4 SWAP3 SWAP2 SWAP1 PUSH2 0x2005 JUMP JUMPDEST PUSH1 0x40 MLOAD DUP1 SWAP2 SUB SWAP1 RETURN JUMPDEST PUSH2 0xC0 PUSH2 0x403 JUMP JUMPDEST PUSH1 0x40 MLOAD PUSH2 0xCD SWAP2 SWAP1 PUSH2 0x252C JUMP JUMPDEST PUSH1 0x40 MLOAD DUP1 SWAP2 SUB SWAP1 RETURN JUMPDEST PUSH2 0xF0 PUSH1 0x4 DUP1 CALLDATASIZE SUB DUP2 ADD SWAP1 PUSH2 0xEB SWAP2 SWAP1 PUSH2 0x27B6 JUMP JUMPDEST PUSH2 0xB93 JUMP JUMPDEST STOP JUMPDEST PUSH2 0x10C PUSH1 0x4 DUP1 CALLDATASIZE SUB DUP2 ADD SWAP1 PUSH2 0x107 SWAP2 SWAP1 PUSH2 0x1EB4 JUMP JUMPDEST PUSH2 0xF23 JUMP JUMPDEST PUSH1 0x40 MLOAD PUSH2 0x11F SWAP8 SWAP7 SWAP6 SWAP5 SWAP4 SWAP3 SWAP2 SWAP1 PUSH2 0x2005 JUMP JUMPDEST PUSH1 0x40 MLOAD DUP1 SWAP2 SUB SWAP1 RETURN JUMPDEST PUSH2 0x130 PUSH2 0x11A8 JUMP JUMPDEST PUSH1 0x40 MLOAD PUSH2 0x13D SWAP2 SWAP1 PUSH2 0x252C JUMP JUMPDEST PUSH1 0x40 MLOAD DUP1 SWAP2 SUB SWAP1 RETURN JUMPDEST PUSH2 0x160 PUSH1 0x4 DUP1 CALLDATASIZE SUB DUP2 ADD SWAP1 PUSH2 0x15B SWAP2 SWAP1 PUSH2 0x294C JUMP JUMPDEST PUSH2 0x1938 JUMP JUMPDEST STOP JUMPDEST PUSH2 0x17C PUSH1 0x4 DUP1 CALLDATASIZE SUB DUP2 ADD SWAP1 PUSH2 0x177 SWAP2 SWAP1 PUSH2 0x2A4F JUMP JUMPDEST PUSH2 0x1C8C JUMP JUMPDEST STOP JUMPDEST PUSH1 0x1 DUP2 DUP1 MLOAD PUSH1 0x20 DUP2 ADD DUP3 ADD DUP1 MLOAD DUP5 DUP3 MSTORE PUSH1 0x20 DUP4 ADD PUSH1 0x20 DUP6 ADD KECCAK256 DUP2 DUP4 MSTORE DUP1 SWAP6 POP POP POP POP POP POP PUSH1 0x0 SWAP2 POP SWAP1 POP DUP1 PUSH1 0x0 ADD DUP1 SLOAD PUSH2 0x1B7 SWAP1 PUSH2 0x2B09 JUMP JUMPDEST DUP1 PUSH1 0x1F ADD PUSH1 0x20 DUP1 SWAP2 DIV MUL PUSH1 0x20 ADD PUSH1 0x40 MLOAD SWAP1 DUP2 ADD PUSH1 0x40 MSTORE DUP1 SWAP3 SWAP2 SWAP1 DUP2 DUP2 MSTORE PUSH1 0x20 ADD DUP3 DUP1 SLOAD PUSH2 0x1E3 SWAP1 PUSH2 0x2B09 JUMP JUMPDEST DUP1 ISZERO PUSH2 0x230 JUMPI DUP1 PUSH1 0x1F LT PUSH2 0x205 JUMPI PUSH2 0x100 DUP1 DUP4 SLOAD DIV MUL DUP4 MSTORE SWAP2 PUSH1 0x20 ADD SWAP2 PUSH2 0x230 JUMP JUMPDEST DUP3 ADD SWAP2 SWAP1 PUSH1 0x0 MSTORE PUSH1 0x20 PUSH1 0x0 KECCAK256 SWAP1 JUMPDEST DUP2 SLOAD DUP2 MSTORE SWAP1 PUSH1 0x1 ADD SWAP1 PUSH1 0x20 ADD DUP1 DUP4 GT PUSH2 0x213 JUMPI DUP3 SWAP1 SUB PUSH1 0x1F AND DUP3 ADD SWAP2 JUMPDEST POP POP POP POP POP SWAP1 DUP1 PUSH1 0x1 ADD DUP1 SLOAD PUSH2 0x245 SWAP1 PUSH2 0x2B09 JUMP JUMPDEST DUP1 PUSH1 0x1F ADD PUSH1 0x20 DUP1 SWAP2 DIV MUL PUSH1 0x20 ADD PUSH1 0x40 MLOAD SWAP1 DUP2 ADD PUSH1 0x40 MSTORE DUP1 SWAP3 SWAP2 SWAP1 DUP2 DUP2 MSTORE PUSH1 0x20 ADD DUP3 DUP1 SLOAD PUSH2 0x271 SWAP1 PUSH2 0x2B09 JUMP JUMPDEST DUP1 ISZERO PUSH2 0x2BE JUMPI DUP1 PUSH1 0x1F LT PUSH2 0x293 JUMPI PUSH2 0x100 DUP1 DUP4 SLOAD DIV MUL DUP4 MSTORE SWAP2 PUSH1 0x20 ADD SWAP2 PUSH2 0x2BE JUMP JUMPDEST DUP3 ADD SWAP2 SWAP1 PUSH1 0x0 MSTORE PUSH1 0x20 PUSH1 0x0 KECCAK256 SWAP1 JUMPDEST DUP2 SLOAD DUP2 MSTORE SWAP1 PUSH1 0x1 ADD SWAP1 PUSH1 0x20 ADD DUP1 DUP4 GT PUSH2 0x2A1 JUMPI DUP3 SWAP1 SUB PUSH1 0x1F AND DUP3 ADD SWAP2 JUMPDEST POP POP POP POP POP SWAP1 DUP1 PUSH1 0x2 ADD DUP1 SLOAD PUSH2 0x2D3 SWAP1 PUSH2 0x2B09 JUMP JUMPDEST DUP1 PUSH1 0x1F ADD PUSH1 0x20 DUP1 SWAP2 DIV MUL PUSH1 0x20 ADD PUSH1 0x40 MLOAD SWAP1 DUP2 ADD PUSH1 0x40 MSTORE DUP1 SWAP3 SWAP2 SWAP1 DUP2 DUP2 MSTORE PUSH1 0x20 ADD DUP3 DUP1 SLOAD PUSH2 0x2FF SWAP1 PUSH2 0x2B09 JUMP JUMPDEST DUP1 ISZERO PUSH2 0x34C JUMPI DUP1 PUSH1 0x1F LT PUSH2 0x321 JUMPI PUSH2 0x100 DUP1 DUP4 SLOAD DIV MUL DUP4 MSTORE SWAP2 PUSH1 0x20 ADD SWAP2 PUSH2 0x34C JUMP JUMPDEST DUP3 ADD SWAP2 SWAP1 PUSH1 0x0 MSTORE PUSH1 0x20 PUSH1 0x0 KECCAK256 SWAP1 JUMPDEST DUP2 SLOAD DUP2 MSTORE SWAP1 PUSH1 0x1 ADD SWAP1 PUSH1 0x20 ADD DUP1 DUP4 GT PUSH2 0x32F JUMPI DUP3 SWAP1 SUB PUSH1 0x1F AND DUP3 ADD SWAP2 JUMPDEST POP POP POP POP POP SWAP1 DUP1 PUSH1 0x5 ADD PUSH1 0x0 SWAP1 SLOAD SWAP1 PUSH2 0x100 EXP SWAP1 DIV PUSH1 0xFF AND SWAP1 DUP1 PUSH1 0x6 ADD SLOAD SWAP1 DUP1 PUSH1 0x7 ADD SLOAD SWAP1 DUP1 PUSH1 0x8 ADD DUP1 SLOAD PUSH2 0x380 SWAP1 PUSH2 0x2B09 JUMP JUMPDEST DUP1 PUSH1 0x1F ADD PUSH1 0x20 DUP1 SWAP2 DIV MUL PUSH1 0x20 ADD PUSH1 0x40 MLOAD SWAP1 DUP2 ADD PUSH1 0x40 MSTORE DUP1 SWAP3 SWAP2 SWAP1 DUP2 DUP2 MSTORE PUSH1 0x20 ADD DUP3 DUP1 SLOAD PUSH2 0x3AC SWAP1 PUSH2 0x2B09 JUMP JUMPDEST DUP1 ISZERO PUSH2 0x3F9 JUMPI DUP1 PUSH1 0x1F LT PUSH2 0x3CE JUMPI PUSH2 0x100 DUP1 DUP4 SLOAD DIV MUL DUP4 MSTORE SWAP2 PUSH1 0x20 ADD SWAP2 PUSH2 0x3F9 JUMP JUMPDEST DUP3 ADD SWAP2 SWAP1 PUSH1 0x0 MSTORE PUSH1 0x20 PUSH1 0x0 KECCAK256 SWAP1 JUMPDEST DUP2 SLOAD DUP2 MSTORE SWAP1 PUSH1 0x1 ADD SWAP1 PUSH1 0x20 ADD DUP1 DUP4 GT PUSH2 0x3DC JUMPI DUP3 SWAP1 SUB PUSH1 0x1F AND DUP3 ADD SWAP2 JUMPDEST POP POP POP POP POP SWAP1 POP DUP8 JUMP JUMPDEST PUSH1 0x60 PUSH1 0x0 PUSH1 0x3 DUP1 SLOAD SWAP1 POP PUSH8 0xFFFFFFFFFFFFFFFF DUP2 GT ISZERO PUSH2 0x426 JUMPI PUSH2 0x425 PUSH2 0x1D89 JUMP JUMPDEST JUMPDEST PUSH1 0x40 MLOAD SWAP1 DUP1 DUP3 MSTORE DUP1 PUSH1 0x20 MUL PUSH1 0x20 ADD DUP3 ADD PUSH1 0x40 MSTORE DUP1 ISZERO PUSH2 0x45F JUMPI DUP2 PUSH1 0x20 ADD JUMPDEST PUSH2 0x44C PUSH2 0x1D0C JUMP JUMPDEST DUP2 MSTORE PUSH1 0x20 ADD SWAP1 PUSH1 0x1 SWAP1 SUB SWAP1 DUP2 PUSH2 0x444 JUMPI SWAP1 POP JUMPDEST POP SWAP1 POP PUSH1 0x0 JUMPDEST PUSH1 0x3 DUP1 SLOAD SWAP1 POP DUP2 LT ISZERO PUSH2 0xB8B JUMPI PUSH1 0x1 PUSH1 0x3 DUP3 DUP2 SLOAD DUP2 LT PUSH2 0x488 JUMPI PUSH2 0x487 PUSH2 0x2B3A JUMP JUMPDEST JUMPDEST SWAP1 PUSH1 0x0 MSTORE PUSH1 0x20 PUSH1 0x0 KECCAK256 ADD PUSH1 0x40 MLOAD PUSH2 0x49F SWAP2 SWAP1 PUSH2 0x2C0C JUMP JUMPDEST SWAP1 DUP2 MSTORE PUSH1 0x20 ADD PUSH1 0x40 MLOAD DUP1 SWAP2 SUB SWAP1 KECCAK256 PUSH1 0x40 MLOAD DUP1 PUSH2 0x120 ADD PUSH1 0x40 MSTORE SWAP1 DUP2 PUSH1 0x0 DUP3 ADD DUP1 SLOAD PUSH2 0x4C9 SWAP1 PUSH2 0x2B09 JUMP JUMPDEST DUP1 PUSH1 0x1F ADD PUSH1 0x20 DUP1 SWAP2 DIV MUL PUSH1 0x20 ADD PUSH1 0x40 MLOAD SWAP1 DUP2 ADD PUSH1 0x40 MSTORE DUP1 SWAP3 SWAP2 SWAP1 DUP2 DUP2 MSTORE PUSH1 0x20 ADD DUP3 DUP1 SLOAD PUSH2 0x4F5 SWAP1 PUSH2 0x2B09 JUMP JUMPDEST DUP1 ISZERO PUSH2 0x542 JUMPI DUP1 PUSH1 0x1F LT PUSH2 0x517 JUMPI PUSH2 0x100 DUP1 DUP4 SLOAD DIV MUL DUP4 MSTORE SWAP2 PUSH1 0x20 ADD SWAP2 PUSH2 0x542 JUMP JUMPDEST DUP3 ADD SWAP2 SWAP1 PUSH1 0x0 MSTORE PUSH1 0x20 PUSH1 0x0 KECCAK256 SWAP1 JUMPDEST DUP2 SLOAD DUP2 MSTORE SWAP1 PUSH1 0x1 ADD SWAP1 PUSH1 0x20 ADD DUP1 DUP4 GT PUSH2 0x525 JUMPI DUP3 SWAP1 SUB PUSH1 0x1F AND DUP3 ADD SWAP2 JUMPDEST POP POP POP POP POP DUP2 MSTORE PUSH1 0x20 ADD PUSH1 0x1 DUP3 ADD DUP1 SLOAD PUSH2 0x55B SWAP1 PUSH2 0x2B09 JUMP JUMPDEST DUP1 PUSH1 0x1F ADD PUSH1 0x20 DUP1 SWAP2 DIV MUL PUSH1 0x20 ADD PUSH1 0x40 MLOAD SWAP1 DUP2 ADD PUSH1 0x40 MSTORE DUP1 SWAP3 SWAP2 SWAP1 DUP2 DUP2 MSTORE PUSH1 0x20 ADD DUP3 DUP1 SLOAD PUSH2 0x587 SWAP1 PUSH2 0x2B09 JUMP JUMPDEST DUP1 ISZERO PUSH2 0x5D4 JUMPI DUP1 PUSH1 0x1F LT PUSH2 0x5A9 JUMPI PUSH2 0x100 DUP1 DUP4 SLOAD DIV MUL DUP4 MSTORE SWAP2 PUSH1 0x20 ADD SWAP2 PUSH2 0x5D4 JUMP JUMPDEST DUP3 ADD SWAP2 SWAP1 PUSH1 0x0 MSTORE PUSH1 0x20 PUSH1 0x0 KECCAK256 SWAP1 JUMPDEST DUP2 SLOAD DUP2 MSTORE SWAP1 PUSH1 0x1 ADD SWAP1 PUSH1 0x20 ADD DUP1 DUP4 GT PUSH2 0x5B7 JUMPI DUP3 SWAP1 SUB PUSH1 0x1F AND DUP3 ADD SWAP2 JUMPDEST POP POP POP POP POP DUP2 MSTORE PUSH1 0x20 ADD PUSH1 0x2 DUP3 ADD DUP1 SLOAD PUSH2 0x5ED SWAP1 PUSH2 0x2B09 JUMP JUMPDEST DUP1 PUSH1 0x1F ADD PUSH1 0x20 DUP1 SWAP2 DIV MUL PUSH1 0x20 ADD PUSH1 0x40 MLOAD SWAP1 DUP2 ADD PUSH1 0x40 MSTORE DUP1 SWAP3 SWAP2 SWAP1 DUP2 DUP2 MSTORE PUSH1 0x20 ADD DUP3 DUP1 SLOAD PUSH2 0x619 SWAP1 PUSH2 0x2B09 JUMP JUMPDEST DUP1 ISZERO PUSH2 0x666 JUMPI DUP1 PUSH1 0x1F LT PUSH2 0x63B JUMPI PUSH2 0x100 DUP1 DUP4 SLOAD DIV MUL DUP4 MSTORE SWAP2 PUSH1 0x20 ADD SWAP2 PUSH2 0x666 JUMP JUMPDEST DUP3 ADD SWAP2 SWAP1 PUSH1 0x0 MSTORE PUSH1 0x20 PUSH1 0x0 KECCAK256 SWAP1 JUMPDEST DUP2 SLOAD DUP2 MSTORE SWAP1 PUSH1 0x1 ADD SWAP1 PUSH1 0x20 ADD DUP1 DUP4 GT PUSH2 0x649 JUMPI DUP3 SWAP1 SUB PUSH1 0x1F AND DUP3 ADD SWAP2 JUMPDEST POP POP POP POP POP DUP2 MSTORE PUSH1 0x20 ADD PUSH1 0x3 DUP3 ADD DUP1 SLOAD DUP1 PUSH1 0x20 MUL PUSH1 0x20 ADD PUSH1 0x40 MLOAD SWAP1 DUP2 ADD PUSH1 0x40 MSTORE DUP1 SWAP3 SWAP2 SWAP1 DUP2 DUP2 MSTORE PUSH1 0x20 ADD PUSH1 0x0 SWAP1 JUMPDEST DUP3 DUP3 LT ISZERO PUSH2 0x87C JUMPI DUP4 DUP3 SWAP1 PUSH1 0x0 MSTORE PUSH1 0x20 PUSH1 0x0 KECCAK256 SWAP1 PUSH1 0x3 MUL ADD PUSH1 0x40 MLOAD DUP1 PUSH1 0x60 ADD PUSH1 0x40 MSTORE SWAP1 DUP2 PUSH1 0x0 DUP3 ADD DUP1 SLOAD PUSH2 0x6C7 SWAP1 PUSH2 0x2B09 JUMP JUMPDEST DUP1 PUSH1 0x1F ADD PUSH1 0x20 DUP1 SWAP2 DIV MUL PUSH1 0x20 ADD PUSH1 0x40 MLOAD SWAP1 DUP2 ADD PUSH1 0x40 MSTORE DUP1 SWAP3 SWAP2 SWAP1 DUP2 DUP2 MSTORE PUSH1 0x20 ADD DUP3 DUP1 SLOAD PUSH2 0x6F3 SWAP1 PUSH2 0x2B09 JUMP JUMPDEST DUP1 ISZERO PUSH2 0x740 JUMPI DUP1 PUSH1 0x1F LT PUSH2 0x715 JUMPI PUSH2 0x100 DUP1 DUP4 SLOAD DIV MUL DUP4 MSTORE SWAP2 PUSH1 0x20 ADD SWAP2 PUSH2 0x740 JUMP JUMPDEST DUP3 ADD SWAP2 SWAP1 PUSH1 0x0 MSTORE PUSH1 0x20 PUSH1 0x0 KECCAK256 SWAP1 JUMPDEST DUP2 SLOAD DUP2 MSTORE SWAP1 PUSH1 0x1 ADD SWAP1 PUSH1 0x20 ADD DUP1 DUP4 GT PUSH2 0x723 JUMPI DUP3 SWAP1 SUB PUSH1 0x1F AND DUP3 ADD SWAP2 JUMPDEST POP POP POP POP POP DUP2 MSTORE PUSH1 0x20 ADD PUSH1 0x1 DUP3 ADD DUP1 SLOAD PUSH2 0x759 SWAP1 PUSH2 0x2B09 JUMP JUMPDEST DUP1 PUSH1 0x1F ADD PUSH1 0x20 DUP1 SWAP2 DIV MUL PUSH1 0x20 ADD PUSH1 0x40 MLOAD SWAP1 DUP2 ADD PUSH1 0x40 MSTORE DUP1 SWAP3 SWAP2 SWAP1 DUP2 DUP2 MSTORE PUSH1 0x20 ADD DUP3 DUP1 SLOAD PUSH2 0x785 SWAP1 PUSH2 0x2B09 JUMP JUMPDEST DUP1 ISZERO PUSH2 0x7D2 JUMPI DUP1 PUSH1 0x1F LT PUSH2 0x7A7 JUMPI PUSH2 0x100 DUP1 DUP4 SLOAD DIV MUL DUP4 MSTORE SWAP2 PUSH1 0x20 ADD SWAP2 PUSH2 0x7D2 JUMP JUMPDEST DUP3 ADD SWAP2 SWAP1 PUSH1 0x0 MSTORE PUSH1 0x20 PUSH1 0x0 KECCAK256 SWAP1 JUMPDEST DUP2 SLOAD DUP2 MSTORE SWAP1 PUSH1 0x1 ADD SWAP1 PUSH1 0x20 ADD DUP1 DUP4 GT PUSH2 0x7B5 JUMPI DUP3 SWAP1 SUB PUSH1 0x1F AND DUP3 ADD SWAP2 JUMPDEST POP POP POP POP POP DUP2 MSTORE PUSH1 0x20 ADD PUSH1 0x2 DUP3 ADD DUP1 SLOAD PUSH2 0x7EB SWAP1 PUSH2 0x2B09 JUMP JUMPDEST DUP1 PUSH1 0x1F ADD PUSH1 0x20 DUP1 SWAP2 DIV MUL PUSH1 0x20 ADD PUSH1 0x40 MLOAD SWAP1 DUP2 ADD PUSH1 0x40 MSTORE DUP1 SWAP3 SWAP2 SWAP1 DUP2 DUP2 MSTORE PUSH1 0x20 ADD DUP3 DUP1 SLOAD PUSH2 0x817 SWAP1 PUSH2 0x2B09 JUMP JUMPDEST DUP1 ISZERO PUSH2 0x864 JUMPI DUP1 PUSH1 0x1F LT PUSH2 0x839 JUMPI PUSH2 0x100 DUP1 DUP4 SLOAD DIV MUL DUP4 MSTORE SWAP2 PUSH1 0x20 ADD SWAP2 PUSH2 0x864 JUMP JUMPDEST DUP3 ADD SWAP2 SWAP1 PUSH1 0x0 MSTORE PUSH1 0x20 PUSH1 0x0 KECCAK256 SWAP1 JUMPDEST DUP2 SLOAD DUP2 MSTORE SWAP1 PUSH1 0x1 ADD SWAP1 PUSH1 0x20 ADD DUP1 DUP4 GT PUSH2 0x847 JUMPI DUP3 SWAP1 SUB PUSH1 0x1F AND DUP3 ADD SWAP2 JUMPDEST POP POP POP POP POP DUP2 MSTORE POP POP DUP2 MSTORE PUSH1 0x20 ADD SWAP1 PUSH1 0x1 ADD SWAP1 PUSH2 0x694 JUMP JUMPDEST POP POP POP POP DUP2 MSTORE PUSH1 0x20 ADD PUSH1 0x4 DUP3 ADD DUP1 SLOAD DUP1 PUSH1 0x20 MUL PUSH1 0x20 ADD PUSH1 0x40 MLOAD SWAP1 DUP2 ADD PUSH1 0x40 MSTORE DUP1 SWAP3 SWAP2 SWAP1 DUP2 DUP2 MSTORE PUSH1 0x20 ADD PUSH1 0x0 SWAP1 JUMPDEST DUP3 DUP3 LT ISZERO PUSH2 0xA91 JUMPI DUP4 DUP3 SWAP1 PUSH1 0x0 MSTORE PUSH1 0x20 PUSH1 0x0 KECCAK256 SWAP1 PUSH1 0x3 MUL ADD PUSH1 0x40 MLOAD DUP1 PUSH1 0x60 ADD PUSH1 0x40 MSTORE SWAP1 DUP2 PUSH1 0x0 DUP3 ADD DUP1 SLOAD PUSH2 0x8DC SWAP1 PUSH2 0x2B09 JUMP JUMPDEST DUP1 PUSH1 0x1F ADD PUSH1 0x20 DUP1 SWAP2 DIV MUL PUSH1 0x20 ADD PUSH1 0x40 MLOAD SWAP1 DUP2 ADD PUSH1 0x40 MSTORE DUP1 SWAP3 SWAP2 SWAP1 DUP2 DUP2 MSTORE PUSH1 0x20 ADD DUP3 DUP1 SLOAD PUSH2 0x908 SWAP1 PUSH2 0x2B09 JUMP JUMPDEST DUP1 ISZERO PUSH2 0x955 JUMPI DUP1 PUSH1 0x1F LT PUSH2 0x92A JUMPI PUSH2 0x100 DUP1 DUP4 SLOAD DIV MUL DUP4 MSTORE SWAP2 PUSH1 0x20 ADD SWAP2 PUSH2 0x955 JUMP JUMPDEST DUP3 ADD SWAP2 SWAP1 PUSH1 0x0 MSTORE PUSH1 0x20 PUSH1 0x0 KECCAK256 SWAP1 JUMPDEST DUP2 SLOAD DUP2 MSTORE SWAP1 PUSH1 0x1 ADD SWAP1 PUSH1 0x20 ADD DUP1 DUP4 GT PUSH2 0x938 JUMPI DUP3 SWAP1 SUB PUSH1 0x1F AND DUP3 ADD SWAP2 JUMPDEST POP POP POP POP POP DUP2 MSTORE PUSH1 0x20 ADD PUSH1 0x1 DUP3 ADD DUP1 SLOAD PUSH2 0x96E SWAP1 PUSH2 0x2B09 JUMP JUMPDEST DUP1 PUSH1 0x1F ADD PUSH1 0x20 DUP1 SWAP2 DIV MUL PUSH1 0x20 ADD PUSH1 0x40 MLOAD SWAP1 DUP2 ADD PUSH1 0x40 MSTORE DUP1 SWAP3 SWAP2 SWAP1 DUP2 DUP2 MSTORE PUSH1 0x20 ADD DUP3 DUP1 SLOAD PUSH2 0x99A SWAP1 PUSH2 0x2B09 JUMP JUMPDEST DUP1 ISZERO PUSH2 0x9E7 JUMPI DUP1 PUSH1 0x1F LT PUSH2 0x9BC JUMPI PUSH2 0x100 DUP1 DUP4 SLOAD DIV MUL DUP4 MSTORE SWAP2 PUSH1 0x20 ADD SWAP2 PUSH2 0x9E7 JUMP JUMPDEST DUP3 ADD SWAP2 SWAP1 PUSH1 0x0 MSTORE PUSH1 0x20 PUSH1 0x0 KECCAK256 SWAP1 JUMPDEST DUP2 SLOAD DUP2 MSTORE SWAP1 PUSH1 0x1 ADD SWAP1 PUSH1 0x20 ADD DUP1 DUP4 GT PUSH2 0x9CA JUMPI DUP3 SWAP1 SUB PUSH1 0x1F AND DUP3 ADD SWAP2 JUMPDEST POP POP POP POP POP DUP2 MSTORE PUSH1 0x20 ADD PUSH1 0x2 DUP3 ADD DUP1 SLOAD PUSH2 0xA00 SWAP1 PUSH2 0x2B09 JUMP JUMPDEST DUP1 PUSH1 0x1F ADD PUSH1 0x20 DUP1 SWAP2 DIV MUL PUSH1 0x20 ADD PUSH1 0x40 MLOAD SWAP1 DUP2 ADD PUSH1 0x40 MSTORE DUP1 SWAP3 SWAP2 SWAP1 DUP2 DUP2 MSTORE PUSH1 0x20 ADD DUP3 DUP1 SLOAD PUSH2 0xA2C SWAP1 PUSH2 0x2B09 JUMP JUMPDEST DUP1 ISZERO PUSH2 0xA79 JUMPI DUP1 PUSH1 0x1F LT PUSH2 0xA4E JUMPI PUSH2 0x100 DUP1 DUP4 SLOAD DIV MUL DUP4 MSTORE SWAP2 PUSH1 0x20 ADD SWAP2 PUSH2 0xA79 JUMP JUMPDEST DUP3 ADD SWAP2 SWAP1 PUSH1 0x0 MSTORE PUSH1 0x20 PUSH1 0x0 KECCAK256 SWAP1 JUMPDEST DUP2 SLOAD DUP2 MSTORE SWAP1 PUSH1 0x1 ADD SWAP1 PUSH1 0x20 ADD DUP1 DUP4 GT PUSH2 0xA5C JUMPI DUP3 SWAP1 SUB PUSH1 0x1F AND DUP3 ADD SWAP2 JUMPDEST POP POP POP POP POP DUP2 MSTORE POP POP DUP2 MSTORE PUSH1 0x20 ADD SWAP1 PUSH1 0x1 ADD SWAP1 PUSH2 0x8A9 JUMP JUMPDEST POP POP POP POP DUP2 MSTORE PUSH1 0x20 ADD PUSH1 0x5 DUP3 ADD PUSH1 0x0 SWAP1 SLOAD SWAP1 PUSH2 0x100 EXP SWAP1 DIV PUSH1 0xFF AND ISZERO ISZERO ISZERO ISZERO DUP2 MSTORE PUSH1 0x20 ADD PUSH1 0x6 DUP3 ADD SLOAD DUP2 MSTORE PUSH1 0x20 ADD PUSH1 0x7 DUP3 ADD SLOAD DUP2 MSTORE PUSH1 0x20 ADD PUSH1 0x8 DUP3 ADD DUP1 SLOAD PUSH2 0xAD8 SWAP1 PUSH2 0x2B09 JUMP JUMPDEST DUP1 PUSH1 0x1F ADD PUSH1 0x20 DUP1 SWAP2 DIV MUL PUSH1 0x20 ADD PUSH1 0x40 MLOAD SWAP1 DUP2 ADD PUSH1 0x40 MSTORE DUP1 SWAP3 SWAP2 SWAP1 DUP2 DUP2 MSTORE PUSH1 0x20 ADD DUP3 DUP1 SLOAD PUSH2 0xB04 SWAP1 PUSH2 0x2B09 JUMP JUMPDEST DUP1 ISZERO PUSH2 0xB51 JUMPI DUP1 PUSH1 0x1F LT PUSH2 0xB26 JUMPI PUSH2 0x100 DUP1 DUP4 SLOAD DIV MUL DUP4 MSTORE SWAP2 PUSH1 0x20 ADD SWAP2 PUSH2 0xB51 JUMP JUMPDEST DUP3 ADD SWAP2 SWAP1 PUSH1 0x0 MSTORE PUSH1 0x20 PUSH1 0x0 KECCAK256 SWAP1 JUMPDEST DUP2 SLOAD DUP2 MSTORE SWAP1 PUSH1 0x1 ADD SWAP1 PUSH1 0x20 ADD DUP1 DUP4 GT PUSH2 0xB34 JUMPI DUP3 SWAP1 SUB PUSH1 0x1F AND DUP3 ADD SWAP2 JUMPDEST POP POP POP POP POP DUP2 MSTORE POP POP DUP3 DUP3 DUP2 MLOAD DUP2 LT PUSH2 0xB6D JUMPI PUSH2 0xB6C PUSH2 0x2B3A JUMP JUMPDEST JUMPDEST PUSH1 0x20 MUL PUSH1 0x20 ADD ADD DUP2 SWAP1 MSTORE POP DUP1 DUP1 PUSH2 0xB83 SWAP1 PUSH2 0x2C5C JUMP JUMPDEST SWAP2 POP POP PUSH2 0x465 JUMP JUMPDEST POP DUP1 SWAP2 POP POP SWAP1 JUMP JUMPDEST PUSH1 0x0 PUSH1 0x1 DUP10 PUSH1 0x40 MLOAD PUSH2 0xBA5 SWAP2 SWAP1 PUSH2 0x2CD5 JUMP JUMPDEST SWAP1 DUP2 MSTORE PUSH1 0x20 ADD PUSH1 0x40 MLOAD DUP1 SWAP2 SUB SWAP1 KECCAK256 SWAP1 POP PUSH1 0x3 DUP10 SWAP1 DUP1 PUSH1 0x1 DUP2 SLOAD ADD DUP1 DUP3 SSTORE DUP1 SWAP2 POP POP PUSH1 0x1 SWAP1 SUB SWAP1 PUSH1 0x0 MSTORE PUSH1 0x20 PUSH1 0x0 KECCAK256 ADD PUSH1 0x0 SWAP1 SWAP2 SWAP1 SWAP2 SWAP1 SWAP2 POP SWAP1 DUP2 PUSH2 0xBE9 SWAP2 SWAP1 PUSH2 0x2E83 JUMP JUMPDEST POP PUSH1 0x0 DUP2 PUSH1 0x7 ADD DUP2 SWAP1 SSTORE POP PUSH1 0x0 DUP2 PUSH1 0x5 ADD PUSH1 0x0 PUSH2 0x100 EXP DUP2 SLOAD DUP2 PUSH1 0xFF MUL NOT AND SWAP1 DUP4 ISZERO ISZERO MUL OR SWAP1 SSTORE POP PUSH1 0x1 DUP2 PUSH1 0x6 ADD DUP2 SWAP1 SSTORE POP DUP7 DUP2 PUSH1 0x2 ADD SWAP1 DUP2 PUSH2 0xC2C SWAP2 SWAP1 PUSH2 0x2E83 JUMP JUMPDEST POP DUP9 DUP2 PUSH1 0x0 ADD SWAP1 DUP2 PUSH2 0xC3E SWAP2 SWAP1 PUSH2 0x2E83 JUMP JUMPDEST POP DUP2 DUP2 PUSH1 0x8 ADD SWAP1 DUP2 PUSH2 0xC50 SWAP2 SWAP1 PUSH2 0x2FB0 JUMP JUMPDEST POP PUSH1 0x0 JUMPDEST DUP7 MLOAD DUP2 LT ISZERO PUSH2 0xDA1 JUMPI PUSH1 0x0 PUSH1 0x40 MLOAD DUP1 PUSH1 0x60 ADD PUSH1 0x40 MSTORE DUP1 DUP10 DUP5 DUP2 MLOAD DUP2 LT PUSH2 0xC7D JUMPI PUSH2 0xC7C PUSH2 0x2B3A JUMP JUMPDEST JUMPDEST PUSH1 0x20 MUL PUSH1 0x20 ADD ADD MLOAD PUSH1 0x0 DUP2 MLOAD DUP2 LT PUSH2 0xC98 JUMPI PUSH2 0xC97 PUSH2 0x2B3A JUMP JUMPDEST JUMPDEST PUSH1 0x20 MUL PUSH1 0x20 ADD ADD MLOAD DUP2 MSTORE PUSH1 0x20 ADD DUP10 DUP5 DUP2 MLOAD DUP2 LT PUSH2 0xCB8 JUMPI PUSH2 0xCB7 PUSH2 0x2B3A JUMP JUMPDEST JUMPDEST PUSH1 0x20 MUL PUSH1 0x20 ADD ADD MLOAD PUSH1 0x1 DUP2 MLOAD DUP2 LT PUSH2 0xCD3 JUMPI PUSH2 0xCD2 PUSH2 0x2B3A JUMP JUMPDEST JUMPDEST PUSH1 0x20 MUL PUSH1 0x20 ADD ADD MLOAD DUP2 MSTORE PUSH1 0x20 ADD DUP10 DUP5 DUP2 MLOAD DUP2 LT PUSH2 0xCF3 JUMPI PUSH2 0xCF2 PUSH2 0x2B3A JUMP JUMPDEST JUMPDEST PUSH1 0x20 MUL PUSH1 0x20 ADD ADD MLOAD PUSH1 0x2 DUP2 MLOAD DUP2 LT PUSH2 0xD0E JUMPI PUSH2 0xD0D PUSH2 0x2B3A JUMP JUMPDEST JUMPDEST PUSH1 0x20 MUL PUSH1 0x20 ADD ADD MLOAD DUP2 MSTORE POP SWAP1 POP DUP3 PUSH1 0x3 ADD DUP2 SWAP1 DUP1 PUSH1 0x1 DUP2 SLOAD ADD DUP1 DUP3 SSTORE DUP1 SWAP2 POP POP PUSH1 0x1 SWAP1 SUB SWAP1 PUSH1 0x0 MSTORE PUSH1 0x20 PUSH1 0x0 KECCAK256 SWAP1 PUSH1 0x3 MUL ADD PUSH1 0x0 SWAP1 SWAP2 SWAP1 SWAP2 SWAP1 SWAP2 POP PUSH1 0x0 DUP3 ADD MLOAD DUP2 PUSH1 0x0 ADD SWAP1 DUP2 PUSH2 0xD5E SWAP2 SWAP1 PUSH2 0x2E83 JUMP JUMPDEST POP PUSH1 0x20 DUP3 ADD MLOAD DUP2 PUSH1 0x1 ADD SWAP1 DUP2 PUSH2 0xD74 SWAP2 SWAP1 PUSH2 0x2E83 JUMP JUMPDEST POP PUSH1 0x40 DUP3 ADD MLOAD DUP2 PUSH1 0x2 ADD SWAP1 DUP2 PUSH2 0xD8A SWAP2 SWAP1 PUSH2 0x2E83 JUMP JUMPDEST POP POP POP POP DUP1 DUP1 PUSH2 0xD99 SWAP1 PUSH2 0x2C5C JUMP JUMPDEST SWAP2 POP POP PUSH2 0xC54 JUMP JUMPDEST POP PUSH1 0x0 JUMPDEST DUP6 MLOAD DUP2 LT ISZERO PUSH2 0xEF2 JUMPI PUSH1 0x0 PUSH1 0x40 MLOAD DUP1 PUSH1 0x60 ADD PUSH1 0x40 MSTORE DUP1 DUP9 DUP5 DUP2 MLOAD DUP2 LT PUSH2 0xDCE JUMPI PUSH2 0xDCD PUSH2 0x2B3A JUMP JUMPDEST JUMPDEST PUSH1 0x20 MUL PUSH1 0x20 ADD ADD MLOAD PUSH1 0x0 DUP2 MLOAD DUP2 LT PUSH2 0xDE9 JUMPI PUSH2 0xDE8 PUSH2 0x2B3A JUMP JUMPDEST JUMPDEST PUSH1 0x20 MUL PUSH1 0x20 ADD ADD MLOAD DUP2 MSTORE PUSH1 0x20 ADD DUP9 DUP5 DUP2 MLOAD DUP2 LT PUSH2 0xE09 JUMPI PUSH2 0xE08 PUSH2 0x2B3A JUMP JUMPDEST JUMPDEST PUSH1 0x20 MUL PUSH1 0x20 ADD ADD MLOAD PUSH1 0x1 DUP2 MLOAD DUP2 LT PUSH2 0xE24 JUMPI PUSH2 0xE23 PUSH2 0x2B3A JUMP JUMPDEST JUMPDEST PUSH1 0x20 MUL PUSH1 0x20 ADD ADD MLOAD DUP2 MSTORE PUSH1 0x20 ADD DUP9 DUP5 DUP2 MLOAD DUP2 LT PUSH2 0xE44 JUMPI PUSH2 0xE43 PUSH2 0x2B3A JUMP JUMPDEST JUMPDEST PUSH1 0x20 MUL PUSH1 0x20 ADD ADD MLOAD PUSH1 0x2 DUP2 MLOAD DUP2 LT PUSH2 0xE5F JUMPI PUSH2 0xE5E PUSH2 0x2B3A JUMP JUMPDEST JUMPDEST PUSH1 0x20 MUL PUSH1 0x20 ADD ADD MLOAD DUP2 MSTORE POP SWAP1 POP DUP3 PUSH1 0x4 ADD DUP2 SWAP1 DUP1 PUSH1 0x1 DUP2 SLOAD ADD DUP1 DUP3 SSTORE DUP1 SWAP2 POP POP PUSH1 0x1 SWAP1 SUB SWAP1 PUSH1 0x0 MSTORE PUSH1 0x20 PUSH1 0x0 KECCAK256 SWAP1 PUSH1 0x3 MUL ADD PUSH1 0x0 SWAP1 SWAP2 SWAP1 SWAP2 SWAP1 SWAP2 POP PUSH1 0x0 DUP3 ADD MLOAD DUP2 PUSH1 0x0 ADD SWAP1 DUP2 PUSH2 0xEAF SWAP2 SWAP1 PUSH2 0x2E83 JUMP JUMPDEST POP PUSH1 0x20 DUP3 ADD MLOAD DUP2 PUSH1 0x1 ADD SWAP1 DUP2 PUSH2 0xEC5 SWAP2 SWAP1 PUSH2 0x2E83 JUMP JUMPDEST POP PUSH1 0x40 DUP3 ADD MLOAD DUP2 PUSH1 0x2 ADD SWAP1 DUP2 PUSH2 0xEDB SWAP2 SWAP1 PUSH2 0x2E83 JUMP JUMPDEST POP POP POP POP DUP1 DUP1 PUSH2 0xEEA SWAP1 PUSH2 0x2C5C JUMP JUMPDEST SWAP2 POP POP PUSH2 0xDA5 JUMP JUMPDEST POP PUSH1 0x0 DUP5 MLOAD EQ ISZERO DUP1 PUSH2 0xF06 JUMPI POP PUSH1 0x0 DUP4 MLOAD EQ ISZERO JUMPDEST ISZERO PUSH2 0xF18 JUMPI PUSH2 0xF17 DUP10 DUP10 DUP7 DUP7 PUSH2 0x1938 JUMP JUMPDEST JUMPDEST POP POP POP POP POP POP POP POP POP JUMP JUMPDEST PUSH1 0x0 DUP2 DUP1 MLOAD PUSH1 0x20 DUP2 ADD DUP3 ADD DUP1 MLOAD DUP5 DUP3 MSTORE PUSH1 0x20 DUP4 ADD PUSH1 0x20 DUP6 ADD KECCAK256 DUP2 DUP4 MSTORE DUP1 SWAP6 POP POP POP POP POP POP PUSH1 0x0 SWAP2 POP SWAP1 POP DUP1 PUSH1 0x0 ADD DUP1 SLOAD PUSH2 0xF5C SWAP1 PUSH2 0x2B09 JUMP JUMPDEST DUP1 PUSH1 0x1F ADD PUSH1 0x20 DUP1 SWAP2 DIV MUL PUSH1 0x20 ADD PUSH1 0x40 MLOAD SWAP1 DUP2 ADD PUSH1 0x40 MSTORE DUP1 SWAP3 SWAP2 SWAP1 DUP2 DUP2 MSTORE PUSH1 0x20 ADD DUP3 DUP1 SLOAD PUSH2 0xF88 SWAP1 PUSH2 0x2B09 JUMP JUMPDEST DUP1 ISZERO PUSH2 0xFD5 JUMPI DUP1 PUSH1 0x1F LT PUSH2 0xFAA JUMPI PUSH2 0x100 DUP1 DUP4 SLOAD DIV MUL DUP4 MSTORE SWAP2 PUSH1 0x20 ADD SWAP2 PUSH2 0xFD5 JUMP JUMPDEST DUP3 ADD SWAP2 SWAP1 PUSH1 0x0 MSTORE PUSH1 0x20 PUSH1 0x0 KECCAK256 SWAP1 JUMPDEST DUP2 SLOAD DUP2 MSTORE SWAP1 PUSH1 0x1 ADD SWAP1 PUSH1 0x20 ADD DUP1 DUP4 GT PUSH2 0xFB8 JUMPI DUP3 SWAP1 SUB PUSH1 0x1F AND DUP3 ADD SWAP2 JUMPDEST POP POP POP POP POP SWAP1 DUP1 PUSH1 0x1 ADD DUP1 SLOAD PUSH2 0xFEA SWAP1 PUSH2 0x2B09 JUMP JUMPDEST DUP1 PUSH1 0x1F ADD PUSH1 0x20 DUP1 SWAP2 DIV MUL PUSH1 0x20 ADD PUSH1 0x40 MLOAD SWAP1 DUP2 ADD PUSH1 0x40 MSTORE DUP1 SWAP3 SWAP2 SWAP1 DUP2 DUP2 MSTORE PUSH1 0x20 ADD DUP3 DUP1 SLOAD PUSH2 0x1016 SWAP1 PUSH2 0x2B09 JUMP JUMPDEST DUP1 ISZERO PUSH2 0x1063 JUMPI DUP1 PUSH1 0x1F LT PUSH2 0x1038 JUMPI PUSH2 0x100 DUP1 DUP4 SLOAD DIV MUL DUP4 MSTORE SWAP2 PUSH1 0x20 ADD SWAP2 PUSH2 0x1063 JUMP JUMPDEST DUP3 ADD SWAP2 SWAP1 PUSH1 0x0 MSTORE PUSH1 0x20 PUSH1 0x0 KECCAK256 SWAP1 JUMPDEST DUP2 SLOAD DUP2 MSTORE SWAP1 PUSH1 0x1 ADD SWAP1 PUSH1 0x20 ADD DUP1 DUP4 GT PUSH2 0x1046 JUMPI DUP3 SWAP1 SUB PUSH1 0x1F AND DUP3 ADD SWAP2 JUMPDEST POP POP POP POP POP SWAP1 DUP1 PUSH1 0x2 ADD DUP1 SLOAD PUSH2 0x1078 SWAP1 PUSH2 0x2B09 JUMP JUMPDEST DUP1 PUSH1 0x1F ADD PUSH1 0x20 DUP1 SWAP2 DIV MUL PUSH1 0x20 ADD PUSH1 0x40 MLOAD SWAP1 DUP2 ADD PUSH1 0x40 MSTORE DUP1 SWAP3 SWAP2 SWAP1 DUP2 DUP2 MSTORE PUSH1 0x20 ADD DUP3 DUP1 SLOAD PUSH2 0x10A4 SWAP1 PUSH2 0x2B09 JUMP JUMPDEST DUP1 ISZERO PUSH2 0x10F1 JUMPI DUP1 PUSH1 0x1F LT PUSH2 0x10C6 JUMPI PUSH2 0x100 DUP1 DUP4 SLOAD DIV MUL DUP4 MSTORE SWAP2 PUSH1 0x20 ADD SWAP2 PUSH2 0x10F1 JUMP JUMPDEST DUP3 ADD SWAP2 SWAP1 PUSH1 0x0 MSTORE PUSH1 0x20 PUSH1 0x0 KECCAK256 SWAP1 JUMPDEST DUP2 SLOAD DUP2 MSTORE SWAP1 PUSH1 0x1 ADD SWAP1 PUSH1 0x20 ADD DUP1 DUP4 GT PUSH2 0x10D4 JUMPI DUP3 SWAP1 SUB PUSH1 0x1F AND DUP3 ADD SWAP2 JUMPDEST POP POP POP POP POP SWAP1 DUP1 PUSH1 0x5 ADD PUSH1 0x0 SWAP1 SLOAD SWAP1 PUSH2 0x100 EXP SWAP1 DIV PUSH1 0xFF AND SWAP1 DUP1 PUSH1 0x6 ADD SLOAD SWAP1 DUP1 PUSH1 0x7 ADD SLOAD SWAP1 DUP1 PUSH1 0x8 ADD DUP1 SLOAD PUSH2 0x1125 SWAP1 PUSH2 0x2B09 JUMP JUMPDEST DUP1 PUSH1 0x1F ADD PUSH1 0x20 DUP1 SWAP2 DIV MUL PUSH1 0x20 ADD PUSH1 0x40 MLOAD SWAP1 DUP2 ADD PUSH1 0x40 MSTORE DUP1 SWAP3 SWAP2 SWAP1 DUP2 DUP2 MSTORE PUSH1 0x20 ADD DUP3 DUP1 SLOAD PUSH2 0x1151 SWAP1 PUSH2 0x2B09 JUMP JUMPDEST DUP1 ISZERO PUSH2 0x119E JUMPI DUP1 PUSH1 0x1F LT PUSH2 0x1173 JUMPI PUSH2 0x100 DUP1 DUP4 SLOAD DIV MUL DUP4 MSTORE SWAP2 PUSH1 0x20 ADD SWAP2 PUSH2 0x119E JUMP JUMPDEST DUP3 ADD SWAP2 SWAP1 PUSH1 0x0 MSTORE PUSH1 0x20 PUSH1 0x0 KECCAK256 SWAP1 JUMPDEST DUP2 SLOAD DUP2 MSTORE SWAP1 PUSH1 0x1 ADD SWAP1 PUSH1 0x20 ADD DUP1 DUP4 GT PUSH2 0x1181 JUMPI DUP3 SWAP1 SUB PUSH1 0x1F AND DUP3 ADD SWAP2 JUMPDEST POP POP POP POP POP SWAP1 POP DUP8 JUMP JUMPDEST PUSH1 0x60 PUSH1 0x0 PUSH1 0x2 DUP1 SLOAD SWAP1 POP PUSH8 0xFFFFFFFFFFFFFFFF DUP2 GT ISZERO PUSH2 0x11CB JUMPI PUSH2 0x11CA PUSH2 0x1D89 JUMP JUMPDEST JUMPDEST PUSH1 0x40 MLOAD SWAP1 DUP1 DUP3 MSTORE DUP1 PUSH1 0x20 MUL PUSH1 0x20 ADD DUP3 ADD PUSH1 0x40 MSTORE DUP1 ISZERO PUSH2 0x1204 JUMPI DUP2 PUSH1 0x20 ADD JUMPDEST PUSH2 0x11F1 PUSH2 0x1D0C JUMP JUMPDEST DUP2 MSTORE PUSH1 0x20 ADD SWAP1 PUSH1 0x1 SWAP1 SUB SWAP1 DUP2 PUSH2 0x11E9 JUMPI SWAP1 POP JUMPDEST POP SWAP1 POP PUSH1 0x0 JUMPDEST PUSH1 0x2 DUP1 SLOAD SWAP1 POP DUP2 LT ISZERO PUSH2 0x1930 JUMPI PUSH1 0x0 PUSH1 0x2 DUP3 DUP2 SLOAD DUP2 LT PUSH2 0x122D JUMPI PUSH2 0x122C PUSH2 0x2B3A JUMP JUMPDEST JUMPDEST SWAP1 PUSH1 0x0 MSTORE PUSH1 0x20 PUSH1 0x0 KECCAK256 ADD PUSH1 0x40 MLOAD PUSH2 0x1244 SWAP2 SWAP1 PUSH2 0x2C0C JUMP JUMPDEST SWAP1 DUP2 MSTORE PUSH1 0x20 ADD PUSH1 0x40 MLOAD DUP1 SWAP2 SUB SWAP1 KECCAK256 PUSH1 0x40 MLOAD DUP1 PUSH2 0x120 ADD PUSH1 0x40 MSTORE SWAP1 DUP2 PUSH1 0x0 DUP3 ADD DUP1 SLOAD PUSH2 0x126E SWAP1 PUSH2 0x2B09 JUMP JUMPDEST DUP1 PUSH1 0x1F ADD PUSH1 0x20 DUP1 SWAP2 DIV MUL PUSH1 0x20 ADD PUSH1 0x40 MLOAD SWAP1 DUP2 ADD PUSH1 0x40 MSTORE DUP1 SWAP3 SWAP2 SWAP1 DUP2 DUP2 MSTORE PUSH1 0x20 ADD DUP3 DUP1 SLOAD PUSH2 0x129A SWAP1 PUSH2 0x2B09 JUMP JUMPDEST DUP1 ISZERO PUSH2 0x12E7 JUMPI DUP1 PUSH1 0x1F LT PUSH2 0x12BC JUMPI PUSH2 0x100 DUP1 DUP4 SLOAD DIV MUL DUP4 MSTORE SWAP2 PUSH1 0x20 ADD SWAP2 PUSH2 0x12E7 JUMP JUMPDEST DUP3 ADD SWAP2 SWAP1 PUSH1 0x0 MSTORE PUSH1 0x20 PUSH1 0x0 KECCAK256 SWAP1 JUMPDEST DUP2 SLOAD DUP2 MSTORE SWAP1 PUSH1 0x1 ADD SWAP1 PUSH1 0x20 ADD DUP1 DUP4 GT PUSH2 0x12CA JUMPI DUP3 SWAP1 SUB PUSH1 0x1F AND DUP3 ADD SWAP2 JUMPDEST POP POP POP POP POP DUP2 MSTORE PUSH1 0x20 ADD PUSH1 0x1 DUP3 ADD DUP1 SLOAD PUSH2 0x1300 SWAP1 PUSH2 0x2B09 JUMP JUMPDEST DUP1 PUSH1 0x1F ADD PUSH1 0x20 DUP1 SWAP2 DIV MUL PUSH1 0x20 ADD PUSH1 0x40 MLOAD SWAP1 DUP2 ADD PUSH1 0x40 MSTORE DUP1 SWAP3 SWAP2 SWAP1 DUP2 DUP2 MSTORE PUSH1 0x20 ADD DUP3 DUP1 SLOAD PUSH2 0x132C SWAP1 PUSH2 0x2B09 JUMP JUMPDEST DUP1 ISZERO PUSH2 0x1379 JUMPI DUP1 PUSH1 0x1F LT PUSH2 0x134E JUMPI PUSH2 0x100 DUP1 DUP4 SLOAD DIV MUL DUP4 MSTORE SWAP2 PUSH1 0x20 ADD SWAP2 PUSH2 0x1379 JUMP JUMPDEST DUP3 ADD SWAP2 SWAP1 PUSH1 0x0 MSTORE PUSH1 0x20 PUSH1 0x0 KECCAK256 SWAP1 JUMPDEST DUP2 SLOAD DUP2 MSTORE SWAP1 PUSH1 0x1 ADD SWAP1 PUSH1 0x20 ADD DUP1 DUP4 GT PUSH2 0x135C JUMPI DUP3 SWAP1 SUB PUSH1 0x1F AND DUP3 ADD SWAP2 JUMPDEST POP POP POP POP POP DUP2 MSTORE PUSH1 0x20 ADD PUSH1 0x2 DUP3 ADD DUP1 SLOAD PUSH2 0x1392 SWAP1 PUSH2 0x2B09 JUMP JUMPDEST DUP1 PUSH1 0x1F ADD PUSH1 0x20 DUP1 SWAP2 DIV MUL PUSH1 0x20 ADD PUSH1 0x40 MLOAD SWAP1 DUP2 ADD PUSH1 0x40 MSTORE DUP1 SWAP3 SWAP2 SWAP1 DUP2 DUP2 MSTORE PUSH1 0x20 ADD DUP3 DUP1 SLOAD PUSH2 0x13BE SWAP1 PUSH2 0x2B09 JUMP JUMPDEST DUP1 ISZERO PUSH2 0x140B JUMPI DUP1 PUSH1 0x1F LT PUSH2 0x13E0 JUMPI PUSH2 0x100 DUP1 DUP4 SLOAD DIV MUL DUP4 MSTORE SWAP2 PUSH1 0x20 ADD SWAP2 PUSH2 0x140B JUMP JUMPDEST DUP3 ADD SWAP2 SWAP1 PUSH1 0x0 MSTORE PUSH1 0x20 PUSH1 0x0 KECCAK256 SWAP1 JUMPDEST DUP2 SLOAD DUP2 MSTORE SWAP1 PUSH1 0x1 ADD SWAP1 PUSH1 0x20 ADD DUP1 DUP4 GT PUSH2 0x13EE JUMPI DUP3 SWAP1 SUB PUSH1 0x1F AND DUP3 ADD SWAP2 JUMPDEST POP POP POP POP POP DUP2 MSTORE PUSH1 0x20 ADD PUSH1 0x3 DUP3 ADD DUP1 SLOAD DUP1 PUSH1 0x20 MUL PUSH1 0x20 ADD PUSH1 0x40 MLOAD SWAP1 DUP2 ADD PUSH1 0x40 MSTORE DUP1 SWAP3 SWAP2 SWAP1 DUP2 DUP2 MSTORE PUSH1 0x20 ADD PUSH1 0x0 SWAP1 JUMPDEST DUP3 DUP3 LT ISZERO PUSH2 0x1621 JUMPI DUP4 DUP3 SWAP1 PUSH1 0x0 MSTORE PUSH1 0x20 PUSH1 0x0 KECCAK256 SWAP1 PUSH1 0x3 MUL ADD PUSH1 0x40 MLOAD DUP1 PUSH1 0x60 ADD PUSH1 0x40 MSTORE SWAP1 DUP2 PUSH1 0x0 DUP3 ADD DUP1 SLOAD PUSH2 0x146C SWAP1 PUSH2 0x2B09 JUMP JUMPDEST DUP1 PUSH1 0x1F ADD PUSH1 0x20 DUP1 SWAP2 DIV MUL PUSH1 0x20 ADD PUSH1 0x40 MLOAD SWAP1 DUP2 ADD PUSH1 0x40 MSTORE DUP1 SWAP3 SWAP2 SWAP1 DUP2 DUP2 MSTORE PUSH1 0x20 ADD DUP3 DUP1 SLOAD PUSH2 0x1498 SWAP1 PUSH2 0x2B09 JUMP JUMPDEST DUP1 ISZERO PUSH2 0x14E5 JUMPI DUP1 PUSH1 0x1F LT PUSH2 0x14BA JUMPI PUSH2 0x100 DUP1 DUP4 SLOAD DIV MUL DUP4 MSTORE SWAP2 PUSH1 0x20 ADD SWAP2 PUSH2 0x14E5 JUMP JUMPDEST DUP3 ADD SWAP2 SWAP1 PUSH1 0x0 MSTORE PUSH1 0x20 PUSH1 0x0 KECCAK256 SWAP1 JUMPDEST DUP2 SLOAD DUP2 MSTORE SWAP1 PUSH1 0x1 ADD SWAP1 PUSH1 0x20 ADD DUP1 DUP4 GT PUSH2 0x14C8 JUMPI DUP3 SWAP1 SUB PUSH1 0x1F AND DUP3 ADD SWAP2 JUMPDEST POP POP POP POP POP DUP2 MSTORE PUSH1 0x20 ADD PUSH1 0x1 DUP3 ADD DUP1 SLOAD PUSH2 0x14FE SWAP1 PUSH2 0x2B09 JUMP JUMPDEST DUP1 PUSH1 0x1F ADD PUSH1 0x20 DUP1 SWAP2 DIV MUL PUSH1 0x20 ADD PUSH1 0x40 MLOAD SWAP1 DUP2 ADD PUSH1 0x40 MSTORE DUP1 SWAP3 SWAP2 SWAP1 DUP2 DUP2 MSTORE PUSH1 0x20 ADD DUP3 DUP1 SLOAD PUSH2 0x152A SWAP1 PUSH2 0x2B09 JUMP JUMPDEST DUP1 ISZERO PUSH2 0x1577 JUMPI DUP1 PUSH1 0x1F LT PUSH2 0x154C JUMPI PUSH2 0x100 DUP1 DUP4 SLOAD DIV MUL DUP4 MSTORE SWAP2 PUSH1 0x20 ADD SWAP2 PUSH2 0x1577 JUMP JUMPDEST DUP3 ADD SWAP2 SWAP1 PUSH1 0x0 MSTORE PUSH1 0x20 PUSH1 0x0 KECCAK256 SWAP1 JUMPDEST DUP2 SLOAD DUP2 MSTORE SWAP1 PUSH1 0x1 ADD SWAP1 PUSH1 0x20 ADD DUP1 DUP4 GT PUSH2 0x155A JUMPI DUP3 SWAP1 SUB PUSH1 0x1F AND DUP3 ADD SWAP2 JUMPDEST POP POP POP POP POP DUP2 MSTORE PUSH1 0x20 ADD PUSH1 0x2 DUP3 ADD DUP1 SLOAD PUSH2 0x1590 SWAP1 PUSH2 0x2B09 JUMP JUMPDEST DUP1 PUSH1 0x1F ADD PUSH1 0x20 DUP1 SWAP2 DIV MUL PUSH1 0x20 ADD PUSH1 0x40 MLOAD SWAP1 DUP2 ADD PUSH1 0x40 MSTORE DUP1 SWAP3 SWAP2 SWAP1 DUP2 DUP2 MSTORE PUSH1 0x20 ADD DUP3 DUP1 SLOAD PUSH2 0x15BC SWAP1 PUSH2 0x2B09 JUMP JUMPDEST DUP1 ISZERO PUSH2 0x1609 JUMPI DUP1 PUSH1 0x1F LT PUSH2 0x15DE JUMPI PUSH2 0x100 DUP1 DUP4 SLOAD DIV MUL DUP4 MSTORE SWAP2 PUSH1 0x20 ADD SWAP2 PUSH2 0x1609 JUMP JUMPDEST DUP3 ADD SWAP2 SWAP1 PUSH1 0x0 MSTORE PUSH1 0x20 PUSH1 0x0 KECCAK256 SWAP1 JUMPDEST DUP2 SLOAD DUP2 MSTORE SWAP1 PUSH1 0x1 ADD SWAP1 PUSH1 0x20 ADD DUP1 DUP4 GT PUSH2 0x15EC JUMPI DUP3 SWAP1 SUB PUSH1 0x1F AND DUP3 ADD SWAP2 JUMPDEST POP POP POP POP POP DUP2 MSTORE POP POP DUP2 MSTORE PUSH1 0x20 ADD SWAP1 PUSH1 0x1 ADD SWAP1 PUSH2 0x1439 JUMP JUMPDEST POP POP POP POP DUP2 MSTORE PUSH1 0x20 ADD PUSH1 0x4 DUP3 ADD DUP1 SLOAD DUP1 PUSH1 0x20 MUL PUSH1 0x20 ADD PUSH1 0x40 MLOAD SWAP1 DUP2 ADD PUSH1 0x40 MSTORE DUP1 SWAP3 SWAP2 SWAP1 DUP2 DUP2 MSTORE PUSH1 0x20 ADD PUSH1 0x0 SWAP1 JUMPDEST DUP3 DUP3 LT ISZERO PUSH2 0x1836 JUMPI DUP4 DUP3 SWAP1 PUSH1 0x0 MSTORE PUSH1 0x20 PUSH1 0x0 KECCAK256 SWAP1 PUSH1 0x3 MUL ADD PUSH1 0x40 MLOAD DUP1 PUSH1 0x60 ADD PUSH1 0x40 MSTORE SWAP1 DUP2 PUSH1 0x0 DUP3 ADD DUP1 SLOAD PUSH2 0x1681 SWAP1 PUSH2 0x2B09 JUMP JUMPDEST DUP1 PUSH1 0x1F ADD PUSH1 0x20 DUP1 SWAP2 DIV MUL PUSH1 0x20 ADD PUSH1 0x40 MLOAD SWAP1 DUP2 ADD PUSH1 0x40 MSTORE DUP1 SWAP3 SWAP2 SWAP1 DUP2 DUP2 MSTORE PUSH1 0x20 ADD DUP3 DUP1 SLOAD PUSH2 0x16AD SWAP1 PUSH2 0x2B09 JUMP JUMPDEST DUP1 ISZERO PUSH2 0x16FA JUMPI DUP1 PUSH1 0x1F LT PUSH2 0x16CF JUMPI PUSH2 0x100 DUP1 DUP4 SLOAD DIV MUL DUP4 MSTORE SWAP2 PUSH1 0x20 ADD SWAP2 PUSH2 0x16FA JUMP JUMPDEST DUP3 ADD SWAP2 SWAP1 PUSH1 0x0 MSTORE PUSH1 0x20 PUSH1 0x0 KECCAK256 SWAP1 JUMPDEST DUP2 SLOAD DUP2 MSTORE SWAP1 PUSH1 0x1 ADD SWAP1 PUSH1 0x20 ADD DUP1 DUP4 GT PUSH2 0x16DD JUMPI DUP3 SWAP1 SUB PUSH1 0x1F AND DUP3 ADD SWAP2 JUMPDEST POP POP POP POP POP DUP2 MSTORE PUSH1 0x20 ADD PUSH1 0x1 DUP3 ADD DUP1 SLOAD PUSH2 0x1713 SWAP1 PUSH2 0x2B09 JUMP JUMPDEST DUP1 PUSH1 0x1F ADD PUSH1 0x20 DUP1 SWAP2 DIV MUL PUSH1 0x20 ADD PUSH1 0x40 MLOAD SWAP1 DUP2 ADD PUSH1 0x40 MSTORE DUP1 SWAP3 SWAP2 SWAP1 DUP2 DUP2 MSTORE PUSH1 0x20 ADD DUP3 DUP1 SLOAD PUSH2 0x173F SWAP1 PUSH2 0x2B09 JUMP JUMPDEST DUP1 ISZERO PUSH2 0x178C JUMPI DUP1 PUSH1 0x1F LT PUSH2 0x1761 JUMPI PUSH2 0x100 DUP1 DUP4 SLOAD DIV MUL DUP4 MSTORE SWAP2 PUSH1 0x20 ADD SWAP2 PUSH2 0x178C JUMP JUMPDEST DUP3 ADD SWAP2 SWAP1 PUSH1 0x0 MSTORE PUSH1 0x20 PUSH1 0x0 KECCAK256 SWAP1 JUMPDEST DUP2 SLOAD DUP2 MSTORE SWAP1 PUSH1 0x1 ADD SWAP1 PUSH1 0x20 ADD DUP1 DUP4 GT PUSH2 0x176F JUMPI DUP3 SWAP1 SUB PUSH1 0x1F AND DUP3 ADD SWAP2 JUMPDEST POP POP POP POP POP DUP2 MSTORE PUSH1 0x20 ADD PUSH1 0x2 DUP3 ADD DUP1 SLOAD PUSH2 0x17A5 SWAP1 PUSH2 0x2B09 JUMP JUMPDEST DUP1 PUSH1 0x1F ADD PUSH1 0x20 DUP1 SWAP2 DIV MUL PUSH1 0x20 ADD PUSH1 0x40 MLOAD SWAP1 DUP2 ADD PUSH1 0x40 MSTORE DUP1 SWAP3 SWAP2 SWAP1 DUP2 DUP2 MSTORE PUSH1 0x20 ADD DUP3 DUP1 SLOAD PUSH2 0x17D1 SWAP1 PUSH2 0x2B09 JUMP JUMPDEST DUP1 ISZERO PUSH2 0x181E JUMPI DUP1 PUSH1 0x1F LT PUSH2 0x17F3 JUMPI PUSH2 0x100 DUP1 DUP4 SLOAD DIV MUL DUP4 MSTORE SWAP2 PUSH1 0x20 ADD SWAP2 PUSH2 0x181E JUMP JUMPDEST DUP3 ADD SWAP2 SWAP1 PUSH1 0x0 MSTORE PUSH1 0x20 PUSH1 0x0 KECCAK256 SWAP1 JUMPDEST DUP2 SLOAD DUP2 MSTORE SWAP1 PUSH1 0x1 ADD SWAP1 PUSH1 0x20 ADD DUP1 DUP4 GT PUSH2 0x1801 JUMPI DUP3 SWAP1 SUB PUSH1 0x1F AND DUP3 ADD SWAP2 JUMPDEST POP POP POP POP POP DUP2 MSTORE POP POP DUP2 MSTORE PUSH1 0x20 ADD SWAP1 PUSH1 0x1 ADD SWAP1 PUSH2 0x164E JUMP JUMPDEST POP POP POP POP DUP2 MSTORE PUSH1 0x20 ADD PUSH1 0x5 DUP3 ADD PUSH1 0x0 SWAP1 SLOAD SWAP1 PUSH2 0x100 EXP SWAP1 DIV PUSH1 0xFF AND ISZERO ISZERO ISZERO ISZERO DUP2 MSTORE PUSH1 0x20 ADD PUSH1 0x6 DUP3 ADD SLOAD DUP2 MSTORE PUSH1 0x20 ADD PUSH1 0x7 DUP3 ADD SLOAD DUP2 MSTORE PUSH1 0x20 ADD PUSH1 0x8 DUP3 ADD DUP1 SLOAD PUSH2 0x187D SWAP1 PUSH2 0x2B09 JUMP JUMPDEST DUP1 PUSH1 0x1F ADD PUSH1 0x20 DUP1 SWAP2 DIV MUL PUSH1 0x20 ADD PUSH1 0x40 MLOAD SWAP1 DUP2 ADD PUSH1 0x40 MSTORE DUP1 SWAP3 SWAP2 SWAP1 DUP2 DUP2 MSTORE PUSH1 0x20 ADD DUP3 DUP1 SLOAD PUSH2 0x18A9 SWAP1 PUSH2 0x2B09 JUMP JUMPDEST DUP1 ISZERO PUSH2 0x18F6 JUMPI DUP1 PUSH1 0x1F LT PUSH2 0x18CB JUMPI PUSH2 0x100 DUP1 DUP4 SLOAD DIV MUL DUP4 MSTORE SWAP2 PUSH1 0x20 ADD SWAP2 PUSH2 0x18F6 JUMP JUMPDEST DUP3 ADD SWAP2 SWAP1 PUSH1 0x0 MSTORE PUSH1 0x20 PUSH1 0x0 KECCAK256 SWAP1 JUMPDEST DUP2 SLOAD DUP2 MSTORE SWAP1 PUSH1 0x1 ADD SWAP1 PUSH1 0x20 ADD DUP1 DUP4 GT PUSH2 0x18D9 JUMPI DUP3 SWAP1 SUB PUSH1 0x1F AND DUP3 ADD SWAP2 JUMPDEST POP POP POP POP POP DUP2 MSTORE POP POP DUP3 DUP3 DUP2 MLOAD DUP2 LT PUSH2 0x1912 JUMPI PUSH2 0x1911 PUSH2 0x2B3A JUMP JUMPDEST JUMPDEST PUSH1 0x20 MUL PUSH1 0x20 ADD ADD DUP2 SWAP1 MSTORE POP DUP1 DUP1 PUSH2 0x1928 SWAP1 PUSH2 0x2C5C JUMP JUMPDEST SWAP2 POP POP PUSH2 0x120A JUMP JUMPDEST POP DUP1 SWAP2 POP POP SWAP1 JUMP JUMPDEST PUSH1 0x0 DUP1 DUP6 PUSH1 0x40 MLOAD PUSH2 0x1949 SWAP2 SWAP1 PUSH2 0x2CD5 JUMP JUMPDEST SWAP1 DUP2 MSTORE PUSH1 0x20 ADD PUSH1 0x40 MLOAD DUP1 SWAP2 SUB SWAP1 KECCAK256 SWAP1 POP PUSH1 0x2 DUP6 SWAP1 DUP1 PUSH1 0x1 DUP2 SLOAD ADD DUP1 DUP3 SSTORE DUP1 SWAP2 POP POP PUSH1 0x1 SWAP1 SUB SWAP1 PUSH1 0x0 MSTORE PUSH1 0x20 PUSH1 0x0 KECCAK256 ADD PUSH1 0x0 SWAP1 SWAP2 SWAP1 SWAP2 SWAP1 SWAP2 POP SWAP1 DUP2 PUSH2 0x198D SWAP2 SWAP1 PUSH2 0x2E83 JUMP JUMPDEST POP DUP4 DUP2 PUSH1 0x1 ADD SWAP1 DUP2 PUSH2 0x199F SWAP2 SWAP1 PUSH2 0x2E83 JUMP JUMPDEST POP PUSH1 0x0 DUP2 PUSH1 0x7 ADD DUP2 SWAP1 SSTORE POP PUSH1 0x0 DUP2 PUSH1 0x5 ADD PUSH1 0x0 PUSH2 0x100 EXP DUP2 SLOAD DUP2 PUSH1 0xFF MUL NOT AND SWAP1 DUP4 ISZERO ISZERO MUL OR SWAP1 SSTORE POP PUSH1 0x0 DUP2 PUSH1 0x6 ADD DUP2 SWAP1 SSTORE POP DUP5 DUP2 PUSH1 0x0 ADD SWAP1 DUP2 PUSH2 0x19E2 SWAP2 SWAP1 PUSH2 0x2E83 JUMP JUMPDEST POP PUSH1 0x0 JUMPDEST DUP4 MLOAD DUP2 LT ISZERO PUSH2 0x1B33 JUMPI PUSH1 0x0 PUSH1 0x40 MLOAD DUP1 PUSH1 0x60 ADD PUSH1 0x40 MSTORE DUP1 DUP7 DUP5 DUP2 MLOAD DUP2 LT PUSH2 0x1A0F JUMPI PUSH2 0x1A0E PUSH2 0x2B3A JUMP JUMPDEST JUMPDEST PUSH1 0x20 MUL PUSH1 0x20 ADD ADD MLOAD PUSH1 0x0 DUP2 MLOAD DUP2 LT PUSH2 0x1A2A JUMPI PUSH2 0x1A29 PUSH2 0x2B3A JUMP JUMPDEST JUMPDEST PUSH1 0x20 MUL PUSH1 0x20 ADD ADD MLOAD DUP2 MSTORE PUSH1 0x20 ADD DUP7 DUP5 DUP2 MLOAD DUP2 LT PUSH2 0x1A4A JUMPI PUSH2 0x1A49 PUSH2 0x2B3A JUMP JUMPDEST JUMPDEST PUSH1 0x20 MUL PUSH1 0x20 ADD ADD MLOAD PUSH1 0x1 DUP2 MLOAD DUP2 LT PUSH2 0x1A65 JUMPI PUSH2 0x1A64 PUSH2 0x2B3A JUMP JUMPDEST JUMPDEST PUSH1 0x20 MUL PUSH1 0x20 ADD ADD MLOAD DUP2 MSTORE PUSH1 0x20 ADD DUP7 DUP5 DUP2 MLOAD DUP2 LT PUSH2 0x1A85 JUMPI PUSH2 0x1A84 PUSH2 0x2B3A JUMP JUMPDEST JUMPDEST PUSH1 0x20 MUL PUSH1 0x20 ADD ADD MLOAD PUSH1 0x2 DUP2 MLOAD DUP2 LT PUSH2 0x1AA0 JUMPI PUSH2 0x1A9F PUSH2 0x2B3A JUMP JUMPDEST JUMPDEST PUSH1 0x20 MUL PUSH1 0x20 ADD ADD MLOAD DUP2 MSTORE POP SWAP1 POP DUP3 PUSH1 0x3 ADD DUP2 SWAP1 DUP1 PUSH1 0x1 DUP2 SLOAD ADD DUP1 DUP3 SSTORE DUP1 SWAP2 POP POP PUSH1 0x1 SWAP1 SUB SWAP1 PUSH1 0x0 MSTORE PUSH1 0x20 PUSH1 0x0 KECCAK256 SWAP1 PUSH1 0x3 MUL ADD PUSH1 0x0 SWAP1 SWAP2 SWAP1 SWAP2 SWAP1 SWAP2 POP PUSH1 0x0 DUP3 ADD MLOAD DUP2 PUSH1 0x0 ADD SWAP1 DUP2 PUSH2 0x1AF0 SWAP2 SWAP1 PUSH2 0x2E83 JUMP JUMPDEST POP PUSH1 0x20 DUP3 ADD MLOAD DUP2 PUSH1 0x1 ADD SWAP1 DUP2 PUSH2 0x1B06 SWAP2 SWAP1 PUSH2 0x2E83 JUMP JUMPDEST POP PUSH1 0x40 DUP3 ADD MLOAD DUP2 PUSH1 0x2 ADD SWAP1 DUP2 PUSH2 0x1B1C SWAP2 SWAP1 PUSH2 0x2E83 JUMP JUMPDEST POP POP POP POP DUP1 DUP1 PUSH2 0x1B2B SWAP1 PUSH2 0x2C5C JUMP JUMPDEST SWAP2 POP POP PUSH2 0x19E6 JUMP JUMPDEST POP PUSH1 0x0 JUMPDEST DUP3 MLOAD DUP2 LT ISZERO PUSH2 0x1C84 JUMPI PUSH1 0x0 PUSH1 0x40 MLOAD DUP1 PUSH1 0x60 ADD PUSH1 0x40 MSTORE DUP1 DUP6 DUP5 DUP2 MLOAD DUP2 LT PUSH2 0x1B60 JUMPI PUSH2 0x1B5F PUSH2 0x2B3A JUMP JUMPDEST JUMPDEST PUSH1 0x20 MUL PUSH1 0x20 ADD ADD MLOAD PUSH1 0x0 DUP2 MLOAD DUP2 LT PUSH2 0x1B7B JUMPI PUSH2 0x1B7A PUSH2 0x2B3A JUMP JUMPDEST JUMPDEST PUSH1 0x20 MUL PUSH1 0x20 ADD ADD MLOAD DUP2 MSTORE PUSH1 0x20 ADD DUP6 DUP5 DUP2 MLOAD DUP2 LT PUSH2 0x1B9B JUMPI PUSH2 0x1B9A PUSH2 0x2B3A JUMP JUMPDEST JUMPDEST PUSH1 0x20 MUL PUSH1 0x20 ADD ADD MLOAD PUSH1 0x1 DUP2 MLOAD DUP2 LT PUSH2 0x1BB6 JUMPI PUSH2 0x1BB5 PUSH2 0x2B3A JUMP JUMPDEST JUMPDEST PUSH1 0x20 MUL PUSH1 0x20 ADD ADD MLOAD DUP2 MSTORE PUSH1 0x20 ADD DUP6 DUP5 DUP2 MLOAD DUP2 LT PUSH2 0x1BD6 JUMPI PUSH2 0x1BD5 PUSH2 0x2B3A JUMP JUMPDEST JUMPDEST PUSH1 0x20 MUL PUSH1 0x20 ADD ADD MLOAD PUSH1 0x2 DUP2 MLOAD DUP2 LT PUSH2 0x1BF1 JUMPI PUSH2 0x1BF0 PUSH2 0x2B3A JUMP JUMPDEST JUMPDEST PUSH1 0x20 MUL PUSH1 0x20 ADD ADD MLOAD DUP2 MSTORE POP SWAP1 POP DUP3 PUSH1 0x4 ADD DUP2 SWAP1 DUP1 PUSH1 0x1 DUP2 SLOAD ADD DUP1 DUP3 SSTORE DUP1 SWAP2 POP POP PUSH1 0x1 SWAP1 SUB SWAP1 PUSH1 0x0 MSTORE PUSH1 0x20 PUSH1 0x0 KECCAK256 SWAP1 PUSH1 0x3 MUL ADD PUSH1 0x0 SWAP1 SWAP2 SWAP1 SWAP2 SWAP1 SWAP2 POP PUSH1 0x0 DUP3 ADD MLOAD DUP2 PUSH1 0x0 ADD SWAP1 DUP2 PUSH2 0x1C41 SWAP2 SWAP1 PUSH2 0x2E83 JUMP JUMPDEST POP PUSH1 0x20 DUP3 ADD MLOAD DUP2 PUSH1 0x1 ADD SWAP1 DUP2 PUSH2 0x1C57 SWAP2 SWAP1 PUSH2 0x2E83 JUMP JUMPDEST POP PUSH1 0x40 DUP3 ADD MLOAD DUP2 PUSH1 0x2 ADD SWAP1 DUP2 PUSH2 0x1C6D SWAP2 SWAP1 PUSH2 0x2E83 JUMP JUMPDEST POP POP POP POP DUP1 DUP1 PUSH2 0x1C7C SWAP1 PUSH2 0x2C5C JUMP JUMPDEST SWAP2 POP POP PUSH2 0x1B37 JUMP JUMPDEST POP POP POP POP POP POP JUMP JUMPDEST DUP2 PUSH1 0x1 DUP3 PUSH1 0x40 MLOAD PUSH2 0x1C9D SWAP2 SWAP1 PUSH2 0x2CD5 JUMP JUMPDEST SWAP1 DUP2 MSTORE PUSH1 0x20 ADD PUSH1 0x40 MLOAD DUP1 SWAP2 SUB SWAP1 KECCAK256 PUSH1 0x7 ADD DUP2 SWAP1 SSTORE POP DUP2 PUSH1 0x1 DUP3 PUSH1 0x40 MLOAD PUSH2 0x1CC3 SWAP2 SWAP1 PUSH2 0x2CD5 JUMP JUMPDEST SWAP1 DUP2 MSTORE PUSH1 0x20 ADD PUSH1 0x40 MLOAD DUP1 SWAP2 SUB SWAP1 KECCAK256 PUSH1 0x6 ADD DUP2 SWAP1 SSTORE POP DUP3 PUSH1 0x1 DUP3 PUSH1 0x40 MLOAD PUSH2 0x1CE9 SWAP2 SWAP1 PUSH2 0x2CD5 JUMP JUMPDEST SWAP1 DUP2 MSTORE PUSH1 0x20 ADD PUSH1 0x40 MLOAD DUP1 SWAP2 SUB SWAP1 KECCAK256 PUSH1 0x0 ADD SWAP1 DUP2 PUSH2 0x1D06 SWAP2 SWAP1 PUSH2 0x2E83 JUMP JUMPDEST POP POP POP POP JUMP JUMPDEST PUSH1 0x40 MLOAD DUP1 PUSH2 0x120 ADD PUSH1 0x40 MSTORE DUP1 PUSH1 0x60 DUP2 MSTORE PUSH1 0x20 ADD PUSH1 0x60 DUP2 MSTORE PUSH1 0x20 ADD PUSH1 0x60 DUP2 MSTORE PUSH1 0x20 ADD PUSH1 0x60 DUP2 MSTORE PUSH1 0x20 ADD PUSH1 0x60 DUP2 MSTORE PUSH1 0x20 ADD PUSH1 0x0 ISZERO ISZERO DUP2 MSTORE PUSH1 0x20 ADD PUSH1 0x0 DUP2 MSTORE PUSH1 0x20 ADD PUSH1 0x0 DUP2 MSTORE PUSH1 0x20 ADD PUSH1 0x60 DUP2 MSTORE POP SWAP1 JUMP JUMPDEST PUSH1 0x0 PUSH1 0x40 MLOAD SWAP1 POP SWAP1 JUMP JUMPDEST PUSH1 0x0 DUP1 REVERT JUMPDEST PUSH1 0x0 DUP1 REVERT JUMPDEST PUSH1 0x0 DUP1 REVERT JUMPDEST PUSH1 0x0 DUP1 REVERT JUMPDEST PUSH1 0x0 PUSH1 0x1F NOT PUSH1 0x1F DUP4 ADD AND SWAP1 POP SWAP2 SWAP1 POP JUMP JUMPDEST PUSH32 0x4E487B7100000000000000000000000000000000000000000000000000000000 PUSH1 0x0 MSTORE PUSH1 0x41 PUSH1 0x4 MSTORE PUSH1 0x24 PUSH1 0x0 REVERT JUMPDEST PUSH2 0x1DC1 DUP3 PUSH2 0x1D78 JUMP JUMPDEST DUP2 ADD DUP2 DUP2 LT PUSH8 0xFFFFFFFFFFFFFFFF DUP3 GT OR ISZERO PUSH2 0x1DE0 JUMPI PUSH2 0x1DDF PUSH2 0x1D89 JUMP JUMPDEST JUMPDEST DUP1 PUSH1 0x40 MSTORE POP POP POP JUMP JUMPDEST PUSH1 0x0 PUSH2 0x1DF3 PUSH2 0x1D5A JUMP JUMPDEST SWAP1 POP PUSH2 0x1DFF DUP3 DUP3 PUSH2 0x1DB8 JUMP JUMPDEST SWAP2 SWAP1 POP JUMP JUMPDEST PUSH1 0x0 PUSH8 0xFFFFFFFFFFFFFFFF DUP3 GT ISZERO PUSH2 0x1E1F JUMPI PUSH2 0x1E1E PUSH2 0x1D89 JUMP JUMPDEST JUMPDEST PUSH2 0x1E28 DUP3 PUSH2 0x1D78 JUMP JUMPDEST SWAP1 POP PUSH1 0x20 DUP2 ADD SWAP1 POP SWAP2 SWAP1 POP JUMP JUMPDEST DUP3 DUP2 DUP4 CALLDATACOPY PUSH1 0x0 DUP4 DUP4 ADD MSTORE POP POP POP JUMP JUMPDEST PUSH1 0x0 PUSH2 0x1E57 PUSH2 0x1E52 DUP5 PUSH2 0x1E04 JUMP JUMPDEST PUSH2 0x1DE9 JUMP JUMPDEST SWAP1 POP DUP3 DUP2 MSTORE PUSH1 0x20 DUP2 ADD DUP5 DUP5 DUP5 ADD GT ISZERO PUSH2 0x1E73 JUMPI PUSH2 0x1E72 PUSH2 0x1D73 JUMP JUMPDEST JUMPDEST PUSH2 0x1E7E DUP5 DUP3 DUP6 PUSH2 0x1E35 JUMP JUMPDEST POP SWAP4 SWAP3 POP POP POP JUMP JUMPDEST PUSH1 0x0 DUP3 PUSH1 0x1F DUP4 ADD SLT PUSH2 0x1E9B JUMPI PUSH2 0x1E9A PUSH2 0x1D6E JUMP JUMPDEST JUMPDEST DUP2 CALLDATALOAD PUSH2 0x1EAB DUP5 DUP3 PUSH1 0x20 DUP7 ADD PUSH2 0x1E44 JUMP JUMPDEST SWAP2 POP POP SWAP3 SWAP2 POP POP JUMP JUMPDEST PUSH1 0x0 PUSH1 0x20 DUP3 DUP5 SUB SLT ISZERO PUSH2 0x1ECA JUMPI PUSH2 0x1EC9 PUSH2 0x1D64 JUMP JUMPDEST JUMPDEST PUSH1 0x0 DUP3 ADD CALLDATALOAD PUSH8 0xFFFFFFFFFFFFFFFF DUP2 GT ISZERO PUSH2 0x1EE8 JUMPI PUSH2 0x1EE7 PUSH2 0x1D69 JUMP JUMPDEST JUMPDEST PUSH2 0x1EF4 DUP5 DUP3 DUP6 ADD PUSH2 0x1E86 JUMP JUMPDEST SWAP2 POP POP SWAP3 SWAP2 POP POP JUMP JUMPDEST PUSH1 0x0 DUP2 MLOAD SWAP1 POP SWAP2 SWAP1 POP JUMP JUMPDEST PUSH1 0x0 DUP3 DUP3 MSTORE PUSH1 0x20 DUP3 ADD SWAP1 POP SWAP3 SWAP2 POP POP JUMP JUMPDEST PUSH1 0x0 JUMPDEST DUP4 DUP2 LT ISZERO PUSH2 0x1F37 JUMPI DUP1 DUP3 ADD MLOAD DUP2 DUP5 ADD MSTORE PUSH1 0x20 DUP2 ADD SWAP1 POP PUSH2 0x1F1C JUMP JUMPDEST PUSH1 0x0 DUP5 DUP5 ADD MSTORE POP POP POP POP JUMP JUMPDEST PUSH1 0x0 PUSH2 0x1F4E DUP3 PUSH2 0x1EFD JUMP JUMPDEST PUSH2 0x1F58 DUP2 DUP6 PUSH2 0x1F08 JUMP JUMPDEST SWAP4 POP PUSH2 0x1F68 DUP2 DUP6 PUSH1 0x20 DUP7 ADD PUSH2 0x1F19 JUMP JUMPDEST PUSH2 0x1F71 DUP2 PUSH2 0x1D78 JUMP JUMPDEST DUP5 ADD SWAP2 POP POP SWAP3 SWAP2 POP POP JUMP JUMPDEST PUSH1 0x0 DUP2 ISZERO ISZERO SWAP1 POP SWAP2 SWAP1 POP JUMP JUMPDEST PUSH2 0x1F91 DUP2 PUSH2 0x1F7C JUMP JUMPDEST DUP3 MSTORE POP POP JUMP JUMPDEST PUSH1 0x0 DUP2 SWAP1 POP SWAP2 SWAP1 POP JUMP JUMPDEST PUSH2 0x1FAA DUP2 PUSH2 0x1F97 JUMP JUMPDEST DUP3 MSTORE POP POP JUMP JUMPDEST PUSH1 0x0 DUP2 MLOAD SWAP1 POP SWAP2 SWAP1 POP JUMP JUMPDEST PUSH1 0x0 DUP3 DUP3 MSTORE PUSH1 0x20 DUP3 ADD SWAP1 POP SWAP3 SWAP2 POP POP JUMP JUMPDEST PUSH1 0x0 PUSH2 0x1FD7 DUP3 PUSH2 0x1FB0 JUMP JUMPDEST PUSH2 0x1FE1 DUP2 DUP6 PUSH2 0x1FBB JUMP JUMPDEST SWAP4 POP PUSH2 0x1FF1 DUP2 DUP6 PUSH1 0x20 DUP7 ADD PUSH2 0x1F19 JUMP JUMPDEST PUSH2 0x1FFA DUP2 PUSH2 0x1D78 JUMP JUMPDEST DUP5 ADD SWAP2 POP POP SWAP3 SWAP2 POP POP JUMP JUMPDEST PUSH1 0x0 PUSH1 0xE0 DUP3 ADD SWAP1 POP DUP2 DUP2 SUB PUSH1 0x0 DUP4 ADD MSTORE PUSH2 0x201F DUP2 DUP11 PUSH2 0x1F43 JUMP JUMPDEST SWAP1 POP DUP2 DUP2 SUB PUSH1 0x20 DUP4 ADD MSTORE PUSH2 0x2033 DUP2 DUP10 PUSH2 0x1F43 JUMP JUMPDEST SWAP1 POP DUP2 DUP2 SUB PUSH1 0x40 DUP4 ADD MSTORE PUSH2 0x2047 DUP2 DUP9 PUSH2 0x1F43 JUMP JUMPDEST SWAP1 POP PUSH2 0x2056 PUSH1 0x60 DUP4 ADD DUP8 PUSH2 0x1F88 JUMP JUMPDEST PUSH2 0x2063 PUSH1 0x80 DUP4 ADD DUP7 PUSH2 0x1FA1 JUMP JUMPDEST PUSH2 0x2070 PUSH1 0xA0 DUP4 ADD DUP6 PUSH2 0x1FA1 JUMP JUMPDEST DUP2 DUP2 SUB PUSH1 0xC0 DUP4 ADD MSTORE PUSH2 0x2082 DUP2 DUP5 PUSH2 0x1FCC JUMP JUMPDEST SWAP1 POP SWAP9 SWAP8 POP POP POP POP POP POP POP POP JUMP JUMPDEST PUSH1 0x0 DUP2 MLOAD SWAP1 POP SWAP2 SWAP1 POP JUMP JUMPDEST PUSH1 0x0 DUP3 DUP3 MSTORE PUSH1 0x20 DUP3 ADD SWAP1 POP SWAP3 SWAP2 POP POP JUMP JUMPDEST PUSH1 0x0 DUP2 SWAP1 POP PUSH1 0x20 DUP3 ADD SWAP1 POP SWAP2 SWAP1 POP JUMP JUMPDEST PUSH1 0x0 DUP3 DUP3 MSTORE PUSH1 0x20 DUP3 ADD SWAP1 POP SWAP3 SWAP2 POP POP JUMP JUMPDEST PUSH1 0x0 PUSH2 0x20D8 DUP3 PUSH2 0x1EFD JUMP JUMPDEST PUSH2 0x20E2 DUP2 DUP6 PUSH2 0x20BC JUMP JUMPDEST SWAP4 POP PUSH2 0x20F2 DUP2 DUP6 PUSH1 0x20 DUP7 ADD PUSH2 0x1F19 JUMP JUMPDEST PUSH2 0x20FB DUP2 PUSH2 0x1D78 JUMP JUMPDEST DUP5 ADD SWAP2 POP POP SWAP3 SWAP2 POP POP JUMP JUMPDEST PUSH1 0x0 DUP2 MLOAD SWAP1 POP SWAP2 SWAP1 POP JUMP JUMPDEST PUSH1 0x0 DUP3 DUP3 MSTORE PUSH1 0x20 DUP3 ADD SWAP1 POP SWAP3 SWAP2 POP POP JUMP JUMPDEST PUSH1 0x0 DUP2 SWAP1 POP PUSH1 0x20 DUP3 ADD SWAP1 POP SWAP2 SWAP1 POP JUMP JUMPDEST PUSH1 0x0 PUSH1 0x60 DUP4 ADD PUSH1 0x0 DUP4 ADD MLOAD DUP5 DUP3 SUB PUSH1 0x0 DUP7 ADD MSTORE PUSH2 0x214F DUP3 DUP3 PUSH2 0x20CD JUMP JUMPDEST SWAP2 POP POP PUSH1 0x20 DUP4 ADD MLOAD DUP5 DUP3 SUB PUSH1 0x20 DUP7 ADD MSTORE PUSH2 0x2169 DUP3 DUP3 PUSH2 0x20CD JUMP JUMPDEST SWAP2 POP POP PUSH1 0x40 DUP4 ADD MLOAD DUP5 DUP3 SUB PUSH1 0x40 DUP7 ADD MSTORE PUSH2 0x2183 DUP3 DUP3 PUSH2 0x20CD JUMP JUMPDEST SWAP2 POP POP DUP1 SWAP2 POP POP SWAP3 SWAP2 POP POP JUMP JUMPDEST PUSH1 0x0 PUSH2 0x219C DUP4 DUP4 PUSH2 0x2132 JUMP JUMPDEST SWAP1 POP SWAP3 SWAP2 POP POP JUMP JUMPDEST PUSH1 0x0 PUSH1 0x20 DUP3 ADD SWAP1 POP SWAP2 SWAP1 POP JUMP JUMPDEST PUSH1 0x0 PUSH2 0x21BC DUP3 PUSH2 0x2106 JUMP JUMPDEST PUSH2 0x21C6 DUP2 DUP6 PUSH2 0x2111 JUMP JUMPDEST SWAP4 POP DUP4 PUSH1 0x20 DUP3 MUL DUP6 ADD PUSH2 0x21D8 DUP6 PUSH2 0x2122 JUMP JUMPDEST DUP1 PUSH1 0x0 JUMPDEST DUP6 DUP2 LT ISZERO PUSH2 0x2214 JUMPI DUP5 DUP5 SUB DUP10 MSTORE DUP2 MLOAD PUSH2 0x21F5 DUP6 DUP3 PUSH2 0x2190 JUMP JUMPDEST SWAP5 POP PUSH2 0x2200 DUP4 PUSH2 0x21A4 JUMP JUMPDEST SWAP3 POP PUSH1 0x20 DUP11 ADD SWAP10 POP POP PUSH1 0x1 DUP2 ADD SWAP1 POP PUSH2 0x21DC JUMP JUMPDEST POP DUP3 SWAP8 POP DUP8 SWAP6 POP POP POP POP POP POP SWAP3 SWAP2 POP POP JUMP JUMPDEST PUSH1 0x0 DUP2 MLOAD SWAP1 POP SWAP2 SWAP1 POP JUMP JUMPDEST PUSH1 0x0 DUP3 DUP3 MSTORE PUSH1 0x20 DUP3 ADD SWAP1 POP SWAP3 SWAP2 POP POP JUMP JUMPDEST PUSH1 0x0 DUP2 SWAP1 POP PUSH1 0x20 DUP3 ADD SWAP1 POP SWAP2 SWAP1 POP JUMP JUMPDEST PUSH1 0x0 PUSH1 0x60 DUP4 ADD PUSH1 0x0 DUP4 ADD MLOAD DUP5 DUP3 SUB PUSH1 0x0 DUP7 ADD MSTORE PUSH2 0x226F DUP3 DUP3 PUSH2 0x20CD JUMP JUMPDEST SWAP2 POP POP PUSH1 0x20 DUP4 ADD MLOAD DUP5 DUP3 SUB PUSH1 0x20 DUP7 ADD MSTORE PUSH2 0x2289 DUP3 DUP3 PUSH2 0x20CD JUMP JUMPDEST SWAP2 POP POP PUSH1 0x40 DUP4 ADD MLOAD DUP5 DUP3 SUB PUSH1 0x40 DUP7 ADD MSTORE PUSH2 0x22A3 DUP3 DUP3 PUSH2 0x20CD JUMP JUMPDEST SWAP2 POP POP DUP1 SWAP2 POP POP SWAP3 SWAP2 POP POP JUMP JUMPDEST PUSH1 0x0 PUSH2 0x22BC DUP4 DUP4 PUSH2 0x2252 JUMP JUMPDEST SWAP1 POP SWAP3 SWAP2 POP POP JUMP JUMPDEST PUSH1 0x0 PUSH1 0x20 DUP3 ADD SWAP1 POP SWAP2 SWAP1 POP JUMP JUMPDEST PUSH1 0x0 PUSH2 0x22DC DUP3 PUSH2 0x2226 JUMP JUMPDEST PUSH2 0x22E6 DUP2 DUP6 PUSH2 0x2231 JUMP JUMPDEST SWAP4 POP DUP4 PUSH1 0x20 DUP3 MUL DUP6 ADD PUSH2 0x22F8 DUP6 PUSH2 0x2242 JUMP JUMPDEST DUP1 PUSH1 0x0 JUMPDEST DUP6 DUP2 LT ISZERO PUSH2 0x2334 JUMPI DUP5 DUP5 SUB DUP10 MSTORE DUP2 MLOAD PUSH2 0x2315 DUP6 DUP3 PUSH2 0x22B0 JUMP JUMPDEST SWAP5 POP PUSH2 0x2320 DUP4 PUSH2 0x22C4 JUMP JUMPDEST SWAP3 POP PUSH1 0x20 DUP11 ADD SWAP10 POP POP PUSH1 0x1 DUP2 ADD SWAP1 POP PUSH2 0x22FC JUMP JUMPDEST POP DUP3 SWAP8 POP DUP8 SWAP6 POP POP POP POP POP POP SWAP3 SWAP2 POP POP JUMP JUMPDEST PUSH2 0x234F DUP2 PUSH2 0x1F7C JUMP JUMPDEST DUP3 MSTORE POP POP JUMP JUMPDEST PUSH2 0x235E DUP2 PUSH2 0x1F97 JUMP JUMPDEST DUP3 MSTORE POP POP JUMP JUMPDEST PUSH1 0x0 DUP3 DUP3 MSTORE PUSH1 0x20 DUP3 ADD SWAP1 POP SWAP3 SWAP2 POP POP JUMP JUMPDEST PUSH1 0x0 PUSH2 0x2380 DUP3 PUSH2 0x1FB0 JUMP JUMPDEST PUSH2 0x238A DUP2 DUP6 PUSH2 0x2364 JUMP JUMPDEST SWAP4 POP PUSH2 0x239A DUP2 DUP6 PUSH1 0x20 DUP7 ADD PUSH2 0x1F19 JUMP JUMPDEST PUSH2 0x23A3 DUP2 PUSH2 0x1D78 JUMP JUMPDEST DUP5 ADD SWAP2 POP POP SWAP3 SWAP2 POP POP JUMP JUMPDEST PUSH1 0x0 PUSH2 0x120 DUP4 ADD PUSH1 0x0 DUP4 ADD MLOAD DUP5 DUP3 SUB PUSH1 0x0 DUP7 ADD MSTORE PUSH2 0x23CC DUP3 DUP3 PUSH2 0x20CD JUMP JUMPDEST SWAP2 POP POP PUSH1 0x20 DUP4 ADD MLOAD DUP5 DUP3 SUB PUSH1 0x20 DUP7 ADD MSTORE PUSH2 0x23E6 DUP3 DUP3 PUSH2 0x20CD JUMP JUMPDEST SWAP2 POP POP PUSH1 0x40 DUP4 ADD MLOAD DUP5 DUP3 SUB PUSH1 0x40 DUP7 ADD MSTORE PUSH2 0x2400 DUP3 DUP3 PUSH2 0x20CD JUMP JUMPDEST SWAP2 POP POP PUSH1 0x60 DUP4 ADD MLOAD DUP5 DUP3 SUB PUSH1 0x60 DUP7 ADD MSTORE PUSH2 0x241A DUP3 DUP3 PUSH2 0x21B1 JUMP JUMPDEST SWAP2 POP POP PUSH1 0x80 DUP4 ADD MLOAD DUP5 DUP3 SUB PUSH1 0x80 DUP7 ADD MSTORE PUSH2 0x2434 DUP3 DUP3 PUSH2 0x22D1 JUMP JUMPDEST SWAP2 POP POP PUSH1 0xA0 DUP4 ADD MLOAD PUSH2 0x2449 PUSH1 0xA0 DUP7 ADD DUP3 PUSH2 0x2346 JUMP JUMPDEST POP PUSH1 0xC0 DUP4 ADD MLOAD PUSH2 0x245C PUSH1 0xC0 DUP7 ADD DUP3 PUSH2 0x2355 JUMP JUMPDEST POP PUSH1 0xE0 DUP4 ADD MLOAD PUSH2 0x246F PUSH1 0xE0 DUP7 ADD DUP3 PUSH2 0x2355 JUMP JUMPDEST POP PUSH2 0x100 DUP4 ADD MLOAD DUP5 DUP3 SUB PUSH2 0x100 DUP7 ADD MSTORE PUSH2 0x2489 DUP3 DUP3 PUSH2 0x2375 JUMP JUMPDEST SWAP2 POP POP DUP1 SWAP2 POP POP SWAP3 SWAP2 POP POP JUMP JUMPDEST PUSH1 0x0 PUSH2 0x24A2 DUP4 DUP4 PUSH2 0x23AE JUMP JUMPDEST SWAP1 POP SWAP3 SWAP2 POP POP JUMP JUMPDEST PUSH1 0x0 PUSH1 0x20 DUP3 ADD SWAP1 POP SWAP2 SWAP1 POP JUMP JUMPDEST PUSH1 0x0 PUSH2 0x24C2 DUP3 PUSH2 0x2090 JUMP JUMPDEST PUSH2 0x24CC DUP2 DUP6 PUSH2 0x209B JUMP JUMPDEST SWAP4 POP DUP4 PUSH1 0x20 DUP3 MUL DUP6 ADD PUSH2 0x24DE DUP6 PUSH2 0x20AC JUMP JUMPDEST DUP1 PUSH1 0x0 JUMPDEST DUP6 DUP2 LT ISZERO PUSH2 0x251A JUMPI DUP5 DUP5 SUB DUP10 MSTORE DUP2 MLOAD PUSH2 0x24FB DUP6 DUP3 PUSH2 0x2496 JUMP JUMPDEST SWAP5 POP PUSH2 0x2506 DUP4 PUSH2 0x24AA JUMP JUMPDEST SWAP3 POP PUSH1 0x20 DUP11 ADD SWAP10 POP POP PUSH1 0x1 DUP2 ADD SWAP1 POP PUSH2 0x24E2 JUMP JUMPDEST POP DUP3 SWAP8 POP DUP8 SWAP6 POP POP POP POP POP POP SWAP3 SWAP2 POP POP JUMP JUMPDEST PUSH1 0x0 PUSH1 0x20 DUP3 ADD SWAP1 POP DUP2 DUP2 SUB PUSH1 0x0 DUP4 ADD MSTORE PUSH2 0x2546 DUP2 DUP5 PUSH2 0x24B7 JUMP JUMPDEST SWAP1 POP SWAP3 SWAP2 POP POP JUMP JUMPDEST PUSH1 0x0 PUSH8 0xFFFFFFFFFFFFFFFF DUP3 GT ISZERO PUSH2 0x2569 JUMPI PUSH2 0x2568 PUSH2 0x1D89 JUMP JUMPDEST JUMPDEST PUSH1 0x20 DUP3 MUL SWAP1 POP PUSH1 0x20 DUP2 ADD SWAP1 POP SWAP2 SWAP1 POP JUMP JUMPDEST PUSH1 0x0 DUP1 REVERT JUMPDEST PUSH1 0x0 PUSH8 0xFFFFFFFFFFFFFFFF DUP3 GT ISZERO PUSH2 0x259A JUMPI PUSH2 0x2599 PUSH2 0x1D89 JUMP JUMPDEST JUMPDEST PUSH1 0x20 DUP3 MUL SWAP1 POP PUSH1 0x20 DUP2 ADD SWAP1 POP SWAP2 SWAP1 POP JUMP JUMPDEST PUSH1 0x0 PUSH2 0x25BE PUSH2 0x25B9 DUP5 PUSH2 0x257F JUMP JUMPDEST PUSH2 0x1DE9 JUMP JUMPDEST SWAP1 POP DUP1 DUP4 DUP3 MSTORE PUSH1 0x20 DUP3 ADD SWAP1 POP PUSH1 0x20 DUP5 MUL DUP4 ADD DUP6 DUP2 GT ISZERO PUSH2 0x25E1 JUMPI PUSH2 0x25E0 PUSH2 0x257A JUMP JUMPDEST JUMPDEST DUP4 JUMPDEST DUP2 DUP2 LT ISZERO PUSH2 0x2628 JUMPI DUP1 CALLDATALOAD PUSH8 0xFFFFFFFFFFFFFFFF DUP2 GT ISZERO PUSH2 0x2606 JUMPI PUSH2 0x2605 PUSH2 0x1D6E JUMP JUMPDEST JUMPDEST DUP1 DUP7 ADD PUSH2 0x2613 DUP10 DUP3 PUSH2 0x1E86 JUMP JUMPDEST DUP6 MSTORE PUSH1 0x20 DUP6 ADD SWAP5 POP POP POP PUSH1 0x20 DUP2 ADD SWAP1 POP PUSH2 0x25E3 JUMP JUMPDEST POP POP POP SWAP4 SWAP3 POP POP POP JUMP JUMPDEST PUSH1 0x0 DUP3 PUSH1 0x1F DUP4 ADD SLT PUSH2 0x2647 JUMPI PUSH2 0x2646 PUSH2 0x1D6E JUMP JUMPDEST JUMPDEST DUP2 CALLDATALOAD PUSH2 0x2657 DUP5 DUP3 PUSH1 0x20 DUP7 ADD PUSH2 0x25AB JUMP JUMPDEST SWAP2 POP POP SWAP3 SWAP2 POP POP JUMP JUMPDEST PUSH1 0x0 PUSH2 0x2673 PUSH2 0x266E DUP5 PUSH2 0x254E JUMP JUMPDEST PUSH2 0x1DE9 JUMP JUMPDEST SWAP1 POP DUP1 DUP4 DUP3 MSTORE PUSH1 0x20 DUP3 ADD SWAP1 POP PUSH1 0x20 DUP5 MUL DUP4 ADD DUP6 DUP2 GT ISZERO PUSH2 0x2696 JUMPI PUSH2 0x2695 PUSH2 0x257A JUMP JUMPDEST JUMPDEST DUP4 JUMPDEST DUP2 DUP2 LT ISZERO PUSH2 0x26DD JUMPI DUP1 CALLDATALOAD PUSH8 0xFFFFFFFFFFFFFFFF DUP2 GT ISZERO PUSH2 0x26BB JUMPI PUSH2 0x26BA PUSH2 0x1D6E JUMP JUMPDEST JUMPDEST DUP1 DUP7 ADD PUSH2 0x26C8 DUP10 DUP3 PUSH2 0x2632 JUMP JUMPDEST DUP6 MSTORE PUSH1 0x20 DUP6 ADD SWAP5 POP POP POP PUSH1 0x20 DUP2 ADD SWAP1 POP PUSH2 0x2698 JUMP JUMPDEST POP POP POP SWAP4 SWAP3 POP POP POP JUMP JUMPDEST PUSH1 0x0 DUP3 PUSH1 0x1F DUP4 ADD SLT PUSH2 0x26FC JUMPI PUSH2 0x26FB PUSH2 0x1D6E JUMP JUMPDEST JUMPDEST DUP2 CALLDATALOAD PUSH2 0x270C DUP5 DUP3 PUSH1 0x20 DUP7 ADD PUSH2 0x2660 JUMP JUMPDEST SWAP2 POP POP SWAP3 SWAP2 POP POP JUMP JUMPDEST PUSH1 0x0 PUSH8 0xFFFFFFFFFFFFFFFF DUP3 GT ISZERO PUSH2 0x2730 JUMPI PUSH2 0x272F PUSH2 0x1D89 JUMP JUMPDEST JUMPDEST PUSH2 0x2739 DUP3 PUSH2 0x1D78 JUMP JUMPDEST SWAP1 POP PUSH1 0x20 DUP2 ADD SWAP1 POP SWAP2 SWAP1 POP JUMP JUMPDEST PUSH1 0x0 PUSH2 0x2759 PUSH2 0x2754 DUP5 PUSH2 0x2715 JUMP JUMPDEST PUSH2 0x1DE9 JUMP JUMPDEST SWAP1 POP DUP3 DUP2 MSTORE PUSH1 0x20 DUP2 ADD DUP5 DUP5 DUP5 ADD GT ISZERO PUSH2 0x2775 JUMPI PUSH2 0x2774 PUSH2 0x1D73 JUMP JUMPDEST JUMPDEST PUSH2 0x2780 DUP5 DUP3 DUP6 PUSH2 0x1E35 JUMP JUMPDEST POP SWAP4 SWAP3 POP POP POP JUMP JUMPDEST PUSH1 0x0 DUP3 PUSH1 0x1F DUP4 ADD SLT PUSH2 0x279D JUMPI PUSH2 0x279C PUSH2 0x1D6E JUMP JUMPDEST JUMPDEST DUP2 CALLDATALOAD PUSH2 0x27AD DUP5 DUP3 PUSH1 0x20 DUP7 ADD PUSH2 0x2746 JUMP JUMPDEST SWAP2 POP POP SWAP3 SWAP2 POP POP JUMP JUMPDEST PUSH1 0x0 DUP1 PUSH1 0x0 DUP1 PUSH1 0x0 DUP1 PUSH1 0x0 DUP1 PUSH2 0x100 DUP10 DUP12 SUB SLT ISZERO PUSH2 0x27D7 JUMPI PUSH2 0x27D6 PUSH2 0x1D64 JUMP JUMPDEST JUMPDEST PUSH1 0x0 DUP10 ADD CALLDATALOAD PUSH8 0xFFFFFFFFFFFFFFFF DUP2 GT ISZERO PUSH2 0x27F5 JUMPI PUSH2 0x27F4 PUSH2 0x1D69 JUMP JUMPDEST JUMPDEST PUSH2 0x2801 DUP12 DUP3 DUP13 ADD PUSH2 0x1E86 JUMP JUMPDEST SWAP9 POP POP PUSH1 0x20 DUP10 ADD CALLDATALOAD PUSH8 0xFFFFFFFFFFFFFFFF DUP2 GT ISZERO PUSH2 0x2822 JUMPI PUSH2 0x2821 PUSH2 0x1D69 JUMP JUMPDEST JUMPDEST PUSH2 0x282E DUP12 DUP3 DUP13 ADD PUSH2 0x1E86 JUMP JUMPDEST SWAP8 POP POP PUSH1 0x40 DUP10 ADD CALLDATALOAD PUSH8 0xFFFFFFFFFFFFFFFF DUP2 GT ISZERO PUSH2 0x284F JUMPI PUSH2 0x284E PUSH2 0x1D69 JUMP JUMPDEST JUMPDEST PUSH2 0x285B DUP12 DUP3 DUP13 ADD PUSH2 0x1E86 JUMP JUMPDEST SWAP7 POP POP PUSH1 0x60 DUP10 ADD CALLDATALOAD PUSH8 0xFFFFFFFFFFFFFFFF DUP2 GT ISZERO PUSH2 0x287C JUMPI PUSH2 0x287B PUSH2 0x1D69 JUMP JUMPDEST JUMPDEST PUSH2 0x2888 DUP12 DUP3 DUP13 ADD PUSH2 0x26E7 JUMP JUMPDEST SWAP6 POP POP PUSH1 0x80 DUP10 ADD CALLDATALOAD PUSH8 0xFFFFFFFFFFFFFFFF DUP2 GT ISZERO PUSH2 0x28A9 JUMPI PUSH2 0x28A8 PUSH2 0x1D69 JUMP JUMPDEST JUMPDEST PUSH2 0x28B5 DUP12 DUP3 DUP13 ADD PUSH2 0x26E7 JUMP JUMPDEST SWAP5 POP POP PUSH1 0xA0 DUP10 ADD CALLDATALOAD PUSH8 0xFFFFFFFFFFFFFFFF DUP2 GT ISZERO PUSH2 0x28D6 JUMPI PUSH2 0x28D5 PUSH2 0x1D69 JUMP JUMPDEST JUMPDEST PUSH2 0x28E2 DUP12 DUP3 DUP13 ADD PUSH2 0x26E7 JUMP JUMPDEST SWAP4 POP POP PUSH1 0xC0 DUP10 ADD CALLDATALOAD PUSH8 0xFFFFFFFFFFFFFFFF DUP2 GT ISZERO PUSH2 0x2903 JUMPI PUSH2 0x2902 PUSH2 0x1D69 JUMP JUMPDEST JUMPDEST PUSH2 0x290F DUP12 DUP3 DUP13 ADD PUSH2 0x26E7 JUMP JUMPDEST SWAP3 POP POP PUSH1 0xE0 DUP10 ADD CALLDATALOAD PUSH8 0xFFFFFFFFFFFFFFFF DUP2 GT ISZERO PUSH2 0x2930 JUMPI PUSH2 0x292F PUSH2 0x1D69 JUMP JUMPDEST JUMPDEST PUSH2 0x293C DUP12 DUP3 DUP13 ADD PUSH2 0x2788 JUMP JUMPDEST SWAP2 POP POP SWAP3 SWAP6 SWAP9 POP SWAP3 SWAP6 SWAP9 SWAP1 SWAP4 SWAP7 POP JUMP JUMPDEST PUSH1 0x0 DUP1 PUSH1 0x0 DUP1 PUSH1 0x80 DUP6 DUP8 SUB SLT ISZERO PUSH2 0x2966 JUMPI PUSH2 0x2965 PUSH2 0x1D64 JUMP JUMPDEST JUMPDEST PUSH1 0x0 DUP6 ADD CALLDATALOAD PUSH8 0xFFFFFFFFFFFFFFFF DUP2 GT ISZERO PUSH2 0x2984 JUMPI PUSH2 0x2983 PUSH2 0x1D69 JUMP JUMPDEST JUMPDEST PUSH2 0x2990 DUP8 DUP3 DUP9 ADD PUSH2 0x1E86 JUMP JUMPDEST SWAP5 POP POP PUSH1 0x20 DUP6 ADD CALLDATALOAD PUSH8 0xFFFFFFFFFFFFFFFF DUP2 GT ISZERO PUSH2 0x29B1 JUMPI PUSH2 0x29B0 PUSH2 0x1D69 JUMP JUMPDEST JUMPDEST PUSH2 0x29BD DUP8 DUP3 DUP9 ADD PUSH2 0x1E86 JUMP JUMPDEST SWAP4 POP POP PUSH1 0x40 DUP6 ADD CALLDATALOAD PUSH8 0xFFFFFFFFFFFFFFFF DUP2 GT ISZERO PUSH2 0x29DE JUMPI PUSH2 0x29DD PUSH2 0x1D69 JUMP JUMPDEST JUMPDEST PUSH2 0x29EA DUP8 DUP3 DUP9 ADD PUSH2 0x26E7 JUMP JUMPDEST SWAP3 POP POP PUSH1 0x60 DUP6 ADD CALLDATALOAD PUSH8 0xFFFFFFFFFFFFFFFF DUP2 GT ISZERO PUSH2 0x2A0B JUMPI PUSH2 0x2A0A PUSH2 0x1D69 JUMP JUMPDEST JUMPDEST PUSH2 0x2A17 DUP8 DUP3 DUP9 ADD PUSH2 0x26E7 JUMP JUMPDEST SWAP2 POP POP SWAP3 SWAP6 SWAP2 SWAP5 POP SWAP3 POP JUMP JUMPDEST PUSH2 0x2A2C DUP2 PUSH2 0x1F97 JUMP JUMPDEST DUP2 EQ PUSH2 0x2A37 JUMPI PUSH1 0x0 DUP1 REVERT JUMPDEST POP JUMP JUMPDEST PUSH1 0x0 DUP2 CALLDATALOAD SWAP1 POP PUSH2 0x2A49 DUP2 PUSH2 0x2A23 JUMP JUMPDEST SWAP3 SWAP2 POP POP JUMP JUMPDEST PUSH1 0x0 DUP1 PUSH1 0x0 PUSH1 0x60 DUP5 DUP7 SUB SLT ISZERO PUSH2 0x2A68 JUMPI PUSH2 0x2A67 PUSH2 0x1D64 JUMP JUMPDEST JUMPDEST PUSH1 0x0 DUP5 ADD CALLDATALOAD PUSH8 0xFFFFFFFFFFFFFFFF DUP2 GT ISZERO PUSH2 0x2A86 JUMPI PUSH2 0x2A85 PUSH2 0x1D69 JUMP JUMPDEST JUMPDEST PUSH2 0x2A92 DUP7 DUP3 DUP8 ADD PUSH2 0x1E86 JUMP JUMPDEST SWAP4 POP POP PUSH1 0x20 PUSH2 0x2AA3 DUP7 DUP3 DUP8 ADD PUSH2 0x2A3A JUMP JUMPDEST SWAP3 POP POP PUSH1 0x40 DUP5 ADD CALLDATALOAD PUSH8 0xFFFFFFFFFFFFFFFF DUP2 GT ISZERO PUSH2 0x2AC4 JUMPI PUSH2 0x2AC3 PUSH2 0x1D69 JUMP JUMPDEST JUMPDEST PUSH2 0x2AD0 DUP7 DUP3 DUP8 ADD PUSH2 0x1E86 JUMP JUMPDEST SWAP2 POP POP SWAP3 POP SWAP3 POP SWAP3 JUMP JUMPDEST PUSH32 0x4E487B7100000000000000000000000000000000000000000000000000000000 PUSH1 0x0 MSTORE PUSH1 0x22 PUSH1 0x4 MSTORE PUSH1 0x24 PUSH1 0x0 REVERT JUMPDEST PUSH1 0x0 PUSH1 0x2 DUP3 DIV SWAP1 POP PUSH1 0x1 DUP3 AND DUP1 PUSH2 0x2B21 JUMPI PUSH1 0x7F DUP3 AND SWAP2 POP JUMPDEST PUSH1 0x20 DUP3 LT DUP2 SUB PUSH2 0x2B34 JUMPI PUSH2 0x2B33 PUSH2 0x2ADA JUMP JUMPDEST JUMPDEST POP SWAP2 SWAP1 POP JUMP JUMPDEST PUSH32 0x4E487B7100000000000000000000000000000000000000000000000000000000 PUSH1 0x0 MSTORE PUSH1 0x32 PUSH1 0x4 MSTORE PUSH1 0x24 PUSH1 0x0 REVERT JUMPDEST PUSH1 0x0 DUP2 SWAP1 POP SWAP3 SWAP2 POP POP JUMP JUMPDEST PUSH1 0x0 DUP2 SWAP1 POP DUP2 PUSH1 0x0 MSTORE PUSH1 0x20 PUSH1 0x0 KECCAK256 SWAP1 POP SWAP2 SWAP1 POP JUMP JUMPDEST PUSH1 0x0 DUP2 SLOAD PUSH2 0x2B96 DUP2 PUSH2 0x2B09 JUMP JUMPDEST PUSH2 0x2BA0 DUP2 DUP7 PUSH2 0x2B69 JUMP JUMPDEST SWAP5 POP PUSH1 0x1 DUP3 AND PUSH1 0x0 DUP2 EQ PUSH2 0x2BBB JUMPI PUSH1 0x1 DUP2 EQ PUSH2 0x2BD0 JUMPI PUSH2 0x2C03 JUMP JUMPDEST PUSH1 0xFF NOT DUP4 AND DUP7 MSTORE DUP2 ISZERO ISZERO DUP3 MUL DUP7 ADD SWAP4 POP PUSH2 0x2C03 JUMP JUMPDEST PUSH2 0x2BD9 DUP6 PUSH2 0x2B74 JUMP JUMPDEST PUSH1 0x0 JUMPDEST DUP4 DUP2 LT ISZERO PUSH2 0x2BFB JUMPI DUP2 SLOAD DUP2 DUP10 ADD MSTORE PUSH1 0x1 DUP3 ADD SWAP2 POP PUSH1 0x20 DUP2 ADD SWAP1 POP PUSH2 0x2BDC JUMP JUMPDEST DUP4 DUP9 ADD SWAP6 POP POP POP JUMPDEST POP POP POP SWAP3 SWAP2 POP POP JUMP JUMPDEST PUSH1 0x0 PUSH2 0x2C18 DUP3 DUP5 PUSH2 0x2B89 JUMP JUMPDEST SWAP2 POP DUP2 SWAP1 POP SWAP3 SWAP2 POP POP JUMP JUMPDEST PUSH32 0x4E487B7100000000000000000000000000000000000000000000000000000000 PUSH1 0x0 MSTORE PUSH1 0x11 PUSH1 0x4 MSTORE PUSH1 0x24 PUSH1 0x0 REVERT JUMPDEST PUSH1 0x0 DUP2 SWAP1 POP SWAP2 SWAP1 POP JUMP JUMPDEST PUSH1 0x0 PUSH2 0x2C67 DUP3 PUSH2 0x2C52 JUMP JUMPDEST SWAP2 POP PUSH32 0xFFFFFFFFFFFFFFFFFFFFFFFFFFFFFFFFFFFFFFFFFFFFFFFFFFFFFFFFFFFFFFFF DUP3 SUB PUSH2 0x2C99 JUMPI PUSH2 0x2C98 PUSH2 0x2C23 JUMP JUMPDEST JUMPDEST PUSH1 0x1 DUP3 ADD SWAP1 POP SWAP2 SWAP1 POP JUMP JUMPDEST PUSH1 0x0 PUSH2 0x2CAF DUP3 PUSH2 0x1EFD JUMP JUMPDEST PUSH2 0x2CB9 DUP2 DUP6 PUSH2 0x2B69 JUMP JUMPDEST SWAP4 POP PUSH2 0x2CC9 DUP2 DUP6 PUSH1 0x20 DUP7 ADD PUSH2 0x1F19 JUMP JUMPDEST DUP1 DUP5 ADD SWAP2 POP POP SWAP3 SWAP2 POP POP JUMP JUMPDEST PUSH1 0x0 PUSH2 0x2CE1 DUP3 DUP5 PUSH2 0x2CA4 JUMP JUMPDEST SWAP2 POP DUP2 SWAP1 POP SWAP3 SWAP2 POP POP JUMP JUMPDEST PUSH1 0x0 PUSH1 0x20 PUSH1 0x1F DUP4 ADD DIV SWAP1 POP SWAP2 SWAP1 POP JUMP JUMPDEST PUSH1 0x0 DUP3 DUP3 SHL SWAP1 POP SWAP3 SWAP2 POP POP JUMP JUMPDEST PUSH1 0x0 PUSH1 0x8 DUP4 MUL PUSH2 0x2D39 PUSH32 0xFFFFFFFFFFFFFFFFFFFFFFFFFFFFFFFFFFFFFFFFFFFFFFFFFFFFFFFFFFFFFFFF DUP3 PUSH2 0x2CFC JUMP JUMPDEST PUSH2 0x2D43 DUP7 DUP4 PUSH2 0x2CFC JUMP JUMPDEST SWAP6 POP DUP1 NOT DUP5 AND SWAP4 POP DUP1 DUP7 AND DUP5 OR SWAP3 POP POP POP SWAP4 SWAP3 POP POP POP JUMP JUMPDEST PUSH1 0x0 DUP2 SWAP1 POP SWAP2 SWAP1 POP JUMP JUMPDEST PUSH1 0x0 PUSH2 0x2D80 PUSH2 0x2D7B PUSH2 0x2D76 DUP5 PUSH2 0x2C52 JUMP JUMPDEST PUSH2 0x2D5B JUMP JUMPDEST PUSH2 0x2C52 JUMP JUMPDEST SWAP1 POP SWAP2 SWAP1 POP JUMP JUMPDEST PUSH1 0x0 DUP2 SWAP1 POP SWAP2 SWAP1 POP JUMP JUMPDEST PUSH2 0x2D9A DUP4 PUSH2 0x2D65 JUMP JUMPDEST PUSH2 0x2DAE PUSH2 0x2DA6 DUP3 PUSH2 0x2D87 JUMP JUMPDEST DUP5 DUP5 SLOAD PUSH2 0x2D09 JUMP JUMPDEST DUP3 SSTORE POP POP POP POP JUMP JUMPDEST PUSH1 0x0 SWAP1 JUMP JUMPDEST PUSH2 0x2DC3 PUSH2 0x2DB6 JUMP JUMPDEST PUSH2 0x2DCE DUP2 DUP5 DUP5 PUSH2 0x2D91 JUMP JUMPDEST POP POP POP JUMP JUMPDEST JUMPDEST DUP2 DUP2 LT ISZERO PUSH2 0x2DF2 JUMPI PUSH2 0x2DE7 PUSH1 0x0 DUP3 PUSH2 0x2DBB JUMP JUMPDEST PUSH1 0x1 DUP2 ADD SWAP1 POP PUSH2 0x2DD4 JUMP JUMPDEST POP POP JUMP JUMPDEST PUSH1 0x1F DUP3 GT ISZERO PUSH2 0x2E37 JUMPI PUSH2 0x2E08 DUP2 PUSH2 0x2B74 JUMP JUMPDEST PUSH2 0x2E11 DUP5 PUSH2 0x2CEC JUMP JUMPDEST DUP2 ADD PUSH1 0x20 DUP6 LT ISZERO PUSH2 0x2E20 JUMPI DUP2 SWAP1 POP JUMPDEST PUSH2 0x2E34 PUSH2 0x2E2C DUP6 PUSH2 0x2CEC JUMP JUMPDEST DUP4 ADD DUP3 PUSH2 0x2DD3 JUMP JUMPDEST POP POP JUMPDEST POP POP POP JUMP JUMPDEST PUSH1 0x0 DUP3 DUP3 SHR SWAP1 POP SWAP3 SWAP2 POP POP JUMP JUMPDEST PUSH1 0x0 PUSH2 0x2E5A PUSH1 0x0 NOT DUP5 PUSH1 0x8 MUL PUSH2 0x2E3C JUMP JUMPDEST NOT DUP1 DUP4 AND SWAP2 POP POP SWAP3 SWAP2 POP POP JUMP JUMPDEST PUSH1 0x0 PUSH2 0x2E73 DUP4 DUP4 PUSH2 0x2E49 JUMP JUMPDEST SWAP2 POP DUP3 PUSH1 0x2 MUL DUP3 OR SWAP1 POP SWAP3 SWAP2 POP POP JUMP JUMPDEST PUSH2 0x2E8C DUP3 PUSH2 0x1EFD JUMP JUMPDEST PUSH8 0xFFFFFFFFFFFFFFFF DUP2 GT ISZERO PUSH2 0x2EA5 JUMPI PUSH2 0x2EA4 PUSH2 0x1D89 JUMP JUMPDEST JUMPDEST PUSH2 0x2EAF DUP3 SLOAD PUSH2 0x2B09 JUMP JUMPDEST PUSH2 0x2EBA DUP3 DUP3 DUP6 PUSH2 0x2DF6 JUMP JUMPDEST PUSH1 0x0 PUSH1 0x20 SWAP1 POP PUSH1 0x1F DUP4 GT PUSH1 0x1 DUP2 EQ PUSH2 0x2EED JUMPI PUSH1 0x0 DUP5 ISZERO PUSH2 0x2EDB JUMPI DUP3 DUP8 ADD MLOAD SWAP1 POP JUMPDEST PUSH2 0x2EE5 DUP6 DUP3 PUSH2 0x2E67 JUMP JUMPDEST DUP7 SSTORE POP PUSH2 0x2F4D JUMP JUMPDEST PUSH1 0x1F NOT DUP5 AND PUSH2 0x2EFB DUP7 PUSH2 0x2B74 JUMP JUMPDEST PUSH1 0x0 JUMPDEST DUP3 DUP2 LT ISZERO PUSH2 0x2F23 JUMPI DUP5 DUP10 ADD MLOAD DUP3 SSTORE PUSH1 0x1 DUP3 ADD SWAP2 POP PUSH1 0x20 DUP6 ADD SWAP5 POP PUSH1 0x20 DUP2 ADD SWAP1 POP PUSH2 0x2EFE JUMP JUMPDEST DUP7 DUP4 LT ISZERO PUSH2 0x2F40 JUMPI DUP5 DUP10 ADD MLOAD PUSH2 0x2F3C PUSH1 0x1F DUP10 AND DUP3 PUSH2 0x2E49 JUMP JUMPDEST DUP4 SSTORE POP JUMPDEST PUSH1 0x1 PUSH1 0x2 DUP9 MUL ADD DUP9 SSTORE POP POP POP JUMPDEST POP POP POP POP POP POP JUMP JUMPDEST PUSH1 0x0 DUP2 SWAP1 POP DUP2 PUSH1 0x0 MSTORE PUSH1 0x20 PUSH1 0x0 KECCAK256 SWAP1 POP SWAP2 SWAP1 POP JUMP JUMPDEST PUSH1 0x1F DUP3 GT ISZERO PUSH2 0x2FAB JUMPI PUSH2 0x2F7C DUP2 PUSH2 0x2F55 JUMP JUMPDEST PUSH2 0x2F85 DUP5 PUSH2 0x2CEC JUMP JUMPDEST DUP2 ADD PUSH1 0x20 DUP6 LT ISZERO PUSH2 0x2F94 JUMPI DUP2 SWAP1 POP JUMPDEST PUSH2 0x2FA8 PUSH2 0x2FA0 DUP6 PUSH2 0x2CEC JUMP JUMPDEST DUP4 ADD DUP3 PUSH2 0x2DD3 JUMP JUMPDEST POP POP JUMPDEST POP POP POP JUMP JUMPDEST PUSH2 0x2FB9 DUP3 PUSH2 0x1FB0 JUMP JUMPDEST PUSH8 0xFFFFFFFFFFFFFFFF DUP2 GT ISZERO PUSH2 0x2FD2 JUMPI PUSH2 0x2FD1 PUSH2 0x1D89 JUMP JUMPDEST JUMPDEST PUSH2 0x2FDC DUP3 SLOAD PUSH2 0x2B09 JUMP JUMPDEST PUSH2 0x2FE7 DUP3 DUP3 DUP6 PUSH2 0x2F6A JUMP JUMPDEST PUSH1 0x0 PUSH1 0x20 SWAP1 POP PUSH1 0x1F DUP4 GT PUSH1 0x1 DUP2 EQ PUSH2 0x301A JUMPI PUSH1 0x0 DUP5 ISZERO PUSH2 0x3008 JUMPI DUP3 DUP8 ADD MLOAD SWAP1 POP JUMPDEST PUSH2 0x3012 DUP6 DUP3 PUSH2 0x2E67 JUMP JUMPDEST DUP7 SSTORE POP PUSH2 0x307A JUMP JUMPDEST PUSH1 0x1F NOT DUP5 AND PUSH2 0x3028 DUP7 PUSH2 0x2F55 JUMP JUMPDEST PUSH1 0x0 JUMPDEST DUP3 DUP2 LT ISZERO PUSH2 0x3050 JUMPI DUP5 DUP10 ADD MLOAD DUP3 SSTORE PUSH1 0x1 DUP3 ADD SWAP2 POP PUSH1 0x20 DUP6 ADD SWAP5 POP PUSH1 0x20 DUP2 ADD SWAP1 POP PUSH2 0x302B JUMP JUMPDEST DUP7 DUP4 LT ISZERO PUSH2 0x306D JUMPI DUP5 DUP10 ADD MLOAD PUSH2 0x3069 PUSH1 0x1F DUP10 AND DUP3 PUSH2 0x2E49 JUMP JUMPDEST DUP4 SSTORE POP JUMPDEST PUSH1 0x1 PUSH1 0x2 DUP9 MUL ADD DUP9 SSTORE POP POP POP JUMPDEST POP POP POP POP POP POP JUMP INVALID LOG2 PUSH5 0x6970667358 0x22 SLT KECCAK256 0xDA TIMESTAMP PUSH20 0x4860E4A85CC255B2FD37B275B02C299EBE2C89CB 0xF8 SWAP14 SELFBALANCE SWAP10 PUSH1 0x30 PUSH1 0x26 PUSH7 0x64736F6C634300 ADDMOD SLT STOP CALLER "
				},
				"gasEstimates": {
					"creation": {
						"codeDepositCost": "2494400",
						"executionCost": "2688",
						"totalCost": "2497088"
					},
					"external": {
						"approval(string,int256,string)": "infinite",
						"developer(string)": "infinite",
						"fromAdmin(string,string,string[][],string[][])": "infinite",
						"getRequests()": "infinite",
						"getfromDev()": "infinite",
						"requests(string)": "infinite",
						"uploadedbyDev(string,string,string,string[][],string[][],string[][],string[][],bytes)": "infinite"
					}
				},
				"methodIdentifiers": {
					"approval(string,int256,string)": "f82e4aee",
					"developer(string)": "09129dee",
					"fromAdmin(string,string,string[][],string[][])": "d7428bc7",
					"getRequests()": "8813ce12",
					"getfromDev()": "303941dd",
					"requests(string)": "692d51d2",
					"uploadedbyDev(string,string,string,string[][],string[][],string[][],string[][],bytes)": "4b006240"
				}
			},
			"storageLayout": {
				"storage": [
					{
						"astId": 43,
						"contract": "fromAdmin.sol:ToAdmin",
						"label": "requests",
						"offset": 0,
						"slot": "0",
						"type": "t_mapping(t_string_memory_ptr,t_struct(listOfBnF)38_storage)"
					},
					{
						"astId": 48,
						"contract": "fromAdmin.sol:ToAdmin",
						"label": "developer",
						"offset": 0,
						"slot": "1",
						"type": "t_mapping(t_string_memory_ptr,t_struct(listOfBnF)38_storage)"
					},
					{
						"astId": 51,
						"contract": "fromAdmin.sol:ToAdmin",
						"label": "admin",
						"offset": 0,
						"slot": "2",
						"type": "t_array(t_string_storage)dyn_storage"
					},
					{
						"astId": 54,
						"contract": "fromAdmin.sol:ToAdmin",
						"label": "dev",
						"offset": 0,
						"slot": "3",
						"type": "t_array(t_string_storage)dyn_storage"
					}
				],
				"types": {
					"t_array(t_string_storage)dyn_storage": {
						"base": "t_string_storage",
						"encoding": "dynamic_array",
						"label": "string[]",
						"numberOfBytes": "32"
					},
					"t_array(t_struct(bugReport)8_storage)dyn_storage": {
						"base": "t_struct(bugReport)8_storage",
						"encoding": "dynamic_array",
						"label": "struct bugReport[]",
						"numberOfBytes": "32"
					},
					"t_array(t_struct(featureReport)15_storage)dyn_storage": {
						"base": "t_struct(featureReport)15_storage",
						"encoding": "dynamic_array",
						"label": "struct featureReport[]",
						"numberOfBytes": "32"
					},
					"t_bool": {
						"encoding": "inplace",
						"label": "bool",
						"numberOfBytes": "1"
					},
					"t_bytes_storage": {
						"encoding": "bytes",
						"label": "bytes",
						"numberOfBytes": "32"
					},
					"t_int256": {
						"encoding": "inplace",
						"label": "int256",
						"numberOfBytes": "32"
					},
					"t_mapping(t_string_memory_ptr,t_struct(listOfBnF)38_storage)": {
						"encoding": "mapping",
						"key": "t_string_memory_ptr",
						"label": "mapping(string => struct listOfBnF)",
						"numberOfBytes": "32",
						"value": "t_struct(listOfBnF)38_storage"
					},
					"t_string_memory_ptr": {
						"encoding": "bytes",
						"label": "string",
						"numberOfBytes": "32"
					},
					"t_string_storage": {
						"encoding": "bytes",
						"label": "string",
						"numberOfBytes": "32"
					},
					"t_struct(bugReport)8_storage": {
						"encoding": "inplace",
						"label": "struct bugReport",
						"members": [
							{
								"astId": 3,
								"contract": "fromAdmin.sol:ToAdmin",
								"label": "bugTitle",
								"offset": 0,
								"slot": "0",
								"type": "t_string_storage"
							},
							{
								"astId": 5,
								"contract": "fromAdmin.sol:ToAdmin",
								"label": "bugDescription",
								"offset": 0,
								"slot": "1",
								"type": "t_string_storage"
							},
							{
								"astId": 7,
								"contract": "fromAdmin.sol:ToAdmin",
								"label": "bugPriority",
								"offset": 0,
								"slot": "2",
								"type": "t_string_storage"
							}
						],
						"numberOfBytes": "96"
					},
					"t_struct(featureReport)15_storage": {
						"encoding": "inplace",
						"label": "struct featureReport",
						"members": [
							{
								"astId": 10,
								"contract": "fromAdmin.sol:ToAdmin",
								"label": "featureTitle",
								"offset": 0,
								"slot": "0",
								"type": "t_string_storage"
							},
							{
								"astId": 12,
								"contract": "fromAdmin.sol:ToAdmin",
								"label": "featureDescription",
								"offset": 0,
								"slot": "1",
								"type": "t_string_storage"
							},
							{
								"astId": 14,
								"contract": "fromAdmin.sol:ToAdmin",
								"label": "featurePriority",
								"offset": 0,
								"slot": "2",
								"type": "t_string_storage"
							}
						],
						"numberOfBytes": "96"
					},
					"t_struct(listOfBnF)38_storage": {
						"encoding": "inplace",
						"label": "struct listOfBnF",
						"members": [
							{
								"astId": 17,
								"contract": "fromAdmin.sol:ToAdmin",
								"label": "timeofReport",
								"offset": 0,
								"slot": "0",
								"type": "t_string_storage"
							},
							{
								"astId": 19,
								"contract": "fromAdmin.sol:ToAdmin",
								"label": "patchName",
								"offset": 0,
								"slot": "1",
								"type": "t_string_storage"
							},
							{
								"astId": 21,
								"contract": "fromAdmin.sol:ToAdmin",
								"label": "vno",
								"offset": 0,
								"slot": "2",
								"type": "t_string_storage"
							},
							{
								"astId": 25,
								"contract": "fromAdmin.sol:ToAdmin",
								"label": "bugRequest",
								"offset": 0,
								"slot": "3",
								"type": "t_array(t_struct(bugReport)8_storage)dyn_storage"
							},
							{
								"astId": 29,
								"contract": "fromAdmin.sol:ToAdmin",
								"label": "featureRequest",
								"offset": 0,
								"slot": "4",
								"type": "t_array(t_struct(featureReport)15_storage)dyn_storage"
							},
							{
								"astId": 31,
								"contract": "fromAdmin.sol:ToAdmin",
								"label": "deployed",
								"offset": 0,
								"slot": "5",
								"type": "t_bool"
							},
							{
								"astId": 33,
								"contract": "fromAdmin.sol:ToAdmin",
								"label": "uploaded",
								"offset": 0,
								"slot": "6",
								"type": "t_int256"
							},
							{
								"astId": 35,
								"contract": "fromAdmin.sol:ToAdmin",
								"label": "approved",
								"offset": 0,
								"slot": "7",
								"type": "t_int256"
							},
							{
								"astId": 37,
								"contract": "fromAdmin.sol:ToAdmin",
								"label": "patch",
								"offset": 0,
								"slot": "8",
								"type": "t_bytes_storage"
							}
						],
						"numberOfBytes": "288"
					}
				}
			},
			"userdoc": {
				"kind": "user",
				"methods": {},
				"version": 1
			}
		}
	}
}